{
	"data": {
		"bytecode": {
			"linkReferences": {},
			"object": "6080604052348015600e575f80fd5b5061095a8061001c5f395ff3fe608060405234801561000f575f80fd5b5060043610610086575f3560e01c8063a25f4d3111610059578063a25f4d3114610124578063a69d276614610154578063d3dc22e414610172578063eee972061461019057610086565b80633b377b3c1461008a57806353308370146100a85780637b292909146100d85780638d10ff0c14610108575b5f80fd5b6100926101c0565b60405161009f91906105f9565b60405180910390f35b6100c260048036038101906100bd9190610649565b6101d0565b6040516100cf9190610683565b60405180910390f35b6100f260048036038101906100ed9190610649565b6103a1565b6040516100ff9190610683565b60405180910390f35b610122600480360381019061011d91906106c6565b6103b5565b005b61013e600480360381019061013991906106f1565b6103d4565b60405161014b9190610683565b60405180910390f35b61015c61058e565b60405161016991906105f9565b60405180910390f35b61017a61059c565b60405161018791906105f9565b60405180910390f35b6101aa60048036038101906101a59190610649565b6105aa565b6040516101b79190610683565b60405180910390f35b5f8054906101000a900460e01b81565b5f8060e01b7bffffffffffffffffffffffffffffffffffffffffffffffffffffffff19165f8054906101000a900460e01b7bffffffffffffffffffffffffffffffffffffffffffffffffffffffff191603610260576040517f08c379a000000000000000000000000000000000000000000000000000000000815260040161025790610789565b60405180910390fd5b5f803073ffffffffffffffffffffffffffffffffffffffff165f8054906101000a900460e01b856040516024016102979190610683565b604051602081830303815290604052907bffffffffffffffffffffffffffffffffffffffffffffffffffffffff19166020820180517bffffffffffffffffffffffffffffffffffffffffffffffffffffffff838183161783525050505060405161030191906107f9565b5f604051808303815f865af19150503d805f811461033a576040519150601f19603f3d011682016040523d82523d5f602084013e61033f565b606091505b509150915081610384576040517f08c379a000000000000000000000000000000000000000000000000000000000815260040161037b90610859565b60405180910390fd5b80806020019051810190610398919061088b565b92505050919050565b5f81826103ae91906108e3565b9050919050565b805f806101000a81548163ffffffff021916908360e01c021790555050565b5f8060e01b7bffffffffffffffffffffffffffffffffffffffffffffffffffffffff1916837bffffffffffffffffffffffffffffffffffffffffffffffffffffffff191603610458576040517f08c379a000000000000000000000000000000000000000000000000000000000815260040161044f90610789565b60405180910390fd5b5f803073ffffffffffffffffffffffffffffffffffffffff1685856040516024016104839190610683565b604051602081830303815290604052907bffffffffffffffffffffffffffffffffffffffffffffffffffffffff19166020820180517bffffffffffffffffffffffffffffffffffffffffffffffffffffffff83818316178352505050506040516104ed91906107f9565b5f604051808303815f865af19150503d805f8114610526576040519150601f19603f3d011682016040523d82523d5f602084013e61052b565b606091505b509150915081610570576040517f08c379a000000000000000000000000000000000000000000000000000000000815260040161056790610859565b60405180910390fd5b80806020019051810190610584919061088b565b9250505092915050565b5f637b29290960e01b905090565b5f63eee9720660e01b905090565b5f6002826105b891906108e3565b9050919050565b5f7fffffffff0000000000000000000000000000000000000000000000000000000082169050919050565b6105f3816105bf565b82525050565b5f60208201905061060c5f8301846105ea565b92915050565b5f80fd5b5f819050919050565b61062881610616565b8114610632575f80fd5b50565b5f813590506106438161061f565b92915050565b5f6020828403121561065e5761065d610612565b5b5f61066b84828501610635565b91505092915050565b61067d81610616565b82525050565b5f6020820190506106965f830184610674565b92915050565b6106a5816105bf565b81146106af575f80fd5b50565b5f813590506106c08161069c565b92915050565b5f602082840312156106db576106da610612565b5b5f6106e8848285016106b2565b91505092915050565b5f806040838503121561070757610706610612565b5b5f610714858286016106b2565b925050602061072585828601610635565b9150509250929050565b5f82825260208201905092915050565b7f53656c6563746f72206e6f7420736574000000000000000000000000000000005f82015250565b5f61077360108361072f565b915061077e8261073f565b602082019050919050565b5f6020820190508181035f8301526107a081610767565b9050919050565b5f81519050919050565b5f81905092915050565b8281835e5f83830152505050565b5f6107d3826107a7565b6107dd81856107b1565b93506107ed8185602086016107bb565b80840191505092915050565b5f61080482846107c9565b915081905092915050565b7f43616c6c204661696c65640000000000000000000000000000000000000000005f82015250565b5f610843600b8361072f565b915061084e8261080f565b602082019050919050565b5f6020820190508181035f83015261087081610837565b9050919050565b5f815190506108858161061f565b92915050565b5f602082840312156108a05761089f610612565b5b5f6108ad84828501610877565b91505092915050565b7f4e487b71000000000000000000000000000000000000000000000000000000005f52601160045260245ffd5b5f6108ed82610616565b91506108f883610616565b925082820261090681610616565b9150828204841483151761091d5761091c6108b6565b5b509291505056fea26469706673582212203bf980341b5868fc429474096f20803635ff6f9e7217e8d33017686d74d316ca64736f6c634300081a0033",
			"opcodes": "PUSH1 0x80 PUSH1 0x40 MSTORE CALLVALUE DUP1 ISZERO PUSH1 0xE JUMPI PUSH0 DUP1 REVERT JUMPDEST POP PUSH2 0x95A DUP1 PUSH2 0x1C PUSH0 CODECOPY PUSH0 RETURN INVALID PUSH1 0x80 PUSH1 0x40 MSTORE CALLVALUE DUP1 ISZERO PUSH2 0xF JUMPI PUSH0 DUP1 REVERT JUMPDEST POP PUSH1 0x4 CALLDATASIZE LT PUSH2 0x86 JUMPI PUSH0 CALLDATALOAD PUSH1 0xE0 SHR DUP1 PUSH4 0xA25F4D31 GT PUSH2 0x59 JUMPI DUP1 PUSH4 0xA25F4D31 EQ PUSH2 0x124 JUMPI DUP1 PUSH4 0xA69D2766 EQ PUSH2 0x154 JUMPI DUP1 PUSH4 0xD3DC22E4 EQ PUSH2 0x172 JUMPI DUP1 PUSH4 0xEEE97206 EQ PUSH2 0x190 JUMPI PUSH2 0x86 JUMP JUMPDEST DUP1 PUSH4 0x3B377B3C EQ PUSH2 0x8A JUMPI DUP1 PUSH4 0x53308370 EQ PUSH2 0xA8 JUMPI DUP1 PUSH4 0x7B292909 EQ PUSH2 0xD8 JUMPI DUP1 PUSH4 0x8D10FF0C EQ PUSH2 0x108 JUMPI JUMPDEST PUSH0 DUP1 REVERT JUMPDEST PUSH2 0x92 PUSH2 0x1C0 JUMP JUMPDEST PUSH1 0x40 MLOAD PUSH2 0x9F SWAP2 SWAP1 PUSH2 0x5F9 JUMP JUMPDEST PUSH1 0x40 MLOAD DUP1 SWAP2 SUB SWAP1 RETURN JUMPDEST PUSH2 0xC2 PUSH1 0x4 DUP1 CALLDATASIZE SUB DUP2 ADD SWAP1 PUSH2 0xBD SWAP2 SWAP1 PUSH2 0x649 JUMP JUMPDEST PUSH2 0x1D0 JUMP JUMPDEST PUSH1 0x40 MLOAD PUSH2 0xCF SWAP2 SWAP1 PUSH2 0x683 JUMP JUMPDEST PUSH1 0x40 MLOAD DUP1 SWAP2 SUB SWAP1 RETURN JUMPDEST PUSH2 0xF2 PUSH1 0x4 DUP1 CALLDATASIZE SUB DUP2 ADD SWAP1 PUSH2 0xED SWAP2 SWAP1 PUSH2 0x649 JUMP JUMPDEST PUSH2 0x3A1 JUMP JUMPDEST PUSH1 0x40 MLOAD PUSH2 0xFF SWAP2 SWAP1 PUSH2 0x683 JUMP JUMPDEST PUSH1 0x40 MLOAD DUP1 SWAP2 SUB SWAP1 RETURN JUMPDEST PUSH2 0x122 PUSH1 0x4 DUP1 CALLDATASIZE SUB DUP2 ADD SWAP1 PUSH2 0x11D SWAP2 SWAP1 PUSH2 0x6C6 JUMP JUMPDEST PUSH2 0x3B5 JUMP JUMPDEST STOP JUMPDEST PUSH2 0x13E PUSH1 0x4 DUP1 CALLDATASIZE SUB DUP2 ADD SWAP1 PUSH2 0x139 SWAP2 SWAP1 PUSH2 0x6F1 JUMP JUMPDEST PUSH2 0x3D4 JUMP JUMPDEST PUSH1 0x40 MLOAD PUSH2 0x14B SWAP2 SWAP1 PUSH2 0x683 JUMP JUMPDEST PUSH1 0x40 MLOAD DUP1 SWAP2 SUB SWAP1 RETURN JUMPDEST PUSH2 0x15C PUSH2 0x58E JUMP JUMPDEST PUSH1 0x40 MLOAD PUSH2 0x169 SWAP2 SWAP1 PUSH2 0x5F9 JUMP JUMPDEST PUSH1 0x40 MLOAD DUP1 SWAP2 SUB SWAP1 RETURN JUMPDEST PUSH2 0x17A PUSH2 0x59C JUMP JUMPDEST PUSH1 0x40 MLOAD PUSH2 0x187 SWAP2 SWAP1 PUSH2 0x5F9 JUMP JUMPDEST PUSH1 0x40 MLOAD DUP1 SWAP2 SUB SWAP1 RETURN JUMPDEST PUSH2 0x1AA PUSH1 0x4 DUP1 CALLDATASIZE SUB DUP2 ADD SWAP1 PUSH2 0x1A5 SWAP2 SWAP1 PUSH2 0x649 JUMP JUMPDEST PUSH2 0x5AA JUMP JUMPDEST PUSH1 0x40 MLOAD PUSH2 0x1B7 SWAP2 SWAP1 PUSH2 0x683 JUMP JUMPDEST PUSH1 0x40 MLOAD DUP1 SWAP2 SUB SWAP1 RETURN JUMPDEST PUSH0 DUP1 SLOAD SWAP1 PUSH2 0x100 EXP SWAP1 DIV PUSH1 0xE0 SHL DUP2 JUMP JUMPDEST PUSH0 DUP1 PUSH1 0xE0 SHL PUSH28 0xFFFFFFFFFFFFFFFFFFFFFFFFFFFFFFFFFFFFFFFFFFFFFFFFFFFFFFFF NOT AND PUSH0 DUP1 SLOAD SWAP1 PUSH2 0x100 EXP SWAP1 DIV PUSH1 0xE0 SHL PUSH28 0xFFFFFFFFFFFFFFFFFFFFFFFFFFFFFFFFFFFFFFFFFFFFFFFFFFFFFFFF NOT AND SUB PUSH2 0x260 JUMPI PUSH1 0x40 MLOAD PUSH32 0x8C379A000000000000000000000000000000000000000000000000000000000 DUP2 MSTORE PUSH1 0x4 ADD PUSH2 0x257 SWAP1 PUSH2 0x789 JUMP JUMPDEST PUSH1 0x40 MLOAD DUP1 SWAP2 SUB SWAP1 REVERT JUMPDEST PUSH0 DUP1 ADDRESS PUSH20 0xFFFFFFFFFFFFFFFFFFFFFFFFFFFFFFFFFFFFFFFF AND PUSH0 DUP1 SLOAD SWAP1 PUSH2 0x100 EXP SWAP1 DIV PUSH1 0xE0 SHL DUP6 PUSH1 0x40 MLOAD PUSH1 0x24 ADD PUSH2 0x297 SWAP2 SWAP1 PUSH2 0x683 JUMP JUMPDEST PUSH1 0x40 MLOAD PUSH1 0x20 DUP2 DUP4 SUB SUB DUP2 MSTORE SWAP1 PUSH1 0x40 MSTORE SWAP1 PUSH28 0xFFFFFFFFFFFFFFFFFFFFFFFFFFFFFFFFFFFFFFFFFFFFFFFFFFFFFFFF NOT AND PUSH1 0x20 DUP3 ADD DUP1 MLOAD PUSH28 0xFFFFFFFFFFFFFFFFFFFFFFFFFFFFFFFFFFFFFFFFFFFFFFFFFFFFFFFF DUP4 DUP2 DUP4 AND OR DUP4 MSTORE POP POP POP POP PUSH1 0x40 MLOAD PUSH2 0x301 SWAP2 SWAP1 PUSH2 0x7F9 JUMP JUMPDEST PUSH0 PUSH1 0x40 MLOAD DUP1 DUP4 SUB DUP2 PUSH0 DUP7 GAS CALL SWAP2 POP POP RETURNDATASIZE DUP1 PUSH0 DUP2 EQ PUSH2 0x33A JUMPI PUSH1 0x40 MLOAD SWAP2 POP PUSH1 0x1F NOT PUSH1 0x3F RETURNDATASIZE ADD AND DUP3 ADD PUSH1 0x40 MSTORE RETURNDATASIZE DUP3 MSTORE RETURNDATASIZE PUSH0 PUSH1 0x20 DUP5 ADD RETURNDATACOPY PUSH2 0x33F JUMP JUMPDEST PUSH1 0x60 SWAP2 POP JUMPDEST POP SWAP2 POP SWAP2 POP DUP2 PUSH2 0x384 JUMPI PUSH1 0x40 MLOAD PUSH32 0x8C379A000000000000000000000000000000000000000000000000000000000 DUP2 MSTORE PUSH1 0x4 ADD PUSH2 0x37B SWAP1 PUSH2 0x859 JUMP JUMPDEST PUSH1 0x40 MLOAD DUP1 SWAP2 SUB SWAP1 REVERT JUMPDEST DUP1 DUP1 PUSH1 0x20 ADD SWAP1 MLOAD DUP2 ADD SWAP1 PUSH2 0x398 SWAP2 SWAP1 PUSH2 0x88B JUMP JUMPDEST SWAP3 POP POP POP SWAP2 SWAP1 POP JUMP JUMPDEST PUSH0 DUP2 DUP3 PUSH2 0x3AE SWAP2 SWAP1 PUSH2 0x8E3 JUMP JUMPDEST SWAP1 POP SWAP2 SWAP1 POP JUMP JUMPDEST DUP1 PUSH0 DUP1 PUSH2 0x100 EXP DUP2 SLOAD DUP2 PUSH4 0xFFFFFFFF MUL NOT AND SWAP1 DUP4 PUSH1 0xE0 SHR MUL OR SWAP1 SSTORE POP POP JUMP JUMPDEST PUSH0 DUP1 PUSH1 0xE0 SHL PUSH28 0xFFFFFFFFFFFFFFFFFFFFFFFFFFFFFFFFFFFFFFFFFFFFFFFFFFFFFFFF NOT AND DUP4 PUSH28 0xFFFFFFFFFFFFFFFFFFFFFFFFFFFFFFFFFFFFFFFFFFFFFFFFFFFFFFFF NOT AND SUB PUSH2 0x458 JUMPI PUSH1 0x40 MLOAD PUSH32 0x8C379A000000000000000000000000000000000000000000000000000000000 DUP2 MSTORE PUSH1 0x4 ADD PUSH2 0x44F SWAP1 PUSH2 0x789 JUMP JUMPDEST PUSH1 0x40 MLOAD DUP1 SWAP2 SUB SWAP1 REVERT JUMPDEST PUSH0 DUP1 ADDRESS PUSH20 0xFFFFFFFFFFFFFFFFFFFFFFFFFFFFFFFFFFFFFFFF AND DUP6 DUP6 PUSH1 0x40 MLOAD PUSH1 0x24 ADD PUSH2 0x483 SWAP2 SWAP1 PUSH2 0x683 JUMP JUMPDEST PUSH1 0x40 MLOAD PUSH1 0x20 DUP2 DUP4 SUB SUB DUP2 MSTORE SWAP1 PUSH1 0x40 MSTORE SWAP1 PUSH28 0xFFFFFFFFFFFFFFFFFFFFFFFFFFFFFFFFFFFFFFFFFFFFFFFFFFFFFFFF NOT AND PUSH1 0x20 DUP3 ADD DUP1 MLOAD PUSH28 0xFFFFFFFFFFFFFFFFFFFFFFFFFFFFFFFFFFFFFFFFFFFFFFFFFFFFFFFF DUP4 DUP2 DUP4 AND OR DUP4 MSTORE POP POP POP POP PUSH1 0x40 MLOAD PUSH2 0x4ED SWAP2 SWAP1 PUSH2 0x7F9 JUMP JUMPDEST PUSH0 PUSH1 0x40 MLOAD DUP1 DUP4 SUB DUP2 PUSH0 DUP7 GAS CALL SWAP2 POP POP RETURNDATASIZE DUP1 PUSH0 DUP2 EQ PUSH2 0x526 JUMPI PUSH1 0x40 MLOAD SWAP2 POP PUSH1 0x1F NOT PUSH1 0x3F RETURNDATASIZE ADD AND DUP3 ADD PUSH1 0x40 MSTORE RETURNDATASIZE DUP3 MSTORE RETURNDATASIZE PUSH0 PUSH1 0x20 DUP5 ADD RETURNDATACOPY PUSH2 0x52B JUMP JUMPDEST PUSH1 0x60 SWAP2 POP JUMPDEST POP SWAP2 POP SWAP2 POP DUP2 PUSH2 0x570 JUMPI PUSH1 0x40 MLOAD PUSH32 0x8C379A000000000000000000000000000000000000000000000000000000000 DUP2 MSTORE PUSH1 0x4 ADD PUSH2 0x567 SWAP1 PUSH2 0x859 JUMP JUMPDEST PUSH1 0x40 MLOAD DUP1 SWAP2 SUB SWAP1 REVERT JUMPDEST DUP1 DUP1 PUSH1 0x20 ADD SWAP1 MLOAD DUP2 ADD SWAP1 PUSH2 0x584 SWAP2 SWAP1 PUSH2 0x88B JUMP JUMPDEST SWAP3 POP POP POP SWAP3 SWAP2 POP POP JUMP JUMPDEST PUSH0 PUSH4 0x7B292909 PUSH1 0xE0 SHL SWAP1 POP SWAP1 JUMP JUMPDEST PUSH0 PUSH4 0xEEE97206 PUSH1 0xE0 SHL SWAP1 POP SWAP1 JUMP JUMPDEST PUSH0 PUSH1 0x2 DUP3 PUSH2 0x5B8 SWAP2 SWAP1 PUSH2 0x8E3 JUMP JUMPDEST SWAP1 POP SWAP2 SWAP1 POP JUMP JUMPDEST PUSH0 PUSH32 0xFFFFFFFF00000000000000000000000000000000000000000000000000000000 DUP3 AND SWAP1 POP SWAP2 SWAP1 POP JUMP JUMPDEST PUSH2 0x5F3 DUP2 PUSH2 0x5BF JUMP JUMPDEST DUP3 MSTORE POP POP JUMP JUMPDEST PUSH0 PUSH1 0x20 DUP3 ADD SWAP1 POP PUSH2 0x60C PUSH0 DUP4 ADD DUP5 PUSH2 0x5EA JUMP JUMPDEST SWAP3 SWAP2 POP POP JUMP JUMPDEST PUSH0 DUP1 REVERT JUMPDEST PUSH0 DUP2 SWAP1 POP SWAP2 SWAP1 POP JUMP JUMPDEST PUSH2 0x628 DUP2 PUSH2 0x616 JUMP JUMPDEST DUP2 EQ PUSH2 0x632 JUMPI PUSH0 DUP1 REVERT JUMPDEST POP JUMP JUMPDEST PUSH0 DUP2 CALLDATALOAD SWAP1 POP PUSH2 0x643 DUP2 PUSH2 0x61F JUMP JUMPDEST SWAP3 SWAP2 POP POP JUMP JUMPDEST PUSH0 PUSH1 0x20 DUP3 DUP5 SUB SLT ISZERO PUSH2 0x65E JUMPI PUSH2 0x65D PUSH2 0x612 JUMP JUMPDEST JUMPDEST PUSH0 PUSH2 0x66B DUP5 DUP3 DUP6 ADD PUSH2 0x635 JUMP JUMPDEST SWAP2 POP POP SWAP3 SWAP2 POP POP JUMP JUMPDEST PUSH2 0x67D DUP2 PUSH2 0x616 JUMP JUMPDEST DUP3 MSTORE POP POP JUMP JUMPDEST PUSH0 PUSH1 0x20 DUP3 ADD SWAP1 POP PUSH2 0x696 PUSH0 DUP4 ADD DUP5 PUSH2 0x674 JUMP JUMPDEST SWAP3 SWAP2 POP POP JUMP JUMPDEST PUSH2 0x6A5 DUP2 PUSH2 0x5BF JUMP JUMPDEST DUP2 EQ PUSH2 0x6AF JUMPI PUSH0 DUP1 REVERT JUMPDEST POP JUMP JUMPDEST PUSH0 DUP2 CALLDATALOAD SWAP1 POP PUSH2 0x6C0 DUP2 PUSH2 0x69C JUMP JUMPDEST SWAP3 SWAP2 POP POP JUMP JUMPDEST PUSH0 PUSH1 0x20 DUP3 DUP5 SUB SLT ISZERO PUSH2 0x6DB JUMPI PUSH2 0x6DA PUSH2 0x612 JUMP JUMPDEST JUMPDEST PUSH0 PUSH2 0x6E8 DUP5 DUP3 DUP6 ADD PUSH2 0x6B2 JUMP JUMPDEST SWAP2 POP POP SWAP3 SWAP2 POP POP JUMP JUMPDEST PUSH0 DUP1 PUSH1 0x40 DUP4 DUP6 SUB SLT ISZERO PUSH2 0x707 JUMPI PUSH2 0x706 PUSH2 0x612 JUMP JUMPDEST JUMPDEST PUSH0 PUSH2 0x714 DUP6 DUP3 DUP7 ADD PUSH2 0x6B2 JUMP JUMPDEST SWAP3 POP POP PUSH1 0x20 PUSH2 0x725 DUP6 DUP3 DUP7 ADD PUSH2 0x635 JUMP JUMPDEST SWAP2 POP POP SWAP3 POP SWAP3 SWAP1 POP JUMP JUMPDEST PUSH0 DUP3 DUP3 MSTORE PUSH1 0x20 DUP3 ADD SWAP1 POP SWAP3 SWAP2 POP POP JUMP JUMPDEST PUSH32 0x53656C6563746F72206E6F742073657400000000000000000000000000000000 PUSH0 DUP3 ADD MSTORE POP JUMP JUMPDEST PUSH0 PUSH2 0x773 PUSH1 0x10 DUP4 PUSH2 0x72F JUMP JUMPDEST SWAP2 POP PUSH2 0x77E DUP3 PUSH2 0x73F JUMP JUMPDEST PUSH1 0x20 DUP3 ADD SWAP1 POP SWAP2 SWAP1 POP JUMP JUMPDEST PUSH0 PUSH1 0x20 DUP3 ADD SWAP1 POP DUP2 DUP2 SUB PUSH0 DUP4 ADD MSTORE PUSH2 0x7A0 DUP2 PUSH2 0x767 JUMP JUMPDEST SWAP1 POP SWAP2 SWAP1 POP JUMP JUMPDEST PUSH0 DUP2 MLOAD SWAP1 POP SWAP2 SWAP1 POP JUMP JUMPDEST PUSH0 DUP2 SWAP1 POP SWAP3 SWAP2 POP POP JUMP JUMPDEST DUP3 DUP2 DUP4 MCOPY PUSH0 DUP4 DUP4 ADD MSTORE POP POP POP JUMP JUMPDEST PUSH0 PUSH2 0x7D3 DUP3 PUSH2 0x7A7 JUMP JUMPDEST PUSH2 0x7DD DUP2 DUP6 PUSH2 0x7B1 JUMP JUMPDEST SWAP4 POP PUSH2 0x7ED DUP2 DUP6 PUSH1 0x20 DUP7 ADD PUSH2 0x7BB JUMP JUMPDEST DUP1 DUP5 ADD SWAP2 POP POP SWAP3 SWAP2 POP POP JUMP JUMPDEST PUSH0 PUSH2 0x804 DUP3 DUP5 PUSH2 0x7C9 JUMP JUMPDEST SWAP2 POP DUP2 SWAP1 POP SWAP3 SWAP2 POP POP JUMP JUMPDEST PUSH32 0x43616C6C204661696C6564000000000000000000000000000000000000000000 PUSH0 DUP3 ADD MSTORE POP JUMP JUMPDEST PUSH0 PUSH2 0x843 PUSH1 0xB DUP4 PUSH2 0x72F JUMP JUMPDEST SWAP2 POP PUSH2 0x84E DUP3 PUSH2 0x80F JUMP JUMPDEST PUSH1 0x20 DUP3 ADD SWAP1 POP SWAP2 SWAP1 POP JUMP JUMPDEST PUSH0 PUSH1 0x20 DUP3 ADD SWAP1 POP DUP2 DUP2 SUB PUSH0 DUP4 ADD MSTORE PUSH2 0x870 DUP2 PUSH2 0x837 JUMP JUMPDEST SWAP1 POP SWAP2 SWAP1 POP JUMP JUMPDEST PUSH0 DUP2 MLOAD SWAP1 POP PUSH2 0x885 DUP2 PUSH2 0x61F JUMP JUMPDEST SWAP3 SWAP2 POP POP JUMP JUMPDEST PUSH0 PUSH1 0x20 DUP3 DUP5 SUB SLT ISZERO PUSH2 0x8A0 JUMPI PUSH2 0x89F PUSH2 0x612 JUMP JUMPDEST JUMPDEST PUSH0 PUSH2 0x8AD DUP5 DUP3 DUP6 ADD PUSH2 0x877 JUMP JUMPDEST SWAP2 POP POP SWAP3 SWAP2 POP POP JUMP JUMPDEST PUSH32 0x4E487B7100000000000000000000000000000000000000000000000000000000 PUSH0 MSTORE PUSH1 0x11 PUSH1 0x4 MSTORE PUSH1 0x24 PUSH0 REVERT JUMPDEST PUSH0 PUSH2 0x8ED DUP3 PUSH2 0x616 JUMP JUMPDEST SWAP2 POP PUSH2 0x8F8 DUP4 PUSH2 0x616 JUMP JUMPDEST SWAP3 POP DUP3 DUP3 MUL PUSH2 0x906 DUP2 PUSH2 0x616 JUMP JUMPDEST SWAP2 POP DUP3 DUP3 DIV DUP5 EQ DUP4 ISZERO OR PUSH2 0x91D JUMPI PUSH2 0x91C PUSH2 0x8B6 JUMP JUMPDEST JUMPDEST POP SWAP3 SWAP2 POP POP JUMP INVALID LOG2 PUSH5 0x6970667358 0x22 SLT KECCAK256 EXTCODESIZE 0xF9 DUP1 CALLVALUE SHL PC PUSH9 0xFC429474096F208036 CALLDATALOAD SELFDESTRUCT PUSH16 0x9E7217E8D33017686D74D316CA64736F PUSH13 0x634300081A0033000000000000 "
		},
		"gasEstimates": {
			"creation": {
				"codeDepositCost": "478800",
				"executionCost": "509",
				"totalCost": "479309"
			},
			"external": {
				"double(uint256)": "infinite",
				"executeFunction(bytes4,uint256)": "infinite",
				"executeStoredFunction(uint256)": "infinite",
				"getDoubleSelector()": "388",
				"getSquareSelector()": "366",
				"square(uint256)": "infinite",
				"storeSelector(bytes4)": "24740",
				"storedSelector()": "2464"
			}
		},
		"methodIdentifiers": {
			"double(uint256)": "eee97206",
			"executeFunction(bytes4,uint256)": "a25f4d31",
			"executeStoredFunction(uint256)": "53308370",
			"getDoubleSelector()": "d3dc22e4",
			"getSquareSelector()": "a69d2766",
			"square(uint256)": "7b292909",
			"storeSelector(bytes4)": "8d10ff0c",
			"storedSelector()": "3b377b3c"
		}
	},
	"abi": [
		{
			"inputs": [
				{
					"internalType": "uint256",
					"name": "x",
					"type": "uint256"
				}
			],
			"name": "double",
			"outputs": [
				{
					"internalType": "uint256",
					"name": "",
					"type": "uint256"
				}
			],
			"stateMutability": "pure",
			"type": "function"
		},
		{
			"inputs": [
				{
					"internalType": "bytes4",
					"name": "selector",
					"type": "bytes4"
				},
				{
					"internalType": "uint256",
					"name": "x",
					"type": "uint256"
				}
			],
			"name": "executeFunction",
			"outputs": [
				{
					"internalType": "uint256",
					"name": "",
					"type": "uint256"
				}
			],
			"stateMutability": "nonpayable",
			"type": "function"
		},
		{
			"inputs": [
				{
					"internalType": "uint256",
					"name": "x",
					"type": "uint256"
				}
			],
			"name": "executeStoredFunction",
			"outputs": [
				{
					"internalType": "uint256",
					"name": "",
					"type": "uint256"
				}
			],
			"stateMutability": "nonpayable",
			"type": "function"
		},
		{
			"inputs": [],
			"name": "getDoubleSelector",
			"outputs": [
				{
					"internalType": "bytes4",
					"name": "",
					"type": "bytes4"
				}
			],
			"stateMutability": "pure",
			"type": "function"
		},
		{
			"inputs": [],
			"name": "getSquareSelector",
			"outputs": [
				{
					"internalType": "bytes4",
					"name": "",
					"type": "bytes4"
				}
			],
			"stateMutability": "pure",
			"type": "function"
		},
		{
			"inputs": [
				{
					"internalType": "uint256",
					"name": "x",
					"type": "uint256"
				}
			],
			"name": "square",
			"outputs": [
				{
					"internalType": "uint256",
					"name": "",
					"type": "uint256"
				}
			],
			"stateMutability": "pure",
			"type": "function"
		},
		{
			"inputs": [
				{
					"internalType": "bytes4",
					"name": "selector",
					"type": "bytes4"
				}
			],
			"name": "storeSelector",
			"outputs": [],
			"stateMutability": "nonpayable",
			"type": "function"
		},
		{
			"inputs": [],
			"name": "storedSelector",
			"outputs": [
				{
					"internalType": "bytes4",
					"name": "",
					"type": "bytes4"
				}
			],
			"stateMutability": "view",
			"type": "function"
		}
	]
}