{
	"homework/02/library/Search.sol": {
		"C": {
			"abi": [
				{
					"inputs": [
						{
							"internalType": "uint256",
							"name": "value",
							"type": "uint256"
						}
					],
					"name": "append",
					"outputs": [],
					"stateMutability": "nonpayable",
					"type": "function"
				},
				{
					"inputs": [
						{
							"internalType": "uint256",
							"name": "_old",
							"type": "uint256"
						},
						{
							"internalType": "uint256",
							"name": "_new",
							"type": "uint256"
						}
					],
					"name": "replace",
					"outputs": [],
					"stateMutability": "nonpayable",
					"type": "function"
				}
			],
			"devdoc": {
				"kind": "dev",
				"methods": {},
				"version": 1
			},
			"evm": {
				"assembly": "    /* \"homework/02/library/Search.sol\":412:838  contract C {... */\n  mstore(0x40, 0x80)\n  callvalue\n  dup1\n  iszero\n  tag_1\n  jumpi\n  0x00\n  dup1\n  revert\ntag_1:\n  pop\n  dataSize(sub_0)\n  dup1\n  dataOffset(sub_0)\n  0x00\n  codecopy\n  0x00\n  return\nstop\n\nsub_0: assembly {\n        /* \"homework/02/library/Search.sol\":412:838  contract C {... */\n      mstore(0x40, 0x80)\n      callvalue\n      dup1\n      iszero\n      tag_1\n      jumpi\n      0x00\n      dup1\n      revert\n    tag_1:\n      pop\n      jumpi(tag_2, lt(calldatasize, 0x04))\n      shr(0xe0, calldataload(0x00))\n      dup1\n      0xe33b8707\n      eq\n      tag_3\n      jumpi\n      dup1\n      0xe81cf24c\n      eq\n      tag_4\n      jumpi\n    tag_2:\n      0x00\n      dup1\n      revert\n        /* \"homework/02/library/Search.sol\":518:588  function append(uint value) public {... */\n    tag_3:\n      tag_5\n      0x04\n      dup1\n      calldatasize\n      sub\n      dup2\n      add\n      swap1\n      tag_6\n      swap2\n      swap1\n      tag_7\n      jump\t// in\n    tag_6:\n      tag_8\n      jump\t// in\n    tag_5:\n      stop\n        /* \"homework/02/library/Search.sol\":594:835  function replace(uint _old, uint _new) public {... */\n    tag_4:\n      tag_9\n      0x04\n      dup1\n      calldatasize\n      sub\n      dup2\n      add\n      swap1\n      tag_10\n      swap2\n      swap1\n      tag_11\n      jump\t// in\n    tag_10:\n      tag_12\n      jump\t// in\n    tag_9:\n      stop\n        /* \"homework/02/library/Search.sol\":518:588  function append(uint value) public {... */\n    tag_8:\n        /* \"homework/02/library/Search.sol\":564:568  data */\n      0x00\n        /* \"homework/02/library/Search.sol\":574:579  value */\n      dup2\n        /* \"homework/02/library/Search.sol\":564:580  data.push(value) */\n      swap1\n      dup1\n      0x01\n      dup2\n      sload\n      add\n      dup1\n      dup3\n      sstore\n      dup1\n      swap2\n      pop\n      pop\n      0x01\n      swap1\n      sub\n      swap1\n      0x00\n      mstore\n      keccak256(0x00, 0x20)\n      add\n      0x00\n      swap1\n      swap2\n      swap1\n      swap2\n      swap1\n      swap2\n      pop\n      sstore\n        /* \"homework/02/library/Search.sol\":518:588  function append(uint value) public {... */\n      pop\n      jump\t// out\n        /* \"homework/02/library/Search.sol\":594:835  function replace(uint _old, uint _new) public {... */\n    tag_12:\n        /* \"homework/02/library/Search.sol\":651:661  uint index */\n      0x00\n        /* \"homework/02/library/Search.sol\":664:668  data */\n      dup1\n        /* \"homework/02/library/Search.sol\":664:676  data.indexOf */\n      linkerSymbol(\"f963d7435695ec47a74d2bbe11aa32f2dac3c907491ffb9b2219224588669a1d\")\n      0x24fef5c8\n      swap1\n      swap2\n        /* \"homework/02/library/Search.sol\":677:681  _old */\n      dup6\n        /* \"homework/02/library/Search.sol\":664:682  data.indexOf(_old) */\n      mload(0x40)\n      dup4\n      0xffffffff\n      and\n      0xe0\n      shl\n      dup2\n      mstore\n      0x04\n      add\n      tag_16\n      swap3\n      swap2\n      swap1\n      tag_17\n      jump\t// in\n    tag_16:\n      0x20\n      mload(0x40)\n      dup1\n      dup4\n      sub\n      dup2\n      dup7\n      gas\n      delegatecall\n      iszero\n      dup1\n      iszero\n      tag_19\n      jumpi\n      returndatasize\n      0x00\n      dup1\n      returndatacopy\n      revert(0x00, returndatasize)\n    tag_19:\n      pop\n      pop\n      pop\n      pop\n      mload(0x40)\n      returndatasize\n      not(0x1f)\n      0x1f\n      dup3\n      add\n      and\n      dup3\n      add\n      dup1\n      0x40\n      mstore\n      pop\n      dup2\n      add\n      swap1\n      tag_20\n      swap2\n      swap1\n      tag_21\n      jump\t// in\n    tag_20:\n        /* \"homework/02/library/Search.sol\":651:682  uint index = data.indexOf(_old) */\n      swap1\n      pop\n        /* \"homework/02/library/Search.sol\":731:732  1 */\n      0x01\n        /* \"homework/02/library/Search.sol\":717:722  index */\n      dup2\n        /* \"homework/02/library/Search.sol\":717:733  index == uint(1) */\n      sub\n        /* \"homework/02/library/Search.sol\":713:828  if (index == uint(1)) {... */\n      tag_22\n      jumpi\n        /* \"homework/02/library/Search.sol\":750:754  data */\n      0x00\n        /* \"homework/02/library/Search.sol\":760:764  _new */\n      dup3\n        /* \"homework/02/library/Search.sol\":750:765  data.push(_new) */\n      swap1\n      dup1\n      0x01\n      dup2\n      sload\n      add\n      dup1\n      dup3\n      sstore\n      dup1\n      swap2\n      pop\n      pop\n      0x01\n      swap1\n      sub\n      swap1\n      0x00\n      mstore\n      keccak256(0x00, 0x20)\n      add\n      0x00\n      swap1\n      swap2\n      swap1\n      swap2\n      swap1\n      swap2\n      pop\n      sstore\n        /* \"homework/02/library/Search.sol\":713:828  if (index == uint(1)) {... */\n      jump(tag_24)\n    tag_22:\n        /* \"homework/02/library/Search.sol\":812:816  _new */\n      dup2\n        /* \"homework/02/library/Search.sol\":798:802  data */\n      0x00\n        /* \"homework/02/library/Search.sol\":803:808  index */\n      dup3\n        /* \"homework/02/library/Search.sol\":798:809  data[index] */\n      dup2\n      sload\n      dup2\n      lt\n      tag_25\n      jumpi\n      tag_26\n      tag_27\n      jump\t// in\n    tag_26:\n    tag_25:\n      swap1\n      0x00\n      mstore\n      keccak256(0x00, 0x20)\n      add\n        /* \"homework/02/library/Search.sol\":798:816  data[index] = _new */\n      dup2\n      swap1\n      sstore\n      pop\n        /* \"homework/02/library/Search.sol\":713:828  if (index == uint(1)) {... */\n    tag_24:\n        /* \"homework/02/library/Search.sol\":640:835  {... */\n      pop\n        /* \"homework/02/library/Search.sol\":594:835  function replace(uint _old, uint _new) public {... */\n      pop\n      pop\n      jump\t// out\n        /* \"#utility.yul\":88:205   */\n    tag_30:\n        /* \"#utility.yul\":197:198   */\n      0x00\n        /* \"#utility.yul\":194:195   */\n      dup1\n        /* \"#utility.yul\":187:199   */\n      revert\n        /* \"#utility.yul\":334:411   */\n    tag_32:\n        /* \"#utility.yul\":371:378   */\n      0x00\n        /* \"#utility.yul\":400:405   */\n      dup2\n        /* \"#utility.yul\":389:405   */\n      swap1\n      pop\n        /* \"#utility.yul\":334:411   */\n      swap2\n      swap1\n      pop\n      jump\t// out\n        /* \"#utility.yul\":417:539   */\n    tag_33:\n        /* \"#utility.yul\":490:514   */\n      tag_44\n        /* \"#utility.yul\":508:513   */\n      dup2\n        /* \"#utility.yul\":490:514   */\n      tag_32\n      jump\t// in\n    tag_44:\n        /* \"#utility.yul\":483:488   */\n      dup2\n        /* \"#utility.yul\":480:515   */\n      eq\n        /* \"#utility.yul\":470:533   */\n      tag_45\n      jumpi\n        /* \"#utility.yul\":529:530   */\n      0x00\n        /* \"#utility.yul\":526:527   */\n      dup1\n        /* \"#utility.yul\":519:531   */\n      revert\n        /* \"#utility.yul\":470:533   */\n    tag_45:\n        /* \"#utility.yul\":417:539   */\n      pop\n      jump\t// out\n        /* \"#utility.yul\":545:684   */\n    tag_34:\n        /* \"#utility.yul\":591:596   */\n      0x00\n        /* \"#utility.yul\":629:635   */\n      dup2\n        /* \"#utility.yul\":616:636   */\n      calldataload\n        /* \"#utility.yul\":607:636   */\n      swap1\n      pop\n        /* \"#utility.yul\":645:678   */\n      tag_47\n        /* \"#utility.yul\":672:677   */\n      dup2\n        /* \"#utility.yul\":645:678   */\n      tag_33\n      jump\t// in\n    tag_47:\n        /* \"#utility.yul\":545:684   */\n      swap3\n      swap2\n      pop\n      pop\n      jump\t// out\n        /* \"#utility.yul\":690:1019   */\n    tag_7:\n        /* \"#utility.yul\":749:755   */\n      0x00\n        /* \"#utility.yul\":798:800   */\n      0x20\n        /* \"#utility.yul\":786:795   */\n      dup3\n        /* \"#utility.yul\":777:784   */\n      dup5\n        /* \"#utility.yul\":773:796   */\n      sub\n        /* \"#utility.yul\":769:801   */\n      slt\n        /* \"#utility.yul\":766:885   */\n      iszero\n      tag_49\n      jumpi\n        /* \"#utility.yul\":804:883   */\n      tag_50\n      tag_30\n      jump\t// in\n    tag_50:\n        /* \"#utility.yul\":766:885   */\n    tag_49:\n        /* \"#utility.yul\":924:925   */\n      0x00\n        /* \"#utility.yul\":949:1002   */\n      tag_51\n        /* \"#utility.yul\":994:1001   */\n      dup5\n        /* \"#utility.yul\":985:991   */\n      dup3\n        /* \"#utility.yul\":974:983   */\n      dup6\n        /* \"#utility.yul\":970:992   */\n      add\n        /* \"#utility.yul\":949:1002   */\n      tag_34\n      jump\t// in\n    tag_51:\n        /* \"#utility.yul\":939:1002   */\n      swap2\n      pop\n        /* \"#utility.yul\":895:1012   */\n      pop\n        /* \"#utility.yul\":690:1019   */\n      swap3\n      swap2\n      pop\n      pop\n      jump\t// out\n        /* \"#utility.yul\":1025:1499   */\n    tag_11:\n        /* \"#utility.yul\":1093:1099   */\n      0x00\n        /* \"#utility.yul\":1101:1107   */\n      dup1\n        /* \"#utility.yul\":1150:1152   */\n      0x40\n        /* \"#utility.yul\":1138:1147   */\n      dup4\n        /* \"#utility.yul\":1129:1136   */\n      dup6\n        /* \"#utility.yul\":1125:1148   */\n      sub\n        /* \"#utility.yul\":1121:1153   */\n      slt\n        /* \"#utility.yul\":1118:1237   */\n      iszero\n      tag_53\n      jumpi\n        /* \"#utility.yul\":1156:1235   */\n      tag_54\n      tag_30\n      jump\t// in\n    tag_54:\n        /* \"#utility.yul\":1118:1237   */\n    tag_53:\n        /* \"#utility.yul\":1276:1277   */\n      0x00\n        /* \"#utility.yul\":1301:1354   */\n      tag_55\n        /* \"#utility.yul\":1346:1353   */\n      dup6\n        /* \"#utility.yul\":1337:1343   */\n      dup3\n        /* \"#utility.yul\":1326:1335   */\n      dup7\n        /* \"#utility.yul\":1322:1344   */\n      add\n        /* \"#utility.yul\":1301:1354   */\n      tag_34\n      jump\t// in\n    tag_55:\n        /* \"#utility.yul\":1291:1354   */\n      swap3\n      pop\n        /* \"#utility.yul\":1247:1364   */\n      pop\n        /* \"#utility.yul\":1403:1405   */\n      0x20\n        /* \"#utility.yul\":1429:1482   */\n      tag_56\n        /* \"#utility.yul\":1474:1481   */\n      dup6\n        /* \"#utility.yul\":1465:1471   */\n      dup3\n        /* \"#utility.yul\":1454:1463   */\n      dup7\n        /* \"#utility.yul\":1450:1472   */\n      add\n        /* \"#utility.yul\":1429:1482   */\n      tag_34\n      jump\t// in\n    tag_56:\n        /* \"#utility.yul\":1419:1482   */\n      swap2\n      pop\n        /* \"#utility.yul\":1374:1492   */\n      pop\n        /* \"#utility.yul\":1025:1499   */\n      swap3\n      pop\n      swap3\n      swap1\n      pop\n      jump\t// out\n        /* \"#utility.yul\":1505:1638   */\n    tag_35:\n        /* \"#utility.yul\":1626:1631   */\n      dup1\n        /* \"#utility.yul\":1621:1624   */\n      dup3\n        /* \"#utility.yul\":1614:1632   */\n      mstore\n        /* \"#utility.yul\":1505:1638   */\n      pop\n      pop\n      jump\t// out\n        /* \"#utility.yul\":1644:1770   */\n    tag_36:\n        /* \"#utility.yul\":1739:1763   */\n      tag_59\n        /* \"#utility.yul\":1757:1762   */\n      dup2\n        /* \"#utility.yul\":1739:1763   */\n      tag_32\n      jump\t// in\n    tag_59:\n        /* \"#utility.yul\":1734:1737   */\n      dup3\n        /* \"#utility.yul\":1727:1764   */\n      mstore\n        /* \"#utility.yul\":1644:1770   */\n      pop\n      pop\n      jump\t// out\n        /* \"#utility.yul\":1776:2184   */\n    tag_17:\n        /* \"#utility.yul\":1931:1935   */\n      0x00\n        /* \"#utility.yul\":1969:1971   */\n      0x40\n        /* \"#utility.yul\":1958:1967   */\n      dup3\n        /* \"#utility.yul\":1954:1972   */\n      add\n        /* \"#utility.yul\":1946:1972   */\n      swap1\n      pop\n        /* \"#utility.yul\":1982:2087   */\n      tag_61\n        /* \"#utility.yul\":2084:2085   */\n      0x00\n        /* \"#utility.yul\":2073:2082   */\n      dup4\n        /* \"#utility.yul\":2069:2086   */\n      add\n        /* \"#utility.yul\":2060:2066   */\n      dup6\n        /* \"#utility.yul\":1982:2087   */\n      tag_35\n      jump\t// in\n    tag_61:\n        /* \"#utility.yul\":2097:2177   */\n      tag_62\n        /* \"#utility.yul\":2173:2175   */\n      0x20\n        /* \"#utility.yul\":2162:2171   */\n      dup4\n        /* \"#utility.yul\":2158:2176   */\n      add\n        /* \"#utility.yul\":2149:2155   */\n      dup5\n        /* \"#utility.yul\":2097:2177   */\n      tag_36\n      jump\t// in\n    tag_62:\n        /* \"#utility.yul\":1776:2184   */\n      swap4\n      swap3\n      pop\n      pop\n      pop\n      jump\t// out\n        /* \"#utility.yul\":2190:2333   */\n    tag_37:\n        /* \"#utility.yul\":2247:2252   */\n      0x00\n        /* \"#utility.yul\":2278:2284   */\n      dup2\n        /* \"#utility.yul\":2272:2285   */\n      mload\n        /* \"#utility.yul\":2263:2285   */\n      swap1\n      pop\n        /* \"#utility.yul\":2294:2327   */\n      tag_64\n        /* \"#utility.yul\":2321:2326   */\n      dup2\n        /* \"#utility.yul\":2294:2327   */\n      tag_33\n      jump\t// in\n    tag_64:\n        /* \"#utility.yul\":2190:2333   */\n      swap3\n      swap2\n      pop\n      pop\n      jump\t// out\n        /* \"#utility.yul\":2339:2690   */\n    tag_21:\n        /* \"#utility.yul\":2409:2415   */\n      0x00\n        /* \"#utility.yul\":2458:2460   */\n      0x20\n        /* \"#utility.yul\":2446:2455   */\n      dup3\n        /* \"#utility.yul\":2437:2444   */\n      dup5\n        /* \"#utility.yul\":2433:2456   */\n      sub\n        /* \"#utility.yul\":2429:2461   */\n      slt\n        /* \"#utility.yul\":2426:2545   */\n      iszero\n      tag_66\n      jumpi\n        /* \"#utility.yul\":2464:2543   */\n      tag_67\n      tag_30\n      jump\t// in\n    tag_67:\n        /* \"#utility.yul\":2426:2545   */\n    tag_66:\n        /* \"#utility.yul\":2584:2585   */\n      0x00\n        /* \"#utility.yul\":2609:2673   */\n      tag_68\n        /* \"#utility.yul\":2665:2672   */\n      dup5\n        /* \"#utility.yul\":2656:2662   */\n      dup3\n        /* \"#utility.yul\":2645:2654   */\n      dup6\n        /* \"#utility.yul\":2641:2663   */\n      add\n        /* \"#utility.yul\":2609:2673   */\n      tag_37\n      jump\t// in\n    tag_68:\n        /* \"#utility.yul\":2599:2673   */\n      swap2\n      pop\n        /* \"#utility.yul\":2555:2683   */\n      pop\n        /* \"#utility.yul\":2339:2690   */\n      swap3\n      swap2\n      pop\n      pop\n      jump\t// out\n        /* \"#utility.yul\":2696:2876   */\n    tag_27:\n        /* \"#utility.yul\":2744:2821   */\n      0x4e487b7100000000000000000000000000000000000000000000000000000000\n        /* \"#utility.yul\":2741:2742   */\n      0x00\n        /* \"#utility.yul\":2734:2822   */\n      mstore\n        /* \"#utility.yul\":2841:2845   */\n      0x32\n        /* \"#utility.yul\":2838:2839   */\n      0x04\n        /* \"#utility.yul\":2831:2846   */\n      mstore\n        /* \"#utility.yul\":2865:2869   */\n      0x24\n        /* \"#utility.yul\":2862:2863   */\n      0x00\n        /* \"#utility.yul\":2855:2870   */\n      revert\n\n    auxdata: 0xa26469706673582212207605eb3009704d74352b050e208160bd3de824dc4caee46b1fb37f54a5f4dcd164736f6c634300081a0033\n}\n",
				"bytecode": {
					"linkReferences": {
						"homework/02/library/Search.sol": {
							"Search": [
								{
									"length": 20,
									"start": 184
								}
							]
						}
					},
					"object": "6080604052348015600e575f80fd5b506102ec8061001c5f395ff3fe608060405234801561000f575f80fd5b5060043610610034575f3560e01c8063e33b870714610038578063e81cf24c14610054575b5f80fd5b610052600480360381019061004d91906101a4565b610070565b005b61006e600480360381019061006991906101cf565b610098565b005b5f81908060018154018082558091505060019003905f5260205f20015f909190919091505550565b5f8073__$f963d7435695ec47a74d2bbe11aa32f2da$__6324fef5c89091856040518363ffffffff1660e01b81526004016100d4929190610223565b602060405180830381865af41580156100ef573d5f803e3d5ffd5b505050506040513d601f19601f82011682018060405250810190610113919061025e565b905060018103610147575f82908060018154018082558091505060019003905f5260205f20015f9091909190915055610168565b815f828154811061015b5761015a610289565b5b905f5260205f2001819055505b505050565b5f80fd5b5f819050919050565b61018381610171565b811461018d575f80fd5b50565b5f8135905061019e8161017a565b92915050565b5f602082840312156101b9576101b861016d565b5b5f6101c684828501610190565b91505092915050565b5f80604083850312156101e5576101e461016d565b5b5f6101f285828601610190565b925050602061020385828601610190565b9150509250929050565b8082525050565b61021d81610171565b82525050565b5f6040820190506102365f83018561020d565b6102436020830184610214565b9392505050565b5f815190506102588161017a565b92915050565b5f602082840312156102735761027261016d565b5b5f6102808482850161024a565b91505092915050565b7f4e487b71000000000000000000000000000000000000000000000000000000005f52603260045260245ffdfea26469706673582212207605eb3009704d74352b050e208160bd3de824dc4caee46b1fb37f54a5f4dcd164736f6c634300081a0033",
					"opcodes": "PUSH1 0x80 PUSH1 0x40 MSTORE CALLVALUE DUP1 ISZERO PUSH1 0xE JUMPI PUSH0 DUP1 REVERT JUMPDEST POP PUSH2 0x2EC DUP1 PUSH2 0x1C PUSH0 CODECOPY PUSH0 RETURN INVALID PUSH1 0x80 PUSH1 0x40 MSTORE CALLVALUE DUP1 ISZERO PUSH2 0xF JUMPI PUSH0 DUP1 REVERT JUMPDEST POP PUSH1 0x4 CALLDATASIZE LT PUSH2 0x34 JUMPI PUSH0 CALLDATALOAD PUSH1 0xE0 SHR DUP1 PUSH4 0xE33B8707 EQ PUSH2 0x38 JUMPI DUP1 PUSH4 0xE81CF24C EQ PUSH2 0x54 JUMPI JUMPDEST PUSH0 DUP1 REVERT JUMPDEST PUSH2 0x52 PUSH1 0x4 DUP1 CALLDATASIZE SUB DUP2 ADD SWAP1 PUSH2 0x4D SWAP2 SWAP1 PUSH2 0x1A4 JUMP JUMPDEST PUSH2 0x70 JUMP JUMPDEST STOP JUMPDEST PUSH2 0x6E PUSH1 0x4 DUP1 CALLDATASIZE SUB DUP2 ADD SWAP1 PUSH2 0x69 SWAP2 SWAP1 PUSH2 0x1CF JUMP JUMPDEST PUSH2 0x98 JUMP JUMPDEST STOP JUMPDEST PUSH0 DUP2 SWAP1 DUP1 PUSH1 0x1 DUP2 SLOAD ADD DUP1 DUP3 SSTORE DUP1 SWAP2 POP POP PUSH1 0x1 SWAP1 SUB SWAP1 PUSH0 MSTORE PUSH1 0x20 PUSH0 KECCAK256 ADD PUSH0 SWAP1 SWAP2 SWAP1 SWAP2 SWAP1 SWAP2 POP SSTORE POP JUMP JUMPDEST PUSH0 DUP1 PUSH20 0x0 PUSH4 0x24FEF5C8 SWAP1 SWAP2 DUP6 PUSH1 0x40 MLOAD DUP4 PUSH4 0xFFFFFFFF AND PUSH1 0xE0 SHL DUP2 MSTORE PUSH1 0x4 ADD PUSH2 0xD4 SWAP3 SWAP2 SWAP1 PUSH2 0x223 JUMP JUMPDEST PUSH1 0x20 PUSH1 0x40 MLOAD DUP1 DUP4 SUB DUP2 DUP7 GAS DELEGATECALL ISZERO DUP1 ISZERO PUSH2 0xEF JUMPI RETURNDATASIZE PUSH0 DUP1 RETURNDATACOPY RETURNDATASIZE PUSH0 REVERT JUMPDEST POP POP POP POP PUSH1 0x40 MLOAD RETURNDATASIZE PUSH1 0x1F NOT PUSH1 0x1F DUP3 ADD AND DUP3 ADD DUP1 PUSH1 0x40 MSTORE POP DUP2 ADD SWAP1 PUSH2 0x113 SWAP2 SWAP1 PUSH2 0x25E JUMP JUMPDEST SWAP1 POP PUSH1 0x1 DUP2 SUB PUSH2 0x147 JUMPI PUSH0 DUP3 SWAP1 DUP1 PUSH1 0x1 DUP2 SLOAD ADD DUP1 DUP3 SSTORE DUP1 SWAP2 POP POP PUSH1 0x1 SWAP1 SUB SWAP1 PUSH0 MSTORE PUSH1 0x20 PUSH0 KECCAK256 ADD PUSH0 SWAP1 SWAP2 SWAP1 SWAP2 SWAP1 SWAP2 POP SSTORE PUSH2 0x168 JUMP JUMPDEST DUP2 PUSH0 DUP3 DUP2 SLOAD DUP2 LT PUSH2 0x15B JUMPI PUSH2 0x15A PUSH2 0x289 JUMP JUMPDEST JUMPDEST SWAP1 PUSH0 MSTORE PUSH1 0x20 PUSH0 KECCAK256 ADD DUP2 SWAP1 SSTORE POP JUMPDEST POP POP POP JUMP JUMPDEST PUSH0 DUP1 REVERT JUMPDEST PUSH0 DUP2 SWAP1 POP SWAP2 SWAP1 POP JUMP JUMPDEST PUSH2 0x183 DUP2 PUSH2 0x171 JUMP JUMPDEST DUP2 EQ PUSH2 0x18D JUMPI PUSH0 DUP1 REVERT JUMPDEST POP JUMP JUMPDEST PUSH0 DUP2 CALLDATALOAD SWAP1 POP PUSH2 0x19E DUP2 PUSH2 0x17A JUMP JUMPDEST SWAP3 SWAP2 POP POP JUMP JUMPDEST PUSH0 PUSH1 0x20 DUP3 DUP5 SUB SLT ISZERO PUSH2 0x1B9 JUMPI PUSH2 0x1B8 PUSH2 0x16D JUMP JUMPDEST JUMPDEST PUSH0 PUSH2 0x1C6 DUP5 DUP3 DUP6 ADD PUSH2 0x190 JUMP JUMPDEST SWAP2 POP POP SWAP3 SWAP2 POP POP JUMP JUMPDEST PUSH0 DUP1 PUSH1 0x40 DUP4 DUP6 SUB SLT ISZERO PUSH2 0x1E5 JUMPI PUSH2 0x1E4 PUSH2 0x16D JUMP JUMPDEST JUMPDEST PUSH0 PUSH2 0x1F2 DUP6 DUP3 DUP7 ADD PUSH2 0x190 JUMP JUMPDEST SWAP3 POP POP PUSH1 0x20 PUSH2 0x203 DUP6 DUP3 DUP7 ADD PUSH2 0x190 JUMP JUMPDEST SWAP2 POP POP SWAP3 POP SWAP3 SWAP1 POP JUMP JUMPDEST DUP1 DUP3 MSTORE POP POP JUMP JUMPDEST PUSH2 0x21D DUP2 PUSH2 0x171 JUMP JUMPDEST DUP3 MSTORE POP POP JUMP JUMPDEST PUSH0 PUSH1 0x40 DUP3 ADD SWAP1 POP PUSH2 0x236 PUSH0 DUP4 ADD DUP6 PUSH2 0x20D JUMP JUMPDEST PUSH2 0x243 PUSH1 0x20 DUP4 ADD DUP5 PUSH2 0x214 JUMP JUMPDEST SWAP4 SWAP3 POP POP POP JUMP JUMPDEST PUSH0 DUP2 MLOAD SWAP1 POP PUSH2 0x258 DUP2 PUSH2 0x17A JUMP JUMPDEST SWAP3 SWAP2 POP POP JUMP JUMPDEST PUSH0 PUSH1 0x20 DUP3 DUP5 SUB SLT ISZERO PUSH2 0x273 JUMPI PUSH2 0x272 PUSH2 0x16D JUMP JUMPDEST JUMPDEST PUSH0 PUSH2 0x280 DUP5 DUP3 DUP6 ADD PUSH2 0x24A JUMP JUMPDEST SWAP2 POP POP SWAP3 SWAP2 POP POP JUMP JUMPDEST PUSH32 0x4E487B7100000000000000000000000000000000000000000000000000000000 PUSH0 MSTORE PUSH1 0x32 PUSH1 0x4 MSTORE PUSH1 0x24 PUSH0 REVERT INVALID LOG2 PUSH5 0x6970667358 0x22 SLT KECCAK256 PUSH23 0x5EB3009704D74352B050E208160BD3DE824DC4CAEE46B 0x1F 0xB3 PUSH32 0x54A5F4DCD164736F6C634300081A003300000000000000000000000000000000 "
				},
				"gasEstimates": {
					"creation": {
						"codeDepositCost": "149600",
						"executionCost": "194",
						"totalCost": "149794"
					},
					"external": {
						"append(uint256)": "46798",
						"replace(uint256,uint256)": "infinite"
					}
				},
				"methodIdentifiers": {
					"append(uint256)": "e33b8707",
					"replace(uint256,uint256)": "e81cf24c"
				}
			},
			"storageLayout": {
				"storage": [
					{
						"astId": 46,
						"contract": "homework/02/library/Search.sol:C",
						"label": "data",
						"offset": 0,
						"slot": "0",
						"type": "t_array(t_uint256)dyn_storage"
					}
				],
				"types": {
					"t_array(t_uint256)dyn_storage": {
						"base": "t_uint256",
						"encoding": "dynamic_array",
						"label": "uint256[]",
						"numberOfBytes": "32"
					},
					"t_uint256": {
						"encoding": "inplace",
						"label": "uint256",
						"numberOfBytes": "32"
					}
				}
			},
			"userdoc": {
				"kind": "user",
				"methods": {},
				"version": 1
			}
		}
	}
}