{
	"homework/02/library/MattLib.sol": {
		"MathLib": {
			"abi": [
				{
					"inputs": [
						{
							"internalType": "uint256",
							"name": "a",
							"type": "uint256"
						},
						{
							"internalType": "uint256",
							"name": "b",
							"type": "uint256"
						}
					],
					"name": "add",
					"outputs": [
						{
							"internalType": "uint256",
							"name": "",
							"type": "uint256"
						}
					],
					"stateMutability": "pure",
					"type": "function"
				},
				{
					"inputs": [
						{
							"internalType": "uint256",
							"name": "a",
							"type": "uint256"
						},
						{
							"internalType": "uint256",
							"name": "b",
							"type": "uint256"
						}
					],
					"name": "multi",
					"outputs": [
						{
							"internalType": "uint256",
							"name": "",
							"type": "uint256"
						}
					],
					"stateMutability": "pure",
					"type": "function"
				},
				{
					"inputs": [
						{
							"internalType": "uint256",
							"name": "a",
							"type": "uint256"
						},
						{
							"internalType": "uint256",
							"name": "b",
							"type": "uint256"
						}
					],
					"name": "sub",
					"outputs": [
						{
							"internalType": "int256",
							"name": "",
							"type": "int256"
						}
					],
					"stateMutability": "pure",
					"type": "function"
				}
			],
			"devdoc": {
				"kind": "dev",
				"methods": {},
				"version": 1
			},
			"evm": {
				"assembly": "    /* \"homework/02/library/MattLib.sol\":140:689  library MathLib{... */\n  dataSize(sub_0)\n  dataOffset(sub_0)\n  0x0b\n  dup3\n  dup3\n  dup3\n  codecopy\n  dup1\n  mload\n  0x00\n  byte\n  0x73\n  eq\n  tag_1\n  jumpi\n  mstore(0x00, 0x4e487b7100000000000000000000000000000000000000000000000000000000)\n  mstore(0x04, 0x00)\n  revert(0x00, 0x24)\ntag_1:\n  mstore(0x00, address)\n  0x73\n  dup2\n  mstore8\n  dup3\n  dup2\n  return\nstop\n\nsub_0: assembly {\n        /* \"homework/02/library/MattLib.sol\":140:689  library MathLib{... */\n      eq(address, deployTimeAddress())\n      mstore(0x40, 0x80)\n      jumpi(tag_1, lt(calldatasize, 0x04))\n      shr(0xe0, calldataload(0x00))\n      dup1\n      0x5171762c\n      eq\n      tag_2\n      jumpi\n      dup1\n      0x771602f7\n      eq\n      tag_3\n      jumpi\n      dup1\n      0xb67d77c5\n      eq\n      tag_4\n      jumpi\n    tag_1:\n      0x00\n      dup1\n      revert\n        /* \"homework/02/library/MattLib.sol\":519:686  function multi(uint a,uint b) external pure returns (uint){... */\n    tag_2:\n      tag_5\n      0x04\n      dup1\n      calldatasize\n      sub\n      dup2\n      add\n      swap1\n      tag_6\n      swap2\n      swap1\n      tag_7\n      jump\t// in\n    tag_6:\n      tag_8\n      jump\t// in\n    tag_5:\n      mload(0x40)\n      tag_9\n      swap2\n      swap1\n      tag_10\n      jump\t// in\n    tag_9:\n      mload(0x40)\n      dup1\n      swap2\n      sub\n      swap1\n      return\n        /* \"homework/02/library/MattLib.sol\":164:330  function add(uint a,uint b) external pure returns (uint){... */\n    tag_3:\n      tag_11\n      0x04\n      dup1\n      calldatasize\n      sub\n      dup2\n      add\n      swap1\n      tag_12\n      swap2\n      swap1\n      tag_7\n      jump\t// in\n    tag_12:\n      tag_13\n      jump\t// in\n    tag_11:\n      mload(0x40)\n      tag_14\n      swap2\n      swap1\n      tag_10\n      jump\t// in\n    tag_14:\n      mload(0x40)\n      dup1\n      swap2\n      sub\n      swap1\n      return\n        /* \"homework/02/library/MattLib.sol\":338:511  function sub(uint a,uint b) external pure returns (int){... */\n    tag_4:\n      tag_15\n      0x04\n      dup1\n      calldatasize\n      sub\n      dup2\n      add\n      swap1\n      tag_16\n      swap2\n      swap1\n      tag_7\n      jump\t// in\n    tag_16:\n      tag_17\n      jump\t// in\n    tag_15:\n      mload(0x40)\n      tag_18\n      swap2\n      swap1\n      tag_19\n      jump\t// in\n    tag_18:\n      mload(0x40)\n      dup1\n      swap2\n      sub\n      swap1\n      return\n        /* \"homework/02/library/MattLib.sol\":519:686  function multi(uint a,uint b) external pure returns (uint){... */\n    tag_8:\n        /* \"homework/02/library/MattLib.sol\":572:576  uint */\n      0x00\n        /* \"homework/02/library/MattLib.sol\":588:594  uint c */\n      dup1\n        /* \"homework/02/library/MattLib.sol\":601:602  b */\n      dup3\n        /* \"homework/02/library/MattLib.sol\":597:598  a */\n      dup5\n        /* \"homework/02/library/MattLib.sol\":597:602  a * b */\n      tag_21\n      swap2\n      swap1\n      tag_22\n      jump\t// in\n    tag_21:\n        /* \"homework/02/library/MattLib.sol\":588:602  uint c = a * b */\n      swap1\n      pop\n        /* \"homework/02/library/MattLib.sol\":626:627  a */\n      dup4\n        /* \"homework/02/library/MattLib.sol\":621:622  c */\n      dup2\n        /* \"homework/02/library/MattLib.sol\":621:627  c >= a */\n      lt\n      iszero\n        /* \"homework/02/library/MattLib.sol\":613:659  require(c >= a, \"SafeMath: addition overflow\") */\n      tag_23\n      jumpi\n      mload(0x40)\n      0x08c379a000000000000000000000000000000000000000000000000000000000\n      dup2\n      mstore\n      0x04\n      add\n      tag_24\n      swap1\n      tag_25\n      jump\t// in\n    tag_24:\n      mload(0x40)\n      dup1\n      swap2\n      sub\n      swap1\n      revert\n    tag_23:\n        /* \"homework/02/library/MattLib.sol\":677:678  c */\n      dup1\n        /* \"homework/02/library/MattLib.sol\":670:678  return c */\n      swap2\n      pop\n      pop\n        /* \"homework/02/library/MattLib.sol\":519:686  function multi(uint a,uint b) external pure returns (uint){... */\n      swap3\n      swap2\n      pop\n      pop\n      jump\t// out\n        /* \"homework/02/library/MattLib.sol\":164:330  function add(uint a,uint b) external pure returns (uint){... */\n    tag_13:\n        /* \"homework/02/library/MattLib.sol\":215:219  uint */\n      0x00\n        /* \"homework/02/library/MattLib.sol\":232:238  uint c */\n      dup1\n        /* \"homework/02/library/MattLib.sol\":245:246  b */\n      dup3\n        /* \"homework/02/library/MattLib.sol\":241:242  a */\n      dup5\n        /* \"homework/02/library/MattLib.sol\":241:246  a + b */\n      tag_27\n      swap2\n      swap1\n      tag_28\n      jump\t// in\n    tag_27:\n        /* \"homework/02/library/MattLib.sol\":232:246  uint c = a + b */\n      swap1\n      pop\n        /* \"homework/02/library/MattLib.sol\":270:271  a */\n      dup4\n        /* \"homework/02/library/MattLib.sol\":265:266  c */\n      dup2\n        /* \"homework/02/library/MattLib.sol\":265:271  c >= a */\n      lt\n      iszero\n        /* \"homework/02/library/MattLib.sol\":257:303  require(c >= a, \"SafeMath: addition overflow\") */\n      tag_29\n      jumpi\n      mload(0x40)\n      0x08c379a000000000000000000000000000000000000000000000000000000000\n      dup2\n      mstore\n      0x04\n      add\n      tag_30\n      swap1\n      tag_25\n      jump\t// in\n    tag_30:\n      mload(0x40)\n      dup1\n      swap2\n      sub\n      swap1\n      revert\n    tag_29:\n        /* \"homework/02/library/MattLib.sol\":321:322  c */\n      dup1\n        /* \"homework/02/library/MattLib.sol\":314:322  return c */\n      swap2\n      pop\n      pop\n        /* \"homework/02/library/MattLib.sol\":164:330  function add(uint a,uint b) external pure returns (uint){... */\n      swap3\n      swap2\n      pop\n      pop\n      jump\t// out\n        /* \"homework/02/library/MattLib.sol\":338:511  function sub(uint a,uint b) external pure returns (int){... */\n    tag_17:\n        /* \"homework/02/library/MattLib.sol\":389:392  int */\n      0x00\n        /* \"homework/02/library/MattLib.sol\":404:409  int c */\n      dup1\n        /* \"homework/02/library/MattLib.sol\":420:421  b */\n      dup3\n        /* \"homework/02/library/MattLib.sol\":416:417  a */\n      dup5\n        /* \"homework/02/library/MattLib.sol\":416:421  a - b */\n      tag_32\n      swap2\n      swap1\n      tag_33\n      jump\t// in\n    tag_32:\n        /* \"homework/02/library/MattLib.sol\":404:422  int c = int(a - b) */\n      swap1\n      pop\n        /* \"homework/02/library/MattLib.sol\":450:451  a */\n      dup4\n        /* \"homework/02/library/MattLib.sol\":441:442  c */\n      dup2\n        /* \"homework/02/library/MattLib.sol\":441:452  c <= int(a) */\n      sgt\n      iszero\n        /* \"homework/02/library/MattLib.sol\":433:484  require(c <= int(a), \"SafeMath: addition overflow\") */\n      tag_34\n      jumpi\n      mload(0x40)\n      0x08c379a000000000000000000000000000000000000000000000000000000000\n      dup2\n      mstore\n      0x04\n      add\n      tag_35\n      swap1\n      tag_25\n      jump\t// in\n    tag_35:\n      mload(0x40)\n      dup1\n      swap2\n      sub\n      swap1\n      revert\n    tag_34:\n        /* \"homework/02/library/MattLib.sol\":502:503  c */\n      dup1\n        /* \"homework/02/library/MattLib.sol\":495:503  return c */\n      swap2\n      pop\n      pop\n        /* \"homework/02/library/MattLib.sol\":338:511  function sub(uint a,uint b) external pure returns (int){... */\n      swap3\n      swap2\n      pop\n      pop\n      jump\t// out\n        /* \"#utility.yul\":88:205   */\n    tag_37:\n        /* \"#utility.yul\":197:198   */\n      0x00\n        /* \"#utility.yul\":194:195   */\n      dup1\n        /* \"#utility.yul\":187:199   */\n      revert\n        /* \"#utility.yul\":334:411   */\n    tag_39:\n        /* \"#utility.yul\":371:378   */\n      0x00\n        /* \"#utility.yul\":400:405   */\n      dup2\n        /* \"#utility.yul\":389:405   */\n      swap1\n      pop\n        /* \"#utility.yul\":334:411   */\n      swap2\n      swap1\n      pop\n      jump\t// out\n        /* \"#utility.yul\":417:539   */\n    tag_40:\n        /* \"#utility.yul\":490:514   */\n      tag_55\n        /* \"#utility.yul\":508:513   */\n      dup2\n        /* \"#utility.yul\":490:514   */\n      tag_39\n      jump\t// in\n    tag_55:\n        /* \"#utility.yul\":483:488   */\n      dup2\n        /* \"#utility.yul\":480:515   */\n      eq\n        /* \"#utility.yul\":470:533   */\n      tag_56\n      jumpi\n        /* \"#utility.yul\":529:530   */\n      0x00\n        /* \"#utility.yul\":526:527   */\n      dup1\n        /* \"#utility.yul\":519:531   */\n      revert\n        /* \"#utility.yul\":470:533   */\n    tag_56:\n        /* \"#utility.yul\":417:539   */\n      pop\n      jump\t// out\n        /* \"#utility.yul\":545:684   */\n    tag_41:\n        /* \"#utility.yul\":591:596   */\n      0x00\n        /* \"#utility.yul\":629:635   */\n      dup2\n        /* \"#utility.yul\":616:636   */\n      calldataload\n        /* \"#utility.yul\":607:636   */\n      swap1\n      pop\n        /* \"#utility.yul\":645:678   */\n      tag_58\n        /* \"#utility.yul\":672:677   */\n      dup2\n        /* \"#utility.yul\":645:678   */\n      tag_40\n      jump\t// in\n    tag_58:\n        /* \"#utility.yul\":545:684   */\n      swap3\n      swap2\n      pop\n      pop\n      jump\t// out\n        /* \"#utility.yul\":690:1164   */\n    tag_7:\n        /* \"#utility.yul\":758:764   */\n      0x00\n        /* \"#utility.yul\":766:772   */\n      dup1\n        /* \"#utility.yul\":815:817   */\n      0x40\n        /* \"#utility.yul\":803:812   */\n      dup4\n        /* \"#utility.yul\":794:801   */\n      dup6\n        /* \"#utility.yul\":790:813   */\n      sub\n        /* \"#utility.yul\":786:818   */\n      slt\n        /* \"#utility.yul\":783:902   */\n      iszero\n      tag_60\n      jumpi\n        /* \"#utility.yul\":821:900   */\n      tag_61\n      tag_37\n      jump\t// in\n    tag_61:\n        /* \"#utility.yul\":783:902   */\n    tag_60:\n        /* \"#utility.yul\":941:942   */\n      0x00\n        /* \"#utility.yul\":966:1019   */\n      tag_62\n        /* \"#utility.yul\":1011:1018   */\n      dup6\n        /* \"#utility.yul\":1002:1008   */\n      dup3\n        /* \"#utility.yul\":991:1000   */\n      dup7\n        /* \"#utility.yul\":987:1009   */\n      add\n        /* \"#utility.yul\":966:1019   */\n      tag_41\n      jump\t// in\n    tag_62:\n        /* \"#utility.yul\":956:1019   */\n      swap3\n      pop\n        /* \"#utility.yul\":912:1029   */\n      pop\n        /* \"#utility.yul\":1068:1070   */\n      0x20\n        /* \"#utility.yul\":1094:1147   */\n      tag_63\n        /* \"#utility.yul\":1139:1146   */\n      dup6\n        /* \"#utility.yul\":1130:1136   */\n      dup3\n        /* \"#utility.yul\":1119:1128   */\n      dup7\n        /* \"#utility.yul\":1115:1137   */\n      add\n        /* \"#utility.yul\":1094:1147   */\n      tag_41\n      jump\t// in\n    tag_63:\n        /* \"#utility.yul\":1084:1147   */\n      swap2\n      pop\n        /* \"#utility.yul\":1039:1157   */\n      pop\n        /* \"#utility.yul\":690:1164   */\n      swap3\n      pop\n      swap3\n      swap1\n      pop\n      jump\t// out\n        /* \"#utility.yul\":1170:1296   */\n    tag_42:\n        /* \"#utility.yul\":1265:1289   */\n      tag_65\n        /* \"#utility.yul\":1283:1288   */\n      dup2\n        /* \"#utility.yul\":1265:1289   */\n      tag_39\n      jump\t// in\n    tag_65:\n        /* \"#utility.yul\":1260:1263   */\n      dup3\n        /* \"#utility.yul\":1253:1290   */\n      mstore\n        /* \"#utility.yul\":1170:1296   */\n      pop\n      pop\n      jump\t// out\n        /* \"#utility.yul\":1302:1540   */\n    tag_10:\n        /* \"#utility.yul\":1403:1407   */\n      0x00\n        /* \"#utility.yul\":1441:1443   */\n      0x20\n        /* \"#utility.yul\":1430:1439   */\n      dup3\n        /* \"#utility.yul\":1426:1444   */\n      add\n        /* \"#utility.yul\":1418:1444   */\n      swap1\n      pop\n        /* \"#utility.yul\":1454:1533   */\n      tag_67\n        /* \"#utility.yul\":1530:1531   */\n      0x00\n        /* \"#utility.yul\":1519:1528   */\n      dup4\n        /* \"#utility.yul\":1515:1532   */\n      add\n        /* \"#utility.yul\":1506:1512   */\n      dup5\n        /* \"#utility.yul\":1454:1533   */\n      tag_42\n      jump\t// in\n    tag_67:\n        /* \"#utility.yul\":1302:1540   */\n      swap3\n      swap2\n      pop\n      pop\n      jump\t// out\n        /* \"#utility.yul\":1546:1622   */\n    tag_43:\n        /* \"#utility.yul\":1582:1589   */\n      0x00\n        /* \"#utility.yul\":1611:1616   */\n      dup2\n        /* \"#utility.yul\":1600:1616   */\n      swap1\n      pop\n        /* \"#utility.yul\":1546:1622   */\n      swap2\n      swap1\n      pop\n      jump\t// out\n        /* \"#utility.yul\":1628:1751   */\n    tag_44:\n        /* \"#utility.yul\":1721:1744   */\n      tag_70\n        /* \"#utility.yul\":1738:1743   */\n      dup2\n        /* \"#utility.yul\":1721:1744   */\n      tag_43\n      jump\t// in\n    tag_70:\n        /* \"#utility.yul\":1716:1719   */\n      dup3\n        /* \"#utility.yul\":1709:1745   */\n      mstore\n        /* \"#utility.yul\":1628:1751   */\n      pop\n      pop\n      jump\t// out\n        /* \"#utility.yul\":1757:1991   */\n    tag_19:\n        /* \"#utility.yul\":1856:1860   */\n      0x00\n        /* \"#utility.yul\":1894:1896   */\n      0x20\n        /* \"#utility.yul\":1883:1892   */\n      dup3\n        /* \"#utility.yul\":1879:1897   */\n      add\n        /* \"#utility.yul\":1871:1897   */\n      swap1\n      pop\n        /* \"#utility.yul\":1907:1984   */\n      tag_72\n        /* \"#utility.yul\":1981:1982   */\n      0x00\n        /* \"#utility.yul\":1970:1979   */\n      dup4\n        /* \"#utility.yul\":1966:1983   */\n      add\n        /* \"#utility.yul\":1957:1963   */\n      dup5\n        /* \"#utility.yul\":1907:1984   */\n      tag_44\n      jump\t// in\n    tag_72:\n        /* \"#utility.yul\":1757:1991   */\n      swap3\n      swap2\n      pop\n      pop\n      jump\t// out\n        /* \"#utility.yul\":1997:2177   */\n    tag_45:\n        /* \"#utility.yul\":2045:2122   */\n      0x4e487b7100000000000000000000000000000000000000000000000000000000\n        /* \"#utility.yul\":2042:2043   */\n      0x00\n        /* \"#utility.yul\":2035:2123   */\n      mstore\n        /* \"#utility.yul\":2142:2146   */\n      0x11\n        /* \"#utility.yul\":2139:2140   */\n      0x04\n        /* \"#utility.yul\":2132:2147   */\n      mstore\n        /* \"#utility.yul\":2166:2170   */\n      0x24\n        /* \"#utility.yul\":2163:2164   */\n      0x00\n        /* \"#utility.yul\":2156:2171   */\n      revert\n        /* \"#utility.yul\":2183:2593   */\n    tag_22:\n        /* \"#utility.yul\":2223:2230   */\n      0x00\n        /* \"#utility.yul\":2246:2266   */\n      tag_75\n        /* \"#utility.yul\":2264:2265   */\n      dup3\n        /* \"#utility.yul\":2246:2266   */\n      tag_39\n      jump\t// in\n    tag_75:\n        /* \"#utility.yul\":2241:2266   */\n      swap2\n      pop\n        /* \"#utility.yul\":2280:2300   */\n      tag_76\n        /* \"#utility.yul\":2298:2299   */\n      dup4\n        /* \"#utility.yul\":2280:2300   */\n      tag_39\n      jump\t// in\n    tag_76:\n        /* \"#utility.yul\":2275:2300   */\n      swap3\n      pop\n        /* \"#utility.yul\":2335:2336   */\n      dup3\n        /* \"#utility.yul\":2332:2333   */\n      dup3\n        /* \"#utility.yul\":2328:2337   */\n      mul\n        /* \"#utility.yul\":2357:2387   */\n      tag_77\n        /* \"#utility.yul\":2375:2386   */\n      dup2\n        /* \"#utility.yul\":2357:2387   */\n      tag_39\n      jump\t// in\n    tag_77:\n        /* \"#utility.yul\":2346:2387   */\n      swap2\n      pop\n        /* \"#utility.yul\":2536:2537   */\n      dup3\n        /* \"#utility.yul\":2527:2534   */\n      dup3\n        /* \"#utility.yul\":2523:2538   */\n      div\n        /* \"#utility.yul\":2520:2521   */\n      dup5\n        /* \"#utility.yul\":2517:2539   */\n      eq\n        /* \"#utility.yul\":2497:2498   */\n      dup4\n        /* \"#utility.yul\":2490:2499   */\n      iszero\n        /* \"#utility.yul\":2470:2553   */\n      or\n        /* \"#utility.yul\":2447:2586   */\n      tag_78\n      jumpi\n        /* \"#utility.yul\":2566:2584   */\n      tag_79\n      tag_45\n      jump\t// in\n    tag_79:\n        /* \"#utility.yul\":2447:2586   */\n    tag_78:\n        /* \"#utility.yul\":2231:2593   */\n      pop\n        /* \"#utility.yul\":2183:2593   */\n      swap3\n      swap2\n      pop\n      pop\n      jump\t// out\n        /* \"#utility.yul\":2599:2768   */\n    tag_46:\n        /* \"#utility.yul\":2683:2694   */\n      0x00\n        /* \"#utility.yul\":2717:2723   */\n      dup3\n        /* \"#utility.yul\":2712:2715   */\n      dup3\n        /* \"#utility.yul\":2705:2724   */\n      mstore\n        /* \"#utility.yul\":2757:2761   */\n      0x20\n        /* \"#utility.yul\":2752:2755   */\n      dup3\n        /* \"#utility.yul\":2748:2762   */\n      add\n        /* \"#utility.yul\":2733:2762   */\n      swap1\n      pop\n        /* \"#utility.yul\":2599:2768   */\n      swap3\n      swap2\n      pop\n      pop\n      jump\t// out\n        /* \"#utility.yul\":2774:2951   */\n    tag_47:\n        /* \"#utility.yul\":2914:2943   */\n      0x536166654d6174683a206164646974696f6e206f766572666c6f770000000000\n        /* \"#utility.yul\":2910:2911   */\n      0x00\n        /* \"#utility.yul\":2902:2908   */\n      dup3\n        /* \"#utility.yul\":2898:2912   */\n      add\n        /* \"#utility.yul\":2891:2944   */\n      mstore\n        /* \"#utility.yul\":2774:2951   */\n      pop\n      jump\t// out\n        /* \"#utility.yul\":2957:3323   */\n    tag_48:\n        /* \"#utility.yul\":3099:3102   */\n      0x00\n        /* \"#utility.yul\":3120:3187   */\n      tag_83\n        /* \"#utility.yul\":3184:3186   */\n      0x1b\n        /* \"#utility.yul\":3179:3182   */\n      dup4\n        /* \"#utility.yul\":3120:3187   */\n      tag_46\n      jump\t// in\n    tag_83:\n        /* \"#utility.yul\":3113:3187   */\n      swap2\n      pop\n        /* \"#utility.yul\":3196:3289   */\n      tag_84\n        /* \"#utility.yul\":3285:3288   */\n      dup3\n        /* \"#utility.yul\":3196:3289   */\n      tag_47\n      jump\t// in\n    tag_84:\n        /* \"#utility.yul\":3314:3316   */\n      0x20\n        /* \"#utility.yul\":3309:3312   */\n      dup3\n        /* \"#utility.yul\":3305:3317   */\n      add\n        /* \"#utility.yul\":3298:3317   */\n      swap1\n      pop\n        /* \"#utility.yul\":2957:3323   */\n      swap2\n      swap1\n      pop\n      jump\t// out\n        /* \"#utility.yul\":3329:3748   */\n    tag_25:\n        /* \"#utility.yul\":3495:3499   */\n      0x00\n        /* \"#utility.yul\":3533:3535   */\n      0x20\n        /* \"#utility.yul\":3522:3531   */\n      dup3\n        /* \"#utility.yul\":3518:3536   */\n      add\n        /* \"#utility.yul\":3510:3536   */\n      swap1\n      pop\n        /* \"#utility.yul\":3582:3591   */\n      dup2\n        /* \"#utility.yul\":3576:3580   */\n      dup2\n        /* \"#utility.yul\":3572:3592   */\n      sub\n        /* \"#utility.yul\":3568:3569   */\n      0x00\n        /* \"#utility.yul\":3557:3566   */\n      dup4\n        /* \"#utility.yul\":3553:3570   */\n      add\n        /* \"#utility.yul\":3546:3593   */\n      mstore\n        /* \"#utility.yul\":3610:3741   */\n      tag_86\n        /* \"#utility.yul\":3736:3740   */\n      dup2\n        /* \"#utility.yul\":3610:3741   */\n      tag_48\n      jump\t// in\n    tag_86:\n        /* \"#utility.yul\":3602:3741   */\n      swap1\n      pop\n        /* \"#utility.yul\":3329:3748   */\n      swap2\n      swap1\n      pop\n      jump\t// out\n        /* \"#utility.yul\":3754:3945   */\n    tag_28:\n        /* \"#utility.yul\":3794:3797   */\n      0x00\n        /* \"#utility.yul\":3813:3833   */\n      tag_88\n        /* \"#utility.yul\":3831:3832   */\n      dup3\n        /* \"#utility.yul\":3813:3833   */\n      tag_39\n      jump\t// in\n    tag_88:\n        /* \"#utility.yul\":3808:3833   */\n      swap2\n      pop\n        /* \"#utility.yul\":3847:3867   */\n      tag_89\n        /* \"#utility.yul\":3865:3866   */\n      dup4\n        /* \"#utility.yul\":3847:3867   */\n      tag_39\n      jump\t// in\n    tag_89:\n        /* \"#utility.yul\":3842:3867   */\n      swap3\n      pop\n        /* \"#utility.yul\":3890:3891   */\n      dup3\n        /* \"#utility.yul\":3887:3888   */\n      dup3\n        /* \"#utility.yul\":3883:3892   */\n      add\n        /* \"#utility.yul\":3876:3892   */\n      swap1\n      pop\n        /* \"#utility.yul\":3911:3914   */\n      dup1\n        /* \"#utility.yul\":3908:3909   */\n      dup3\n        /* \"#utility.yul\":3905:3915   */\n      gt\n        /* \"#utility.yul\":3902:3938   */\n      iszero\n      tag_90\n      jumpi\n        /* \"#utility.yul\":3918:3936   */\n      tag_91\n      tag_45\n      jump\t// in\n    tag_91:\n        /* \"#utility.yul\":3902:3938   */\n    tag_90:\n        /* \"#utility.yul\":3754:3945   */\n      swap3\n      swap2\n      pop\n      pop\n      jump\t// out\n        /* \"#utility.yul\":3951:4145   */\n    tag_33:\n        /* \"#utility.yul\":3991:3995   */\n      0x00\n        /* \"#utility.yul\":4011:4031   */\n      tag_93\n        /* \"#utility.yul\":4029:4030   */\n      dup3\n        /* \"#utility.yul\":4011:4031   */\n      tag_39\n      jump\t// in\n    tag_93:\n        /* \"#utility.yul\":4006:4031   */\n      swap2\n      pop\n        /* \"#utility.yul\":4045:4065   */\n      tag_94\n        /* \"#utility.yul\":4063:4064   */\n      dup4\n        /* \"#utility.yul\":4045:4065   */\n      tag_39\n      jump\t// in\n    tag_94:\n        /* \"#utility.yul\":4040:4065   */\n      swap3\n      pop\n        /* \"#utility.yul\":4089:4090   */\n      dup3\n        /* \"#utility.yul\":4086:4087   */\n      dup3\n        /* \"#utility.yul\":4082:4091   */\n      sub\n        /* \"#utility.yul\":4074:4091   */\n      swap1\n      pop\n        /* \"#utility.yul\":4113:4114   */\n      dup2\n        /* \"#utility.yul\":4107:4111   */\n      dup2\n        /* \"#utility.yul\":4104:4115   */\n      gt\n        /* \"#utility.yul\":4101:4138   */\n      iszero\n      tag_95\n      jumpi\n        /* \"#utility.yul\":4118:4136   */\n      tag_96\n      tag_45\n      jump\t// in\n    tag_96:\n        /* \"#utility.yul\":4101:4138   */\n    tag_95:\n        /* \"#utility.yul\":3951:4145   */\n      swap3\n      swap2\n      pop\n      pop\n      jump\t// out\n\n    auxdata: 0xa26469706673582212207fd7514e6e25e2c1a031d43c15a1d794eca0e2bcd554b6943057f58949e41f4f64736f6c634300081a0033\n}\n",
				"bytecode": {
					"linkReferences": {},
					"object": "61044561004d600b8282823980515f1a6073146041577f4e487b71000000000000000000000000000000000000000000000000000000005f525f60045260245ffd5b305f52607381538281f3fe730000000000000000000000000000000000000000301460806040526004361061004a575f3560e01c80635171762c1461004e578063771602f71461007e578063b67d77c5146100ae575b5f80fd5b6100686004803603810190610063919061022c565b6100de565b6040516100759190610279565b60405180910390f35b6100986004803603810190610093919061022c565b61013b565b6040516100a59190610279565b60405180910390f35b6100c860048036038101906100c3919061022c565b610198565b6040516100d591906102aa565b60405180910390f35b5f8082846100ec91906102f0565b905083811015610131576040517f08c379a00000000000000000000000000000000000000000000000000000000081526004016101289061038b565b60405180910390fd5b8091505092915050565b5f80828461014991906103a9565b90508381101561018e576040517f08c379a00000000000000000000000000000000000000000000000000000000081526004016101859061038b565b60405180910390fd5b8091505092915050565b5f8082846101a691906103dc565b9050838113156101eb576040517f08c379a00000000000000000000000000000000000000000000000000000000081526004016101e29061038b565b60405180910390fd5b8091505092915050565b5f80fd5b5f819050919050565b61020b816101f9565b8114610215575f80fd5b50565b5f8135905061022681610202565b92915050565b5f8060408385031215610242576102416101f5565b5b5f61024f85828601610218565b925050602061026085828601610218565b9150509250929050565b610273816101f9565b82525050565b5f60208201905061028c5f83018461026a565b92915050565b5f819050919050565b6102a481610292565b82525050565b5f6020820190506102bd5f83018461029b565b92915050565b7f4e487b71000000000000000000000000000000000000000000000000000000005f52601160045260245ffd5b5f6102fa826101f9565b9150610305836101f9565b9250828202610313816101f9565b9150828204841483151761032a576103296102c3565b5b5092915050565b5f82825260208201905092915050565b7f536166654d6174683a206164646974696f6e206f766572666c6f7700000000005f82015250565b5f610375601b83610331565b915061038082610341565b602082019050919050565b5f6020820190508181035f8301526103a281610369565b9050919050565b5f6103b3826101f9565b91506103be836101f9565b92508282019050808211156103d6576103d56102c3565b5b92915050565b5f6103e6826101f9565b91506103f1836101f9565b9250828203905081811115610409576104086102c3565b5b9291505056fea26469706673582212207fd7514e6e25e2c1a031d43c15a1d794eca0e2bcd554b6943057f58949e41f4f64736f6c634300081a0033",
					"opcodes": "PUSH2 0x445 PUSH2 0x4D PUSH1 0xB DUP3 DUP3 DUP3 CODECOPY DUP1 MLOAD PUSH0 BYTE PUSH1 0x73 EQ PUSH1 0x41 JUMPI PUSH32 0x4E487B7100000000000000000000000000000000000000000000000000000000 PUSH0 MSTORE PUSH0 PUSH1 0x4 MSTORE PUSH1 0x24 PUSH0 REVERT JUMPDEST ADDRESS PUSH0 MSTORE PUSH1 0x73 DUP2 MSTORE8 DUP3 DUP2 RETURN INVALID PUSH20 0x0 ADDRESS EQ PUSH1 0x80 PUSH1 0x40 MSTORE PUSH1 0x4 CALLDATASIZE LT PUSH2 0x4A JUMPI PUSH0 CALLDATALOAD PUSH1 0xE0 SHR DUP1 PUSH4 0x5171762C EQ PUSH2 0x4E JUMPI DUP1 PUSH4 0x771602F7 EQ PUSH2 0x7E JUMPI DUP1 PUSH4 0xB67D77C5 EQ PUSH2 0xAE JUMPI JUMPDEST PUSH0 DUP1 REVERT JUMPDEST PUSH2 0x68 PUSH1 0x4 DUP1 CALLDATASIZE SUB DUP2 ADD SWAP1 PUSH2 0x63 SWAP2 SWAP1 PUSH2 0x22C JUMP JUMPDEST PUSH2 0xDE JUMP JUMPDEST PUSH1 0x40 MLOAD PUSH2 0x75 SWAP2 SWAP1 PUSH2 0x279 JUMP JUMPDEST PUSH1 0x40 MLOAD DUP1 SWAP2 SUB SWAP1 RETURN JUMPDEST PUSH2 0x98 PUSH1 0x4 DUP1 CALLDATASIZE SUB DUP2 ADD SWAP1 PUSH2 0x93 SWAP2 SWAP1 PUSH2 0x22C JUMP JUMPDEST PUSH2 0x13B JUMP JUMPDEST PUSH1 0x40 MLOAD PUSH2 0xA5 SWAP2 SWAP1 PUSH2 0x279 JUMP JUMPDEST PUSH1 0x40 MLOAD DUP1 SWAP2 SUB SWAP1 RETURN JUMPDEST PUSH2 0xC8 PUSH1 0x4 DUP1 CALLDATASIZE SUB DUP2 ADD SWAP1 PUSH2 0xC3 SWAP2 SWAP1 PUSH2 0x22C JUMP JUMPDEST PUSH2 0x198 JUMP JUMPDEST PUSH1 0x40 MLOAD PUSH2 0xD5 SWAP2 SWAP1 PUSH2 0x2AA JUMP JUMPDEST PUSH1 0x40 MLOAD DUP1 SWAP2 SUB SWAP1 RETURN JUMPDEST PUSH0 DUP1 DUP3 DUP5 PUSH2 0xEC SWAP2 SWAP1 PUSH2 0x2F0 JUMP JUMPDEST SWAP1 POP DUP4 DUP2 LT ISZERO PUSH2 0x131 JUMPI PUSH1 0x40 MLOAD PUSH32 0x8C379A000000000000000000000000000000000000000000000000000000000 DUP2 MSTORE PUSH1 0x4 ADD PUSH2 0x128 SWAP1 PUSH2 0x38B JUMP JUMPDEST PUSH1 0x40 MLOAD DUP1 SWAP2 SUB SWAP1 REVERT JUMPDEST DUP1 SWAP2 POP POP SWAP3 SWAP2 POP POP JUMP JUMPDEST PUSH0 DUP1 DUP3 DUP5 PUSH2 0x149 SWAP2 SWAP1 PUSH2 0x3A9 JUMP JUMPDEST SWAP1 POP DUP4 DUP2 LT ISZERO PUSH2 0x18E JUMPI PUSH1 0x40 MLOAD PUSH32 0x8C379A000000000000000000000000000000000000000000000000000000000 DUP2 MSTORE PUSH1 0x4 ADD PUSH2 0x185 SWAP1 PUSH2 0x38B JUMP JUMPDEST PUSH1 0x40 MLOAD DUP1 SWAP2 SUB SWAP1 REVERT JUMPDEST DUP1 SWAP2 POP POP SWAP3 SWAP2 POP POP JUMP JUMPDEST PUSH0 DUP1 DUP3 DUP5 PUSH2 0x1A6 SWAP2 SWAP1 PUSH2 0x3DC JUMP JUMPDEST SWAP1 POP DUP4 DUP2 SGT ISZERO PUSH2 0x1EB JUMPI PUSH1 0x40 MLOAD PUSH32 0x8C379A000000000000000000000000000000000000000000000000000000000 DUP2 MSTORE PUSH1 0x4 ADD PUSH2 0x1E2 SWAP1 PUSH2 0x38B JUMP JUMPDEST PUSH1 0x40 MLOAD DUP1 SWAP2 SUB SWAP1 REVERT JUMPDEST DUP1 SWAP2 POP POP SWAP3 SWAP2 POP POP JUMP JUMPDEST PUSH0 DUP1 REVERT JUMPDEST PUSH0 DUP2 SWAP1 POP SWAP2 SWAP1 POP JUMP JUMPDEST PUSH2 0x20B DUP2 PUSH2 0x1F9 JUMP JUMPDEST DUP2 EQ PUSH2 0x215 JUMPI PUSH0 DUP1 REVERT JUMPDEST POP JUMP JUMPDEST PUSH0 DUP2 CALLDATALOAD SWAP1 POP PUSH2 0x226 DUP2 PUSH2 0x202 JUMP JUMPDEST SWAP3 SWAP2 POP POP JUMP JUMPDEST PUSH0 DUP1 PUSH1 0x40 DUP4 DUP6 SUB SLT ISZERO PUSH2 0x242 JUMPI PUSH2 0x241 PUSH2 0x1F5 JUMP JUMPDEST JUMPDEST PUSH0 PUSH2 0x24F DUP6 DUP3 DUP7 ADD PUSH2 0x218 JUMP JUMPDEST SWAP3 POP POP PUSH1 0x20 PUSH2 0x260 DUP6 DUP3 DUP7 ADD PUSH2 0x218 JUMP JUMPDEST SWAP2 POP POP SWAP3 POP SWAP3 SWAP1 POP JUMP JUMPDEST PUSH2 0x273 DUP2 PUSH2 0x1F9 JUMP JUMPDEST DUP3 MSTORE POP POP JUMP JUMPDEST PUSH0 PUSH1 0x20 DUP3 ADD SWAP1 POP PUSH2 0x28C PUSH0 DUP4 ADD DUP5 PUSH2 0x26A JUMP JUMPDEST SWAP3 SWAP2 POP POP JUMP JUMPDEST PUSH0 DUP2 SWAP1 POP SWAP2 SWAP1 POP JUMP JUMPDEST PUSH2 0x2A4 DUP2 PUSH2 0x292 JUMP JUMPDEST DUP3 MSTORE POP POP JUMP JUMPDEST PUSH0 PUSH1 0x20 DUP3 ADD SWAP1 POP PUSH2 0x2BD PUSH0 DUP4 ADD DUP5 PUSH2 0x29B JUMP JUMPDEST SWAP3 SWAP2 POP POP JUMP JUMPDEST PUSH32 0x4E487B7100000000000000000000000000000000000000000000000000000000 PUSH0 MSTORE PUSH1 0x11 PUSH1 0x4 MSTORE PUSH1 0x24 PUSH0 REVERT JUMPDEST PUSH0 PUSH2 0x2FA DUP3 PUSH2 0x1F9 JUMP JUMPDEST SWAP2 POP PUSH2 0x305 DUP4 PUSH2 0x1F9 JUMP JUMPDEST SWAP3 POP DUP3 DUP3 MUL PUSH2 0x313 DUP2 PUSH2 0x1F9 JUMP JUMPDEST SWAP2 POP DUP3 DUP3 DIV DUP5 EQ DUP4 ISZERO OR PUSH2 0x32A JUMPI PUSH2 0x329 PUSH2 0x2C3 JUMP JUMPDEST JUMPDEST POP SWAP3 SWAP2 POP POP JUMP JUMPDEST PUSH0 DUP3 DUP3 MSTORE PUSH1 0x20 DUP3 ADD SWAP1 POP SWAP3 SWAP2 POP POP JUMP JUMPDEST PUSH32 0x536166654D6174683A206164646974696F6E206F766572666C6F770000000000 PUSH0 DUP3 ADD MSTORE POP JUMP JUMPDEST PUSH0 PUSH2 0x375 PUSH1 0x1B DUP4 PUSH2 0x331 JUMP JUMPDEST SWAP2 POP PUSH2 0x380 DUP3 PUSH2 0x341 JUMP JUMPDEST PUSH1 0x20 DUP3 ADD SWAP1 POP SWAP2 SWAP1 POP JUMP JUMPDEST PUSH0 PUSH1 0x20 DUP3 ADD SWAP1 POP DUP2 DUP2 SUB PUSH0 DUP4 ADD MSTORE PUSH2 0x3A2 DUP2 PUSH2 0x369 JUMP JUMPDEST SWAP1 POP SWAP2 SWAP1 POP JUMP JUMPDEST PUSH0 PUSH2 0x3B3 DUP3 PUSH2 0x1F9 JUMP JUMPDEST SWAP2 POP PUSH2 0x3BE DUP4 PUSH2 0x1F9 JUMP JUMPDEST SWAP3 POP DUP3 DUP3 ADD SWAP1 POP DUP1 DUP3 GT ISZERO PUSH2 0x3D6 JUMPI PUSH2 0x3D5 PUSH2 0x2C3 JUMP JUMPDEST JUMPDEST SWAP3 SWAP2 POP POP JUMP JUMPDEST PUSH0 PUSH2 0x3E6 DUP3 PUSH2 0x1F9 JUMP JUMPDEST SWAP2 POP PUSH2 0x3F1 DUP4 PUSH2 0x1F9 JUMP JUMPDEST SWAP3 POP DUP3 DUP3 SUB SWAP1 POP DUP2 DUP2 GT ISZERO PUSH2 0x409 JUMPI PUSH2 0x408 PUSH2 0x2C3 JUMP JUMPDEST JUMPDEST SWAP3 SWAP2 POP POP JUMP INVALID LOG2 PUSH5 0x6970667358 0x22 SLT KECCAK256 PUSH32 0xD7514E6E25E2C1A031D43C15A1D794ECA0E2BCD554B6943057F58949E41F4F64 PUSH20 0x6F6C634300081A00330000000000000000000000 "
				},
				"gasEstimates": {
					"creation": {
						"codeDepositCost": "218600",
						"executionCost": "286",
						"totalCost": "218886"
					},
					"external": {
						"add(uint256,uint256)": "infinite",
						"multi(uint256,uint256)": "infinite",
						"sub(uint256,uint256)": "infinite"
					}
				},
				"methodIdentifiers": {
					"add(uint256,uint256)": "771602f7",
					"multi(uint256,uint256)": "5171762c",
					"sub(uint256,uint256)": "b67d77c5"
				}
			},
			"storageLayout": {
				"storage": [],
				"types": null
			},
			"userdoc": {
				"kind": "user",
				"methods": {},
				"version": 1
			}
		}
	}
}