{
	"data": {
		"bytecode": {
			"linkReferences": {},
			"object": "6080604052348015600e575f80fd5b506107618061001c5f395ff3fe608060405234801561000f575f80fd5b5060043610610055575f3560e01c80633bc5de3014610059578063aa44269d14610077578063c104210b14610093578063e6b80ce6146100c3578063f0ba8440146100df575b5f80fd5b61006161010f565b60405161006e919061039b565b60405180910390f35b610091600480360381019061008c9190610546565b610164565b005b6100ad60048036038101906100a89190610546565b61017d565b6040516100ba919061039b565b60405180910390f35b6100dd60048036038101906100d8919061058d565b6101eb565b005b6100f960048036038101906100f491906105cb565b610256565b6040516101069190610605565b60405180910390f35b60605f80548060200260200160405190810160405280929190818152602001828054801561015a57602002820191905f5260205f20905b815481526020019060010190808311610146575b5050505050905090565b805f9080519060200190610179929190610275565b5050565b60605f8251116101c2576040517f08c379a00000000000000000000000000000000000000000000000000000000081526004016101b990610678565b60405180910390fd5b6001825f815181106101d7576101d6610696565b5b602002602001018181525050819050919050565b815f805490501015610232576040517f08c379a00000000000000000000000000000000000000000000000000000000081526004016102299061070d565b60405180910390fd5b805f838154811061024657610245610696565b5b905f5260205f2001819055505050565b5f8181548110610264575f80fd5b905f5260205f20015f915090505481565b828054828255905f5260205f209081019282156102af579160200282015b828111156102ae578251825591602001919060010190610293565b5b5090506102bc91906102c0565b5090565b5b808211156102d7575f815f9055506001016102c1565b5090565b5f81519050919050565b5f82825260208201905092915050565b5f819050602082019050919050565b5f819050919050565b61031681610304565b82525050565b5f610327838361030d565b60208301905092915050565b5f602082019050919050565b5f610349826102db565b61035381856102e5565b935061035e836102f5565b805f5b8381101561038e578151610375888261031c565b975061038083610333565b925050600181019050610361565b5085935050505092915050565b5f6020820190508181035f8301526103b3818461033f565b905092915050565b5f604051905090565b5f80fd5b5f80fd5b5f80fd5b5f601f19601f8301169050919050565b7f4e487b71000000000000000000000000000000000000000000000000000000005f52604160045260245ffd5b610416826103d0565b810181811067ffffffffffffffff82111715610435576104346103e0565b5b80604052505050565b5f6104476103bb565b9050610453828261040d565b919050565b5f67ffffffffffffffff821115610472576104716103e0565b5b602082029050602081019050919050565b5f80fd5b61049081610304565b811461049a575f80fd5b50565b5f813590506104ab81610487565b92915050565b5f6104c36104be84610458565b61043e565b905080838252602082019050602084028301858111156104e6576104e5610483565b5b835b8181101561050f57806104fb888261049d565b8452602084019350506020810190506104e8565b5050509392505050565b5f82601f83011261052d5761052c6103cc565b5b813561053d8482602086016104b1565b91505092915050565b5f6020828403121561055b5761055a6103c4565b5b5f82013567ffffffffffffffff811115610578576105776103c8565b5b61058484828501610519565b91505092915050565b5f80604083850312156105a3576105a26103c4565b5b5f6105b08582860161049d565b92505060206105c18582860161049d565b9150509250929050565b5f602082840312156105e0576105df6103c4565b5b5f6105ed8482850161049d565b91505092915050565b6105ff81610304565b82525050565b5f6020820190506106185f8301846105f6565b92915050565b5f82825260208201905092915050565b7fe695b0e7bb84e6b2a1e69c89e58583e7b4a000000000000000000000000000005f82015250565b5f61066260128361061e565b915061066d8261062e565b602082019050919050565b5f6020820190508181035f83015261068f81610656565b9050919050565b7f4e487b71000000000000000000000000000000000000000000000000000000005f52603260045260245ffd5b7fe695b0e7bb84e8b68ae7958c00000000000000000000000000000000000000005f82015250565b5f6106f7600c8361061e565b9150610702826106c3565b602082019050919050565b5f6020820190508181035f830152610724816106eb565b905091905056fea2646970667358221220d262ed401faf4734aa8dda7703fd9ccafaeff920f8d4ff433b8f50100a14692c64736f6c634300081a0033",
			"opcodes": "PUSH1 0x80 PUSH1 0x40 MSTORE CALLVALUE DUP1 ISZERO PUSH1 0xE JUMPI PUSH0 DUP1 REVERT JUMPDEST POP PUSH2 0x761 DUP1 PUSH2 0x1C PUSH0 CODECOPY PUSH0 RETURN INVALID PUSH1 0x80 PUSH1 0x40 MSTORE CALLVALUE DUP1 ISZERO PUSH2 0xF JUMPI PUSH0 DUP1 REVERT JUMPDEST POP PUSH1 0x4 CALLDATASIZE LT PUSH2 0x55 JUMPI PUSH0 CALLDATALOAD PUSH1 0xE0 SHR DUP1 PUSH4 0x3BC5DE30 EQ PUSH2 0x59 JUMPI DUP1 PUSH4 0xAA44269D EQ PUSH2 0x77 JUMPI DUP1 PUSH4 0xC104210B EQ PUSH2 0x93 JUMPI DUP1 PUSH4 0xE6B80CE6 EQ PUSH2 0xC3 JUMPI DUP1 PUSH4 0xF0BA8440 EQ PUSH2 0xDF JUMPI JUMPDEST PUSH0 DUP1 REVERT JUMPDEST PUSH2 0x61 PUSH2 0x10F JUMP JUMPDEST PUSH1 0x40 MLOAD PUSH2 0x6E SWAP2 SWAP1 PUSH2 0x39B JUMP JUMPDEST PUSH1 0x40 MLOAD DUP1 SWAP2 SUB SWAP1 RETURN JUMPDEST PUSH2 0x91 PUSH1 0x4 DUP1 CALLDATASIZE SUB DUP2 ADD SWAP1 PUSH2 0x8C SWAP2 SWAP1 PUSH2 0x546 JUMP JUMPDEST PUSH2 0x164 JUMP JUMPDEST STOP JUMPDEST PUSH2 0xAD PUSH1 0x4 DUP1 CALLDATASIZE SUB DUP2 ADD SWAP1 PUSH2 0xA8 SWAP2 SWAP1 PUSH2 0x546 JUMP JUMPDEST PUSH2 0x17D JUMP JUMPDEST PUSH1 0x40 MLOAD PUSH2 0xBA SWAP2 SWAP1 PUSH2 0x39B JUMP JUMPDEST PUSH1 0x40 MLOAD DUP1 SWAP2 SUB SWAP1 RETURN JUMPDEST PUSH2 0xDD PUSH1 0x4 DUP1 CALLDATASIZE SUB DUP2 ADD SWAP1 PUSH2 0xD8 SWAP2 SWAP1 PUSH2 0x58D JUMP JUMPDEST PUSH2 0x1EB JUMP JUMPDEST STOP JUMPDEST PUSH2 0xF9 PUSH1 0x4 DUP1 CALLDATASIZE SUB DUP2 ADD SWAP1 PUSH2 0xF4 SWAP2 SWAP1 PUSH2 0x5CB JUMP JUMPDEST PUSH2 0x256 JUMP JUMPDEST PUSH1 0x40 MLOAD PUSH2 0x106 SWAP2 SWAP1 PUSH2 0x605 JUMP JUMPDEST PUSH1 0x40 MLOAD DUP1 SWAP2 SUB SWAP1 RETURN JUMPDEST PUSH1 0x60 PUSH0 DUP1 SLOAD DUP1 PUSH1 0x20 MUL PUSH1 0x20 ADD PUSH1 0x40 MLOAD SWAP1 DUP2 ADD PUSH1 0x40 MSTORE DUP1 SWAP3 SWAP2 SWAP1 DUP2 DUP2 MSTORE PUSH1 0x20 ADD DUP3 DUP1 SLOAD DUP1 ISZERO PUSH2 0x15A JUMPI PUSH1 0x20 MUL DUP3 ADD SWAP2 SWAP1 PUSH0 MSTORE PUSH1 0x20 PUSH0 KECCAK256 SWAP1 JUMPDEST DUP2 SLOAD DUP2 MSTORE PUSH1 0x20 ADD SWAP1 PUSH1 0x1 ADD SWAP1 DUP1 DUP4 GT PUSH2 0x146 JUMPI JUMPDEST POP POP POP POP POP SWAP1 POP SWAP1 JUMP JUMPDEST DUP1 PUSH0 SWAP1 DUP1 MLOAD SWAP1 PUSH1 0x20 ADD SWAP1 PUSH2 0x179 SWAP3 SWAP2 SWAP1 PUSH2 0x275 JUMP JUMPDEST POP POP JUMP JUMPDEST PUSH1 0x60 PUSH0 DUP3 MLOAD GT PUSH2 0x1C2 JUMPI PUSH1 0x40 MLOAD PUSH32 0x8C379A000000000000000000000000000000000000000000000000000000000 DUP2 MSTORE PUSH1 0x4 ADD PUSH2 0x1B9 SWAP1 PUSH2 0x678 JUMP JUMPDEST PUSH1 0x40 MLOAD DUP1 SWAP2 SUB SWAP1 REVERT JUMPDEST PUSH1 0x1 DUP3 PUSH0 DUP2 MLOAD DUP2 LT PUSH2 0x1D7 JUMPI PUSH2 0x1D6 PUSH2 0x696 JUMP JUMPDEST JUMPDEST PUSH1 0x20 MUL PUSH1 0x20 ADD ADD DUP2 DUP2 MSTORE POP POP DUP2 SWAP1 POP SWAP2 SWAP1 POP JUMP JUMPDEST DUP2 PUSH0 DUP1 SLOAD SWAP1 POP LT ISZERO PUSH2 0x232 JUMPI PUSH1 0x40 MLOAD PUSH32 0x8C379A000000000000000000000000000000000000000000000000000000000 DUP2 MSTORE PUSH1 0x4 ADD PUSH2 0x229 SWAP1 PUSH2 0x70D JUMP JUMPDEST PUSH1 0x40 MLOAD DUP1 SWAP2 SUB SWAP1 REVERT JUMPDEST DUP1 PUSH0 DUP4 DUP2 SLOAD DUP2 LT PUSH2 0x246 JUMPI PUSH2 0x245 PUSH2 0x696 JUMP JUMPDEST JUMPDEST SWAP1 PUSH0 MSTORE PUSH1 0x20 PUSH0 KECCAK256 ADD DUP2 SWAP1 SSTORE POP POP POP JUMP JUMPDEST PUSH0 DUP2 DUP2 SLOAD DUP2 LT PUSH2 0x264 JUMPI PUSH0 DUP1 REVERT JUMPDEST SWAP1 PUSH0 MSTORE PUSH1 0x20 PUSH0 KECCAK256 ADD PUSH0 SWAP2 POP SWAP1 POP SLOAD DUP2 JUMP JUMPDEST DUP3 DUP1 SLOAD DUP3 DUP3 SSTORE SWAP1 PUSH0 MSTORE PUSH1 0x20 PUSH0 KECCAK256 SWAP1 DUP2 ADD SWAP3 DUP3 ISZERO PUSH2 0x2AF JUMPI SWAP2 PUSH1 0x20 MUL DUP3 ADD JUMPDEST DUP3 DUP2 GT ISZERO PUSH2 0x2AE JUMPI DUP3 MLOAD DUP3 SSTORE SWAP2 PUSH1 0x20 ADD SWAP2 SWAP1 PUSH1 0x1 ADD SWAP1 PUSH2 0x293 JUMP JUMPDEST JUMPDEST POP SWAP1 POP PUSH2 0x2BC SWAP2 SWAP1 PUSH2 0x2C0 JUMP JUMPDEST POP SWAP1 JUMP JUMPDEST JUMPDEST DUP1 DUP3 GT ISZERO PUSH2 0x2D7 JUMPI PUSH0 DUP2 PUSH0 SWAP1 SSTORE POP PUSH1 0x1 ADD PUSH2 0x2C1 JUMP JUMPDEST POP SWAP1 JUMP JUMPDEST PUSH0 DUP2 MLOAD SWAP1 POP SWAP2 SWAP1 POP JUMP JUMPDEST PUSH0 DUP3 DUP3 MSTORE PUSH1 0x20 DUP3 ADD SWAP1 POP SWAP3 SWAP2 POP POP JUMP JUMPDEST PUSH0 DUP2 SWAP1 POP PUSH1 0x20 DUP3 ADD SWAP1 POP SWAP2 SWAP1 POP JUMP JUMPDEST PUSH0 DUP2 SWAP1 POP SWAP2 SWAP1 POP JUMP JUMPDEST PUSH2 0x316 DUP2 PUSH2 0x304 JUMP JUMPDEST DUP3 MSTORE POP POP JUMP JUMPDEST PUSH0 PUSH2 0x327 DUP4 DUP4 PUSH2 0x30D JUMP JUMPDEST PUSH1 0x20 DUP4 ADD SWAP1 POP SWAP3 SWAP2 POP POP JUMP JUMPDEST PUSH0 PUSH1 0x20 DUP3 ADD SWAP1 POP SWAP2 SWAP1 POP JUMP JUMPDEST PUSH0 PUSH2 0x349 DUP3 PUSH2 0x2DB JUMP JUMPDEST PUSH2 0x353 DUP2 DUP6 PUSH2 0x2E5 JUMP JUMPDEST SWAP4 POP PUSH2 0x35E DUP4 PUSH2 0x2F5 JUMP JUMPDEST DUP1 PUSH0 JUMPDEST DUP4 DUP2 LT ISZERO PUSH2 0x38E JUMPI DUP2 MLOAD PUSH2 0x375 DUP9 DUP3 PUSH2 0x31C JUMP JUMPDEST SWAP8 POP PUSH2 0x380 DUP4 PUSH2 0x333 JUMP JUMPDEST SWAP3 POP POP PUSH1 0x1 DUP2 ADD SWAP1 POP PUSH2 0x361 JUMP JUMPDEST POP DUP6 SWAP4 POP POP POP POP SWAP3 SWAP2 POP POP JUMP JUMPDEST PUSH0 PUSH1 0x20 DUP3 ADD SWAP1 POP DUP2 DUP2 SUB PUSH0 DUP4 ADD MSTORE PUSH2 0x3B3 DUP2 DUP5 PUSH2 0x33F JUMP JUMPDEST SWAP1 POP SWAP3 SWAP2 POP POP JUMP JUMPDEST PUSH0 PUSH1 0x40 MLOAD SWAP1 POP SWAP1 JUMP JUMPDEST PUSH0 DUP1 REVERT JUMPDEST PUSH0 DUP1 REVERT JUMPDEST PUSH0 DUP1 REVERT JUMPDEST PUSH0 PUSH1 0x1F NOT PUSH1 0x1F DUP4 ADD AND SWAP1 POP SWAP2 SWAP1 POP JUMP JUMPDEST PUSH32 0x4E487B7100000000000000000000000000000000000000000000000000000000 PUSH0 MSTORE PUSH1 0x41 PUSH1 0x4 MSTORE PUSH1 0x24 PUSH0 REVERT JUMPDEST PUSH2 0x416 DUP3 PUSH2 0x3D0 JUMP JUMPDEST DUP2 ADD DUP2 DUP2 LT PUSH8 0xFFFFFFFFFFFFFFFF DUP3 GT OR ISZERO PUSH2 0x435 JUMPI PUSH2 0x434 PUSH2 0x3E0 JUMP JUMPDEST JUMPDEST DUP1 PUSH1 0x40 MSTORE POP POP POP JUMP JUMPDEST PUSH0 PUSH2 0x447 PUSH2 0x3BB JUMP JUMPDEST SWAP1 POP PUSH2 0x453 DUP3 DUP3 PUSH2 0x40D JUMP JUMPDEST SWAP2 SWAP1 POP JUMP JUMPDEST PUSH0 PUSH8 0xFFFFFFFFFFFFFFFF DUP3 GT ISZERO PUSH2 0x472 JUMPI PUSH2 0x471 PUSH2 0x3E0 JUMP JUMPDEST JUMPDEST PUSH1 0x20 DUP3 MUL SWAP1 POP PUSH1 0x20 DUP2 ADD SWAP1 POP SWAP2 SWAP1 POP JUMP JUMPDEST PUSH0 DUP1 REVERT JUMPDEST PUSH2 0x490 DUP2 PUSH2 0x304 JUMP JUMPDEST DUP2 EQ PUSH2 0x49A JUMPI PUSH0 DUP1 REVERT JUMPDEST POP JUMP JUMPDEST PUSH0 DUP2 CALLDATALOAD SWAP1 POP PUSH2 0x4AB DUP2 PUSH2 0x487 JUMP JUMPDEST SWAP3 SWAP2 POP POP JUMP JUMPDEST PUSH0 PUSH2 0x4C3 PUSH2 0x4BE DUP5 PUSH2 0x458 JUMP JUMPDEST PUSH2 0x43E JUMP JUMPDEST SWAP1 POP DUP1 DUP4 DUP3 MSTORE PUSH1 0x20 DUP3 ADD SWAP1 POP PUSH1 0x20 DUP5 MUL DUP4 ADD DUP6 DUP2 GT ISZERO PUSH2 0x4E6 JUMPI PUSH2 0x4E5 PUSH2 0x483 JUMP JUMPDEST JUMPDEST DUP4 JUMPDEST DUP2 DUP2 LT ISZERO PUSH2 0x50F JUMPI DUP1 PUSH2 0x4FB DUP9 DUP3 PUSH2 0x49D JUMP JUMPDEST DUP5 MSTORE PUSH1 0x20 DUP5 ADD SWAP4 POP POP PUSH1 0x20 DUP2 ADD SWAP1 POP PUSH2 0x4E8 JUMP JUMPDEST POP POP POP SWAP4 SWAP3 POP POP POP JUMP JUMPDEST PUSH0 DUP3 PUSH1 0x1F DUP4 ADD SLT PUSH2 0x52D JUMPI PUSH2 0x52C PUSH2 0x3CC JUMP JUMPDEST JUMPDEST DUP2 CALLDATALOAD PUSH2 0x53D DUP5 DUP3 PUSH1 0x20 DUP7 ADD PUSH2 0x4B1 JUMP JUMPDEST SWAP2 POP POP SWAP3 SWAP2 POP POP JUMP JUMPDEST PUSH0 PUSH1 0x20 DUP3 DUP5 SUB SLT ISZERO PUSH2 0x55B JUMPI PUSH2 0x55A PUSH2 0x3C4 JUMP JUMPDEST JUMPDEST PUSH0 DUP3 ADD CALLDATALOAD PUSH8 0xFFFFFFFFFFFFFFFF DUP2 GT ISZERO PUSH2 0x578 JUMPI PUSH2 0x577 PUSH2 0x3C8 JUMP JUMPDEST JUMPDEST PUSH2 0x584 DUP5 DUP3 DUP6 ADD PUSH2 0x519 JUMP JUMPDEST SWAP2 POP POP SWAP3 SWAP2 POP POP JUMP JUMPDEST PUSH0 DUP1 PUSH1 0x40 DUP4 DUP6 SUB SLT ISZERO PUSH2 0x5A3 JUMPI PUSH2 0x5A2 PUSH2 0x3C4 JUMP JUMPDEST JUMPDEST PUSH0 PUSH2 0x5B0 DUP6 DUP3 DUP7 ADD PUSH2 0x49D JUMP JUMPDEST SWAP3 POP POP PUSH1 0x20 PUSH2 0x5C1 DUP6 DUP3 DUP7 ADD PUSH2 0x49D JUMP JUMPDEST SWAP2 POP POP SWAP3 POP SWAP3 SWAP1 POP JUMP JUMPDEST PUSH0 PUSH1 0x20 DUP3 DUP5 SUB SLT ISZERO PUSH2 0x5E0 JUMPI PUSH2 0x5DF PUSH2 0x3C4 JUMP JUMPDEST JUMPDEST PUSH0 PUSH2 0x5ED DUP5 DUP3 DUP6 ADD PUSH2 0x49D JUMP JUMPDEST SWAP2 POP POP SWAP3 SWAP2 POP POP JUMP JUMPDEST PUSH2 0x5FF DUP2 PUSH2 0x304 JUMP JUMPDEST DUP3 MSTORE POP POP JUMP JUMPDEST PUSH0 PUSH1 0x20 DUP3 ADD SWAP1 POP PUSH2 0x618 PUSH0 DUP4 ADD DUP5 PUSH2 0x5F6 JUMP JUMPDEST SWAP3 SWAP2 POP POP JUMP JUMPDEST PUSH0 DUP3 DUP3 MSTORE PUSH1 0x20 DUP3 ADD SWAP1 POP SWAP3 SWAP2 POP POP JUMP JUMPDEST PUSH32 0xE695B0E7BB84E6B2A1E69C89E58583E7B4A00000000000000000000000000000 PUSH0 DUP3 ADD MSTORE POP JUMP JUMPDEST PUSH0 PUSH2 0x662 PUSH1 0x12 DUP4 PUSH2 0x61E JUMP JUMPDEST SWAP2 POP PUSH2 0x66D DUP3 PUSH2 0x62E JUMP JUMPDEST PUSH1 0x20 DUP3 ADD SWAP1 POP SWAP2 SWAP1 POP JUMP JUMPDEST PUSH0 PUSH1 0x20 DUP3 ADD SWAP1 POP DUP2 DUP2 SUB PUSH0 DUP4 ADD MSTORE PUSH2 0x68F DUP2 PUSH2 0x656 JUMP JUMPDEST SWAP1 POP SWAP2 SWAP1 POP JUMP JUMPDEST PUSH32 0x4E487B7100000000000000000000000000000000000000000000000000000000 PUSH0 MSTORE PUSH1 0x32 PUSH1 0x4 MSTORE PUSH1 0x24 PUSH0 REVERT JUMPDEST PUSH32 0xE695B0E7BB84E8B68AE7958C0000000000000000000000000000000000000000 PUSH0 DUP3 ADD MSTORE POP JUMP JUMPDEST PUSH0 PUSH2 0x6F7 PUSH1 0xC DUP4 PUSH2 0x61E JUMP JUMPDEST SWAP2 POP PUSH2 0x702 DUP3 PUSH2 0x6C3 JUMP JUMPDEST PUSH1 0x20 DUP3 ADD SWAP1 POP SWAP2 SWAP1 POP JUMP JUMPDEST PUSH0 PUSH1 0x20 DUP3 ADD SWAP1 POP DUP2 DUP2 SUB PUSH0 DUP4 ADD MSTORE PUSH2 0x724 DUP2 PUSH2 0x6EB JUMP JUMPDEST SWAP1 POP SWAP2 SWAP1 POP JUMP INVALID LOG2 PUSH5 0x6970667358 0x22 SLT KECCAK256 0xD2 PUSH3 0xED401F 0xAF SELFBALANCE CALLVALUE 0xAA DUP14 0xDA PUSH24 0x3FD9CCAFAEFF920F8D4FF433B8F50100A14692C64736F6C PUSH4 0x4300081A STOP CALLER "
		},
		"gasEstimates": {
			"creation": {
				"codeDepositCost": "377800",
				"executionCost": "416",
				"totalCost": "378216"
			},
			"external": {
				"data(uint256)": "infinite",
				"getData()": "infinite",
				"modifyMemoryData(uint256[])": "infinite",
				"modifyStorageData(uint256,uint256)": "infinite",
				"updateData(uint256[])": "infinite"
			}
		},
		"methodIdentifiers": {
			"data(uint256)": "f0ba8440",
			"getData()": "3bc5de30",
			"modifyMemoryData(uint256[])": "c104210b",
			"modifyStorageData(uint256,uint256)": "e6b80ce6",
			"updateData(uint256[])": "aa44269d"
		}
	},
	"abi": [
		{
			"inputs": [
				{
					"internalType": "uint256",
					"name": "",
					"type": "uint256"
				}
			],
			"name": "data",
			"outputs": [
				{
					"internalType": "uint256",
					"name": "",
					"type": "uint256"
				}
			],
			"stateMutability": "view",
			"type": "function"
		},
		{
			"inputs": [],
			"name": "getData",
			"outputs": [
				{
					"internalType": "uint256[]",
					"name": "",
					"type": "uint256[]"
				}
			],
			"stateMutability": "view",
			"type": "function"
		},
		{
			"inputs": [
				{
					"internalType": "uint256[]",
					"name": "memData",
					"type": "uint256[]"
				}
			],
			"name": "modifyMemoryData",
			"outputs": [
				{
					"internalType": "uint256[]",
					"name": "",
					"type": "uint256[]"
				}
			],
			"stateMutability": "pure",
			"type": "function"
		},
		{
			"inputs": [
				{
					"internalType": "uint256",
					"name": "index",
					"type": "uint256"
				},
				{
					"internalType": "uint256",
					"name": "value",
					"type": "uint256"
				}
			],
			"name": "modifyStorageData",
			"outputs": [],
			"stateMutability": "nonpayable",
			"type": "function"
		},
		{
			"inputs": [
				{
					"internalType": "uint256[]",
					"name": "newData",
					"type": "uint256[]"
				}
			],
			"name": "updateData",
			"outputs": [],
			"stateMutability": "nonpayable",
			"type": "function"
		}
	]
}