{
	"homework/02/合约类型/CroudFunding.sol": {
		"Crowdfunding": {
			"abi": [
				{
					"inputs": [],
					"stateMutability": "nonpayable",
					"type": "constructor"
				},
				{
					"anonymous": false,
					"inputs": [
						{
							"indexed": true,
							"internalType": "address",
							"name": "donor",
							"type": "address"
						},
						{
							"indexed": false,
							"internalType": "uint256",
							"name": "amount",
							"type": "uint256"
						}
					],
					"name": "DonationReceived",
					"type": "event"
				},
				{
					"anonymous": false,
					"inputs": [
						{
							"indexed": true,
							"internalType": "address",
							"name": "owner",
							"type": "address"
						},
						{
							"indexed": false,
							"internalType": "uint256",
							"name": "amount",
							"type": "uint256"
						}
					],
					"name": "FundsWithdrawn",
					"type": "event"
				},
				{
					"inputs": [
						{
							"internalType": "address",
							"name": "",
							"type": "address"
						}
					],
					"name": "contributions",
					"outputs": [
						{
							"internalType": "uint256",
							"name": "",
							"type": "uint256"
						}
					],
					"stateMutability": "view",
					"type": "function"
				},
				{
					"inputs": [],
					"name": "donate",
					"outputs": [],
					"stateMutability": "payable",
					"type": "function"
				},
				{
					"inputs": [],
					"name": "getContractBalance",
					"outputs": [
						{
							"internalType": "uint256",
							"name": "",
							"type": "uint256"
						}
					],
					"stateMutability": "view",
					"type": "function"
				},
				{
					"inputs": [],
					"name": "owner",
					"outputs": [
						{
							"internalType": "address",
							"name": "",
							"type": "address"
						}
					],
					"stateMutability": "view",
					"type": "function"
				},
				{
					"inputs": [
						{
							"internalType": "uint256",
							"name": "_amount",
							"type": "uint256"
						}
					],
					"name": "withdraw",
					"outputs": [],
					"stateMutability": "nonpayable",
					"type": "function"
				}
			],
			"devdoc": {
				"kind": "dev",
				"methods": {},
				"version": 1
			},
			"evm": {
				"assembly": "    /* \"homework/02/\\xe5\\x90\\x88\\xe7\\xba\\xa6\\xe7\\xb1\\xbb\\xe5\\x9e\\x8b/CroudFunding.sol\":142:1646  contract Crowdfunding {... */\n  mstore(0x40, 0x80)\n    /* \"homework/02/\\xe5\\x90\\x88\\xe7\\xba\\xa6\\xe7\\xb1\\xbb\\xe5\\x9e\\x8b/CroudFunding.sol\":572:623  constructor() {... */\n  callvalue\n  dup1\n  iszero\n  tag_1\n  jumpi\n  0x00\n  dup1\n  revert\ntag_1:\n  pop\n    /* \"homework/02/\\xe5\\x90\\x88\\xe7\\xba\\xa6\\xe7\\xb1\\xbb\\xe5\\x9e\\x8b/CroudFunding.sol\":605:615  msg.sender */\n  caller\n    /* \"homework/02/\\xe5\\x90\\x88\\xe7\\xba\\xa6\\xe7\\xb1\\xbb\\xe5\\x9e\\x8b/CroudFunding.sol\":597:602  owner */\n  0x00\n  dup1\n    /* \"homework/02/\\xe5\\x90\\x88\\xe7\\xba\\xa6\\xe7\\xb1\\xbb\\xe5\\x9e\\x8b/CroudFunding.sol\":597:615  owner = msg.sender */\n  0x0100\n  exp\n  dup2\n  sload\n  dup2\n  0xffffffffffffffffffffffffffffffffffffffff\n  mul\n  not\n  and\n  swap1\n  dup4\n  0xffffffffffffffffffffffffffffffffffffffff\n  and\n  mul\n  or\n  swap1\n  sstore\n  pop\n    /* \"homework/02/\\xe5\\x90\\x88\\xe7\\xba\\xa6\\xe7\\xb1\\xbb\\xe5\\x9e\\x8b/CroudFunding.sol\":142:1646  contract Crowdfunding {... */\n  dataSize(sub_0)\n  dup1\n  dataOffset(sub_0)\n  0x00\n  codecopy\n  0x00\n  return\nstop\n\nsub_0: assembly {\n        /* \"homework/02/\\xe5\\x90\\x88\\xe7\\xba\\xa6\\xe7\\xb1\\xbb\\xe5\\x9e\\x8b/CroudFunding.sol\":142:1646  contract Crowdfunding {... */\n      mstore(0x40, 0x80)\n      jumpi(tag_1, lt(calldatasize, 0x04))\n      shr(0xe0, calldataload(0x00))\n      dup1\n      0x2e1a7d4d\n      eq\n      tag_2\n      jumpi\n      dup1\n      0x42e94c90\n      eq\n      tag_3\n      jumpi\n      dup1\n      0x6f9fb98a\n      eq\n      tag_4\n      jumpi\n      dup1\n      0x8da5cb5b\n      eq\n      tag_5\n      jumpi\n      dup1\n      0xed88c68e\n      eq\n      tag_6\n      jumpi\n    tag_1:\n      0x00\n      dup1\n      revert\n        /* \"homework/02/\\xe5\\x90\\x88\\xe7\\xba\\xa6\\xe7\\xb1\\xbb\\xe5\\x9e\\x8b/CroudFunding.sol\":1059:1295  function withdraw(uint256 _amount) external onlyOwner {... */\n    tag_2:\n      callvalue\n      dup1\n      iszero\n      tag_7\n      jumpi\n      0x00\n      dup1\n      revert\n    tag_7:\n      pop\n      tag_8\n      0x04\n      dup1\n      calldatasize\n      sub\n      dup2\n      add\n      swap1\n      tag_9\n      swap2\n      swap1\n      tag_10\n      jump\t// in\n    tag_9:\n      tag_11\n      jump\t// in\n    tag_8:\n      stop\n        /* \"homework/02/\\xe5\\x90\\x88\\xe7\\xba\\xa6\\xe7\\xb1\\xbb\\xe5\\x9e\\x8b/CroudFunding.sol\":245:293  mapping(address => uint256) public contributions */\n    tag_3:\n      callvalue\n      dup1\n      iszero\n      tag_12\n      jumpi\n      0x00\n      dup1\n      revert\n    tag_12:\n      pop\n      tag_13\n      0x04\n      dup1\n      calldatasize\n      sub\n      dup2\n      add\n      swap1\n      tag_14\n      swap2\n      swap1\n      tag_15\n      jump\t// in\n    tag_14:\n      tag_16\n      jump\t// in\n    tag_13:\n      mload(0x40)\n      tag_17\n      swap2\n      swap1\n      tag_18\n      jump\t// in\n    tag_17:\n      mload(0x40)\n      dup1\n      swap2\n      sub\n      swap1\n      return\n        /* \"homework/02/\\xe5\\x90\\x88\\xe7\\xba\\xa6\\xe7\\xb1\\xbb\\xe5\\x9e\\x8b/CroudFunding.sol\":1336:1445  function getContractBalance() external view returns (uint256) {... */\n    tag_4:\n      callvalue\n      dup1\n      iszero\n      tag_19\n      jumpi\n      0x00\n      dup1\n      revert\n    tag_19:\n      pop\n      tag_20\n      tag_21\n      jump\t// in\n    tag_20:\n      mload(0x40)\n      tag_22\n      swap2\n      swap1\n      tag_18\n      jump\t// in\n    tag_22:\n      mload(0x40)\n      dup1\n      swap2\n      sub\n      swap1\n      return\n        /* \"homework/02/\\xe5\\x90\\x88\\xe7\\xba\\xa6\\xe7\\xb1\\xbb\\xe5\\x9e\\x8b/CroudFunding.sol\":195:215  address public owner */\n    tag_5:\n      callvalue\n      dup1\n      iszero\n      tag_23\n      jumpi\n      0x00\n      dup1\n      revert\n    tag_23:\n      pop\n      tag_24\n      tag_25\n      jump\t// in\n    tag_24:\n      mload(0x40)\n      tag_26\n      swap2\n      swap1\n      tag_27\n      jump\t// in\n    tag_26:\n      mload(0x40)\n      dup1\n      swap2\n      sub\n      swap1\n      return\n        /* \"homework/02/\\xe5\\x90\\x88\\xe7\\xba\\xa6\\xe7\\xb1\\xbb\\xe5\\x9e\\x8b/CroudFunding.sol\":701:991  function donate() external payable {... */\n    tag_6:\n      tag_28\n      tag_29\n      jump\t// in\n    tag_28:\n      stop\n        /* \"homework/02/\\xe5\\x90\\x88\\xe7\\xba\\xa6\\xe7\\xb1\\xbb\\xe5\\x9e\\x8b/CroudFunding.sol\":1059:1295  function withdraw(uint256 _amount) external onlyOwner {... */\n    tag_11:\n        /* \"homework/02/\\xe5\\x90\\x88\\xe7\\xba\\xa6\\xe7\\xb1\\xbb\\xe5\\x9e\\x8b/CroudFunding.sol\":1567:1572  owner */\n      0x00\n      dup1\n      sload\n      swap1\n      0x0100\n      exp\n      swap1\n      div\n      0xffffffffffffffffffffffffffffffffffffffff\n      and\n        /* \"homework/02/\\xe5\\x90\\x88\\xe7\\xba\\xa6\\xe7\\xb1\\xbb\\xe5\\x9e\\x8b/CroudFunding.sol\":1553:1572  msg.sender == owner */\n      0xffffffffffffffffffffffffffffffffffffffff\n      and\n        /* \"homework/02/\\xe5\\x90\\x88\\xe7\\xba\\xa6\\xe7\\xb1\\xbb\\xe5\\x9e\\x8b/CroudFunding.sol\":1553:1563  msg.sender */\n      caller\n        /* \"homework/02/\\xe5\\x90\\x88\\xe7\\xba\\xa6\\xe7\\xb1\\xbb\\xe5\\x9e\\x8b/CroudFunding.sol\":1553:1572  msg.sender == owner */\n      0xffffffffffffffffffffffffffffffffffffffff\n      and\n      eq\n        /* \"homework/02/\\xe5\\x90\\x88\\xe7\\xba\\xa6\\xe7\\xb1\\xbb\\xe5\\x9e\\x8b/CroudFunding.sol\":1545:1623  require(msg.sender == owner, \"Only the contract owner can call this function\") */\n      tag_31\n      jumpi\n      mload(0x40)\n      0x08c379a000000000000000000000000000000000000000000000000000000000\n      dup2\n      mstore\n      0x04\n      add\n      tag_32\n      swap1\n      tag_33\n      jump\t// in\n    tag_32:\n      mload(0x40)\n      dup1\n      swap2\n      sub\n      swap1\n      revert\n    tag_31:\n        /* \"homework/02/\\xe5\\x90\\x88\\xe7\\xba\\xa6\\xe7\\xb1\\xbb\\xe5\\x9e\\x8b/CroudFunding.sol\":1157:1164  _amount */\n      dup1\n        /* \"homework/02/\\xe5\\x90\\x88\\xe7\\xba\\xa6\\xe7\\xb1\\xbb\\xe5\\x9e\\x8b/CroudFunding.sol\":1132:1153  address(this).balance */\n      selfbalance\n        /* \"homework/02/\\xe5\\x90\\x88\\xe7\\xba\\xa6\\xe7\\xb1\\xbb\\xe5\\x9e\\x8b/CroudFunding.sol\":1132:1164  address(this).balance >= _amount */\n      lt\n      iszero\n        /* \"homework/02/\\xe5\\x90\\x88\\xe7\\xba\\xa6\\xe7\\xb1\\xbb\\xe5\\x9e\\x8b/CroudFunding.sol\":1124:1198  require(address(this).balance >= _amount, \"Insufficient contract balance\") */\n      tag_35\n      jumpi\n      mload(0x40)\n      0x08c379a000000000000000000000000000000000000000000000000000000000\n      dup2\n      mstore\n      0x04\n      add\n      tag_36\n      swap1\n      tag_37\n      jump\t// in\n    tag_36:\n      mload(0x40)\n      dup1\n      swap2\n      sub\n      swap1\n      revert\n    tag_35:\n        /* \"homework/02/\\xe5\\x90\\x88\\xe7\\xba\\xa6\\xe7\\xb1\\xbb\\xe5\\x9e\\x8b/CroudFunding.sol\":1217:1222  owner */\n      0x00\n      dup1\n      sload\n      swap1\n      0x0100\n      exp\n      swap1\n      div\n      0xffffffffffffffffffffffffffffffffffffffff\n      and\n        /* \"homework/02/\\xe5\\x90\\x88\\xe7\\xba\\xa6\\xe7\\xb1\\xbb\\xe5\\x9e\\x8b/CroudFunding.sol\":1209:1232  payable(owner).transfer */\n      0xffffffffffffffffffffffffffffffffffffffff\n      and\n        /* \"homework/02/\\xe5\\x90\\x88\\xe7\\xba\\xa6\\xe7\\xb1\\xbb\\xe5\\x9e\\x8b/CroudFunding.sol\":1209:1241  payable(owner).transfer(_amount) */\n      0x08fc\n        /* \"homework/02/\\xe5\\x90\\x88\\xe7\\xba\\xa6\\xe7\\xb1\\xbb\\xe5\\x9e\\x8b/CroudFunding.sol\":1233:1240  _amount */\n      dup3\n        /* \"homework/02/\\xe5\\x90\\x88\\xe7\\xba\\xa6\\xe7\\xb1\\xbb\\xe5\\x9e\\x8b/CroudFunding.sol\":1209:1241  payable(owner).transfer(_amount) */\n      swap1\n      dup2\n      iszero\n      mul\n      swap1\n      mload(0x40)\n      0x00\n      mload(0x40)\n      dup1\n      dup4\n      sub\n      dup2\n      dup6\n      dup9\n      dup9\n      call\n      swap4\n      pop\n      pop\n      pop\n      pop\n      iszero\n      dup1\n      iszero\n      tag_39\n      jumpi\n      returndatasize\n      0x00\n      dup1\n      returndatacopy\n      revert(0x00, returndatasize)\n    tag_39:\n      pop\n        /* \"homework/02/\\xe5\\x90\\x88\\xe7\\xba\\xa6\\xe7\\xb1\\xbb\\xe5\\x9e\\x8b/CroudFunding.sol\":1272:1277  owner */\n      0x00\n      dup1\n      sload\n      swap1\n      0x0100\n      exp\n      swap1\n      div\n      0xffffffffffffffffffffffffffffffffffffffff\n      and\n        /* \"homework/02/\\xe5\\x90\\x88\\xe7\\xba\\xa6\\xe7\\xb1\\xbb\\xe5\\x9e\\x8b/CroudFunding.sol\":1257:1287  FundsWithdrawn(owner, _amount) */\n      0xffffffffffffffffffffffffffffffffffffffff\n      and\n      0xeaff4b37086828766ad3268786972c0cd24259d4c87a80f9d3963a3c3d999b0d\n        /* \"homework/02/\\xe5\\x90\\x88\\xe7\\xba\\xa6\\xe7\\xb1\\xbb\\xe5\\x9e\\x8b/CroudFunding.sol\":1279:1286  _amount */\n      dup3\n        /* \"homework/02/\\xe5\\x90\\x88\\xe7\\xba\\xa6\\xe7\\xb1\\xbb\\xe5\\x9e\\x8b/CroudFunding.sol\":1257:1287  FundsWithdrawn(owner, _amount) */\n      mload(0x40)\n      tag_40\n      swap2\n      swap1\n      tag_18\n      jump\t// in\n    tag_40:\n      mload(0x40)\n      dup1\n      swap2\n      sub\n      swap1\n      log2\n        /* \"homework/02/\\xe5\\x90\\x88\\xe7\\xba\\xa6\\xe7\\xb1\\xbb\\xe5\\x9e\\x8b/CroudFunding.sol\":1059:1295  function withdraw(uint256 _amount) external onlyOwner {... */\n      pop\n      jump\t// out\n        /* \"homework/02/\\xe5\\x90\\x88\\xe7\\xba\\xa6\\xe7\\xb1\\xbb\\xe5\\x9e\\x8b/CroudFunding.sol\":245:293  mapping(address => uint256) public contributions */\n    tag_16:\n      mstore(0x20, 0x01)\n      dup1\n      0x00\n      mstore\n      keccak256(0x00, 0x40)\n      0x00\n      swap2\n      pop\n      swap1\n      pop\n      sload\n      dup2\n      jump\t// out\n        /* \"homework/02/\\xe5\\x90\\x88\\xe7\\xba\\xa6\\xe7\\xb1\\xbb\\xe5\\x9e\\x8b/CroudFunding.sol\":1336:1445  function getContractBalance() external view returns (uint256) {... */\n    tag_21:\n        /* \"homework/02/\\xe5\\x90\\x88\\xe7\\xba\\xa6\\xe7\\xb1\\xbb\\xe5\\x9e\\x8b/CroudFunding.sol\":1389:1396  uint256 */\n      0x00\n        /* \"homework/02/\\xe5\\x90\\x88\\xe7\\xba\\xa6\\xe7\\xb1\\xbb\\xe5\\x9e\\x8b/CroudFunding.sol\":1416:1437  address(this).balance */\n      selfbalance\n        /* \"homework/02/\\xe5\\x90\\x88\\xe7\\xba\\xa6\\xe7\\xb1\\xbb\\xe5\\x9e\\x8b/CroudFunding.sol\":1409:1437  return address(this).balance */\n      swap1\n      pop\n        /* \"homework/02/\\xe5\\x90\\x88\\xe7\\xba\\xa6\\xe7\\xb1\\xbb\\xe5\\x9e\\x8b/CroudFunding.sol\":1336:1445  function getContractBalance() external view returns (uint256) {... */\n      swap1\n      jump\t// out\n        /* \"homework/02/\\xe5\\x90\\x88\\xe7\\xba\\xa6\\xe7\\xb1\\xbb\\xe5\\x9e\\x8b/CroudFunding.sol\":195:215  address public owner */\n    tag_25:\n      0x00\n      dup1\n      sload\n      swap1\n      0x0100\n      exp\n      swap1\n      div\n      0xffffffffffffffffffffffffffffffffffffffff\n      and\n      dup2\n      jump\t// out\n        /* \"homework/02/\\xe5\\x90\\x88\\xe7\\xba\\xa6\\xe7\\xb1\\xbb\\xe5\\x9e\\x8b/CroudFunding.sol\":701:991  function donate() external payable {... */\n    tag_29:\n        /* \"homework/02/\\xe5\\x90\\x88\\xe7\\xba\\xa6\\xe7\\xb1\\xbb\\xe5\\x9e\\x8b/CroudFunding.sol\":832:833  0 */\n      0x00\n        /* \"homework/02/\\xe5\\x90\\x88\\xe7\\xba\\xa6\\xe7\\xb1\\xbb\\xe5\\x9e\\x8b/CroudFunding.sol\":820:829  msg.value */\n      callvalue\n        /* \"homework/02/\\xe5\\x90\\x88\\xe7\\xba\\xa6\\xe7\\xb1\\xbb\\xe5\\x9e\\x8b/CroudFunding.sol\":820:833  msg.value > 0 */\n      gt\n        /* \"homework/02/\\xe5\\x90\\x88\\xe7\\xba\\xa6\\xe7\\xb1\\xbb\\xe5\\x9e\\x8b/CroudFunding.sol\":812:879  require(msg.value > 0, \"Donation amount must be greater than zero\") */\n      tag_43\n      jumpi\n      mload(0x40)\n      0x08c379a000000000000000000000000000000000000000000000000000000000\n      dup2\n      mstore\n      0x04\n      add\n      tag_44\n      swap1\n      tag_45\n      jump\t// in\n    tag_44:\n      mload(0x40)\n      dup1\n      swap2\n      sub\n      swap1\n      revert\n    tag_43:\n        /* \"homework/02/\\xe5\\x90\\x88\\xe7\\xba\\xa6\\xe7\\xb1\\xbb\\xe5\\x9e\\x8b/CroudFunding.sol\":919:928  msg.value */\n      callvalue\n        /* \"homework/02/\\xe5\\x90\\x88\\xe7\\xba\\xa6\\xe7\\xb1\\xbb\\xe5\\x9e\\x8b/CroudFunding.sol\":890:903  contributions */\n      0x01\n        /* \"homework/02/\\xe5\\x90\\x88\\xe7\\xba\\xa6\\xe7\\xb1\\xbb\\xe5\\x9e\\x8b/CroudFunding.sol\":890:915  contributions[msg.sender] */\n      0x00\n        /* \"homework/02/\\xe5\\x90\\x88\\xe7\\xba\\xa6\\xe7\\xb1\\xbb\\xe5\\x9e\\x8b/CroudFunding.sol\":904:914  msg.sender */\n      caller\n        /* \"homework/02/\\xe5\\x90\\x88\\xe7\\xba\\xa6\\xe7\\xb1\\xbb\\xe5\\x9e\\x8b/CroudFunding.sol\":890:915  contributions[msg.sender] */\n      0xffffffffffffffffffffffffffffffffffffffff\n      and\n      0xffffffffffffffffffffffffffffffffffffffff\n      and\n      dup2\n      mstore\n      0x20\n      add\n      swap1\n      dup2\n      mstore\n      0x20\n      add\n      0x00\n      keccak256\n      0x00\n        /* \"homework/02/\\xe5\\x90\\x88\\xe7\\xba\\xa6\\xe7\\xb1\\xbb\\xe5\\x9e\\x8b/CroudFunding.sol\":890:928  contributions[msg.sender] += msg.value */\n      dup3\n      dup3\n      sload\n      tag_46\n      swap2\n      swap1\n      tag_47\n      jump\t// in\n    tag_46:\n      swap3\n      pop\n      pop\n      dup2\n      swap1\n      sstore\n      pop\n        /* \"homework/02/\\xe5\\x90\\x88\\xe7\\xba\\xa6\\xe7\\xb1\\xbb\\xe5\\x9e\\x8b/CroudFunding.sol\":961:971  msg.sender */\n      caller\n        /* \"homework/02/\\xe5\\x90\\x88\\xe7\\xba\\xa6\\xe7\\xb1\\xbb\\xe5\\x9e\\x8b/CroudFunding.sol\":944:983  DonationReceived(msg.sender, msg.value) */\n      0xffffffffffffffffffffffffffffffffffffffff\n      and\n      0x264f630d9efa0d07053a31163641d9fcc0adafc9d9e76f1c37c2ce3a558d2c52\n        /* \"homework/02/\\xe5\\x90\\x88\\xe7\\xba\\xa6\\xe7\\xb1\\xbb\\xe5\\x9e\\x8b/CroudFunding.sol\":973:982  msg.value */\n      callvalue\n        /* \"homework/02/\\xe5\\x90\\x88\\xe7\\xba\\xa6\\xe7\\xb1\\xbb\\xe5\\x9e\\x8b/CroudFunding.sol\":944:983  DonationReceived(msg.sender, msg.value) */\n      mload(0x40)\n      tag_48\n      swap2\n      swap1\n      tag_18\n      jump\t// in\n    tag_48:\n      mload(0x40)\n      dup1\n      swap2\n      sub\n      swap1\n      log2\n        /* \"homework/02/\\xe5\\x90\\x88\\xe7\\xba\\xa6\\xe7\\xb1\\xbb\\xe5\\x9e\\x8b/CroudFunding.sol\":701:991  function donate() external payable {... */\n      jump\t// out\n        /* \"#utility.yul\":88:205   */\n    tag_50:\n        /* \"#utility.yul\":197:198   */\n      0x00\n        /* \"#utility.yul\":194:195   */\n      dup1\n        /* \"#utility.yul\":187:199   */\n      revert\n        /* \"#utility.yul\":334:411   */\n    tag_52:\n        /* \"#utility.yul\":371:378   */\n      0x00\n        /* \"#utility.yul\":400:405   */\n      dup2\n        /* \"#utility.yul\":389:405   */\n      swap1\n      pop\n        /* \"#utility.yul\":334:411   */\n      swap2\n      swap1\n      pop\n      jump\t// out\n        /* \"#utility.yul\":417:539   */\n    tag_53:\n        /* \"#utility.yul\":490:514   */\n      tag_75\n        /* \"#utility.yul\":508:513   */\n      dup2\n        /* \"#utility.yul\":490:514   */\n      tag_52\n      jump\t// in\n    tag_75:\n        /* \"#utility.yul\":483:488   */\n      dup2\n        /* \"#utility.yul\":480:515   */\n      eq\n        /* \"#utility.yul\":470:533   */\n      tag_76\n      jumpi\n        /* \"#utility.yul\":529:530   */\n      0x00\n        /* \"#utility.yul\":526:527   */\n      dup1\n        /* \"#utility.yul\":519:531   */\n      revert\n        /* \"#utility.yul\":470:533   */\n    tag_76:\n        /* \"#utility.yul\":417:539   */\n      pop\n      jump\t// out\n        /* \"#utility.yul\":545:684   */\n    tag_54:\n        /* \"#utility.yul\":591:596   */\n      0x00\n        /* \"#utility.yul\":629:635   */\n      dup2\n        /* \"#utility.yul\":616:636   */\n      calldataload\n        /* \"#utility.yul\":607:636   */\n      swap1\n      pop\n        /* \"#utility.yul\":645:678   */\n      tag_78\n        /* \"#utility.yul\":672:677   */\n      dup2\n        /* \"#utility.yul\":645:678   */\n      tag_53\n      jump\t// in\n    tag_78:\n        /* \"#utility.yul\":545:684   */\n      swap3\n      swap2\n      pop\n      pop\n      jump\t// out\n        /* \"#utility.yul\":690:1019   */\n    tag_10:\n        /* \"#utility.yul\":749:755   */\n      0x00\n        /* \"#utility.yul\":798:800   */\n      0x20\n        /* \"#utility.yul\":786:795   */\n      dup3\n        /* \"#utility.yul\":777:784   */\n      dup5\n        /* \"#utility.yul\":773:796   */\n      sub\n        /* \"#utility.yul\":769:801   */\n      slt\n        /* \"#utility.yul\":766:885   */\n      iszero\n      tag_80\n      jumpi\n        /* \"#utility.yul\":804:883   */\n      tag_81\n      tag_50\n      jump\t// in\n    tag_81:\n        /* \"#utility.yul\":766:885   */\n    tag_80:\n        /* \"#utility.yul\":924:925   */\n      0x00\n        /* \"#utility.yul\":949:1002   */\n      tag_82\n        /* \"#utility.yul\":994:1001   */\n      dup5\n        /* \"#utility.yul\":985:991   */\n      dup3\n        /* \"#utility.yul\":974:983   */\n      dup6\n        /* \"#utility.yul\":970:992   */\n      add\n        /* \"#utility.yul\":949:1002   */\n      tag_54\n      jump\t// in\n    tag_82:\n        /* \"#utility.yul\":939:1002   */\n      swap2\n      pop\n        /* \"#utility.yul\":895:1012   */\n      pop\n        /* \"#utility.yul\":690:1019   */\n      swap3\n      swap2\n      pop\n      pop\n      jump\t// out\n        /* \"#utility.yul\":1025:1151   */\n    tag_55:\n        /* \"#utility.yul\":1062:1069   */\n      0x00\n        /* \"#utility.yul\":1102:1144   */\n      0xffffffffffffffffffffffffffffffffffffffff\n        /* \"#utility.yul\":1095:1100   */\n      dup3\n        /* \"#utility.yul\":1091:1145   */\n      and\n        /* \"#utility.yul\":1080:1145   */\n      swap1\n      pop\n        /* \"#utility.yul\":1025:1151   */\n      swap2\n      swap1\n      pop\n      jump\t// out\n        /* \"#utility.yul\":1157:1253   */\n    tag_56:\n        /* \"#utility.yul\":1194:1201   */\n      0x00\n        /* \"#utility.yul\":1223:1247   */\n      tag_85\n        /* \"#utility.yul\":1241:1246   */\n      dup3\n        /* \"#utility.yul\":1223:1247   */\n      tag_55\n      jump\t// in\n    tag_85:\n        /* \"#utility.yul\":1212:1247   */\n      swap1\n      pop\n        /* \"#utility.yul\":1157:1253   */\n      swap2\n      swap1\n      pop\n      jump\t// out\n        /* \"#utility.yul\":1259:1381   */\n    tag_57:\n        /* \"#utility.yul\":1332:1356   */\n      tag_87\n        /* \"#utility.yul\":1350:1355   */\n      dup2\n        /* \"#utility.yul\":1332:1356   */\n      tag_56\n      jump\t// in\n    tag_87:\n        /* \"#utility.yul\":1325:1330   */\n      dup2\n        /* \"#utility.yul\":1322:1357   */\n      eq\n        /* \"#utility.yul\":1312:1375   */\n      tag_88\n      jumpi\n        /* \"#utility.yul\":1371:1372   */\n      0x00\n        /* \"#utility.yul\":1368:1369   */\n      dup1\n        /* \"#utility.yul\":1361:1373   */\n      revert\n        /* \"#utility.yul\":1312:1375   */\n    tag_88:\n        /* \"#utility.yul\":1259:1381   */\n      pop\n      jump\t// out\n        /* \"#utility.yul\":1387:1526   */\n    tag_58:\n        /* \"#utility.yul\":1433:1438   */\n      0x00\n        /* \"#utility.yul\":1471:1477   */\n      dup2\n        /* \"#utility.yul\":1458:1478   */\n      calldataload\n        /* \"#utility.yul\":1449:1478   */\n      swap1\n      pop\n        /* \"#utility.yul\":1487:1520   */\n      tag_90\n        /* \"#utility.yul\":1514:1519   */\n      dup2\n        /* \"#utility.yul\":1487:1520   */\n      tag_57\n      jump\t// in\n    tag_90:\n        /* \"#utility.yul\":1387:1526   */\n      swap3\n      swap2\n      pop\n      pop\n      jump\t// out\n        /* \"#utility.yul\":1532:1861   */\n    tag_15:\n        /* \"#utility.yul\":1591:1597   */\n      0x00\n        /* \"#utility.yul\":1640:1642   */\n      0x20\n        /* \"#utility.yul\":1628:1637   */\n      dup3\n        /* \"#utility.yul\":1619:1626   */\n      dup5\n        /* \"#utility.yul\":1615:1638   */\n      sub\n        /* \"#utility.yul\":1611:1643   */\n      slt\n        /* \"#utility.yul\":1608:1727   */\n      iszero\n      tag_92\n      jumpi\n        /* \"#utility.yul\":1646:1725   */\n      tag_93\n      tag_50\n      jump\t// in\n    tag_93:\n        /* \"#utility.yul\":1608:1727   */\n    tag_92:\n        /* \"#utility.yul\":1766:1767   */\n      0x00\n        /* \"#utility.yul\":1791:1844   */\n      tag_94\n        /* \"#utility.yul\":1836:1843   */\n      dup5\n        /* \"#utility.yul\":1827:1833   */\n      dup3\n        /* \"#utility.yul\":1816:1825   */\n      dup6\n        /* \"#utility.yul\":1812:1834   */\n      add\n        /* \"#utility.yul\":1791:1844   */\n      tag_58\n      jump\t// in\n    tag_94:\n        /* \"#utility.yul\":1781:1844   */\n      swap2\n      pop\n        /* \"#utility.yul\":1737:1854   */\n      pop\n        /* \"#utility.yul\":1532:1861   */\n      swap3\n      swap2\n      pop\n      pop\n      jump\t// out\n        /* \"#utility.yul\":1867:1985   */\n    tag_59:\n        /* \"#utility.yul\":1954:1978   */\n      tag_96\n        /* \"#utility.yul\":1972:1977   */\n      dup2\n        /* \"#utility.yul\":1954:1978   */\n      tag_52\n      jump\t// in\n    tag_96:\n        /* \"#utility.yul\":1949:1952   */\n      dup3\n        /* \"#utility.yul\":1942:1979   */\n      mstore\n        /* \"#utility.yul\":1867:1985   */\n      pop\n      pop\n      jump\t// out\n        /* \"#utility.yul\":1991:2213   */\n    tag_18:\n        /* \"#utility.yul\":2084:2088   */\n      0x00\n        /* \"#utility.yul\":2122:2124   */\n      0x20\n        /* \"#utility.yul\":2111:2120   */\n      dup3\n        /* \"#utility.yul\":2107:2125   */\n      add\n        /* \"#utility.yul\":2099:2125   */\n      swap1\n      pop\n        /* \"#utility.yul\":2135:2206   */\n      tag_98\n        /* \"#utility.yul\":2203:2204   */\n      0x00\n        /* \"#utility.yul\":2192:2201   */\n      dup4\n        /* \"#utility.yul\":2188:2205   */\n      add\n        /* \"#utility.yul\":2179:2185   */\n      dup5\n        /* \"#utility.yul\":2135:2206   */\n      tag_59\n      jump\t// in\n    tag_98:\n        /* \"#utility.yul\":1991:2213   */\n      swap3\n      swap2\n      pop\n      pop\n      jump\t// out\n        /* \"#utility.yul\":2219:2337   */\n    tag_60:\n        /* \"#utility.yul\":2306:2330   */\n      tag_100\n        /* \"#utility.yul\":2324:2329   */\n      dup2\n        /* \"#utility.yul\":2306:2330   */\n      tag_56\n      jump\t// in\n    tag_100:\n        /* \"#utility.yul\":2301:2304   */\n      dup3\n        /* \"#utility.yul\":2294:2331   */\n      mstore\n        /* \"#utility.yul\":2219:2337   */\n      pop\n      pop\n      jump\t// out\n        /* \"#utility.yul\":2343:2565   */\n    tag_27:\n        /* \"#utility.yul\":2436:2440   */\n      0x00\n        /* \"#utility.yul\":2474:2476   */\n      0x20\n        /* \"#utility.yul\":2463:2472   */\n      dup3\n        /* \"#utility.yul\":2459:2477   */\n      add\n        /* \"#utility.yul\":2451:2477   */\n      swap1\n      pop\n        /* \"#utility.yul\":2487:2558   */\n      tag_102\n        /* \"#utility.yul\":2555:2556   */\n      0x00\n        /* \"#utility.yul\":2544:2553   */\n      dup4\n        /* \"#utility.yul\":2540:2557   */\n      add\n        /* \"#utility.yul\":2531:2537   */\n      dup5\n        /* \"#utility.yul\":2487:2558   */\n      tag_60\n      jump\t// in\n    tag_102:\n        /* \"#utility.yul\":2343:2565   */\n      swap3\n      swap2\n      pop\n      pop\n      jump\t// out\n        /* \"#utility.yul\":2571:2740   */\n    tag_61:\n        /* \"#utility.yul\":2655:2666   */\n      0x00\n        /* \"#utility.yul\":2689:2695   */\n      dup3\n        /* \"#utility.yul\":2684:2687   */\n      dup3\n        /* \"#utility.yul\":2677:2696   */\n      mstore\n        /* \"#utility.yul\":2729:2733   */\n      0x20\n        /* \"#utility.yul\":2724:2727   */\n      dup3\n        /* \"#utility.yul\":2720:2734   */\n      add\n        /* \"#utility.yul\":2705:2734   */\n      swap1\n      pop\n        /* \"#utility.yul\":2571:2740   */\n      swap3\n      swap2\n      pop\n      pop\n      jump\t// out\n        /* \"#utility.yul\":2746:2979   */\n    tag_62:\n        /* \"#utility.yul\":2886:2920   */\n      0x4f6e6c792074686520636f6e7472616374206f776e65722063616e2063616c6c\n        /* \"#utility.yul\":2882:2883   */\n      0x00\n        /* \"#utility.yul\":2874:2880   */\n      dup3\n        /* \"#utility.yul\":2870:2884   */\n      add\n        /* \"#utility.yul\":2863:2921   */\n      mstore\n        /* \"#utility.yul\":2955:2971   */\n      0x20746869732066756e6374696f6e000000000000000000000000000000000000\n        /* \"#utility.yul\":2950:2952   */\n      0x20\n        /* \"#utility.yul\":2942:2948   */\n      dup3\n        /* \"#utility.yul\":2938:2953   */\n      add\n        /* \"#utility.yul\":2931:2972   */\n      mstore\n        /* \"#utility.yul\":2746:2979   */\n      pop\n      jump\t// out\n        /* \"#utility.yul\":2985:3351   */\n    tag_63:\n        /* \"#utility.yul\":3127:3130   */\n      0x00\n        /* \"#utility.yul\":3148:3215   */\n      tag_106\n        /* \"#utility.yul\":3212:3214   */\n      0x2e\n        /* \"#utility.yul\":3207:3210   */\n      dup4\n        /* \"#utility.yul\":3148:3215   */\n      tag_61\n      jump\t// in\n    tag_106:\n        /* \"#utility.yul\":3141:3215   */\n      swap2\n      pop\n        /* \"#utility.yul\":3224:3317   */\n      tag_107\n        /* \"#utility.yul\":3313:3316   */\n      dup3\n        /* \"#utility.yul\":3224:3317   */\n      tag_62\n      jump\t// in\n    tag_107:\n        /* \"#utility.yul\":3342:3344   */\n      0x40\n        /* \"#utility.yul\":3337:3340   */\n      dup3\n        /* \"#utility.yul\":3333:3345   */\n      add\n        /* \"#utility.yul\":3326:3345   */\n      swap1\n      pop\n        /* \"#utility.yul\":2985:3351   */\n      swap2\n      swap1\n      pop\n      jump\t// out\n        /* \"#utility.yul\":3357:3776   */\n    tag_33:\n        /* \"#utility.yul\":3523:3527   */\n      0x00\n        /* \"#utility.yul\":3561:3563   */\n      0x20\n        /* \"#utility.yul\":3550:3559   */\n      dup3\n        /* \"#utility.yul\":3546:3564   */\n      add\n        /* \"#utility.yul\":3538:3564   */\n      swap1\n      pop\n        /* \"#utility.yul\":3610:3619   */\n      dup2\n        /* \"#utility.yul\":3604:3608   */\n      dup2\n        /* \"#utility.yul\":3600:3620   */\n      sub\n        /* \"#utility.yul\":3596:3597   */\n      0x00\n        /* \"#utility.yul\":3585:3594   */\n      dup4\n        /* \"#utility.yul\":3581:3598   */\n      add\n        /* \"#utility.yul\":3574:3621   */\n      mstore\n        /* \"#utility.yul\":3638:3769   */\n      tag_109\n        /* \"#utility.yul\":3764:3768   */\n      dup2\n        /* \"#utility.yul\":3638:3769   */\n      tag_63\n      jump\t// in\n    tag_109:\n        /* \"#utility.yul\":3630:3769   */\n      swap1\n      pop\n        /* \"#utility.yul\":3357:3776   */\n      swap2\n      swap1\n      pop\n      jump\t// out\n        /* \"#utility.yul\":3782:3961   */\n    tag_64:\n        /* \"#utility.yul\":3922:3953   */\n      0x496e73756666696369656e7420636f6e74726163742062616c616e6365000000\n        /* \"#utility.yul\":3918:3919   */\n      0x00\n        /* \"#utility.yul\":3910:3916   */\n      dup3\n        /* \"#utility.yul\":3906:3920   */\n      add\n        /* \"#utility.yul\":3899:3954   */\n      mstore\n        /* \"#utility.yul\":3782:3961   */\n      pop\n      jump\t// out\n        /* \"#utility.yul\":3967:4333   */\n    tag_65:\n        /* \"#utility.yul\":4109:4112   */\n      0x00\n        /* \"#utility.yul\":4130:4197   */\n      tag_112\n        /* \"#utility.yul\":4194:4196   */\n      0x1d\n        /* \"#utility.yul\":4189:4192   */\n      dup4\n        /* \"#utility.yul\":4130:4197   */\n      tag_61\n      jump\t// in\n    tag_112:\n        /* \"#utility.yul\":4123:4197   */\n      swap2\n      pop\n        /* \"#utility.yul\":4206:4299   */\n      tag_113\n        /* \"#utility.yul\":4295:4298   */\n      dup3\n        /* \"#utility.yul\":4206:4299   */\n      tag_64\n      jump\t// in\n    tag_113:\n        /* \"#utility.yul\":4324:4326   */\n      0x20\n        /* \"#utility.yul\":4319:4322   */\n      dup3\n        /* \"#utility.yul\":4315:4327   */\n      add\n        /* \"#utility.yul\":4308:4327   */\n      swap1\n      pop\n        /* \"#utility.yul\":3967:4333   */\n      swap2\n      swap1\n      pop\n      jump\t// out\n        /* \"#utility.yul\":4339:4758   */\n    tag_37:\n        /* \"#utility.yul\":4505:4509   */\n      0x00\n        /* \"#utility.yul\":4543:4545   */\n      0x20\n        /* \"#utility.yul\":4532:4541   */\n      dup3\n        /* \"#utility.yul\":4528:4546   */\n      add\n        /* \"#utility.yul\":4520:4546   */\n      swap1\n      pop\n        /* \"#utility.yul\":4592:4601   */\n      dup2\n        /* \"#utility.yul\":4586:4590   */\n      dup2\n        /* \"#utility.yul\":4582:4602   */\n      sub\n        /* \"#utility.yul\":4578:4579   */\n      0x00\n        /* \"#utility.yul\":4567:4576   */\n      dup4\n        /* \"#utility.yul\":4563:4580   */\n      add\n        /* \"#utility.yul\":4556:4603   */\n      mstore\n        /* \"#utility.yul\":4620:4751   */\n      tag_115\n        /* \"#utility.yul\":4746:4750   */\n      dup2\n        /* \"#utility.yul\":4620:4751   */\n      tag_65\n      jump\t// in\n    tag_115:\n        /* \"#utility.yul\":4612:4751   */\n      swap1\n      pop\n        /* \"#utility.yul\":4339:4758   */\n      swap2\n      swap1\n      pop\n      jump\t// out\n        /* \"#utility.yul\":4764:4992   */\n    tag_66:\n        /* \"#utility.yul\":4904:4938   */\n      0x446f6e6174696f6e20616d6f756e74206d757374206265206772656174657220\n        /* \"#utility.yul\":4900:4901   */\n      0x00\n        /* \"#utility.yul\":4892:4898   */\n      dup3\n        /* \"#utility.yul\":4888:4902   */\n      add\n        /* \"#utility.yul\":4881:4939   */\n      mstore\n        /* \"#utility.yul\":4973:4984   */\n      0x7468616e207a65726f0000000000000000000000000000000000000000000000\n        /* \"#utility.yul\":4968:4970   */\n      0x20\n        /* \"#utility.yul\":4960:4966   */\n      dup3\n        /* \"#utility.yul\":4956:4971   */\n      add\n        /* \"#utility.yul\":4949:4985   */\n      mstore\n        /* \"#utility.yul\":4764:4992   */\n      pop\n      jump\t// out\n        /* \"#utility.yul\":4998:5364   */\n    tag_67:\n        /* \"#utility.yul\":5140:5143   */\n      0x00\n        /* \"#utility.yul\":5161:5228   */\n      tag_118\n        /* \"#utility.yul\":5225:5227   */\n      0x29\n        /* \"#utility.yul\":5220:5223   */\n      dup4\n        /* \"#utility.yul\":5161:5228   */\n      tag_61\n      jump\t// in\n    tag_118:\n        /* \"#utility.yul\":5154:5228   */\n      swap2\n      pop\n        /* \"#utility.yul\":5237:5330   */\n      tag_119\n        /* \"#utility.yul\":5326:5329   */\n      dup3\n        /* \"#utility.yul\":5237:5330   */\n      tag_66\n      jump\t// in\n    tag_119:\n        /* \"#utility.yul\":5355:5357   */\n      0x40\n        /* \"#utility.yul\":5350:5353   */\n      dup3\n        /* \"#utility.yul\":5346:5358   */\n      add\n        /* \"#utility.yul\":5339:5358   */\n      swap1\n      pop\n        /* \"#utility.yul\":4998:5364   */\n      swap2\n      swap1\n      pop\n      jump\t// out\n        /* \"#utility.yul\":5370:5789   */\n    tag_45:\n        /* \"#utility.yul\":5536:5540   */\n      0x00\n        /* \"#utility.yul\":5574:5576   */\n      0x20\n        /* \"#utility.yul\":5563:5572   */\n      dup3\n        /* \"#utility.yul\":5559:5577   */\n      add\n        /* \"#utility.yul\":5551:5577   */\n      swap1\n      pop\n        /* \"#utility.yul\":5623:5632   */\n      dup2\n        /* \"#utility.yul\":5617:5621   */\n      dup2\n        /* \"#utility.yul\":5613:5633   */\n      sub\n        /* \"#utility.yul\":5609:5610   */\n      0x00\n        /* \"#utility.yul\":5598:5607   */\n      dup4\n        /* \"#utility.yul\":5594:5611   */\n      add\n        /* \"#utility.yul\":5587:5634   */\n      mstore\n        /* \"#utility.yul\":5651:5782   */\n      tag_121\n        /* \"#utility.yul\":5777:5781   */\n      dup2\n        /* \"#utility.yul\":5651:5782   */\n      tag_67\n      jump\t// in\n    tag_121:\n        /* \"#utility.yul\":5643:5782   */\n      swap1\n      pop\n        /* \"#utility.yul\":5370:5789   */\n      swap2\n      swap1\n      pop\n      jump\t// out\n        /* \"#utility.yul\":5795:5975   */\n    tag_68:\n        /* \"#utility.yul\":5843:5920   */\n      0x4e487b7100000000000000000000000000000000000000000000000000000000\n        /* \"#utility.yul\":5840:5841   */\n      0x00\n        /* \"#utility.yul\":5833:5921   */\n      mstore\n        /* \"#utility.yul\":5940:5944   */\n      0x11\n        /* \"#utility.yul\":5937:5938   */\n      0x04\n        /* \"#utility.yul\":5930:5945   */\n      mstore\n        /* \"#utility.yul\":5964:5968   */\n      0x24\n        /* \"#utility.yul\":5961:5962   */\n      0x00\n        /* \"#utility.yul\":5954:5969   */\n      revert\n        /* \"#utility.yul\":5981:6172   */\n    tag_47:\n        /* \"#utility.yul\":6021:6024   */\n      0x00\n        /* \"#utility.yul\":6040:6060   */\n      tag_124\n        /* \"#utility.yul\":6058:6059   */\n      dup3\n        /* \"#utility.yul\":6040:6060   */\n      tag_52\n      jump\t// in\n    tag_124:\n        /* \"#utility.yul\":6035:6060   */\n      swap2\n      pop\n        /* \"#utility.yul\":6074:6094   */\n      tag_125\n        /* \"#utility.yul\":6092:6093   */\n      dup4\n        /* \"#utility.yul\":6074:6094   */\n      tag_52\n      jump\t// in\n    tag_125:\n        /* \"#utility.yul\":6069:6094   */\n      swap3\n      pop\n        /* \"#utility.yul\":6117:6118   */\n      dup3\n        /* \"#utility.yul\":6114:6115   */\n      dup3\n        /* \"#utility.yul\":6110:6119   */\n      add\n        /* \"#utility.yul\":6103:6119   */\n      swap1\n      pop\n        /* \"#utility.yul\":6138:6141   */\n      dup1\n        /* \"#utility.yul\":6135:6136   */\n      dup3\n        /* \"#utility.yul\":6132:6142   */\n      gt\n        /* \"#utility.yul\":6129:6165   */\n      iszero\n      tag_126\n      jumpi\n        /* \"#utility.yul\":6145:6163   */\n      tag_127\n      tag_68\n      jump\t// in\n    tag_127:\n        /* \"#utility.yul\":6129:6165   */\n    tag_126:\n        /* \"#utility.yul\":5981:6172   */\n      swap3\n      swap2\n      pop\n      pop\n      jump\t// out\n\n    auxdata: 0xa264697066735822122030d276a8f3646b9a43ff85f29774a5474aea4324ff02c2ecb5348336f02efa7464736f6c634300081a0033\n}\n",
				"bytecode": {
					"linkReferences": {},
					"object": "6080604052348015600e575f80fd5b50335f806101000a81548173ffffffffffffffffffffffffffffffffffffffff021916908373ffffffffffffffffffffffffffffffffffffffff1602179055506107378061005b5f395ff3fe608060405260043610610049575f3560e01c80632e1a7d4d1461004d57806342e94c90146100755780636f9fb98a146100b15780638da5cb5b146100db578063ed88c68e14610105575b5f80fd5b348015610058575f80fd5b50610073600480360381019061006e919061040d565b61010f565b005b348015610080575f80fd5b5061009b60048036038101906100969190610492565b6102b2565b6040516100a891906104cc565b60405180910390f35b3480156100bc575f80fd5b506100c56102c7565b6040516100d291906104cc565b60405180910390f35b3480156100e6575f80fd5b506100ef6102ce565b6040516100fc91906104f4565b60405180910390f35b61010d6102f1565b005b5f8054906101000a900473ffffffffffffffffffffffffffffffffffffffff1673ffffffffffffffffffffffffffffffffffffffff163373ffffffffffffffffffffffffffffffffffffffff161461019c576040517f08c379a00000000000000000000000000000000000000000000000000000000081526004016101939061058d565b60405180910390fd5b804710156101df576040517f08c379a00000000000000000000000000000000000000000000000000000000081526004016101d6906105f5565b60405180910390fd5b5f8054906101000a900473ffffffffffffffffffffffffffffffffffffffff1673ffffffffffffffffffffffffffffffffffffffff166108fc8290811502906040515f60405180830381858888f19350505050158015610241573d5f803e3d5ffd5b505f8054906101000a900473ffffffffffffffffffffffffffffffffffffffff1673ffffffffffffffffffffffffffffffffffffffff167feaff4b37086828766ad3268786972c0cd24259d4c87a80f9d3963a3c3d999b0d826040516102a791906104cc565b60405180910390a250565b6001602052805f5260405f205f915090505481565b5f47905090565b5f8054906101000a900473ffffffffffffffffffffffffffffffffffffffff1681565b5f3411610333576040517f08c379a000000000000000000000000000000000000000000000000000000000815260040161032a90610683565b60405180910390fd5b3460015f3373ffffffffffffffffffffffffffffffffffffffff1673ffffffffffffffffffffffffffffffffffffffff1681526020019081526020015f205f82825461037f91906106ce565b925050819055503373ffffffffffffffffffffffffffffffffffffffff167f264f630d9efa0d07053a31163641d9fcc0adafc9d9e76f1c37c2ce3a558d2c52346040516103cc91906104cc565b60405180910390a2565b5f80fd5b5f819050919050565b6103ec816103da565b81146103f6575f80fd5b50565b5f81359050610407816103e3565b92915050565b5f60208284031215610422576104216103d6565b5b5f61042f848285016103f9565b91505092915050565b5f73ffffffffffffffffffffffffffffffffffffffff82169050919050565b5f61046182610438565b9050919050565b61047181610457565b811461047b575f80fd5b50565b5f8135905061048c81610468565b92915050565b5f602082840312156104a7576104a66103d6565b5b5f6104b48482850161047e565b91505092915050565b6104c6816103da565b82525050565b5f6020820190506104df5f8301846104bd565b92915050565b6104ee81610457565b82525050565b5f6020820190506105075f8301846104e5565b92915050565b5f82825260208201905092915050565b7f4f6e6c792074686520636f6e7472616374206f776e65722063616e2063616c6c5f8201527f20746869732066756e6374696f6e000000000000000000000000000000000000602082015250565b5f610577602e8361050d565b91506105828261051d565b604082019050919050565b5f6020820190508181035f8301526105a48161056b565b9050919050565b7f496e73756666696369656e7420636f6e74726163742062616c616e63650000005f82015250565b5f6105df601d8361050d565b91506105ea826105ab565b602082019050919050565b5f6020820190508181035f83015261060c816105d3565b9050919050565b7f446f6e6174696f6e20616d6f756e74206d7573742062652067726561746572205f8201527f7468616e207a65726f0000000000000000000000000000000000000000000000602082015250565b5f61066d60298361050d565b915061067882610613565b604082019050919050565b5f6020820190508181035f83015261069a81610661565b9050919050565b7f4e487b71000000000000000000000000000000000000000000000000000000005f52601160045260245ffd5b5f6106d8826103da565b91506106e3836103da565b92508282019050808211156106fb576106fa6106a1565b5b9291505056fea264697066735822122030d276a8f3646b9a43ff85f29774a5474aea4324ff02c2ecb5348336f02efa7464736f6c634300081a0033",
					"opcodes": "PUSH1 0x80 PUSH1 0x40 MSTORE CALLVALUE DUP1 ISZERO PUSH1 0xE JUMPI PUSH0 DUP1 REVERT JUMPDEST POP CALLER PUSH0 DUP1 PUSH2 0x100 EXP DUP2 SLOAD DUP2 PUSH20 0xFFFFFFFFFFFFFFFFFFFFFFFFFFFFFFFFFFFFFFFF MUL NOT AND SWAP1 DUP4 PUSH20 0xFFFFFFFFFFFFFFFFFFFFFFFFFFFFFFFFFFFFFFFF AND MUL OR SWAP1 SSTORE POP PUSH2 0x737 DUP1 PUSH2 0x5B PUSH0 CODECOPY PUSH0 RETURN INVALID PUSH1 0x80 PUSH1 0x40 MSTORE PUSH1 0x4 CALLDATASIZE LT PUSH2 0x49 JUMPI PUSH0 CALLDATALOAD PUSH1 0xE0 SHR DUP1 PUSH4 0x2E1A7D4D EQ PUSH2 0x4D JUMPI DUP1 PUSH4 0x42E94C90 EQ PUSH2 0x75 JUMPI DUP1 PUSH4 0x6F9FB98A EQ PUSH2 0xB1 JUMPI DUP1 PUSH4 0x8DA5CB5B EQ PUSH2 0xDB JUMPI DUP1 PUSH4 0xED88C68E EQ PUSH2 0x105 JUMPI JUMPDEST PUSH0 DUP1 REVERT JUMPDEST CALLVALUE DUP1 ISZERO PUSH2 0x58 JUMPI PUSH0 DUP1 REVERT JUMPDEST POP PUSH2 0x73 PUSH1 0x4 DUP1 CALLDATASIZE SUB DUP2 ADD SWAP1 PUSH2 0x6E SWAP2 SWAP1 PUSH2 0x40D JUMP JUMPDEST PUSH2 0x10F JUMP JUMPDEST STOP JUMPDEST CALLVALUE DUP1 ISZERO PUSH2 0x80 JUMPI PUSH0 DUP1 REVERT JUMPDEST POP PUSH2 0x9B PUSH1 0x4 DUP1 CALLDATASIZE SUB DUP2 ADD SWAP1 PUSH2 0x96 SWAP2 SWAP1 PUSH2 0x492 JUMP JUMPDEST PUSH2 0x2B2 JUMP JUMPDEST PUSH1 0x40 MLOAD PUSH2 0xA8 SWAP2 SWAP1 PUSH2 0x4CC JUMP JUMPDEST PUSH1 0x40 MLOAD DUP1 SWAP2 SUB SWAP1 RETURN JUMPDEST CALLVALUE DUP1 ISZERO PUSH2 0xBC JUMPI PUSH0 DUP1 REVERT JUMPDEST POP PUSH2 0xC5 PUSH2 0x2C7 JUMP JUMPDEST PUSH1 0x40 MLOAD PUSH2 0xD2 SWAP2 SWAP1 PUSH2 0x4CC JUMP JUMPDEST PUSH1 0x40 MLOAD DUP1 SWAP2 SUB SWAP1 RETURN JUMPDEST CALLVALUE DUP1 ISZERO PUSH2 0xE6 JUMPI PUSH0 DUP1 REVERT JUMPDEST POP PUSH2 0xEF PUSH2 0x2CE JUMP JUMPDEST PUSH1 0x40 MLOAD PUSH2 0xFC SWAP2 SWAP1 PUSH2 0x4F4 JUMP JUMPDEST PUSH1 0x40 MLOAD DUP1 SWAP2 SUB SWAP1 RETURN JUMPDEST PUSH2 0x10D PUSH2 0x2F1 JUMP JUMPDEST STOP JUMPDEST PUSH0 DUP1 SLOAD SWAP1 PUSH2 0x100 EXP SWAP1 DIV PUSH20 0xFFFFFFFFFFFFFFFFFFFFFFFFFFFFFFFFFFFFFFFF AND PUSH20 0xFFFFFFFFFFFFFFFFFFFFFFFFFFFFFFFFFFFFFFFF AND CALLER PUSH20 0xFFFFFFFFFFFFFFFFFFFFFFFFFFFFFFFFFFFFFFFF AND EQ PUSH2 0x19C JUMPI PUSH1 0x40 MLOAD PUSH32 0x8C379A000000000000000000000000000000000000000000000000000000000 DUP2 MSTORE PUSH1 0x4 ADD PUSH2 0x193 SWAP1 PUSH2 0x58D JUMP JUMPDEST PUSH1 0x40 MLOAD DUP1 SWAP2 SUB SWAP1 REVERT JUMPDEST DUP1 SELFBALANCE LT ISZERO PUSH2 0x1DF JUMPI PUSH1 0x40 MLOAD PUSH32 0x8C379A000000000000000000000000000000000000000000000000000000000 DUP2 MSTORE PUSH1 0x4 ADD PUSH2 0x1D6 SWAP1 PUSH2 0x5F5 JUMP JUMPDEST PUSH1 0x40 MLOAD DUP1 SWAP2 SUB SWAP1 REVERT JUMPDEST PUSH0 DUP1 SLOAD SWAP1 PUSH2 0x100 EXP SWAP1 DIV PUSH20 0xFFFFFFFFFFFFFFFFFFFFFFFFFFFFFFFFFFFFFFFF AND PUSH20 0xFFFFFFFFFFFFFFFFFFFFFFFFFFFFFFFFFFFFFFFF AND PUSH2 0x8FC DUP3 SWAP1 DUP2 ISZERO MUL SWAP1 PUSH1 0x40 MLOAD PUSH0 PUSH1 0x40 MLOAD DUP1 DUP4 SUB DUP2 DUP6 DUP9 DUP9 CALL SWAP4 POP POP POP POP ISZERO DUP1 ISZERO PUSH2 0x241 JUMPI RETURNDATASIZE PUSH0 DUP1 RETURNDATACOPY RETURNDATASIZE PUSH0 REVERT JUMPDEST POP PUSH0 DUP1 SLOAD SWAP1 PUSH2 0x100 EXP SWAP1 DIV PUSH20 0xFFFFFFFFFFFFFFFFFFFFFFFFFFFFFFFFFFFFFFFF AND PUSH20 0xFFFFFFFFFFFFFFFFFFFFFFFFFFFFFFFFFFFFFFFF AND PUSH32 0xEAFF4B37086828766AD3268786972C0CD24259D4C87A80F9D3963A3C3D999B0D DUP3 PUSH1 0x40 MLOAD PUSH2 0x2A7 SWAP2 SWAP1 PUSH2 0x4CC JUMP JUMPDEST PUSH1 0x40 MLOAD DUP1 SWAP2 SUB SWAP1 LOG2 POP JUMP JUMPDEST PUSH1 0x1 PUSH1 0x20 MSTORE DUP1 PUSH0 MSTORE PUSH1 0x40 PUSH0 KECCAK256 PUSH0 SWAP2 POP SWAP1 POP SLOAD DUP2 JUMP JUMPDEST PUSH0 SELFBALANCE SWAP1 POP SWAP1 JUMP JUMPDEST PUSH0 DUP1 SLOAD SWAP1 PUSH2 0x100 EXP SWAP1 DIV PUSH20 0xFFFFFFFFFFFFFFFFFFFFFFFFFFFFFFFFFFFFFFFF AND DUP2 JUMP JUMPDEST PUSH0 CALLVALUE GT PUSH2 0x333 JUMPI PUSH1 0x40 MLOAD PUSH32 0x8C379A000000000000000000000000000000000000000000000000000000000 DUP2 MSTORE PUSH1 0x4 ADD PUSH2 0x32A SWAP1 PUSH2 0x683 JUMP JUMPDEST PUSH1 0x40 MLOAD DUP1 SWAP2 SUB SWAP1 REVERT JUMPDEST CALLVALUE PUSH1 0x1 PUSH0 CALLER PUSH20 0xFFFFFFFFFFFFFFFFFFFFFFFFFFFFFFFFFFFFFFFF AND PUSH20 0xFFFFFFFFFFFFFFFFFFFFFFFFFFFFFFFFFFFFFFFF AND DUP2 MSTORE PUSH1 0x20 ADD SWAP1 DUP2 MSTORE PUSH1 0x20 ADD PUSH0 KECCAK256 PUSH0 DUP3 DUP3 SLOAD PUSH2 0x37F SWAP2 SWAP1 PUSH2 0x6CE JUMP JUMPDEST SWAP3 POP POP DUP2 SWAP1 SSTORE POP CALLER PUSH20 0xFFFFFFFFFFFFFFFFFFFFFFFFFFFFFFFFFFFFFFFF AND PUSH32 0x264F630D9EFA0D07053A31163641D9FCC0ADAFC9D9E76F1C37C2CE3A558D2C52 CALLVALUE PUSH1 0x40 MLOAD PUSH2 0x3CC SWAP2 SWAP1 PUSH2 0x4CC JUMP JUMPDEST PUSH1 0x40 MLOAD DUP1 SWAP2 SUB SWAP1 LOG2 JUMP JUMPDEST PUSH0 DUP1 REVERT JUMPDEST PUSH0 DUP2 SWAP1 POP SWAP2 SWAP1 POP JUMP JUMPDEST PUSH2 0x3EC DUP2 PUSH2 0x3DA JUMP JUMPDEST DUP2 EQ PUSH2 0x3F6 JUMPI PUSH0 DUP1 REVERT JUMPDEST POP JUMP JUMPDEST PUSH0 DUP2 CALLDATALOAD SWAP1 POP PUSH2 0x407 DUP2 PUSH2 0x3E3 JUMP JUMPDEST SWAP3 SWAP2 POP POP JUMP JUMPDEST PUSH0 PUSH1 0x20 DUP3 DUP5 SUB SLT ISZERO PUSH2 0x422 JUMPI PUSH2 0x421 PUSH2 0x3D6 JUMP JUMPDEST JUMPDEST PUSH0 PUSH2 0x42F DUP5 DUP3 DUP6 ADD PUSH2 0x3F9 JUMP JUMPDEST SWAP2 POP POP SWAP3 SWAP2 POP POP JUMP JUMPDEST PUSH0 PUSH20 0xFFFFFFFFFFFFFFFFFFFFFFFFFFFFFFFFFFFFFFFF DUP3 AND SWAP1 POP SWAP2 SWAP1 POP JUMP JUMPDEST PUSH0 PUSH2 0x461 DUP3 PUSH2 0x438 JUMP JUMPDEST SWAP1 POP SWAP2 SWAP1 POP JUMP JUMPDEST PUSH2 0x471 DUP2 PUSH2 0x457 JUMP JUMPDEST DUP2 EQ PUSH2 0x47B JUMPI PUSH0 DUP1 REVERT JUMPDEST POP JUMP JUMPDEST PUSH0 DUP2 CALLDATALOAD SWAP1 POP PUSH2 0x48C DUP2 PUSH2 0x468 JUMP JUMPDEST SWAP3 SWAP2 POP POP JUMP JUMPDEST PUSH0 PUSH1 0x20 DUP3 DUP5 SUB SLT ISZERO PUSH2 0x4A7 JUMPI PUSH2 0x4A6 PUSH2 0x3D6 JUMP JUMPDEST JUMPDEST PUSH0 PUSH2 0x4B4 DUP5 DUP3 DUP6 ADD PUSH2 0x47E JUMP JUMPDEST SWAP2 POP POP SWAP3 SWAP2 POP POP JUMP JUMPDEST PUSH2 0x4C6 DUP2 PUSH2 0x3DA JUMP JUMPDEST DUP3 MSTORE POP POP JUMP JUMPDEST PUSH0 PUSH1 0x20 DUP3 ADD SWAP1 POP PUSH2 0x4DF PUSH0 DUP4 ADD DUP5 PUSH2 0x4BD JUMP JUMPDEST SWAP3 SWAP2 POP POP JUMP JUMPDEST PUSH2 0x4EE DUP2 PUSH2 0x457 JUMP JUMPDEST DUP3 MSTORE POP POP JUMP JUMPDEST PUSH0 PUSH1 0x20 DUP3 ADD SWAP1 POP PUSH2 0x507 PUSH0 DUP4 ADD DUP5 PUSH2 0x4E5 JUMP JUMPDEST SWAP3 SWAP2 POP POP JUMP JUMPDEST PUSH0 DUP3 DUP3 MSTORE PUSH1 0x20 DUP3 ADD SWAP1 POP SWAP3 SWAP2 POP POP JUMP JUMPDEST PUSH32 0x4F6E6C792074686520636F6E7472616374206F776E65722063616E2063616C6C PUSH0 DUP3 ADD MSTORE PUSH32 0x20746869732066756E6374696F6E000000000000000000000000000000000000 PUSH1 0x20 DUP3 ADD MSTORE POP JUMP JUMPDEST PUSH0 PUSH2 0x577 PUSH1 0x2E DUP4 PUSH2 0x50D JUMP JUMPDEST SWAP2 POP PUSH2 0x582 DUP3 PUSH2 0x51D JUMP JUMPDEST PUSH1 0x40 DUP3 ADD SWAP1 POP SWAP2 SWAP1 POP JUMP JUMPDEST PUSH0 PUSH1 0x20 DUP3 ADD SWAP1 POP DUP2 DUP2 SUB PUSH0 DUP4 ADD MSTORE PUSH2 0x5A4 DUP2 PUSH2 0x56B JUMP JUMPDEST SWAP1 POP SWAP2 SWAP1 POP JUMP JUMPDEST PUSH32 0x496E73756666696369656E7420636F6E74726163742062616C616E6365000000 PUSH0 DUP3 ADD MSTORE POP JUMP JUMPDEST PUSH0 PUSH2 0x5DF PUSH1 0x1D DUP4 PUSH2 0x50D JUMP JUMPDEST SWAP2 POP PUSH2 0x5EA DUP3 PUSH2 0x5AB JUMP JUMPDEST PUSH1 0x20 DUP3 ADD SWAP1 POP SWAP2 SWAP1 POP JUMP JUMPDEST PUSH0 PUSH1 0x20 DUP3 ADD SWAP1 POP DUP2 DUP2 SUB PUSH0 DUP4 ADD MSTORE PUSH2 0x60C DUP2 PUSH2 0x5D3 JUMP JUMPDEST SWAP1 POP SWAP2 SWAP1 POP JUMP JUMPDEST PUSH32 0x446F6E6174696F6E20616D6F756E74206D757374206265206772656174657220 PUSH0 DUP3 ADD MSTORE PUSH32 0x7468616E207A65726F0000000000000000000000000000000000000000000000 PUSH1 0x20 DUP3 ADD MSTORE POP JUMP JUMPDEST PUSH0 PUSH2 0x66D PUSH1 0x29 DUP4 PUSH2 0x50D JUMP JUMPDEST SWAP2 POP PUSH2 0x678 DUP3 PUSH2 0x613 JUMP JUMPDEST PUSH1 0x40 DUP3 ADD SWAP1 POP SWAP2 SWAP1 POP JUMP JUMPDEST PUSH0 PUSH1 0x20 DUP3 ADD SWAP1 POP DUP2 DUP2 SUB PUSH0 DUP4 ADD MSTORE PUSH2 0x69A DUP2 PUSH2 0x661 JUMP JUMPDEST SWAP1 POP SWAP2 SWAP1 POP JUMP JUMPDEST PUSH32 0x4E487B7100000000000000000000000000000000000000000000000000000000 PUSH0 MSTORE PUSH1 0x11 PUSH1 0x4 MSTORE PUSH1 0x24 PUSH0 REVERT JUMPDEST PUSH0 PUSH2 0x6D8 DUP3 PUSH2 0x3DA JUMP JUMPDEST SWAP2 POP PUSH2 0x6E3 DUP4 PUSH2 0x3DA JUMP JUMPDEST SWAP3 POP DUP3 DUP3 ADD SWAP1 POP DUP1 DUP3 GT ISZERO PUSH2 0x6FB JUMPI PUSH2 0x6FA PUSH2 0x6A1 JUMP JUMPDEST JUMPDEST SWAP3 SWAP2 POP POP JUMP INVALID LOG2 PUSH5 0x6970667358 0x22 SLT KECCAK256 ADDRESS 0xD2 PUSH23 0xA8F3646B9A43FF85F29774A5474AEA4324FF02C2ECB534 DUP4 CALLDATASIZE CREATE 0x2E STATICCALL PUSH21 0x64736F6C634300081A003300000000000000000000 "
				},
				"gasEstimates": {
					"creation": {
						"codeDepositCost": "369400",
						"executionCost": "24668",
						"totalCost": "394068"
					},
					"external": {
						"contributions(address)": "2802",
						"donate()": "infinite",
						"getContractBalance()": "356",
						"owner()": "2549",
						"withdraw(uint256)": "infinite"
					}
				},
				"methodIdentifiers": {
					"contributions(address)": "42e94c90",
					"donate()": "ed88c68e",
					"getContractBalance()": "6f9fb98a",
					"owner()": "8da5cb5b",
					"withdraw(uint256)": "2e1a7d4d"
				}
			},
			"storageLayout": {
				"storage": [
					{
						"astId": 3,
						"contract": "homework/02/合约类型/CroudFunding.sol:Crowdfunding",
						"label": "owner",
						"offset": 0,
						"slot": "0",
						"type": "t_address"
					},
					{
						"astId": 7,
						"contract": "homework/02/合约类型/CroudFunding.sol:Crowdfunding",
						"label": "contributions",
						"offset": 0,
						"slot": "1",
						"type": "t_mapping(t_address,t_uint256)"
					}
				],
				"types": {
					"t_address": {
						"encoding": "inplace",
						"label": "address",
						"numberOfBytes": "20"
					},
					"t_mapping(t_address,t_uint256)": {
						"encoding": "mapping",
						"key": "t_address",
						"label": "mapping(address => uint256)",
						"numberOfBytes": "32",
						"value": "t_uint256"
					},
					"t_uint256": {
						"encoding": "inplace",
						"label": "uint256",
						"numberOfBytes": "32"
					}
				}
			},
			"userdoc": {
				"kind": "user",
				"methods": {},
				"version": 1
			}
		}
	}
}