{
	"data": {
		"bytecode": {
			"linkReferences": {},
			"object": "6080604052348015600e575f80fd5b506102ff8061001c5f395ff3fe608060405234801561000f575f80fd5b5060043610610029575f3560e01c8063bca93aa91461002d575b5f80fd5b61004760048036038101906100429190610240565b610049565b005b5f30905061006d8173ffffffffffffffffffffffffffffffffffffffff16316100fb565b600a8273ffffffffffffffffffffffffffffffffffffffff16311080156100ac5750600a8173ffffffffffffffffffffffffffffffffffffffff163110155b156100f7578173ffffffffffffffffffffffffffffffffffffffff166108fc600a90811502906040515f60405180830381858888f193505050501580156100f5573d5f803e3d5ffd5b505b5050565b6101918160405160240161010f9190610283565b6040516020818303038152906040527ff82c50f1000000000000000000000000000000000000000000000000000000007bffffffffffffffffffffffffffffffffffffffffffffffffffffffff19166020820180517bffffffffffffffffffffffffffffffffffffffffffffffffffffffff8381831617835250505050610194565b50565b6101ab816101a36101ae6101cd565b63ffffffff16565b50565b5f6a636f6e736f6c652e6c6f6790505f80835160208501845afa505050565b6101d8819050919050565b6101e061029c565b565b5f80fd5b5f73ffffffffffffffffffffffffffffffffffffffff82169050919050565b5f61020f826101e6565b9050919050565b61021f81610205565b8114610229575f80fd5b50565b5f8135905061023a81610216565b92915050565b5f60208284031215610255576102546101e2565b5b5f6102628482850161022c565b91505092915050565b5f819050919050565b61027d8161026b565b82525050565b5f6020820190506102965f830184610274565b92915050565b7f4e487b71000000000000000000000000000000000000000000000000000000005f52605160045260245ffdfea26469706673582212204a49b9617f1f8ea8083b748e9e3005d25fa222e181af72e06bb48ad9acf832b464736f6c634300081a0033",
			"opcodes": "PUSH1 0x80 PUSH1 0x40 MSTORE CALLVALUE DUP1 ISZERO PUSH1 0xE JUMPI PUSH0 DUP1 REVERT JUMPDEST POP PUSH2 0x2FF DUP1 PUSH2 0x1C PUSH0 CODECOPY PUSH0 RETURN INVALID PUSH1 0x80 PUSH1 0x40 MSTORE CALLVALUE DUP1 ISZERO PUSH2 0xF JUMPI PUSH0 DUP1 REVERT JUMPDEST POP PUSH1 0x4 CALLDATASIZE LT PUSH2 0x29 JUMPI PUSH0 CALLDATALOAD PUSH1 0xE0 SHR DUP1 PUSH4 0xBCA93AA9 EQ PUSH2 0x2D JUMPI JUMPDEST PUSH0 DUP1 REVERT JUMPDEST PUSH2 0x47 PUSH1 0x4 DUP1 CALLDATASIZE SUB DUP2 ADD SWAP1 PUSH2 0x42 SWAP2 SWAP1 PUSH2 0x240 JUMP JUMPDEST PUSH2 0x49 JUMP JUMPDEST STOP JUMPDEST PUSH0 ADDRESS SWAP1 POP PUSH2 0x6D DUP2 PUSH20 0xFFFFFFFFFFFFFFFFFFFFFFFFFFFFFFFFFFFFFFFF AND BALANCE PUSH2 0xFB JUMP JUMPDEST PUSH1 0xA DUP3 PUSH20 0xFFFFFFFFFFFFFFFFFFFFFFFFFFFFFFFFFFFFFFFF AND BALANCE LT DUP1 ISZERO PUSH2 0xAC JUMPI POP PUSH1 0xA DUP2 PUSH20 0xFFFFFFFFFFFFFFFFFFFFFFFFFFFFFFFFFFFFFFFF AND BALANCE LT ISZERO JUMPDEST ISZERO PUSH2 0xF7 JUMPI DUP2 PUSH20 0xFFFFFFFFFFFFFFFFFFFFFFFFFFFFFFFFFFFFFFFF AND PUSH2 0x8FC PUSH1 0xA SWAP1 DUP2 ISZERO MUL SWAP1 PUSH1 0x40 MLOAD PUSH0 PUSH1 0x40 MLOAD DUP1 DUP4 SUB DUP2 DUP6 DUP9 DUP9 CALL SWAP4 POP POP POP POP ISZERO DUP1 ISZERO PUSH2 0xF5 JUMPI RETURNDATASIZE PUSH0 DUP1 RETURNDATACOPY RETURNDATASIZE PUSH0 REVERT JUMPDEST POP JUMPDEST POP POP JUMP JUMPDEST PUSH2 0x191 DUP2 PUSH1 0x40 MLOAD PUSH1 0x24 ADD PUSH2 0x10F SWAP2 SWAP1 PUSH2 0x283 JUMP JUMPDEST PUSH1 0x40 MLOAD PUSH1 0x20 DUP2 DUP4 SUB SUB DUP2 MSTORE SWAP1 PUSH1 0x40 MSTORE PUSH32 0xF82C50F100000000000000000000000000000000000000000000000000000000 PUSH28 0xFFFFFFFFFFFFFFFFFFFFFFFFFFFFFFFFFFFFFFFFFFFFFFFFFFFFFFFF NOT AND PUSH1 0x20 DUP3 ADD DUP1 MLOAD PUSH28 0xFFFFFFFFFFFFFFFFFFFFFFFFFFFFFFFFFFFFFFFFFFFFFFFFFFFFFFFF DUP4 DUP2 DUP4 AND OR DUP4 MSTORE POP POP POP POP PUSH2 0x194 JUMP JUMPDEST POP JUMP JUMPDEST PUSH2 0x1AB DUP2 PUSH2 0x1A3 PUSH2 0x1AE PUSH2 0x1CD JUMP JUMPDEST PUSH4 0xFFFFFFFF AND JUMP JUMPDEST POP JUMP JUMPDEST PUSH0 PUSH11 0x636F6E736F6C652E6C6F67 SWAP1 POP PUSH0 DUP1 DUP4 MLOAD PUSH1 0x20 DUP6 ADD DUP5 GAS STATICCALL POP POP POP JUMP JUMPDEST PUSH2 0x1D8 DUP2 SWAP1 POP SWAP2 SWAP1 POP JUMP JUMPDEST PUSH2 0x1E0 PUSH2 0x29C JUMP JUMPDEST JUMP JUMPDEST PUSH0 DUP1 REVERT JUMPDEST PUSH0 PUSH20 0xFFFFFFFFFFFFFFFFFFFFFFFFFFFFFFFFFFFFFFFF DUP3 AND SWAP1 POP SWAP2 SWAP1 POP JUMP JUMPDEST PUSH0 PUSH2 0x20F DUP3 PUSH2 0x1E6 JUMP JUMPDEST SWAP1 POP SWAP2 SWAP1 POP JUMP JUMPDEST PUSH2 0x21F DUP2 PUSH2 0x205 JUMP JUMPDEST DUP2 EQ PUSH2 0x229 JUMPI PUSH0 DUP1 REVERT JUMPDEST POP JUMP JUMPDEST PUSH0 DUP2 CALLDATALOAD SWAP1 POP PUSH2 0x23A DUP2 PUSH2 0x216 JUMP JUMPDEST SWAP3 SWAP2 POP POP JUMP JUMPDEST PUSH0 PUSH1 0x20 DUP3 DUP5 SUB SLT ISZERO PUSH2 0x255 JUMPI PUSH2 0x254 PUSH2 0x1E2 JUMP JUMPDEST JUMPDEST PUSH0 PUSH2 0x262 DUP5 DUP3 DUP6 ADD PUSH2 0x22C JUMP JUMPDEST SWAP2 POP POP SWAP3 SWAP2 POP POP JUMP JUMPDEST PUSH0 DUP2 SWAP1 POP SWAP2 SWAP1 POP JUMP JUMPDEST PUSH2 0x27D DUP2 PUSH2 0x26B JUMP JUMPDEST DUP3 MSTORE POP POP JUMP JUMPDEST PUSH0 PUSH1 0x20 DUP3 ADD SWAP1 POP PUSH2 0x296 PUSH0 DUP4 ADD DUP5 PUSH2 0x274 JUMP JUMPDEST SWAP3 SWAP2 POP POP JUMP JUMPDEST PUSH32 0x4E487B7100000000000000000000000000000000000000000000000000000000 PUSH0 MSTORE PUSH1 0x51 PUSH1 0x4 MSTORE PUSH1 0x24 PUSH0 REVERT INVALID LOG2 PUSH5 0x6970667358 0x22 SLT KECCAK256 BLOBBASEFEE BLOBHASH 0xB9 PUSH2 0x7F1F DUP15 0xA8 ADDMOD EXTCODESIZE PUSH21 0x8E9E3005D25FA222E181AF72E06BB48AD9ACF832B4 PUSH5 0x736F6C6343 STOP ADDMOD BYTE STOP CALLER "
		},
		"gasEstimates": {
			"creation": {
				"codeDepositCost": "153400",
				"executionCost": "194",
				"totalCost": "153594"
			},
			"external": {
				"testTrasfer(address)": "infinite"
			}
		},
		"methodIdentifiers": {
			"testTrasfer(address)": "bca93aa9"
		}
	},
	"abi": [
		{
			"inputs": [
				{
					"internalType": "address payable",
					"name": "x",
					"type": "address"
				}
			],
			"name": "testTrasfer",
			"outputs": [],
			"stateMutability": "nonpayable",
			"type": "function"
		}
	]
}