{
	"data": {
		"bytecode": {
			"linkReferences": {},
			"object": "6080604052348015600e575f80fd5b50610a718061001c5f395ff3fe608060405234801561000f575f80fd5b5060043610610055575f3560e01c80632d561787146100595780637acc0b20146100755780637bf12b1c146100a8578063b9db15b4146100c4578063e0f6ef87146100f6575b5f80fd5b610073600480360381019061006e91906104d9565b610114565b005b61008f600480360381019061008a9190610559565b61015a565b60405161009f94939291906105f3565b60405180910390f35b6100c260048036038101906100bd919061063d565b61020b565b005b6100de60048036038101906100d99190610559565b610296565b6040516100ed939291906106a9565b60405180910390f35b6100fe610353565b60405161010b91906106e5565b60405180910390f35b5f805f8681526020019081526020015f20905084815f01819055508381600101908161014091906108f8565b508281600201819055508181600301819055505050505050565b5f602052805f5260405f205f91509050805f01549080600101805461017e9061072b565b80601f01602080910402602001604051908101604052809291908181526020018280546101aa9061072b565b80156101f55780601f106101cc576101008083540402835291602001916101f5565b820191905f5260205f20905b8154815290600101906020018083116101d857829003601f168201915b5050505050908060020154908060030154905084565b60015f81548092919061021d906109f4565b9190505560018190555060405180608001604052806001548152602001848152602001838152602001828152505f8060015481526020019081526020015f205f820151815f0155602082015181600101908161027991906108f8565b506040820151816002015560608201518160030155905050505050565b60605f805f805f8681526020019081526020015f20905080600101816002015482600301548280546102c79061072b565b80601f01602080910402602001604051908101604052809291908181526020018280546102f39061072b565b801561033e5780601f106103155761010080835404028352916020019161033e565b820191905f5260205f20905b81548152906001019060200180831161032157829003601f168201915b50505050509250935093509350509193909250565b60015481565b5f604051905090565b5f80fd5b5f80fd5b5f819050919050565b61037c8161036a565b8114610386575f80fd5b50565b5f8135905061039781610373565b92915050565b5f80fd5b5f80fd5b5f601f19601f8301169050919050565b7f4e487b71000000000000000000000000000000000000000000000000000000005f52604160045260245ffd5b6103eb826103a5565b810181811067ffffffffffffffff8211171561040a576104096103b5565b5b80604052505050565b5f61041c610359565b905061042882826103e2565b919050565b5f67ffffffffffffffff821115610447576104466103b5565b5b610450826103a5565b9050602081019050919050565b828183375f83830152505050565b5f61047d6104788461042d565b610413565b905082815260208101848484011115610499576104986103a1565b5b6104a484828561045d565b509392505050565b5f82601f8301126104c0576104bf61039d565b5b81356104d084826020860161046b565b91505092915050565b5f805f80608085870312156104f1576104f0610362565b5b5f6104fe87828801610389565b945050602085013567ffffffffffffffff81111561051f5761051e610366565b5b61052b878288016104ac565b935050604061053c87828801610389565b925050606061054d87828801610389565b91505092959194509250565b5f6020828403121561056e5761056d610362565b5b5f61057b84828501610389565b91505092915050565b61058d8161036a565b82525050565b5f81519050919050565b5f82825260208201905092915050565b8281835e5f83830152505050565b5f6105c582610593565b6105cf818561059d565b93506105df8185602086016105ad565b6105e8816103a5565b840191505092915050565b5f6080820190506106065f830187610584565b818103602083015261061881866105bb565b90506106276040830185610584565b6106346060830184610584565b95945050505050565b5f805f6060848603121561065457610653610362565b5b5f84013567ffffffffffffffff81111561067157610670610366565b5b61067d868287016104ac565b935050602061068e86828701610389565b925050604061069f86828701610389565b9150509250925092565b5f6060820190508181035f8301526106c181866105bb565b90506106d06020830185610584565b6106dd6040830184610584565b949350505050565b5f6020820190506106f85f830184610584565b92915050565b7f4e487b71000000000000000000000000000000000000000000000000000000005f52602260045260245ffd5b5f600282049050600182168061074257607f821691505b602082108103610755576107546106fe565b5b50919050565b5f819050815f5260205f209050919050565b5f6020601f8301049050919050565b5f82821b905092915050565b5f600883026107b77fffffffffffffffffffffffffffffffffffffffffffffffffffffffffffffffff8261077c565b6107c1868361077c565b95508019841693508086168417925050509392505050565b5f819050919050565b5f6107fc6107f76107f28461036a565b6107d9565b61036a565b9050919050565b5f819050919050565b610815836107e2565b61082961082182610803565b848454610788565b825550505050565b5f90565b61083d610831565b61084881848461080c565b505050565b5b8181101561086b576108605f82610835565b60018101905061084e565b5050565b601f8211156108b0576108818161075b565b61088a8461076d565b81016020851015610899578190505b6108ad6108a58561076d565b83018261084d565b50505b505050565b5f82821c905092915050565b5f6108d05f19846008026108b5565b1980831691505092915050565b5f6108e883836108c1565b9150826002028217905092915050565b61090182610593565b67ffffffffffffffff81111561091a576109196103b5565b5b610924825461072b565b61092f82828561086f565b5f60209050601f831160018114610960575f841561094e578287015190505b61095885826108dd565b8655506109bf565b601f19841661096e8661075b565b5f5b8281101561099557848901518255600182019150602085019450602081019050610970565b868310156109b257848901516109ae601f8916826108c1565b8355505b6001600288020188555050505b505050505050565b7f4e487b71000000000000000000000000000000000000000000000000000000005f52601160045260245ffd5b5f6109fe8261036a565b91507fffffffffffffffffffffffffffffffffffffffffffffffffffffffffffffffff8203610a3057610a2f6109c7565b5b60018201905091905056fea26469706673582212204ed2f4b6776a93c915a209a18cbff8ca4265f3342074611751a11633a425699264736f6c634300081a0033",
			"opcodes": "PUSH1 0x80 PUSH1 0x40 MSTORE CALLVALUE DUP1 ISZERO PUSH1 0xE JUMPI PUSH0 DUP1 REVERT JUMPDEST POP PUSH2 0xA71 DUP1 PUSH2 0x1C PUSH0 CODECOPY PUSH0 RETURN INVALID PUSH1 0x80 PUSH1 0x40 MSTORE CALLVALUE DUP1 ISZERO PUSH2 0xF JUMPI PUSH0 DUP1 REVERT JUMPDEST POP PUSH1 0x4 CALLDATASIZE LT PUSH2 0x55 JUMPI PUSH0 CALLDATALOAD PUSH1 0xE0 SHR DUP1 PUSH4 0x2D561787 EQ PUSH2 0x59 JUMPI DUP1 PUSH4 0x7ACC0B20 EQ PUSH2 0x75 JUMPI DUP1 PUSH4 0x7BF12B1C EQ PUSH2 0xA8 JUMPI DUP1 PUSH4 0xB9DB15B4 EQ PUSH2 0xC4 JUMPI DUP1 PUSH4 0xE0F6EF87 EQ PUSH2 0xF6 JUMPI JUMPDEST PUSH0 DUP1 REVERT JUMPDEST PUSH2 0x73 PUSH1 0x4 DUP1 CALLDATASIZE SUB DUP2 ADD SWAP1 PUSH2 0x6E SWAP2 SWAP1 PUSH2 0x4D9 JUMP JUMPDEST PUSH2 0x114 JUMP JUMPDEST STOP JUMPDEST PUSH2 0x8F PUSH1 0x4 DUP1 CALLDATASIZE SUB DUP2 ADD SWAP1 PUSH2 0x8A SWAP2 SWAP1 PUSH2 0x559 JUMP JUMPDEST PUSH2 0x15A JUMP JUMPDEST PUSH1 0x40 MLOAD PUSH2 0x9F SWAP5 SWAP4 SWAP3 SWAP2 SWAP1 PUSH2 0x5F3 JUMP JUMPDEST PUSH1 0x40 MLOAD DUP1 SWAP2 SUB SWAP1 RETURN JUMPDEST PUSH2 0xC2 PUSH1 0x4 DUP1 CALLDATASIZE SUB DUP2 ADD SWAP1 PUSH2 0xBD SWAP2 SWAP1 PUSH2 0x63D JUMP JUMPDEST PUSH2 0x20B JUMP JUMPDEST STOP JUMPDEST PUSH2 0xDE PUSH1 0x4 DUP1 CALLDATASIZE SUB DUP2 ADD SWAP1 PUSH2 0xD9 SWAP2 SWAP1 PUSH2 0x559 JUMP JUMPDEST PUSH2 0x296 JUMP JUMPDEST PUSH1 0x40 MLOAD PUSH2 0xED SWAP4 SWAP3 SWAP2 SWAP1 PUSH2 0x6A9 JUMP JUMPDEST PUSH1 0x40 MLOAD DUP1 SWAP2 SUB SWAP1 RETURN JUMPDEST PUSH2 0xFE PUSH2 0x353 JUMP JUMPDEST PUSH1 0x40 MLOAD PUSH2 0x10B SWAP2 SWAP1 PUSH2 0x6E5 JUMP JUMPDEST PUSH1 0x40 MLOAD DUP1 SWAP2 SUB SWAP1 RETURN JUMPDEST PUSH0 DUP1 PUSH0 DUP7 DUP2 MSTORE PUSH1 0x20 ADD SWAP1 DUP2 MSTORE PUSH1 0x20 ADD PUSH0 KECCAK256 SWAP1 POP DUP5 DUP2 PUSH0 ADD DUP2 SWAP1 SSTORE POP DUP4 DUP2 PUSH1 0x1 ADD SWAP1 DUP2 PUSH2 0x140 SWAP2 SWAP1 PUSH2 0x8F8 JUMP JUMPDEST POP DUP3 DUP2 PUSH1 0x2 ADD DUP2 SWAP1 SSTORE POP DUP2 DUP2 PUSH1 0x3 ADD DUP2 SWAP1 SSTORE POP POP POP POP POP POP JUMP JUMPDEST PUSH0 PUSH1 0x20 MSTORE DUP1 PUSH0 MSTORE PUSH1 0x40 PUSH0 KECCAK256 PUSH0 SWAP2 POP SWAP1 POP DUP1 PUSH0 ADD SLOAD SWAP1 DUP1 PUSH1 0x1 ADD DUP1 SLOAD PUSH2 0x17E SWAP1 PUSH2 0x72B JUMP JUMPDEST DUP1 PUSH1 0x1F ADD PUSH1 0x20 DUP1 SWAP2 DIV MUL PUSH1 0x20 ADD PUSH1 0x40 MLOAD SWAP1 DUP2 ADD PUSH1 0x40 MSTORE DUP1 SWAP3 SWAP2 SWAP1 DUP2 DUP2 MSTORE PUSH1 0x20 ADD DUP3 DUP1 SLOAD PUSH2 0x1AA SWAP1 PUSH2 0x72B JUMP JUMPDEST DUP1 ISZERO PUSH2 0x1F5 JUMPI DUP1 PUSH1 0x1F LT PUSH2 0x1CC JUMPI PUSH2 0x100 DUP1 DUP4 SLOAD DIV MUL DUP4 MSTORE SWAP2 PUSH1 0x20 ADD SWAP2 PUSH2 0x1F5 JUMP JUMPDEST DUP3 ADD SWAP2 SWAP1 PUSH0 MSTORE PUSH1 0x20 PUSH0 KECCAK256 SWAP1 JUMPDEST DUP2 SLOAD DUP2 MSTORE SWAP1 PUSH1 0x1 ADD SWAP1 PUSH1 0x20 ADD DUP1 DUP4 GT PUSH2 0x1D8 JUMPI DUP3 SWAP1 SUB PUSH1 0x1F AND DUP3 ADD SWAP2 JUMPDEST POP POP POP POP POP SWAP1 DUP1 PUSH1 0x2 ADD SLOAD SWAP1 DUP1 PUSH1 0x3 ADD SLOAD SWAP1 POP DUP5 JUMP JUMPDEST PUSH1 0x1 PUSH0 DUP2 SLOAD DUP1 SWAP3 SWAP2 SWAP1 PUSH2 0x21D SWAP1 PUSH2 0x9F4 JUMP JUMPDEST SWAP2 SWAP1 POP SSTORE PUSH1 0x1 DUP2 SWAP1 SSTORE POP PUSH1 0x40 MLOAD DUP1 PUSH1 0x80 ADD PUSH1 0x40 MSTORE DUP1 PUSH1 0x1 SLOAD DUP2 MSTORE PUSH1 0x20 ADD DUP5 DUP2 MSTORE PUSH1 0x20 ADD DUP4 DUP2 MSTORE PUSH1 0x20 ADD DUP3 DUP2 MSTORE POP PUSH0 DUP1 PUSH1 0x1 SLOAD DUP2 MSTORE PUSH1 0x20 ADD SWAP1 DUP2 MSTORE PUSH1 0x20 ADD PUSH0 KECCAK256 PUSH0 DUP3 ADD MLOAD DUP2 PUSH0 ADD SSTORE PUSH1 0x20 DUP3 ADD MLOAD DUP2 PUSH1 0x1 ADD SWAP1 DUP2 PUSH2 0x279 SWAP2 SWAP1 PUSH2 0x8F8 JUMP JUMPDEST POP PUSH1 0x40 DUP3 ADD MLOAD DUP2 PUSH1 0x2 ADD SSTORE PUSH1 0x60 DUP3 ADD MLOAD DUP2 PUSH1 0x3 ADD SSTORE SWAP1 POP POP POP POP POP JUMP JUMPDEST PUSH1 0x60 PUSH0 DUP1 PUSH0 DUP1 PUSH0 DUP7 DUP2 MSTORE PUSH1 0x20 ADD SWAP1 DUP2 MSTORE PUSH1 0x20 ADD PUSH0 KECCAK256 SWAP1 POP DUP1 PUSH1 0x1 ADD DUP2 PUSH1 0x2 ADD SLOAD DUP3 PUSH1 0x3 ADD SLOAD DUP3 DUP1 SLOAD PUSH2 0x2C7 SWAP1 PUSH2 0x72B JUMP JUMPDEST DUP1 PUSH1 0x1F ADD PUSH1 0x20 DUP1 SWAP2 DIV MUL PUSH1 0x20 ADD PUSH1 0x40 MLOAD SWAP1 DUP2 ADD PUSH1 0x40 MSTORE DUP1 SWAP3 SWAP2 SWAP1 DUP2 DUP2 MSTORE PUSH1 0x20 ADD DUP3 DUP1 SLOAD PUSH2 0x2F3 SWAP1 PUSH2 0x72B JUMP JUMPDEST DUP1 ISZERO PUSH2 0x33E JUMPI DUP1 PUSH1 0x1F LT PUSH2 0x315 JUMPI PUSH2 0x100 DUP1 DUP4 SLOAD DIV MUL DUP4 MSTORE SWAP2 PUSH1 0x20 ADD SWAP2 PUSH2 0x33E JUMP JUMPDEST DUP3 ADD SWAP2 SWAP1 PUSH0 MSTORE PUSH1 0x20 PUSH0 KECCAK256 SWAP1 JUMPDEST DUP2 SLOAD DUP2 MSTORE SWAP1 PUSH1 0x1 ADD SWAP1 PUSH1 0x20 ADD DUP1 DUP4 GT PUSH2 0x321 JUMPI DUP3 SWAP1 SUB PUSH1 0x1F AND DUP3 ADD SWAP2 JUMPDEST POP POP POP POP POP SWAP3 POP SWAP4 POP SWAP4 POP SWAP4 POP POP SWAP2 SWAP4 SWAP1 SWAP3 POP JUMP JUMPDEST PUSH1 0x1 SLOAD DUP2 JUMP JUMPDEST PUSH0 PUSH1 0x40 MLOAD SWAP1 POP SWAP1 JUMP JUMPDEST PUSH0 DUP1 REVERT JUMPDEST PUSH0 DUP1 REVERT JUMPDEST PUSH0 DUP2 SWAP1 POP SWAP2 SWAP1 POP JUMP JUMPDEST PUSH2 0x37C DUP2 PUSH2 0x36A JUMP JUMPDEST DUP2 EQ PUSH2 0x386 JUMPI PUSH0 DUP1 REVERT JUMPDEST POP JUMP JUMPDEST PUSH0 DUP2 CALLDATALOAD SWAP1 POP PUSH2 0x397 DUP2 PUSH2 0x373 JUMP JUMPDEST SWAP3 SWAP2 POP POP JUMP JUMPDEST PUSH0 DUP1 REVERT JUMPDEST PUSH0 DUP1 REVERT JUMPDEST PUSH0 PUSH1 0x1F NOT PUSH1 0x1F DUP4 ADD AND SWAP1 POP SWAP2 SWAP1 POP JUMP JUMPDEST PUSH32 0x4E487B7100000000000000000000000000000000000000000000000000000000 PUSH0 MSTORE PUSH1 0x41 PUSH1 0x4 MSTORE PUSH1 0x24 PUSH0 REVERT JUMPDEST PUSH2 0x3EB DUP3 PUSH2 0x3A5 JUMP JUMPDEST DUP2 ADD DUP2 DUP2 LT PUSH8 0xFFFFFFFFFFFFFFFF DUP3 GT OR ISZERO PUSH2 0x40A JUMPI PUSH2 0x409 PUSH2 0x3B5 JUMP JUMPDEST JUMPDEST DUP1 PUSH1 0x40 MSTORE POP POP POP JUMP JUMPDEST PUSH0 PUSH2 0x41C PUSH2 0x359 JUMP JUMPDEST SWAP1 POP PUSH2 0x428 DUP3 DUP3 PUSH2 0x3E2 JUMP JUMPDEST SWAP2 SWAP1 POP JUMP JUMPDEST PUSH0 PUSH8 0xFFFFFFFFFFFFFFFF DUP3 GT ISZERO PUSH2 0x447 JUMPI PUSH2 0x446 PUSH2 0x3B5 JUMP JUMPDEST JUMPDEST PUSH2 0x450 DUP3 PUSH2 0x3A5 JUMP JUMPDEST SWAP1 POP PUSH1 0x20 DUP2 ADD SWAP1 POP SWAP2 SWAP1 POP JUMP JUMPDEST DUP3 DUP2 DUP4 CALLDATACOPY PUSH0 DUP4 DUP4 ADD MSTORE POP POP POP JUMP JUMPDEST PUSH0 PUSH2 0x47D PUSH2 0x478 DUP5 PUSH2 0x42D JUMP JUMPDEST PUSH2 0x413 JUMP JUMPDEST SWAP1 POP DUP3 DUP2 MSTORE PUSH1 0x20 DUP2 ADD DUP5 DUP5 DUP5 ADD GT ISZERO PUSH2 0x499 JUMPI PUSH2 0x498 PUSH2 0x3A1 JUMP JUMPDEST JUMPDEST PUSH2 0x4A4 DUP5 DUP3 DUP6 PUSH2 0x45D JUMP JUMPDEST POP SWAP4 SWAP3 POP POP POP JUMP JUMPDEST PUSH0 DUP3 PUSH1 0x1F DUP4 ADD SLT PUSH2 0x4C0 JUMPI PUSH2 0x4BF PUSH2 0x39D JUMP JUMPDEST JUMPDEST DUP2 CALLDATALOAD PUSH2 0x4D0 DUP5 DUP3 PUSH1 0x20 DUP7 ADD PUSH2 0x46B JUMP JUMPDEST SWAP2 POP POP SWAP3 SWAP2 POP POP JUMP JUMPDEST PUSH0 DUP1 PUSH0 DUP1 PUSH1 0x80 DUP6 DUP8 SUB SLT ISZERO PUSH2 0x4F1 JUMPI PUSH2 0x4F0 PUSH2 0x362 JUMP JUMPDEST JUMPDEST PUSH0 PUSH2 0x4FE DUP8 DUP3 DUP9 ADD PUSH2 0x389 JUMP JUMPDEST SWAP5 POP POP PUSH1 0x20 DUP6 ADD CALLDATALOAD PUSH8 0xFFFFFFFFFFFFFFFF DUP2 GT ISZERO PUSH2 0x51F JUMPI PUSH2 0x51E PUSH2 0x366 JUMP JUMPDEST JUMPDEST PUSH2 0x52B DUP8 DUP3 DUP9 ADD PUSH2 0x4AC JUMP JUMPDEST SWAP4 POP POP PUSH1 0x40 PUSH2 0x53C DUP8 DUP3 DUP9 ADD PUSH2 0x389 JUMP JUMPDEST SWAP3 POP POP PUSH1 0x60 PUSH2 0x54D DUP8 DUP3 DUP9 ADD PUSH2 0x389 JUMP JUMPDEST SWAP2 POP POP SWAP3 SWAP6 SWAP2 SWAP5 POP SWAP3 POP JUMP JUMPDEST PUSH0 PUSH1 0x20 DUP3 DUP5 SUB SLT ISZERO PUSH2 0x56E JUMPI PUSH2 0x56D PUSH2 0x362 JUMP JUMPDEST JUMPDEST PUSH0 PUSH2 0x57B DUP5 DUP3 DUP6 ADD PUSH2 0x389 JUMP JUMPDEST SWAP2 POP POP SWAP3 SWAP2 POP POP JUMP JUMPDEST PUSH2 0x58D DUP2 PUSH2 0x36A JUMP JUMPDEST DUP3 MSTORE POP POP JUMP JUMPDEST PUSH0 DUP2 MLOAD SWAP1 POP SWAP2 SWAP1 POP JUMP JUMPDEST PUSH0 DUP3 DUP3 MSTORE PUSH1 0x20 DUP3 ADD SWAP1 POP SWAP3 SWAP2 POP POP JUMP JUMPDEST DUP3 DUP2 DUP4 MCOPY PUSH0 DUP4 DUP4 ADD MSTORE POP POP POP JUMP JUMPDEST PUSH0 PUSH2 0x5C5 DUP3 PUSH2 0x593 JUMP JUMPDEST PUSH2 0x5CF DUP2 DUP6 PUSH2 0x59D JUMP JUMPDEST SWAP4 POP PUSH2 0x5DF DUP2 DUP6 PUSH1 0x20 DUP7 ADD PUSH2 0x5AD JUMP JUMPDEST PUSH2 0x5E8 DUP2 PUSH2 0x3A5 JUMP JUMPDEST DUP5 ADD SWAP2 POP POP SWAP3 SWAP2 POP POP JUMP JUMPDEST PUSH0 PUSH1 0x80 DUP3 ADD SWAP1 POP PUSH2 0x606 PUSH0 DUP4 ADD DUP8 PUSH2 0x584 JUMP JUMPDEST DUP2 DUP2 SUB PUSH1 0x20 DUP4 ADD MSTORE PUSH2 0x618 DUP2 DUP7 PUSH2 0x5BB JUMP JUMPDEST SWAP1 POP PUSH2 0x627 PUSH1 0x40 DUP4 ADD DUP6 PUSH2 0x584 JUMP JUMPDEST PUSH2 0x634 PUSH1 0x60 DUP4 ADD DUP5 PUSH2 0x584 JUMP JUMPDEST SWAP6 SWAP5 POP POP POP POP POP JUMP JUMPDEST PUSH0 DUP1 PUSH0 PUSH1 0x60 DUP5 DUP7 SUB SLT ISZERO PUSH2 0x654 JUMPI PUSH2 0x653 PUSH2 0x362 JUMP JUMPDEST JUMPDEST PUSH0 DUP5 ADD CALLDATALOAD PUSH8 0xFFFFFFFFFFFFFFFF DUP2 GT ISZERO PUSH2 0x671 JUMPI PUSH2 0x670 PUSH2 0x366 JUMP JUMPDEST JUMPDEST PUSH2 0x67D DUP7 DUP3 DUP8 ADD PUSH2 0x4AC JUMP JUMPDEST SWAP4 POP POP PUSH1 0x20 PUSH2 0x68E DUP7 DUP3 DUP8 ADD PUSH2 0x389 JUMP JUMPDEST SWAP3 POP POP PUSH1 0x40 PUSH2 0x69F DUP7 DUP3 DUP8 ADD PUSH2 0x389 JUMP JUMPDEST SWAP2 POP POP SWAP3 POP SWAP3 POP SWAP3 JUMP JUMPDEST PUSH0 PUSH1 0x60 DUP3 ADD SWAP1 POP DUP2 DUP2 SUB PUSH0 DUP4 ADD MSTORE PUSH2 0x6C1 DUP2 DUP7 PUSH2 0x5BB JUMP JUMPDEST SWAP1 POP PUSH2 0x6D0 PUSH1 0x20 DUP4 ADD DUP6 PUSH2 0x584 JUMP JUMPDEST PUSH2 0x6DD PUSH1 0x40 DUP4 ADD DUP5 PUSH2 0x584 JUMP JUMPDEST SWAP5 SWAP4 POP POP POP POP JUMP JUMPDEST PUSH0 PUSH1 0x20 DUP3 ADD SWAP1 POP PUSH2 0x6F8 PUSH0 DUP4 ADD DUP5 PUSH2 0x584 JUMP JUMPDEST SWAP3 SWAP2 POP POP JUMP JUMPDEST PUSH32 0x4E487B7100000000000000000000000000000000000000000000000000000000 PUSH0 MSTORE PUSH1 0x22 PUSH1 0x4 MSTORE PUSH1 0x24 PUSH0 REVERT JUMPDEST PUSH0 PUSH1 0x2 DUP3 DIV SWAP1 POP PUSH1 0x1 DUP3 AND DUP1 PUSH2 0x742 JUMPI PUSH1 0x7F DUP3 AND SWAP2 POP JUMPDEST PUSH1 0x20 DUP3 LT DUP2 SUB PUSH2 0x755 JUMPI PUSH2 0x754 PUSH2 0x6FE JUMP JUMPDEST JUMPDEST POP SWAP2 SWAP1 POP JUMP JUMPDEST PUSH0 DUP2 SWAP1 POP DUP2 PUSH0 MSTORE PUSH1 0x20 PUSH0 KECCAK256 SWAP1 POP SWAP2 SWAP1 POP JUMP JUMPDEST PUSH0 PUSH1 0x20 PUSH1 0x1F DUP4 ADD DIV SWAP1 POP SWAP2 SWAP1 POP JUMP JUMPDEST PUSH0 DUP3 DUP3 SHL SWAP1 POP SWAP3 SWAP2 POP POP JUMP JUMPDEST PUSH0 PUSH1 0x8 DUP4 MUL PUSH2 0x7B7 PUSH32 0xFFFFFFFFFFFFFFFFFFFFFFFFFFFFFFFFFFFFFFFFFFFFFFFFFFFFFFFFFFFFFFFF DUP3 PUSH2 0x77C JUMP JUMPDEST PUSH2 0x7C1 DUP7 DUP4 PUSH2 0x77C JUMP JUMPDEST SWAP6 POP DUP1 NOT DUP5 AND SWAP4 POP DUP1 DUP7 AND DUP5 OR SWAP3 POP POP POP SWAP4 SWAP3 POP POP POP JUMP JUMPDEST PUSH0 DUP2 SWAP1 POP SWAP2 SWAP1 POP JUMP JUMPDEST PUSH0 PUSH2 0x7FC PUSH2 0x7F7 PUSH2 0x7F2 DUP5 PUSH2 0x36A JUMP JUMPDEST PUSH2 0x7D9 JUMP JUMPDEST PUSH2 0x36A JUMP JUMPDEST SWAP1 POP SWAP2 SWAP1 POP JUMP JUMPDEST PUSH0 DUP2 SWAP1 POP SWAP2 SWAP1 POP JUMP JUMPDEST PUSH2 0x815 DUP4 PUSH2 0x7E2 JUMP JUMPDEST PUSH2 0x829 PUSH2 0x821 DUP3 PUSH2 0x803 JUMP JUMPDEST DUP5 DUP5 SLOAD PUSH2 0x788 JUMP JUMPDEST DUP3 SSTORE POP POP POP POP JUMP JUMPDEST PUSH0 SWAP1 JUMP JUMPDEST PUSH2 0x83D PUSH2 0x831 JUMP JUMPDEST PUSH2 0x848 DUP2 DUP5 DUP5 PUSH2 0x80C JUMP JUMPDEST POP POP POP JUMP JUMPDEST JUMPDEST DUP2 DUP2 LT ISZERO PUSH2 0x86B JUMPI PUSH2 0x860 PUSH0 DUP3 PUSH2 0x835 JUMP JUMPDEST PUSH1 0x1 DUP2 ADD SWAP1 POP PUSH2 0x84E JUMP JUMPDEST POP POP JUMP JUMPDEST PUSH1 0x1F DUP3 GT ISZERO PUSH2 0x8B0 JUMPI PUSH2 0x881 DUP2 PUSH2 0x75B JUMP JUMPDEST PUSH2 0x88A DUP5 PUSH2 0x76D JUMP JUMPDEST DUP2 ADD PUSH1 0x20 DUP6 LT ISZERO PUSH2 0x899 JUMPI DUP2 SWAP1 POP JUMPDEST PUSH2 0x8AD PUSH2 0x8A5 DUP6 PUSH2 0x76D JUMP JUMPDEST DUP4 ADD DUP3 PUSH2 0x84D JUMP JUMPDEST POP POP JUMPDEST POP POP POP JUMP JUMPDEST PUSH0 DUP3 DUP3 SHR SWAP1 POP SWAP3 SWAP2 POP POP JUMP JUMPDEST PUSH0 PUSH2 0x8D0 PUSH0 NOT DUP5 PUSH1 0x8 MUL PUSH2 0x8B5 JUMP JUMPDEST NOT DUP1 DUP4 AND SWAP2 POP POP SWAP3 SWAP2 POP POP JUMP JUMPDEST PUSH0 PUSH2 0x8E8 DUP4 DUP4 PUSH2 0x8C1 JUMP JUMPDEST SWAP2 POP DUP3 PUSH1 0x2 MUL DUP3 OR SWAP1 POP SWAP3 SWAP2 POP POP JUMP JUMPDEST PUSH2 0x901 DUP3 PUSH2 0x593 JUMP JUMPDEST PUSH8 0xFFFFFFFFFFFFFFFF DUP2 GT ISZERO PUSH2 0x91A JUMPI PUSH2 0x919 PUSH2 0x3B5 JUMP JUMPDEST JUMPDEST PUSH2 0x924 DUP3 SLOAD PUSH2 0x72B JUMP JUMPDEST PUSH2 0x92F DUP3 DUP3 DUP6 PUSH2 0x86F JUMP JUMPDEST PUSH0 PUSH1 0x20 SWAP1 POP PUSH1 0x1F DUP4 GT PUSH1 0x1 DUP2 EQ PUSH2 0x960 JUMPI PUSH0 DUP5 ISZERO PUSH2 0x94E JUMPI DUP3 DUP8 ADD MLOAD SWAP1 POP JUMPDEST PUSH2 0x958 DUP6 DUP3 PUSH2 0x8DD JUMP JUMPDEST DUP7 SSTORE POP PUSH2 0x9BF JUMP JUMPDEST PUSH1 0x1F NOT DUP5 AND PUSH2 0x96E DUP7 PUSH2 0x75B JUMP JUMPDEST PUSH0 JUMPDEST DUP3 DUP2 LT ISZERO PUSH2 0x995 JUMPI DUP5 DUP10 ADD MLOAD DUP3 SSTORE PUSH1 0x1 DUP3 ADD SWAP2 POP PUSH1 0x20 DUP6 ADD SWAP5 POP PUSH1 0x20 DUP2 ADD SWAP1 POP PUSH2 0x970 JUMP JUMPDEST DUP7 DUP4 LT ISZERO PUSH2 0x9B2 JUMPI DUP5 DUP10 ADD MLOAD PUSH2 0x9AE PUSH1 0x1F DUP10 AND DUP3 PUSH2 0x8C1 JUMP JUMPDEST DUP4 SSTORE POP JUMPDEST PUSH1 0x1 PUSH1 0x2 DUP9 MUL ADD DUP9 SSTORE POP POP POP JUMPDEST POP POP POP POP POP POP JUMP JUMPDEST PUSH32 0x4E487B7100000000000000000000000000000000000000000000000000000000 PUSH0 MSTORE PUSH1 0x11 PUSH1 0x4 MSTORE PUSH1 0x24 PUSH0 REVERT JUMPDEST PUSH0 PUSH2 0x9FE DUP3 PUSH2 0x36A JUMP JUMPDEST SWAP2 POP PUSH32 0xFFFFFFFFFFFFFFFFFFFFFFFFFFFFFFFFFFFFFFFFFFFFFFFFFFFFFFFFFFFFFFFF DUP3 SUB PUSH2 0xA30 JUMPI PUSH2 0xA2F PUSH2 0x9C7 JUMP JUMPDEST JUMPDEST PUSH1 0x1 DUP3 ADD SWAP1 POP SWAP2 SWAP1 POP JUMP INVALID LOG2 PUSH5 0x6970667358 0x22 SLT KECCAK256 0x4E 0xD2 DELEGATECALL 0xB6 PUSH24 0x6A93C915A209A18CBFF8CA4265F3342074611751A11633A4 0x25 PUSH10 0x9264736F6C634300081A STOP CALLER "
		},
		"gasEstimates": {
			"creation": {
				"codeDepositCost": "534600",
				"executionCost": "566",
				"totalCost": "535166"
			},
			"external": {
				"createProduct(string,uint256,uint256)": "infinite",
				"getProduct(uint256)": "infinite",
				"productCount()": "2491",
				"products(uint256)": "infinite",
				"updateProduct(uint256,string,uint256,uint256)": "infinite"
			}
		},
		"methodIdentifiers": {
			"createProduct(string,uint256,uint256)": "7bf12b1c",
			"getProduct(uint256)": "b9db15b4",
			"productCount()": "e0f6ef87",
			"products(uint256)": "7acc0b20",
			"updateProduct(uint256,string,uint256,uint256)": "2d561787"
		}
	},
	"abi": [
		{
			"inputs": [
				{
					"internalType": "string",
					"name": "_name",
					"type": "string"
				},
				{
					"internalType": "uint256",
					"name": "_price",
					"type": "uint256"
				},
				{
					"internalType": "uint256",
					"name": "_store",
					"type": "uint256"
				}
			],
			"name": "createProduct",
			"outputs": [],
			"stateMutability": "nonpayable",
			"type": "function"
		},
		{
			"inputs": [
				{
					"internalType": "uint256",
					"name": "_id",
					"type": "uint256"
				}
			],
			"name": "getProduct",
			"outputs": [
				{
					"internalType": "string",
					"name": "",
					"type": "string"
				},
				{
					"internalType": "uint256",
					"name": "price",
					"type": "uint256"
				},
				{
					"internalType": "uint256",
					"name": "store",
					"type": "uint256"
				}
			],
			"stateMutability": "view",
			"type": "function"
		},
		{
			"inputs": [],
			"name": "productCount",
			"outputs": [
				{
					"internalType": "uint256",
					"name": "",
					"type": "uint256"
				}
			],
			"stateMutability": "view",
			"type": "function"
		},
		{
			"inputs": [
				{
					"internalType": "uint256",
					"name": "",
					"type": "uint256"
				}
			],
			"name": "products",
			"outputs": [
				{
					"internalType": "uint256",
					"name": "id",
					"type": "uint256"
				},
				{
					"internalType": "string",
					"name": "name",
					"type": "string"
				},
				{
					"internalType": "uint256",
					"name": "price",
					"type": "uint256"
				},
				{
					"internalType": "uint256",
					"name": "store",
					"type": "uint256"
				}
			],
			"stateMutability": "view",
			"type": "function"
		},
		{
			"inputs": [
				{
					"internalType": "uint256",
					"name": "_id",
					"type": "uint256"
				},
				{
					"internalType": "string",
					"name": "_name",
					"type": "string"
				},
				{
					"internalType": "uint256",
					"name": "_price",
					"type": "uint256"
				},
				{
					"internalType": "uint256",
					"name": "_store",
					"type": "uint256"
				}
			],
			"name": "updateProduct",
			"outputs": [],
			"stateMutability": "nonpayable",
			"type": "function"
		}
	]
}