{
	"data": {
		"bytecode": {
			"linkReferences": {},
			"object": "6080604052348015600e575f80fd5b5061095d8061001c5f395ff3fe608060405234801561000f575f80fd5b506004361061004a575f3560e01c8063121ef2431461004e5780631c6120e81461006a5780634bc939681461009a578063a87430ba146100b6575b5f80fd5b61006860048036038101906100639190610432565b6100e7565b005b610084600480360381019061007f919061048c565b610145565b60405161009191906104e2565b60405180910390f35b6100b460048036038101906100af9190610432565b6101a9565b005b6100d060048036038101906100cb9190610555565b61020d565b6040516100de9291906105e0565b60405180910390f35b5f805f3373ffffffffffffffffffffffffffffffffffffffff1673ffffffffffffffffffffffffffffffffffffffff1681526020019081526020015f20905082815f0190816101369190610808565b50818160010181905550505050565b5f805f3373ffffffffffffffffffffffffffffffffffffffff1673ffffffffffffffffffffffffffffffffffffffff1681526020019081526020015f20600201826040516101939190610911565b9081526020016040518091039020549050919050565b805f803373ffffffffffffffffffffffffffffffffffffffff1673ffffffffffffffffffffffffffffffffffffffff1681526020019081526020015f20600201836040516101f79190610911565b9081526020016040518091039020819055505050565b5f602052805f5260405f205f91509050805f01805461022b9061063b565b80601f01602080910402602001604051908101604052809291908181526020018280546102579061063b565b80156102a25780601f10610279576101008083540402835291602001916102a2565b820191905f5260205f20905b81548152906001019060200180831161028557829003601f168201915b5050505050908060010154905082565b5f604051905090565b5f80fd5b5f80fd5b5f80fd5b5f80fd5b5f601f19601f8301169050919050565b7f4e487b71000000000000000000000000000000000000000000000000000000005f52604160045260245ffd5b610311826102cb565b810181811067ffffffffffffffff821117156103305761032f6102db565b5b80604052505050565b5f6103426102b2565b905061034e8282610308565b919050565b5f67ffffffffffffffff82111561036d5761036c6102db565b5b610376826102cb565b9050602081019050919050565b828183375f83830152505050565b5f6103a361039e84610353565b610339565b9050828152602081018484840111156103bf576103be6102c7565b5b6103ca848285610383565b509392505050565b5f82601f8301126103e6576103e56102c3565b5b81356103f6848260208601610391565b91505092915050565b5f819050919050565b610411816103ff565b811461041b575f80fd5b50565b5f8135905061042c81610408565b92915050565b5f8060408385031215610448576104476102bb565b5b5f83013567ffffffffffffffff811115610465576104646102bf565b5b610471858286016103d2565b92505060206104828582860161041e565b9150509250929050565b5f602082840312156104a1576104a06102bb565b5b5f82013567ffffffffffffffff8111156104be576104bd6102bf565b5b6104ca848285016103d2565b91505092915050565b6104dc816103ff565b82525050565b5f6020820190506104f55f8301846104d3565b92915050565b5f73ffffffffffffffffffffffffffffffffffffffff82169050919050565b5f610524826104fb565b9050919050565b6105348161051a565b811461053e575f80fd5b50565b5f8135905061054f8161052b565b92915050565b5f6020828403121561056a576105696102bb565b5b5f61057784828501610541565b91505092915050565b5f81519050919050565b5f82825260208201905092915050565b8281835e5f83830152505050565b5f6105b282610580565b6105bc818561058a565b93506105cc81856020860161059a565b6105d5816102cb565b840191505092915050565b5f6040820190508181035f8301526105f881856105a8565b905061060760208301846104d3565b9392505050565b7f4e487b71000000000000000000000000000000000000000000000000000000005f52602260045260245ffd5b5f600282049050600182168061065257607f821691505b6020821081036106655761066461060e565b5b50919050565b5f819050815f5260205f209050919050565b5f6020601f8301049050919050565b5f82821b905092915050565b5f600883026106c77fffffffffffffffffffffffffffffffffffffffffffffffffffffffffffffffff8261068c565b6106d1868361068c565b95508019841693508086168417925050509392505050565b5f819050919050565b5f61070c610707610702846103ff565b6106e9565b6103ff565b9050919050565b5f819050919050565b610725836106f2565b61073961073182610713565b848454610698565b825550505050565b5f90565b61074d610741565b61075881848461071c565b505050565b5b8181101561077b576107705f82610745565b60018101905061075e565b5050565b601f8211156107c0576107918161066b565b61079a8461067d565b810160208510156107a9578190505b6107bd6107b58561067d565b83018261075d565b50505b505050565b5f82821c905092915050565b5f6107e05f19846008026107c5565b1980831691505092915050565b5f6107f883836107d1565b9150826002028217905092915050565b61081182610580565b67ffffffffffffffff81111561082a576108296102db565b5b610834825461063b565b61083f82828561077f565b5f60209050601f831160018114610870575f841561085e578287015190505b61086885826107ed565b8655506108cf565b601f19841661087e8661066b565b5f5b828110156108a557848901518255600182019150602085019450602081019050610880565b868310156108c257848901516108be601f8916826107d1565b8355505b6001600288020188555050505b505050505050565b5f81905092915050565b5f6108eb82610580565b6108f581856108d7565b935061090581856020860161059a565b80840191505092915050565b5f61091c82846108e1565b91508190509291505056fea26469706673582212201a02dfe12f43ec66da2232a965f179e8a1e734139d2d75b05191e0a50526fdcb64736f6c634300081a0033",
			"opcodes": "PUSH1 0x80 PUSH1 0x40 MSTORE CALLVALUE DUP1 ISZERO PUSH1 0xE JUMPI PUSH0 DUP1 REVERT JUMPDEST POP PUSH2 0x95D DUP1 PUSH2 0x1C PUSH0 CODECOPY PUSH0 RETURN INVALID PUSH1 0x80 PUSH1 0x40 MSTORE CALLVALUE DUP1 ISZERO PUSH2 0xF JUMPI PUSH0 DUP1 REVERT JUMPDEST POP PUSH1 0x4 CALLDATASIZE LT PUSH2 0x4A JUMPI PUSH0 CALLDATALOAD PUSH1 0xE0 SHR DUP1 PUSH4 0x121EF243 EQ PUSH2 0x4E JUMPI DUP1 PUSH4 0x1C6120E8 EQ PUSH2 0x6A JUMPI DUP1 PUSH4 0x4BC93968 EQ PUSH2 0x9A JUMPI DUP1 PUSH4 0xA87430BA EQ PUSH2 0xB6 JUMPI JUMPDEST PUSH0 DUP1 REVERT JUMPDEST PUSH2 0x68 PUSH1 0x4 DUP1 CALLDATASIZE SUB DUP2 ADD SWAP1 PUSH2 0x63 SWAP2 SWAP1 PUSH2 0x432 JUMP JUMPDEST PUSH2 0xE7 JUMP JUMPDEST STOP JUMPDEST PUSH2 0x84 PUSH1 0x4 DUP1 CALLDATASIZE SUB DUP2 ADD SWAP1 PUSH2 0x7F SWAP2 SWAP1 PUSH2 0x48C JUMP JUMPDEST PUSH2 0x145 JUMP JUMPDEST PUSH1 0x40 MLOAD PUSH2 0x91 SWAP2 SWAP1 PUSH2 0x4E2 JUMP JUMPDEST PUSH1 0x40 MLOAD DUP1 SWAP2 SUB SWAP1 RETURN JUMPDEST PUSH2 0xB4 PUSH1 0x4 DUP1 CALLDATASIZE SUB DUP2 ADD SWAP1 PUSH2 0xAF SWAP2 SWAP1 PUSH2 0x432 JUMP JUMPDEST PUSH2 0x1A9 JUMP JUMPDEST STOP JUMPDEST PUSH2 0xD0 PUSH1 0x4 DUP1 CALLDATASIZE SUB DUP2 ADD SWAP1 PUSH2 0xCB SWAP2 SWAP1 PUSH2 0x555 JUMP JUMPDEST PUSH2 0x20D JUMP JUMPDEST PUSH1 0x40 MLOAD PUSH2 0xDE SWAP3 SWAP2 SWAP1 PUSH2 0x5E0 JUMP JUMPDEST PUSH1 0x40 MLOAD DUP1 SWAP2 SUB SWAP1 RETURN JUMPDEST PUSH0 DUP1 PUSH0 CALLER PUSH20 0xFFFFFFFFFFFFFFFFFFFFFFFFFFFFFFFFFFFFFFFF AND PUSH20 0xFFFFFFFFFFFFFFFFFFFFFFFFFFFFFFFFFFFFFFFF AND DUP2 MSTORE PUSH1 0x20 ADD SWAP1 DUP2 MSTORE PUSH1 0x20 ADD PUSH0 KECCAK256 SWAP1 POP DUP3 DUP2 PUSH0 ADD SWAP1 DUP2 PUSH2 0x136 SWAP2 SWAP1 PUSH2 0x808 JUMP JUMPDEST POP DUP2 DUP2 PUSH1 0x1 ADD DUP2 SWAP1 SSTORE POP POP POP POP JUMP JUMPDEST PUSH0 DUP1 PUSH0 CALLER PUSH20 0xFFFFFFFFFFFFFFFFFFFFFFFFFFFFFFFFFFFFFFFF AND PUSH20 0xFFFFFFFFFFFFFFFFFFFFFFFFFFFFFFFFFFFFFFFF AND DUP2 MSTORE PUSH1 0x20 ADD SWAP1 DUP2 MSTORE PUSH1 0x20 ADD PUSH0 KECCAK256 PUSH1 0x2 ADD DUP3 PUSH1 0x40 MLOAD PUSH2 0x193 SWAP2 SWAP1 PUSH2 0x911 JUMP JUMPDEST SWAP1 DUP2 MSTORE PUSH1 0x20 ADD PUSH1 0x40 MLOAD DUP1 SWAP2 SUB SWAP1 KECCAK256 SLOAD SWAP1 POP SWAP2 SWAP1 POP JUMP JUMPDEST DUP1 PUSH0 DUP1 CALLER PUSH20 0xFFFFFFFFFFFFFFFFFFFFFFFFFFFFFFFFFFFFFFFF AND PUSH20 0xFFFFFFFFFFFFFFFFFFFFFFFFFFFFFFFFFFFFFFFF AND DUP2 MSTORE PUSH1 0x20 ADD SWAP1 DUP2 MSTORE PUSH1 0x20 ADD PUSH0 KECCAK256 PUSH1 0x2 ADD DUP4 PUSH1 0x40 MLOAD PUSH2 0x1F7 SWAP2 SWAP1 PUSH2 0x911 JUMP JUMPDEST SWAP1 DUP2 MSTORE PUSH1 0x20 ADD PUSH1 0x40 MLOAD DUP1 SWAP2 SUB SWAP1 KECCAK256 DUP2 SWAP1 SSTORE POP POP POP JUMP JUMPDEST PUSH0 PUSH1 0x20 MSTORE DUP1 PUSH0 MSTORE PUSH1 0x40 PUSH0 KECCAK256 PUSH0 SWAP2 POP SWAP1 POP DUP1 PUSH0 ADD DUP1 SLOAD PUSH2 0x22B SWAP1 PUSH2 0x63B JUMP JUMPDEST DUP1 PUSH1 0x1F ADD PUSH1 0x20 DUP1 SWAP2 DIV MUL PUSH1 0x20 ADD PUSH1 0x40 MLOAD SWAP1 DUP2 ADD PUSH1 0x40 MSTORE DUP1 SWAP3 SWAP2 SWAP1 DUP2 DUP2 MSTORE PUSH1 0x20 ADD DUP3 DUP1 SLOAD PUSH2 0x257 SWAP1 PUSH2 0x63B JUMP JUMPDEST DUP1 ISZERO PUSH2 0x2A2 JUMPI DUP1 PUSH1 0x1F LT PUSH2 0x279 JUMPI PUSH2 0x100 DUP1 DUP4 SLOAD DIV MUL DUP4 MSTORE SWAP2 PUSH1 0x20 ADD SWAP2 PUSH2 0x2A2 JUMP JUMPDEST DUP3 ADD SWAP2 SWAP1 PUSH0 MSTORE PUSH1 0x20 PUSH0 KECCAK256 SWAP1 JUMPDEST DUP2 SLOAD DUP2 MSTORE SWAP1 PUSH1 0x1 ADD SWAP1 PUSH1 0x20 ADD DUP1 DUP4 GT PUSH2 0x285 JUMPI DUP3 SWAP1 SUB PUSH1 0x1F AND DUP3 ADD SWAP2 JUMPDEST POP POP POP POP POP SWAP1 DUP1 PUSH1 0x1 ADD SLOAD SWAP1 POP DUP3 JUMP JUMPDEST PUSH0 PUSH1 0x40 MLOAD SWAP1 POP SWAP1 JUMP JUMPDEST PUSH0 DUP1 REVERT JUMPDEST PUSH0 DUP1 REVERT JUMPDEST PUSH0 DUP1 REVERT JUMPDEST PUSH0 DUP1 REVERT JUMPDEST PUSH0 PUSH1 0x1F NOT PUSH1 0x1F DUP4 ADD AND SWAP1 POP SWAP2 SWAP1 POP JUMP JUMPDEST PUSH32 0x4E487B7100000000000000000000000000000000000000000000000000000000 PUSH0 MSTORE PUSH1 0x41 PUSH1 0x4 MSTORE PUSH1 0x24 PUSH0 REVERT JUMPDEST PUSH2 0x311 DUP3 PUSH2 0x2CB JUMP JUMPDEST DUP2 ADD DUP2 DUP2 LT PUSH8 0xFFFFFFFFFFFFFFFF DUP3 GT OR ISZERO PUSH2 0x330 JUMPI PUSH2 0x32F PUSH2 0x2DB JUMP JUMPDEST JUMPDEST DUP1 PUSH1 0x40 MSTORE POP POP POP JUMP JUMPDEST PUSH0 PUSH2 0x342 PUSH2 0x2B2 JUMP JUMPDEST SWAP1 POP PUSH2 0x34E DUP3 DUP3 PUSH2 0x308 JUMP JUMPDEST SWAP2 SWAP1 POP JUMP JUMPDEST PUSH0 PUSH8 0xFFFFFFFFFFFFFFFF DUP3 GT ISZERO PUSH2 0x36D JUMPI PUSH2 0x36C PUSH2 0x2DB JUMP JUMPDEST JUMPDEST PUSH2 0x376 DUP3 PUSH2 0x2CB JUMP JUMPDEST SWAP1 POP PUSH1 0x20 DUP2 ADD SWAP1 POP SWAP2 SWAP1 POP JUMP JUMPDEST DUP3 DUP2 DUP4 CALLDATACOPY PUSH0 DUP4 DUP4 ADD MSTORE POP POP POP JUMP JUMPDEST PUSH0 PUSH2 0x3A3 PUSH2 0x39E DUP5 PUSH2 0x353 JUMP JUMPDEST PUSH2 0x339 JUMP JUMPDEST SWAP1 POP DUP3 DUP2 MSTORE PUSH1 0x20 DUP2 ADD DUP5 DUP5 DUP5 ADD GT ISZERO PUSH2 0x3BF JUMPI PUSH2 0x3BE PUSH2 0x2C7 JUMP JUMPDEST JUMPDEST PUSH2 0x3CA DUP5 DUP3 DUP6 PUSH2 0x383 JUMP JUMPDEST POP SWAP4 SWAP3 POP POP POP JUMP JUMPDEST PUSH0 DUP3 PUSH1 0x1F DUP4 ADD SLT PUSH2 0x3E6 JUMPI PUSH2 0x3E5 PUSH2 0x2C3 JUMP JUMPDEST JUMPDEST DUP2 CALLDATALOAD PUSH2 0x3F6 DUP5 DUP3 PUSH1 0x20 DUP7 ADD PUSH2 0x391 JUMP JUMPDEST SWAP2 POP POP SWAP3 SWAP2 POP POP JUMP JUMPDEST PUSH0 DUP2 SWAP1 POP SWAP2 SWAP1 POP JUMP JUMPDEST PUSH2 0x411 DUP2 PUSH2 0x3FF JUMP JUMPDEST DUP2 EQ PUSH2 0x41B JUMPI PUSH0 DUP1 REVERT JUMPDEST POP JUMP JUMPDEST PUSH0 DUP2 CALLDATALOAD SWAP1 POP PUSH2 0x42C DUP2 PUSH2 0x408 JUMP JUMPDEST SWAP3 SWAP2 POP POP JUMP JUMPDEST PUSH0 DUP1 PUSH1 0x40 DUP4 DUP6 SUB SLT ISZERO PUSH2 0x448 JUMPI PUSH2 0x447 PUSH2 0x2BB JUMP JUMPDEST JUMPDEST PUSH0 DUP4 ADD CALLDATALOAD PUSH8 0xFFFFFFFFFFFFFFFF DUP2 GT ISZERO PUSH2 0x465 JUMPI PUSH2 0x464 PUSH2 0x2BF JUMP JUMPDEST JUMPDEST PUSH2 0x471 DUP6 DUP3 DUP7 ADD PUSH2 0x3D2 JUMP JUMPDEST SWAP3 POP POP PUSH1 0x20 PUSH2 0x482 DUP6 DUP3 DUP7 ADD PUSH2 0x41E JUMP JUMPDEST SWAP2 POP POP SWAP3 POP SWAP3 SWAP1 POP JUMP JUMPDEST PUSH0 PUSH1 0x20 DUP3 DUP5 SUB SLT ISZERO PUSH2 0x4A1 JUMPI PUSH2 0x4A0 PUSH2 0x2BB JUMP JUMPDEST JUMPDEST PUSH0 DUP3 ADD CALLDATALOAD PUSH8 0xFFFFFFFFFFFFFFFF DUP2 GT ISZERO PUSH2 0x4BE JUMPI PUSH2 0x4BD PUSH2 0x2BF JUMP JUMPDEST JUMPDEST PUSH2 0x4CA DUP5 DUP3 DUP6 ADD PUSH2 0x3D2 JUMP JUMPDEST SWAP2 POP POP SWAP3 SWAP2 POP POP JUMP JUMPDEST PUSH2 0x4DC DUP2 PUSH2 0x3FF JUMP JUMPDEST DUP3 MSTORE POP POP JUMP JUMPDEST PUSH0 PUSH1 0x20 DUP3 ADD SWAP1 POP PUSH2 0x4F5 PUSH0 DUP4 ADD DUP5 PUSH2 0x4D3 JUMP JUMPDEST SWAP3 SWAP2 POP POP JUMP JUMPDEST PUSH0 PUSH20 0xFFFFFFFFFFFFFFFFFFFFFFFFFFFFFFFFFFFFFFFF DUP3 AND SWAP1 POP SWAP2 SWAP1 POP JUMP JUMPDEST PUSH0 PUSH2 0x524 DUP3 PUSH2 0x4FB JUMP JUMPDEST SWAP1 POP SWAP2 SWAP1 POP JUMP JUMPDEST PUSH2 0x534 DUP2 PUSH2 0x51A JUMP JUMPDEST DUP2 EQ PUSH2 0x53E JUMPI PUSH0 DUP1 REVERT JUMPDEST POP JUMP JUMPDEST PUSH0 DUP2 CALLDATALOAD SWAP1 POP PUSH2 0x54F DUP2 PUSH2 0x52B JUMP JUMPDEST SWAP3 SWAP2 POP POP JUMP JUMPDEST PUSH0 PUSH1 0x20 DUP3 DUP5 SUB SLT ISZERO PUSH2 0x56A JUMPI PUSH2 0x569 PUSH2 0x2BB JUMP JUMPDEST JUMPDEST PUSH0 PUSH2 0x577 DUP5 DUP3 DUP6 ADD PUSH2 0x541 JUMP JUMPDEST SWAP2 POP POP SWAP3 SWAP2 POP POP JUMP JUMPDEST PUSH0 DUP2 MLOAD SWAP1 POP SWAP2 SWAP1 POP JUMP JUMPDEST PUSH0 DUP3 DUP3 MSTORE PUSH1 0x20 DUP3 ADD SWAP1 POP SWAP3 SWAP2 POP POP JUMP JUMPDEST DUP3 DUP2 DUP4 MCOPY PUSH0 DUP4 DUP4 ADD MSTORE POP POP POP JUMP JUMPDEST PUSH0 PUSH2 0x5B2 DUP3 PUSH2 0x580 JUMP JUMPDEST PUSH2 0x5BC DUP2 DUP6 PUSH2 0x58A JUMP JUMPDEST SWAP4 POP PUSH2 0x5CC DUP2 DUP6 PUSH1 0x20 DUP7 ADD PUSH2 0x59A JUMP JUMPDEST PUSH2 0x5D5 DUP2 PUSH2 0x2CB JUMP JUMPDEST DUP5 ADD SWAP2 POP POP SWAP3 SWAP2 POP POP JUMP JUMPDEST PUSH0 PUSH1 0x40 DUP3 ADD SWAP1 POP DUP2 DUP2 SUB PUSH0 DUP4 ADD MSTORE PUSH2 0x5F8 DUP2 DUP6 PUSH2 0x5A8 JUMP JUMPDEST SWAP1 POP PUSH2 0x607 PUSH1 0x20 DUP4 ADD DUP5 PUSH2 0x4D3 JUMP JUMPDEST SWAP4 SWAP3 POP POP POP JUMP JUMPDEST PUSH32 0x4E487B7100000000000000000000000000000000000000000000000000000000 PUSH0 MSTORE PUSH1 0x22 PUSH1 0x4 MSTORE PUSH1 0x24 PUSH0 REVERT JUMPDEST PUSH0 PUSH1 0x2 DUP3 DIV SWAP1 POP PUSH1 0x1 DUP3 AND DUP1 PUSH2 0x652 JUMPI PUSH1 0x7F DUP3 AND SWAP2 POP JUMPDEST PUSH1 0x20 DUP3 LT DUP2 SUB PUSH2 0x665 JUMPI PUSH2 0x664 PUSH2 0x60E JUMP JUMPDEST JUMPDEST POP SWAP2 SWAP1 POP JUMP JUMPDEST PUSH0 DUP2 SWAP1 POP DUP2 PUSH0 MSTORE PUSH1 0x20 PUSH0 KECCAK256 SWAP1 POP SWAP2 SWAP1 POP JUMP JUMPDEST PUSH0 PUSH1 0x20 PUSH1 0x1F DUP4 ADD DIV SWAP1 POP SWAP2 SWAP1 POP JUMP JUMPDEST PUSH0 DUP3 DUP3 SHL SWAP1 POP SWAP3 SWAP2 POP POP JUMP JUMPDEST PUSH0 PUSH1 0x8 DUP4 MUL PUSH2 0x6C7 PUSH32 0xFFFFFFFFFFFFFFFFFFFFFFFFFFFFFFFFFFFFFFFFFFFFFFFFFFFFFFFFFFFFFFFF DUP3 PUSH2 0x68C JUMP JUMPDEST PUSH2 0x6D1 DUP7 DUP4 PUSH2 0x68C JUMP JUMPDEST SWAP6 POP DUP1 NOT DUP5 AND SWAP4 POP DUP1 DUP7 AND DUP5 OR SWAP3 POP POP POP SWAP4 SWAP3 POP POP POP JUMP JUMPDEST PUSH0 DUP2 SWAP1 POP SWAP2 SWAP1 POP JUMP JUMPDEST PUSH0 PUSH2 0x70C PUSH2 0x707 PUSH2 0x702 DUP5 PUSH2 0x3FF JUMP JUMPDEST PUSH2 0x6E9 JUMP JUMPDEST PUSH2 0x3FF JUMP JUMPDEST SWAP1 POP SWAP2 SWAP1 POP JUMP JUMPDEST PUSH0 DUP2 SWAP1 POP SWAP2 SWAP1 POP JUMP JUMPDEST PUSH2 0x725 DUP4 PUSH2 0x6F2 JUMP JUMPDEST PUSH2 0x739 PUSH2 0x731 DUP3 PUSH2 0x713 JUMP JUMPDEST DUP5 DUP5 SLOAD PUSH2 0x698 JUMP JUMPDEST DUP3 SSTORE POP POP POP POP JUMP JUMPDEST PUSH0 SWAP1 JUMP JUMPDEST PUSH2 0x74D PUSH2 0x741 JUMP JUMPDEST PUSH2 0x758 DUP2 DUP5 DUP5 PUSH2 0x71C JUMP JUMPDEST POP POP POP JUMP JUMPDEST JUMPDEST DUP2 DUP2 LT ISZERO PUSH2 0x77B JUMPI PUSH2 0x770 PUSH0 DUP3 PUSH2 0x745 JUMP JUMPDEST PUSH1 0x1 DUP2 ADD SWAP1 POP PUSH2 0x75E JUMP JUMPDEST POP POP JUMP JUMPDEST PUSH1 0x1F DUP3 GT ISZERO PUSH2 0x7C0 JUMPI PUSH2 0x791 DUP2 PUSH2 0x66B JUMP JUMPDEST PUSH2 0x79A DUP5 PUSH2 0x67D JUMP JUMPDEST DUP2 ADD PUSH1 0x20 DUP6 LT ISZERO PUSH2 0x7A9 JUMPI DUP2 SWAP1 POP JUMPDEST PUSH2 0x7BD PUSH2 0x7B5 DUP6 PUSH2 0x67D JUMP JUMPDEST DUP4 ADD DUP3 PUSH2 0x75D JUMP JUMPDEST POP POP JUMPDEST POP POP POP JUMP JUMPDEST PUSH0 DUP3 DUP3 SHR SWAP1 POP SWAP3 SWAP2 POP POP JUMP JUMPDEST PUSH0 PUSH2 0x7E0 PUSH0 NOT DUP5 PUSH1 0x8 MUL PUSH2 0x7C5 JUMP JUMPDEST NOT DUP1 DUP4 AND SWAP2 POP POP SWAP3 SWAP2 POP POP JUMP JUMPDEST PUSH0 PUSH2 0x7F8 DUP4 DUP4 PUSH2 0x7D1 JUMP JUMPDEST SWAP2 POP DUP3 PUSH1 0x2 MUL DUP3 OR SWAP1 POP SWAP3 SWAP2 POP POP JUMP JUMPDEST PUSH2 0x811 DUP3 PUSH2 0x580 JUMP JUMPDEST PUSH8 0xFFFFFFFFFFFFFFFF DUP2 GT ISZERO PUSH2 0x82A JUMPI PUSH2 0x829 PUSH2 0x2DB JUMP JUMPDEST JUMPDEST PUSH2 0x834 DUP3 SLOAD PUSH2 0x63B JUMP JUMPDEST PUSH2 0x83F DUP3 DUP3 DUP6 PUSH2 0x77F JUMP JUMPDEST PUSH0 PUSH1 0x20 SWAP1 POP PUSH1 0x1F DUP4 GT PUSH1 0x1 DUP2 EQ PUSH2 0x870 JUMPI PUSH0 DUP5 ISZERO PUSH2 0x85E JUMPI DUP3 DUP8 ADD MLOAD SWAP1 POP JUMPDEST PUSH2 0x868 DUP6 DUP3 PUSH2 0x7ED JUMP JUMPDEST DUP7 SSTORE POP PUSH2 0x8CF JUMP JUMPDEST PUSH1 0x1F NOT DUP5 AND PUSH2 0x87E DUP7 PUSH2 0x66B JUMP JUMPDEST PUSH0 JUMPDEST DUP3 DUP2 LT ISZERO PUSH2 0x8A5 JUMPI DUP5 DUP10 ADD MLOAD DUP3 SSTORE PUSH1 0x1 DUP3 ADD SWAP2 POP PUSH1 0x20 DUP6 ADD SWAP5 POP PUSH1 0x20 DUP2 ADD SWAP1 POP PUSH2 0x880 JUMP JUMPDEST DUP7 DUP4 LT ISZERO PUSH2 0x8C2 JUMPI DUP5 DUP10 ADD MLOAD PUSH2 0x8BE PUSH1 0x1F DUP10 AND DUP3 PUSH2 0x7D1 JUMP JUMPDEST DUP4 SSTORE POP JUMPDEST PUSH1 0x1 PUSH1 0x2 DUP9 MUL ADD DUP9 SSTORE POP POP POP JUMPDEST POP POP POP POP POP POP JUMP JUMPDEST PUSH0 DUP2 SWAP1 POP SWAP3 SWAP2 POP POP JUMP JUMPDEST PUSH0 PUSH2 0x8EB DUP3 PUSH2 0x580 JUMP JUMPDEST PUSH2 0x8F5 DUP2 DUP6 PUSH2 0x8D7 JUMP JUMPDEST SWAP4 POP PUSH2 0x905 DUP2 DUP6 PUSH1 0x20 DUP7 ADD PUSH2 0x59A JUMP JUMPDEST DUP1 DUP5 ADD SWAP2 POP POP SWAP3 SWAP2 POP POP JUMP JUMPDEST PUSH0 PUSH2 0x91C DUP3 DUP5 PUSH2 0x8E1 JUMP JUMPDEST SWAP2 POP DUP2 SWAP1 POP SWAP3 SWAP2 POP POP JUMP INVALID LOG2 PUSH5 0x6970667358 0x22 SLT KECCAK256 BYTE MUL 0xDF 0xE1 0x2F NUMBER 0xEC PUSH7 0xDA2232A965F179 0xE8 LOG1 0xE7 CALLVALUE SGT SWAP14 0x2D PUSH22 0xB05191E0A50526FDCB64736F6C634300081A00330000 "
		},
		"gasEstimates": {
			"creation": {
				"codeDepositCost": "479400",
				"executionCost": "509",
				"totalCost": "479909"
			},
			"external": {
				"createUser(string,uint256)": "infinite",
				"getUserScore(string)": "infinite",
				"updateUserScore(string,uint256)": "infinite",
				"users(address)": "infinite"
			}
		},
		"methodIdentifiers": {
			"createUser(string,uint256)": "121ef243",
			"getUserScore(string)": "1c6120e8",
			"updateUserScore(string,uint256)": "4bc93968",
			"users(address)": "a87430ba"
		}
	},
	"abi": [
		{
			"inputs": [
				{
					"internalType": "string",
					"name": "_name",
					"type": "string"
				},
				{
					"internalType": "uint256",
					"name": "_age",
					"type": "uint256"
				}
			],
			"name": "createUser",
			"outputs": [],
			"stateMutability": "nonpayable",
			"type": "function"
		},
		{
			"inputs": [
				{
					"internalType": "string",
					"name": "_subject",
					"type": "string"
				}
			],
			"name": "getUserScore",
			"outputs": [
				{
					"internalType": "uint256",
					"name": "",
					"type": "uint256"
				}
			],
			"stateMutability": "view",
			"type": "function"
		},
		{
			"inputs": [
				{
					"internalType": "string",
					"name": "_subject",
					"type": "string"
				},
				{
					"internalType": "uint256",
					"name": "_score",
					"type": "uint256"
				}
			],
			"name": "updateUserScore",
			"outputs": [],
			"stateMutability": "nonpayable",
			"type": "function"
		},
		{
			"inputs": [
				{
					"internalType": "address",
					"name": "",
					"type": "address"
				}
			],
			"name": "users",
			"outputs": [
				{
					"internalType": "string",
					"name": "name",
					"type": "string"
				},
				{
					"internalType": "uint256",
					"name": "age",
					"type": "uint256"
				}
			],
			"stateMutability": "view",
			"type": "function"
		}
	]
}