{
	"data": {
		"bytecode": {
			"linkReferences": {
				"homework/library/IterableMapping.sol": {
					"IterableMapping": [
						{
							"length": 20,
							"start": 263
						},
						{
							"length": 20,
							"start": 370
						},
						{
							"length": 20,
							"start": 495
						},
						{
							"length": 20,
							"start": 603
						},
						{
							"length": 20,
							"start": 731
						},
						{
							"length": 20,
							"start": 856
						},
						{
							"length": 20,
							"start": 1039
						},
						{
							"length": 20,
							"start": 1214
						},
						{
							"length": 20,
							"start": 1368
						},
						{
							"length": 20,
							"start": 1517
						},
						{
							"length": 20,
							"start": 1639
						},
						{
							"length": 20,
							"start": 1667
						},
						{
							"length": 20,
							"start": 1873
						}
					]
				}
			},
			"object": "6080604052348015600e575f80fd5b50610bca8061001c5f395ff3fe608060405234801561000f575f80fd5b5060043610610055575f3560e01c806310eef3be1461005957806330bbcade146100755780637aa53ecc14610093578063cdc8a2e6146100af578063fbf83ffa146100df575b5f80fd5b610073600480360381019061006e91906107ff565b6100e9565b005b61007d610153565b60405161008a9190610839565b60405180910390f35b6100ad60048036038101906100a891906108ac565b6101d1565b005b6100c960048036038101906100c491906108ea565b61023c565b6040516100d69190610839565b60405180910390f35b6100e76102bc565b005b73__$c947f54886c40084e2a28a99aab0e311c4$__63bc2b405c5f33846040518463ffffffff1660e01b81526004016101249392919061093a565b5f6040518083038186803b15801561013a575f80fd5b505af415801561014c573d5f803e3d5ffd5b5050505050565b5f73__$c947f54886c40084e2a28a99aab0e311c4$__63732a2ccf5f336040518363ffffffff1660e01b815260040161018d92919061096f565b602060405180830381865af41580156101a8573d5f803e3d5ffd5b505050506040513d601f19601f820116820180604052508101906101cc91906109aa565b905090565b73__$c947f54886c40084e2a28a99aab0e311c4$__63bc2b405c5f84846040518463ffffffff1660e01b815260040161020c9392919061093a565b5f6040518083038186803b158015610222575f80fd5b505af4158015610234573d5f803e3d5ffd5b505050505050565b5f73__$c947f54886c40084e2a28a99aab0e311c4$__63732a2ccf5f846040518363ffffffff1660e01b815260040161027692919061096f565b602060405180830381865af4158015610291573d5f803e3d5ffd5b505050506040513d601f19601f820116820180604052508101906102b591906109aa565b9050919050565b5f73__$c947f54886c40084e2a28a99aab0e311c4$__63deb3d8965f6040518263ffffffff1660e01b81526004016102f491906109d5565b602060405180830381865af415801561030f573d5f803e3d5ffd5b505050506040513d601f19601f8201168201806040525081019061033391906109aa565b11156107c6575f73__$c947f54886c40084e2a28a99aab0e311c4$__63deb3d8965f6040518263ffffffff1660e01b815260040161037191906109d5565b602060405180830381865af415801561038c573d5f803e3d5ffd5b505050506040513d601f19601f820116820180604052508101906103b091906109aa565b116103f0576040517f08c379a00000000000000000000000000000000000000000000000000000000081526004016103e790610a48565b60405180910390fd5b5f73__$c947f54886c40084e2a28a99aab0e311c4$__63deb3d8965f6040518263ffffffff1660e01b815260040161042891906109d5565b602060405180830381865af4158015610443573d5f803e3d5ffd5b505050506040513d601f19601f8201168201806040525081019061046791906109aa565b90505f5b6001826104789190610a93565b8110156107c3575f5b8160018461048f9190610a93565b6104999190610a93565b8110156107b55773__$c947f54886c40084e2a28a99aab0e311c4$__63d1aa9e7e5f6001846104c89190610ac6565b6040518363ffffffff1660e01b81526004016104e5929190610af9565b602060405180830381865af4158015610500573d5f803e3d5ffd5b505050506040513d601f19601f820116820180604052508101906105249190610b34565b73ffffffffffffffffffffffffffffffffffffffff1673__$c947f54886c40084e2a28a99aab0e311c4$__63d1aa9e7e5f846040518363ffffffff1660e01b8152600401610573929190610af9565b602060405180830381865af415801561058e573d5f803e3d5ffd5b505050506040513d601f19601f820116820180604052508101906105b29190610b34565b73ffffffffffffffffffffffffffffffffffffffff1611156107a8575f73__$c947f54886c40084e2a28a99aab0e311c4$__63110868d65f846040518363ffffffff1660e01b8152600401610608929190610af9565b602060405180830381865af4158015610623573d5f803e3d5ffd5b505050506040513d601f19601f8201168201806040525081019061064791906109aa565b905073__$c947f54886c40084e2a28a99aab0e311c4$__637041e7b15f8473__$c947f54886c40084e2a28a99aab0e311c4$__63110868d65f60018961068d9190610ac6565b6040518363ffffffff1660e01b81526004016106aa929190610af9565b602060405180830381865af41580156106c5573d5f803e3d5ffd5b505050506040513d601f19601f820116820180604052508101906106e991906109aa565b6040518463ffffffff1660e01b815260040161070793929190610b5f565b5f6040518083038186803b15801561071d575f80fd5b505af415801561072f573d5f803e3d5ffd5b5050505073__$c947f54886c40084e2a28a99aab0e311c4$__637041e7b15f60018561075b9190610ac6565b846040518463ffffffff1660e01b815260040161077a93929190610b5f565b5f6040518083038186803b158015610790575f80fd5b505af41580156107a2573d5f803e3d5ffd5b50505050505b8080600101915050610481565b50808060010191505061046b565b50505b565b5f80fd5b5f819050919050565b6107de816107cc565b81146107e8575f80fd5b50565b5f813590506107f9816107d5565b92915050565b5f60208284031215610814576108136107c8565b5b5f610821848285016107eb565b91505092915050565b610833816107cc565b82525050565b5f60208201905061084c5f83018461082a565b92915050565b5f73ffffffffffffffffffffffffffffffffffffffff82169050919050565b5f61087b82610852565b9050919050565b61088b81610871565b8114610895575f80fd5b50565b5f813590506108a681610882565b92915050565b5f80604083850312156108c2576108c16107c8565b5b5f6108cf85828601610898565b92505060206108e0858286016107eb565b9150509250929050565b5f602082840312156108ff576108fe6107c8565b5b5f61090c84828501610898565b91505092915050565b8082525050565b61092581610871565b82525050565b610934816107cc565b82525050565b5f60608201905061094d5f830186610915565b61095a602083018561091c565b610967604083018461092b565b949350505050565b5f6040820190506109825f830185610915565b61098f602083018461091c565b9392505050565b5f815190506109a4816107d5565b92915050565b5f602082840312156109bf576109be6107c8565b5b5f6109cc84828501610996565b91505092915050565b5f6020820190506109e85f830184610915565b92915050565b5f82825260208201905092915050565b7f62616c616e636573206e656564203e20300000000000000000000000000000005f82015250565b5f610a326011836109ee565b9150610a3d826109fe565b602082019050919050565b5f6020820190508181035f830152610a5f81610a26565b9050919050565b7f4e487b71000000000000000000000000000000000000000000000000000000005f52601160045260245ffd5b5f610a9d826107cc565b9150610aa8836107cc565b9250828203905081811115610ac057610abf610a66565b5b92915050565b5f610ad0826107cc565b9150610adb836107cc565b9250828201905080821115610af357610af2610a66565b5b92915050565b5f604082019050610b0c5f830185610915565b610b19602083018461092b565b9392505050565b5f81519050610b2e81610882565b92915050565b5f60208284031215610b4957610b486107c8565b5b5f610b5684828501610b20565b91505092915050565b5f606082019050610b725f830186610915565b610b7f602083018561092b565b610b8c604083018461092b565b94935050505056fea2646970667358221220658da829f5f72f502634a7ddbd997764b7a4ae1ce5c59c1c09deeb08ffa098e964736f6c634300081a0033",
			"opcodes": "PUSH1 0x80 PUSH1 0x40 MSTORE CALLVALUE DUP1 ISZERO PUSH1 0xE JUMPI PUSH0 DUP1 REVERT JUMPDEST POP PUSH2 0xBCA DUP1 PUSH2 0x1C PUSH0 CODECOPY PUSH0 RETURN INVALID PUSH1 0x80 PUSH1 0x40 MSTORE CALLVALUE DUP1 ISZERO PUSH2 0xF JUMPI PUSH0 DUP1 REVERT JUMPDEST POP PUSH1 0x4 CALLDATASIZE LT PUSH2 0x55 JUMPI PUSH0 CALLDATALOAD PUSH1 0xE0 SHR DUP1 PUSH4 0x10EEF3BE EQ PUSH2 0x59 JUMPI DUP1 PUSH4 0x30BBCADE EQ PUSH2 0x75 JUMPI DUP1 PUSH4 0x7AA53ECC EQ PUSH2 0x93 JUMPI DUP1 PUSH4 0xCDC8A2E6 EQ PUSH2 0xAF JUMPI DUP1 PUSH4 0xFBF83FFA EQ PUSH2 0xDF JUMPI JUMPDEST PUSH0 DUP1 REVERT JUMPDEST PUSH2 0x73 PUSH1 0x4 DUP1 CALLDATASIZE SUB DUP2 ADD SWAP1 PUSH2 0x6E SWAP2 SWAP1 PUSH2 0x7FF JUMP JUMPDEST PUSH2 0xE9 JUMP JUMPDEST STOP JUMPDEST PUSH2 0x7D PUSH2 0x153 JUMP JUMPDEST PUSH1 0x40 MLOAD PUSH2 0x8A SWAP2 SWAP1 PUSH2 0x839 JUMP JUMPDEST PUSH1 0x40 MLOAD DUP1 SWAP2 SUB SWAP1 RETURN JUMPDEST PUSH2 0xAD PUSH1 0x4 DUP1 CALLDATASIZE SUB DUP2 ADD SWAP1 PUSH2 0xA8 SWAP2 SWAP1 PUSH2 0x8AC JUMP JUMPDEST PUSH2 0x1D1 JUMP JUMPDEST STOP JUMPDEST PUSH2 0xC9 PUSH1 0x4 DUP1 CALLDATASIZE SUB DUP2 ADD SWAP1 PUSH2 0xC4 SWAP2 SWAP1 PUSH2 0x8EA JUMP JUMPDEST PUSH2 0x23C JUMP JUMPDEST PUSH1 0x40 MLOAD PUSH2 0xD6 SWAP2 SWAP1 PUSH2 0x839 JUMP JUMPDEST PUSH1 0x40 MLOAD DUP1 SWAP2 SUB SWAP1 RETURN JUMPDEST PUSH2 0xE7 PUSH2 0x2BC JUMP JUMPDEST STOP JUMPDEST PUSH20 0x0 PUSH4 0xBC2B405C PUSH0 CALLER DUP5 PUSH1 0x40 MLOAD DUP5 PUSH4 0xFFFFFFFF AND PUSH1 0xE0 SHL DUP2 MSTORE PUSH1 0x4 ADD PUSH2 0x124 SWAP4 SWAP3 SWAP2 SWAP1 PUSH2 0x93A JUMP JUMPDEST PUSH0 PUSH1 0x40 MLOAD DUP1 DUP4 SUB DUP2 DUP7 DUP1 EXTCODESIZE ISZERO DUP1 ISZERO PUSH2 0x13A JUMPI PUSH0 DUP1 REVERT JUMPDEST POP GAS DELEGATECALL ISZERO DUP1 ISZERO PUSH2 0x14C JUMPI RETURNDATASIZE PUSH0 DUP1 RETURNDATACOPY RETURNDATASIZE PUSH0 REVERT JUMPDEST POP POP POP POP POP JUMP JUMPDEST PUSH0 PUSH20 0x0 PUSH4 0x732A2CCF PUSH0 CALLER PUSH1 0x40 MLOAD DUP4 PUSH4 0xFFFFFFFF AND PUSH1 0xE0 SHL DUP2 MSTORE PUSH1 0x4 ADD PUSH2 0x18D SWAP3 SWAP2 SWAP1 PUSH2 0x96F JUMP JUMPDEST PUSH1 0x20 PUSH1 0x40 MLOAD DUP1 DUP4 SUB DUP2 DUP7 GAS DELEGATECALL ISZERO DUP1 ISZERO PUSH2 0x1A8 JUMPI RETURNDATASIZE PUSH0 DUP1 RETURNDATACOPY RETURNDATASIZE PUSH0 REVERT JUMPDEST POP POP POP POP PUSH1 0x40 MLOAD RETURNDATASIZE PUSH1 0x1F NOT PUSH1 0x1F DUP3 ADD AND DUP3 ADD DUP1 PUSH1 0x40 MSTORE POP DUP2 ADD SWAP1 PUSH2 0x1CC SWAP2 SWAP1 PUSH2 0x9AA JUMP JUMPDEST SWAP1 POP SWAP1 JUMP JUMPDEST PUSH20 0x0 PUSH4 0xBC2B405C PUSH0 DUP5 DUP5 PUSH1 0x40 MLOAD DUP5 PUSH4 0xFFFFFFFF AND PUSH1 0xE0 SHL DUP2 MSTORE PUSH1 0x4 ADD PUSH2 0x20C SWAP4 SWAP3 SWAP2 SWAP1 PUSH2 0x93A JUMP JUMPDEST PUSH0 PUSH1 0x40 MLOAD DUP1 DUP4 SUB DUP2 DUP7 DUP1 EXTCODESIZE ISZERO DUP1 ISZERO PUSH2 0x222 JUMPI PUSH0 DUP1 REVERT JUMPDEST POP GAS DELEGATECALL ISZERO DUP1 ISZERO PUSH2 0x234 JUMPI RETURNDATASIZE PUSH0 DUP1 RETURNDATACOPY RETURNDATASIZE PUSH0 REVERT JUMPDEST POP POP POP POP POP POP JUMP JUMPDEST PUSH0 PUSH20 0x0 PUSH4 0x732A2CCF PUSH0 DUP5 PUSH1 0x40 MLOAD DUP4 PUSH4 0xFFFFFFFF AND PUSH1 0xE0 SHL DUP2 MSTORE PUSH1 0x4 ADD PUSH2 0x276 SWAP3 SWAP2 SWAP1 PUSH2 0x96F JUMP JUMPDEST PUSH1 0x20 PUSH1 0x40 MLOAD DUP1 DUP4 SUB DUP2 DUP7 GAS DELEGATECALL ISZERO DUP1 ISZERO PUSH2 0x291 JUMPI RETURNDATASIZE PUSH0 DUP1 RETURNDATACOPY RETURNDATASIZE PUSH0 REVERT JUMPDEST POP POP POP POP PUSH1 0x40 MLOAD RETURNDATASIZE PUSH1 0x1F NOT PUSH1 0x1F DUP3 ADD AND DUP3 ADD DUP1 PUSH1 0x40 MSTORE POP DUP2 ADD SWAP1 PUSH2 0x2B5 SWAP2 SWAP1 PUSH2 0x9AA JUMP JUMPDEST SWAP1 POP SWAP2 SWAP1 POP JUMP JUMPDEST PUSH0 PUSH20 0x0 PUSH4 0xDEB3D896 PUSH0 PUSH1 0x40 MLOAD DUP3 PUSH4 0xFFFFFFFF AND PUSH1 0xE0 SHL DUP2 MSTORE PUSH1 0x4 ADD PUSH2 0x2F4 SWAP2 SWAP1 PUSH2 0x9D5 JUMP JUMPDEST PUSH1 0x20 PUSH1 0x40 MLOAD DUP1 DUP4 SUB DUP2 DUP7 GAS DELEGATECALL ISZERO DUP1 ISZERO PUSH2 0x30F JUMPI RETURNDATASIZE PUSH0 DUP1 RETURNDATACOPY RETURNDATASIZE PUSH0 REVERT JUMPDEST POP POP POP POP PUSH1 0x40 MLOAD RETURNDATASIZE PUSH1 0x1F NOT PUSH1 0x1F DUP3 ADD AND DUP3 ADD DUP1 PUSH1 0x40 MSTORE POP DUP2 ADD SWAP1 PUSH2 0x333 SWAP2 SWAP1 PUSH2 0x9AA JUMP JUMPDEST GT ISZERO PUSH2 0x7C6 JUMPI PUSH0 PUSH20 0x0 PUSH4 0xDEB3D896 PUSH0 PUSH1 0x40 MLOAD DUP3 PUSH4 0xFFFFFFFF AND PUSH1 0xE0 SHL DUP2 MSTORE PUSH1 0x4 ADD PUSH2 0x371 SWAP2 SWAP1 PUSH2 0x9D5 JUMP JUMPDEST PUSH1 0x20 PUSH1 0x40 MLOAD DUP1 DUP4 SUB DUP2 DUP7 GAS DELEGATECALL ISZERO DUP1 ISZERO PUSH2 0x38C JUMPI RETURNDATASIZE PUSH0 DUP1 RETURNDATACOPY RETURNDATASIZE PUSH0 REVERT JUMPDEST POP POP POP POP PUSH1 0x40 MLOAD RETURNDATASIZE PUSH1 0x1F NOT PUSH1 0x1F DUP3 ADD AND DUP3 ADD DUP1 PUSH1 0x40 MSTORE POP DUP2 ADD SWAP1 PUSH2 0x3B0 SWAP2 SWAP1 PUSH2 0x9AA JUMP JUMPDEST GT PUSH2 0x3F0 JUMPI PUSH1 0x40 MLOAD PUSH32 0x8C379A000000000000000000000000000000000000000000000000000000000 DUP2 MSTORE PUSH1 0x4 ADD PUSH2 0x3E7 SWAP1 PUSH2 0xA48 JUMP JUMPDEST PUSH1 0x40 MLOAD DUP1 SWAP2 SUB SWAP1 REVERT JUMPDEST PUSH0 PUSH20 0x0 PUSH4 0xDEB3D896 PUSH0 PUSH1 0x40 MLOAD DUP3 PUSH4 0xFFFFFFFF AND PUSH1 0xE0 SHL DUP2 MSTORE PUSH1 0x4 ADD PUSH2 0x428 SWAP2 SWAP1 PUSH2 0x9D5 JUMP JUMPDEST PUSH1 0x20 PUSH1 0x40 MLOAD DUP1 DUP4 SUB DUP2 DUP7 GAS DELEGATECALL ISZERO DUP1 ISZERO PUSH2 0x443 JUMPI RETURNDATASIZE PUSH0 DUP1 RETURNDATACOPY RETURNDATASIZE PUSH0 REVERT JUMPDEST POP POP POP POP PUSH1 0x40 MLOAD RETURNDATASIZE PUSH1 0x1F NOT PUSH1 0x1F DUP3 ADD AND DUP3 ADD DUP1 PUSH1 0x40 MSTORE POP DUP2 ADD SWAP1 PUSH2 0x467 SWAP2 SWAP1 PUSH2 0x9AA JUMP JUMPDEST SWAP1 POP PUSH0 JUMPDEST PUSH1 0x1 DUP3 PUSH2 0x478 SWAP2 SWAP1 PUSH2 0xA93 JUMP JUMPDEST DUP2 LT ISZERO PUSH2 0x7C3 JUMPI PUSH0 JUMPDEST DUP2 PUSH1 0x1 DUP5 PUSH2 0x48F SWAP2 SWAP1 PUSH2 0xA93 JUMP JUMPDEST PUSH2 0x499 SWAP2 SWAP1 PUSH2 0xA93 JUMP JUMPDEST DUP2 LT ISZERO PUSH2 0x7B5 JUMPI PUSH20 0x0 PUSH4 0xD1AA9E7E PUSH0 PUSH1 0x1 DUP5 PUSH2 0x4C8 SWAP2 SWAP1 PUSH2 0xAC6 JUMP JUMPDEST PUSH1 0x40 MLOAD DUP4 PUSH4 0xFFFFFFFF AND PUSH1 0xE0 SHL DUP2 MSTORE PUSH1 0x4 ADD PUSH2 0x4E5 SWAP3 SWAP2 SWAP1 PUSH2 0xAF9 JUMP JUMPDEST PUSH1 0x20 PUSH1 0x40 MLOAD DUP1 DUP4 SUB DUP2 DUP7 GAS DELEGATECALL ISZERO DUP1 ISZERO PUSH2 0x500 JUMPI RETURNDATASIZE PUSH0 DUP1 RETURNDATACOPY RETURNDATASIZE PUSH0 REVERT JUMPDEST POP POP POP POP PUSH1 0x40 MLOAD RETURNDATASIZE PUSH1 0x1F NOT PUSH1 0x1F DUP3 ADD AND DUP3 ADD DUP1 PUSH1 0x40 MSTORE POP DUP2 ADD SWAP1 PUSH2 0x524 SWAP2 SWAP1 PUSH2 0xB34 JUMP JUMPDEST PUSH20 0xFFFFFFFFFFFFFFFFFFFFFFFFFFFFFFFFFFFFFFFF AND PUSH20 0x0 PUSH4 0xD1AA9E7E PUSH0 DUP5 PUSH1 0x40 MLOAD DUP4 PUSH4 0xFFFFFFFF AND PUSH1 0xE0 SHL DUP2 MSTORE PUSH1 0x4 ADD PUSH2 0x573 SWAP3 SWAP2 SWAP1 PUSH2 0xAF9 JUMP JUMPDEST PUSH1 0x20 PUSH1 0x40 MLOAD DUP1 DUP4 SUB DUP2 DUP7 GAS DELEGATECALL ISZERO DUP1 ISZERO PUSH2 0x58E JUMPI RETURNDATASIZE PUSH0 DUP1 RETURNDATACOPY RETURNDATASIZE PUSH0 REVERT JUMPDEST POP POP POP POP PUSH1 0x40 MLOAD RETURNDATASIZE PUSH1 0x1F NOT PUSH1 0x1F DUP3 ADD AND DUP3 ADD DUP1 PUSH1 0x40 MSTORE POP DUP2 ADD SWAP1 PUSH2 0x5B2 SWAP2 SWAP1 PUSH2 0xB34 JUMP JUMPDEST PUSH20 0xFFFFFFFFFFFFFFFFFFFFFFFFFFFFFFFFFFFFFFFF AND GT ISZERO PUSH2 0x7A8 JUMPI PUSH0 PUSH20 0x0 PUSH4 0x110868D6 PUSH0 DUP5 PUSH1 0x40 MLOAD DUP4 PUSH4 0xFFFFFFFF AND PUSH1 0xE0 SHL DUP2 MSTORE PUSH1 0x4 ADD PUSH2 0x608 SWAP3 SWAP2 SWAP1 PUSH2 0xAF9 JUMP JUMPDEST PUSH1 0x20 PUSH1 0x40 MLOAD DUP1 DUP4 SUB DUP2 DUP7 GAS DELEGATECALL ISZERO DUP1 ISZERO PUSH2 0x623 JUMPI RETURNDATASIZE PUSH0 DUP1 RETURNDATACOPY RETURNDATASIZE PUSH0 REVERT JUMPDEST POP POP POP POP PUSH1 0x40 MLOAD RETURNDATASIZE PUSH1 0x1F NOT PUSH1 0x1F DUP3 ADD AND DUP3 ADD DUP1 PUSH1 0x40 MSTORE POP DUP2 ADD SWAP1 PUSH2 0x647 SWAP2 SWAP1 PUSH2 0x9AA JUMP JUMPDEST SWAP1 POP PUSH20 0x0 PUSH4 0x7041E7B1 PUSH0 DUP5 PUSH20 0x0 PUSH4 0x110868D6 PUSH0 PUSH1 0x1 DUP10 PUSH2 0x68D SWAP2 SWAP1 PUSH2 0xAC6 JUMP JUMPDEST PUSH1 0x40 MLOAD DUP4 PUSH4 0xFFFFFFFF AND PUSH1 0xE0 SHL DUP2 MSTORE PUSH1 0x4 ADD PUSH2 0x6AA SWAP3 SWAP2 SWAP1 PUSH2 0xAF9 JUMP JUMPDEST PUSH1 0x20 PUSH1 0x40 MLOAD DUP1 DUP4 SUB DUP2 DUP7 GAS DELEGATECALL ISZERO DUP1 ISZERO PUSH2 0x6C5 JUMPI RETURNDATASIZE PUSH0 DUP1 RETURNDATACOPY RETURNDATASIZE PUSH0 REVERT JUMPDEST POP POP POP POP PUSH1 0x40 MLOAD RETURNDATASIZE PUSH1 0x1F NOT PUSH1 0x1F DUP3 ADD AND DUP3 ADD DUP1 PUSH1 0x40 MSTORE POP DUP2 ADD SWAP1 PUSH2 0x6E9 SWAP2 SWAP1 PUSH2 0x9AA JUMP JUMPDEST PUSH1 0x40 MLOAD DUP5 PUSH4 0xFFFFFFFF AND PUSH1 0xE0 SHL DUP2 MSTORE PUSH1 0x4 ADD PUSH2 0x707 SWAP4 SWAP3 SWAP2 SWAP1 PUSH2 0xB5F JUMP JUMPDEST PUSH0 PUSH1 0x40 MLOAD DUP1 DUP4 SUB DUP2 DUP7 DUP1 EXTCODESIZE ISZERO DUP1 ISZERO PUSH2 0x71D JUMPI PUSH0 DUP1 REVERT JUMPDEST POP GAS DELEGATECALL ISZERO DUP1 ISZERO PUSH2 0x72F JUMPI RETURNDATASIZE PUSH0 DUP1 RETURNDATACOPY RETURNDATASIZE PUSH0 REVERT JUMPDEST POP POP POP POP PUSH20 0x0 PUSH4 0x7041E7B1 PUSH0 PUSH1 0x1 DUP6 PUSH2 0x75B SWAP2 SWAP1 PUSH2 0xAC6 JUMP JUMPDEST DUP5 PUSH1 0x40 MLOAD DUP5 PUSH4 0xFFFFFFFF AND PUSH1 0xE0 SHL DUP2 MSTORE PUSH1 0x4 ADD PUSH2 0x77A SWAP4 SWAP3 SWAP2 SWAP1 PUSH2 0xB5F JUMP JUMPDEST PUSH0 PUSH1 0x40 MLOAD DUP1 DUP4 SUB DUP2 DUP7 DUP1 EXTCODESIZE ISZERO DUP1 ISZERO PUSH2 0x790 JUMPI PUSH0 DUP1 REVERT JUMPDEST POP GAS DELEGATECALL ISZERO DUP1 ISZERO PUSH2 0x7A2 JUMPI RETURNDATASIZE PUSH0 DUP1 RETURNDATACOPY RETURNDATASIZE PUSH0 REVERT JUMPDEST POP POP POP POP POP JUMPDEST DUP1 DUP1 PUSH1 0x1 ADD SWAP2 POP POP PUSH2 0x481 JUMP JUMPDEST POP DUP1 DUP1 PUSH1 0x1 ADD SWAP2 POP POP PUSH2 0x46B JUMP JUMPDEST POP POP JUMPDEST JUMP JUMPDEST PUSH0 DUP1 REVERT JUMPDEST PUSH0 DUP2 SWAP1 POP SWAP2 SWAP1 POP JUMP JUMPDEST PUSH2 0x7DE DUP2 PUSH2 0x7CC JUMP JUMPDEST DUP2 EQ PUSH2 0x7E8 JUMPI PUSH0 DUP1 REVERT JUMPDEST POP JUMP JUMPDEST PUSH0 DUP2 CALLDATALOAD SWAP1 POP PUSH2 0x7F9 DUP2 PUSH2 0x7D5 JUMP JUMPDEST SWAP3 SWAP2 POP POP JUMP JUMPDEST PUSH0 PUSH1 0x20 DUP3 DUP5 SUB SLT ISZERO PUSH2 0x814 JUMPI PUSH2 0x813 PUSH2 0x7C8 JUMP JUMPDEST JUMPDEST PUSH0 PUSH2 0x821 DUP5 DUP3 DUP6 ADD PUSH2 0x7EB JUMP JUMPDEST SWAP2 POP POP SWAP3 SWAP2 POP POP JUMP JUMPDEST PUSH2 0x833 DUP2 PUSH2 0x7CC JUMP JUMPDEST DUP3 MSTORE POP POP JUMP JUMPDEST PUSH0 PUSH1 0x20 DUP3 ADD SWAP1 POP PUSH2 0x84C PUSH0 DUP4 ADD DUP5 PUSH2 0x82A JUMP JUMPDEST SWAP3 SWAP2 POP POP JUMP JUMPDEST PUSH0 PUSH20 0xFFFFFFFFFFFFFFFFFFFFFFFFFFFFFFFFFFFFFFFF DUP3 AND SWAP1 POP SWAP2 SWAP1 POP JUMP JUMPDEST PUSH0 PUSH2 0x87B DUP3 PUSH2 0x852 JUMP JUMPDEST SWAP1 POP SWAP2 SWAP1 POP JUMP JUMPDEST PUSH2 0x88B DUP2 PUSH2 0x871 JUMP JUMPDEST DUP2 EQ PUSH2 0x895 JUMPI PUSH0 DUP1 REVERT JUMPDEST POP JUMP JUMPDEST PUSH0 DUP2 CALLDATALOAD SWAP1 POP PUSH2 0x8A6 DUP2 PUSH2 0x882 JUMP JUMPDEST SWAP3 SWAP2 POP POP JUMP JUMPDEST PUSH0 DUP1 PUSH1 0x40 DUP4 DUP6 SUB SLT ISZERO PUSH2 0x8C2 JUMPI PUSH2 0x8C1 PUSH2 0x7C8 JUMP JUMPDEST JUMPDEST PUSH0 PUSH2 0x8CF DUP6 DUP3 DUP7 ADD PUSH2 0x898 JUMP JUMPDEST SWAP3 POP POP PUSH1 0x20 PUSH2 0x8E0 DUP6 DUP3 DUP7 ADD PUSH2 0x7EB JUMP JUMPDEST SWAP2 POP POP SWAP3 POP SWAP3 SWAP1 POP JUMP JUMPDEST PUSH0 PUSH1 0x20 DUP3 DUP5 SUB SLT ISZERO PUSH2 0x8FF JUMPI PUSH2 0x8FE PUSH2 0x7C8 JUMP JUMPDEST JUMPDEST PUSH0 PUSH2 0x90C DUP5 DUP3 DUP6 ADD PUSH2 0x898 JUMP JUMPDEST SWAP2 POP POP SWAP3 SWAP2 POP POP JUMP JUMPDEST DUP1 DUP3 MSTORE POP POP JUMP JUMPDEST PUSH2 0x925 DUP2 PUSH2 0x871 JUMP JUMPDEST DUP3 MSTORE POP POP JUMP JUMPDEST PUSH2 0x934 DUP2 PUSH2 0x7CC JUMP JUMPDEST DUP3 MSTORE POP POP JUMP JUMPDEST PUSH0 PUSH1 0x60 DUP3 ADD SWAP1 POP PUSH2 0x94D PUSH0 DUP4 ADD DUP7 PUSH2 0x915 JUMP JUMPDEST PUSH2 0x95A PUSH1 0x20 DUP4 ADD DUP6 PUSH2 0x91C JUMP JUMPDEST PUSH2 0x967 PUSH1 0x40 DUP4 ADD DUP5 PUSH2 0x92B JUMP JUMPDEST SWAP5 SWAP4 POP POP POP POP JUMP JUMPDEST PUSH0 PUSH1 0x40 DUP3 ADD SWAP1 POP PUSH2 0x982 PUSH0 DUP4 ADD DUP6 PUSH2 0x915 JUMP JUMPDEST PUSH2 0x98F PUSH1 0x20 DUP4 ADD DUP5 PUSH2 0x91C JUMP JUMPDEST SWAP4 SWAP3 POP POP POP JUMP JUMPDEST PUSH0 DUP2 MLOAD SWAP1 POP PUSH2 0x9A4 DUP2 PUSH2 0x7D5 JUMP JUMPDEST SWAP3 SWAP2 POP POP JUMP JUMPDEST PUSH0 PUSH1 0x20 DUP3 DUP5 SUB SLT ISZERO PUSH2 0x9BF JUMPI PUSH2 0x9BE PUSH2 0x7C8 JUMP JUMPDEST JUMPDEST PUSH0 PUSH2 0x9CC DUP5 DUP3 DUP6 ADD PUSH2 0x996 JUMP JUMPDEST SWAP2 POP POP SWAP3 SWAP2 POP POP JUMP JUMPDEST PUSH0 PUSH1 0x20 DUP3 ADD SWAP1 POP PUSH2 0x9E8 PUSH0 DUP4 ADD DUP5 PUSH2 0x915 JUMP JUMPDEST SWAP3 SWAP2 POP POP JUMP JUMPDEST PUSH0 DUP3 DUP3 MSTORE PUSH1 0x20 DUP3 ADD SWAP1 POP SWAP3 SWAP2 POP POP JUMP JUMPDEST PUSH32 0x62616C616E636573206E656564203E2030000000000000000000000000000000 PUSH0 DUP3 ADD MSTORE POP JUMP JUMPDEST PUSH0 PUSH2 0xA32 PUSH1 0x11 DUP4 PUSH2 0x9EE JUMP JUMPDEST SWAP2 POP PUSH2 0xA3D DUP3 PUSH2 0x9FE JUMP JUMPDEST PUSH1 0x20 DUP3 ADD SWAP1 POP SWAP2 SWAP1 POP JUMP JUMPDEST PUSH0 PUSH1 0x20 DUP3 ADD SWAP1 POP DUP2 DUP2 SUB PUSH0 DUP4 ADD MSTORE PUSH2 0xA5F DUP2 PUSH2 0xA26 JUMP JUMPDEST SWAP1 POP SWAP2 SWAP1 POP JUMP JUMPDEST PUSH32 0x4E487B7100000000000000000000000000000000000000000000000000000000 PUSH0 MSTORE PUSH1 0x11 PUSH1 0x4 MSTORE PUSH1 0x24 PUSH0 REVERT JUMPDEST PUSH0 PUSH2 0xA9D DUP3 PUSH2 0x7CC JUMP JUMPDEST SWAP2 POP PUSH2 0xAA8 DUP4 PUSH2 0x7CC JUMP JUMPDEST SWAP3 POP DUP3 DUP3 SUB SWAP1 POP DUP2 DUP2 GT ISZERO PUSH2 0xAC0 JUMPI PUSH2 0xABF PUSH2 0xA66 JUMP JUMPDEST JUMPDEST SWAP3 SWAP2 POP POP JUMP JUMPDEST PUSH0 PUSH2 0xAD0 DUP3 PUSH2 0x7CC JUMP JUMPDEST SWAP2 POP PUSH2 0xADB DUP4 PUSH2 0x7CC JUMP JUMPDEST SWAP3 POP DUP3 DUP3 ADD SWAP1 POP DUP1 DUP3 GT ISZERO PUSH2 0xAF3 JUMPI PUSH2 0xAF2 PUSH2 0xA66 JUMP JUMPDEST JUMPDEST SWAP3 SWAP2 POP POP JUMP JUMPDEST PUSH0 PUSH1 0x40 DUP3 ADD SWAP1 POP PUSH2 0xB0C PUSH0 DUP4 ADD DUP6 PUSH2 0x915 JUMP JUMPDEST PUSH2 0xB19 PUSH1 0x20 DUP4 ADD DUP5 PUSH2 0x92B JUMP JUMPDEST SWAP4 SWAP3 POP POP POP JUMP JUMPDEST PUSH0 DUP2 MLOAD SWAP1 POP PUSH2 0xB2E DUP2 PUSH2 0x882 JUMP JUMPDEST SWAP3 SWAP2 POP POP JUMP JUMPDEST PUSH0 PUSH1 0x20 DUP3 DUP5 SUB SLT ISZERO PUSH2 0xB49 JUMPI PUSH2 0xB48 PUSH2 0x7C8 JUMP JUMPDEST JUMPDEST PUSH0 PUSH2 0xB56 DUP5 DUP3 DUP6 ADD PUSH2 0xB20 JUMP JUMPDEST SWAP2 POP POP SWAP3 SWAP2 POP POP JUMP JUMPDEST PUSH0 PUSH1 0x60 DUP3 ADD SWAP1 POP PUSH2 0xB72 PUSH0 DUP4 ADD DUP7 PUSH2 0x915 JUMP JUMPDEST PUSH2 0xB7F PUSH1 0x20 DUP4 ADD DUP6 PUSH2 0x92B JUMP JUMPDEST PUSH2 0xB8C PUSH1 0x40 DUP4 ADD DUP5 PUSH2 0x92B JUMP JUMPDEST SWAP5 SWAP4 POP POP POP POP JUMP INVALID LOG2 PUSH5 0x6970667358 0x22 SLT KECCAK256 PUSH6 0x8DA829F5F72F POP 0x26 CALLVALUE 0xA7 0xDD 0xBD SWAP10 PUSH24 0x64B7A4AE1CE5C59C1C09DEEB08FFA098E964736F6C634300 ADDMOD BYTE STOP CALLER "
		},
		"gasEstimates": {
			"creation": {
				"codeDepositCost": "603600",
				"executionCost": "636",
				"totalCost": "604236"
			},
			"external": {
				"addBalances(uint256)": "infinite",
				"addUserBalances(address,uint256)": "infinite",
				"queryBalances()": "infinite",
				"queryUserBalances(address)": "infinite",
				"sortUserBalances()": "infinite"
			}
		},
		"methodIdentifiers": {
			"addBalances(uint256)": "10eef3be",
			"addUserBalances(address,uint256)": "7aa53ecc",
			"queryBalances()": "30bbcade",
			"queryUserBalances(address)": "cdc8a2e6",
			"sortUserBalances()": "fbf83ffa"
		}
	},
	"abi": [
		{
			"inputs": [
				{
					"internalType": "uint256",
					"name": "newBalance",
					"type": "uint256"
				}
			],
			"name": "addBalances",
			"outputs": [],
			"stateMutability": "nonpayable",
			"type": "function"
		},
		{
			"inputs": [
				{
					"internalType": "address",
					"name": "userAddress",
					"type": "address"
				},
				{
					"internalType": "uint256",
					"name": "newBalance",
					"type": "uint256"
				}
			],
			"name": "addUserBalances",
			"outputs": [],
			"stateMutability": "nonpayable",
			"type": "function"
		},
		{
			"inputs": [],
			"name": "queryBalances",
			"outputs": [
				{
					"internalType": "uint256",
					"name": "",
					"type": "uint256"
				}
			],
			"stateMutability": "view",
			"type": "function"
		},
		{
			"inputs": [
				{
					"internalType": "address",
					"name": "userAddress",
					"type": "address"
				}
			],
			"name": "queryUserBalances",
			"outputs": [
				{
					"internalType": "uint256",
					"name": "",
					"type": "uint256"
				}
			],
			"stateMutability": "view",
			"type": "function"
		},
		{
			"inputs": [],
			"name": "sortUserBalances",
			"outputs": [],
			"stateMutability": "nonpayable",
			"type": "function"
		}
	]
}