{
	"data": {
		"bytecode": {
			"linkReferences": {},
			"object": "6080604052348015600e575f80fd5b506102338061001c5f395ff3fe608060405234801561000f575f80fd5b506004361061003e575f3560e01c806235921a146100425780636c1f222f1461006057806372a099b71461007e575b5f80fd5b61004a61009c565b6040516100579190610113565b60405180910390f35b6100686100ba565b6040516100759190610113565b60405180910390f35b6100866100da565b6040516100939190610113565b60405180910390f35b5f80608090505f6002826100b09190610159565b9050809250505090565b5f8060f090505f601090505f81836100d29190610195565b905050505090565b5f80600190505f6002826100ee91906101c9565b9050809250505090565b5f60ff82169050919050565b61010d816100f8565b82525050565b5f6020820190506101265f830184610104565b92915050565b7f4e487b71000000000000000000000000000000000000000000000000000000005f52601160045260245ffd5b5f610163826100f8565b915061016e836100f8565b925082820261017c816100f8565b915080821461018e5761018d61012c565b5b5092915050565b5f61019f826100f8565b91506101aa836100f8565b9250828201905060ff8111156101c3576101c261012c565b5b92915050565b5f6101d3826100f8565b91506101de836100f8565b9250828203905060ff8111156101f7576101f661012c565b5b9291505056fea26469706673582212207e0f7ee6a7b5084b3261ae875eefe7bd8018a9f56ebe30815bacfc97c716bd4564736f6c634300081a0033",
			"opcodes": "PUSH1 0x80 PUSH1 0x40 MSTORE CALLVALUE DUP1 ISZERO PUSH1 0xE JUMPI PUSH0 DUP1 REVERT JUMPDEST POP PUSH2 0x233 DUP1 PUSH2 0x1C PUSH0 CODECOPY PUSH0 RETURN INVALID PUSH1 0x80 PUSH1 0x40 MSTORE CALLVALUE DUP1 ISZERO PUSH2 0xF JUMPI PUSH0 DUP1 REVERT JUMPDEST POP PUSH1 0x4 CALLDATASIZE LT PUSH2 0x3E JUMPI PUSH0 CALLDATALOAD PUSH1 0xE0 SHR DUP1 PUSH3 0x35921A EQ PUSH2 0x42 JUMPI DUP1 PUSH4 0x6C1F222F EQ PUSH2 0x60 JUMPI DUP1 PUSH4 0x72A099B7 EQ PUSH2 0x7E JUMPI JUMPDEST PUSH0 DUP1 REVERT JUMPDEST PUSH2 0x4A PUSH2 0x9C JUMP JUMPDEST PUSH1 0x40 MLOAD PUSH2 0x57 SWAP2 SWAP1 PUSH2 0x113 JUMP JUMPDEST PUSH1 0x40 MLOAD DUP1 SWAP2 SUB SWAP1 RETURN JUMPDEST PUSH2 0x68 PUSH2 0xBA JUMP JUMPDEST PUSH1 0x40 MLOAD PUSH2 0x75 SWAP2 SWAP1 PUSH2 0x113 JUMP JUMPDEST PUSH1 0x40 MLOAD DUP1 SWAP2 SUB SWAP1 RETURN JUMPDEST PUSH2 0x86 PUSH2 0xDA JUMP JUMPDEST PUSH1 0x40 MLOAD PUSH2 0x93 SWAP2 SWAP1 PUSH2 0x113 JUMP JUMPDEST PUSH1 0x40 MLOAD DUP1 SWAP2 SUB SWAP1 RETURN JUMPDEST PUSH0 DUP1 PUSH1 0x80 SWAP1 POP PUSH0 PUSH1 0x2 DUP3 PUSH2 0xB0 SWAP2 SWAP1 PUSH2 0x159 JUMP JUMPDEST SWAP1 POP DUP1 SWAP3 POP POP POP SWAP1 JUMP JUMPDEST PUSH0 DUP1 PUSH1 0xF0 SWAP1 POP PUSH0 PUSH1 0x10 SWAP1 POP PUSH0 DUP2 DUP4 PUSH2 0xD2 SWAP2 SWAP1 PUSH2 0x195 JUMP JUMPDEST SWAP1 POP POP POP POP SWAP1 JUMP JUMPDEST PUSH0 DUP1 PUSH1 0x1 SWAP1 POP PUSH0 PUSH1 0x2 DUP3 PUSH2 0xEE SWAP2 SWAP1 PUSH2 0x1C9 JUMP JUMPDEST SWAP1 POP DUP1 SWAP3 POP POP POP SWAP1 JUMP JUMPDEST PUSH0 PUSH1 0xFF DUP3 AND SWAP1 POP SWAP2 SWAP1 POP JUMP JUMPDEST PUSH2 0x10D DUP2 PUSH2 0xF8 JUMP JUMPDEST DUP3 MSTORE POP POP JUMP JUMPDEST PUSH0 PUSH1 0x20 DUP3 ADD SWAP1 POP PUSH2 0x126 PUSH0 DUP4 ADD DUP5 PUSH2 0x104 JUMP JUMPDEST SWAP3 SWAP2 POP POP JUMP JUMPDEST PUSH32 0x4E487B7100000000000000000000000000000000000000000000000000000000 PUSH0 MSTORE PUSH1 0x11 PUSH1 0x4 MSTORE PUSH1 0x24 PUSH0 REVERT JUMPDEST PUSH0 PUSH2 0x163 DUP3 PUSH2 0xF8 JUMP JUMPDEST SWAP2 POP PUSH2 0x16E DUP4 PUSH2 0xF8 JUMP JUMPDEST SWAP3 POP DUP3 DUP3 MUL PUSH2 0x17C DUP2 PUSH2 0xF8 JUMP JUMPDEST SWAP2 POP DUP1 DUP3 EQ PUSH2 0x18E JUMPI PUSH2 0x18D PUSH2 0x12C JUMP JUMPDEST JUMPDEST POP SWAP3 SWAP2 POP POP JUMP JUMPDEST PUSH0 PUSH2 0x19F DUP3 PUSH2 0xF8 JUMP JUMPDEST SWAP2 POP PUSH2 0x1AA DUP4 PUSH2 0xF8 JUMP JUMPDEST SWAP3 POP DUP3 DUP3 ADD SWAP1 POP PUSH1 0xFF DUP2 GT ISZERO PUSH2 0x1C3 JUMPI PUSH2 0x1C2 PUSH2 0x12C JUMP JUMPDEST JUMPDEST SWAP3 SWAP2 POP POP JUMP JUMPDEST PUSH0 PUSH2 0x1D3 DUP3 PUSH2 0xF8 JUMP JUMPDEST SWAP2 POP PUSH2 0x1DE DUP4 PUSH2 0xF8 JUMP JUMPDEST SWAP3 POP DUP3 DUP3 SUB SWAP1 POP PUSH1 0xFF DUP2 GT ISZERO PUSH2 0x1F7 JUMPI PUSH2 0x1F6 PUSH2 0x12C JUMP JUMPDEST JUMPDEST SWAP3 SWAP2 POP POP JUMP INVALID LOG2 PUSH5 0x6970667358 0x22 SLT KECCAK256 PUSH31 0xF7EE6A7B5084B3261AE875EEFE7BD8018A9F56EBE30815BACFC97C716BD45 PUSH5 0x736F6C6343 STOP ADDMOD BYTE STOP CALLER "
		},
		"gasEstimates": {
			"creation": {
				"codeDepositCost": "112600",
				"executionCost": "157",
				"totalCost": "112757"
			},
			"external": {
				"add1()": "infinite",
				"add2()": "infinite",
				"sub1()": "infinite"
			}
		},
		"methodIdentifiers": {
			"add1()": "0035921a",
			"add2()": "6c1f222f",
			"sub1()": "72a099b7"
		}
	},
	"abi": [
		{
			"inputs": [],
			"name": "add1",
			"outputs": [
				{
					"internalType": "uint8",
					"name": "",
					"type": "uint8"
				}
			],
			"stateMutability": "pure",
			"type": "function"
		},
		{
			"inputs": [],
			"name": "add2",
			"outputs": [
				{
					"internalType": "uint8",
					"name": "",
					"type": "uint8"
				}
			],
			"stateMutability": "pure",
			"type": "function"
		},
		{
			"inputs": [],
			"name": "sub1",
			"outputs": [
				{
					"internalType": "uint8",
					"name": "",
					"type": "uint8"
				}
			],
			"stateMutability": "pure",
			"type": "function"
		}
	]
}