{
	"homework/02/变量/GAS优化/Registry.sol": {
		"Registry": {
			"abi": [
				{
					"inputs": [
						{
							"internalType": "uint256",
							"name": "",
							"type": "uint256"
						}
					],
					"name": "documents",
					"outputs": [
						{
							"internalType": "address",
							"name": "",
							"type": "address"
						}
					],
					"stateMutability": "view",
					"type": "function"
				},
				{
					"inputs": [
						{
							"internalType": "uint256",
							"name": "hash",
							"type": "uint256"
						}
					],
					"name": "register",
					"outputs": [],
					"stateMutability": "nonpayable",
					"type": "function"
				}
			],
			"devdoc": {
				"kind": "dev",
				"methods": {},
				"version": 1
			},
			"evm": {
				"assembly": "    /* \"homework/02/\\xe5\\x8f\\x98\\xe9\\x87\\x8f/GAS\\xe4\\xbc\\x98\\xe5\\x8c\\x96/Registry.sol\":138:299  contract Registry {... */\n  mstore(0x40, 0x80)\n  callvalue\n  dup1\n  iszero\n  tag_1\n  jumpi\n  0x00\n  dup1\n  revert\ntag_1:\n  pop\n  dataSize(sub_0)\n  dup1\n  dataOffset(sub_0)\n  0x00\n  codecopy\n  0x00\n  return\nstop\n\nsub_0: assembly {\n        /* \"homework/02/\\xe5\\x8f\\x98\\xe9\\x87\\x8f/GAS\\xe4\\xbc\\x98\\xe5\\x8c\\x96/Registry.sol\":138:299  contract Registry {... */\n      mstore(0x40, 0x80)\n      callvalue\n      dup1\n      iszero\n      tag_1\n      jumpi\n      0x00\n      dup1\n      revert\n    tag_1:\n      pop\n      jumpi(tag_2, lt(calldatasize, 0x04))\n      shr(0xe0, calldataload(0x00))\n      dup1\n      0xc2ed2b05\n      eq\n      tag_3\n      jumpi\n      dup1\n      0xf207564e\n      eq\n      tag_4\n      jumpi\n    tag_2:\n      0x00\n      dup1\n      revert\n        /* \"homework/02/\\xe5\\x8f\\x98\\xe9\\x87\\x8f/GAS\\xe4\\xbc\\x98\\xe5\\x8c\\x96/Registry.sol\":162:206  mapping(uint256 => address) public documents */\n    tag_3:\n      tag_5\n      0x04\n      dup1\n      calldatasize\n      sub\n      dup2\n      add\n      swap1\n      tag_6\n      swap2\n      swap1\n      tag_7\n      jump\t// in\n    tag_6:\n      tag_8\n      jump\t// in\n    tag_5:\n      mload(0x40)\n      tag_9\n      swap2\n      swap1\n      tag_10\n      jump\t// in\n    tag_9:\n      mload(0x40)\n      dup1\n      swap2\n      sub\n      swap1\n      return\n        /* \"homework/02/\\xe5\\x8f\\x98\\xe9\\x87\\x8f/GAS\\xe4\\xbc\\x98\\xe5\\x8c\\x96/Registry.sol\":213:297  function register(uint256 hash) public {... */\n    tag_4:\n      tag_11\n      0x04\n      dup1\n      calldatasize\n      sub\n      dup2\n      add\n      swap1\n      tag_12\n      swap2\n      swap1\n      tag_7\n      jump\t// in\n    tag_12:\n      tag_13\n      jump\t// in\n    tag_11:\n      stop\n        /* \"homework/02/\\xe5\\x8f\\x98\\xe9\\x87\\x8f/GAS\\xe4\\xbc\\x98\\xe5\\x8c\\x96/Registry.sol\":162:206  mapping(uint256 => address) public documents */\n    tag_8:\n      mstore(0x20, 0x00)\n      dup1\n      0x00\n      mstore\n      keccak256(0x00, 0x40)\n      0x00\n      swap2\n      pop\n      sload\n      swap1\n      0x0100\n      exp\n      swap1\n      div\n      0xffffffffffffffffffffffffffffffffffffffff\n      and\n      dup2\n      jump\t// out\n        /* \"homework/02/\\xe5\\x8f\\x98\\xe9\\x87\\x8f/GAS\\xe4\\xbc\\x98\\xe5\\x8c\\x96/Registry.sol\":213:297  function register(uint256 hash) public {... */\n    tag_13:\n        /* \"homework/02/\\xe5\\x8f\\x98\\xe9\\x87\\x8f/GAS\\xe4\\xbc\\x98\\xe5\\x8c\\x96/Registry.sol\":280:290  msg.sender */\n      caller\n        /* \"homework/02/\\xe5\\x8f\\x98\\xe9\\x87\\x8f/GAS\\xe4\\xbc\\x98\\xe5\\x8c\\x96/Registry.sol\":262:271  documents */\n      0x00\n        /* \"homework/02/\\xe5\\x8f\\x98\\xe9\\x87\\x8f/GAS\\xe4\\xbc\\x98\\xe5\\x8c\\x96/Registry.sol\":262:277  documents[hash] */\n      dup1\n        /* \"homework/02/\\xe5\\x8f\\x98\\xe9\\x87\\x8f/GAS\\xe4\\xbc\\x98\\xe5\\x8c\\x96/Registry.sol\":272:276  hash */\n      dup4\n        /* \"homework/02/\\xe5\\x8f\\x98\\xe9\\x87\\x8f/GAS\\xe4\\xbc\\x98\\xe5\\x8c\\x96/Registry.sol\":262:277  documents[hash] */\n      dup2\n      mstore\n      0x20\n      add\n      swap1\n      dup2\n      mstore\n      0x20\n      add\n      0x00\n      keccak256\n      0x00\n        /* \"homework/02/\\xe5\\x8f\\x98\\xe9\\x87\\x8f/GAS\\xe4\\xbc\\x98\\xe5\\x8c\\x96/Registry.sol\":262:290  documents[hash] = msg.sender */\n      0x0100\n      exp\n      dup2\n      sload\n      dup2\n      0xffffffffffffffffffffffffffffffffffffffff\n      mul\n      not\n      and\n      swap1\n      dup4\n      0xffffffffffffffffffffffffffffffffffffffff\n      and\n      mul\n      or\n      swap1\n      sstore\n      pop\n        /* \"homework/02/\\xe5\\x8f\\x98\\xe9\\x87\\x8f/GAS\\xe4\\xbc\\x98\\xe5\\x8c\\x96/Registry.sol\":213:297  function register(uint256 hash) public {... */\n      pop\n      jump\t// out\n        /* \"#utility.yul\":88:205   */\n    tag_16:\n        /* \"#utility.yul\":197:198   */\n      0x00\n        /* \"#utility.yul\":194:195   */\n      dup1\n        /* \"#utility.yul\":187:199   */\n      revert\n        /* \"#utility.yul\":334:411   */\n    tag_18:\n        /* \"#utility.yul\":371:378   */\n      0x00\n        /* \"#utility.yul\":400:405   */\n      dup2\n        /* \"#utility.yul\":389:405   */\n      swap1\n      pop\n        /* \"#utility.yul\":334:411   */\n      swap2\n      swap1\n      pop\n      jump\t// out\n        /* \"#utility.yul\":417:539   */\n    tag_19:\n        /* \"#utility.yul\":490:514   */\n      tag_30\n        /* \"#utility.yul\":508:513   */\n      dup2\n        /* \"#utility.yul\":490:514   */\n      tag_18\n      jump\t// in\n    tag_30:\n        /* \"#utility.yul\":483:488   */\n      dup2\n        /* \"#utility.yul\":480:515   */\n      eq\n        /* \"#utility.yul\":470:533   */\n      tag_31\n      jumpi\n        /* \"#utility.yul\":529:530   */\n      0x00\n        /* \"#utility.yul\":526:527   */\n      dup1\n        /* \"#utility.yul\":519:531   */\n      revert\n        /* \"#utility.yul\":470:533   */\n    tag_31:\n        /* \"#utility.yul\":417:539   */\n      pop\n      jump\t// out\n        /* \"#utility.yul\":545:684   */\n    tag_20:\n        /* \"#utility.yul\":591:596   */\n      0x00\n        /* \"#utility.yul\":629:635   */\n      dup2\n        /* \"#utility.yul\":616:636   */\n      calldataload\n        /* \"#utility.yul\":607:636   */\n      swap1\n      pop\n        /* \"#utility.yul\":645:678   */\n      tag_33\n        /* \"#utility.yul\":672:677   */\n      dup2\n        /* \"#utility.yul\":645:678   */\n      tag_19\n      jump\t// in\n    tag_33:\n        /* \"#utility.yul\":545:684   */\n      swap3\n      swap2\n      pop\n      pop\n      jump\t// out\n        /* \"#utility.yul\":690:1019   */\n    tag_7:\n        /* \"#utility.yul\":749:755   */\n      0x00\n        /* \"#utility.yul\":798:800   */\n      0x20\n        /* \"#utility.yul\":786:795   */\n      dup3\n        /* \"#utility.yul\":777:784   */\n      dup5\n        /* \"#utility.yul\":773:796   */\n      sub\n        /* \"#utility.yul\":769:801   */\n      slt\n        /* \"#utility.yul\":766:885   */\n      iszero\n      tag_35\n      jumpi\n        /* \"#utility.yul\":804:883   */\n      tag_36\n      tag_16\n      jump\t// in\n    tag_36:\n        /* \"#utility.yul\":766:885   */\n    tag_35:\n        /* \"#utility.yul\":924:925   */\n      0x00\n        /* \"#utility.yul\":949:1002   */\n      tag_37\n        /* \"#utility.yul\":994:1001   */\n      dup5\n        /* \"#utility.yul\":985:991   */\n      dup3\n        /* \"#utility.yul\":974:983   */\n      dup6\n        /* \"#utility.yul\":970:992   */\n      add\n        /* \"#utility.yul\":949:1002   */\n      tag_20\n      jump\t// in\n    tag_37:\n        /* \"#utility.yul\":939:1002   */\n      swap2\n      pop\n        /* \"#utility.yul\":895:1012   */\n      pop\n        /* \"#utility.yul\":690:1019   */\n      swap3\n      swap2\n      pop\n      pop\n      jump\t// out\n        /* \"#utility.yul\":1025:1151   */\n    tag_21:\n        /* \"#utility.yul\":1062:1069   */\n      0x00\n        /* \"#utility.yul\":1102:1144   */\n      0xffffffffffffffffffffffffffffffffffffffff\n        /* \"#utility.yul\":1095:1100   */\n      dup3\n        /* \"#utility.yul\":1091:1145   */\n      and\n        /* \"#utility.yul\":1080:1145   */\n      swap1\n      pop\n        /* \"#utility.yul\":1025:1151   */\n      swap2\n      swap1\n      pop\n      jump\t// out\n        /* \"#utility.yul\":1157:1253   */\n    tag_22:\n        /* \"#utility.yul\":1194:1201   */\n      0x00\n        /* \"#utility.yul\":1223:1247   */\n      tag_40\n        /* \"#utility.yul\":1241:1246   */\n      dup3\n        /* \"#utility.yul\":1223:1247   */\n      tag_21\n      jump\t// in\n    tag_40:\n        /* \"#utility.yul\":1212:1247   */\n      swap1\n      pop\n        /* \"#utility.yul\":1157:1253   */\n      swap2\n      swap1\n      pop\n      jump\t// out\n        /* \"#utility.yul\":1259:1377   */\n    tag_23:\n        /* \"#utility.yul\":1346:1370   */\n      tag_42\n        /* \"#utility.yul\":1364:1369   */\n      dup2\n        /* \"#utility.yul\":1346:1370   */\n      tag_22\n      jump\t// in\n    tag_42:\n        /* \"#utility.yul\":1341:1344   */\n      dup3\n        /* \"#utility.yul\":1334:1371   */\n      mstore\n        /* \"#utility.yul\":1259:1377   */\n      pop\n      pop\n      jump\t// out\n        /* \"#utility.yul\":1383:1605   */\n    tag_10:\n        /* \"#utility.yul\":1476:1480   */\n      0x00\n        /* \"#utility.yul\":1514:1516   */\n      0x20\n        /* \"#utility.yul\":1503:1512   */\n      dup3\n        /* \"#utility.yul\":1499:1517   */\n      add\n        /* \"#utility.yul\":1491:1517   */\n      swap1\n      pop\n        /* \"#utility.yul\":1527:1598   */\n      tag_44\n        /* \"#utility.yul\":1595:1596   */\n      0x00\n        /* \"#utility.yul\":1584:1593   */\n      dup4\n        /* \"#utility.yul\":1580:1597   */\n      add\n        /* \"#utility.yul\":1571:1577   */\n      dup5\n        /* \"#utility.yul\":1527:1598   */\n      tag_23\n      jump\t// in\n    tag_44:\n        /* \"#utility.yul\":1383:1605   */\n      swap3\n      swap2\n      pop\n      pop\n      jump\t// out\n\n    auxdata: 0xa264697066735822122080248ce34bb5b260c2c6a7b77446e04adf5f765be541e8acfdabe07146f827a264736f6c634300081a0033\n}\n",
				"bytecode": {
					"linkReferences": {},
					"object": "6080604052348015600e575f80fd5b506101f48061001c5f395ff3fe608060405234801561000f575f80fd5b5060043610610034575f3560e01c8063c2ed2b0514610038578063f207564e14610068575b5f80fd5b610052600480360381019061004d919061013b565b610084565b60405161005f91906101a5565b60405180910390f35b610082600480360381019061007d919061013b565b6100b3565b005b5f602052805f5260405f205f915054906101000a900473ffffffffffffffffffffffffffffffffffffffff1681565b335f808381526020019081526020015f205f6101000a81548173ffffffffffffffffffffffffffffffffffffffff021916908373ffffffffffffffffffffffffffffffffffffffff16021790555050565b5f80fd5b5f819050919050565b61011a81610108565b8114610124575f80fd5b50565b5f8135905061013581610111565b92915050565b5f602082840312156101505761014f610104565b5b5f61015d84828501610127565b91505092915050565b5f73ffffffffffffffffffffffffffffffffffffffff82169050919050565b5f61018f82610166565b9050919050565b61019f81610185565b82525050565b5f6020820190506101b85f830184610196565b9291505056fea264697066735822122080248ce34bb5b260c2c6a7b77446e04adf5f765be541e8acfdabe07146f827a264736f6c634300081a0033",
					"opcodes": "PUSH1 0x80 PUSH1 0x40 MSTORE CALLVALUE DUP1 ISZERO PUSH1 0xE JUMPI PUSH0 DUP1 REVERT JUMPDEST POP PUSH2 0x1F4 DUP1 PUSH2 0x1C PUSH0 CODECOPY PUSH0 RETURN INVALID PUSH1 0x80 PUSH1 0x40 MSTORE CALLVALUE DUP1 ISZERO PUSH2 0xF JUMPI PUSH0 DUP1 REVERT JUMPDEST POP PUSH1 0x4 CALLDATASIZE LT PUSH2 0x34 JUMPI PUSH0 CALLDATALOAD PUSH1 0xE0 SHR DUP1 PUSH4 0xC2ED2B05 EQ PUSH2 0x38 JUMPI DUP1 PUSH4 0xF207564E EQ PUSH2 0x68 JUMPI JUMPDEST PUSH0 DUP1 REVERT JUMPDEST PUSH2 0x52 PUSH1 0x4 DUP1 CALLDATASIZE SUB DUP2 ADD SWAP1 PUSH2 0x4D SWAP2 SWAP1 PUSH2 0x13B JUMP JUMPDEST PUSH2 0x84 JUMP JUMPDEST PUSH1 0x40 MLOAD PUSH2 0x5F SWAP2 SWAP1 PUSH2 0x1A5 JUMP JUMPDEST PUSH1 0x40 MLOAD DUP1 SWAP2 SUB SWAP1 RETURN JUMPDEST PUSH2 0x82 PUSH1 0x4 DUP1 CALLDATASIZE SUB DUP2 ADD SWAP1 PUSH2 0x7D SWAP2 SWAP1 PUSH2 0x13B JUMP JUMPDEST PUSH2 0xB3 JUMP JUMPDEST STOP JUMPDEST PUSH0 PUSH1 0x20 MSTORE DUP1 PUSH0 MSTORE PUSH1 0x40 PUSH0 KECCAK256 PUSH0 SWAP2 POP SLOAD SWAP1 PUSH2 0x100 EXP SWAP1 DIV PUSH20 0xFFFFFFFFFFFFFFFFFFFFFFFFFFFFFFFFFFFFFFFF AND DUP2 JUMP JUMPDEST CALLER PUSH0 DUP1 DUP4 DUP2 MSTORE PUSH1 0x20 ADD SWAP1 DUP2 MSTORE PUSH1 0x20 ADD PUSH0 KECCAK256 PUSH0 PUSH2 0x100 EXP DUP2 SLOAD DUP2 PUSH20 0xFFFFFFFFFFFFFFFFFFFFFFFFFFFFFFFFFFFFFFFF MUL NOT AND SWAP1 DUP4 PUSH20 0xFFFFFFFFFFFFFFFFFFFFFFFFFFFFFFFFFFFFFFFF AND MUL OR SWAP1 SSTORE POP POP JUMP JUMPDEST PUSH0 DUP1 REVERT JUMPDEST PUSH0 DUP2 SWAP1 POP SWAP2 SWAP1 POP JUMP JUMPDEST PUSH2 0x11A DUP2 PUSH2 0x108 JUMP JUMPDEST DUP2 EQ PUSH2 0x124 JUMPI PUSH0 DUP1 REVERT JUMPDEST POP JUMP JUMPDEST PUSH0 DUP2 CALLDATALOAD SWAP1 POP PUSH2 0x135 DUP2 PUSH2 0x111 JUMP JUMPDEST SWAP3 SWAP2 POP POP JUMP JUMPDEST PUSH0 PUSH1 0x20 DUP3 DUP5 SUB SLT ISZERO PUSH2 0x150 JUMPI PUSH2 0x14F PUSH2 0x104 JUMP JUMPDEST JUMPDEST PUSH0 PUSH2 0x15D DUP5 DUP3 DUP6 ADD PUSH2 0x127 JUMP JUMPDEST SWAP2 POP POP SWAP3 SWAP2 POP POP JUMP JUMPDEST PUSH0 PUSH20 0xFFFFFFFFFFFFFFFFFFFFFFFFFFFFFFFFFFFFFFFF DUP3 AND SWAP1 POP SWAP2 SWAP1 POP JUMP JUMPDEST PUSH0 PUSH2 0x18F DUP3 PUSH2 0x166 JUMP JUMPDEST SWAP1 POP SWAP2 SWAP1 POP JUMP JUMPDEST PUSH2 0x19F DUP2 PUSH2 0x185 JUMP JUMPDEST DUP3 MSTORE POP POP JUMP JUMPDEST PUSH0 PUSH1 0x20 DUP3 ADD SWAP1 POP PUSH2 0x1B8 PUSH0 DUP4 ADD DUP5 PUSH2 0x196 JUMP JUMPDEST SWAP3 SWAP2 POP POP JUMP INVALID LOG2 PUSH5 0x6970667358 0x22 SLT KECCAK256 DUP1 0x24 DUP13 0xE3 0x4B 0xB5 0xB2 PUSH1 0xC2 0xC6 0xA7 0xB7 PUSH21 0x46E04ADF5F765BE541E8ACFDABE07146F827A26473 PUSH16 0x6C634300081A00330000000000000000 "
				},
				"gasEstimates": {
					"creation": {
						"codeDepositCost": "100000",
						"executionCost": "145",
						"totalCost": "100145"
					},
					"external": {
						"documents(uint256)": "2804",
						"register(uint256)": "24742"
					}
				},
				"methodIdentifiers": {
					"documents(uint256)": "c2ed2b05",
					"register(uint256)": "f207564e"
				}
			},
			"storageLayout": {
				"storage": [
					{
						"astId": 5,
						"contract": "homework/02/变量/GAS优化/Registry.sol:Registry",
						"label": "documents",
						"offset": 0,
						"slot": "0",
						"type": "t_mapping(t_uint256,t_address)"
					}
				],
				"types": {
					"t_address": {
						"encoding": "inplace",
						"label": "address",
						"numberOfBytes": "20"
					},
					"t_mapping(t_uint256,t_address)": {
						"encoding": "mapping",
						"key": "t_uint256",
						"label": "mapping(uint256 => address)",
						"numberOfBytes": "32",
						"value": "t_address"
					},
					"t_uint256": {
						"encoding": "inplace",
						"label": "uint256",
						"numberOfBytes": "32"
					}
				}
			},
			"userdoc": {
				"kind": "user",
				"methods": {},
				"version": 1
			}
		}
	}
}