{
	"homework/经典用例/EtherUnits.sol": {
		"EtherUnits": {
			"abi": [
				{
					"inputs": [],
					"name": "isOneEther",
					"outputs": [
						{
							"internalType": "bool",
							"name": "",
							"type": "bool"
						}
					],
					"stateMutability": "view",
					"type": "function"
				},
				{
					"inputs": [],
					"name": "isOneGwei",
					"outputs": [
						{
							"internalType": "bool",
							"name": "",
							"type": "bool"
						}
					],
					"stateMutability": "view",
					"type": "function"
				},
				{
					"inputs": [],
					"name": "isOneWei",
					"outputs": [
						{
							"internalType": "bool",
							"name": "",
							"type": "bool"
						}
					],
					"stateMutability": "view",
					"type": "function"
				},
				{
					"inputs": [],
					"name": "oneEther",
					"outputs": [
						{
							"internalType": "uint256",
							"name": "",
							"type": "uint256"
						}
					],
					"stateMutability": "view",
					"type": "function"
				},
				{
					"inputs": [],
					"name": "oneGwei",
					"outputs": [
						{
							"internalType": "uint256",
							"name": "",
							"type": "uint256"
						}
					],
					"stateMutability": "view",
					"type": "function"
				},
				{
					"inputs": [],
					"name": "oneWei",
					"outputs": [
						{
							"internalType": "uint256",
							"name": "",
							"type": "uint256"
						}
					],
					"stateMutability": "view",
					"type": "function"
				}
			],
			"devdoc": {
				"kind": "dev",
				"methods": {},
				"version": 1
			},
			"evm": {
				"assembly": "    /* \"homework/\\xe7\\xbb\\x8f\\xe5\\x85\\xb8\\xe7\\x94\\xa8\\xe4\\xbe\\x8b/EtherUnits.sol\":140:427  contract EtherUnits{... */\n  mstore(0x40, 0x80)\n    /* \"homework/\\xe7\\xbb\\x8f\\xe5\\x85\\xb8\\xe7\\x94\\xa8\\xe4\\xbe\\x8b/EtherUnits.sol\":190:195  1 wei */\n  0x01\n    /* \"homework/\\xe7\\xbb\\x8f\\xe5\\x85\\xb8\\xe7\\x94\\xa8\\xe4\\xbe\\x8b/EtherUnits.sol\":166:195  uint256 public oneWei = 1 wei */\n  0x00\n  sstore\n    /* \"homework/\\xe7\\xbb\\x8f\\xe5\\x85\\xb8\\xe7\\x94\\xa8\\xe4\\xbe\\x8b/EtherUnits.sol\":238:239  1 */\n  0x01\n    /* \"homework/\\xe7\\xbb\\x8f\\xe5\\x85\\xb8\\xe7\\x94\\xa8\\xe4\\xbe\\x8b/EtherUnits.sol\":228:234  oneWei */\n  sload(0x00)\n    /* \"homework/\\xe7\\xbb\\x8f\\xe5\\x85\\xb8\\xe7\\x94\\xa8\\xe4\\xbe\\x8b/EtherUnits.sol\":228:239  oneWei == 1 */\n  eq\n    /* \"homework/\\xe7\\xbb\\x8f\\xe5\\x85\\xb8\\xe7\\x94\\xa8\\xe4\\xbe\\x8b/EtherUnits.sol\":204:240  bool public isOneWei = (oneWei == 1) */\n  0x01\n  exp(0x0100, 0x00)\n  dup2\n  sload\n  dup2\n  0xff\n  mul\n  not\n  and\n  swap1\n  dup4\n  iszero\n  iszero\n  mul\n  or\n  swap1\n  sstore\n  pop\n    /* \"homework/\\xe7\\xbb\\x8f\\xe5\\x85\\xb8\\xe7\\x94\\xa8\\xe4\\xbe\\x8b/EtherUnits.sol\":274:280  1 gwei */\n  0x3b9aca00\n    /* \"homework/\\xe7\\xbb\\x8f\\xe5\\x85\\xb8\\xe7\\x94\\xa8\\xe4\\xbe\\x8b/EtherUnits.sol\":249:280  uint256 public oneGwei = 1 gwei */\n  0x02\n  sstore\n    /* \"homework/\\xe7\\xbb\\x8f\\xe5\\x85\\xb8\\xe7\\x94\\xa8\\xe4\\xbe\\x8b/EtherUnits.sol\":325:328  1e9 */\n  0x3b9aca00\n    /* \"homework/\\xe7\\xbb\\x8f\\xe5\\x85\\xb8\\xe7\\x94\\xa8\\xe4\\xbe\\x8b/EtherUnits.sol\":314:321  oneGwei */\n  sload(0x02)\n    /* \"homework/\\xe7\\xbb\\x8f\\xe5\\x85\\xb8\\xe7\\x94\\xa8\\xe4\\xbe\\x8b/EtherUnits.sol\":314:328  oneGwei == 1e9 */\n  eq\n    /* \"homework/\\xe7\\xbb\\x8f\\xe5\\x85\\xb8\\xe7\\x94\\xa8\\xe4\\xbe\\x8b/EtherUnits.sol\":289:329  bool public isOneGwei = (oneGwei == 1e9) */\n  0x03\n  exp(0x0100, 0x00)\n  dup2\n  sload\n  dup2\n  0xff\n  mul\n  not\n  and\n  swap1\n  dup4\n  iszero\n  iszero\n  mul\n  or\n  swap1\n  sstore\n  pop\n    /* \"homework/\\xe7\\xbb\\x8f\\xe5\\x85\\xb8\\xe7\\x94\\xa8\\xe4\\xbe\\x8b/EtherUnits.sol\":364:371  1 ether */\n  0x0de0b6b3a7640000\n    /* \"homework/\\xe7\\xbb\\x8f\\xe5\\x85\\xb8\\xe7\\x94\\xa8\\xe4\\xbe\\x8b/EtherUnits.sol\":338:371  uint256 public oneEther = 1 ether */\n  0x04\n  sstore\n    /* \"homework/\\xe7\\xbb\\x8f\\xe5\\x85\\xb8\\xe7\\x94\\xa8\\xe4\\xbe\\x8b/EtherUnits.sol\":418:422  1e18 */\n  0x0de0b6b3a7640000\n    /* \"homework/\\xe7\\xbb\\x8f\\xe5\\x85\\xb8\\xe7\\x94\\xa8\\xe4\\xbe\\x8b/EtherUnits.sol\":406:414  oneEther */\n  sload(0x04)\n    /* \"homework/\\xe7\\xbb\\x8f\\xe5\\x85\\xb8\\xe7\\x94\\xa8\\xe4\\xbe\\x8b/EtherUnits.sol\":406:422  oneEther == 1e18 */\n  eq\n    /* \"homework/\\xe7\\xbb\\x8f\\xe5\\x85\\xb8\\xe7\\x94\\xa8\\xe4\\xbe\\x8b/EtherUnits.sol\":380:423  bool public isOneEther = (oneEther == 1e18) */\n  0x05\n  exp(0x0100, 0x00)\n  dup2\n  sload\n  dup2\n  0xff\n  mul\n  not\n  and\n  swap1\n  dup4\n  iszero\n  iszero\n  mul\n  or\n  swap1\n  sstore\n  pop\n    /* \"homework/\\xe7\\xbb\\x8f\\xe5\\x85\\xb8\\xe7\\x94\\xa8\\xe4\\xbe\\x8b/EtherUnits.sol\":140:427  contract EtherUnits{... */\n  callvalue\n  dup1\n  iszero\n  tag_1\n  jumpi\n  0x00\n  dup1\n  revert\ntag_1:\n  pop\n  dataSize(sub_0)\n  dup1\n  dataOffset(sub_0)\n  0x00\n  codecopy\n  0x00\n  return\nstop\n\nsub_0: assembly {\n        /* \"homework/\\xe7\\xbb\\x8f\\xe5\\x85\\xb8\\xe7\\x94\\xa8\\xe4\\xbe\\x8b/EtherUnits.sol\":140:427  contract EtherUnits{... */\n      mstore(0x40, 0x80)\n      callvalue\n      dup1\n      iszero\n      tag_1\n      jumpi\n      0x00\n      dup1\n      revert\n    tag_1:\n      pop\n      jumpi(tag_2, lt(calldatasize, 0x04))\n      shr(0xe0, calldataload(0x00))\n      dup1\n      0x28dc556f\n      eq\n      tag_3\n      jumpi\n      dup1\n      0x481499c7\n      eq\n      tag_4\n      jumpi\n      dup1\n      0x4fb2e0be\n      eq\n      tag_5\n      jumpi\n      dup1\n      0x8e50b65c\n      eq\n      tag_6\n      jumpi\n      dup1\n      0xcf0f5d29\n      eq\n      tag_7\n      jumpi\n      dup1\n      0xd297a89f\n      eq\n      tag_8\n      jumpi\n    tag_2:\n      0x00\n      dup1\n      revert\n        /* \"homework/\\xe7\\xbb\\x8f\\xe5\\x85\\xb8\\xe7\\x94\\xa8\\xe4\\xbe\\x8b/EtherUnits.sol\":204:240  bool public isOneWei = (oneWei == 1) */\n    tag_3:\n      tag_9\n      tag_10\n      jump\t// in\n    tag_9:\n      mload(0x40)\n      tag_11\n      swap2\n      swap1\n      tag_12\n      jump\t// in\n    tag_11:\n      mload(0x40)\n      dup1\n      swap2\n      sub\n      swap1\n      return\n        /* \"homework/\\xe7\\xbb\\x8f\\xe5\\x85\\xb8\\xe7\\x94\\xa8\\xe4\\xbe\\x8b/EtherUnits.sol\":289:329  bool public isOneGwei = (oneGwei == 1e9) */\n    tag_4:\n      tag_13\n      tag_14\n      jump\t// in\n    tag_13:\n      mload(0x40)\n      tag_15\n      swap2\n      swap1\n      tag_12\n      jump\t// in\n    tag_15:\n      mload(0x40)\n      dup1\n      swap2\n      sub\n      swap1\n      return\n        /* \"homework/\\xe7\\xbb\\x8f\\xe5\\x85\\xb8\\xe7\\x94\\xa8\\xe4\\xbe\\x8b/EtherUnits.sol\":166:195  uint256 public oneWei = 1 wei */\n    tag_5:\n      tag_16\n      tag_17\n      jump\t// in\n    tag_16:\n      mload(0x40)\n      tag_18\n      swap2\n      swap1\n      tag_19\n      jump\t// in\n    tag_18:\n      mload(0x40)\n      dup1\n      swap2\n      sub\n      swap1\n      return\n        /* \"homework/\\xe7\\xbb\\x8f\\xe5\\x85\\xb8\\xe7\\x94\\xa8\\xe4\\xbe\\x8b/EtherUnits.sol\":249:280  uint256 public oneGwei = 1 gwei */\n    tag_6:\n      tag_20\n      tag_21\n      jump\t// in\n    tag_20:\n      mload(0x40)\n      tag_22\n      swap2\n      swap1\n      tag_19\n      jump\t// in\n    tag_22:\n      mload(0x40)\n      dup1\n      swap2\n      sub\n      swap1\n      return\n        /* \"homework/\\xe7\\xbb\\x8f\\xe5\\x85\\xb8\\xe7\\x94\\xa8\\xe4\\xbe\\x8b/EtherUnits.sol\":380:423  bool public isOneEther = (oneEther == 1e18) */\n    tag_7:\n      tag_23\n      tag_24\n      jump\t// in\n    tag_23:\n      mload(0x40)\n      tag_25\n      swap2\n      swap1\n      tag_12\n      jump\t// in\n    tag_25:\n      mload(0x40)\n      dup1\n      swap2\n      sub\n      swap1\n      return\n        /* \"homework/\\xe7\\xbb\\x8f\\xe5\\x85\\xb8\\xe7\\x94\\xa8\\xe4\\xbe\\x8b/EtherUnits.sol\":338:371  uint256 public oneEther = 1 ether */\n    tag_8:\n      tag_26\n      tag_27\n      jump\t// in\n    tag_26:\n      mload(0x40)\n      tag_28\n      swap2\n      swap1\n      tag_19\n      jump\t// in\n    tag_28:\n      mload(0x40)\n      dup1\n      swap2\n      sub\n      swap1\n      return\n        /* \"homework/\\xe7\\xbb\\x8f\\xe5\\x85\\xb8\\xe7\\x94\\xa8\\xe4\\xbe\\x8b/EtherUnits.sol\":204:240  bool public isOneWei = (oneWei == 1) */\n    tag_10:\n      0x01\n      0x00\n      swap1\n      sload\n      swap1\n      0x0100\n      exp\n      swap1\n      div\n      0xff\n      and\n      dup2\n      jump\t// out\n        /* \"homework/\\xe7\\xbb\\x8f\\xe5\\x85\\xb8\\xe7\\x94\\xa8\\xe4\\xbe\\x8b/EtherUnits.sol\":289:329  bool public isOneGwei = (oneGwei == 1e9) */\n    tag_14:\n      0x03\n      0x00\n      swap1\n      sload\n      swap1\n      0x0100\n      exp\n      swap1\n      div\n      0xff\n      and\n      dup2\n      jump\t// out\n        /* \"homework/\\xe7\\xbb\\x8f\\xe5\\x85\\xb8\\xe7\\x94\\xa8\\xe4\\xbe\\x8b/EtherUnits.sol\":166:195  uint256 public oneWei = 1 wei */\n    tag_17:\n      sload(0x00)\n      dup2\n      jump\t// out\n        /* \"homework/\\xe7\\xbb\\x8f\\xe5\\x85\\xb8\\xe7\\x94\\xa8\\xe4\\xbe\\x8b/EtherUnits.sol\":249:280  uint256 public oneGwei = 1 gwei */\n    tag_21:\n      sload(0x02)\n      dup2\n      jump\t// out\n        /* \"homework/\\xe7\\xbb\\x8f\\xe5\\x85\\xb8\\xe7\\x94\\xa8\\xe4\\xbe\\x8b/EtherUnits.sol\":380:423  bool public isOneEther = (oneEther == 1e18) */\n    tag_24:\n      0x05\n      0x00\n      swap1\n      sload\n      swap1\n      0x0100\n      exp\n      swap1\n      div\n      0xff\n      and\n      dup2\n      jump\t// out\n        /* \"homework/\\xe7\\xbb\\x8f\\xe5\\x85\\xb8\\xe7\\x94\\xa8\\xe4\\xbe\\x8b/EtherUnits.sol\":338:371  uint256 public oneEther = 1 ether */\n    tag_27:\n      sload(0x04)\n      dup2\n      jump\t// out\n        /* \"#utility.yul\":7:97   */\n    tag_29:\n        /* \"#utility.yul\":41:48   */\n      0x00\n        /* \"#utility.yul\":84:89   */\n      dup2\n        /* \"#utility.yul\":77:90   */\n      iszero\n        /* \"#utility.yul\":70:91   */\n      iszero\n        /* \"#utility.yul\":59:91   */\n      swap1\n      pop\n        /* \"#utility.yul\":7:97   */\n      swap2\n      swap1\n      pop\n      jump\t// out\n        /* \"#utility.yul\":103:212   */\n    tag_30:\n        /* \"#utility.yul\":184:205   */\n      tag_36\n        /* \"#utility.yul\":199:204   */\n      dup2\n        /* \"#utility.yul\":184:205   */\n      tag_29\n      jump\t// in\n    tag_36:\n        /* \"#utility.yul\":179:182   */\n      dup3\n        /* \"#utility.yul\":172:206   */\n      mstore\n        /* \"#utility.yul\":103:212   */\n      pop\n      pop\n      jump\t// out\n        /* \"#utility.yul\":218:428   */\n    tag_12:\n        /* \"#utility.yul\":305:309   */\n      0x00\n        /* \"#utility.yul\":343:345   */\n      0x20\n        /* \"#utility.yul\":332:341   */\n      dup3\n        /* \"#utility.yul\":328:346   */\n      add\n        /* \"#utility.yul\":320:346   */\n      swap1\n      pop\n        /* \"#utility.yul\":356:421   */\n      tag_38\n        /* \"#utility.yul\":418:419   */\n      0x00\n        /* \"#utility.yul\":407:416   */\n      dup4\n        /* \"#utility.yul\":403:420   */\n      add\n        /* \"#utility.yul\":394:400   */\n      dup5\n        /* \"#utility.yul\":356:421   */\n      tag_30\n      jump\t// in\n    tag_38:\n        /* \"#utility.yul\":218:428   */\n      swap3\n      swap2\n      pop\n      pop\n      jump\t// out\n        /* \"#utility.yul\":434:511   */\n    tag_31:\n        /* \"#utility.yul\":471:478   */\n      0x00\n        /* \"#utility.yul\":500:505   */\n      dup2\n        /* \"#utility.yul\":489:505   */\n      swap1\n      pop\n        /* \"#utility.yul\":434:511   */\n      swap2\n      swap1\n      pop\n      jump\t// out\n        /* \"#utility.yul\":517:635   */\n    tag_32:\n        /* \"#utility.yul\":604:628   */\n      tag_41\n        /* \"#utility.yul\":622:627   */\n      dup2\n        /* \"#utility.yul\":604:628   */\n      tag_31\n      jump\t// in\n    tag_41:\n        /* \"#utility.yul\":599:602   */\n      dup3\n        /* \"#utility.yul\":592:629   */\n      mstore\n        /* \"#utility.yul\":517:635   */\n      pop\n      pop\n      jump\t// out\n        /* \"#utility.yul\":641:863   */\n    tag_19:\n        /* \"#utility.yul\":734:738   */\n      0x00\n        /* \"#utility.yul\":772:774   */\n      0x20\n        /* \"#utility.yul\":761:770   */\n      dup3\n        /* \"#utility.yul\":757:775   */\n      add\n        /* \"#utility.yul\":749:775   */\n      swap1\n      pop\n        /* \"#utility.yul\":785:856   */\n      tag_43\n        /* \"#utility.yul\":853:854   */\n      0x00\n        /* \"#utility.yul\":842:851   */\n      dup4\n        /* \"#utility.yul\":838:855   */\n      add\n        /* \"#utility.yul\":829:835   */\n      dup5\n        /* \"#utility.yul\":785:856   */\n      tag_32\n      jump\t// in\n    tag_43:\n        /* \"#utility.yul\":641:863   */\n      swap3\n      swap2\n      pop\n      pop\n      jump\t// out\n\n    auxdata: 0xa264697066735822122082beadac4371813d4094fe4352c9c50972f8ee85c4c2e866696d2584b294723e64736f6c634300081a0033\n}\n",
				"bytecode": {
					"linkReferences": {},
					"object": "608060405260015f5560015f541460015f6101000a81548160ff021916908315150217905550633b9aca00600255633b9aca006002541460035f6101000a81548160ff021916908315150217905550670de0b6b3a7640000600455670de0b6b3a76400006004541460055f6101000a81548160ff0219169083151502179055503480156089575f80fd5b506101f9806100975f395ff3fe608060405234801561000f575f80fd5b5060043610610060575f3560e01c806328dc556f14610064578063481499c7146100825780634fb2e0be146100a05780638e50b65c146100be578063cf0f5d29146100dc578063d297a89f146100fa575b5f80fd5b61006c610118565b6040516100799190610179565b60405180910390f35b61008a61012a565b6040516100979190610179565b60405180910390f35b6100a861013c565b6040516100b591906101aa565b60405180910390f35b6100c6610141565b6040516100d391906101aa565b60405180910390f35b6100e4610147565b6040516100f19190610179565b60405180910390f35b610102610159565b60405161010f91906101aa565b60405180910390f35b60015f9054906101000a900460ff1681565b60035f9054906101000a900460ff1681565b5f5481565b60025481565b60055f9054906101000a900460ff1681565b60045481565b5f8115159050919050565b6101738161015f565b82525050565b5f60208201905061018c5f83018461016a565b92915050565b5f819050919050565b6101a481610192565b82525050565b5f6020820190506101bd5f83018461019b565b9291505056fea264697066735822122082beadac4371813d4094fe4352c9c50972f8ee85c4c2e866696d2584b294723e64736f6c634300081a0033",
					"opcodes": "PUSH1 0x80 PUSH1 0x40 MSTORE PUSH1 0x1 PUSH0 SSTORE PUSH1 0x1 PUSH0 SLOAD EQ PUSH1 0x1 PUSH0 PUSH2 0x100 EXP DUP2 SLOAD DUP2 PUSH1 0xFF MUL NOT AND SWAP1 DUP4 ISZERO ISZERO MUL OR SWAP1 SSTORE POP PUSH4 0x3B9ACA00 PUSH1 0x2 SSTORE PUSH4 0x3B9ACA00 PUSH1 0x2 SLOAD EQ PUSH1 0x3 PUSH0 PUSH2 0x100 EXP DUP2 SLOAD DUP2 PUSH1 0xFF MUL NOT AND SWAP1 DUP4 ISZERO ISZERO MUL OR SWAP1 SSTORE POP PUSH8 0xDE0B6B3A7640000 PUSH1 0x4 SSTORE PUSH8 0xDE0B6B3A7640000 PUSH1 0x4 SLOAD EQ PUSH1 0x5 PUSH0 PUSH2 0x100 EXP DUP2 SLOAD DUP2 PUSH1 0xFF MUL NOT AND SWAP1 DUP4 ISZERO ISZERO MUL OR SWAP1 SSTORE POP CALLVALUE DUP1 ISZERO PUSH1 0x89 JUMPI PUSH0 DUP1 REVERT JUMPDEST POP PUSH2 0x1F9 DUP1 PUSH2 0x97 PUSH0 CODECOPY PUSH0 RETURN INVALID PUSH1 0x80 PUSH1 0x40 MSTORE CALLVALUE DUP1 ISZERO PUSH2 0xF JUMPI PUSH0 DUP1 REVERT JUMPDEST POP PUSH1 0x4 CALLDATASIZE LT PUSH2 0x60 JUMPI PUSH0 CALLDATALOAD PUSH1 0xE0 SHR DUP1 PUSH4 0x28DC556F EQ PUSH2 0x64 JUMPI DUP1 PUSH4 0x481499C7 EQ PUSH2 0x82 JUMPI DUP1 PUSH4 0x4FB2E0BE EQ PUSH2 0xA0 JUMPI DUP1 PUSH4 0x8E50B65C EQ PUSH2 0xBE JUMPI DUP1 PUSH4 0xCF0F5D29 EQ PUSH2 0xDC JUMPI DUP1 PUSH4 0xD297A89F EQ PUSH2 0xFA JUMPI JUMPDEST PUSH0 DUP1 REVERT JUMPDEST PUSH2 0x6C PUSH2 0x118 JUMP JUMPDEST PUSH1 0x40 MLOAD PUSH2 0x79 SWAP2 SWAP1 PUSH2 0x179 JUMP JUMPDEST PUSH1 0x40 MLOAD DUP1 SWAP2 SUB SWAP1 RETURN JUMPDEST PUSH2 0x8A PUSH2 0x12A JUMP JUMPDEST PUSH1 0x40 MLOAD PUSH2 0x97 SWAP2 SWAP1 PUSH2 0x179 JUMP JUMPDEST PUSH1 0x40 MLOAD DUP1 SWAP2 SUB SWAP1 RETURN JUMPDEST PUSH2 0xA8 PUSH2 0x13C JUMP JUMPDEST PUSH1 0x40 MLOAD PUSH2 0xB5 SWAP2 SWAP1 PUSH2 0x1AA JUMP JUMPDEST PUSH1 0x40 MLOAD DUP1 SWAP2 SUB SWAP1 RETURN JUMPDEST PUSH2 0xC6 PUSH2 0x141 JUMP JUMPDEST PUSH1 0x40 MLOAD PUSH2 0xD3 SWAP2 SWAP1 PUSH2 0x1AA JUMP JUMPDEST PUSH1 0x40 MLOAD DUP1 SWAP2 SUB SWAP1 RETURN JUMPDEST PUSH2 0xE4 PUSH2 0x147 JUMP JUMPDEST PUSH1 0x40 MLOAD PUSH2 0xF1 SWAP2 SWAP1 PUSH2 0x179 JUMP JUMPDEST PUSH1 0x40 MLOAD DUP1 SWAP2 SUB SWAP1 RETURN JUMPDEST PUSH2 0x102 PUSH2 0x159 JUMP JUMPDEST PUSH1 0x40 MLOAD PUSH2 0x10F SWAP2 SWAP1 PUSH2 0x1AA JUMP JUMPDEST PUSH1 0x40 MLOAD DUP1 SWAP2 SUB SWAP1 RETURN JUMPDEST PUSH1 0x1 PUSH0 SWAP1 SLOAD SWAP1 PUSH2 0x100 EXP SWAP1 DIV PUSH1 0xFF AND DUP2 JUMP JUMPDEST PUSH1 0x3 PUSH0 SWAP1 SLOAD SWAP1 PUSH2 0x100 EXP SWAP1 DIV PUSH1 0xFF AND DUP2 JUMP JUMPDEST PUSH0 SLOAD DUP2 JUMP JUMPDEST PUSH1 0x2 SLOAD DUP2 JUMP JUMPDEST PUSH1 0x5 PUSH0 SWAP1 SLOAD SWAP1 PUSH2 0x100 EXP SWAP1 DIV PUSH1 0xFF AND DUP2 JUMP JUMPDEST PUSH1 0x4 SLOAD DUP2 JUMP JUMPDEST PUSH0 DUP2 ISZERO ISZERO SWAP1 POP SWAP2 SWAP1 POP JUMP JUMPDEST PUSH2 0x173 DUP2 PUSH2 0x15F JUMP JUMPDEST DUP3 MSTORE POP POP JUMP JUMPDEST PUSH0 PUSH1 0x20 DUP3 ADD SWAP1 POP PUSH2 0x18C PUSH0 DUP4 ADD DUP5 PUSH2 0x16A JUMP JUMPDEST SWAP3 SWAP2 POP POP JUMP JUMPDEST PUSH0 DUP2 SWAP1 POP SWAP2 SWAP1 POP JUMP JUMPDEST PUSH2 0x1A4 DUP2 PUSH2 0x192 JUMP JUMPDEST DUP3 MSTORE POP POP JUMP JUMPDEST PUSH0 PUSH1 0x20 DUP3 ADD SWAP1 POP PUSH2 0x1BD PUSH0 DUP4 ADD DUP5 PUSH2 0x19B JUMP JUMPDEST SWAP3 SWAP2 POP POP JUMP INVALID LOG2 PUSH5 0x6970667358 0x22 SLT KECCAK256 DUP3 0xBE 0xAD 0xAC NUMBER PUSH18 0x813D4094FE4352C9C50972F8EE85C4C2E866 PUSH10 0x6D2584B294723E64736F PUSH13 0x634300081A0033000000000000 "
				},
				"gasEstimates": {
					"creation": {
						"codeDepositCost": "101000",
						"executionCost": "145577",
						"totalCost": "246577"
					},
					"external": {
						"isOneEther()": "2532",
						"isOneGwei()": "2466",
						"isOneWei()": "2444",
						"oneEther()": "2513",
						"oneGwei()": "2469",
						"oneWei()": "2446"
					}
				},
				"methodIdentifiers": {
					"isOneEther()": "cf0f5d29",
					"isOneGwei()": "481499c7",
					"isOneWei()": "28dc556f",
					"oneEther()": "d297a89f",
					"oneGwei()": "8e50b65c",
					"oneWei()": "4fb2e0be"
				}
			},
			"storageLayout": {
				"storage": [
					{
						"astId": 4,
						"contract": "homework/经典用例/EtherUnits.sol:EtherUnits",
						"label": "oneWei",
						"offset": 0,
						"slot": "0",
						"type": "t_uint256"
					},
					{
						"astId": 10,
						"contract": "homework/经典用例/EtherUnits.sol:EtherUnits",
						"label": "isOneWei",
						"offset": 0,
						"slot": "1",
						"type": "t_bool"
					},
					{
						"astId": 13,
						"contract": "homework/经典用例/EtherUnits.sol:EtherUnits",
						"label": "oneGwei",
						"offset": 0,
						"slot": "2",
						"type": "t_uint256"
					},
					{
						"astId": 19,
						"contract": "homework/经典用例/EtherUnits.sol:EtherUnits",
						"label": "isOneGwei",
						"offset": 0,
						"slot": "3",
						"type": "t_bool"
					},
					{
						"astId": 22,
						"contract": "homework/经典用例/EtherUnits.sol:EtherUnits",
						"label": "oneEther",
						"offset": 0,
						"slot": "4",
						"type": "t_uint256"
					},
					{
						"astId": 28,
						"contract": "homework/经典用例/EtherUnits.sol:EtherUnits",
						"label": "isOneEther",
						"offset": 0,
						"slot": "5",
						"type": "t_bool"
					}
				],
				"types": {
					"t_bool": {
						"encoding": "inplace",
						"label": "bool",
						"numberOfBytes": "1"
					},
					"t_uint256": {
						"encoding": "inplace",
						"label": "uint256",
						"numberOfBytes": "32"
					}
				}
			},
			"userdoc": {
				"kind": "user",
				"methods": {},
				"version": 1
			}
		}
	}
}