{
	"data": {
		"bytecode": {
			"linkReferences": {},
			"object": "6080604052348015600e575f80fd5b50335f806101000a81548173ffffffffffffffffffffffffffffffffffffffff021916908373ffffffffffffffffffffffffffffffffffffffff1602179055506103748061005b5f395ff3fe608060405260043610610028575f3560e01c8063b01217f41461002c578063ed88c68e14610054575b5f80fd5b348015610037575f80fd5b50610052600480360381019061004d919061026f565b61005e565b005b61005c61014a565b005b5f8054906101000a900473ffffffffffffffffffffffffffffffffffffffff1673ffffffffffffffffffffffffffffffffffffffff163373ffffffffffffffffffffffffffffffffffffffff1603610146575f4790505f82905081811161013f578373ffffffffffffffffffffffffffffffffffffffff166108fc8390811502906040515f60405180830381858888f1935050505015610136577fda69a3259755abc8e7c16903db0bc5573df98cb30e1cf71216f24466a42a42a18482604051610129929190610317565b60405180910390a161013a565b5f80fd5b610143565b5f80fd5b50505b5050565b61015334610155565b565b600133908060018154018082558091505060019003905f5260205f20015f9091909190916101000a81548173ffffffffffffffffffffffffffffffffffffffff021916908373ffffffffffffffffffffffffffffffffffffffff160217905550600281908060018154018082558091505060019003905f5260205f20015f909190919091505550565b5f80fd5b5f73ffffffffffffffffffffffffffffffffffffffff82169050919050565b5f61020b826101e2565b9050919050565b61021b81610201565b8114610225575f80fd5b50565b5f8135905061023681610212565b92915050565b5f819050919050565b61024e8161023c565b8114610258575f80fd5b50565b5f8135905061026981610245565b92915050565b5f8060408385031215610285576102846101de565b5b5f61029285828601610228565b92505060206102a38582860161025b565b9150509250929050565b5f819050919050565b5f6102d06102cb6102c6846101e2565b6102ad565b6101e2565b9050919050565b5f6102e1826102b6565b9050919050565b5f6102f2826102d7565b9050919050565b610302816102e8565b82525050565b6103118161023c565b82525050565b5f60408201905061032a5f8301856102f9565b6103376020830184610308565b939250505056fea2646970667358221220b6623c2ee038a8a061797711fa6e17e5e7560b9e46ccd839f73e3102d8cb354164736f6c634300081a0033",
			"opcodes": "PUSH1 0x80 PUSH1 0x40 MSTORE CALLVALUE DUP1 ISZERO PUSH1 0xE JUMPI PUSH0 DUP1 REVERT JUMPDEST POP CALLER PUSH0 DUP1 PUSH2 0x100 EXP DUP2 SLOAD DUP2 PUSH20 0xFFFFFFFFFFFFFFFFFFFFFFFFFFFFFFFFFFFFFFFF MUL NOT AND SWAP1 DUP4 PUSH20 0xFFFFFFFFFFFFFFFFFFFFFFFFFFFFFFFFFFFFFFFF AND MUL OR SWAP1 SSTORE POP PUSH2 0x374 DUP1 PUSH2 0x5B PUSH0 CODECOPY PUSH0 RETURN INVALID PUSH1 0x80 PUSH1 0x40 MSTORE PUSH1 0x4 CALLDATASIZE LT PUSH2 0x28 JUMPI PUSH0 CALLDATALOAD PUSH1 0xE0 SHR DUP1 PUSH4 0xB01217F4 EQ PUSH2 0x2C JUMPI DUP1 PUSH4 0xED88C68E EQ PUSH2 0x54 JUMPI JUMPDEST PUSH0 DUP1 REVERT JUMPDEST CALLVALUE DUP1 ISZERO PUSH2 0x37 JUMPI PUSH0 DUP1 REVERT JUMPDEST POP PUSH2 0x52 PUSH1 0x4 DUP1 CALLDATASIZE SUB DUP2 ADD SWAP1 PUSH2 0x4D SWAP2 SWAP1 PUSH2 0x26F JUMP JUMPDEST PUSH2 0x5E JUMP JUMPDEST STOP JUMPDEST PUSH2 0x5C PUSH2 0x14A JUMP JUMPDEST STOP JUMPDEST PUSH0 DUP1 SLOAD SWAP1 PUSH2 0x100 EXP SWAP1 DIV PUSH20 0xFFFFFFFFFFFFFFFFFFFFFFFFFFFFFFFFFFFFFFFF AND PUSH20 0xFFFFFFFFFFFFFFFFFFFFFFFFFFFFFFFFFFFFFFFF AND CALLER PUSH20 0xFFFFFFFFFFFFFFFFFFFFFFFFFFFFFFFFFFFFFFFF AND SUB PUSH2 0x146 JUMPI PUSH0 SELFBALANCE SWAP1 POP PUSH0 DUP3 SWAP1 POP DUP2 DUP2 GT PUSH2 0x13F JUMPI DUP4 PUSH20 0xFFFFFFFFFFFFFFFFFFFFFFFFFFFFFFFFFFFFFFFF AND PUSH2 0x8FC DUP4 SWAP1 DUP2 ISZERO MUL SWAP1 PUSH1 0x40 MLOAD PUSH0 PUSH1 0x40 MLOAD DUP1 DUP4 SUB DUP2 DUP6 DUP9 DUP9 CALL SWAP4 POP POP POP POP ISZERO PUSH2 0x136 JUMPI PUSH32 0xDA69A3259755ABC8E7C16903DB0BC5573DF98CB30E1CF71216F24466A42A42A1 DUP5 DUP3 PUSH1 0x40 MLOAD PUSH2 0x129 SWAP3 SWAP2 SWAP1 PUSH2 0x317 JUMP JUMPDEST PUSH1 0x40 MLOAD DUP1 SWAP2 SUB SWAP1 LOG1 PUSH2 0x13A JUMP JUMPDEST PUSH0 DUP1 REVERT JUMPDEST PUSH2 0x143 JUMP JUMPDEST PUSH0 DUP1 REVERT JUMPDEST POP POP JUMPDEST POP POP JUMP JUMPDEST PUSH2 0x153 CALLVALUE PUSH2 0x155 JUMP JUMPDEST JUMP JUMPDEST PUSH1 0x1 CALLER SWAP1 DUP1 PUSH1 0x1 DUP2 SLOAD ADD DUP1 DUP3 SSTORE DUP1 SWAP2 POP POP PUSH1 0x1 SWAP1 SUB SWAP1 PUSH0 MSTORE PUSH1 0x20 PUSH0 KECCAK256 ADD PUSH0 SWAP1 SWAP2 SWAP1 SWAP2 SWAP1 SWAP2 PUSH2 0x100 EXP DUP2 SLOAD DUP2 PUSH20 0xFFFFFFFFFFFFFFFFFFFFFFFFFFFFFFFFFFFFFFFF MUL NOT AND SWAP1 DUP4 PUSH20 0xFFFFFFFFFFFFFFFFFFFFFFFFFFFFFFFFFFFFFFFF AND MUL OR SWAP1 SSTORE POP PUSH1 0x2 DUP2 SWAP1 DUP1 PUSH1 0x1 DUP2 SLOAD ADD DUP1 DUP3 SSTORE DUP1 SWAP2 POP POP PUSH1 0x1 SWAP1 SUB SWAP1 PUSH0 MSTORE PUSH1 0x20 PUSH0 KECCAK256 ADD PUSH0 SWAP1 SWAP2 SWAP1 SWAP2 SWAP1 SWAP2 POP SSTORE POP JUMP JUMPDEST PUSH0 DUP1 REVERT JUMPDEST PUSH0 PUSH20 0xFFFFFFFFFFFFFFFFFFFFFFFFFFFFFFFFFFFFFFFF DUP3 AND SWAP1 POP SWAP2 SWAP1 POP JUMP JUMPDEST PUSH0 PUSH2 0x20B DUP3 PUSH2 0x1E2 JUMP JUMPDEST SWAP1 POP SWAP2 SWAP1 POP JUMP JUMPDEST PUSH2 0x21B DUP2 PUSH2 0x201 JUMP JUMPDEST DUP2 EQ PUSH2 0x225 JUMPI PUSH0 DUP1 REVERT JUMPDEST POP JUMP JUMPDEST PUSH0 DUP2 CALLDATALOAD SWAP1 POP PUSH2 0x236 DUP2 PUSH2 0x212 JUMP JUMPDEST SWAP3 SWAP2 POP POP JUMP JUMPDEST PUSH0 DUP2 SWAP1 POP SWAP2 SWAP1 POP JUMP JUMPDEST PUSH2 0x24E DUP2 PUSH2 0x23C JUMP JUMPDEST DUP2 EQ PUSH2 0x258 JUMPI PUSH0 DUP1 REVERT JUMPDEST POP JUMP JUMPDEST PUSH0 DUP2 CALLDATALOAD SWAP1 POP PUSH2 0x269 DUP2 PUSH2 0x245 JUMP JUMPDEST SWAP3 SWAP2 POP POP JUMP JUMPDEST PUSH0 DUP1 PUSH1 0x40 DUP4 DUP6 SUB SLT ISZERO PUSH2 0x285 JUMPI PUSH2 0x284 PUSH2 0x1DE JUMP JUMPDEST JUMPDEST PUSH0 PUSH2 0x292 DUP6 DUP3 DUP7 ADD PUSH2 0x228 JUMP JUMPDEST SWAP3 POP POP PUSH1 0x20 PUSH2 0x2A3 DUP6 DUP3 DUP7 ADD PUSH2 0x25B JUMP JUMPDEST SWAP2 POP POP SWAP3 POP SWAP3 SWAP1 POP JUMP JUMPDEST PUSH0 DUP2 SWAP1 POP SWAP2 SWAP1 POP JUMP JUMPDEST PUSH0 PUSH2 0x2D0 PUSH2 0x2CB PUSH2 0x2C6 DUP5 PUSH2 0x1E2 JUMP JUMPDEST PUSH2 0x2AD JUMP JUMPDEST PUSH2 0x1E2 JUMP JUMPDEST SWAP1 POP SWAP2 SWAP1 POP JUMP JUMPDEST PUSH0 PUSH2 0x2E1 DUP3 PUSH2 0x2B6 JUMP JUMPDEST SWAP1 POP SWAP2 SWAP1 POP JUMP JUMPDEST PUSH0 PUSH2 0x2F2 DUP3 PUSH2 0x2D7 JUMP JUMPDEST SWAP1 POP SWAP2 SWAP1 POP JUMP JUMPDEST PUSH2 0x302 DUP2 PUSH2 0x2E8 JUMP JUMPDEST DUP3 MSTORE POP POP JUMP JUMPDEST PUSH2 0x311 DUP2 PUSH2 0x23C JUMP JUMPDEST DUP3 MSTORE POP POP JUMP JUMPDEST PUSH0 PUSH1 0x40 DUP3 ADD SWAP1 POP PUSH2 0x32A PUSH0 DUP4 ADD DUP6 PUSH2 0x2F9 JUMP JUMPDEST PUSH2 0x337 PUSH1 0x20 DUP4 ADD DUP5 PUSH2 0x308 JUMP JUMPDEST SWAP4 SWAP3 POP POP POP JUMP INVALID LOG2 PUSH5 0x6970667358 0x22 SLT KECCAK256 0xB6 PUSH3 0x3C2EE0 CODESIZE 0xA8 LOG0 PUSH2 0x7977 GT STATICCALL PUSH15 0x17E5E7560B9E46CCD839F73E3102D8 0xCB CALLDATALOAD COINBASE PUSH5 0x736F6C6343 STOP ADDMOD BYTE STOP CALLER "
		},
		"gasEstimates": {
			"creation": {
				"codeDepositCost": "176800",
				"executionCost": "24483",
				"totalCost": "201283"
			},
			"external": {
				"donate()": "95142",
				"moveFund(address,uint256)": "infinite"
			},
			"internal": {
				"addGiver(uint256)": "95009"
			}
		},
		"methodIdentifiers": {
			"donate()": "ed88c68e",
			"moveFund(address,uint256)": "b01217f4"
		}
	},
	"abi": [
		{
			"inputs": [],
			"stateMutability": "nonpayable",
			"type": "constructor"
		},
		{
			"anonymous": false,
			"inputs": [
				{
					"indexed": false,
					"internalType": "address",
					"name": "_to",
					"type": "address"
				},
				{
					"indexed": false,
					"internalType": "uint256",
					"name": "_amount",
					"type": "uint256"
				}
			],
			"name": "fundMoved",
			"type": "event"
		},
		{
			"inputs": [],
			"name": "donate",
			"outputs": [],
			"stateMutability": "payable",
			"type": "function"
		},
		{
			"inputs": [
				{
					"internalType": "address payable",
					"name": "_to",
					"type": "address"
				},
				{
					"internalType": "uint256",
					"name": "_amount",
					"type": "uint256"
				}
			],
			"name": "moveFund",
			"outputs": [],
			"stateMutability": "nonpayable",
			"type": "function"
		}
	]
}