{
	"homework/02/全局变量/Test.sol": {
		"Test": {
			"abi": [
				{
					"inputs": [
						{
							"internalType": "uint256",
							"name": "_unlockWeekTime",
							"type": "uint256"
						},
						{
							"internalType": "uint256",
							"name": "_unlockMonthTime",
							"type": "uint256"
						}
					],
					"stateMutability": "nonpayable",
					"type": "constructor"
				},
				{
					"inputs": [
						{
							"internalType": "bytes",
							"name": "encodeData",
							"type": "bytes"
						}
					],
					"name": "decode",
					"outputs": [
						{
							"internalType": "uint256",
							"name": "",
							"type": "uint256"
						},
						{
							"internalType": "address",
							"name": "",
							"type": "address"
						}
					],
					"stateMutability": "pure",
					"type": "function"
				},
				{
					"inputs": [],
					"name": "encode",
					"outputs": [
						{
							"internalType": "bytes",
							"name": "",
							"type": "bytes"
						}
					],
					"stateMutability": "pure",
					"type": "function"
				},
				{
					"inputs": [],
					"name": "getInfo",
					"outputs": [
						{
							"internalType": "uint256",
							"name": "",
							"type": "uint256"
						},
						{
							"internalType": "uint256",
							"name": "",
							"type": "uint256"
						},
						{
							"internalType": "address",
							"name": "",
							"type": "address"
						},
						{
							"internalType": "uint256",
							"name": "",
							"type": "uint256"
						}
					],
					"stateMutability": "view",
					"type": "function"
				},
				{
					"inputs": [],
					"name": "getReward",
					"outputs": [],
					"stateMutability": "view",
					"type": "function"
				},
				{
					"inputs": [],
					"name": "owner",
					"outputs": [
						{
							"internalType": "address",
							"name": "",
							"type": "address"
						}
					],
					"stateMutability": "view",
					"type": "function"
				},
				{
					"inputs": [],
					"name": "unlockMonthTime",
					"outputs": [
						{
							"internalType": "uint256",
							"name": "",
							"type": "uint256"
						}
					],
					"stateMutability": "view",
					"type": "function"
				},
				{
					"inputs": [],
					"name": "unlockWeekTime",
					"outputs": [
						{
							"internalType": "uint256",
							"name": "",
							"type": "uint256"
						}
					],
					"stateMutability": "view",
					"type": "function"
				}
			],
			"devdoc": {
				"kind": "dev",
				"methods": {},
				"version": 1
			},
			"evm": {
				"assembly": "    /* \"homework/02/\\xe5\\x85\\xa8\\xe5\\xb1\\x80\\xe5\\x8f\\x98\\xe9\\x87\\x8f/Test.sol\":140:1253  contract Test{... */\n  mstore(0x40, 0x80)\n    /* \"homework/02/\\xe5\\x85\\xa8\\xe5\\xb1\\x80\\xe5\\x8f\\x98\\xe9\\x87\\x8f/Test.sol\":264:537  constructor(uint256 _unlockWeekTime,uint256 _unlockMonthTime) {... */\n  callvalue\n  dup1\n  iszero\n  tag_1\n  jumpi\n  0x00\n  dup1\n  revert\ntag_1:\n  pop\n  mload(0x40)\n  sub(codesize, bytecodeSize)\n  dup1\n  bytecodeSize\n  dup4\n  codecopy\n  dup2\n  dup2\n  add\n  0x40\n  mstore\n  dup2\n  add\n  swap1\n  tag_2\n  swap2\n  swap1\n  tag_3\n  jump\t// in\ntag_2:\n    /* \"homework/02/\\xe5\\x85\\xa8\\xe5\\xb1\\x80\\xe5\\x8f\\x98\\xe9\\x87\\x8f/Test.sol\":345:355  msg.sender */\n  caller\n    /* \"homework/02/\\xe5\\x85\\xa8\\xe5\\xb1\\x80\\xe5\\x8f\\x98\\xe9\\x87\\x8f/Test.sol\":337:342  owner */\n  0x02\n  0x00\n    /* \"homework/02/\\xe5\\x85\\xa8\\xe5\\xb1\\x80\\xe5\\x8f\\x98\\xe9\\x87\\x8f/Test.sol\":337:355  owner = msg.sender */\n  0x0100\n  exp\n  dup2\n  sload\n  dup2\n  0xffffffffffffffffffffffffffffffffffffffff\n  mul\n  not\n  and\n  swap1\n  dup4\n  0xffffffffffffffffffffffffffffffffffffffff\n  and\n  mul\n  or\n  swap1\n  sstore\n  pop\n    /* \"homework/02/\\xe5\\x85\\xa8\\xe5\\xb1\\x80\\xe5\\x8f\\x98\\xe9\\x87\\x8f/Test.sol\":419:426  1 weeks */\n  0x093a80\n    /* \"homework/02/\\xe5\\x85\\xa8\\xe5\\xb1\\x80\\xe5\\x8f\\x98\\xe9\\x87\\x8f/Test.sol\":401:416  _unlockWeekTime */\n  dup3\n    /* \"homework/02/\\xe5\\x85\\xa8\\xe5\\xb1\\x80\\xe5\\x8f\\x98\\xe9\\x87\\x8f/Test.sol\":401:426  _unlockWeekTime * 1 weeks */\n  tag_6\n  swap2\n  swap1\n  tag_7\n  jump\t// in\ntag_6:\n    /* \"homework/02/\\xe5\\x85\\xa8\\xe5\\xb1\\x80\\xe5\\x8f\\x98\\xe9\\x87\\x8f/Test.sol\":383:398  block.timestamp */\n  timestamp\n    /* \"homework/02/\\xe5\\x85\\xa8\\xe5\\xb1\\x80\\xe5\\x8f\\x98\\xe9\\x87\\x8f/Test.sol\":383:426  block.timestamp + _unlockWeekTime * 1 weeks */\n  tag_8\n  swap2\n  swap1\n  tag_9\n  jump\t// in\ntag_8:\n    /* \"homework/02/\\xe5\\x85\\xa8\\xe5\\xb1\\x80\\xe5\\x8f\\x98\\xe9\\x87\\x8f/Test.sol\":366:380  unlockWeekTime */\n  0x00\n    /* \"homework/02/\\xe5\\x85\\xa8\\xe5\\xb1\\x80\\xe5\\x8f\\x98\\xe9\\x87\\x8f/Test.sol\":366:426  unlockWeekTime = block.timestamp + _unlockWeekTime * 1 weeks */\n  dup2\n  swap1\n  sstore\n  pop\n    /* \"homework/02/\\xe5\\x85\\xa8\\xe5\\xb1\\x80\\xe5\\x8f\\x98\\xe9\\x87\\x8f/Test.sol\":506:513  4 weeks */\n  0x24ea00\n    /* \"homework/02/\\xe5\\x85\\xa8\\xe5\\xb1\\x80\\xe5\\x8f\\x98\\xe9\\x87\\x8f/Test.sol\":487:503  _unlockMonthTime */\n  dup2\n    /* \"homework/02/\\xe5\\x85\\xa8\\xe5\\xb1\\x80\\xe5\\x8f\\x98\\xe9\\x87\\x8f/Test.sol\":487:513  _unlockMonthTime * 4 weeks */\n  tag_10\n  swap2\n  swap1\n  tag_7\n  jump\t// in\ntag_10:\n    /* \"homework/02/\\xe5\\x85\\xa8\\xe5\\xb1\\x80\\xe5\\x8f\\x98\\xe9\\x87\\x8f/Test.sol\":469:484  block.timestamp */\n  timestamp\n    /* \"homework/02/\\xe5\\x85\\xa8\\xe5\\xb1\\x80\\xe5\\x8f\\x98\\xe9\\x87\\x8f/Test.sol\":469:513  block.timestamp + _unlockMonthTime * 4 weeks */\n  tag_11\n  swap2\n  swap1\n  tag_9\n  jump\t// in\ntag_11:\n    /* \"homework/02/\\xe5\\x85\\xa8\\xe5\\xb1\\x80\\xe5\\x8f\\x98\\xe9\\x87\\x8f/Test.sol\":451:466  unlockMonthTime */\n  0x01\n    /* \"homework/02/\\xe5\\x85\\xa8\\xe5\\xb1\\x80\\xe5\\x8f\\x98\\xe9\\x87\\x8f/Test.sol\":451:513  unlockMonthTime = block.timestamp + _unlockMonthTime * 4 weeks */\n  dup2\n  swap1\n  sstore\n  pop\n    /* \"homework/02/\\xe5\\x85\\xa8\\xe5\\xb1\\x80\\xe5\\x8f\\x98\\xe9\\x87\\x8f/Test.sol\":264:537  constructor(uint256 _unlockWeekTime,uint256 _unlockMonthTime) {... */\n  pop\n  pop\n    /* \"homework/02/\\xe5\\x85\\xa8\\xe5\\xb1\\x80\\xe5\\x8f\\x98\\xe9\\x87\\x8f/Test.sol\":140:1253  contract Test{... */\n  jump(tag_12)\n    /* \"#utility.yul\":88:205   */\ntag_14:\n    /* \"#utility.yul\":197:198   */\n  0x00\n    /* \"#utility.yul\":194:195   */\n  dup1\n    /* \"#utility.yul\":187:199   */\n  revert\n    /* \"#utility.yul\":334:411   */\ntag_16:\n    /* \"#utility.yul\":371:378   */\n  0x00\n    /* \"#utility.yul\":400:405   */\n  dup2\n    /* \"#utility.yul\":389:405   */\n  swap1\n  pop\n    /* \"#utility.yul\":334:411   */\n  swap2\n  swap1\n  pop\n  jump\t// out\n    /* \"#utility.yul\":417:539   */\ntag_17:\n    /* \"#utility.yul\":490:514   */\n  tag_26\n    /* \"#utility.yul\":508:513   */\n  dup2\n    /* \"#utility.yul\":490:514   */\n  tag_16\n  jump\t// in\ntag_26:\n    /* \"#utility.yul\":483:488   */\n  dup2\n    /* \"#utility.yul\":480:515   */\n  eq\n    /* \"#utility.yul\":470:533   */\n  tag_27\n  jumpi\n    /* \"#utility.yul\":529:530   */\n  0x00\n    /* \"#utility.yul\":526:527   */\n  dup1\n    /* \"#utility.yul\":519:531   */\n  revert\n    /* \"#utility.yul\":470:533   */\ntag_27:\n    /* \"#utility.yul\":417:539   */\n  pop\n  jump\t// out\n    /* \"#utility.yul\":545:688   */\ntag_18:\n    /* \"#utility.yul\":602:607   */\n  0x00\n    /* \"#utility.yul\":633:639   */\n  dup2\n    /* \"#utility.yul\":627:640   */\n  mload\n    /* \"#utility.yul\":618:640   */\n  swap1\n  pop\n    /* \"#utility.yul\":649:682   */\n  tag_29\n    /* \"#utility.yul\":676:681   */\n  dup2\n    /* \"#utility.yul\":649:682   */\n  tag_17\n  jump\t// in\ntag_29:\n    /* \"#utility.yul\":545:688   */\n  swap3\n  swap2\n  pop\n  pop\n  jump\t// out\n    /* \"#utility.yul\":694:1201   */\ntag_3:\n    /* \"#utility.yul\":773:779   */\n  0x00\n    /* \"#utility.yul\":781:787   */\n  dup1\n    /* \"#utility.yul\":830:832   */\n  0x40\n    /* \"#utility.yul\":818:827   */\n  dup4\n    /* \"#utility.yul\":809:816   */\n  dup6\n    /* \"#utility.yul\":805:828   */\n  sub\n    /* \"#utility.yul\":801:833   */\n  slt\n    /* \"#utility.yul\":798:917   */\n  iszero\n  tag_31\n  jumpi\n    /* \"#utility.yul\":836:915   */\n  tag_32\n  tag_14\n  jump\t// in\ntag_32:\n    /* \"#utility.yul\":798:917   */\ntag_31:\n    /* \"#utility.yul\":956:957   */\n  0x00\n    /* \"#utility.yul\":981:1045   */\n  tag_33\n    /* \"#utility.yul\":1037:1044   */\n  dup6\n    /* \"#utility.yul\":1028:1034   */\n  dup3\n    /* \"#utility.yul\":1017:1026   */\n  dup7\n    /* \"#utility.yul\":1013:1035   */\n  add\n    /* \"#utility.yul\":981:1045   */\n  tag_18\n  jump\t// in\ntag_33:\n    /* \"#utility.yul\":971:1045   */\n  swap3\n  pop\n    /* \"#utility.yul\":927:1055   */\n  pop\n    /* \"#utility.yul\":1094:1096   */\n  0x20\n    /* \"#utility.yul\":1120:1184   */\n  tag_34\n    /* \"#utility.yul\":1176:1183   */\n  dup6\n    /* \"#utility.yul\":1167:1173   */\n  dup3\n    /* \"#utility.yul\":1156:1165   */\n  dup7\n    /* \"#utility.yul\":1152:1174   */\n  add\n    /* \"#utility.yul\":1120:1184   */\n  tag_18\n  jump\t// in\ntag_34:\n    /* \"#utility.yul\":1110:1184   */\n  swap2\n  pop\n    /* \"#utility.yul\":1065:1194   */\n  pop\n    /* \"#utility.yul\":694:1201   */\n  swap3\n  pop\n  swap3\n  swap1\n  pop\n  jump\t// out\n    /* \"#utility.yul\":1207:1387   */\ntag_19:\n    /* \"#utility.yul\":1255:1332   */\n  0x4e487b7100000000000000000000000000000000000000000000000000000000\n    /* \"#utility.yul\":1252:1253   */\n  0x00\n    /* \"#utility.yul\":1245:1333   */\n  mstore\n    /* \"#utility.yul\":1352:1356   */\n  0x11\n    /* \"#utility.yul\":1349:1350   */\n  0x04\n    /* \"#utility.yul\":1342:1357   */\n  mstore\n    /* \"#utility.yul\":1376:1380   */\n  0x24\n    /* \"#utility.yul\":1373:1374   */\n  0x00\n    /* \"#utility.yul\":1366:1381   */\n  revert\n    /* \"#utility.yul\":1393:1803   */\ntag_7:\n    /* \"#utility.yul\":1433:1440   */\n  0x00\n    /* \"#utility.yul\":1456:1476   */\n  tag_37\n    /* \"#utility.yul\":1474:1475   */\n  dup3\n    /* \"#utility.yul\":1456:1476   */\n  tag_16\n  jump\t// in\ntag_37:\n    /* \"#utility.yul\":1451:1476   */\n  swap2\n  pop\n    /* \"#utility.yul\":1490:1510   */\n  tag_38\n    /* \"#utility.yul\":1508:1509   */\n  dup4\n    /* \"#utility.yul\":1490:1510   */\n  tag_16\n  jump\t// in\ntag_38:\n    /* \"#utility.yul\":1485:1510   */\n  swap3\n  pop\n    /* \"#utility.yul\":1545:1546   */\n  dup3\n    /* \"#utility.yul\":1542:1543   */\n  dup3\n    /* \"#utility.yul\":1538:1547   */\n  mul\n    /* \"#utility.yul\":1567:1597   */\n  tag_39\n    /* \"#utility.yul\":1585:1596   */\n  dup2\n    /* \"#utility.yul\":1567:1597   */\n  tag_16\n  jump\t// in\ntag_39:\n    /* \"#utility.yul\":1556:1597   */\n  swap2\n  pop\n    /* \"#utility.yul\":1746:1747   */\n  dup3\n    /* \"#utility.yul\":1737:1744   */\n  dup3\n    /* \"#utility.yul\":1733:1748   */\n  div\n    /* \"#utility.yul\":1730:1731   */\n  dup5\n    /* \"#utility.yul\":1727:1749   */\n  eq\n    /* \"#utility.yul\":1707:1708   */\n  dup4\n    /* \"#utility.yul\":1700:1709   */\n  iszero\n    /* \"#utility.yul\":1680:1763   */\n  or\n    /* \"#utility.yul\":1657:1796   */\n  tag_40\n  jumpi\n    /* \"#utility.yul\":1776:1794   */\n  tag_41\n  tag_19\n  jump\t// in\ntag_41:\n    /* \"#utility.yul\":1657:1796   */\ntag_40:\n    /* \"#utility.yul\":1441:1803   */\n  pop\n    /* \"#utility.yul\":1393:1803   */\n  swap3\n  swap2\n  pop\n  pop\n  jump\t// out\n    /* \"#utility.yul\":1809:2000   */\ntag_9:\n    /* \"#utility.yul\":1849:1852   */\n  0x00\n    /* \"#utility.yul\":1868:1888   */\n  tag_43\n    /* \"#utility.yul\":1886:1887   */\n  dup3\n    /* \"#utility.yul\":1868:1888   */\n  tag_16\n  jump\t// in\ntag_43:\n    /* \"#utility.yul\":1863:1888   */\n  swap2\n  pop\n    /* \"#utility.yul\":1902:1922   */\n  tag_44\n    /* \"#utility.yul\":1920:1921   */\n  dup4\n    /* \"#utility.yul\":1902:1922   */\n  tag_16\n  jump\t// in\ntag_44:\n    /* \"#utility.yul\":1897:1922   */\n  swap3\n  pop\n    /* \"#utility.yul\":1945:1946   */\n  dup3\n    /* \"#utility.yul\":1942:1943   */\n  dup3\n    /* \"#utility.yul\":1938:1947   */\n  add\n    /* \"#utility.yul\":1931:1947   */\n  swap1\n  pop\n    /* \"#utility.yul\":1966:1969   */\n  dup1\n    /* \"#utility.yul\":1963:1964   */\n  dup3\n    /* \"#utility.yul\":1960:1970   */\n  gt\n    /* \"#utility.yul\":1957:1993   */\n  iszero\n  tag_45\n  jumpi\n    /* \"#utility.yul\":1973:1991   */\n  tag_46\n  tag_19\n  jump\t// in\ntag_46:\n    /* \"#utility.yul\":1957:1993   */\ntag_45:\n    /* \"#utility.yul\":1809:2000   */\n  swap3\n  swap2\n  pop\n  pop\n  jump\t// out\n    /* \"homework/02/\\xe5\\x85\\xa8\\xe5\\xb1\\x80\\xe5\\x8f\\x98\\xe9\\x87\\x8f/Test.sol\":140:1253  contract Test{... */\ntag_12:\n  dataSize(sub_0)\n  dup1\n  dataOffset(sub_0)\n  0x00\n  codecopy\n  0x00\n  return\nstop\n\nsub_0: assembly {\n        /* \"homework/02/\\xe5\\x85\\xa8\\xe5\\xb1\\x80\\xe5\\x8f\\x98\\xe9\\x87\\x8f/Test.sol\":140:1253  contract Test{... */\n      mstore(0x40, 0x80)\n      callvalue\n      dup1\n      iszero\n      tag_1\n      jumpi\n      0x00\n      dup1\n      revert\n    tag_1:\n      pop\n      jumpi(tag_2, lt(calldatasize, 0x04))\n      shr(0xe0, calldataload(0x00))\n      dup1\n      0x5a9b0b89\n      gt\n      tag_10\n      jumpi\n      dup1\n      0x5a9b0b89\n      eq\n      tag_6\n      jumpi\n      dup1\n      0x8da5cb5b\n      eq\n      tag_7\n      jumpi\n      dup1\n      0xbd14598f\n      eq\n      tag_8\n      jumpi\n      dup1\n      0xe5c5e9a3\n      eq\n      tag_9\n      jumpi\n      jump(tag_2)\n    tag_10:\n      dup1\n      0x2906cbdc\n      eq\n      tag_3\n      jumpi\n      dup1\n      0x349c1113\n      eq\n      tag_4\n      jumpi\n      dup1\n      0x3d18b912\n      eq\n      tag_5\n      jumpi\n    tag_2:\n      0x00\n      dup1\n      revert\n        /* \"homework/02/\\xe5\\x85\\xa8\\xe5\\xb1\\x80\\xe5\\x8f\\x98\\xe9\\x87\\x8f/Test.sol\":162:191  uint256 public unlockWeekTime */\n    tag_3:\n      tag_11\n      tag_12\n      jump\t// in\n    tag_11:\n      mload(0x40)\n      tag_13\n      swap2\n      swap1\n      tag_14\n      jump\t// in\n    tag_13:\n      mload(0x40)\n      dup1\n      swap2\n      sub\n      swap1\n      return\n        /* \"homework/02/\\xe5\\x85\\xa8\\xe5\\xb1\\x80\\xe5\\x8f\\x98\\xe9\\x87\\x8f/Test.sol\":198:228  uint256 public unlockMonthTime */\n    tag_4:\n      tag_15\n      tag_16\n      jump\t// in\n    tag_15:\n      mload(0x40)\n      tag_17\n      swap2\n      swap1\n      tag_14\n      jump\t// in\n    tag_17:\n      mload(0x40)\n      dup1\n      swap2\n      sub\n      swap1\n      return\n        /* \"homework/02/\\xe5\\x85\\xa8\\xe5\\xb1\\x80\\xe5\\x8f\\x98\\xe9\\x87\\x8f/Test.sol\":971:1250  function getReward() public view {... */\n    tag_5:\n      tag_18\n      tag_19\n      jump\t// in\n    tag_18:\n      stop\n        /* \"homework/02/\\xe5\\x85\\xa8\\xe5\\xb1\\x80\\xe5\\x8f\\x98\\xe9\\x87\\x8f/Test.sol\":547:692  function getInfo() public view returns(uint,uint,address,uint){... */\n    tag_6:\n      tag_20\n      tag_21\n      jump\t// in\n    tag_20:\n      mload(0x40)\n      tag_22\n      swap5\n      swap4\n      swap3\n      swap2\n      swap1\n      tag_23\n      jump\t// in\n    tag_22:\n      mload(0x40)\n      dup1\n      swap2\n      sub\n      swap1\n      return\n        /* \"homework/02/\\xe5\\x85\\xa8\\xe5\\xb1\\x80\\xe5\\x8f\\x98\\xe9\\x87\\x8f/Test.sol\":235:255  address public owner */\n    tag_7:\n      tag_24\n      tag_25\n      jump\t// in\n    tag_24:\n      mload(0x40)\n      tag_26\n      swap2\n      swap1\n      tag_27\n      jump\t// in\n    tag_26:\n      mload(0x40)\n      dup1\n      swap2\n      sub\n      swap1\n      return\n        /* \"homework/02/\\xe5\\x85\\xa8\\xe5\\xb1\\x80\\xe5\\x8f\\x98\\xe9\\x87\\x8f/Test.sol\":700:814  function encode() public pure returns  (bytes memory){... */\n    tag_8:\n      tag_28\n      tag_29\n      jump\t// in\n    tag_28:\n      mload(0x40)\n      tag_30\n      swap2\n      swap1\n      tag_31\n      jump\t// in\n    tag_30:\n      mload(0x40)\n      dup1\n      swap2\n      sub\n      swap1\n      return\n        /* \"homework/02/\\xe5\\x85\\xa8\\xe5\\xb1\\x80\\xe5\\x8f\\x98\\xe9\\x87\\x8f/Test.sol\":822:963  function decode(bytes memory encodeData) public pure returns  (uint,address){... */\n    tag_9:\n      tag_32\n      0x04\n      dup1\n      calldatasize\n      sub\n      dup2\n      add\n      swap1\n      tag_33\n      swap2\n      swap1\n      tag_34\n      jump\t// in\n    tag_33:\n      tag_35\n      jump\t// in\n    tag_32:\n      mload(0x40)\n      tag_36\n      swap3\n      swap2\n      swap1\n      tag_37\n      jump\t// in\n    tag_36:\n      mload(0x40)\n      dup1\n      swap2\n      sub\n      swap1\n      return\n        /* \"homework/02/\\xe5\\x85\\xa8\\xe5\\xb1\\x80\\xe5\\x8f\\x98\\xe9\\x87\\x8f/Test.sol\":162:191  uint256 public unlockWeekTime */\n    tag_12:\n      sload(0x00)\n      dup2\n      jump\t// out\n        /* \"homework/02/\\xe5\\x85\\xa8\\xe5\\xb1\\x80\\xe5\\x8f\\x98\\xe9\\x87\\x8f/Test.sol\":198:228  uint256 public unlockMonthTime */\n    tag_16:\n      sload(0x01)\n      dup2\n      jump\t// out\n        /* \"homework/02/\\xe5\\x85\\xa8\\xe5\\xb1\\x80\\xe5\\x8f\\x98\\xe9\\x87\\x8f/Test.sol\":971:1250  function getReward() public view {... */\n    tag_19:\n        /* \"homework/02/\\xe5\\x85\\xa8\\xe5\\xb1\\x80\\xe5\\x8f\\x98\\xe9\\x87\\x8f/Test.sol\":1042:1056  unlockWeekTime */\n      sload(0x00)\n        /* \"homework/02/\\xe5\\x85\\xa8\\xe5\\xb1\\x80\\xe5\\x8f\\x98\\xe9\\x87\\x8f/Test.sol\":1023:1038  block.timestamp */\n      timestamp\n        /* \"homework/02/\\xe5\\x85\\xa8\\xe5\\xb1\\x80\\xe5\\x8f\\x98\\xe9\\x87\\x8f/Test.sol\":1023:1056  block.timestamp >= unlockWeekTime */\n      lt\n      iszero\n        /* \"homework/02/\\xe5\\x85\\xa8\\xe5\\xb1\\x80\\xe5\\x8f\\x98\\xe9\\x87\\x8f/Test.sol\":1015:1078  require(block.timestamp >= unlockWeekTime, \"Funds are locked.\") */\n      tag_39\n      jumpi\n      mload(0x40)\n      0x08c379a000000000000000000000000000000000000000000000000000000000\n      dup2\n      mstore\n      0x04\n      add\n      tag_40\n      swap1\n      tag_41\n      jump\t// in\n    tag_40:\n      mload(0x40)\n      dup1\n      swap2\n      sub\n      swap1\n      revert\n    tag_39:\n        /* \"homework/02/\\xe5\\x85\\xa8\\xe5\\xb1\\x80\\xe5\\x8f\\x98\\xe9\\x87\\x8f/Test.sol\":1116:1131  unlockMonthTime */\n      sload(0x01)\n        /* \"homework/02/\\xe5\\x85\\xa8\\xe5\\xb1\\x80\\xe5\\x8f\\x98\\xe9\\x87\\x8f/Test.sol\":1097:1112  block.timestamp */\n      timestamp\n        /* \"homework/02/\\xe5\\x85\\xa8\\xe5\\xb1\\x80\\xe5\\x8f\\x98\\xe9\\x87\\x8f/Test.sol\":1097:1131  block.timestamp >= unlockMonthTime */\n      lt\n      iszero\n        /* \"homework/02/\\xe5\\x85\\xa8\\xe5\\xb1\\x80\\xe5\\x8f\\x98\\xe9\\x87\\x8f/Test.sol\":1089:1153  require(block.timestamp >= unlockMonthTime, \"Funds are locked.\") */\n      tag_42\n      jumpi\n      mload(0x40)\n      0x08c379a000000000000000000000000000000000000000000000000000000000\n      dup2\n      mstore\n      0x04\n      add\n      tag_43\n      swap1\n      tag_41\n      jump\t// in\n    tag_43:\n      mload(0x40)\n      dup1\n      swap2\n      sub\n      swap1\n      revert\n    tag_42:\n        /* \"homework/02/\\xe5\\x85\\xa8\\xe5\\xb1\\x80\\xe5\\x8f\\x98\\xe9\\x87\\x8f/Test.sol\":1186:1191  owner */\n      0x02\n      0x00\n      swap1\n      sload\n      swap1\n      0x0100\n      exp\n      swap1\n      div\n      0xffffffffffffffffffffffffffffffffffffffff\n      and\n        /* \"homework/02/\\xe5\\x85\\xa8\\xe5\\xb1\\x80\\xe5\\x8f\\x98\\xe9\\x87\\x8f/Test.sol\":1172:1191  msg.sender == owner */\n      0xffffffffffffffffffffffffffffffffffffffff\n      and\n        /* \"homework/02/\\xe5\\x85\\xa8\\xe5\\xb1\\x80\\xe5\\x8f\\x98\\xe9\\x87\\x8f/Test.sol\":1172:1182  msg.sender */\n      caller\n        /* \"homework/02/\\xe5\\x85\\xa8\\xe5\\xb1\\x80\\xe5\\x8f\\x98\\xe9\\x87\\x8f/Test.sol\":1172:1191  msg.sender == owner */\n      0xffffffffffffffffffffffffffffffffffffffff\n      and\n      eq\n        /* \"homework/02/\\xe5\\x85\\xa8\\xe5\\xb1\\x80\\xe5\\x8f\\x98\\xe9\\x87\\x8f/Test.sol\":1164:1220  require(msg.sender == owner, \"Only owner can withdraw.\") */\n      tag_44\n      jumpi\n      mload(0x40)\n      0x08c379a000000000000000000000000000000000000000000000000000000000\n      dup2\n      mstore\n      0x04\n      add\n      tag_45\n      swap1\n      tag_46\n      jump\t// in\n    tag_45:\n      mload(0x40)\n      dup1\n      swap2\n      sub\n      swap1\n      revert\n    tag_44:\n        /* \"homework/02/\\xe5\\x85\\xa8\\xe5\\xb1\\x80\\xe5\\x8f\\x98\\xe9\\x87\\x8f/Test.sol\":971:1250  function getReward() public view {... */\n      jump\t// out\n        /* \"homework/02/\\xe5\\x85\\xa8\\xe5\\xb1\\x80\\xe5\\x8f\\x98\\xe9\\x87\\x8f/Test.sol\":547:692  function getInfo() public view returns(uint,uint,address,uint){... */\n    tag_21:\n        /* \"homework/02/\\xe5\\x85\\xa8\\xe5\\xb1\\x80\\xe5\\x8f\\x98\\xe9\\x87\\x8f/Test.sol\":586:590  uint */\n      0x00\n        /* \"homework/02/\\xe5\\x85\\xa8\\xe5\\xb1\\x80\\xe5\\x8f\\x98\\xe9\\x87\\x8f/Test.sol\":591:595  uint */\n      dup1\n        /* \"homework/02/\\xe5\\x85\\xa8\\xe5\\xb1\\x80\\xe5\\x8f\\x98\\xe9\\x87\\x8f/Test.sol\":596:603  address */\n      0x00\n        /* \"homework/02/\\xe5\\x85\\xa8\\xe5\\xb1\\x80\\xe5\\x8f\\x98\\xe9\\x87\\x8f/Test.sol\":604:608  uint */\n      dup1\n        /* \"homework/02/\\xe5\\x85\\xa8\\xe5\\xb1\\x80\\xe5\\x8f\\x98\\xe9\\x87\\x8f/Test.sol\":628:640  block.number */\n      number\n        /* \"homework/02/\\xe5\\x85\\xa8\\xe5\\xb1\\x80\\xe5\\x8f\\x98\\xe9\\x87\\x8f/Test.sol\":641:656  block.timestamp */\n      timestamp\n        /* \"homework/02/\\xe5\\x85\\xa8\\xe5\\xb1\\x80\\xe5\\x8f\\x98\\xe9\\x87\\x8f/Test.sol\":657:671  block.coinbase */\n      coinbase\n        /* \"homework/02/\\xe5\\x85\\xa8\\xe5\\xb1\\x80\\xe5\\x8f\\x98\\xe9\\x87\\x8f/Test.sol\":672:683  tx.gasprice */\n      gasprice\n        /* \"homework/02/\\xe5\\x85\\xa8\\xe5\\xb1\\x80\\xe5\\x8f\\x98\\xe9\\x87\\x8f/Test.sol\":620:684  return (block.number,block.timestamp,block.coinbase,tx.gasprice) */\n      swap4\n      pop\n      swap4\n      pop\n      swap4\n      pop\n      swap4\n      pop\n        /* \"homework/02/\\xe5\\x85\\xa8\\xe5\\xb1\\x80\\xe5\\x8f\\x98\\xe9\\x87\\x8f/Test.sol\":547:692  function getInfo() public view returns(uint,uint,address,uint){... */\n      swap1\n      swap2\n      swap3\n      swap4\n      jump\t// out\n        /* \"homework/02/\\xe5\\x85\\xa8\\xe5\\xb1\\x80\\xe5\\x8f\\x98\\xe9\\x87\\x8f/Test.sol\":235:255  address public owner */\n    tag_25:\n      0x02\n      0x00\n      swap1\n      sload\n      swap1\n      0x0100\n      exp\n      swap1\n      div\n      0xffffffffffffffffffffffffffffffffffffffff\n      and\n      dup2\n      jump\t// out\n        /* \"homework/02/\\xe5\\x85\\xa8\\xe5\\xb1\\x80\\xe5\\x8f\\x98\\xe9\\x87\\x8f/Test.sol\":700:814  function encode() public pure returns  (bytes memory){... */\n    tag_29:\n        /* \"homework/02/\\xe5\\x85\\xa8\\xe5\\xb1\\x80\\xe5\\x8f\\x98\\xe9\\x87\\x8f/Test.sol\":740:752  bytes memory */\n      0x60\n        /* \"homework/02/\\xe5\\x85\\xa8\\xe5\\xb1\\x80\\xe5\\x8f\\x98\\xe9\\x87\\x8f/Test.sol\":787:788  1 */\n      0x01\n        /* \"homework/02/\\xe5\\x85\\xa8\\xe5\\xb1\\x80\\xe5\\x8f\\x98\\xe9\\x87\\x8f/Test.sol\":799:804  0x123 */\n      0x0123\n        /* \"homework/02/\\xe5\\x85\\xa8\\xe5\\xb1\\x80\\xe5\\x8f\\x98\\xe9\\x87\\x8f/Test.sol\":771:806  abi.encode(uint(1), address(0x123)) */\n      add(0x20, mload(0x40))\n      tag_49\n      swap3\n      swap2\n      swap1\n      tag_37\n      jump\t// in\n    tag_49:\n      mload(0x40)\n      0x20\n      dup2\n      dup4\n      sub\n      sub\n      dup2\n      mstore\n      swap1\n      0x40\n      mstore\n        /* \"homework/02/\\xe5\\x85\\xa8\\xe5\\xb1\\x80\\xe5\\x8f\\x98\\xe9\\x87\\x8f/Test.sol\":763:806  return  abi.encode(uint(1), address(0x123)) */\n      swap1\n      pop\n        /* \"homework/02/\\xe5\\x85\\xa8\\xe5\\xb1\\x80\\xe5\\x8f\\x98\\xe9\\x87\\x8f/Test.sol\":700:814  function encode() public pure returns  (bytes memory){... */\n      swap1\n      jump\t// out\n        /* \"homework/02/\\xe5\\x85\\xa8\\xe5\\xb1\\x80\\xe5\\x8f\\x98\\xe9\\x87\\x8f/Test.sol\":822:963  function decode(bytes memory encodeData) public pure returns  (uint,address){... */\n    tag_35:\n        /* \"homework/02/\\xe5\\x85\\xa8\\xe5\\xb1\\x80\\xe5\\x8f\\x98\\xe9\\x87\\x8f/Test.sol\":885:889  uint */\n      0x00\n        /* \"homework/02/\\xe5\\x85\\xa8\\xe5\\xb1\\x80\\xe5\\x8f\\x98\\xe9\\x87\\x8f/Test.sol\":890:897  address */\n      dup1\n        /* \"homework/02/\\xe5\\x85\\xa8\\xe5\\xb1\\x80\\xe5\\x8f\\x98\\xe9\\x87\\x8f/Test.sol\":927:937  encodeData */\n      dup3\n        /* \"homework/02/\\xe5\\x85\\xa8\\xe5\\xb1\\x80\\xe5\\x8f\\x98\\xe9\\x87\\x8f/Test.sol\":916:955  abi.decode(encodeData, (uint, address)) */\n      dup1\n      0x20\n      add\n      swap1\n      mload\n      dup2\n      add\n      swap1\n      tag_51\n      swap2\n      swap1\n      tag_52\n      jump\t// in\n    tag_51:\n        /* \"homework/02/\\xe5\\x85\\xa8\\xe5\\xb1\\x80\\xe5\\x8f\\x98\\xe9\\x87\\x8f/Test.sol\":908:955  return  abi.decode(encodeData, (uint, address)) */\n      swap2\n      pop\n      swap2\n      pop\n        /* \"homework/02/\\xe5\\x85\\xa8\\xe5\\xb1\\x80\\xe5\\x8f\\x98\\xe9\\x87\\x8f/Test.sol\":822:963  function decode(bytes memory encodeData) public pure returns  (uint,address){... */\n      swap2\n      pop\n      swap2\n      jump\t// out\n        /* \"#utility.yul\":7:84   */\n    tag_53:\n        /* \"#utility.yul\":44:51   */\n      0x00\n        /* \"#utility.yul\":73:78   */\n      dup2\n        /* \"#utility.yul\":62:78   */\n      swap1\n      pop\n        /* \"#utility.yul\":7:84   */\n      swap2\n      swap1\n      pop\n      jump\t// out\n        /* \"#utility.yul\":90:208   */\n    tag_54:\n        /* \"#utility.yul\":177:201   */\n      tag_88\n        /* \"#utility.yul\":195:200   */\n      dup2\n        /* \"#utility.yul\":177:201   */\n      tag_53\n      jump\t// in\n    tag_88:\n        /* \"#utility.yul\":172:175   */\n      dup3\n        /* \"#utility.yul\":165:202   */\n      mstore\n        /* \"#utility.yul\":90:208   */\n      pop\n      pop\n      jump\t// out\n        /* \"#utility.yul\":214:436   */\n    tag_14:\n        /* \"#utility.yul\":307:311   */\n      0x00\n        /* \"#utility.yul\":345:347   */\n      0x20\n        /* \"#utility.yul\":334:343   */\n      dup3\n        /* \"#utility.yul\":330:348   */\n      add\n        /* \"#utility.yul\":322:348   */\n      swap1\n      pop\n        /* \"#utility.yul\":358:429   */\n      tag_90\n        /* \"#utility.yul\":426:427   */\n      0x00\n        /* \"#utility.yul\":415:424   */\n      dup4\n        /* \"#utility.yul\":411:428   */\n      add\n        /* \"#utility.yul\":402:408   */\n      dup5\n        /* \"#utility.yul\":358:429   */\n      tag_54\n      jump\t// in\n    tag_90:\n        /* \"#utility.yul\":214:436   */\n      swap3\n      swap2\n      pop\n      pop\n      jump\t// out\n        /* \"#utility.yul\":442:568   */\n    tag_55:\n        /* \"#utility.yul\":479:486   */\n      0x00\n        /* \"#utility.yul\":519:561   */\n      0xffffffffffffffffffffffffffffffffffffffff\n        /* \"#utility.yul\":512:517   */\n      dup3\n        /* \"#utility.yul\":508:562   */\n      and\n        /* \"#utility.yul\":497:562   */\n      swap1\n      pop\n        /* \"#utility.yul\":442:568   */\n      swap2\n      swap1\n      pop\n      jump\t// out\n        /* \"#utility.yul\":574:670   */\n    tag_56:\n        /* \"#utility.yul\":611:618   */\n      0x00\n        /* \"#utility.yul\":640:664   */\n      tag_93\n        /* \"#utility.yul\":658:663   */\n      dup3\n        /* \"#utility.yul\":640:664   */\n      tag_55\n      jump\t// in\n    tag_93:\n        /* \"#utility.yul\":629:664   */\n      swap1\n      pop\n        /* \"#utility.yul\":574:670   */\n      swap2\n      swap1\n      pop\n      jump\t// out\n        /* \"#utility.yul\":676:794   */\n    tag_57:\n        /* \"#utility.yul\":763:787   */\n      tag_95\n        /* \"#utility.yul\":781:786   */\n      dup2\n        /* \"#utility.yul\":763:787   */\n      tag_56\n      jump\t// in\n    tag_95:\n        /* \"#utility.yul\":758:761   */\n      dup3\n        /* \"#utility.yul\":751:788   */\n      mstore\n        /* \"#utility.yul\":676:794   */\n      pop\n      pop\n      jump\t// out\n        /* \"#utility.yul\":800:1353   */\n    tag_23:\n        /* \"#utility.yul\":977:981   */\n      0x00\n        /* \"#utility.yul\":1015:1018   */\n      0x80\n        /* \"#utility.yul\":1004:1013   */\n      dup3\n        /* \"#utility.yul\":1000:1019   */\n      add\n        /* \"#utility.yul\":992:1019   */\n      swap1\n      pop\n        /* \"#utility.yul\":1029:1100   */\n      tag_97\n        /* \"#utility.yul\":1097:1098   */\n      0x00\n        /* \"#utility.yul\":1086:1095   */\n      dup4\n        /* \"#utility.yul\":1082:1099   */\n      add\n        /* \"#utility.yul\":1073:1079   */\n      dup8\n        /* \"#utility.yul\":1029:1100   */\n      tag_54\n      jump\t// in\n    tag_97:\n        /* \"#utility.yul\":1110:1182   */\n      tag_98\n        /* \"#utility.yul\":1178:1180   */\n      0x20\n        /* \"#utility.yul\":1167:1176   */\n      dup4\n        /* \"#utility.yul\":1163:1181   */\n      add\n        /* \"#utility.yul\":1154:1160   */\n      dup7\n        /* \"#utility.yul\":1110:1182   */\n      tag_54\n      jump\t// in\n    tag_98:\n        /* \"#utility.yul\":1192:1264   */\n      tag_99\n        /* \"#utility.yul\":1260:1262   */\n      0x40\n        /* \"#utility.yul\":1249:1258   */\n      dup4\n        /* \"#utility.yul\":1245:1263   */\n      add\n        /* \"#utility.yul\":1236:1242   */\n      dup6\n        /* \"#utility.yul\":1192:1264   */\n      tag_57\n      jump\t// in\n    tag_99:\n        /* \"#utility.yul\":1274:1346   */\n      tag_100\n        /* \"#utility.yul\":1342:1344   */\n      0x60\n        /* \"#utility.yul\":1331:1340   */\n      dup4\n        /* \"#utility.yul\":1327:1345   */\n      add\n        /* \"#utility.yul\":1318:1324   */\n      dup5\n        /* \"#utility.yul\":1274:1346   */\n      tag_54\n      jump\t// in\n    tag_100:\n        /* \"#utility.yul\":800:1353   */\n      swap6\n      swap5\n      pop\n      pop\n      pop\n      pop\n      pop\n      jump\t// out\n        /* \"#utility.yul\":1359:1581   */\n    tag_27:\n        /* \"#utility.yul\":1452:1456   */\n      0x00\n        /* \"#utility.yul\":1490:1492   */\n      0x20\n        /* \"#utility.yul\":1479:1488   */\n      dup3\n        /* \"#utility.yul\":1475:1493   */\n      add\n        /* \"#utility.yul\":1467:1493   */\n      swap1\n      pop\n        /* \"#utility.yul\":1503:1574   */\n      tag_102\n        /* \"#utility.yul\":1571:1572   */\n      0x00\n        /* \"#utility.yul\":1560:1569   */\n      dup4\n        /* \"#utility.yul\":1556:1573   */\n      add\n        /* \"#utility.yul\":1547:1553   */\n      dup5\n        /* \"#utility.yul\":1503:1574   */\n      tag_57\n      jump\t// in\n    tag_102:\n        /* \"#utility.yul\":1359:1581   */\n      swap3\n      swap2\n      pop\n      pop\n      jump\t// out\n        /* \"#utility.yul\":1587:1685   */\n    tag_58:\n        /* \"#utility.yul\":1638:1644   */\n      0x00\n        /* \"#utility.yul\":1672:1677   */\n      dup2\n        /* \"#utility.yul\":1666:1678   */\n      mload\n        /* \"#utility.yul\":1656:1678   */\n      swap1\n      pop\n        /* \"#utility.yul\":1587:1685   */\n      swap2\n      swap1\n      pop\n      jump\t// out\n        /* \"#utility.yul\":1691:1859   */\n    tag_59:\n        /* \"#utility.yul\":1774:1785   */\n      0x00\n        /* \"#utility.yul\":1808:1814   */\n      dup3\n        /* \"#utility.yul\":1803:1806   */\n      dup3\n        /* \"#utility.yul\":1796:1815   */\n      mstore\n        /* \"#utility.yul\":1848:1852   */\n      0x20\n        /* \"#utility.yul\":1843:1846   */\n      dup3\n        /* \"#utility.yul\":1839:1853   */\n      add\n        /* \"#utility.yul\":1824:1853   */\n      swap1\n      pop\n        /* \"#utility.yul\":1691:1859   */\n      swap3\n      swap2\n      pop\n      pop\n      jump\t// out\n        /* \"#utility.yul\":1865:2004   */\n    tag_60:\n        /* \"#utility.yul\":1954:1960   */\n      dup3\n        /* \"#utility.yul\":1949:1952   */\n      dup2\n        /* \"#utility.yul\":1944:1947   */\n      dup4\n        /* \"#utility.yul\":1938:1961   */\n      mcopy\n        /* \"#utility.yul\":1995:1996   */\n      0x00\n        /* \"#utility.yul\":1986:1992   */\n      dup4\n        /* \"#utility.yul\":1981:1984   */\n      dup4\n        /* \"#utility.yul\":1977:1993   */\n      add\n        /* \"#utility.yul\":1970:1997   */\n      mstore\n        /* \"#utility.yul\":1865:2004   */\n      pop\n      pop\n      pop\n      jump\t// out\n        /* \"#utility.yul\":2010:2112   */\n    tag_61:\n        /* \"#utility.yul\":2051:2057   */\n      0x00\n        /* \"#utility.yul\":2102:2104   */\n      0x1f\n        /* \"#utility.yul\":2098:2105   */\n      not\n        /* \"#utility.yul\":2093:2095   */\n      0x1f\n        /* \"#utility.yul\":2086:2091   */\n      dup4\n        /* \"#utility.yul\":2082:2096   */\n      add\n        /* \"#utility.yul\":2078:2106   */\n      and\n        /* \"#utility.yul\":2068:2106   */\n      swap1\n      pop\n        /* \"#utility.yul\":2010:2112   */\n      swap2\n      swap1\n      pop\n      jump\t// out\n        /* \"#utility.yul\":2118:2491   */\n    tag_62:\n        /* \"#utility.yul\":2204:2207   */\n      0x00\n        /* \"#utility.yul\":2232:2270   */\n      tag_108\n        /* \"#utility.yul\":2264:2269   */\n      dup3\n        /* \"#utility.yul\":2232:2270   */\n      tag_58\n      jump\t// in\n    tag_108:\n        /* \"#utility.yul\":2286:2356   */\n      tag_109\n        /* \"#utility.yul\":2349:2355   */\n      dup2\n        /* \"#utility.yul\":2344:2347   */\n      dup6\n        /* \"#utility.yul\":2286:2356   */\n      tag_59\n      jump\t// in\n    tag_109:\n        /* \"#utility.yul\":2279:2356   */\n      swap4\n      pop\n        /* \"#utility.yul\":2365:2430   */\n      tag_110\n        /* \"#utility.yul\":2423:2429   */\n      dup2\n        /* \"#utility.yul\":2418:2421   */\n      dup6\n        /* \"#utility.yul\":2411:2415   */\n      0x20\n        /* \"#utility.yul\":2404:2409   */\n      dup7\n        /* \"#utility.yul\":2400:2416   */\n      add\n        /* \"#utility.yul\":2365:2430   */\n      tag_60\n      jump\t// in\n    tag_110:\n        /* \"#utility.yul\":2455:2484   */\n      tag_111\n        /* \"#utility.yul\":2477:2483   */\n      dup2\n        /* \"#utility.yul\":2455:2484   */\n      tag_61\n      jump\t// in\n    tag_111:\n        /* \"#utility.yul\":2450:2453   */\n      dup5\n        /* \"#utility.yul\":2446:2485   */\n      add\n        /* \"#utility.yul\":2439:2485   */\n      swap2\n      pop\n        /* \"#utility.yul\":2208:2491   */\n      pop\n        /* \"#utility.yul\":2118:2491   */\n      swap3\n      swap2\n      pop\n      pop\n      jump\t// out\n        /* \"#utility.yul\":2497:2806   */\n    tag_31:\n        /* \"#utility.yul\":2608:2612   */\n      0x00\n        /* \"#utility.yul\":2646:2648   */\n      0x20\n        /* \"#utility.yul\":2635:2644   */\n      dup3\n        /* \"#utility.yul\":2631:2649   */\n      add\n        /* \"#utility.yul\":2623:2649   */\n      swap1\n      pop\n        /* \"#utility.yul\":2695:2704   */\n      dup2\n        /* \"#utility.yul\":2689:2693   */\n      dup2\n        /* \"#utility.yul\":2685:2705   */\n      sub\n        /* \"#utility.yul\":2681:2682   */\n      0x00\n        /* \"#utility.yul\":2670:2679   */\n      dup4\n        /* \"#utility.yul\":2666:2683   */\n      add\n        /* \"#utility.yul\":2659:2706   */\n      mstore\n        /* \"#utility.yul\":2723:2799   */\n      tag_113\n        /* \"#utility.yul\":2794:2798   */\n      dup2\n        /* \"#utility.yul\":2785:2791   */\n      dup5\n        /* \"#utility.yul\":2723:2799   */\n      tag_62\n      jump\t// in\n    tag_113:\n        /* \"#utility.yul\":2715:2799   */\n      swap1\n      pop\n        /* \"#utility.yul\":2497:2806   */\n      swap3\n      swap2\n      pop\n      pop\n      jump\t// out\n        /* \"#utility.yul\":2812:2887   */\n    tag_63:\n        /* \"#utility.yul\":2845:2851   */\n      0x00\n        /* \"#utility.yul\":2878:2880   */\n      0x40\n        /* \"#utility.yul\":2872:2881   */\n      mload\n        /* \"#utility.yul\":2862:2881   */\n      swap1\n      pop\n        /* \"#utility.yul\":2812:2887   */\n      swap1\n      jump\t// out\n        /* \"#utility.yul\":2893:3010   */\n    tag_64:\n        /* \"#utility.yul\":3002:3003   */\n      0x00\n        /* \"#utility.yul\":2999:3000   */\n      dup1\n        /* \"#utility.yul\":2992:3004   */\n      revert\n        /* \"#utility.yul\":3016:3133   */\n    tag_65:\n        /* \"#utility.yul\":3125:3126   */\n      0x00\n        /* \"#utility.yul\":3122:3123   */\n      dup1\n        /* \"#utility.yul\":3115:3127   */\n      revert\n        /* \"#utility.yul\":3139:3256   */\n    tag_66:\n        /* \"#utility.yul\":3248:3249   */\n      0x00\n        /* \"#utility.yul\":3245:3246   */\n      dup1\n        /* \"#utility.yul\":3238:3250   */\n      revert\n        /* \"#utility.yul\":3262:3379   */\n    tag_67:\n        /* \"#utility.yul\":3371:3372   */\n      0x00\n        /* \"#utility.yul\":3368:3369   */\n      dup1\n        /* \"#utility.yul\":3361:3373   */\n      revert\n        /* \"#utility.yul\":3385:3565   */\n    tag_68:\n        /* \"#utility.yul\":3433:3510   */\n      0x4e487b7100000000000000000000000000000000000000000000000000000000\n        /* \"#utility.yul\":3430:3431   */\n      0x00\n        /* \"#utility.yul\":3423:3511   */\n      mstore\n        /* \"#utility.yul\":3530:3534   */\n      0x41\n        /* \"#utility.yul\":3527:3528   */\n      0x04\n        /* \"#utility.yul\":3520:3535   */\n      mstore\n        /* \"#utility.yul\":3554:3558   */\n      0x24\n        /* \"#utility.yul\":3551:3552   */\n      0x00\n        /* \"#utility.yul\":3544:3559   */\n      revert\n        /* \"#utility.yul\":3571:3852   */\n    tag_69:\n        /* \"#utility.yul\":3654:3681   */\n      tag_121\n        /* \"#utility.yul\":3676:3680   */\n      dup3\n        /* \"#utility.yul\":3654:3681   */\n      tag_61\n      jump\t// in\n    tag_121:\n        /* \"#utility.yul\":3646:3652   */\n      dup2\n        /* \"#utility.yul\":3642:3682   */\n      add\n        /* \"#utility.yul\":3784:3790   */\n      dup2\n        /* \"#utility.yul\":3772:3782   */\n      dup2\n        /* \"#utility.yul\":3769:3791   */\n      lt\n        /* \"#utility.yul\":3748:3766   */\n      0xffffffffffffffff\n        /* \"#utility.yul\":3736:3746   */\n      dup3\n        /* \"#utility.yul\":3733:3767   */\n      gt\n        /* \"#utility.yul\":3730:3792   */\n      or\n        /* \"#utility.yul\":3727:3815   */\n      iszero\n      tag_122\n      jumpi\n        /* \"#utility.yul\":3795:3813   */\n      tag_123\n      tag_68\n      jump\t// in\n    tag_123:\n        /* \"#utility.yul\":3727:3815   */\n    tag_122:\n        /* \"#utility.yul\":3835:3845   */\n      dup1\n        /* \"#utility.yul\":3831:3833   */\n      0x40\n        /* \"#utility.yul\":3824:3846   */\n      mstore\n        /* \"#utility.yul\":3614:3852   */\n      pop\n        /* \"#utility.yul\":3571:3852   */\n      pop\n      pop\n      jump\t// out\n        /* \"#utility.yul\":3858:3987   */\n    tag_70:\n        /* \"#utility.yul\":3892:3898   */\n      0x00\n        /* \"#utility.yul\":3919:3939   */\n      tag_125\n      tag_63\n      jump\t// in\n    tag_125:\n        /* \"#utility.yul\":3909:3939   */\n      swap1\n      pop\n        /* \"#utility.yul\":3948:3981   */\n      tag_126\n        /* \"#utility.yul\":3976:3980   */\n      dup3\n        /* \"#utility.yul\":3968:3974   */\n      dup3\n        /* \"#utility.yul\":3948:3981   */\n      tag_69\n      jump\t// in\n    tag_126:\n        /* \"#utility.yul\":3858:3987   */\n      swap2\n      swap1\n      pop\n      jump\t// out\n        /* \"#utility.yul\":3993:4300   */\n    tag_71:\n        /* \"#utility.yul\":4054:4058   */\n      0x00\n        /* \"#utility.yul\":4144:4162   */\n      0xffffffffffffffff\n        /* \"#utility.yul\":4136:4142   */\n      dup3\n        /* \"#utility.yul\":4133:4163   */\n      gt\n        /* \"#utility.yul\":4130:4186   */\n      iszero\n      tag_128\n      jumpi\n        /* \"#utility.yul\":4166:4184   */\n      tag_129\n      tag_68\n      jump\t// in\n    tag_129:\n        /* \"#utility.yul\":4130:4186   */\n    tag_128:\n        /* \"#utility.yul\":4204:4233   */\n      tag_130\n        /* \"#utility.yul\":4226:4232   */\n      dup3\n        /* \"#utility.yul\":4204:4233   */\n      tag_61\n      jump\t// in\n    tag_130:\n        /* \"#utility.yul\":4196:4233   */\n      swap1\n      pop\n        /* \"#utility.yul\":4288:4292   */\n      0x20\n        /* \"#utility.yul\":4282:4286   */\n      dup2\n        /* \"#utility.yul\":4278:4293   */\n      add\n        /* \"#utility.yul\":4270:4293   */\n      swap1\n      pop\n        /* \"#utility.yul\":3993:4300   */\n      swap2\n      swap1\n      pop\n      jump\t// out\n        /* \"#utility.yul\":4306:4454   */\n    tag_72:\n        /* \"#utility.yul\":4404:4410   */\n      dup3\n        /* \"#utility.yul\":4399:4402   */\n      dup2\n        /* \"#utility.yul\":4394:4397   */\n      dup4\n        /* \"#utility.yul\":4381:4411   */\n      calldatacopy\n        /* \"#utility.yul\":4445:4446   */\n      0x00\n        /* \"#utility.yul\":4436:4442   */\n      dup4\n        /* \"#utility.yul\":4431:4434   */\n      dup4\n        /* \"#utility.yul\":4427:4443   */\n      add\n        /* \"#utility.yul\":4420:4447   */\n      mstore\n        /* \"#utility.yul\":4306:4454   */\n      pop\n      pop\n      pop\n      jump\t// out\n        /* \"#utility.yul\":4460:4883   */\n    tag_73:\n        /* \"#utility.yul\":4537:4542   */\n      0x00\n        /* \"#utility.yul\":4562:4627   */\n      tag_133\n        /* \"#utility.yul\":4578:4626   */\n      tag_134\n        /* \"#utility.yul\":4619:4625   */\n      dup5\n        /* \"#utility.yul\":4578:4626   */\n      tag_71\n      jump\t// in\n    tag_134:\n        /* \"#utility.yul\":4562:4627   */\n      tag_70\n      jump\t// in\n    tag_133:\n        /* \"#utility.yul\":4553:4627   */\n      swap1\n      pop\n        /* \"#utility.yul\":4650:4656   */\n      dup3\n        /* \"#utility.yul\":4643:4648   */\n      dup2\n        /* \"#utility.yul\":4636:4657   */\n      mstore\n        /* \"#utility.yul\":4688:4692   */\n      0x20\n        /* \"#utility.yul\":4681:4686   */\n      dup2\n        /* \"#utility.yul\":4677:4693   */\n      add\n        /* \"#utility.yul\":4726:4729   */\n      dup5\n        /* \"#utility.yul\":4717:4723   */\n      dup5\n        /* \"#utility.yul\":4712:4715   */\n      dup5\n        /* \"#utility.yul\":4708:4724   */\n      add\n        /* \"#utility.yul\":4705:4730   */\n      gt\n        /* \"#utility.yul\":4702:4814   */\n      iszero\n      tag_135\n      jumpi\n        /* \"#utility.yul\":4733:4812   */\n      tag_136\n      tag_67\n      jump\t// in\n    tag_136:\n        /* \"#utility.yul\":4702:4814   */\n    tag_135:\n        /* \"#utility.yul\":4823:4877   */\n      tag_137\n        /* \"#utility.yul\":4870:4876   */\n      dup5\n        /* \"#utility.yul\":4865:4868   */\n      dup3\n        /* \"#utility.yul\":4860:4863   */\n      dup6\n        /* \"#utility.yul\":4823:4877   */\n      tag_72\n      jump\t// in\n    tag_137:\n        /* \"#utility.yul\":4543:4883   */\n      pop\n        /* \"#utility.yul\":4460:4883   */\n      swap4\n      swap3\n      pop\n      pop\n      pop\n      jump\t// out\n        /* \"#utility.yul\":4902:5240   */\n    tag_74:\n        /* \"#utility.yul\":4957:4962   */\n      0x00\n        /* \"#utility.yul\":5006:5009   */\n      dup3\n        /* \"#utility.yul\":4999:5003   */\n      0x1f\n        /* \"#utility.yul\":4991:4997   */\n      dup4\n        /* \"#utility.yul\":4987:5004   */\n      add\n        /* \"#utility.yul\":4983:5010   */\n      slt\n        /* \"#utility.yul\":4973:5095   */\n      tag_139\n      jumpi\n        /* \"#utility.yul\":5014:5093   */\n      tag_140\n      tag_66\n      jump\t// in\n    tag_140:\n        /* \"#utility.yul\":4973:5095   */\n    tag_139:\n        /* \"#utility.yul\":5131:5137   */\n      dup2\n        /* \"#utility.yul\":5118:5138   */\n      calldataload\n        /* \"#utility.yul\":5156:5234   */\n      tag_141\n        /* \"#utility.yul\":5230:5233   */\n      dup5\n        /* \"#utility.yul\":5222:5228   */\n      dup3\n        /* \"#utility.yul\":5215:5219   */\n      0x20\n        /* \"#utility.yul\":5207:5213   */\n      dup7\n        /* \"#utility.yul\":5203:5220   */\n      add\n        /* \"#utility.yul\":5156:5234   */\n      tag_73\n      jump\t// in\n    tag_141:\n        /* \"#utility.yul\":5147:5234   */\n      swap2\n      pop\n        /* \"#utility.yul\":4963:5240   */\n      pop\n        /* \"#utility.yul\":4902:5240   */\n      swap3\n      swap2\n      pop\n      pop\n      jump\t// out\n        /* \"#utility.yul\":5246:5753   */\n    tag_34:\n        /* \"#utility.yul\":5314:5320   */\n      0x00\n        /* \"#utility.yul\":5363:5365   */\n      0x20\n        /* \"#utility.yul\":5351:5360   */\n      dup3\n        /* \"#utility.yul\":5342:5349   */\n      dup5\n        /* \"#utility.yul\":5338:5361   */\n      sub\n        /* \"#utility.yul\":5334:5366   */\n      slt\n        /* \"#utility.yul\":5331:5450   */\n      iszero\n      tag_143\n      jumpi\n        /* \"#utility.yul\":5369:5448   */\n      tag_144\n      tag_64\n      jump\t// in\n    tag_144:\n        /* \"#utility.yul\":5331:5450   */\n    tag_143:\n        /* \"#utility.yul\":5517:5518   */\n      0x00\n        /* \"#utility.yul\":5506:5515   */\n      dup3\n        /* \"#utility.yul\":5502:5519   */\n      add\n        /* \"#utility.yul\":5489:5520   */\n      calldataload\n        /* \"#utility.yul\":5547:5565   */\n      0xffffffffffffffff\n        /* \"#utility.yul\":5539:5545   */\n      dup2\n        /* \"#utility.yul\":5536:5566   */\n      gt\n        /* \"#utility.yul\":5533:5650   */\n      iszero\n      tag_145\n      jumpi\n        /* \"#utility.yul\":5569:5648   */\n      tag_146\n      tag_65\n      jump\t// in\n    tag_146:\n        /* \"#utility.yul\":5533:5650   */\n    tag_145:\n        /* \"#utility.yul\":5674:5736   */\n      tag_147\n        /* \"#utility.yul\":5728:5735   */\n      dup5\n        /* \"#utility.yul\":5719:5725   */\n      dup3\n        /* \"#utility.yul\":5708:5717   */\n      dup6\n        /* \"#utility.yul\":5704:5726   */\n      add\n        /* \"#utility.yul\":5674:5736   */\n      tag_74\n      jump\t// in\n    tag_147:\n        /* \"#utility.yul\":5664:5736   */\n      swap2\n      pop\n        /* \"#utility.yul\":5460:5746   */\n      pop\n        /* \"#utility.yul\":5246:5753   */\n      swap3\n      swap2\n      pop\n      pop\n      jump\t// out\n        /* \"#utility.yul\":5759:6091   */\n    tag_37:\n        /* \"#utility.yul\":5880:5884   */\n      0x00\n        /* \"#utility.yul\":5918:5920   */\n      0x40\n        /* \"#utility.yul\":5907:5916   */\n      dup3\n        /* \"#utility.yul\":5903:5921   */\n      add\n        /* \"#utility.yul\":5895:5921   */\n      swap1\n      pop\n        /* \"#utility.yul\":5931:6002   */\n      tag_149\n        /* \"#utility.yul\":5999:6000   */\n      0x00\n        /* \"#utility.yul\":5988:5997   */\n      dup4\n        /* \"#utility.yul\":5984:6001   */\n      add\n        /* \"#utility.yul\":5975:5981   */\n      dup6\n        /* \"#utility.yul\":5931:6002   */\n      tag_54\n      jump\t// in\n    tag_149:\n        /* \"#utility.yul\":6012:6084   */\n      tag_150\n        /* \"#utility.yul\":6080:6082   */\n      0x20\n        /* \"#utility.yul\":6069:6078   */\n      dup4\n        /* \"#utility.yul\":6065:6083   */\n      add\n        /* \"#utility.yul\":6056:6062   */\n      dup5\n        /* \"#utility.yul\":6012:6084   */\n      tag_57\n      jump\t// in\n    tag_150:\n        /* \"#utility.yul\":5759:6091   */\n      swap4\n      swap3\n      pop\n      pop\n      pop\n      jump\t// out\n        /* \"#utility.yul\":6097:6266   */\n    tag_75:\n        /* \"#utility.yul\":6181:6192   */\n      0x00\n        /* \"#utility.yul\":6215:6221   */\n      dup3\n        /* \"#utility.yul\":6210:6213   */\n      dup3\n        /* \"#utility.yul\":6203:6222   */\n      mstore\n        /* \"#utility.yul\":6255:6259   */\n      0x20\n        /* \"#utility.yul\":6250:6253   */\n      dup3\n        /* \"#utility.yul\":6246:6260   */\n      add\n        /* \"#utility.yul\":6231:6260   */\n      swap1\n      pop\n        /* \"#utility.yul\":6097:6266   */\n      swap3\n      swap2\n      pop\n      pop\n      jump\t// out\n        /* \"#utility.yul\":6272:6439   */\n    tag_76:\n        /* \"#utility.yul\":6412:6431   */\n      0x46756e647320617265206c6f636b65642e000000000000000000000000000000\n        /* \"#utility.yul\":6408:6409   */\n      0x00\n        /* \"#utility.yul\":6400:6406   */\n      dup3\n        /* \"#utility.yul\":6396:6410   */\n      add\n        /* \"#utility.yul\":6389:6432   */\n      mstore\n        /* \"#utility.yul\":6272:6439   */\n      pop\n      jump\t// out\n        /* \"#utility.yul\":6445:6811   */\n    tag_77:\n        /* \"#utility.yul\":6587:6590   */\n      0x00\n        /* \"#utility.yul\":6608:6675   */\n      tag_154\n        /* \"#utility.yul\":6672:6674   */\n      0x11\n        /* \"#utility.yul\":6667:6670   */\n      dup4\n        /* \"#utility.yul\":6608:6675   */\n      tag_75\n      jump\t// in\n    tag_154:\n        /* \"#utility.yul\":6601:6675   */\n      swap2\n      pop\n        /* \"#utility.yul\":6684:6777   */\n      tag_155\n        /* \"#utility.yul\":6773:6776   */\n      dup3\n        /* \"#utility.yul\":6684:6777   */\n      tag_76\n      jump\t// in\n    tag_155:\n        /* \"#utility.yul\":6802:6804   */\n      0x20\n        /* \"#utility.yul\":6797:6800   */\n      dup3\n        /* \"#utility.yul\":6793:6805   */\n      add\n        /* \"#utility.yul\":6786:6805   */\n      swap1\n      pop\n        /* \"#utility.yul\":6445:6811   */\n      swap2\n      swap1\n      pop\n      jump\t// out\n        /* \"#utility.yul\":6817:7236   */\n    tag_41:\n        /* \"#utility.yul\":6983:6987   */\n      0x00\n        /* \"#utility.yul\":7021:7023   */\n      0x20\n        /* \"#utility.yul\":7010:7019   */\n      dup3\n        /* \"#utility.yul\":7006:7024   */\n      add\n        /* \"#utility.yul\":6998:7024   */\n      swap1\n      pop\n        /* \"#utility.yul\":7070:7079   */\n      dup2\n        /* \"#utility.yul\":7064:7068   */\n      dup2\n        /* \"#utility.yul\":7060:7080   */\n      sub\n        /* \"#utility.yul\":7056:7057   */\n      0x00\n        /* \"#utility.yul\":7045:7054   */\n      dup4\n        /* \"#utility.yul\":7041:7058   */\n      add\n        /* \"#utility.yul\":7034:7081   */\n      mstore\n        /* \"#utility.yul\":7098:7229   */\n      tag_157\n        /* \"#utility.yul\":7224:7228   */\n      dup2\n        /* \"#utility.yul\":7098:7229   */\n      tag_77\n      jump\t// in\n    tag_157:\n        /* \"#utility.yul\":7090:7229   */\n      swap1\n      pop\n        /* \"#utility.yul\":6817:7236   */\n      swap2\n      swap1\n      pop\n      jump\t// out\n        /* \"#utility.yul\":7242:7416   */\n    tag_78:\n        /* \"#utility.yul\":7382:7408   */\n      0x4f6e6c79206f776e65722063616e2077697468647261772e0000000000000000\n        /* \"#utility.yul\":7378:7379   */\n      0x00\n        /* \"#utility.yul\":7370:7376   */\n      dup3\n        /* \"#utility.yul\":7366:7380   */\n      add\n        /* \"#utility.yul\":7359:7409   */\n      mstore\n        /* \"#utility.yul\":7242:7416   */\n      pop\n      jump\t// out\n        /* \"#utility.yul\":7422:7788   */\n    tag_79:\n        /* \"#utility.yul\":7564:7567   */\n      0x00\n        /* \"#utility.yul\":7585:7652   */\n      tag_160\n        /* \"#utility.yul\":7649:7651   */\n      0x18\n        /* \"#utility.yul\":7644:7647   */\n      dup4\n        /* \"#utility.yul\":7585:7652   */\n      tag_75\n      jump\t// in\n    tag_160:\n        /* \"#utility.yul\":7578:7652   */\n      swap2\n      pop\n        /* \"#utility.yul\":7661:7754   */\n      tag_161\n        /* \"#utility.yul\":7750:7753   */\n      dup3\n        /* \"#utility.yul\":7661:7754   */\n      tag_78\n      jump\t// in\n    tag_161:\n        /* \"#utility.yul\":7779:7781   */\n      0x20\n        /* \"#utility.yul\":7774:7777   */\n      dup3\n        /* \"#utility.yul\":7770:7782   */\n      add\n        /* \"#utility.yul\":7763:7782   */\n      swap1\n      pop\n        /* \"#utility.yul\":7422:7788   */\n      swap2\n      swap1\n      pop\n      jump\t// out\n        /* \"#utility.yul\":7794:8213   */\n    tag_46:\n        /* \"#utility.yul\":7960:7964   */\n      0x00\n        /* \"#utility.yul\":7998:8000   */\n      0x20\n        /* \"#utility.yul\":7987:7996   */\n      dup3\n        /* \"#utility.yul\":7983:8001   */\n      add\n        /* \"#utility.yul\":7975:8001   */\n      swap1\n      pop\n        /* \"#utility.yul\":8047:8056   */\n      dup2\n        /* \"#utility.yul\":8041:8045   */\n      dup2\n        /* \"#utility.yul\":8037:8057   */\n      sub\n        /* \"#utility.yul\":8033:8034   */\n      0x00\n        /* \"#utility.yul\":8022:8031   */\n      dup4\n        /* \"#utility.yul\":8018:8035   */\n      add\n        /* \"#utility.yul\":8011:8058   */\n      mstore\n        /* \"#utility.yul\":8075:8206   */\n      tag_163\n        /* \"#utility.yul\":8201:8205   */\n      dup2\n        /* \"#utility.yul\":8075:8206   */\n      tag_79\n      jump\t// in\n    tag_163:\n        /* \"#utility.yul\":8067:8206   */\n      swap1\n      pop\n        /* \"#utility.yul\":7794:8213   */\n      swap2\n      swap1\n      pop\n      jump\t// out\n        /* \"#utility.yul\":8219:8341   */\n    tag_80:\n        /* \"#utility.yul\":8292:8316   */\n      tag_165\n        /* \"#utility.yul\":8310:8315   */\n      dup2\n        /* \"#utility.yul\":8292:8316   */\n      tag_53\n      jump\t// in\n    tag_165:\n        /* \"#utility.yul\":8285:8290   */\n      dup2\n        /* \"#utility.yul\":8282:8317   */\n      eq\n        /* \"#utility.yul\":8272:8335   */\n      tag_166\n      jumpi\n        /* \"#utility.yul\":8331:8332   */\n      0x00\n        /* \"#utility.yul\":8328:8329   */\n      dup1\n        /* \"#utility.yul\":8321:8333   */\n      revert\n        /* \"#utility.yul\":8272:8335   */\n    tag_166:\n        /* \"#utility.yul\":8219:8341   */\n      pop\n      jump\t// out\n        /* \"#utility.yul\":8347:8490   */\n    tag_81:\n        /* \"#utility.yul\":8404:8409   */\n      0x00\n        /* \"#utility.yul\":8435:8441   */\n      dup2\n        /* \"#utility.yul\":8429:8442   */\n      mload\n        /* \"#utility.yul\":8420:8442   */\n      swap1\n      pop\n        /* \"#utility.yul\":8451:8484   */\n      tag_168\n        /* \"#utility.yul\":8478:8483   */\n      dup2\n        /* \"#utility.yul\":8451:8484   */\n      tag_80\n      jump\t// in\n    tag_168:\n        /* \"#utility.yul\":8347:8490   */\n      swap3\n      swap2\n      pop\n      pop\n      jump\t// out\n        /* \"#utility.yul\":8496:8600   */\n    tag_82:\n        /* \"#utility.yul\":8541:8548   */\n      0x00\n        /* \"#utility.yul\":8570:8594   */\n      tag_170\n        /* \"#utility.yul\":8588:8593   */\n      dup3\n        /* \"#utility.yul\":8570:8594   */\n      tag_55\n      jump\t// in\n    tag_170:\n        /* \"#utility.yul\":8559:8594   */\n      swap1\n      pop\n        /* \"#utility.yul\":8496:8600   */\n      swap2\n      swap1\n      pop\n      jump\t// out\n        /* \"#utility.yul\":8606:8744   */\n    tag_83:\n        /* \"#utility.yul\":8687:8719   */\n      tag_172\n        /* \"#utility.yul\":8713:8718   */\n      dup2\n        /* \"#utility.yul\":8687:8719   */\n      tag_82\n      jump\t// in\n    tag_172:\n        /* \"#utility.yul\":8680:8685   */\n      dup2\n        /* \"#utility.yul\":8677:8720   */\n      eq\n        /* \"#utility.yul\":8667:8738   */\n      tag_173\n      jumpi\n        /* \"#utility.yul\":8734:8735   */\n      0x00\n        /* \"#utility.yul\":8731:8732   */\n      dup1\n        /* \"#utility.yul\":8724:8736   */\n      revert\n        /* \"#utility.yul\":8667:8738   */\n    tag_173:\n        /* \"#utility.yul\":8606:8744   */\n      pop\n      jump\t// out\n        /* \"#utility.yul\":8750:8909   */\n    tag_84:\n        /* \"#utility.yul\":8815:8820   */\n      0x00\n        /* \"#utility.yul\":8846:8852   */\n      dup2\n        /* \"#utility.yul\":8840:8853   */\n      mload\n        /* \"#utility.yul\":8831:8853   */\n      swap1\n      pop\n        /* \"#utility.yul\":8862:8903   */\n      tag_175\n        /* \"#utility.yul\":8897:8902   */\n      dup2\n        /* \"#utility.yul\":8862:8903   */\n      tag_83\n      jump\t// in\n    tag_175:\n        /* \"#utility.yul\":8750:8909   */\n      swap3\n      swap2\n      pop\n      pop\n      jump\t// out\n        /* \"#utility.yul\":8915:9438   */\n    tag_52:\n        /* \"#utility.yul\":9002:9008   */\n      0x00\n        /* \"#utility.yul\":9010:9016   */\n      dup1\n        /* \"#utility.yul\":9059:9061   */\n      0x40\n        /* \"#utility.yul\":9047:9056   */\n      dup4\n        /* \"#utility.yul\":9038:9045   */\n      dup6\n        /* \"#utility.yul\":9034:9057   */\n      sub\n        /* \"#utility.yul\":9030:9062   */\n      slt\n        /* \"#utility.yul\":9027:9146   */\n      iszero\n      tag_177\n      jumpi\n        /* \"#utility.yul\":9065:9144   */\n      tag_178\n      tag_64\n      jump\t// in\n    tag_178:\n        /* \"#utility.yul\":9027:9146   */\n    tag_177:\n        /* \"#utility.yul\":9185:9186   */\n      0x00\n        /* \"#utility.yul\":9210:9274   */\n      tag_179\n        /* \"#utility.yul\":9266:9273   */\n      dup6\n        /* \"#utility.yul\":9257:9263   */\n      dup3\n        /* \"#utility.yul\":9246:9255   */\n      dup7\n        /* \"#utility.yul\":9242:9264   */\n      add\n        /* \"#utility.yul\":9210:9274   */\n      tag_81\n      jump\t// in\n    tag_179:\n        /* \"#utility.yul\":9200:9274   */\n      swap3\n      pop\n        /* \"#utility.yul\":9156:9284   */\n      pop\n        /* \"#utility.yul\":9323:9325   */\n      0x20\n        /* \"#utility.yul\":9349:9421   */\n      tag_180\n        /* \"#utility.yul\":9413:9420   */\n      dup6\n        /* \"#utility.yul\":9404:9410   */\n      dup3\n        /* \"#utility.yul\":9393:9402   */\n      dup7\n        /* \"#utility.yul\":9389:9411   */\n      add\n        /* \"#utility.yul\":9349:9421   */\n      tag_84\n      jump\t// in\n    tag_180:\n        /* \"#utility.yul\":9339:9421   */\n      swap2\n      pop\n        /* \"#utility.yul\":9294:9431   */\n      pop\n        /* \"#utility.yul\":8915:9438   */\n      swap3\n      pop\n      swap3\n      swap1\n      pop\n      jump\t// out\n\n    auxdata: 0xa2646970667358221220bc9b55727289951de22b41b10594620b3fd80b5f9a08ef002789bd2ddb946c4c64736f6c634300081a0033\n}\n",
				"bytecode": {
					"linkReferences": {},
					"object": "608060405234801561000f575f80fd5b50604051610998380380610998833981810160405281019061003191906100ee565b3360025f6101000a81548173ffffffffffffffffffffffffffffffffffffffff021916908373ffffffffffffffffffffffffffffffffffffffff16021790555062093a80826100809190610159565b4261008b919061019a565b5f819055506224ea008161009f9190610159565b426100aa919061019a565b60018190555050506101cd565b5f80fd5b5f819050919050565b6100cd816100bb565b81146100d7575f80fd5b50565b5f815190506100e8816100c4565b92915050565b5f8060408385031215610104576101036100b7565b5b5f610111858286016100da565b9250506020610122858286016100da565b9150509250929050565b7f4e487b71000000000000000000000000000000000000000000000000000000005f52601160045260245ffd5b5f610163826100bb565b915061016e836100bb565b925082820261017c816100bb565b915082820484148315176101935761019261012c565b5b5092915050565b5f6101a4826100bb565b91506101af836100bb565b92508282019050808211156101c7576101c661012c565b5b92915050565b6107be806101da5f395ff3fe608060405234801561000f575f80fd5b506004361061007b575f3560e01c80635a9b0b89116100595780635a9b0b89146100c55780638da5cb5b146100e6578063bd14598f14610104578063e5c5e9a3146101225761007b565b80632906cbdc1461007f578063349c11131461009d5780633d18b912146100bb575b5f80fd5b610087610153565b6040516100949190610316565b60405180910390f35b6100a5610158565b6040516100b29190610316565b60405180910390f35b6100c361015e565b005b6100cd610278565b6040516100dd949392919061036e565b60405180910390f35b6100ee61028e565b6040516100fb91906103b1565b60405180910390f35b61010c6102b3565b604051610119919061043a565b60405180910390f35b61013c60048036038101906101379190610597565b6102df565b60405161014a9291906105de565b60405180910390f35b5f5481565b60015481565b5f544210156101a2576040517f08c379a00000000000000000000000000000000000000000000000000000000081526004016101999061065f565b60405180910390fd5b6001544210156101e7576040517f08c379a00000000000000000000000000000000000000000000000000000000081526004016101de9061065f565b60405180910390fd5b60025f9054906101000a900473ffffffffffffffffffffffffffffffffffffffff1673ffffffffffffffffffffffffffffffffffffffff163373ffffffffffffffffffffffffffffffffffffffff1614610276576040517f08c379a000000000000000000000000000000000000000000000000000000000815260040161026d906106c7565b60405180910390fd5b565b5f805f804342413a935093509350935090919293565b60025f9054906101000a900473ffffffffffffffffffffffffffffffffffffffff1681565b606060016101236040516020016102cb9291906105de565b604051602081830303815290604052905090565b5f80828060200190518101906102f5919061074a565b91509150915091565b5f819050919050565b610310816102fe565b82525050565b5f6020820190506103295f830184610307565b92915050565b5f73ffffffffffffffffffffffffffffffffffffffff82169050919050565b5f6103588261032f565b9050919050565b6103688161034e565b82525050565b5f6080820190506103815f830187610307565b61038e6020830186610307565b61039b604083018561035f565b6103a86060830184610307565b95945050505050565b5f6020820190506103c45f83018461035f565b92915050565b5f81519050919050565b5f82825260208201905092915050565b8281835e5f83830152505050565b5f601f19601f8301169050919050565b5f61040c826103ca565b61041681856103d4565b93506104268185602086016103e4565b61042f816103f2565b840191505092915050565b5f6020820190508181035f8301526104528184610402565b905092915050565b5f604051905090565b5f80fd5b5f80fd5b5f80fd5b5f80fd5b7f4e487b71000000000000000000000000000000000000000000000000000000005f52604160045260245ffd5b6104a9826103f2565b810181811067ffffffffffffffff821117156104c8576104c7610473565b5b80604052505050565b5f6104da61045a565b90506104e682826104a0565b919050565b5f67ffffffffffffffff82111561050557610504610473565b5b61050e826103f2565b9050602081019050919050565b828183375f83830152505050565b5f61053b610536846104eb565b6104d1565b9050828152602081018484840111156105575761055661046f565b5b61056284828561051b565b509392505050565b5f82601f83011261057e5761057d61046b565b5b813561058e848260208601610529565b91505092915050565b5f602082840312156105ac576105ab610463565b5b5f82013567ffffffffffffffff8111156105c9576105c8610467565b5b6105d58482850161056a565b91505092915050565b5f6040820190506105f15f830185610307565b6105fe602083018461035f565b9392505050565b5f82825260208201905092915050565b7f46756e647320617265206c6f636b65642e0000000000000000000000000000005f82015250565b5f610649601183610605565b915061065482610615565b602082019050919050565b5f6020820190508181035f8301526106768161063d565b9050919050565b7f4f6e6c79206f776e65722063616e2077697468647261772e00000000000000005f82015250565b5f6106b1601883610605565b91506106bc8261067d565b602082019050919050565b5f6020820190508181035f8301526106de816106a5565b9050919050565b6106ee816102fe565b81146106f8575f80fd5b50565b5f81519050610709816106e5565b92915050565b5f6107198261032f565b9050919050565b6107298161070f565b8114610733575f80fd5b50565b5f8151905061074481610720565b92915050565b5f80604083850312156107605761075f610463565b5b5f61076d858286016106fb565b925050602061077e85828601610736565b915050925092905056fea2646970667358221220bc9b55727289951de22b41b10594620b3fd80b5f9a08ef002789bd2ddb946c4c64736f6c634300081a0033",
					"opcodes": "PUSH1 0x80 PUSH1 0x40 MSTORE CALLVALUE DUP1 ISZERO PUSH2 0xF JUMPI PUSH0 DUP1 REVERT JUMPDEST POP PUSH1 0x40 MLOAD PUSH2 0x998 CODESIZE SUB DUP1 PUSH2 0x998 DUP4 CODECOPY DUP2 DUP2 ADD PUSH1 0x40 MSTORE DUP2 ADD SWAP1 PUSH2 0x31 SWAP2 SWAP1 PUSH2 0xEE JUMP JUMPDEST CALLER PUSH1 0x2 PUSH0 PUSH2 0x100 EXP DUP2 SLOAD DUP2 PUSH20 0xFFFFFFFFFFFFFFFFFFFFFFFFFFFFFFFFFFFFFFFF MUL NOT AND SWAP1 DUP4 PUSH20 0xFFFFFFFFFFFFFFFFFFFFFFFFFFFFFFFFFFFFFFFF AND MUL OR SWAP1 SSTORE POP PUSH3 0x93A80 DUP3 PUSH2 0x80 SWAP2 SWAP1 PUSH2 0x159 JUMP JUMPDEST TIMESTAMP PUSH2 0x8B SWAP2 SWAP1 PUSH2 0x19A JUMP JUMPDEST PUSH0 DUP2 SWAP1 SSTORE POP PUSH3 0x24EA00 DUP2 PUSH2 0x9F SWAP2 SWAP1 PUSH2 0x159 JUMP JUMPDEST TIMESTAMP PUSH2 0xAA SWAP2 SWAP1 PUSH2 0x19A JUMP JUMPDEST PUSH1 0x1 DUP2 SWAP1 SSTORE POP POP POP PUSH2 0x1CD JUMP JUMPDEST PUSH0 DUP1 REVERT JUMPDEST PUSH0 DUP2 SWAP1 POP SWAP2 SWAP1 POP JUMP JUMPDEST PUSH2 0xCD DUP2 PUSH2 0xBB JUMP JUMPDEST DUP2 EQ PUSH2 0xD7 JUMPI PUSH0 DUP1 REVERT JUMPDEST POP JUMP JUMPDEST PUSH0 DUP2 MLOAD SWAP1 POP PUSH2 0xE8 DUP2 PUSH2 0xC4 JUMP JUMPDEST SWAP3 SWAP2 POP POP JUMP JUMPDEST PUSH0 DUP1 PUSH1 0x40 DUP4 DUP6 SUB SLT ISZERO PUSH2 0x104 JUMPI PUSH2 0x103 PUSH2 0xB7 JUMP JUMPDEST JUMPDEST PUSH0 PUSH2 0x111 DUP6 DUP3 DUP7 ADD PUSH2 0xDA JUMP JUMPDEST SWAP3 POP POP PUSH1 0x20 PUSH2 0x122 DUP6 DUP3 DUP7 ADD PUSH2 0xDA JUMP JUMPDEST SWAP2 POP POP SWAP3 POP SWAP3 SWAP1 POP JUMP JUMPDEST PUSH32 0x4E487B7100000000000000000000000000000000000000000000000000000000 PUSH0 MSTORE PUSH1 0x11 PUSH1 0x4 MSTORE PUSH1 0x24 PUSH0 REVERT JUMPDEST PUSH0 PUSH2 0x163 DUP3 PUSH2 0xBB JUMP JUMPDEST SWAP2 POP PUSH2 0x16E DUP4 PUSH2 0xBB JUMP JUMPDEST SWAP3 POP DUP3 DUP3 MUL PUSH2 0x17C DUP2 PUSH2 0xBB JUMP JUMPDEST SWAP2 POP DUP3 DUP3 DIV DUP5 EQ DUP4 ISZERO OR PUSH2 0x193 JUMPI PUSH2 0x192 PUSH2 0x12C JUMP JUMPDEST JUMPDEST POP SWAP3 SWAP2 POP POP JUMP JUMPDEST PUSH0 PUSH2 0x1A4 DUP3 PUSH2 0xBB JUMP JUMPDEST SWAP2 POP PUSH2 0x1AF DUP4 PUSH2 0xBB JUMP JUMPDEST SWAP3 POP DUP3 DUP3 ADD SWAP1 POP DUP1 DUP3 GT ISZERO PUSH2 0x1C7 JUMPI PUSH2 0x1C6 PUSH2 0x12C JUMP JUMPDEST JUMPDEST SWAP3 SWAP2 POP POP JUMP JUMPDEST PUSH2 0x7BE DUP1 PUSH2 0x1DA PUSH0 CODECOPY PUSH0 RETURN INVALID PUSH1 0x80 PUSH1 0x40 MSTORE CALLVALUE DUP1 ISZERO PUSH2 0xF JUMPI PUSH0 DUP1 REVERT JUMPDEST POP PUSH1 0x4 CALLDATASIZE LT PUSH2 0x7B JUMPI PUSH0 CALLDATALOAD PUSH1 0xE0 SHR DUP1 PUSH4 0x5A9B0B89 GT PUSH2 0x59 JUMPI DUP1 PUSH4 0x5A9B0B89 EQ PUSH2 0xC5 JUMPI DUP1 PUSH4 0x8DA5CB5B EQ PUSH2 0xE6 JUMPI DUP1 PUSH4 0xBD14598F EQ PUSH2 0x104 JUMPI DUP1 PUSH4 0xE5C5E9A3 EQ PUSH2 0x122 JUMPI PUSH2 0x7B JUMP JUMPDEST DUP1 PUSH4 0x2906CBDC EQ PUSH2 0x7F JUMPI DUP1 PUSH4 0x349C1113 EQ PUSH2 0x9D JUMPI DUP1 PUSH4 0x3D18B912 EQ PUSH2 0xBB JUMPI JUMPDEST PUSH0 DUP1 REVERT JUMPDEST PUSH2 0x87 PUSH2 0x153 JUMP JUMPDEST PUSH1 0x40 MLOAD PUSH2 0x94 SWAP2 SWAP1 PUSH2 0x316 JUMP JUMPDEST PUSH1 0x40 MLOAD DUP1 SWAP2 SUB SWAP1 RETURN JUMPDEST PUSH2 0xA5 PUSH2 0x158 JUMP JUMPDEST PUSH1 0x40 MLOAD PUSH2 0xB2 SWAP2 SWAP1 PUSH2 0x316 JUMP JUMPDEST PUSH1 0x40 MLOAD DUP1 SWAP2 SUB SWAP1 RETURN JUMPDEST PUSH2 0xC3 PUSH2 0x15E JUMP JUMPDEST STOP JUMPDEST PUSH2 0xCD PUSH2 0x278 JUMP JUMPDEST PUSH1 0x40 MLOAD PUSH2 0xDD SWAP5 SWAP4 SWAP3 SWAP2 SWAP1 PUSH2 0x36E JUMP JUMPDEST PUSH1 0x40 MLOAD DUP1 SWAP2 SUB SWAP1 RETURN JUMPDEST PUSH2 0xEE PUSH2 0x28E JUMP JUMPDEST PUSH1 0x40 MLOAD PUSH2 0xFB SWAP2 SWAP1 PUSH2 0x3B1 JUMP JUMPDEST PUSH1 0x40 MLOAD DUP1 SWAP2 SUB SWAP1 RETURN JUMPDEST PUSH2 0x10C PUSH2 0x2B3 JUMP JUMPDEST PUSH1 0x40 MLOAD PUSH2 0x119 SWAP2 SWAP1 PUSH2 0x43A JUMP JUMPDEST PUSH1 0x40 MLOAD DUP1 SWAP2 SUB SWAP1 RETURN JUMPDEST PUSH2 0x13C PUSH1 0x4 DUP1 CALLDATASIZE SUB DUP2 ADD SWAP1 PUSH2 0x137 SWAP2 SWAP1 PUSH2 0x597 JUMP JUMPDEST PUSH2 0x2DF JUMP JUMPDEST PUSH1 0x40 MLOAD PUSH2 0x14A SWAP3 SWAP2 SWAP1 PUSH2 0x5DE JUMP JUMPDEST PUSH1 0x40 MLOAD DUP1 SWAP2 SUB SWAP1 RETURN JUMPDEST PUSH0 SLOAD DUP2 JUMP JUMPDEST PUSH1 0x1 SLOAD DUP2 JUMP JUMPDEST PUSH0 SLOAD TIMESTAMP LT ISZERO PUSH2 0x1A2 JUMPI PUSH1 0x40 MLOAD PUSH32 0x8C379A000000000000000000000000000000000000000000000000000000000 DUP2 MSTORE PUSH1 0x4 ADD PUSH2 0x199 SWAP1 PUSH2 0x65F JUMP JUMPDEST PUSH1 0x40 MLOAD DUP1 SWAP2 SUB SWAP1 REVERT JUMPDEST PUSH1 0x1 SLOAD TIMESTAMP LT ISZERO PUSH2 0x1E7 JUMPI PUSH1 0x40 MLOAD PUSH32 0x8C379A000000000000000000000000000000000000000000000000000000000 DUP2 MSTORE PUSH1 0x4 ADD PUSH2 0x1DE SWAP1 PUSH2 0x65F JUMP JUMPDEST PUSH1 0x40 MLOAD DUP1 SWAP2 SUB SWAP1 REVERT JUMPDEST PUSH1 0x2 PUSH0 SWAP1 SLOAD SWAP1 PUSH2 0x100 EXP SWAP1 DIV PUSH20 0xFFFFFFFFFFFFFFFFFFFFFFFFFFFFFFFFFFFFFFFF AND PUSH20 0xFFFFFFFFFFFFFFFFFFFFFFFFFFFFFFFFFFFFFFFF AND CALLER PUSH20 0xFFFFFFFFFFFFFFFFFFFFFFFFFFFFFFFFFFFFFFFF AND EQ PUSH2 0x276 JUMPI PUSH1 0x40 MLOAD PUSH32 0x8C379A000000000000000000000000000000000000000000000000000000000 DUP2 MSTORE PUSH1 0x4 ADD PUSH2 0x26D SWAP1 PUSH2 0x6C7 JUMP JUMPDEST PUSH1 0x40 MLOAD DUP1 SWAP2 SUB SWAP1 REVERT JUMPDEST JUMP JUMPDEST PUSH0 DUP1 PUSH0 DUP1 NUMBER TIMESTAMP COINBASE GASPRICE SWAP4 POP SWAP4 POP SWAP4 POP SWAP4 POP SWAP1 SWAP2 SWAP3 SWAP4 JUMP JUMPDEST PUSH1 0x2 PUSH0 SWAP1 SLOAD SWAP1 PUSH2 0x100 EXP SWAP1 DIV PUSH20 0xFFFFFFFFFFFFFFFFFFFFFFFFFFFFFFFFFFFFFFFF AND DUP2 JUMP JUMPDEST PUSH1 0x60 PUSH1 0x1 PUSH2 0x123 PUSH1 0x40 MLOAD PUSH1 0x20 ADD PUSH2 0x2CB SWAP3 SWAP2 SWAP1 PUSH2 0x5DE JUMP JUMPDEST PUSH1 0x40 MLOAD PUSH1 0x20 DUP2 DUP4 SUB SUB DUP2 MSTORE SWAP1 PUSH1 0x40 MSTORE SWAP1 POP SWAP1 JUMP JUMPDEST PUSH0 DUP1 DUP3 DUP1 PUSH1 0x20 ADD SWAP1 MLOAD DUP2 ADD SWAP1 PUSH2 0x2F5 SWAP2 SWAP1 PUSH2 0x74A JUMP JUMPDEST SWAP2 POP SWAP2 POP SWAP2 POP SWAP2 JUMP JUMPDEST PUSH0 DUP2 SWAP1 POP SWAP2 SWAP1 POP JUMP JUMPDEST PUSH2 0x310 DUP2 PUSH2 0x2FE JUMP JUMPDEST DUP3 MSTORE POP POP JUMP JUMPDEST PUSH0 PUSH1 0x20 DUP3 ADD SWAP1 POP PUSH2 0x329 PUSH0 DUP4 ADD DUP5 PUSH2 0x307 JUMP JUMPDEST SWAP3 SWAP2 POP POP JUMP JUMPDEST PUSH0 PUSH20 0xFFFFFFFFFFFFFFFFFFFFFFFFFFFFFFFFFFFFFFFF DUP3 AND SWAP1 POP SWAP2 SWAP1 POP JUMP JUMPDEST PUSH0 PUSH2 0x358 DUP3 PUSH2 0x32F JUMP JUMPDEST SWAP1 POP SWAP2 SWAP1 POP JUMP JUMPDEST PUSH2 0x368 DUP2 PUSH2 0x34E JUMP JUMPDEST DUP3 MSTORE POP POP JUMP JUMPDEST PUSH0 PUSH1 0x80 DUP3 ADD SWAP1 POP PUSH2 0x381 PUSH0 DUP4 ADD DUP8 PUSH2 0x307 JUMP JUMPDEST PUSH2 0x38E PUSH1 0x20 DUP4 ADD DUP7 PUSH2 0x307 JUMP JUMPDEST PUSH2 0x39B PUSH1 0x40 DUP4 ADD DUP6 PUSH2 0x35F JUMP JUMPDEST PUSH2 0x3A8 PUSH1 0x60 DUP4 ADD DUP5 PUSH2 0x307 JUMP JUMPDEST SWAP6 SWAP5 POP POP POP POP POP JUMP JUMPDEST PUSH0 PUSH1 0x20 DUP3 ADD SWAP1 POP PUSH2 0x3C4 PUSH0 DUP4 ADD DUP5 PUSH2 0x35F JUMP JUMPDEST SWAP3 SWAP2 POP POP JUMP JUMPDEST PUSH0 DUP2 MLOAD SWAP1 POP SWAP2 SWAP1 POP JUMP JUMPDEST PUSH0 DUP3 DUP3 MSTORE PUSH1 0x20 DUP3 ADD SWAP1 POP SWAP3 SWAP2 POP POP JUMP JUMPDEST DUP3 DUP2 DUP4 MCOPY PUSH0 DUP4 DUP4 ADD MSTORE POP POP POP JUMP JUMPDEST PUSH0 PUSH1 0x1F NOT PUSH1 0x1F DUP4 ADD AND SWAP1 POP SWAP2 SWAP1 POP JUMP JUMPDEST PUSH0 PUSH2 0x40C DUP3 PUSH2 0x3CA JUMP JUMPDEST PUSH2 0x416 DUP2 DUP6 PUSH2 0x3D4 JUMP JUMPDEST SWAP4 POP PUSH2 0x426 DUP2 DUP6 PUSH1 0x20 DUP7 ADD PUSH2 0x3E4 JUMP JUMPDEST PUSH2 0x42F DUP2 PUSH2 0x3F2 JUMP JUMPDEST DUP5 ADD SWAP2 POP POP SWAP3 SWAP2 POP POP JUMP JUMPDEST PUSH0 PUSH1 0x20 DUP3 ADD SWAP1 POP DUP2 DUP2 SUB PUSH0 DUP4 ADD MSTORE PUSH2 0x452 DUP2 DUP5 PUSH2 0x402 JUMP JUMPDEST SWAP1 POP SWAP3 SWAP2 POP POP JUMP JUMPDEST PUSH0 PUSH1 0x40 MLOAD SWAP1 POP SWAP1 JUMP JUMPDEST PUSH0 DUP1 REVERT JUMPDEST PUSH0 DUP1 REVERT JUMPDEST PUSH0 DUP1 REVERT JUMPDEST PUSH0 DUP1 REVERT JUMPDEST PUSH32 0x4E487B7100000000000000000000000000000000000000000000000000000000 PUSH0 MSTORE PUSH1 0x41 PUSH1 0x4 MSTORE PUSH1 0x24 PUSH0 REVERT JUMPDEST PUSH2 0x4A9 DUP3 PUSH2 0x3F2 JUMP JUMPDEST DUP2 ADD DUP2 DUP2 LT PUSH8 0xFFFFFFFFFFFFFFFF DUP3 GT OR ISZERO PUSH2 0x4C8 JUMPI PUSH2 0x4C7 PUSH2 0x473 JUMP JUMPDEST JUMPDEST DUP1 PUSH1 0x40 MSTORE POP POP POP JUMP JUMPDEST PUSH0 PUSH2 0x4DA PUSH2 0x45A JUMP JUMPDEST SWAP1 POP PUSH2 0x4E6 DUP3 DUP3 PUSH2 0x4A0 JUMP JUMPDEST SWAP2 SWAP1 POP JUMP JUMPDEST PUSH0 PUSH8 0xFFFFFFFFFFFFFFFF DUP3 GT ISZERO PUSH2 0x505 JUMPI PUSH2 0x504 PUSH2 0x473 JUMP JUMPDEST JUMPDEST PUSH2 0x50E DUP3 PUSH2 0x3F2 JUMP JUMPDEST SWAP1 POP PUSH1 0x20 DUP2 ADD SWAP1 POP SWAP2 SWAP1 POP JUMP JUMPDEST DUP3 DUP2 DUP4 CALLDATACOPY PUSH0 DUP4 DUP4 ADD MSTORE POP POP POP JUMP JUMPDEST PUSH0 PUSH2 0x53B PUSH2 0x536 DUP5 PUSH2 0x4EB JUMP JUMPDEST PUSH2 0x4D1 JUMP JUMPDEST SWAP1 POP DUP3 DUP2 MSTORE PUSH1 0x20 DUP2 ADD DUP5 DUP5 DUP5 ADD GT ISZERO PUSH2 0x557 JUMPI PUSH2 0x556 PUSH2 0x46F JUMP JUMPDEST JUMPDEST PUSH2 0x562 DUP5 DUP3 DUP6 PUSH2 0x51B JUMP JUMPDEST POP SWAP4 SWAP3 POP POP POP JUMP JUMPDEST PUSH0 DUP3 PUSH1 0x1F DUP4 ADD SLT PUSH2 0x57E JUMPI PUSH2 0x57D PUSH2 0x46B JUMP JUMPDEST JUMPDEST DUP2 CALLDATALOAD PUSH2 0x58E DUP5 DUP3 PUSH1 0x20 DUP7 ADD PUSH2 0x529 JUMP JUMPDEST SWAP2 POP POP SWAP3 SWAP2 POP POP JUMP JUMPDEST PUSH0 PUSH1 0x20 DUP3 DUP5 SUB SLT ISZERO PUSH2 0x5AC JUMPI PUSH2 0x5AB PUSH2 0x463 JUMP JUMPDEST JUMPDEST PUSH0 DUP3 ADD CALLDATALOAD PUSH8 0xFFFFFFFFFFFFFFFF DUP2 GT ISZERO PUSH2 0x5C9 JUMPI PUSH2 0x5C8 PUSH2 0x467 JUMP JUMPDEST JUMPDEST PUSH2 0x5D5 DUP5 DUP3 DUP6 ADD PUSH2 0x56A JUMP JUMPDEST SWAP2 POP POP SWAP3 SWAP2 POP POP JUMP JUMPDEST PUSH0 PUSH1 0x40 DUP3 ADD SWAP1 POP PUSH2 0x5F1 PUSH0 DUP4 ADD DUP6 PUSH2 0x307 JUMP JUMPDEST PUSH2 0x5FE PUSH1 0x20 DUP4 ADD DUP5 PUSH2 0x35F JUMP JUMPDEST SWAP4 SWAP3 POP POP POP JUMP JUMPDEST PUSH0 DUP3 DUP3 MSTORE PUSH1 0x20 DUP3 ADD SWAP1 POP SWAP3 SWAP2 POP POP JUMP JUMPDEST PUSH32 0x46756E647320617265206C6F636B65642E000000000000000000000000000000 PUSH0 DUP3 ADD MSTORE POP JUMP JUMPDEST PUSH0 PUSH2 0x649 PUSH1 0x11 DUP4 PUSH2 0x605 JUMP JUMPDEST SWAP2 POP PUSH2 0x654 DUP3 PUSH2 0x615 JUMP JUMPDEST PUSH1 0x20 DUP3 ADD SWAP1 POP SWAP2 SWAP1 POP JUMP JUMPDEST PUSH0 PUSH1 0x20 DUP3 ADD SWAP1 POP DUP2 DUP2 SUB PUSH0 DUP4 ADD MSTORE PUSH2 0x676 DUP2 PUSH2 0x63D JUMP JUMPDEST SWAP1 POP SWAP2 SWAP1 POP JUMP JUMPDEST PUSH32 0x4F6E6C79206F776E65722063616E2077697468647261772E0000000000000000 PUSH0 DUP3 ADD MSTORE POP JUMP JUMPDEST PUSH0 PUSH2 0x6B1 PUSH1 0x18 DUP4 PUSH2 0x605 JUMP JUMPDEST SWAP2 POP PUSH2 0x6BC DUP3 PUSH2 0x67D JUMP JUMPDEST PUSH1 0x20 DUP3 ADD SWAP1 POP SWAP2 SWAP1 POP JUMP JUMPDEST PUSH0 PUSH1 0x20 DUP3 ADD SWAP1 POP DUP2 DUP2 SUB PUSH0 DUP4 ADD MSTORE PUSH2 0x6DE DUP2 PUSH2 0x6A5 JUMP JUMPDEST SWAP1 POP SWAP2 SWAP1 POP JUMP JUMPDEST PUSH2 0x6EE DUP2 PUSH2 0x2FE JUMP JUMPDEST DUP2 EQ PUSH2 0x6F8 JUMPI PUSH0 DUP1 REVERT JUMPDEST POP JUMP JUMPDEST PUSH0 DUP2 MLOAD SWAP1 POP PUSH2 0x709 DUP2 PUSH2 0x6E5 JUMP JUMPDEST SWAP3 SWAP2 POP POP JUMP JUMPDEST PUSH0 PUSH2 0x719 DUP3 PUSH2 0x32F JUMP JUMPDEST SWAP1 POP SWAP2 SWAP1 POP JUMP JUMPDEST PUSH2 0x729 DUP2 PUSH2 0x70F JUMP JUMPDEST DUP2 EQ PUSH2 0x733 JUMPI PUSH0 DUP1 REVERT JUMPDEST POP JUMP JUMPDEST PUSH0 DUP2 MLOAD SWAP1 POP PUSH2 0x744 DUP2 PUSH2 0x720 JUMP JUMPDEST SWAP3 SWAP2 POP POP JUMP JUMPDEST PUSH0 DUP1 PUSH1 0x40 DUP4 DUP6 SUB SLT ISZERO PUSH2 0x760 JUMPI PUSH2 0x75F PUSH2 0x463 JUMP JUMPDEST JUMPDEST PUSH0 PUSH2 0x76D DUP6 DUP3 DUP7 ADD PUSH2 0x6FB JUMP JUMPDEST SWAP3 POP POP PUSH1 0x20 PUSH2 0x77E DUP6 DUP3 DUP7 ADD PUSH2 0x736 JUMP JUMPDEST SWAP2 POP POP SWAP3 POP SWAP3 SWAP1 POP JUMP INVALID LOG2 PUSH5 0x6970667358 0x22 SLT KECCAK256 0xBC SWAP12 SSTORE PUSH19 0x7289951DE22B41B10594620B3FD80B5F9A08EF STOP 0x27 DUP10 0xBD 0x2D 0xDB SWAP5 PUSH13 0x4C64736F6C634300081A003300 "
				},
				"gasEstimates": {
					"creation": {
						"codeDepositCost": "396400",
						"executionCost": "infinite",
						"totalCost": "infinite"
					},
					"external": {
						"decode(bytes)": "infinite",
						"encode()": "infinite",
						"getInfo()": "infinite",
						"getReward()": "6890",
						"owner()": "2530",
						"unlockMonthTime()": "2448",
						"unlockWeekTime()": "2425"
					}
				},
				"methodIdentifiers": {
					"decode(bytes)": "e5c5e9a3",
					"encode()": "bd14598f",
					"getInfo()": "5a9b0b89",
					"getReward()": "3d18b912",
					"owner()": "8da5cb5b",
					"unlockMonthTime()": "349c1113",
					"unlockWeekTime()": "2906cbdc"
				}
			},
			"storageLayout": {
				"storage": [
					{
						"astId": 3,
						"contract": "homework/02/全局变量/Test.sol:Test",
						"label": "unlockWeekTime",
						"offset": 0,
						"slot": "0",
						"type": "t_uint256"
					},
					{
						"astId": 5,
						"contract": "homework/02/全局变量/Test.sol:Test",
						"label": "unlockMonthTime",
						"offset": 0,
						"slot": "1",
						"type": "t_uint256"
					},
					{
						"astId": 7,
						"contract": "homework/02/全局变量/Test.sol:Test",
						"label": "owner",
						"offset": 0,
						"slot": "2",
						"type": "t_address"
					}
				],
				"types": {
					"t_address": {
						"encoding": "inplace",
						"label": "address",
						"numberOfBytes": "20"
					},
					"t_uint256": {
						"encoding": "inplace",
						"label": "uint256",
						"numberOfBytes": "32"
					}
				}
			},
			"userdoc": {
				"kind": "user",
				"methods": {},
				"version": 1
			}
		}
	}
}