{
	"homework/02/合约结构/EventExample.sol": {
		"EventExample": {
			"abi": [
				{
					"anonymous": false,
					"inputs": [
						{
							"indexed": false,
							"internalType": "uint256",
							"name": "newValue",
							"type": "uint256"
						}
					],
					"name": "DataChanged",
					"type": "event"
				},
				{
					"inputs": [],
					"name": "data",
					"outputs": [
						{
							"internalType": "uint256",
							"name": "",
							"type": "uint256"
						}
					],
					"stateMutability": "view",
					"type": "function"
				},
				{
					"inputs": [
						{
							"internalType": "uint256",
							"name": "_data",
							"type": "uint256"
						}
					],
					"name": "setData",
					"outputs": [],
					"stateMutability": "nonpayable",
					"type": "function"
				}
			],
			"devdoc": {
				"kind": "dev",
				"methods": {},
				"version": 1
			},
			"evm": {
				"assembly": "    /* \"homework/02/\\xe5\\x90\\x88\\xe7\\xba\\xa6\\xe7\\xbb\\x93\\xe6\\x9e\\x84/EventExample.sol\":140:336  contract EventExample{... */\n  mstore(0x40, 0x80)\n  callvalue\n  dup1\n  iszero\n  tag_1\n  jumpi\n  0x00\n  dup1\n  revert\ntag_1:\n  pop\n  dataSize(sub_0)\n  dup1\n  dataOffset(sub_0)\n  0x00\n  codecopy\n  0x00\n  return\nstop\n\nsub_0: assembly {\n        /* \"homework/02/\\xe5\\x90\\x88\\xe7\\xba\\xa6\\xe7\\xbb\\x93\\xe6\\x9e\\x84/EventExample.sol\":140:336  contract EventExample{... */\n      mstore(0x40, 0x80)\n      callvalue\n      dup1\n      iszero\n      tag_1\n      jumpi\n      0x00\n      dup1\n      revert\n    tag_1:\n      pop\n      jumpi(tag_2, lt(calldatasize, 0x04))\n      shr(0xe0, calldataload(0x00))\n      dup1\n      0x5b4b73a9\n      eq\n      tag_3\n      jumpi\n      dup1\n      0x73d4a13a\n      eq\n      tag_4\n      jumpi\n    tag_2:\n      0x00\n      dup1\n      revert\n        /* \"homework/02/\\xe5\\x90\\x88\\xe7\\xba\\xa6\\xe7\\xbb\\x93\\xe6\\x9e\\x84/EventExample.sol\":234:333  function setData(uint _data)public{... */\n    tag_3:\n      tag_5\n      0x04\n      dup1\n      calldatasize\n      sub\n      dup2\n      add\n      swap1\n      tag_6\n      swap2\n      swap1\n      tag_7\n      jump\t// in\n    tag_6:\n      tag_8\n      jump\t// in\n    tag_5:\n      stop\n        /* \"homework/02/\\xe5\\x90\\x88\\xe7\\xba\\xa6\\xe7\\xbb\\x93\\xe6\\x9e\\x84/EventExample.sol\":209:225  uint public data */\n    tag_4:\n      tag_9\n      tag_10\n      jump\t// in\n    tag_9:\n      mload(0x40)\n      tag_11\n      swap2\n      swap1\n      tag_12\n      jump\t// in\n    tag_11:\n      mload(0x40)\n      dup1\n      swap2\n      sub\n      swap1\n      return\n        /* \"homework/02/\\xe5\\x90\\x88\\xe7\\xba\\xa6\\xe7\\xbb\\x93\\xe6\\x9e\\x84/EventExample.sol\":234:333  function setData(uint _data)public{... */\n    tag_8:\n        /* \"homework/02/\\xe5\\x90\\x88\\xe7\\xba\\xa6\\xe7\\xbb\\x93\\xe6\\x9e\\x84/EventExample.sol\":286:291  _data */\n      dup1\n        /* \"homework/02/\\xe5\\x90\\x88\\xe7\\xba\\xa6\\xe7\\xbb\\x93\\xe6\\x9e\\x84/EventExample.sol\":279:283  data */\n      0x00\n        /* \"homework/02/\\xe5\\x90\\x88\\xe7\\xba\\xa6\\xe7\\xbb\\x93\\xe6\\x9e\\x84/EventExample.sol\":279:291  data = _data */\n      dup2\n      swap1\n      sstore\n      pop\n        /* \"homework/02/\\xe5\\x90\\x88\\xe7\\xba\\xa6\\xe7\\xbb\\x93\\xe6\\x9e\\x84/EventExample.sol\":307:325  DataChanged(_data) */\n      0x30abf1e3f71dc652b1df75682ae16af5c006ad42cd23d00001e8e106d8af4e1d\n        /* \"homework/02/\\xe5\\x90\\x88\\xe7\\xba\\xa6\\xe7\\xbb\\x93\\xe6\\x9e\\x84/EventExample.sol\":319:324  _data */\n      dup2\n        /* \"homework/02/\\xe5\\x90\\x88\\xe7\\xba\\xa6\\xe7\\xbb\\x93\\xe6\\x9e\\x84/EventExample.sol\":307:325  DataChanged(_data) */\n      mload(0x40)\n      tag_14\n      swap2\n      swap1\n      tag_12\n      jump\t// in\n    tag_14:\n      mload(0x40)\n      dup1\n      swap2\n      sub\n      swap1\n      log1\n        /* \"homework/02/\\xe5\\x90\\x88\\xe7\\xba\\xa6\\xe7\\xbb\\x93\\xe6\\x9e\\x84/EventExample.sol\":234:333  function setData(uint _data)public{... */\n      pop\n      jump\t// out\n        /* \"homework/02/\\xe5\\x90\\x88\\xe7\\xba\\xa6\\xe7\\xbb\\x93\\xe6\\x9e\\x84/EventExample.sol\":209:225  uint public data */\n    tag_10:\n      sload(0x00)\n      dup2\n      jump\t// out\n        /* \"#utility.yul\":88:205   */\n    tag_16:\n        /* \"#utility.yul\":197:198   */\n      0x00\n        /* \"#utility.yul\":194:195   */\n      dup1\n        /* \"#utility.yul\":187:199   */\n      revert\n        /* \"#utility.yul\":334:411   */\n    tag_18:\n        /* \"#utility.yul\":371:378   */\n      0x00\n        /* \"#utility.yul\":400:405   */\n      dup2\n        /* \"#utility.yul\":389:405   */\n      swap1\n      pop\n        /* \"#utility.yul\":334:411   */\n      swap2\n      swap1\n      pop\n      jump\t// out\n        /* \"#utility.yul\":417:539   */\n    tag_19:\n        /* \"#utility.yul\":490:514   */\n      tag_28\n        /* \"#utility.yul\":508:513   */\n      dup2\n        /* \"#utility.yul\":490:514   */\n      tag_18\n      jump\t// in\n    tag_28:\n        /* \"#utility.yul\":483:488   */\n      dup2\n        /* \"#utility.yul\":480:515   */\n      eq\n        /* \"#utility.yul\":470:533   */\n      tag_29\n      jumpi\n        /* \"#utility.yul\":529:530   */\n      0x00\n        /* \"#utility.yul\":526:527   */\n      dup1\n        /* \"#utility.yul\":519:531   */\n      revert\n        /* \"#utility.yul\":470:533   */\n    tag_29:\n        /* \"#utility.yul\":417:539   */\n      pop\n      jump\t// out\n        /* \"#utility.yul\":545:684   */\n    tag_20:\n        /* \"#utility.yul\":591:596   */\n      0x00\n        /* \"#utility.yul\":629:635   */\n      dup2\n        /* \"#utility.yul\":616:636   */\n      calldataload\n        /* \"#utility.yul\":607:636   */\n      swap1\n      pop\n        /* \"#utility.yul\":645:678   */\n      tag_31\n        /* \"#utility.yul\":672:677   */\n      dup2\n        /* \"#utility.yul\":645:678   */\n      tag_19\n      jump\t// in\n    tag_31:\n        /* \"#utility.yul\":545:684   */\n      swap3\n      swap2\n      pop\n      pop\n      jump\t// out\n        /* \"#utility.yul\":690:1019   */\n    tag_7:\n        /* \"#utility.yul\":749:755   */\n      0x00\n        /* \"#utility.yul\":798:800   */\n      0x20\n        /* \"#utility.yul\":786:795   */\n      dup3\n        /* \"#utility.yul\":777:784   */\n      dup5\n        /* \"#utility.yul\":773:796   */\n      sub\n        /* \"#utility.yul\":769:801   */\n      slt\n        /* \"#utility.yul\":766:885   */\n      iszero\n      tag_33\n      jumpi\n        /* \"#utility.yul\":804:883   */\n      tag_34\n      tag_16\n      jump\t// in\n    tag_34:\n        /* \"#utility.yul\":766:885   */\n    tag_33:\n        /* \"#utility.yul\":924:925   */\n      0x00\n        /* \"#utility.yul\":949:1002   */\n      tag_35\n        /* \"#utility.yul\":994:1001   */\n      dup5\n        /* \"#utility.yul\":985:991   */\n      dup3\n        /* \"#utility.yul\":974:983   */\n      dup6\n        /* \"#utility.yul\":970:992   */\n      add\n        /* \"#utility.yul\":949:1002   */\n      tag_20\n      jump\t// in\n    tag_35:\n        /* \"#utility.yul\":939:1002   */\n      swap2\n      pop\n        /* \"#utility.yul\":895:1012   */\n      pop\n        /* \"#utility.yul\":690:1019   */\n      swap3\n      swap2\n      pop\n      pop\n      jump\t// out\n        /* \"#utility.yul\":1025:1143   */\n    tag_21:\n        /* \"#utility.yul\":1112:1136   */\n      tag_37\n        /* \"#utility.yul\":1130:1135   */\n      dup2\n        /* \"#utility.yul\":1112:1136   */\n      tag_18\n      jump\t// in\n    tag_37:\n        /* \"#utility.yul\":1107:1110   */\n      dup3\n        /* \"#utility.yul\":1100:1137   */\n      mstore\n        /* \"#utility.yul\":1025:1143   */\n      pop\n      pop\n      jump\t// out\n        /* \"#utility.yul\":1149:1371   */\n    tag_12:\n        /* \"#utility.yul\":1242:1246   */\n      0x00\n        /* \"#utility.yul\":1280:1282   */\n      0x20\n        /* \"#utility.yul\":1269:1278   */\n      dup3\n        /* \"#utility.yul\":1265:1283   */\n      add\n        /* \"#utility.yul\":1257:1283   */\n      swap1\n      pop\n        /* \"#utility.yul\":1293:1364   */\n      tag_39\n        /* \"#utility.yul\":1361:1362   */\n      0x00\n        /* \"#utility.yul\":1350:1359   */\n      dup4\n        /* \"#utility.yul\":1346:1363   */\n      add\n        /* \"#utility.yul\":1337:1343   */\n      dup5\n        /* \"#utility.yul\":1293:1364   */\n      tag_21\n      jump\t// in\n    tag_39:\n        /* \"#utility.yul\":1149:1371   */\n      swap3\n      swap2\n      pop\n      pop\n      jump\t// out\n\n    auxdata: 0xa2646970667358221220a8455374667b5eae23b4c7ac1ff0f24f712ef21fbff31688a5b35851ef18fd6564736f6c634300081a0033\n}\n",
				"bytecode": {
					"linkReferences": {},
					"object": "6080604052348015600e575f80fd5b506101778061001c5f395ff3fe608060405234801561000f575f80fd5b5060043610610034575f3560e01c80635b4b73a91461003857806373d4a13a14610054575b5f80fd5b610052600480360381019061004d91906100ee565b610072565b005b61005c6100b2565b6040516100699190610128565b60405180910390f35b805f819055507f30abf1e3f71dc652b1df75682ae16af5c006ad42cd23d00001e8e106d8af4e1d816040516100a79190610128565b60405180910390a150565b5f5481565b5f80fd5b5f819050919050565b6100cd816100bb565b81146100d7575f80fd5b50565b5f813590506100e8816100c4565b92915050565b5f60208284031215610103576101026100b7565b5b5f610110848285016100da565b91505092915050565b610122816100bb565b82525050565b5f60208201905061013b5f830184610119565b9291505056fea2646970667358221220a8455374667b5eae23b4c7ac1ff0f24f712ef21fbff31688a5b35851ef18fd6564736f6c634300081a0033",
					"opcodes": "PUSH1 0x80 PUSH1 0x40 MSTORE CALLVALUE DUP1 ISZERO PUSH1 0xE JUMPI PUSH0 DUP1 REVERT JUMPDEST POP PUSH2 0x177 DUP1 PUSH2 0x1C PUSH0 CODECOPY PUSH0 RETURN INVALID PUSH1 0x80 PUSH1 0x40 MSTORE CALLVALUE DUP1 ISZERO PUSH2 0xF JUMPI PUSH0 DUP1 REVERT JUMPDEST POP PUSH1 0x4 CALLDATASIZE LT PUSH2 0x34 JUMPI PUSH0 CALLDATALOAD PUSH1 0xE0 SHR DUP1 PUSH4 0x5B4B73A9 EQ PUSH2 0x38 JUMPI DUP1 PUSH4 0x73D4A13A EQ PUSH2 0x54 JUMPI JUMPDEST PUSH0 DUP1 REVERT JUMPDEST PUSH2 0x52 PUSH1 0x4 DUP1 CALLDATASIZE SUB DUP2 ADD SWAP1 PUSH2 0x4D SWAP2 SWAP1 PUSH2 0xEE JUMP JUMPDEST PUSH2 0x72 JUMP JUMPDEST STOP JUMPDEST PUSH2 0x5C PUSH2 0xB2 JUMP JUMPDEST PUSH1 0x40 MLOAD PUSH2 0x69 SWAP2 SWAP1 PUSH2 0x128 JUMP JUMPDEST PUSH1 0x40 MLOAD DUP1 SWAP2 SUB SWAP1 RETURN JUMPDEST DUP1 PUSH0 DUP2 SWAP1 SSTORE POP PUSH32 0x30ABF1E3F71DC652B1DF75682AE16AF5C006AD42CD23D00001E8E106D8AF4E1D DUP2 PUSH1 0x40 MLOAD PUSH2 0xA7 SWAP2 SWAP1 PUSH2 0x128 JUMP JUMPDEST PUSH1 0x40 MLOAD DUP1 SWAP2 SUB SWAP1 LOG1 POP JUMP JUMPDEST PUSH0 SLOAD DUP2 JUMP JUMPDEST PUSH0 DUP1 REVERT JUMPDEST PUSH0 DUP2 SWAP1 POP SWAP2 SWAP1 POP JUMP JUMPDEST PUSH2 0xCD DUP2 PUSH2 0xBB JUMP JUMPDEST DUP2 EQ PUSH2 0xD7 JUMPI PUSH0 DUP1 REVERT JUMPDEST POP JUMP JUMPDEST PUSH0 DUP2 CALLDATALOAD SWAP1 POP PUSH2 0xE8 DUP2 PUSH2 0xC4 JUMP JUMPDEST SWAP3 SWAP2 POP POP JUMP JUMPDEST PUSH0 PUSH1 0x20 DUP3 DUP5 SUB SLT ISZERO PUSH2 0x103 JUMPI PUSH2 0x102 PUSH2 0xB7 JUMP JUMPDEST JUMPDEST PUSH0 PUSH2 0x110 DUP5 DUP3 DUP6 ADD PUSH2 0xDA JUMP JUMPDEST SWAP2 POP POP SWAP3 SWAP2 POP POP JUMP JUMPDEST PUSH2 0x122 DUP2 PUSH2 0xBB JUMP JUMPDEST DUP3 MSTORE POP POP JUMP JUMPDEST PUSH0 PUSH1 0x20 DUP3 ADD SWAP1 POP PUSH2 0x13B PUSH0 DUP4 ADD DUP5 PUSH2 0x119 JUMP JUMPDEST SWAP3 SWAP2 POP POP JUMP INVALID LOG2 PUSH5 0x6970667358 0x22 SLT KECCAK256 0xA8 GASLIMIT MSTORE8 PUSH21 0x667B5EAE23B4C7AC1FF0F24F712EF21FBFF31688A5 0xB3 PC MLOAD 0xEF XOR REVERT PUSH6 0x64736F6C6343 STOP ADDMOD BYTE STOP CALLER "
				},
				"gasEstimates": {
					"creation": {
						"codeDepositCost": "75000",
						"executionCost": "121",
						"totalCost": "75121"
					},
					"external": {
						"data()": "2424",
						"setData(uint256)": "infinite"
					}
				},
				"methodIdentifiers": {
					"data()": "73d4a13a",
					"setData(uint256)": "5b4b73a9"
				}
			},
			"storageLayout": {
				"storage": [
					{
						"astId": 7,
						"contract": "homework/02/合约结构/EventExample.sol:EventExample",
						"label": "data",
						"offset": 0,
						"slot": "0",
						"type": "t_uint256"
					}
				],
				"types": {
					"t_uint256": {
						"encoding": "inplace",
						"label": "uint256",
						"numberOfBytes": "32"
					}
				}
			},
			"userdoc": {
				"kind": "user",
				"methods": {},
				"version": 1
			}
		}
	}
}