{
	"homework/02/合约结构/OverloadingExample.sol": {
		"OverloadingExample": {
			"abi": [
				{
					"inputs": [
						{
							"internalType": "uint256",
							"name": "_in",
							"type": "uint256"
						},
						{
							"internalType": "bool",
							"name": "_flag",
							"type": "bool"
						}
					],
					"name": "f",
					"outputs": [
						{
							"internalType": "uint256",
							"name": "",
							"type": "uint256"
						}
					],
					"stateMutability": "pure",
					"type": "function"
				},
				{
					"inputs": [
						{
							"internalType": "uint256",
							"name": "_in",
							"type": "uint256"
						}
					],
					"name": "f",
					"outputs": [
						{
							"internalType": "uint256",
							"name": "",
							"type": "uint256"
						}
					],
					"stateMutability": "pure",
					"type": "function"
				}
			],
			"devdoc": {
				"kind": "dev",
				"methods": {},
				"version": 1
			},
			"evm": {
				"assembly": "    /* \"homework/02/\\xe5\\x90\\x88\\xe7\\xba\\xa6\\xe7\\xbb\\x93\\xe6\\x9e\\x84/OverloadingExample.sol\":140:362  contract OverloadingExample{... */\n  mstore(0x40, 0x80)\n  callvalue\n  dup1\n  iszero\n  tag_1\n  jumpi\n  0x00\n  dup1\n  revert\ntag_1:\n  pop\n  dataSize(sub_0)\n  dup1\n  dataOffset(sub_0)\n  0x00\n  codecopy\n  0x00\n  return\nstop\n\nsub_0: assembly {\n        /* \"homework/02/\\xe5\\x90\\x88\\xe7\\xba\\xa6\\xe7\\xbb\\x93\\xe6\\x9e\\x84/OverloadingExample.sol\":140:362  contract OverloadingExample{... */\n      mstore(0x40, 0x80)\n      callvalue\n      dup1\n      iszero\n      tag_1\n      jumpi\n      0x00\n      dup1\n      revert\n    tag_1:\n      pop\n      jumpi(tag_2, lt(calldatasize, 0x04))\n      shr(0xe0, calldataload(0x00))\n      dup1\n      0x2735acb7\n      eq\n      tag_3\n      jumpi\n      dup1\n      0xb3de648b\n      eq\n      tag_4\n      jumpi\n    tag_2:\n      0x00\n      dup1\n      revert\n        /* \"homework/02/\\xe5\\x90\\x88\\xe7\\xba\\xa6\\xe7\\xbb\\x93\\xe6\\x9e\\x84/OverloadingExample.sol\":258:359  function f(uint _in, bool _flag) public pure returns (uint) {... */\n    tag_3:\n      tag_5\n      0x04\n      dup1\n      calldatasize\n      sub\n      dup2\n      add\n      swap1\n      tag_6\n      swap2\n      swap1\n      tag_7\n      jump\t// in\n    tag_6:\n      tag_8\n      jump\t// in\n    tag_5:\n      mload(0x40)\n      tag_9\n      swap2\n      swap1\n      tag_10\n      jump\t// in\n    tag_9:\n      mload(0x40)\n      dup1\n      swap2\n      sub\n      swap1\n      return\n        /* \"homework/02/\\xe5\\x90\\x88\\xe7\\xba\\xa6\\xe7\\xbb\\x93\\xe6\\x9e\\x84/OverloadingExample.sol\":174:249  function f(uint _in) public pure returns(uint){... */\n    tag_4:\n      tag_11\n      0x04\n      dup1\n      calldatasize\n      sub\n      dup2\n      add\n      swap1\n      tag_12\n      swap2\n      swap1\n      tag_13\n      jump\t// in\n    tag_12:\n      tag_14\n      jump\t// in\n    tag_11:\n      mload(0x40)\n      tag_15\n      swap2\n      swap1\n      tag_10\n      jump\t// in\n    tag_15:\n      mload(0x40)\n      dup1\n      swap2\n      sub\n      swap1\n      return\n        /* \"homework/02/\\xe5\\x90\\x88\\xe7\\xba\\xa6\\xe7\\xbb\\x93\\xe6\\x9e\\x84/OverloadingExample.sol\":258:359  function f(uint _in, bool _flag) public pure returns (uint) {... */\n    tag_8:\n        /* \"homework/02/\\xe5\\x90\\x88\\xe7\\xba\\xa6\\xe7\\xbb\\x93\\xe6\\x9e\\x84/OverloadingExample.sol\":312:316  uint */\n      0x00\n        /* \"homework/02/\\xe5\\x90\\x88\\xe7\\xba\\xa6\\xe7\\xbb\\x93\\xe6\\x9e\\x84/OverloadingExample.sol\":336:341  _flag */\n      dup2\n        /* \"homework/02/\\xe5\\x90\\x88\\xe7\\xba\\xa6\\xe7\\xbb\\x93\\xe6\\x9e\\x84/OverloadingExample.sol\":336:351  _flag ? _in : 0 */\n      tag_17\n      jumpi\n        /* \"homework/02/\\xe5\\x90\\x88\\xe7\\xba\\xa6\\xe7\\xbb\\x93\\xe6\\x9e\\x84/OverloadingExample.sol\":350:351  0 */\n      0x00\n        /* \"homework/02/\\xe5\\x90\\x88\\xe7\\xba\\xa6\\xe7\\xbb\\x93\\xe6\\x9e\\x84/OverloadingExample.sol\":336:351  _flag ? _in : 0 */\n      jump(tag_18)\n    tag_17:\n        /* \"homework/02/\\xe5\\x90\\x88\\xe7\\xba\\xa6\\xe7\\xbb\\x93\\xe6\\x9e\\x84/OverloadingExample.sol\":344:347  _in */\n      dup3\n        /* \"homework/02/\\xe5\\x90\\x88\\xe7\\xba\\xa6\\xe7\\xbb\\x93\\xe6\\x9e\\x84/OverloadingExample.sol\":336:351  _flag ? _in : 0 */\n    tag_18:\n        /* \"homework/02/\\xe5\\x90\\x88\\xe7\\xba\\xa6\\xe7\\xbb\\x93\\xe6\\x9e\\x84/OverloadingExample.sol\":329:351  return _flag ? _in : 0 */\n      swap1\n      pop\n        /* \"homework/02/\\xe5\\x90\\x88\\xe7\\xba\\xa6\\xe7\\xbb\\x93\\xe6\\x9e\\x84/OverloadingExample.sol\":258:359  function f(uint _in, bool _flag) public pure returns (uint) {... */\n      swap3\n      swap2\n      pop\n      pop\n      jump\t// out\n        /* \"homework/02/\\xe5\\x90\\x88\\xe7\\xba\\xa6\\xe7\\xbb\\x93\\xe6\\x9e\\x84/OverloadingExample.sol\":174:249  function f(uint _in) public pure returns(uint){... */\n    tag_14:\n        /* \"homework/02/\\xe5\\x90\\x88\\xe7\\xba\\xa6\\xe7\\xbb\\x93\\xe6\\x9e\\x84/OverloadingExample.sol\":215:219  uint */\n      0x00\n        /* \"homework/02/\\xe5\\x90\\x88\\xe7\\xba\\xa6\\xe7\\xbb\\x93\\xe6\\x9e\\x84/OverloadingExample.sol\":238:241  _in */\n      dup2\n        /* \"homework/02/\\xe5\\x90\\x88\\xe7\\xba\\xa6\\xe7\\xbb\\x93\\xe6\\x9e\\x84/OverloadingExample.sol\":231:241  return _in */\n      swap1\n      pop\n        /* \"homework/02/\\xe5\\x90\\x88\\xe7\\xba\\xa6\\xe7\\xbb\\x93\\xe6\\x9e\\x84/OverloadingExample.sol\":174:249  function f(uint _in) public pure returns(uint){... */\n      swap2\n      swap1\n      pop\n      jump\t// out\n        /* \"#utility.yul\":88:205   */\n    tag_21:\n        /* \"#utility.yul\":197:198   */\n      0x00\n        /* \"#utility.yul\":194:195   */\n      dup1\n        /* \"#utility.yul\":187:199   */\n      revert\n        /* \"#utility.yul\":334:411   */\n    tag_23:\n        /* \"#utility.yul\":371:378   */\n      0x00\n        /* \"#utility.yul\":400:405   */\n      dup2\n        /* \"#utility.yul\":389:405   */\n      swap1\n      pop\n        /* \"#utility.yul\":334:411   */\n      swap2\n      swap1\n      pop\n      jump\t// out\n        /* \"#utility.yul\":417:539   */\n    tag_24:\n        /* \"#utility.yul\":490:514   */\n      tag_36\n        /* \"#utility.yul\":508:513   */\n      dup2\n        /* \"#utility.yul\":490:514   */\n      tag_23\n      jump\t// in\n    tag_36:\n        /* \"#utility.yul\":483:488   */\n      dup2\n        /* \"#utility.yul\":480:515   */\n      eq\n        /* \"#utility.yul\":470:533   */\n      tag_37\n      jumpi\n        /* \"#utility.yul\":529:530   */\n      0x00\n        /* \"#utility.yul\":526:527   */\n      dup1\n        /* \"#utility.yul\":519:531   */\n      revert\n        /* \"#utility.yul\":470:533   */\n    tag_37:\n        /* \"#utility.yul\":417:539   */\n      pop\n      jump\t// out\n        /* \"#utility.yul\":545:684   */\n    tag_25:\n        /* \"#utility.yul\":591:596   */\n      0x00\n        /* \"#utility.yul\":629:635   */\n      dup2\n        /* \"#utility.yul\":616:636   */\n      calldataload\n        /* \"#utility.yul\":607:636   */\n      swap1\n      pop\n        /* \"#utility.yul\":645:678   */\n      tag_39\n        /* \"#utility.yul\":672:677   */\n      dup2\n        /* \"#utility.yul\":645:678   */\n      tag_24\n      jump\t// in\n    tag_39:\n        /* \"#utility.yul\":545:684   */\n      swap3\n      swap2\n      pop\n      pop\n      jump\t// out\n        /* \"#utility.yul\":690:780   */\n    tag_26:\n        /* \"#utility.yul\":724:731   */\n      0x00\n        /* \"#utility.yul\":767:772   */\n      dup2\n        /* \"#utility.yul\":760:773   */\n      iszero\n        /* \"#utility.yul\":753:774   */\n      iszero\n        /* \"#utility.yul\":742:774   */\n      swap1\n      pop\n        /* \"#utility.yul\":690:780   */\n      swap2\n      swap1\n      pop\n      jump\t// out\n        /* \"#utility.yul\":786:902   */\n    tag_27:\n        /* \"#utility.yul\":856:877   */\n      tag_42\n        /* \"#utility.yul\":871:876   */\n      dup2\n        /* \"#utility.yul\":856:877   */\n      tag_26\n      jump\t// in\n    tag_42:\n        /* \"#utility.yul\":849:854   */\n      dup2\n        /* \"#utility.yul\":846:878   */\n      eq\n        /* \"#utility.yul\":836:896   */\n      tag_43\n      jumpi\n        /* \"#utility.yul\":892:893   */\n      0x00\n        /* \"#utility.yul\":889:890   */\n      dup1\n        /* \"#utility.yul\":882:894   */\n      revert\n        /* \"#utility.yul\":836:896   */\n    tag_43:\n        /* \"#utility.yul\":786:902   */\n      pop\n      jump\t// out\n        /* \"#utility.yul\":908:1041   */\n    tag_28:\n        /* \"#utility.yul\":951:956   */\n      0x00\n        /* \"#utility.yul\":989:995   */\n      dup2\n        /* \"#utility.yul\":976:996   */\n      calldataload\n        /* \"#utility.yul\":967:996   */\n      swap1\n      pop\n        /* \"#utility.yul\":1005:1035   */\n      tag_45\n        /* \"#utility.yul\":1029:1034   */\n      dup2\n        /* \"#utility.yul\":1005:1035   */\n      tag_27\n      jump\t// in\n    tag_45:\n        /* \"#utility.yul\":908:1041   */\n      swap3\n      swap2\n      pop\n      pop\n      jump\t// out\n        /* \"#utility.yul\":1047:1515   */\n    tag_7:\n        /* \"#utility.yul\":1112:1118   */\n      0x00\n        /* \"#utility.yul\":1120:1126   */\n      dup1\n        /* \"#utility.yul\":1169:1171   */\n      0x40\n        /* \"#utility.yul\":1157:1166   */\n      dup4\n        /* \"#utility.yul\":1148:1155   */\n      dup6\n        /* \"#utility.yul\":1144:1167   */\n      sub\n        /* \"#utility.yul\":1140:1172   */\n      slt\n        /* \"#utility.yul\":1137:1256   */\n      iszero\n      tag_47\n      jumpi\n        /* \"#utility.yul\":1175:1254   */\n      tag_48\n      tag_21\n      jump\t// in\n    tag_48:\n        /* \"#utility.yul\":1137:1256   */\n    tag_47:\n        /* \"#utility.yul\":1295:1296   */\n      0x00\n        /* \"#utility.yul\":1320:1373   */\n      tag_49\n        /* \"#utility.yul\":1365:1372   */\n      dup6\n        /* \"#utility.yul\":1356:1362   */\n      dup3\n        /* \"#utility.yul\":1345:1354   */\n      dup7\n        /* \"#utility.yul\":1341:1363   */\n      add\n        /* \"#utility.yul\":1320:1373   */\n      tag_25\n      jump\t// in\n    tag_49:\n        /* \"#utility.yul\":1310:1373   */\n      swap3\n      pop\n        /* \"#utility.yul\":1266:1383   */\n      pop\n        /* \"#utility.yul\":1422:1424   */\n      0x20\n        /* \"#utility.yul\":1448:1498   */\n      tag_50\n        /* \"#utility.yul\":1490:1497   */\n      dup6\n        /* \"#utility.yul\":1481:1487   */\n      dup3\n        /* \"#utility.yul\":1470:1479   */\n      dup7\n        /* \"#utility.yul\":1466:1488   */\n      add\n        /* \"#utility.yul\":1448:1498   */\n      tag_28\n      jump\t// in\n    tag_50:\n        /* \"#utility.yul\":1438:1498   */\n      swap2\n      pop\n        /* \"#utility.yul\":1393:1508   */\n      pop\n        /* \"#utility.yul\":1047:1515   */\n      swap3\n      pop\n      swap3\n      swap1\n      pop\n      jump\t// out\n        /* \"#utility.yul\":1521:1639   */\n    tag_29:\n        /* \"#utility.yul\":1608:1632   */\n      tag_52\n        /* \"#utility.yul\":1626:1631   */\n      dup2\n        /* \"#utility.yul\":1608:1632   */\n      tag_23\n      jump\t// in\n    tag_52:\n        /* \"#utility.yul\":1603:1606   */\n      dup3\n        /* \"#utility.yul\":1596:1633   */\n      mstore\n        /* \"#utility.yul\":1521:1639   */\n      pop\n      pop\n      jump\t// out\n        /* \"#utility.yul\":1645:1867   */\n    tag_10:\n        /* \"#utility.yul\":1738:1742   */\n      0x00\n        /* \"#utility.yul\":1776:1778   */\n      0x20\n        /* \"#utility.yul\":1765:1774   */\n      dup3\n        /* \"#utility.yul\":1761:1779   */\n      add\n        /* \"#utility.yul\":1753:1779   */\n      swap1\n      pop\n        /* \"#utility.yul\":1789:1860   */\n      tag_54\n        /* \"#utility.yul\":1857:1858   */\n      0x00\n        /* \"#utility.yul\":1846:1855   */\n      dup4\n        /* \"#utility.yul\":1842:1859   */\n      add\n        /* \"#utility.yul\":1833:1839   */\n      dup5\n        /* \"#utility.yul\":1789:1860   */\n      tag_29\n      jump\t// in\n    tag_54:\n        /* \"#utility.yul\":1645:1867   */\n      swap3\n      swap2\n      pop\n      pop\n      jump\t// out\n        /* \"#utility.yul\":1873:2202   */\n    tag_13:\n        /* \"#utility.yul\":1932:1938   */\n      0x00\n        /* \"#utility.yul\":1981:1983   */\n      0x20\n        /* \"#utility.yul\":1969:1978   */\n      dup3\n        /* \"#utility.yul\":1960:1967   */\n      dup5\n        /* \"#utility.yul\":1956:1979   */\n      sub\n        /* \"#utility.yul\":1952:1984   */\n      slt\n        /* \"#utility.yul\":1949:2068   */\n      iszero\n      tag_56\n      jumpi\n        /* \"#utility.yul\":1987:2066   */\n      tag_57\n      tag_21\n      jump\t// in\n    tag_57:\n        /* \"#utility.yul\":1949:2068   */\n    tag_56:\n        /* \"#utility.yul\":2107:2108   */\n      0x00\n        /* \"#utility.yul\":2132:2185   */\n      tag_58\n        /* \"#utility.yul\":2177:2184   */\n      dup5\n        /* \"#utility.yul\":2168:2174   */\n      dup3\n        /* \"#utility.yul\":2157:2166   */\n      dup6\n        /* \"#utility.yul\":2153:2175   */\n      add\n        /* \"#utility.yul\":2132:2185   */\n      tag_25\n      jump\t// in\n    tag_58:\n        /* \"#utility.yul\":2122:2185   */\n      swap2\n      pop\n        /* \"#utility.yul\":2078:2195   */\n      pop\n        /* \"#utility.yul\":1873:2202   */\n      swap3\n      swap2\n      pop\n      pop\n      jump\t// out\n\n    auxdata: 0xa2646970667358221220f2f9077f212fc1d83e6656935cadd42589e2c72eb92b6b5a3e6b73bc6562cfb164736f6c634300081a0033\n}\n",
				"bytecode": {
					"linkReferences": {},
					"object": "6080604052348015600e575f80fd5b506101ea8061001c5f395ff3fe608060405234801561000f575f80fd5b5060043610610034575f3560e01c80632735acb714610038578063b3de648b14610068575b5f80fd5b610052600480360381019061004d9190610123565b610098565b60405161005f9190610170565b60405180910390f35b610082600480360381019061007d9190610189565b6100ae565b60405161008f9190610170565b60405180910390f35b5f816100a4575f6100a6565b825b905092915050565b5f819050919050565b5f80fd5b5f819050919050565b6100cd816100bb565b81146100d7575f80fd5b50565b5f813590506100e8816100c4565b92915050565b5f8115159050919050565b610102816100ee565b811461010c575f80fd5b50565b5f8135905061011d816100f9565b92915050565b5f8060408385031215610139576101386100b7565b5b5f610146858286016100da565b92505060206101578582860161010f565b9150509250929050565b61016a816100bb565b82525050565b5f6020820190506101835f830184610161565b92915050565b5f6020828403121561019e5761019d6100b7565b5b5f6101ab848285016100da565b9150509291505056fea2646970667358221220f2f9077f212fc1d83e6656935cadd42589e2c72eb92b6b5a3e6b73bc6562cfb164736f6c634300081a0033",
					"opcodes": "PUSH1 0x80 PUSH1 0x40 MSTORE CALLVALUE DUP1 ISZERO PUSH1 0xE JUMPI PUSH0 DUP1 REVERT JUMPDEST POP PUSH2 0x1EA DUP1 PUSH2 0x1C PUSH0 CODECOPY PUSH0 RETURN INVALID PUSH1 0x80 PUSH1 0x40 MSTORE CALLVALUE DUP1 ISZERO PUSH2 0xF JUMPI PUSH0 DUP1 REVERT JUMPDEST POP PUSH1 0x4 CALLDATASIZE LT PUSH2 0x34 JUMPI PUSH0 CALLDATALOAD PUSH1 0xE0 SHR DUP1 PUSH4 0x2735ACB7 EQ PUSH2 0x38 JUMPI DUP1 PUSH4 0xB3DE648B EQ PUSH2 0x68 JUMPI JUMPDEST PUSH0 DUP1 REVERT JUMPDEST PUSH2 0x52 PUSH1 0x4 DUP1 CALLDATASIZE SUB DUP2 ADD SWAP1 PUSH2 0x4D SWAP2 SWAP1 PUSH2 0x123 JUMP JUMPDEST PUSH2 0x98 JUMP JUMPDEST PUSH1 0x40 MLOAD PUSH2 0x5F SWAP2 SWAP1 PUSH2 0x170 JUMP JUMPDEST PUSH1 0x40 MLOAD DUP1 SWAP2 SUB SWAP1 RETURN JUMPDEST PUSH2 0x82 PUSH1 0x4 DUP1 CALLDATASIZE SUB DUP2 ADD SWAP1 PUSH2 0x7D SWAP2 SWAP1 PUSH2 0x189 JUMP JUMPDEST PUSH2 0xAE JUMP JUMPDEST PUSH1 0x40 MLOAD PUSH2 0x8F SWAP2 SWAP1 PUSH2 0x170 JUMP JUMPDEST PUSH1 0x40 MLOAD DUP1 SWAP2 SUB SWAP1 RETURN JUMPDEST PUSH0 DUP2 PUSH2 0xA4 JUMPI PUSH0 PUSH2 0xA6 JUMP JUMPDEST DUP3 JUMPDEST SWAP1 POP SWAP3 SWAP2 POP POP JUMP JUMPDEST PUSH0 DUP2 SWAP1 POP SWAP2 SWAP1 POP JUMP JUMPDEST PUSH0 DUP1 REVERT JUMPDEST PUSH0 DUP2 SWAP1 POP SWAP2 SWAP1 POP JUMP JUMPDEST PUSH2 0xCD DUP2 PUSH2 0xBB JUMP JUMPDEST DUP2 EQ PUSH2 0xD7 JUMPI PUSH0 DUP1 REVERT JUMPDEST POP JUMP JUMPDEST PUSH0 DUP2 CALLDATALOAD SWAP1 POP PUSH2 0xE8 DUP2 PUSH2 0xC4 JUMP JUMPDEST SWAP3 SWAP2 POP POP JUMP JUMPDEST PUSH0 DUP2 ISZERO ISZERO SWAP1 POP SWAP2 SWAP1 POP JUMP JUMPDEST PUSH2 0x102 DUP2 PUSH2 0xEE JUMP JUMPDEST DUP2 EQ PUSH2 0x10C JUMPI PUSH0 DUP1 REVERT JUMPDEST POP JUMP JUMPDEST PUSH0 DUP2 CALLDATALOAD SWAP1 POP PUSH2 0x11D DUP2 PUSH2 0xF9 JUMP JUMPDEST SWAP3 SWAP2 POP POP JUMP JUMPDEST PUSH0 DUP1 PUSH1 0x40 DUP4 DUP6 SUB SLT ISZERO PUSH2 0x139 JUMPI PUSH2 0x138 PUSH2 0xB7 JUMP JUMPDEST JUMPDEST PUSH0 PUSH2 0x146 DUP6 DUP3 DUP7 ADD PUSH2 0xDA JUMP JUMPDEST SWAP3 POP POP PUSH1 0x20 PUSH2 0x157 DUP6 DUP3 DUP7 ADD PUSH2 0x10F JUMP JUMPDEST SWAP2 POP POP SWAP3 POP SWAP3 SWAP1 POP JUMP JUMPDEST PUSH2 0x16A DUP2 PUSH2 0xBB JUMP JUMPDEST DUP3 MSTORE POP POP JUMP JUMPDEST PUSH0 PUSH1 0x20 DUP3 ADD SWAP1 POP PUSH2 0x183 PUSH0 DUP4 ADD DUP5 PUSH2 0x161 JUMP JUMPDEST SWAP3 SWAP2 POP POP JUMP JUMPDEST PUSH0 PUSH1 0x20 DUP3 DUP5 SUB SLT ISZERO PUSH2 0x19E JUMPI PUSH2 0x19D PUSH2 0xB7 JUMP JUMPDEST JUMPDEST PUSH0 PUSH2 0x1AB DUP5 DUP3 DUP6 ADD PUSH2 0xDA JUMP JUMPDEST SWAP2 POP POP SWAP3 SWAP2 POP POP JUMP INVALID LOG2 PUSH5 0x6970667358 0x22 SLT KECCAK256 CALLCODE 0xF9 SMOD PUSH32 0x212FC1D83E6656935CADD42589E2C72EB92B6B5A3E6B73BC6562CFB164736F6C PUSH4 0x4300081A STOP CALLER "
				},
				"gasEstimates": {
					"creation": {
						"codeDepositCost": "98000",
						"executionCost": "145",
						"totalCost": "98145"
					},
					"external": {
						"f(uint256)": "infinite",
						"f(uint256,bool)": "infinite"
					}
				},
				"methodIdentifiers": {
					"f(uint256)": "b3de648b",
					"f(uint256,bool)": "2735acb7"
				}
			},
			"storageLayout": {
				"storage": [],
				"types": null
			},
			"userdoc": {
				"kind": "user",
				"methods": {},
				"version": 1
			}
		}
	}
}