{
	"homework/02/合约结构/ViewFunctionExample.sol": {
		"ViewFunctionExample": {
			"abi": [
				{
					"inputs": [],
					"name": "data",
					"outputs": [
						{
							"internalType": "uint256",
							"name": "",
							"type": "uint256"
						}
					],
					"stateMutability": "view",
					"type": "function"
				},
				{
					"inputs": [],
					"name": "getData",
					"outputs": [
						{
							"internalType": "uint256",
							"name": "",
							"type": "uint256"
						}
					],
					"stateMutability": "view",
					"type": "function"
				}
			],
			"devdoc": {
				"kind": "dev",
				"methods": {},
				"version": 1
			},
			"evm": {
				"assembly": "    /* \"homework/02/\\xe5\\x90\\x88\\xe7\\xba\\xa6\\xe7\\xbb\\x93\\xe6\\x9e\\x84/ViewFunctionExample.sol\":138:278  contract ViewFunctionExample {... */\n  mstore(0x40, 0x80)\n  callvalue\n  dup1\n  iszero\n  tag_1\n  jumpi\n  0x00\n  dup1\n  revert\ntag_1:\n  pop\n  dataSize(sub_0)\n  dup1\n  dataOffset(sub_0)\n  0x00\n  codecopy\n  0x00\n  return\nstop\n\nsub_0: assembly {\n        /* \"homework/02/\\xe5\\x90\\x88\\xe7\\xba\\xa6\\xe7\\xbb\\x93\\xe6\\x9e\\x84/ViewFunctionExample.sol\":138:278  contract ViewFunctionExample {... */\n      mstore(0x40, 0x80)\n      callvalue\n      dup1\n      iszero\n      tag_1\n      jumpi\n      0x00\n      dup1\n      revert\n    tag_1:\n      pop\n      jumpi(tag_2, lt(calldatasize, 0x04))\n      shr(0xe0, calldataload(0x00))\n      dup1\n      0x3bc5de30\n      eq\n      tag_3\n      jumpi\n      dup1\n      0x73d4a13a\n      eq\n      tag_4\n      jumpi\n    tag_2:\n      0x00\n      dup1\n      revert\n        /* \"homework/02/\\xe5\\x90\\x88\\xe7\\xba\\xa6\\xe7\\xbb\\x93\\xe6\\x9e\\x84/ViewFunctionExample.sol\":199:276  function getData() public view returns (uint256) {... */\n    tag_3:\n      tag_5\n      tag_6\n      jump\t// in\n    tag_5:\n      mload(0x40)\n      tag_7\n      swap2\n      swap1\n      tag_8\n      jump\t// in\n    tag_7:\n      mload(0x40)\n      dup1\n      swap2\n      sub\n      swap1\n      return\n        /* \"homework/02/\\xe5\\x90\\x88\\xe7\\xba\\xa6\\xe7\\xbb\\x93\\xe6\\x9e\\x84/ViewFunctionExample.sol\":173:192  uint256 public data */\n    tag_4:\n      tag_9\n      tag_10\n      jump\t// in\n    tag_9:\n      mload(0x40)\n      tag_11\n      swap2\n      swap1\n      tag_8\n      jump\t// in\n    tag_11:\n      mload(0x40)\n      dup1\n      swap2\n      sub\n      swap1\n      return\n        /* \"homework/02/\\xe5\\x90\\x88\\xe7\\xba\\xa6\\xe7\\xbb\\x93\\xe6\\x9e\\x84/ViewFunctionExample.sol\":199:276  function getData() public view returns (uint256) {... */\n    tag_6:\n        /* \"homework/02/\\xe5\\x90\\x88\\xe7\\xba\\xa6\\xe7\\xbb\\x93\\xe6\\x9e\\x84/ViewFunctionExample.sol\":239:246  uint256 */\n      0x00\n        /* \"homework/02/\\xe5\\x90\\x88\\xe7\\xba\\xa6\\xe7\\xbb\\x93\\xe6\\x9e\\x84/ViewFunctionExample.sol\":265:269  data */\n      dup1\n      sload\n        /* \"homework/02/\\xe5\\x90\\x88\\xe7\\xba\\xa6\\xe7\\xbb\\x93\\xe6\\x9e\\x84/ViewFunctionExample.sol\":258:269  return data */\n      swap1\n      pop\n        /* \"homework/02/\\xe5\\x90\\x88\\xe7\\xba\\xa6\\xe7\\xbb\\x93\\xe6\\x9e\\x84/ViewFunctionExample.sol\":199:276  function getData() public view returns (uint256) {... */\n      swap1\n      jump\t// out\n        /* \"homework/02/\\xe5\\x90\\x88\\xe7\\xba\\xa6\\xe7\\xbb\\x93\\xe6\\x9e\\x84/ViewFunctionExample.sol\":173:192  uint256 public data */\n    tag_10:\n      sload(0x00)\n      dup2\n      jump\t// out\n        /* \"#utility.yul\":7:84   */\n    tag_13:\n        /* \"#utility.yul\":44:51   */\n      0x00\n        /* \"#utility.yul\":73:78   */\n      dup2\n        /* \"#utility.yul\":62:78   */\n      swap1\n      pop\n        /* \"#utility.yul\":7:84   */\n      swap2\n      swap1\n      pop\n      jump\t// out\n        /* \"#utility.yul\":90:208   */\n    tag_14:\n        /* \"#utility.yul\":177:201   */\n      tag_18\n        /* \"#utility.yul\":195:200   */\n      dup2\n        /* \"#utility.yul\":177:201   */\n      tag_13\n      jump\t// in\n    tag_18:\n        /* \"#utility.yul\":172:175   */\n      dup3\n        /* \"#utility.yul\":165:202   */\n      mstore\n        /* \"#utility.yul\":90:208   */\n      pop\n      pop\n      jump\t// out\n        /* \"#utility.yul\":214:436   */\n    tag_8:\n        /* \"#utility.yul\":307:311   */\n      0x00\n        /* \"#utility.yul\":345:347   */\n      0x20\n        /* \"#utility.yul\":334:343   */\n      dup3\n        /* \"#utility.yul\":330:348   */\n      add\n        /* \"#utility.yul\":322:348   */\n      swap1\n      pop\n        /* \"#utility.yul\":358:429   */\n      tag_20\n        /* \"#utility.yul\":426:427   */\n      0x00\n        /* \"#utility.yul\":415:424   */\n      dup4\n        /* \"#utility.yul\":411:428   */\n      add\n        /* \"#utility.yul\":402:408   */\n      dup5\n        /* \"#utility.yul\":358:429   */\n      tag_14\n      jump\t// in\n    tag_20:\n        /* \"#utility.yul\":214:436   */\n      swap3\n      swap2\n      pop\n      pop\n      jump\t// out\n\n    auxdata: 0xa26469706673582212200896fa7a4f5c8f96e7c474882afad69cf042e908da1d352f870b15102b5a526564736f6c634300081a0033\n}\n",
				"bytecode": {
					"linkReferences": {},
					"object": "6080604052348015600e575f80fd5b5060d880601a5f395ff3fe6080604052348015600e575f80fd5b50600436106030575f3560e01c80633bc5de3014603457806373d4a13a14604e575b5f80fd5b603a6068565b60405160459190608b565b60405180910390f35b60546070565b604051605f9190608b565b60405180910390f35b5f8054905090565b5f5481565b5f819050919050565b6085816075565b82525050565b5f602082019050609c5f830184607e565b9291505056fea26469706673582212200896fa7a4f5c8f96e7c474882afad69cf042e908da1d352f870b15102b5a526564736f6c634300081a0033",
					"opcodes": "PUSH1 0x80 PUSH1 0x40 MSTORE CALLVALUE DUP1 ISZERO PUSH1 0xE JUMPI PUSH0 DUP1 REVERT JUMPDEST POP PUSH1 0xD8 DUP1 PUSH1 0x1A PUSH0 CODECOPY PUSH0 RETURN INVALID PUSH1 0x80 PUSH1 0x40 MSTORE CALLVALUE DUP1 ISZERO PUSH1 0xE JUMPI PUSH0 DUP1 REVERT JUMPDEST POP PUSH1 0x4 CALLDATASIZE LT PUSH1 0x30 JUMPI PUSH0 CALLDATALOAD PUSH1 0xE0 SHR DUP1 PUSH4 0x3BC5DE30 EQ PUSH1 0x34 JUMPI DUP1 PUSH4 0x73D4A13A EQ PUSH1 0x4E JUMPI JUMPDEST PUSH0 DUP1 REVERT JUMPDEST PUSH1 0x3A PUSH1 0x68 JUMP JUMPDEST PUSH1 0x40 MLOAD PUSH1 0x45 SWAP2 SWAP1 PUSH1 0x8B JUMP JUMPDEST PUSH1 0x40 MLOAD DUP1 SWAP2 SUB SWAP1 RETURN JUMPDEST PUSH1 0x54 PUSH1 0x70 JUMP JUMPDEST PUSH1 0x40 MLOAD PUSH1 0x5F SWAP2 SWAP1 PUSH1 0x8B JUMP JUMPDEST PUSH1 0x40 MLOAD DUP1 SWAP2 SUB SWAP1 RETURN JUMPDEST PUSH0 DUP1 SLOAD SWAP1 POP SWAP1 JUMP JUMPDEST PUSH0 SLOAD DUP2 JUMP JUMPDEST PUSH0 DUP2 SWAP1 POP SWAP2 SWAP1 POP JUMP JUMPDEST PUSH1 0x85 DUP2 PUSH1 0x75 JUMP JUMPDEST DUP3 MSTORE POP POP JUMP JUMPDEST PUSH0 PUSH1 0x20 DUP3 ADD SWAP1 POP PUSH1 0x9C PUSH0 DUP4 ADD DUP5 PUSH1 0x7E JUMP JUMPDEST SWAP3 SWAP2 POP POP JUMP INVALID LOG2 PUSH5 0x6970667358 0x22 SLT KECCAK256 ADDMOD SWAP7 STATICCALL PUSH27 0x4F5C8F96E7C474882AFAD69CF042E908DA1D352F870B15102B5A52 PUSH6 0x64736F6C6343 STOP ADDMOD BYTE STOP CALLER "
				},
				"gasEstimates": {
					"creation": {
						"codeDepositCost": "43200",
						"executionCost": "91",
						"totalCost": "43291"
					},
					"external": {
						"data()": "2424",
						"getData()": "2410"
					}
				},
				"methodIdentifiers": {
					"data()": "73d4a13a",
					"getData()": "3bc5de30"
				}
			},
			"storageLayout": {
				"storage": [
					{
						"astId": 3,
						"contract": "homework/02/合约结构/ViewFunctionExample.sol:ViewFunctionExample",
						"label": "data",
						"offset": 0,
						"slot": "0",
						"type": "t_uint256"
					}
				],
				"types": {
					"t_uint256": {
						"encoding": "inplace",
						"label": "uint256",
						"numberOfBytes": "32"
					}
				}
			},
			"userdoc": {
				"kind": "user",
				"methods": {},
				"version": 1
			}
		}
	}
}