{
	"homework/02/合约结构/VisibilityExample.sol": {
		"VisibilityExample": {
			"abi": [
				{
					"inputs": [],
					"name": "data",
					"outputs": [
						{
							"internalType": "uint256",
							"name": "",
							"type": "uint256"
						}
					],
					"stateMutability": "view",
					"type": "function"
				}
			],
			"devdoc": {
				"kind": "dev",
				"methods": {},
				"version": 1
			},
			"evm": {
				"assembly": "    /* \"homework/02/\\xe5\\x90\\x88\\xe7\\xba\\xa6\\xe7\\xbb\\x93\\xe6\\x9e\\x84/VisibilityExample.sol\":138:382  contract VisibilityExample {... */\n  mstore(0x40, 0x80)\n    /* \"homework/02/\\xe5\\x90\\x88\\xe7\\xba\\xa6\\xe7\\xbb\\x93\\xe6\\x9e\\x84/VisibilityExample.sol\":221:223  10 */\n  0x0a\n    /* \"homework/02/\\xe5\\x90\\x88\\xe7\\xba\\xa6\\xe7\\xbb\\x93\\xe6\\x9e\\x84/VisibilityExample.sol\":196:223  uint256 internal iData = 10 */\n  0x01\n  sstore\n    /* \"homework/02/\\xe5\\x90\\x88\\xe7\\xba\\xa6\\xe7\\xbb\\x93\\xe6\\x9e\\x84/VisibilityExample.sol\":138:382  contract VisibilityExample {... */\n  callvalue\n  dup1\n  iszero\n  tag_1\n  jumpi\n  0x00\n  dup1\n  revert\ntag_1:\n  pop\n  dataSize(sub_0)\n  dup1\n  dataOffset(sub_0)\n  0x00\n  codecopy\n  0x00\n  return\nstop\n\nsub_0: assembly {\n        /* \"homework/02/\\xe5\\x90\\x88\\xe7\\xba\\xa6\\xe7\\xbb\\x93\\xe6\\x9e\\x84/VisibilityExample.sol\":138:382  contract VisibilityExample {... */\n      mstore(0x40, 0x80)\n      callvalue\n      dup1\n      iszero\n      tag_1\n      jumpi\n      0x00\n      dup1\n      revert\n    tag_1:\n      pop\n      jumpi(tag_2, lt(calldatasize, 0x04))\n      shr(0xe0, calldataload(0x00))\n      dup1\n      0x73d4a13a\n      eq\n      tag_3\n      jumpi\n    tag_2:\n      0x00\n      dup1\n      revert\n        /* \"homework/02/\\xe5\\x90\\x88\\xe7\\xba\\xa6\\xe7\\xbb\\x93\\xe6\\x9e\\x84/VisibilityExample.sol\":171:190  uint256 public data */\n    tag_3:\n      tag_4\n      tag_5\n      jump\t// in\n    tag_4:\n      mload(0x40)\n      tag_6\n      swap2\n      swap1\n      tag_7\n      jump\t// in\n    tag_6:\n      mload(0x40)\n      dup1\n      swap2\n      sub\n      swap1\n      return\n    tag_5:\n      sload(0x00)\n      dup2\n      jump\t// out\n        /* \"#utility.yul\":7:84   */\n    tag_8:\n        /* \"#utility.yul\":44:51   */\n      0x00\n        /* \"#utility.yul\":73:78   */\n      dup2\n        /* \"#utility.yul\":62:78   */\n      swap1\n      pop\n        /* \"#utility.yul\":7:84   */\n      swap2\n      swap1\n      pop\n      jump\t// out\n        /* \"#utility.yul\":90:208   */\n    tag_9:\n        /* \"#utility.yul\":177:201   */\n      tag_13\n        /* \"#utility.yul\":195:200   */\n      dup2\n        /* \"#utility.yul\":177:201   */\n      tag_8\n      jump\t// in\n    tag_13:\n        /* \"#utility.yul\":172:175   */\n      dup3\n        /* \"#utility.yul\":165:202   */\n      mstore\n        /* \"#utility.yul\":90:208   */\n      pop\n      pop\n      jump\t// out\n        /* \"#utility.yul\":214:436   */\n    tag_7:\n        /* \"#utility.yul\":307:311   */\n      0x00\n        /* \"#utility.yul\":345:347   */\n      0x20\n        /* \"#utility.yul\":334:343   */\n      dup3\n        /* \"#utility.yul\":330:348   */\n      add\n        /* \"#utility.yul\":322:348   */\n      swap1\n      pop\n        /* \"#utility.yul\":358:429   */\n      tag_15\n        /* \"#utility.yul\":426:427   */\n      0x00\n        /* \"#utility.yul\":415:424   */\n      dup4\n        /* \"#utility.yul\":411:428   */\n      add\n        /* \"#utility.yul\":402:408   */\n      dup5\n        /* \"#utility.yul\":358:429   */\n      tag_9\n      jump\t// in\n    tag_15:\n        /* \"#utility.yul\":214:436   */\n      swap3\n      swap2\n      pop\n      pop\n      jump\t// out\n\n    auxdata: 0xa2646970667358221220adc40a7b23ad87d0156eb64c4ecf4ce20c7cf21a01d95b587e99671bc14309e864736f6c634300081a0033\n}\n",
				"bytecode": {
					"linkReferences": {},
					"object": "6080604052600a6001553480156013575f80fd5b5060ac80601f5f395ff3fe6080604052348015600e575f80fd5b50600436106026575f3560e01c806373d4a13a14602a575b5f80fd5b60306044565b604051603b9190605f565b60405180910390f35b5f5481565b5f819050919050565b6059816049565b82525050565b5f60208201905060705f8301846052565b9291505056fea2646970667358221220adc40a7b23ad87d0156eb64c4ecf4ce20c7cf21a01d95b587e99671bc14309e864736f6c634300081a0033",
					"opcodes": "PUSH1 0x80 PUSH1 0x40 MSTORE PUSH1 0xA PUSH1 0x1 SSTORE CALLVALUE DUP1 ISZERO PUSH1 0x13 JUMPI PUSH0 DUP1 REVERT JUMPDEST POP PUSH1 0xAC DUP1 PUSH1 0x1F PUSH0 CODECOPY PUSH0 RETURN INVALID PUSH1 0x80 PUSH1 0x40 MSTORE CALLVALUE DUP1 ISZERO PUSH1 0xE JUMPI PUSH0 DUP1 REVERT JUMPDEST POP PUSH1 0x4 CALLDATASIZE LT PUSH1 0x26 JUMPI PUSH0 CALLDATALOAD PUSH1 0xE0 SHR DUP1 PUSH4 0x73D4A13A EQ PUSH1 0x2A JUMPI JUMPDEST PUSH0 DUP1 REVERT JUMPDEST PUSH1 0x30 PUSH1 0x44 JUMP JUMPDEST PUSH1 0x40 MLOAD PUSH1 0x3B SWAP2 SWAP1 PUSH1 0x5F JUMP JUMPDEST PUSH1 0x40 MLOAD DUP1 SWAP2 SUB SWAP1 RETURN JUMPDEST PUSH0 SLOAD DUP2 JUMP JUMPDEST PUSH0 DUP2 SWAP1 POP SWAP2 SWAP1 POP JUMP JUMPDEST PUSH1 0x59 DUP2 PUSH1 0x49 JUMP JUMPDEST DUP3 MSTORE POP POP JUMP JUMPDEST PUSH0 PUSH1 0x20 DUP3 ADD SWAP1 POP PUSH1 0x70 PUSH0 DUP4 ADD DUP5 PUSH1 0x52 JUMP JUMPDEST SWAP3 SWAP2 POP POP JUMP INVALID LOG2 PUSH5 0x6970667358 0x22 SLT KECCAK256 0xAD 0xC4 EXP PUSH28 0x23AD87D0156EB64C4ECF4CE20C7CF21A01D95B587E99671BC14309E8 PUSH5 0x736F6C6343 STOP ADDMOD BYTE STOP CALLER "
				},
				"gasEstimates": {
					"creation": {
						"codeDepositCost": "34400",
						"executionCost": "22191",
						"totalCost": "56591"
					},
					"external": {
						"data()": "2402"
					},
					"internal": {
						"f(uint256)": "infinite",
						"setData(uint256)": "infinite"
					}
				},
				"methodIdentifiers": {
					"data()": "73d4a13a"
				}
			},
			"storageLayout": {
				"storage": [
					{
						"astId": 3,
						"contract": "homework/02/合约结构/VisibilityExample.sol:VisibilityExample",
						"label": "data",
						"offset": 0,
						"slot": "0",
						"type": "t_uint256"
					},
					{
						"astId": 6,
						"contract": "homework/02/合约结构/VisibilityExample.sol:VisibilityExample",
						"label": "iData",
						"offset": 0,
						"slot": "1",
						"type": "t_uint256"
					}
				],
				"types": {
					"t_uint256": {
						"encoding": "inplace",
						"label": "uint256",
						"numberOfBytes": "32"
					}
				}
			},
			"userdoc": {
				"kind": "user",
				"methods": {},
				"version": 1
			}
		}
	}
}