{
	"homework/level-02/05.Solidity 编码规范、高级特性/EtherGame.sol": {
		"EtherGame": {
			"abi": [
				{
					"inputs": [],
					"name": "claimReward",
					"outputs": [],
					"stateMutability": "nonpayable",
					"type": "function"
				},
				{
					"inputs": [],
					"name": "finalMileStone",
					"outputs": [
						{
							"internalType": "uint256",
							"name": "",
							"type": "uint256"
						}
					],
					"stateMutability": "view",
					"type": "function"
				},
				{
					"inputs": [],
					"name": "finalReward",
					"outputs": [
						{
							"internalType": "uint256",
							"name": "",
							"type": "uint256"
						}
					],
					"stateMutability": "view",
					"type": "function"
				},
				{
					"inputs": [],
					"name": "mileStone1Reward",
					"outputs": [
						{
							"internalType": "uint256",
							"name": "",
							"type": "uint256"
						}
					],
					"stateMutability": "view",
					"type": "function"
				},
				{
					"inputs": [],
					"name": "mileStone2Reward",
					"outputs": [
						{
							"internalType": "uint256",
							"name": "",
							"type": "uint256"
						}
					],
					"stateMutability": "view",
					"type": "function"
				},
				{
					"inputs": [],
					"name": "payoutMileStone1",
					"outputs": [
						{
							"internalType": "uint256",
							"name": "",
							"type": "uint256"
						}
					],
					"stateMutability": "view",
					"type": "function"
				},
				{
					"inputs": [],
					"name": "payoutMileStone2",
					"outputs": [
						{
							"internalType": "uint256",
							"name": "",
							"type": "uint256"
						}
					],
					"stateMutability": "view",
					"type": "function"
				},
				{
					"inputs": [],
					"name": "play",
					"outputs": [],
					"stateMutability": "payable",
					"type": "function"
				}
			],
			"devdoc": {
				"kind": "dev",
				"methods": {},
				"version": 1
			},
			"evm": {
				"assembly": "    /* \"homework/level-02/05.Solidity \\xe7\\xbc\\x96\\xe7\\xa0\\x81\\xe8\\xa7\\x84\\xe8\\x8c\\x83\\xe3\\x80\\x81\\xe9\\xab\\x98\\xe7\\xba\\xa7\\xe7\\x89\\xb9\\xe6\\x80\\xa7/EtherGame.sol\":61:1580  contract EtherGame {... */\n  mstore(0x40, 0x80)\n    /* \"homework/level-02/05.Solidity \\xe7\\xbc\\x96\\xe7\\xa0\\x81\\xe8\\xa7\\x84\\xe8\\x8c\\x83\\xe3\\x80\\x81\\xe9\\xab\\x98\\xe7\\xba\\xa7\\xe7\\x89\\xb9\\xe6\\x80\\xa7/EtherGame.sol\":124:131  3 ether */\n  0x29a2241af62c0000\n    /* \"homework/level-02/05.Solidity \\xe7\\xbc\\x96\\xe7\\xa0\\x81\\xe8\\xa7\\x84\\xe8\\x8c\\x83\\xe3\\x80\\x81\\xe9\\xab\\x98\\xe7\\xba\\xa7\\xe7\\x89\\xb9\\xe6\\x80\\xa7/EtherGame.sol\":93:131  uint public payoutMileStone1 = 3 ether */\n  0x00\n  sstore\n    /* \"homework/level-02/05.Solidity \\xe7\\xbc\\x96\\xe7\\xa0\\x81\\xe8\\xa7\\x84\\xe8\\x8c\\x83\\xe3\\x80\\x81\\xe9\\xab\\x98\\xe7\\xba\\xa7\\xe7\\x89\\xb9\\xe6\\x80\\xa7/EtherGame.sol\":169:176  2 ether */\n  0x1bc16d674ec80000\n    /* \"homework/level-02/05.Solidity \\xe7\\xbc\\x96\\xe7\\xa0\\x81\\xe8\\xa7\\x84\\xe8\\x8c\\x83\\xe3\\x80\\x81\\xe9\\xab\\x98\\xe7\\xba\\xa7\\xe7\\x89\\xb9\\xe6\\x80\\xa7/EtherGame.sol\":138:176  uint public mileStone1Reward = 2 ether */\n  0x01\n  sstore\n    /* \"homework/level-02/05.Solidity \\xe7\\xbc\\x96\\xe7\\xa0\\x81\\xe8\\xa7\\x84\\xe8\\x8c\\x83\\xe3\\x80\\x81\\xe9\\xab\\x98\\xe7\\xba\\xa7\\xe7\\x89\\xb9\\xe6\\x80\\xa7/EtherGame.sol\":214:221  5 ether */\n  0x4563918244f40000\n    /* \"homework/level-02/05.Solidity \\xe7\\xbc\\x96\\xe7\\xa0\\x81\\xe8\\xa7\\x84\\xe8\\x8c\\x83\\xe3\\x80\\x81\\xe9\\xab\\x98\\xe7\\xba\\xa7\\xe7\\x89\\xb9\\xe6\\x80\\xa7/EtherGame.sol\":183:221  uint public payoutMileStone2 = 5 ether */\n  0x02\n  sstore\n    /* \"homework/level-02/05.Solidity \\xe7\\xbc\\x96\\xe7\\xa0\\x81\\xe8\\xa7\\x84\\xe8\\x8c\\x83\\xe3\\x80\\x81\\xe9\\xab\\x98\\xe7\\xba\\xa7\\xe7\\x89\\xb9\\xe6\\x80\\xa7/EtherGame.sol\":259:266  3 ether */\n  0x29a2241af62c0000\n    /* \"homework/level-02/05.Solidity \\xe7\\xbc\\x96\\xe7\\xa0\\x81\\xe8\\xa7\\x84\\xe8\\x8c\\x83\\xe3\\x80\\x81\\xe9\\xab\\x98\\xe7\\xba\\xa7\\xe7\\x89\\xb9\\xe6\\x80\\xa7/EtherGame.sol\":228:266  uint public mileStone2Reward = 3 ether */\n  0x03\n  sstore\n    /* \"homework/level-02/05.Solidity \\xe7\\xbc\\x96\\xe7\\xa0\\x81\\xe8\\xa7\\x84\\xe8\\x8c\\x83\\xe3\\x80\\x81\\xe9\\xab\\x98\\xe7\\xba\\xa7\\xe7\\x89\\xb9\\xe6\\x80\\xa7/EtherGame.sol\":303:311  10 ether */\n  0x8ac7230489e80000\n    /* \"homework/level-02/05.Solidity \\xe7\\xbc\\x96\\xe7\\xa0\\x81\\xe8\\xa7\\x84\\xe8\\x8c\\x83\\xe3\\x80\\x81\\xe9\\xab\\x98\\xe7\\xba\\xa7\\xe7\\x89\\xb9\\xe6\\x80\\xa7/EtherGame.sol\":274:311  uint public finalMileStone = 10 ether */\n  0x04\n  sstore\n    /* \"homework/level-02/05.Solidity \\xe7\\xbc\\x96\\xe7\\xa0\\x81\\xe8\\xa7\\x84\\xe8\\x8c\\x83\\xe3\\x80\\x81\\xe9\\xab\\x98\\xe7\\xba\\xa7\\xe7\\x89\\xb9\\xe6\\x80\\xa7/EtherGame.sol\":345:352  5 ether */\n  0x4563918244f40000\n    /* \"homework/level-02/05.Solidity \\xe7\\xbc\\x96\\xe7\\xa0\\x81\\xe8\\xa7\\x84\\xe8\\x8c\\x83\\xe3\\x80\\x81\\xe9\\xab\\x98\\xe7\\xba\\xa7\\xe7\\x89\\xb9\\xe6\\x80\\xa7/EtherGame.sol\":319:352  uint public finalReward = 5 ether */\n  0x05\n  sstore\n    /* \"homework/level-02/05.Solidity \\xe7\\xbc\\x96\\xe7\\xa0\\x81\\xe8\\xa7\\x84\\xe8\\x8c\\x83\\xe3\\x80\\x81\\xe9\\xab\\x98\\xe7\\xba\\xa7\\xe7\\x89\\xb9\\xe6\\x80\\xa7/EtherGame.sol\":61:1580  contract EtherGame {... */\n  callvalue\n  dup1\n  iszero\n  tag_1\n  jumpi\n  0x00\n  dup1\n  revert\ntag_1:\n  pop\n  dataSize(sub_0)\n  dup1\n  dataOffset(sub_0)\n  0x00\n  codecopy\n  0x00\n  return\nstop\n\nsub_0: assembly {\n        /* \"homework/level-02/05.Solidity \\xe7\\xbc\\x96\\xe7\\xa0\\x81\\xe8\\xa7\\x84\\xe8\\x8c\\x83\\xe3\\x80\\x81\\xe9\\xab\\x98\\xe7\\xba\\xa7\\xe7\\x89\\xb9\\xe6\\x80\\xa7/EtherGame.sol\":61:1580  contract EtherGame {... */\n      mstore(0x40, 0x80)\n      jumpi(tag_1, lt(calldatasize, 0x04))\n      shr(0xe0, calldataload(0x00))\n      dup1\n      0x82d4a75c\n      gt\n      tag_10\n      jumpi\n      dup1\n      0x82d4a75c\n      eq\n      tag_6\n      jumpi\n      dup1\n      0x8c6f3759\n      eq\n      tag_7\n      jumpi\n      dup1\n      0x93e84cd9\n      eq\n      tag_8\n      jumpi\n      dup1\n      0xb88a802f\n      eq\n      tag_9\n      jumpi\n      jump(tag_1)\n    tag_10:\n      dup1\n      0x16a1883a\n      eq\n      tag_2\n      jumpi\n      dup1\n      0x1c95cfc1\n      eq\n      tag_3\n      jumpi\n      dup1\n      0x33c2a9f8\n      eq\n      tag_4\n      jumpi\n      dup1\n      0x6e1d5537\n      eq\n      tag_5\n      jumpi\n    tag_1:\n      0x00\n      dup1\n      revert\n        /* \"homework/level-02/05.Solidity \\xe7\\xbc\\x96\\xe7\\xa0\\x81\\xe8\\xa7\\x84\\xe8\\x8c\\x83\\xe3\\x80\\x81\\xe9\\xab\\x98\\xe7\\xba\\xa7\\xe7\\x89\\xb9\\xe6\\x80\\xa7/EtherGame.sol\":274:311  uint public finalMileStone = 10 ether */\n    tag_2:\n      callvalue\n      dup1\n      iszero\n      tag_11\n      jumpi\n      0x00\n      dup1\n      revert\n    tag_11:\n      pop\n      tag_12\n      tag_13\n      jump\t// in\n    tag_12:\n      mload(0x40)\n      tag_14\n      swap2\n      swap1\n      tag_15\n      jump\t// in\n    tag_14:\n      mload(0x40)\n      dup1\n      swap2\n      sub\n      swap1\n      return\n        /* \"homework/level-02/05.Solidity \\xe7\\xbc\\x96\\xe7\\xa0\\x81\\xe8\\xa7\\x84\\xe8\\x8c\\x83\\xe3\\x80\\x81\\xe9\\xab\\x98\\xe7\\xba\\xa7\\xe7\\x89\\xb9\\xe6\\x80\\xa7/EtherGame.sol\":183:221  uint public payoutMileStone2 = 5 ether */\n    tag_3:\n      callvalue\n      dup1\n      iszero\n      tag_16\n      jumpi\n      0x00\n      dup1\n      revert\n    tag_16:\n      pop\n      tag_17\n      tag_18\n      jump\t// in\n    tag_17:\n      mload(0x40)\n      tag_19\n      swap2\n      swap1\n      tag_15\n      jump\t// in\n    tag_19:\n      mload(0x40)\n      dup1\n      swap2\n      sub\n      swap1\n      return\n        /* \"homework/level-02/05.Solidity \\xe7\\xbc\\x96\\xe7\\xa0\\x81\\xe8\\xa7\\x84\\xe8\\x8c\\x83\\xe3\\x80\\x81\\xe9\\xab\\x98\\xe7\\xba\\xa7\\xe7\\x89\\xb9\\xe6\\x80\\xa7/EtherGame.sol\":93:131  uint public payoutMileStone1 = 3 ether */\n    tag_4:\n      callvalue\n      dup1\n      iszero\n      tag_20\n      jumpi\n      0x00\n      dup1\n      revert\n    tag_20:\n      pop\n      tag_21\n      tag_22\n      jump\t// in\n    tag_21:\n      mload(0x40)\n      tag_23\n      swap2\n      swap1\n      tag_15\n      jump\t// in\n    tag_23:\n      mload(0x40)\n      dup1\n      swap2\n      sub\n      swap1\n      return\n        /* \"homework/level-02/05.Solidity \\xe7\\xbc\\x96\\xe7\\xa0\\x81\\xe8\\xa7\\x84\\xe8\\x8c\\x83\\xe3\\x80\\x81\\xe9\\xab\\x98\\xe7\\xba\\xa7\\xe7\\x89\\xb9\\xe6\\x80\\xa7/EtherGame.sol\":319:352  uint public finalReward = 5 ether */\n    tag_5:\n      callvalue\n      dup1\n      iszero\n      tag_24\n      jumpi\n      0x00\n      dup1\n      revert\n    tag_24:\n      pop\n      tag_25\n      tag_26\n      jump\t// in\n    tag_25:\n      mload(0x40)\n      tag_27\n      swap2\n      swap1\n      tag_15\n      jump\t// in\n    tag_27:\n      mload(0x40)\n      dup1\n      swap2\n      sub\n      swap1\n      return\n        /* \"homework/level-02/05.Solidity \\xe7\\xbc\\x96\\xe7\\xa0\\x81\\xe8\\xa7\\x84\\xe8\\x8c\\x83\\xe3\\x80\\x81\\xe9\\xab\\x98\\xe7\\xba\\xa7\\xe7\\x89\\xb9\\xe6\\x80\\xa7/EtherGame.sol\":138:176  uint public mileStone1Reward = 2 ether */\n    tag_6:\n      callvalue\n      dup1\n      iszero\n      tag_28\n      jumpi\n      0x00\n      dup1\n      revert\n    tag_28:\n      pop\n      tag_29\n      tag_30\n      jump\t// in\n    tag_29:\n      mload(0x40)\n      tag_31\n      swap2\n      swap1\n      tag_15\n      jump\t// in\n    tag_31:\n      mload(0x40)\n      dup1\n      swap2\n      sub\n      swap1\n      return\n        /* \"homework/level-02/05.Solidity \\xe7\\xbc\\x96\\xe7\\xa0\\x81\\xe8\\xa7\\x84\\xe8\\x8c\\x83\\xe3\\x80\\x81\\xe9\\xab\\x98\\xe7\\xba\\xa7\\xe7\\x89\\xb9\\xe6\\x80\\xa7/EtherGame.sol\":228:266  uint public mileStone2Reward = 3 ether */\n    tag_7:\n      callvalue\n      dup1\n      iszero\n      tag_32\n      jumpi\n      0x00\n      dup1\n      revert\n    tag_32:\n      pop\n      tag_33\n      tag_34\n      jump\t// in\n    tag_33:\n      mload(0x40)\n      tag_35\n      swap2\n      swap1\n      tag_15\n      jump\t// in\n    tag_35:\n      mload(0x40)\n      dup1\n      swap2\n      sub\n      swap1\n      return\n        /* \"homework/level-02/05.Solidity \\xe7\\xbc\\x96\\xe7\\xa0\\x81\\xe8\\xa7\\x84\\xe8\\x8c\\x83\\xe3\\x80\\x81\\xe9\\xab\\x98\\xe7\\xba\\xa7\\xe7\\x89\\xb9\\xe6\\x80\\xa7/EtherGame.sol\":488:1220  function play() public payable {... */\n    tag_8:\n      tag_36\n      tag_37\n      jump\t// in\n    tag_36:\n      stop\n        /* \"homework/level-02/05.Solidity \\xe7\\xbc\\x96\\xe7\\xa0\\x81\\xe8\\xa7\\x84\\xe8\\x8c\\x83\\xe3\\x80\\x81\\xe9\\xab\\x98\\xe7\\xba\\xa7\\xe7\\x89\\xb9\\xe6\\x80\\xa7/EtherGame.sol\":1232:1576  function claimReward() public {... */\n    tag_9:\n      callvalue\n      dup1\n      iszero\n      tag_38\n      jumpi\n      0x00\n      dup1\n      revert\n    tag_38:\n      pop\n      tag_39\n      tag_40\n      jump\t// in\n    tag_39:\n      stop\n        /* \"homework/level-02/05.Solidity \\xe7\\xbc\\x96\\xe7\\xa0\\x81\\xe8\\xa7\\x84\\xe8\\x8c\\x83\\xe3\\x80\\x81\\xe9\\xab\\x98\\xe7\\xba\\xa7\\xe7\\x89\\xb9\\xe6\\x80\\xa7/EtherGame.sol\":274:311  uint public finalMileStone = 10 ether */\n    tag_13:\n      sload(0x04)\n      dup2\n      jump\t// out\n        /* \"homework/level-02/05.Solidity \\xe7\\xbc\\x96\\xe7\\xa0\\x81\\xe8\\xa7\\x84\\xe8\\x8c\\x83\\xe3\\x80\\x81\\xe9\\xab\\x98\\xe7\\xba\\xa7\\xe7\\x89\\xb9\\xe6\\x80\\xa7/EtherGame.sol\":183:221  uint public payoutMileStone2 = 5 ether */\n    tag_18:\n      sload(0x02)\n      dup2\n      jump\t// out\n        /* \"homework/level-02/05.Solidity \\xe7\\xbc\\x96\\xe7\\xa0\\x81\\xe8\\xa7\\x84\\xe8\\x8c\\x83\\xe3\\x80\\x81\\xe9\\xab\\x98\\xe7\\xba\\xa7\\xe7\\x89\\xb9\\xe6\\x80\\xa7/EtherGame.sol\":93:131  uint public payoutMileStone1 = 3 ether */\n    tag_22:\n      sload(0x00)\n      dup2\n      jump\t// out\n        /* \"homework/level-02/05.Solidity \\xe7\\xbc\\x96\\xe7\\xa0\\x81\\xe8\\xa7\\x84\\xe8\\x8c\\x83\\xe3\\x80\\x81\\xe9\\xab\\x98\\xe7\\xba\\xa7\\xe7\\x89\\xb9\\xe6\\x80\\xa7/EtherGame.sol\":319:352  uint public finalReward = 5 ether */\n    tag_26:\n      sload(0x05)\n      dup2\n      jump\t// out\n        /* \"homework/level-02/05.Solidity \\xe7\\xbc\\x96\\xe7\\xa0\\x81\\xe8\\xa7\\x84\\xe8\\x8c\\x83\\xe3\\x80\\x81\\xe9\\xab\\x98\\xe7\\xba\\xa7\\xe7\\x89\\xb9\\xe6\\x80\\xa7/EtherGame.sol\":138:176  uint public mileStone1Reward = 2 ether */\n    tag_30:\n      sload(0x01)\n      dup2\n      jump\t// out\n        /* \"homework/level-02/05.Solidity \\xe7\\xbc\\x96\\xe7\\xa0\\x81\\xe8\\xa7\\x84\\xe8\\x8c\\x83\\xe3\\x80\\x81\\xe9\\xab\\x98\\xe7\\xba\\xa7\\xe7\\x89\\xb9\\xe6\\x80\\xa7/EtherGame.sol\":228:266  uint public mileStone2Reward = 3 ether */\n    tag_34:\n      sload(0x03)\n      dup2\n      jump\t// out\n        /* \"homework/level-02/05.Solidity \\xe7\\xbc\\x96\\xe7\\xa0\\x81\\xe8\\xa7\\x84\\xe8\\x8c\\x83\\xe3\\x80\\x81\\xe9\\xab\\x98\\xe7\\xba\\xa7\\xe7\\x89\\xb9\\xe6\\x80\\xa7/EtherGame.sol\":488:1220  function play() public payable {... */\n    tag_37:\n        /* \"homework/level-02/05.Solidity \\xe7\\xbc\\x96\\xe7\\xa0\\x81\\xe8\\xa7\\x84\\xe8\\x8c\\x83\\xe3\\x80\\x81\\xe9\\xab\\x98\\xe7\\xba\\xa7\\xe7\\x89\\xb9\\xe6\\x80\\xa7/EtherGame.sol\":551:560  0.5 ether */\n      0x06f05b59d3b20000\n        /* \"homework/level-02/05.Solidity \\xe7\\xbc\\x96\\xe7\\xa0\\x81\\xe8\\xa7\\x84\\xe8\\x8c\\x83\\xe3\\x80\\x81\\xe9\\xab\\x98\\xe7\\xba\\xa7\\xe7\\x89\\xb9\\xe6\\x80\\xa7/EtherGame.sol\":538:547  msg.value */\n      callvalue\n        /* \"homework/level-02/05.Solidity \\xe7\\xbc\\x96\\xe7\\xa0\\x81\\xe8\\xa7\\x84\\xe8\\x8c\\x83\\xe3\\x80\\x81\\xe9\\xab\\x98\\xe7\\xba\\xa7\\xe7\\x89\\xb9\\xe6\\x80\\xa7/EtherGame.sol\":538:560  msg.value == 0.5 ether */\n      eq\n        /* \"homework/level-02/05.Solidity \\xe7\\xbc\\x96\\xe7\\xa0\\x81\\xe8\\xa7\\x84\\xe8\\x8c\\x83\\xe3\\x80\\x81\\xe9\\xab\\x98\\xe7\\xba\\xa7\\xe7\\x89\\xb9\\xe6\\x80\\xa7/EtherGame.sol\":530:561  require(msg.value == 0.5 ether) */\n      tag_42\n      jumpi\n      0x00\n      dup1\n      revert\n    tag_42:\n        /* \"homework/level-02/05.Solidity \\xe7\\xbc\\x96\\xe7\\xa0\\x81\\xe8\\xa7\\x84\\xe8\\x8c\\x83\\xe3\\x80\\x81\\xe9\\xab\\x98\\xe7\\xba\\xa7\\xe7\\x89\\xb9\\xe6\\x80\\xa7/EtherGame.sol\":598:617  uint currentBalance */\n      0x00\n        /* \"homework/level-02/05.Solidity \\xe7\\xbc\\x96\\xe7\\xa0\\x81\\xe8\\xa7\\x84\\xe8\\x8c\\x83\\xe3\\x80\\x81\\xe9\\xab\\x98\\xe7\\xba\\xa7\\xe7\\x89\\xb9\\xe6\\x80\\xa7/EtherGame.sol\":644:653  msg.value */\n      callvalue\n        /* \"homework/level-02/05.Solidity \\xe7\\xbc\\x96\\xe7\\xa0\\x81\\xe8\\xa7\\x84\\xe8\\x8c\\x83\\xe3\\x80\\x81\\xe9\\xab\\x98\\xe7\\xba\\xa7\\xe7\\x89\\xb9\\xe6\\x80\\xa7/EtherGame.sol\":620:641  address(this).balance */\n      selfbalance\n        /* \"homework/level-02/05.Solidity \\xe7\\xbc\\x96\\xe7\\xa0\\x81\\xe8\\xa7\\x84\\xe8\\x8c\\x83\\xe3\\x80\\x81\\xe9\\xab\\x98\\xe7\\xba\\xa7\\xe7\\x89\\xb9\\xe6\\x80\\xa7/EtherGame.sol\":620:653  address(this).balance + msg.value */\n      tag_43\n      swap2\n      swap1\n      tag_44\n      jump\t// in\n    tag_43:\n        /* \"homework/level-02/05.Solidity \\xe7\\xbc\\x96\\xe7\\xa0\\x81\\xe8\\xa7\\x84\\xe8\\x8c\\x83\\xe3\\x80\\x81\\xe9\\xab\\x98\\xe7\\xba\\xa7\\xe7\\x89\\xb9\\xe6\\x80\\xa7/EtherGame.sol\":598:653  uint currentBalance = address(this).balance + msg.value */\n      swap1\n      pop\n        /* \"homework/level-02/05.Solidity \\xe7\\xbc\\x96\\xe7\\xa0\\x81\\xe8\\xa7\\x84\\xe8\\x8c\\x83\\xe3\\x80\\x81\\xe9\\xab\\x98\\xe7\\xba\\xa7\\xe7\\x89\\xb9\\xe6\\x80\\xa7/EtherGame.sol\":747:761  finalMileStone */\n      sload(0x04)\n        /* \"homework/level-02/05.Solidity \\xe7\\xbc\\x96\\xe7\\xa0\\x81\\xe8\\xa7\\x84\\xe8\\x8c\\x83\\xe3\\x80\\x81\\xe9\\xab\\x98\\xe7\\xba\\xa7\\xe7\\x89\\xb9\\xe6\\x80\\xa7/EtherGame.sol\":729:743  currentBalance */\n      dup2\n        /* \"homework/level-02/05.Solidity \\xe7\\xbc\\x96\\xe7\\xa0\\x81\\xe8\\xa7\\x84\\xe8\\x8c\\x83\\xe3\\x80\\x81\\xe9\\xab\\x98\\xe7\\xba\\xa7\\xe7\\x89\\xb9\\xe6\\x80\\xa7/EtherGame.sol\":729:761  currentBalance <= finalMileStone */\n      gt\n      iszero\n        /* \"homework/level-02/05.Solidity \\xe7\\xbc\\x96\\xe7\\xa0\\x81\\xe8\\xa7\\x84\\xe8\\x8c\\x83\\xe3\\x80\\x81\\xe9\\xab\\x98\\xe7\\xba\\xa7\\xe7\\x89\\xb9\\xe6\\x80\\xa7/EtherGame.sol\":721:762  require(currentBalance <= finalMileStone) */\n      tag_45\n      jumpi\n      0x00\n      dup1\n      revert\n    tag_45:\n        /* \"homework/level-02/05.Solidity \\xe7\\xbc\\x96\\xe7\\xa0\\x81\\xe8\\xa7\\x84\\xe8\\x8c\\x83\\xe3\\x80\\x81\\xe9\\xab\\x98\\xe7\\xba\\xa7\\xe7\\x89\\xb9\\xe6\\x80\\xa7/EtherGame.sol\":852:868  payoutMileStone1 */\n      sload(0x00)\n        /* \"homework/level-02/05.Solidity \\xe7\\xbc\\x96\\xe7\\xa0\\x81\\xe8\\xa7\\x84\\xe8\\x8c\\x83\\xe3\\x80\\x81\\xe9\\xab\\x98\\xe7\\xba\\xa7\\xe7\\x89\\xb9\\xe6\\x80\\xa7/EtherGame.sol\":834:848  currentBalance */\n      dup2\n        /* \"homework/level-02/05.Solidity \\xe7\\xbc\\x96\\xe7\\xa0\\x81\\xe8\\xa7\\x84\\xe8\\x8c\\x83\\xe3\\x80\\x81\\xe9\\xab\\x98\\xe7\\xba\\xa7\\xe7\\x89\\xb9\\xe6\\x80\\xa7/EtherGame.sol\":834:868  currentBalance == payoutMileStone1 */\n      sub\n        /* \"homework/level-02/05.Solidity \\xe7\\xbc\\x96\\xe7\\xa0\\x81\\xe8\\xa7\\x84\\xe8\\x8c\\x83\\xe3\\x80\\x81\\xe9\\xab\\x98\\xe7\\xba\\xa7\\xe7\\x89\\xb9\\xe6\\x80\\xa7/EtherGame.sol\":830:1196  if (currentBalance == payoutMileStone1) {... */\n      tag_46\n      jumpi\n        /* \"homework/level-02/05.Solidity \\xe7\\xbc\\x96\\xe7\\xa0\\x81\\xe8\\xa7\\x84\\xe8\\x8c\\x83\\xe3\\x80\\x81\\xe9\\xab\\x98\\xe7\\xba\\xa7\\xe7\\x89\\xb9\\xe6\\x80\\xa7/EtherGame.sol\":916:932  mileStone1Reward */\n      sload(0x01)\n        /* \"homework/level-02/05.Solidity \\xe7\\xbc\\x96\\xe7\\xa0\\x81\\xe8\\xa7\\x84\\xe8\\x8c\\x83\\xe3\\x80\\x81\\xe9\\xab\\x98\\xe7\\xba\\xa7\\xe7\\x89\\xb9\\xe6\\x80\\xa7/EtherGame.sol\":885:900  redeemableEther */\n      0x06\n        /* \"homework/level-02/05.Solidity \\xe7\\xbc\\x96\\xe7\\xa0\\x81\\xe8\\xa7\\x84\\xe8\\x8c\\x83\\xe3\\x80\\x81\\xe9\\xab\\x98\\xe7\\xba\\xa7\\xe7\\x89\\xb9\\xe6\\x80\\xa7/EtherGame.sol\":885:912  redeemableEther[msg.sender] */\n      0x00\n        /* \"homework/level-02/05.Solidity \\xe7\\xbc\\x96\\xe7\\xa0\\x81\\xe8\\xa7\\x84\\xe8\\x8c\\x83\\xe3\\x80\\x81\\xe9\\xab\\x98\\xe7\\xba\\xa7\\xe7\\x89\\xb9\\xe6\\x80\\xa7/EtherGame.sol\":901:911  msg.sender */\n      caller\n        /* \"homework/level-02/05.Solidity \\xe7\\xbc\\x96\\xe7\\xa0\\x81\\xe8\\xa7\\x84\\xe8\\x8c\\x83\\xe3\\x80\\x81\\xe9\\xab\\x98\\xe7\\xba\\xa7\\xe7\\x89\\xb9\\xe6\\x80\\xa7/EtherGame.sol\":885:912  redeemableEther[msg.sender] */\n      0xffffffffffffffffffffffffffffffffffffffff\n      and\n      0xffffffffffffffffffffffffffffffffffffffff\n      and\n      dup2\n      mstore\n      0x20\n      add\n      swap1\n      dup2\n      mstore\n      0x20\n      add\n      0x00\n      keccak256\n      0x00\n        /* \"homework/level-02/05.Solidity \\xe7\\xbc\\x96\\xe7\\xa0\\x81\\xe8\\xa7\\x84\\xe8\\x8c\\x83\\xe3\\x80\\x81\\xe9\\xab\\x98\\xe7\\xba\\xa7\\xe7\\x89\\xb9\\xe6\\x80\\xa7/EtherGame.sol\":885:932  redeemableEther[msg.sender] += mileStone1Reward */\n      dup3\n      dup3\n      sload\n      tag_47\n      swap2\n      swap1\n      tag_44\n      jump\t// in\n    tag_47:\n      swap3\n      pop\n      pop\n      dup2\n      swap1\n      sstore\n      pop\n        /* \"homework/level-02/05.Solidity \\xe7\\xbc\\x96\\xe7\\xa0\\x81\\xe8\\xa7\\x84\\xe8\\x8c\\x83\\xe3\\x80\\x81\\xe9\\xab\\x98\\xe7\\xba\\xa7\\xe7\\x89\\xb9\\xe6\\x80\\xa7/EtherGame.sol\":830:1196  if (currentBalance == payoutMileStone1) {... */\n      jump(tag_48)\n    tag_46:\n        /* \"homework/level-02/05.Solidity \\xe7\\xbc\\x96\\xe7\\xa0\\x81\\xe8\\xa7\\x84\\xe8\\x8c\\x83\\xe3\\x80\\x81\\xe9\\xab\\x98\\xe7\\xba\\xa7\\xe7\\x89\\xb9\\xe6\\x80\\xa7/EtherGame.sol\":981:997  payoutMileStone2 */\n      sload(0x02)\n        /* \"homework/level-02/05.Solidity \\xe7\\xbc\\x96\\xe7\\xa0\\x81\\xe8\\xa7\\x84\\xe8\\x8c\\x83\\xe3\\x80\\x81\\xe9\\xab\\x98\\xe7\\xba\\xa7\\xe7\\x89\\xb9\\xe6\\x80\\xa7/EtherGame.sol\":963:977  currentBalance */\n      dup2\n        /* \"homework/level-02/05.Solidity \\xe7\\xbc\\x96\\xe7\\xa0\\x81\\xe8\\xa7\\x84\\xe8\\x8c\\x83\\xe3\\x80\\x81\\xe9\\xab\\x98\\xe7\\xba\\xa7\\xe7\\x89\\xb9\\xe6\\x80\\xa7/EtherGame.sol\":963:997  currentBalance == payoutMileStone2 */\n      sub\n        /* \"homework/level-02/05.Solidity \\xe7\\xbc\\x96\\xe7\\xa0\\x81\\xe8\\xa7\\x84\\xe8\\x8c\\x83\\xe3\\x80\\x81\\xe9\\xab\\x98\\xe7\\xba\\xa7\\xe7\\x89\\xb9\\xe6\\x80\\xa7/EtherGame.sol\":959:1196  if (currentBalance == payoutMileStone2) {... */\n      tag_49\n      jumpi\n        /* \"homework/level-02/05.Solidity \\xe7\\xbc\\x96\\xe7\\xa0\\x81\\xe8\\xa7\\x84\\xe8\\x8c\\x83\\xe3\\x80\\x81\\xe9\\xab\\x98\\xe7\\xba\\xa7\\xe7\\x89\\xb9\\xe6\\x80\\xa7/EtherGame.sol\":1045:1061  mileStone2Reward */\n      sload(0x03)\n        /* \"homework/level-02/05.Solidity \\xe7\\xbc\\x96\\xe7\\xa0\\x81\\xe8\\xa7\\x84\\xe8\\x8c\\x83\\xe3\\x80\\x81\\xe9\\xab\\x98\\xe7\\xba\\xa7\\xe7\\x89\\xb9\\xe6\\x80\\xa7/EtherGame.sol\":1014:1029  redeemableEther */\n      0x06\n        /* \"homework/level-02/05.Solidity \\xe7\\xbc\\x96\\xe7\\xa0\\x81\\xe8\\xa7\\x84\\xe8\\x8c\\x83\\xe3\\x80\\x81\\xe9\\xab\\x98\\xe7\\xba\\xa7\\xe7\\x89\\xb9\\xe6\\x80\\xa7/EtherGame.sol\":1014:1041  redeemableEther[msg.sender] */\n      0x00\n        /* \"homework/level-02/05.Solidity \\xe7\\xbc\\x96\\xe7\\xa0\\x81\\xe8\\xa7\\x84\\xe8\\x8c\\x83\\xe3\\x80\\x81\\xe9\\xab\\x98\\xe7\\xba\\xa7\\xe7\\x89\\xb9\\xe6\\x80\\xa7/EtherGame.sol\":1030:1040  msg.sender */\n      caller\n        /* \"homework/level-02/05.Solidity \\xe7\\xbc\\x96\\xe7\\xa0\\x81\\xe8\\xa7\\x84\\xe8\\x8c\\x83\\xe3\\x80\\x81\\xe9\\xab\\x98\\xe7\\xba\\xa7\\xe7\\x89\\xb9\\xe6\\x80\\xa7/EtherGame.sol\":1014:1041  redeemableEther[msg.sender] */\n      0xffffffffffffffffffffffffffffffffffffffff\n      and\n      0xffffffffffffffffffffffffffffffffffffffff\n      and\n      dup2\n      mstore\n      0x20\n      add\n      swap1\n      dup2\n      mstore\n      0x20\n      add\n      0x00\n      keccak256\n      0x00\n        /* \"homework/level-02/05.Solidity \\xe7\\xbc\\x96\\xe7\\xa0\\x81\\xe8\\xa7\\x84\\xe8\\x8c\\x83\\xe3\\x80\\x81\\xe9\\xab\\x98\\xe7\\xba\\xa7\\xe7\\x89\\xb9\\xe6\\x80\\xa7/EtherGame.sol\":1014:1061  redeemableEther[msg.sender] += mileStone2Reward */\n      dup3\n      dup3\n      sload\n      tag_50\n      swap2\n      swap1\n      tag_44\n      jump\t// in\n    tag_50:\n      swap3\n      pop\n      pop\n      dup2\n      swap1\n      sstore\n      pop\n        /* \"homework/level-02/05.Solidity \\xe7\\xbc\\x96\\xe7\\xa0\\x81\\xe8\\xa7\\x84\\xe8\\x8c\\x83\\xe3\\x80\\x81\\xe9\\xab\\x98\\xe7\\xba\\xa7\\xe7\\x89\\xb9\\xe6\\x80\\xa7/EtherGame.sol\":959:1196  if (currentBalance == payoutMileStone2) {... */\n      jump(tag_51)\n    tag_49:\n        /* \"homework/level-02/05.Solidity \\xe7\\xbc\\x96\\xe7\\xa0\\x81\\xe8\\xa7\\x84\\xe8\\x8c\\x83\\xe3\\x80\\x81\\xe9\\xab\\x98\\xe7\\xba\\xa7\\xe7\\x89\\xb9\\xe6\\x80\\xa7/EtherGame.sol\":1110:1124  finalMileStone */\n      sload(0x04)\n        /* \"homework/level-02/05.Solidity \\xe7\\xbc\\x96\\xe7\\xa0\\x81\\xe8\\xa7\\x84\\xe8\\x8c\\x83\\xe3\\x80\\x81\\xe9\\xab\\x98\\xe7\\xba\\xa7\\xe7\\x89\\xb9\\xe6\\x80\\xa7/EtherGame.sol\":1092:1106  currentBalance */\n      dup2\n        /* \"homework/level-02/05.Solidity \\xe7\\xbc\\x96\\xe7\\xa0\\x81\\xe8\\xa7\\x84\\xe8\\x8c\\x83\\xe3\\x80\\x81\\xe9\\xab\\x98\\xe7\\xba\\xa7\\xe7\\x89\\xb9\\xe6\\x80\\xa7/EtherGame.sol\":1092:1124  currentBalance == finalMileStone */\n      sub\n        /* \"homework/level-02/05.Solidity \\xe7\\xbc\\x96\\xe7\\xa0\\x81\\xe8\\xa7\\x84\\xe8\\x8c\\x83\\xe3\\x80\\x81\\xe9\\xab\\x98\\xe7\\xba\\xa7\\xe7\\x89\\xb9\\xe6\\x80\\xa7/EtherGame.sol\":1088:1196  if (currentBalance == finalMileStone ) {... */\n      tag_52\n      jumpi\n        /* \"homework/level-02/05.Solidity \\xe7\\xbc\\x96\\xe7\\xa0\\x81\\xe8\\xa7\\x84\\xe8\\x8c\\x83\\xe3\\x80\\x81\\xe9\\xab\\x98\\xe7\\xba\\xa7\\xe7\\x89\\xb9\\xe6\\x80\\xa7/EtherGame.sol\":1173:1184  finalReward */\n      sload(0x05)\n        /* \"homework/level-02/05.Solidity \\xe7\\xbc\\x96\\xe7\\xa0\\x81\\xe8\\xa7\\x84\\xe8\\x8c\\x83\\xe3\\x80\\x81\\xe9\\xab\\x98\\xe7\\xba\\xa7\\xe7\\x89\\xb9\\xe6\\x80\\xa7/EtherGame.sol\":1142:1157  redeemableEther */\n      0x06\n        /* \"homework/level-02/05.Solidity \\xe7\\xbc\\x96\\xe7\\xa0\\x81\\xe8\\xa7\\x84\\xe8\\x8c\\x83\\xe3\\x80\\x81\\xe9\\xab\\x98\\xe7\\xba\\xa7\\xe7\\x89\\xb9\\xe6\\x80\\xa7/EtherGame.sol\":1142:1169  redeemableEther[msg.sender] */\n      0x00\n        /* \"homework/level-02/05.Solidity \\xe7\\xbc\\x96\\xe7\\xa0\\x81\\xe8\\xa7\\x84\\xe8\\x8c\\x83\\xe3\\x80\\x81\\xe9\\xab\\x98\\xe7\\xba\\xa7\\xe7\\x89\\xb9\\xe6\\x80\\xa7/EtherGame.sol\":1158:1168  msg.sender */\n      caller\n        /* \"homework/level-02/05.Solidity \\xe7\\xbc\\x96\\xe7\\xa0\\x81\\xe8\\xa7\\x84\\xe8\\x8c\\x83\\xe3\\x80\\x81\\xe9\\xab\\x98\\xe7\\xba\\xa7\\xe7\\x89\\xb9\\xe6\\x80\\xa7/EtherGame.sol\":1142:1169  redeemableEther[msg.sender] */\n      0xffffffffffffffffffffffffffffffffffffffff\n      and\n      0xffffffffffffffffffffffffffffffffffffffff\n      and\n      dup2\n      mstore\n      0x20\n      add\n      swap1\n      dup2\n      mstore\n      0x20\n      add\n      0x00\n      keccak256\n      0x00\n        /* \"homework/level-02/05.Solidity \\xe7\\xbc\\x96\\xe7\\xa0\\x81\\xe8\\xa7\\x84\\xe8\\x8c\\x83\\xe3\\x80\\x81\\xe9\\xab\\x98\\xe7\\xba\\xa7\\xe7\\x89\\xb9\\xe6\\x80\\xa7/EtherGame.sol\":1142:1184  redeemableEther[msg.sender] += finalReward */\n      dup3\n      dup3\n      sload\n      tag_53\n      swap2\n      swap1\n      tag_44\n      jump\t// in\n    tag_53:\n      swap3\n      pop\n      pop\n      dup2\n      swap1\n      sstore\n      pop\n        /* \"homework/level-02/05.Solidity \\xe7\\xbc\\x96\\xe7\\xa0\\x81\\xe8\\xa7\\x84\\xe8\\x8c\\x83\\xe3\\x80\\x81\\xe9\\xab\\x98\\xe7\\xba\\xa7\\xe7\\x89\\xb9\\xe6\\x80\\xa7/EtherGame.sol\":1088:1196  if (currentBalance == finalMileStone ) {... */\n    tag_52:\n        /* \"homework/level-02/05.Solidity \\xe7\\xbc\\x96\\xe7\\xa0\\x81\\xe8\\xa7\\x84\\xe8\\x8c\\x83\\xe3\\x80\\x81\\xe9\\xab\\x98\\xe7\\xba\\xa7\\xe7\\x89\\xb9\\xe6\\x80\\xa7/EtherGame.sol\":959:1196  if (currentBalance == payoutMileStone2) {... */\n    tag_51:\n        /* \"homework/level-02/05.Solidity \\xe7\\xbc\\x96\\xe7\\xa0\\x81\\xe8\\xa7\\x84\\xe8\\x8c\\x83\\xe3\\x80\\x81\\xe9\\xab\\x98\\xe7\\xba\\xa7\\xe7\\x89\\xb9\\xe6\\x80\\xa7/EtherGame.sol\":830:1196  if (currentBalance == payoutMileStone1) {... */\n    tag_48:\n        /* \"homework/level-02/05.Solidity \\xe7\\xbc\\x96\\xe7\\xa0\\x81\\xe8\\xa7\\x84\\xe8\\x8c\\x83\\xe3\\x80\\x81\\xe9\\xab\\x98\\xe7\\xba\\xa7\\xe7\\x89\\xb9\\xe6\\x80\\xa7/EtherGame.sol\":1206:1213  return; */\n      pop\n        /* \"homework/level-02/05.Solidity \\xe7\\xbc\\x96\\xe7\\xa0\\x81\\xe8\\xa7\\x84\\xe8\\x8c\\x83\\xe3\\x80\\x81\\xe9\\xab\\x98\\xe7\\xba\\xa7\\xe7\\x89\\xb9\\xe6\\x80\\xa7/EtherGame.sol\":488:1220  function play() public payable {... */\n      jump\t// out\n        /* \"homework/level-02/05.Solidity \\xe7\\xbc\\x96\\xe7\\xa0\\x81\\xe8\\xa7\\x84\\xe8\\x8c\\x83\\xe3\\x80\\x81\\xe9\\xab\\x98\\xe7\\xba\\xa7\\xe7\\x89\\xb9\\xe6\\x80\\xa7/EtherGame.sol\":1232:1576  function claimReward() public {... */\n    tag_40:\n        /* \"homework/level-02/05.Solidity \\xe7\\xbc\\x96\\xe7\\xa0\\x81\\xe8\\xa7\\x84\\xe8\\x8c\\x83\\xe3\\x80\\x81\\xe9\\xab\\x98\\xe7\\xba\\xa7\\xe7\\x89\\xb9\\xe6\\x80\\xa7/EtherGame.sol\":1346:1360  finalMileStone */\n      sload(0x04)\n        /* \"homework/level-02/05.Solidity \\xe7\\xbc\\x96\\xe7\\xa0\\x81\\xe8\\xa7\\x84\\xe8\\x8c\\x83\\xe3\\x80\\x81\\xe9\\xab\\x98\\xe7\\xba\\xa7\\xe7\\x89\\xb9\\xe6\\x80\\xa7/EtherGame.sol\":1321:1342  address(this).balance */\n      selfbalance\n        /* \"homework/level-02/05.Solidity \\xe7\\xbc\\x96\\xe7\\xa0\\x81\\xe8\\xa7\\x84\\xe8\\x8c\\x83\\xe3\\x80\\x81\\xe9\\xab\\x98\\xe7\\xba\\xa7\\xe7\\x89\\xb9\\xe6\\x80\\xa7/EtherGame.sol\":1321:1360  address(this).balance == finalMileStone */\n      eq\n        /* \"homework/level-02/05.Solidity \\xe7\\xbc\\x96\\xe7\\xa0\\x81\\xe8\\xa7\\x84\\xe8\\x8c\\x83\\xe3\\x80\\x81\\xe9\\xab\\x98\\xe7\\xba\\xa7\\xe7\\x89\\xb9\\xe6\\x80\\xa7/EtherGame.sol\":1313:1361  require(address(this).balance == finalMileStone) */\n      tag_55\n      jumpi\n      0x00\n      dup1\n      revert\n    tag_55:\n        /* \"homework/level-02/05.Solidity \\xe7\\xbc\\x96\\xe7\\xa0\\x81\\xe8\\xa7\\x84\\xe8\\x8c\\x83\\xe3\\x80\\x81\\xe9\\xab\\x98\\xe7\\xba\\xa7\\xe7\\x89\\xb9\\xe6\\x80\\xa7/EtherGame.sol\":1455:1456  0 */\n      0x00\n        /* \"homework/level-02/05.Solidity \\xe7\\xbc\\x96\\xe7\\xa0\\x81\\xe8\\xa7\\x84\\xe8\\x8c\\x83\\xe3\\x80\\x81\\xe9\\xab\\x98\\xe7\\xba\\xa7\\xe7\\x89\\xb9\\xe6\\x80\\xa7/EtherGame.sol\":1425:1440  redeemableEther */\n      0x06\n        /* \"homework/level-02/05.Solidity \\xe7\\xbc\\x96\\xe7\\xa0\\x81\\xe8\\xa7\\x84\\xe8\\x8c\\x83\\xe3\\x80\\x81\\xe9\\xab\\x98\\xe7\\xba\\xa7\\xe7\\x89\\xb9\\xe6\\x80\\xa7/EtherGame.sol\":1425:1452  redeemableEther[msg.sender] */\n      0x00\n        /* \"homework/level-02/05.Solidity \\xe7\\xbc\\x96\\xe7\\xa0\\x81\\xe8\\xa7\\x84\\xe8\\x8c\\x83\\xe3\\x80\\x81\\xe9\\xab\\x98\\xe7\\xba\\xa7\\xe7\\x89\\xb9\\xe6\\x80\\xa7/EtherGame.sol\":1441:1451  msg.sender */\n      caller\n        /* \"homework/level-02/05.Solidity \\xe7\\xbc\\x96\\xe7\\xa0\\x81\\xe8\\xa7\\x84\\xe8\\x8c\\x83\\xe3\\x80\\x81\\xe9\\xab\\x98\\xe7\\xba\\xa7\\xe7\\x89\\xb9\\xe6\\x80\\xa7/EtherGame.sol\":1425:1452  redeemableEther[msg.sender] */\n      0xffffffffffffffffffffffffffffffffffffffff\n      and\n      0xffffffffffffffffffffffffffffffffffffffff\n      and\n      dup2\n      mstore\n      0x20\n      add\n      swap1\n      dup2\n      mstore\n      0x20\n      add\n      0x00\n      keccak256\n      sload\n        /* \"homework/level-02/05.Solidity \\xe7\\xbc\\x96\\xe7\\xa0\\x81\\xe8\\xa7\\x84\\xe8\\x8c\\x83\\xe3\\x80\\x81\\xe9\\xab\\x98\\xe7\\xba\\xa7\\xe7\\x89\\xb9\\xe6\\x80\\xa7/EtherGame.sol\":1425:1456  redeemableEther[msg.sender] > 0 */\n      gt\n        /* \"homework/level-02/05.Solidity \\xe7\\xbc\\x96\\xe7\\xa0\\x81\\xe8\\xa7\\x84\\xe8\\x8c\\x83\\xe3\\x80\\x81\\xe9\\xab\\x98\\xe7\\xba\\xa7\\xe7\\x89\\xb9\\xe6\\x80\\xa7/EtherGame.sol\":1417:1457  require(redeemableEther[msg.sender] > 0) */\n      tag_56\n      jumpi\n      0x00\n      dup1\n      revert\n    tag_56:\n        /* \"homework/level-02/05.Solidity \\xe7\\xbc\\x96\\xe7\\xa0\\x81\\xe8\\xa7\\x84\\xe8\\x8c\\x83\\xe3\\x80\\x81\\xe9\\xab\\x98\\xe7\\xba\\xa7\\xe7\\x89\\xb9\\xe6\\x80\\xa7/EtherGame.sol\":1499:1500  0 */\n      0x00\n        /* \"homework/level-02/05.Solidity \\xe7\\xbc\\x96\\xe7\\xa0\\x81\\xe8\\xa7\\x84\\xe8\\x8c\\x83\\xe3\\x80\\x81\\xe9\\xab\\x98\\xe7\\xba\\xa7\\xe7\\x89\\xb9\\xe6\\x80\\xa7/EtherGame.sol\":1469:1484  redeemableEther */\n      0x06\n        /* \"homework/level-02/05.Solidity \\xe7\\xbc\\x96\\xe7\\xa0\\x81\\xe8\\xa7\\x84\\xe8\\x8c\\x83\\xe3\\x80\\x81\\xe9\\xab\\x98\\xe7\\xba\\xa7\\xe7\\x89\\xb9\\xe6\\x80\\xa7/EtherGame.sol\":1469:1496  redeemableEther[msg.sender] */\n      0x00\n        /* \"homework/level-02/05.Solidity \\xe7\\xbc\\x96\\xe7\\xa0\\x81\\xe8\\xa7\\x84\\xe8\\x8c\\x83\\xe3\\x80\\x81\\xe9\\xab\\x98\\xe7\\xba\\xa7\\xe7\\x89\\xb9\\xe6\\x80\\xa7/EtherGame.sol\":1485:1495  msg.sender */\n      caller\n        /* \"homework/level-02/05.Solidity \\xe7\\xbc\\x96\\xe7\\xa0\\x81\\xe8\\xa7\\x84\\xe8\\x8c\\x83\\xe3\\x80\\x81\\xe9\\xab\\x98\\xe7\\xba\\xa7\\xe7\\x89\\xb9\\xe6\\x80\\xa7/EtherGame.sol\":1469:1496  redeemableEther[msg.sender] */\n      0xffffffffffffffffffffffffffffffffffffffff\n      and\n      0xffffffffffffffffffffffffffffffffffffffff\n      and\n      dup2\n      mstore\n      0x20\n      add\n      swap1\n      dup2\n      mstore\n      0x20\n      add\n      0x00\n      keccak256\n        /* \"homework/level-02/05.Solidity \\xe7\\xbc\\x96\\xe7\\xa0\\x81\\xe8\\xa7\\x84\\xe8\\x8c\\x83\\xe3\\x80\\x81\\xe9\\xab\\x98\\xe7\\xba\\xa7\\xe7\\x89\\xb9\\xe6\\x80\\xa7/EtherGame.sol\":1469:1500  redeemableEther[msg.sender] = 0 */\n      dup2\n      swap1\n      sstore\n      pop\n        /* \"homework/level-02/05.Solidity \\xe7\\xbc\\x96\\xe7\\xa0\\x81\\xe8\\xa7\\x84\\xe8\\x8c\\x83\\xe3\\x80\\x81\\xe9\\xab\\x98\\xe7\\xba\\xa7\\xe7\\x89\\xb9\\xe6\\x80\\xa7/EtherGame.sol\":1519:1529  msg.sender */\n      caller\n        /* \"homework/level-02/05.Solidity \\xe7\\xbc\\x96\\xe7\\xa0\\x81\\xe8\\xa7\\x84\\xe8\\x8c\\x83\\xe3\\x80\\x81\\xe9\\xab\\x98\\xe7\\xba\\xa7\\xe7\\x89\\xb9\\xe6\\x80\\xa7/EtherGame.sol\":1511:1539  payable(msg.sender).transfer */\n      0xffffffffffffffffffffffffffffffffffffffff\n      and\n        /* \"homework/level-02/05.Solidity \\xe7\\xbc\\x96\\xe7\\xa0\\x81\\xe8\\xa7\\x84\\xe8\\x8c\\x83\\xe3\\x80\\x81\\xe9\\xab\\x98\\xe7\\xba\\xa7\\xe7\\x89\\xb9\\xe6\\x80\\xa7/EtherGame.sol\":1511:1568  payable(msg.sender).transfer(redeemableEther[msg.sender]) */\n      0x08fc\n        /* \"homework/level-02/05.Solidity \\xe7\\xbc\\x96\\xe7\\xa0\\x81\\xe8\\xa7\\x84\\xe8\\x8c\\x83\\xe3\\x80\\x81\\xe9\\xab\\x98\\xe7\\xba\\xa7\\xe7\\x89\\xb9\\xe6\\x80\\xa7/EtherGame.sol\":1540:1555  redeemableEther */\n      0x06\n        /* \"homework/level-02/05.Solidity \\xe7\\xbc\\x96\\xe7\\xa0\\x81\\xe8\\xa7\\x84\\xe8\\x8c\\x83\\xe3\\x80\\x81\\xe9\\xab\\x98\\xe7\\xba\\xa7\\xe7\\x89\\xb9\\xe6\\x80\\xa7/EtherGame.sol\":1540:1567  redeemableEther[msg.sender] */\n      0x00\n        /* \"homework/level-02/05.Solidity \\xe7\\xbc\\x96\\xe7\\xa0\\x81\\xe8\\xa7\\x84\\xe8\\x8c\\x83\\xe3\\x80\\x81\\xe9\\xab\\x98\\xe7\\xba\\xa7\\xe7\\x89\\xb9\\xe6\\x80\\xa7/EtherGame.sol\":1556:1566  msg.sender */\n      caller\n        /* \"homework/level-02/05.Solidity \\xe7\\xbc\\x96\\xe7\\xa0\\x81\\xe8\\xa7\\x84\\xe8\\x8c\\x83\\xe3\\x80\\x81\\xe9\\xab\\x98\\xe7\\xba\\xa7\\xe7\\x89\\xb9\\xe6\\x80\\xa7/EtherGame.sol\":1540:1567  redeemableEther[msg.sender] */\n      0xffffffffffffffffffffffffffffffffffffffff\n      and\n      0xffffffffffffffffffffffffffffffffffffffff\n      and\n      dup2\n      mstore\n      0x20\n      add\n      swap1\n      dup2\n      mstore\n      0x20\n      add\n      0x00\n      keccak256\n      sload\n        /* \"homework/level-02/05.Solidity \\xe7\\xbc\\x96\\xe7\\xa0\\x81\\xe8\\xa7\\x84\\xe8\\x8c\\x83\\xe3\\x80\\x81\\xe9\\xab\\x98\\xe7\\xba\\xa7\\xe7\\x89\\xb9\\xe6\\x80\\xa7/EtherGame.sol\":1511:1568  payable(msg.sender).transfer(redeemableEther[msg.sender]) */\n      swap1\n      dup2\n      iszero\n      mul\n      swap1\n      mload(0x40)\n      0x00\n      mload(0x40)\n      dup1\n      dup4\n      sub\n      dup2\n      dup6\n      dup9\n      dup9\n      call\n      swap4\n      pop\n      pop\n      pop\n      pop\n      iszero\n      dup1\n      iszero\n      tag_58\n      jumpi\n      returndatasize\n      0x00\n      dup1\n      returndatacopy\n      revert(0x00, returndatasize)\n    tag_58:\n      pop\n        /* \"homework/level-02/05.Solidity \\xe7\\xbc\\x96\\xe7\\xa0\\x81\\xe8\\xa7\\x84\\xe8\\x8c\\x83\\xe3\\x80\\x81\\xe9\\xab\\x98\\xe7\\xba\\xa7\\xe7\\x89\\xb9\\xe6\\x80\\xa7/EtherGame.sol\":1232:1576  function claimReward() public {... */\n      jump\t// out\n        /* \"#utility.yul\":7:84   */\n    tag_59:\n        /* \"#utility.yul\":44:51   */\n      0x00\n        /* \"#utility.yul\":73:78   */\n      dup2\n        /* \"#utility.yul\":62:78   */\n      swap1\n      pop\n        /* \"#utility.yul\":7:84   */\n      swap2\n      swap1\n      pop\n      jump\t// out\n        /* \"#utility.yul\":90:208   */\n    tag_60:\n        /* \"#utility.yul\":177:201   */\n      tag_65\n        /* \"#utility.yul\":195:200   */\n      dup2\n        /* \"#utility.yul\":177:201   */\n      tag_59\n      jump\t// in\n    tag_65:\n        /* \"#utility.yul\":172:175   */\n      dup3\n        /* \"#utility.yul\":165:202   */\n      mstore\n        /* \"#utility.yul\":90:208   */\n      pop\n      pop\n      jump\t// out\n        /* \"#utility.yul\":214:436   */\n    tag_15:\n        /* \"#utility.yul\":307:311   */\n      0x00\n        /* \"#utility.yul\":345:347   */\n      0x20\n        /* \"#utility.yul\":334:343   */\n      dup3\n        /* \"#utility.yul\":330:348   */\n      add\n        /* \"#utility.yul\":322:348   */\n      swap1\n      pop\n        /* \"#utility.yul\":358:429   */\n      tag_67\n        /* \"#utility.yul\":426:427   */\n      0x00\n        /* \"#utility.yul\":415:424   */\n      dup4\n        /* \"#utility.yul\":411:428   */\n      add\n        /* \"#utility.yul\":402:408   */\n      dup5\n        /* \"#utility.yul\":358:429   */\n      tag_60\n      jump\t// in\n    tag_67:\n        /* \"#utility.yul\":214:436   */\n      swap3\n      swap2\n      pop\n      pop\n      jump\t// out\n        /* \"#utility.yul\":442:622   */\n    tag_61:\n        /* \"#utility.yul\":490:567   */\n      0x4e487b7100000000000000000000000000000000000000000000000000000000\n        /* \"#utility.yul\":487:488   */\n      0x00\n        /* \"#utility.yul\":480:568   */\n      mstore\n        /* \"#utility.yul\":587:591   */\n      0x11\n        /* \"#utility.yul\":584:585   */\n      0x04\n        /* \"#utility.yul\":577:592   */\n      mstore\n        /* \"#utility.yul\":611:615   */\n      0x24\n        /* \"#utility.yul\":608:609   */\n      0x00\n        /* \"#utility.yul\":601:616   */\n      revert\n        /* \"#utility.yul\":628:819   */\n    tag_44:\n        /* \"#utility.yul\":668:671   */\n      0x00\n        /* \"#utility.yul\":687:707   */\n      tag_70\n        /* \"#utility.yul\":705:706   */\n      dup3\n        /* \"#utility.yul\":687:707   */\n      tag_59\n      jump\t// in\n    tag_70:\n        /* \"#utility.yul\":682:707   */\n      swap2\n      pop\n        /* \"#utility.yul\":721:741   */\n      tag_71\n        /* \"#utility.yul\":739:740   */\n      dup4\n        /* \"#utility.yul\":721:741   */\n      tag_59\n      jump\t// in\n    tag_71:\n        /* \"#utility.yul\":716:741   */\n      swap3\n      pop\n        /* \"#utility.yul\":764:765   */\n      dup3\n        /* \"#utility.yul\":761:762   */\n      dup3\n        /* \"#utility.yul\":757:766   */\n      add\n        /* \"#utility.yul\":750:766   */\n      swap1\n      pop\n        /* \"#utility.yul\":785:788   */\n      dup1\n        /* \"#utility.yul\":782:783   */\n      dup3\n        /* \"#utility.yul\":779:789   */\n      gt\n        /* \"#utility.yul\":776:812   */\n      iszero\n      tag_72\n      jumpi\n        /* \"#utility.yul\":792:810   */\n      tag_73\n      tag_61\n      jump\t// in\n    tag_73:\n        /* \"#utility.yul\":776:812   */\n    tag_72:\n        /* \"#utility.yul\":628:819   */\n      swap3\n      swap2\n      pop\n      pop\n      jump\t// out\n\n    auxdata: 0xa2646970667358221220384a3c9f9868a388082e0f529be42057a1fd776690ea4e3a12ccce4a3306b21964736f6c634300081a0033\n}\n",
				"bytecode": {
					"linkReferences": {},
					"object": "60806040526729a2241af62c00005f55671bc16d674ec80000600155674563918244f400006002556729a2241af62c0000600355678ac7230489e80000600455674563918244f400006005553480156055575f80fd5b506104f7806100635f395ff3fe60806040526004361061007a575f3560e01c806382d4a75c1161004d57806382d4a75c146101265780638c6f37591461015057806393e84cd91461017a578063b88a802f146101845761007a565b806316a1883a1461007e5780631c95cfc1146100a857806333c2a9f8146100d25780636e1d5537146100fc575b5f80fd5b348015610089575f80fd5b5061009261019a565b60405161009f9190610448565b60405180910390f35b3480156100b3575f80fd5b506100bc6101a0565b6040516100c99190610448565b60405180910390f35b3480156100dd575f80fd5b506100e66101a6565b6040516100f39190610448565b60405180910390f35b348015610107575f80fd5b506101106101ab565b60405161011d9190610448565b60405180910390f35b348015610131575f80fd5b5061013a6101b1565b6040516101479190610448565b60405180910390f35b34801561015b575f80fd5b506101646101b7565b6040516101719190610448565b60405180910390f35b6101826101bd565b005b34801561018f575f80fd5b50610198610316565b005b60045481565b60025481565b5f5481565b60055481565b60015481565b60035481565b6706f05b59d3b2000034146101d0575f80fd5b5f34476101dd919061048e565b90506004548111156101ed575f80fd5b5f54810361024f5760015460065f3373ffffffffffffffffffffffffffffffffffffffff1673ffffffffffffffffffffffffffffffffffffffff1681526020019081526020015f205f828254610243919061048e565b92505081905550610313565b60025481036102b25760035460065f3373ffffffffffffffffffffffffffffffffffffffff1673ffffffffffffffffffffffffffffffffffffffff1681526020019081526020015f205f8282546102a6919061048e565b92505081905550610312565b60045481036103115760055460065f3373ffffffffffffffffffffffffffffffffffffffff1673ffffffffffffffffffffffffffffffffffffffff1681526020019081526020015f205f828254610309919061048e565b925050819055505b5b5b50565b6004544714610323575f80fd5b5f60065f3373ffffffffffffffffffffffffffffffffffffffff1673ffffffffffffffffffffffffffffffffffffffff1681526020019081526020015f20541161036b575f80fd5b5f60065f3373ffffffffffffffffffffffffffffffffffffffff1673ffffffffffffffffffffffffffffffffffffffff1681526020019081526020015f20819055503373ffffffffffffffffffffffffffffffffffffffff166108fc60065f3373ffffffffffffffffffffffffffffffffffffffff1673ffffffffffffffffffffffffffffffffffffffff1681526020019081526020015f205490811502906040515f60405180830381858888f1935050505015801561042d573d5f803e3d5ffd5b50565b5f819050919050565b61044281610430565b82525050565b5f60208201905061045b5f830184610439565b92915050565b7f4e487b71000000000000000000000000000000000000000000000000000000005f52601160045260245ffd5b5f61049882610430565b91506104a383610430565b92508282019050808211156104bb576104ba610461565b5b9291505056fea2646970667358221220384a3c9f9868a388082e0f529be42057a1fd776690ea4e3a12ccce4a3306b21964736f6c634300081a0033",
					"opcodes": "PUSH1 0x80 PUSH1 0x40 MSTORE PUSH8 0x29A2241AF62C0000 PUSH0 SSTORE PUSH8 0x1BC16D674EC80000 PUSH1 0x1 SSTORE PUSH8 0x4563918244F40000 PUSH1 0x2 SSTORE PUSH8 0x29A2241AF62C0000 PUSH1 0x3 SSTORE PUSH8 0x8AC7230489E80000 PUSH1 0x4 SSTORE PUSH8 0x4563918244F40000 PUSH1 0x5 SSTORE CALLVALUE DUP1 ISZERO PUSH1 0x55 JUMPI PUSH0 DUP1 REVERT JUMPDEST POP PUSH2 0x4F7 DUP1 PUSH2 0x63 PUSH0 CODECOPY PUSH0 RETURN INVALID PUSH1 0x80 PUSH1 0x40 MSTORE PUSH1 0x4 CALLDATASIZE LT PUSH2 0x7A JUMPI PUSH0 CALLDATALOAD PUSH1 0xE0 SHR DUP1 PUSH4 0x82D4A75C GT PUSH2 0x4D JUMPI DUP1 PUSH4 0x82D4A75C EQ PUSH2 0x126 JUMPI DUP1 PUSH4 0x8C6F3759 EQ PUSH2 0x150 JUMPI DUP1 PUSH4 0x93E84CD9 EQ PUSH2 0x17A JUMPI DUP1 PUSH4 0xB88A802F EQ PUSH2 0x184 JUMPI PUSH2 0x7A JUMP JUMPDEST DUP1 PUSH4 0x16A1883A EQ PUSH2 0x7E JUMPI DUP1 PUSH4 0x1C95CFC1 EQ PUSH2 0xA8 JUMPI DUP1 PUSH4 0x33C2A9F8 EQ PUSH2 0xD2 JUMPI DUP1 PUSH4 0x6E1D5537 EQ PUSH2 0xFC JUMPI JUMPDEST PUSH0 DUP1 REVERT JUMPDEST CALLVALUE DUP1 ISZERO PUSH2 0x89 JUMPI PUSH0 DUP1 REVERT JUMPDEST POP PUSH2 0x92 PUSH2 0x19A JUMP JUMPDEST PUSH1 0x40 MLOAD PUSH2 0x9F SWAP2 SWAP1 PUSH2 0x448 JUMP JUMPDEST PUSH1 0x40 MLOAD DUP1 SWAP2 SUB SWAP1 RETURN JUMPDEST CALLVALUE DUP1 ISZERO PUSH2 0xB3 JUMPI PUSH0 DUP1 REVERT JUMPDEST POP PUSH2 0xBC PUSH2 0x1A0 JUMP JUMPDEST PUSH1 0x40 MLOAD PUSH2 0xC9 SWAP2 SWAP1 PUSH2 0x448 JUMP JUMPDEST PUSH1 0x40 MLOAD DUP1 SWAP2 SUB SWAP1 RETURN JUMPDEST CALLVALUE DUP1 ISZERO PUSH2 0xDD JUMPI PUSH0 DUP1 REVERT JUMPDEST POP PUSH2 0xE6 PUSH2 0x1A6 JUMP JUMPDEST PUSH1 0x40 MLOAD PUSH2 0xF3 SWAP2 SWAP1 PUSH2 0x448 JUMP JUMPDEST PUSH1 0x40 MLOAD DUP1 SWAP2 SUB SWAP1 RETURN JUMPDEST CALLVALUE DUP1 ISZERO PUSH2 0x107 JUMPI PUSH0 DUP1 REVERT JUMPDEST POP PUSH2 0x110 PUSH2 0x1AB JUMP JUMPDEST PUSH1 0x40 MLOAD PUSH2 0x11D SWAP2 SWAP1 PUSH2 0x448 JUMP JUMPDEST PUSH1 0x40 MLOAD DUP1 SWAP2 SUB SWAP1 RETURN JUMPDEST CALLVALUE DUP1 ISZERO PUSH2 0x131 JUMPI PUSH0 DUP1 REVERT JUMPDEST POP PUSH2 0x13A PUSH2 0x1B1 JUMP JUMPDEST PUSH1 0x40 MLOAD PUSH2 0x147 SWAP2 SWAP1 PUSH2 0x448 JUMP JUMPDEST PUSH1 0x40 MLOAD DUP1 SWAP2 SUB SWAP1 RETURN JUMPDEST CALLVALUE DUP1 ISZERO PUSH2 0x15B JUMPI PUSH0 DUP1 REVERT JUMPDEST POP PUSH2 0x164 PUSH2 0x1B7 JUMP JUMPDEST PUSH1 0x40 MLOAD PUSH2 0x171 SWAP2 SWAP1 PUSH2 0x448 JUMP JUMPDEST PUSH1 0x40 MLOAD DUP1 SWAP2 SUB SWAP1 RETURN JUMPDEST PUSH2 0x182 PUSH2 0x1BD JUMP JUMPDEST STOP JUMPDEST CALLVALUE DUP1 ISZERO PUSH2 0x18F JUMPI PUSH0 DUP1 REVERT JUMPDEST POP PUSH2 0x198 PUSH2 0x316 JUMP JUMPDEST STOP JUMPDEST PUSH1 0x4 SLOAD DUP2 JUMP JUMPDEST PUSH1 0x2 SLOAD DUP2 JUMP JUMPDEST PUSH0 SLOAD DUP2 JUMP JUMPDEST PUSH1 0x5 SLOAD DUP2 JUMP JUMPDEST PUSH1 0x1 SLOAD DUP2 JUMP JUMPDEST PUSH1 0x3 SLOAD DUP2 JUMP JUMPDEST PUSH8 0x6F05B59D3B20000 CALLVALUE EQ PUSH2 0x1D0 JUMPI PUSH0 DUP1 REVERT JUMPDEST PUSH0 CALLVALUE SELFBALANCE PUSH2 0x1DD SWAP2 SWAP1 PUSH2 0x48E JUMP JUMPDEST SWAP1 POP PUSH1 0x4 SLOAD DUP2 GT ISZERO PUSH2 0x1ED JUMPI PUSH0 DUP1 REVERT JUMPDEST PUSH0 SLOAD DUP2 SUB PUSH2 0x24F JUMPI PUSH1 0x1 SLOAD PUSH1 0x6 PUSH0 CALLER PUSH20 0xFFFFFFFFFFFFFFFFFFFFFFFFFFFFFFFFFFFFFFFF AND PUSH20 0xFFFFFFFFFFFFFFFFFFFFFFFFFFFFFFFFFFFFFFFF AND DUP2 MSTORE PUSH1 0x20 ADD SWAP1 DUP2 MSTORE PUSH1 0x20 ADD PUSH0 KECCAK256 PUSH0 DUP3 DUP3 SLOAD PUSH2 0x243 SWAP2 SWAP1 PUSH2 0x48E JUMP JUMPDEST SWAP3 POP POP DUP2 SWAP1 SSTORE POP PUSH2 0x313 JUMP JUMPDEST PUSH1 0x2 SLOAD DUP2 SUB PUSH2 0x2B2 JUMPI PUSH1 0x3 SLOAD PUSH1 0x6 PUSH0 CALLER PUSH20 0xFFFFFFFFFFFFFFFFFFFFFFFFFFFFFFFFFFFFFFFF AND PUSH20 0xFFFFFFFFFFFFFFFFFFFFFFFFFFFFFFFFFFFFFFFF AND DUP2 MSTORE PUSH1 0x20 ADD SWAP1 DUP2 MSTORE PUSH1 0x20 ADD PUSH0 KECCAK256 PUSH0 DUP3 DUP3 SLOAD PUSH2 0x2A6 SWAP2 SWAP1 PUSH2 0x48E JUMP JUMPDEST SWAP3 POP POP DUP2 SWAP1 SSTORE POP PUSH2 0x312 JUMP JUMPDEST PUSH1 0x4 SLOAD DUP2 SUB PUSH2 0x311 JUMPI PUSH1 0x5 SLOAD PUSH1 0x6 PUSH0 CALLER PUSH20 0xFFFFFFFFFFFFFFFFFFFFFFFFFFFFFFFFFFFFFFFF AND PUSH20 0xFFFFFFFFFFFFFFFFFFFFFFFFFFFFFFFFFFFFFFFF AND DUP2 MSTORE PUSH1 0x20 ADD SWAP1 DUP2 MSTORE PUSH1 0x20 ADD PUSH0 KECCAK256 PUSH0 DUP3 DUP3 SLOAD PUSH2 0x309 SWAP2 SWAP1 PUSH2 0x48E JUMP JUMPDEST SWAP3 POP POP DUP2 SWAP1 SSTORE POP JUMPDEST JUMPDEST JUMPDEST POP JUMP JUMPDEST PUSH1 0x4 SLOAD SELFBALANCE EQ PUSH2 0x323 JUMPI PUSH0 DUP1 REVERT JUMPDEST PUSH0 PUSH1 0x6 PUSH0 CALLER PUSH20 0xFFFFFFFFFFFFFFFFFFFFFFFFFFFFFFFFFFFFFFFF AND PUSH20 0xFFFFFFFFFFFFFFFFFFFFFFFFFFFFFFFFFFFFFFFF AND DUP2 MSTORE PUSH1 0x20 ADD SWAP1 DUP2 MSTORE PUSH1 0x20 ADD PUSH0 KECCAK256 SLOAD GT PUSH2 0x36B JUMPI PUSH0 DUP1 REVERT JUMPDEST PUSH0 PUSH1 0x6 PUSH0 CALLER PUSH20 0xFFFFFFFFFFFFFFFFFFFFFFFFFFFFFFFFFFFFFFFF AND PUSH20 0xFFFFFFFFFFFFFFFFFFFFFFFFFFFFFFFFFFFFFFFF AND DUP2 MSTORE PUSH1 0x20 ADD SWAP1 DUP2 MSTORE PUSH1 0x20 ADD PUSH0 KECCAK256 DUP2 SWAP1 SSTORE POP CALLER PUSH20 0xFFFFFFFFFFFFFFFFFFFFFFFFFFFFFFFFFFFFFFFF AND PUSH2 0x8FC PUSH1 0x6 PUSH0 CALLER PUSH20 0xFFFFFFFFFFFFFFFFFFFFFFFFFFFFFFFFFFFFFFFF AND PUSH20 0xFFFFFFFFFFFFFFFFFFFFFFFFFFFFFFFFFFFFFFFF AND DUP2 MSTORE PUSH1 0x20 ADD SWAP1 DUP2 MSTORE PUSH1 0x20 ADD PUSH0 KECCAK256 SLOAD SWAP1 DUP2 ISZERO MUL SWAP1 PUSH1 0x40 MLOAD PUSH0 PUSH1 0x40 MLOAD DUP1 DUP4 SUB DUP2 DUP6 DUP9 DUP9 CALL SWAP4 POP POP POP POP ISZERO DUP1 ISZERO PUSH2 0x42D JUMPI RETURNDATASIZE PUSH0 DUP1 RETURNDATACOPY RETURNDATASIZE PUSH0 REVERT JUMPDEST POP JUMP JUMPDEST PUSH0 DUP2 SWAP1 POP SWAP2 SWAP1 POP JUMP JUMPDEST PUSH2 0x442 DUP2 PUSH2 0x430 JUMP JUMPDEST DUP3 MSTORE POP POP JUMP JUMPDEST PUSH0 PUSH1 0x20 DUP3 ADD SWAP1 POP PUSH2 0x45B PUSH0 DUP4 ADD DUP5 PUSH2 0x439 JUMP JUMPDEST SWAP3 SWAP2 POP POP JUMP JUMPDEST PUSH32 0x4E487B7100000000000000000000000000000000000000000000000000000000 PUSH0 MSTORE PUSH1 0x11 PUSH1 0x4 MSTORE PUSH1 0x24 PUSH0 REVERT JUMPDEST PUSH0 PUSH2 0x498 DUP3 PUSH2 0x430 JUMP JUMPDEST SWAP2 POP PUSH2 0x4A3 DUP4 PUSH2 0x430 JUMP JUMPDEST SWAP3 POP DUP3 DUP3 ADD SWAP1 POP DUP1 DUP3 GT ISZERO PUSH2 0x4BB JUMPI PUSH2 0x4BA PUSH2 0x461 JUMP JUMPDEST JUMPDEST SWAP3 SWAP2 POP POP JUMP INVALID LOG2 PUSH5 0x6970667358 0x22 SLT KECCAK256 CODESIZE BLOBBASEFEE EXTCODECOPY SWAP16 SWAP9 PUSH9 0xA388082E0F529BE420 JUMPI LOG1 REVERT PUSH24 0x6690EA4E3A12CCCE4A3306B21964736F6C634300081A0033 "
				},
				"gasEstimates": {
					"creation": {
						"codeDepositCost": "254200",
						"executionCost": "132927",
						"totalCost": "387127"
					},
					"external": {
						"claimReward()": "infinite",
						"finalMileStone()": "2426",
						"finalReward()": "2492",
						"mileStone1Reward()": "2425",
						"mileStone2Reward()": "2447",
						"payoutMileStone1()": "2469",
						"payoutMileStone2()": "2448",
						"play()": "infinite"
					}
				},
				"methodIdentifiers": {
					"claimReward()": "b88a802f",
					"finalMileStone()": "16a1883a",
					"finalReward()": "6e1d5537",
					"mileStone1Reward()": "82d4a75c",
					"mileStone2Reward()": "8c6f3759",
					"payoutMileStone1()": "33c2a9f8",
					"payoutMileStone2()": "1c95cfc1",
					"play()": "93e84cd9"
				}
			},
			"storageLayout": {
				"storage": [
					{
						"astId": 4,
						"contract": "homework/level-02/05.Solidity 编码规范、高级特性/EtherGame.sol:EtherGame",
						"label": "payoutMileStone1",
						"offset": 0,
						"slot": "0",
						"type": "t_uint256"
					},
					{
						"astId": 7,
						"contract": "homework/level-02/05.Solidity 编码规范、高级特性/EtherGame.sol:EtherGame",
						"label": "mileStone1Reward",
						"offset": 0,
						"slot": "1",
						"type": "t_uint256"
					},
					{
						"astId": 10,
						"contract": "homework/level-02/05.Solidity 编码规范、高级特性/EtherGame.sol:EtherGame",
						"label": "payoutMileStone2",
						"offset": 0,
						"slot": "2",
						"type": "t_uint256"
					},
					{
						"astId": 13,
						"contract": "homework/level-02/05.Solidity 编码规范、高级特性/EtherGame.sol:EtherGame",
						"label": "mileStone2Reward",
						"offset": 0,
						"slot": "3",
						"type": "t_uint256"
					},
					{
						"astId": 16,
						"contract": "homework/level-02/05.Solidity 编码规范、高级特性/EtherGame.sol:EtherGame",
						"label": "finalMileStone",
						"offset": 0,
						"slot": "4",
						"type": "t_uint256"
					},
					{
						"astId": 19,
						"contract": "homework/level-02/05.Solidity 编码规范、高级特性/EtherGame.sol:EtherGame",
						"label": "finalReward",
						"offset": 0,
						"slot": "5",
						"type": "t_uint256"
					},
					{
						"astId": 23,
						"contract": "homework/level-02/05.Solidity 编码规范、高级特性/EtherGame.sol:EtherGame",
						"label": "redeemableEther",
						"offset": 0,
						"slot": "6",
						"type": "t_mapping(t_address,t_uint256)"
					}
				],
				"types": {
					"t_address": {
						"encoding": "inplace",
						"label": "address",
						"numberOfBytes": "20"
					},
					"t_mapping(t_address,t_uint256)": {
						"encoding": "mapping",
						"key": "t_address",
						"label": "mapping(address => uint256)",
						"numberOfBytes": "32",
						"value": "t_uint256"
					},
					"t_uint256": {
						"encoding": "inplace",
						"label": "uint256",
						"numberOfBytes": "32"
					}
				}
			},
			"userdoc": {
				"kind": "user",
				"methods": {},
				"version": 1
			}
		}
	}
}