{
	"homework/level-02/05.Solidity 编码规范、高级特性/EtherStore.sol": {
		"EtherStore": {
			"abi": [
				{
					"inputs": [
						{
							"internalType": "address",
							"name": "",
							"type": "address"
						}
					],
					"name": "balances",
					"outputs": [
						{
							"internalType": "uint256",
							"name": "",
							"type": "uint256"
						}
					],
					"stateMutability": "view",
					"type": "function"
				},
				{
					"inputs": [],
					"name": "depositFunds",
					"outputs": [],
					"stateMutability": "payable",
					"type": "function"
				},
				{
					"inputs": [],
					"name": "getSelfAndSenderBalance",
					"outputs": [
						{
							"internalType": "uint256",
							"name": "",
							"type": "uint256"
						},
						{
							"internalType": "uint256",
							"name": "",
							"type": "uint256"
						},
						{
							"internalType": "uint256",
							"name": "",
							"type": "uint256"
						}
					],
					"stateMutability": "view",
					"type": "function"
				},
				{
					"inputs": [
						{
							"internalType": "address",
							"name": "",
							"type": "address"
						}
					],
					"name": "lastWithdrawTime",
					"outputs": [
						{
							"internalType": "uint256",
							"name": "",
							"type": "uint256"
						}
					],
					"stateMutability": "view",
					"type": "function"
				},
				{
					"inputs": [
						{
							"internalType": "uint256",
							"name": "_weiToWithdraw",
							"type": "uint256"
						}
					],
					"name": "withdrawFunds",
					"outputs": [],
					"stateMutability": "nonpayable",
					"type": "function"
				},
				{
					"inputs": [],
					"name": "withdrawalLimit",
					"outputs": [
						{
							"internalType": "uint256",
							"name": "",
							"type": "uint256"
						}
					],
					"stateMutability": "view",
					"type": "function"
				}
			],
			"devdoc": {
				"kind": "dev",
				"methods": {},
				"version": 1
			},
			"evm": {
				"assembly": "    /* \"homework/level-02/05.Solidity \\xe7\\xbc\\x96\\xe7\\xa0\\x81\\xe8\\xa7\\x84\\xe8\\x8c\\x83\\xe3\\x80\\x81\\xe9\\xab\\x98\\xe7\\xba\\xa7\\xe7\\x89\\xb9\\xe6\\x80\\xa7/EtherStore.sol\":58:1229  contract EtherStore {... */\n  mstore(0x40, 0x80)\n    /* \"homework/level-02/05.Solidity \\xe7\\xbc\\x96\\xe7\\xa0\\x81\\xe8\\xa7\\x84\\xe8\\x8c\\x83\\xe3\\x80\\x81\\xe9\\xab\\x98\\xe7\\xba\\xa7\\xe7\\x89\\xb9\\xe6\\x80\\xa7/EtherStore.sol\":117:124  1 ether */\n  0x0de0b6b3a7640000\n    /* \"homework/level-02/05.Solidity \\xe7\\xbc\\x96\\xe7\\xa0\\x81\\xe8\\xa7\\x84\\xe8\\x8c\\x83\\xe3\\x80\\x81\\xe9\\xab\\x98\\xe7\\xba\\xa7\\xe7\\x89\\xb9\\xe6\\x80\\xa7/EtherStore.sol\":84:124  uint256 public withdrawalLimit = 1 ether */\n  0x00\n  sstore\n    /* \"homework/level-02/05.Solidity \\xe7\\xbc\\x96\\xe7\\xa0\\x81\\xe8\\xa7\\x84\\xe8\\x8c\\x83\\xe3\\x80\\x81\\xe9\\xab\\x98\\xe7\\xba\\xa7\\xe7\\x89\\xb9\\xe6\\x80\\xa7/EtherStore.sol\":58:1229  contract EtherStore {... */\n  callvalue\n  dup1\n  iszero\n  tag_1\n  jumpi\n  0x00\n  dup1\n  revert\ntag_1:\n  pop\n  dataSize(sub_0)\n  dup1\n  dataOffset(sub_0)\n  0x00\n  codecopy\n  0x00\n  return\nstop\n\nsub_0: assembly {\n        /* \"homework/level-02/05.Solidity \\xe7\\xbc\\x96\\xe7\\xa0\\x81\\xe8\\xa7\\x84\\xe8\\x8c\\x83\\xe3\\x80\\x81\\xe9\\xab\\x98\\xe7\\xba\\xa7\\xe7\\x89\\xb9\\xe6\\x80\\xa7/EtherStore.sol\":58:1229  contract EtherStore {... */\n      mstore(0x40, 0x80)\n      jumpi(tag_1, lt(calldatasize, 0x04))\n      shr(0xe0, calldataload(0x00))\n      dup1\n      0x1031ec31\n      eq\n      tag_2\n      jumpi\n      dup1\n      0x155dd5ee\n      eq\n      tag_3\n      jumpi\n      dup1\n      0x27e235e3\n      eq\n      tag_4\n      jumpi\n      dup1\n      0x55afeca6\n      eq\n      tag_5\n      jumpi\n      dup1\n      0x7ddfe78d\n      eq\n      tag_6\n      jumpi\n      dup1\n      0xe2c41dbc\n      eq\n      tag_7\n      jumpi\n    tag_1:\n      0x00\n      dup1\n      revert\n        /* \"homework/level-02/05.Solidity \\xe7\\xbc\\x96\\xe7\\xa0\\x81\\xe8\\xa7\\x84\\xe8\\x8c\\x83\\xe3\\x80\\x81\\xe9\\xab\\x98\\xe7\\xba\\xa7\\xe7\\x89\\xb9\\xe6\\x80\\xa7/EtherStore.sol\":130:181  mapping(address => uint256) public lastWithdrawTime */\n    tag_2:\n      callvalue\n      dup1\n      iszero\n      tag_8\n      jumpi\n      0x00\n      dup1\n      revert\n    tag_8:\n      pop\n      tag_9\n      0x04\n      dup1\n      calldatasize\n      sub\n      dup2\n      add\n      swap1\n      tag_10\n      swap2\n      swap1\n      tag_11\n      jump\t// in\n    tag_10:\n      tag_12\n      jump\t// in\n    tag_9:\n      mload(0x40)\n      tag_13\n      swap2\n      swap1\n      tag_14\n      jump\t// in\n    tag_13:\n      mload(0x40)\n      dup1\n      swap2\n      sub\n      swap1\n      return\n        /* \"homework/level-02/05.Solidity \\xe7\\xbc\\x96\\xe7\\xa0\\x81\\xe8\\xa7\\x84\\xe8\\x8c\\x83\\xe3\\x80\\x81\\xe9\\xab\\x98\\xe7\\xba\\xa7\\xe7\\x89\\xb9\\xe6\\x80\\xa7/EtherStore.sol\":332:1055  function withdrawFunds(uint256 _weiToWithdraw) public {... */\n    tag_3:\n      callvalue\n      dup1\n      iszero\n      tag_15\n      jumpi\n      0x00\n      dup1\n      revert\n    tag_15:\n      pop\n      tag_16\n      0x04\n      dup1\n      calldatasize\n      sub\n      dup2\n      add\n      swap1\n      tag_17\n      swap2\n      swap1\n      tag_18\n      jump\t// in\n    tag_17:\n      tag_19\n      jump\t// in\n    tag_16:\n      stop\n        /* \"homework/level-02/05.Solidity \\xe7\\xbc\\x96\\xe7\\xa0\\x81\\xe8\\xa7\\x84\\xe8\\x8c\\x83\\xe3\\x80\\x81\\xe9\\xab\\x98\\xe7\\xba\\xa7\\xe7\\x89\\xb9\\xe6\\x80\\xa7/EtherStore.sol\":187:230  mapping(address => uint256) public balances */\n    tag_4:\n      callvalue\n      dup1\n      iszero\n      tag_20\n      jumpi\n      0x00\n      dup1\n      revert\n    tag_20:\n      pop\n      tag_21\n      0x04\n      dup1\n      calldatasize\n      sub\n      dup2\n      add\n      swap1\n      tag_22\n      swap2\n      swap1\n      tag_11\n      jump\t// in\n    tag_22:\n      tag_23\n      jump\t// in\n    tag_21:\n      mload(0x40)\n      tag_24\n      swap2\n      swap1\n      tag_14\n      jump\t// in\n    tag_24:\n      mload(0x40)\n      dup1\n      swap2\n      sub\n      swap1\n      return\n        /* \"homework/level-02/05.Solidity \\xe7\\xbc\\x96\\xe7\\xa0\\x81\\xe8\\xa7\\x84\\xe8\\x8c\\x83\\xe3\\x80\\x81\\xe9\\xab\\x98\\xe7\\xba\\xa7\\xe7\\x89\\xb9\\xe6\\x80\\xa7/EtherStore.sol\":1061:1227  function getSelfAndSenderBalance() public view returns(uint256,uint256,uint256){... */\n    tag_5:\n      callvalue\n      dup1\n      iszero\n      tag_25\n      jumpi\n      0x00\n      dup1\n      revert\n    tag_25:\n      pop\n      tag_26\n      tag_27\n      jump\t// in\n    tag_26:\n      mload(0x40)\n      tag_28\n      swap4\n      swap3\n      swap2\n      swap1\n      tag_29\n      jump\t// in\n    tag_28:\n      mload(0x40)\n      dup1\n      swap2\n      sub\n      swap1\n      return\n        /* \"homework/level-02/05.Solidity \\xe7\\xbc\\x96\\xe7\\xa0\\x81\\xe8\\xa7\\x84\\xe8\\x8c\\x83\\xe3\\x80\\x81\\xe9\\xab\\x98\\xe7\\xba\\xa7\\xe7\\x89\\xb9\\xe6\\x80\\xa7/EtherStore.sol\":84:124  uint256 public withdrawalLimit = 1 ether */\n    tag_6:\n      callvalue\n      dup1\n      iszero\n      tag_30\n      jumpi\n      0x00\n      dup1\n      revert\n    tag_30:\n      pop\n      tag_31\n      tag_32\n      jump\t// in\n    tag_31:\n      mload(0x40)\n      tag_33\n      swap2\n      swap1\n      tag_14\n      jump\t// in\n    tag_33:\n      mload(0x40)\n      dup1\n      swap2\n      sub\n      swap1\n      return\n        /* \"homework/level-02/05.Solidity \\xe7\\xbc\\x96\\xe7\\xa0\\x81\\xe8\\xa7\\x84\\xe8\\x8c\\x83\\xe3\\x80\\x81\\xe9\\xab\\x98\\xe7\\xba\\xa7\\xe7\\x89\\xb9\\xe6\\x80\\xa7/EtherStore.sol\":237:326  function depositFunds() public payable {... */\n    tag_7:\n      tag_34\n      tag_35\n      jump\t// in\n    tag_34:\n      stop\n        /* \"homework/level-02/05.Solidity \\xe7\\xbc\\x96\\xe7\\xa0\\x81\\xe8\\xa7\\x84\\xe8\\x8c\\x83\\xe3\\x80\\x81\\xe9\\xab\\x98\\xe7\\xba\\xa7\\xe7\\x89\\xb9\\xe6\\x80\\xa7/EtherStore.sol\":130:181  mapping(address => uint256) public lastWithdrawTime */\n    tag_12:\n      mstore(0x20, 0x01)\n      dup1\n      0x00\n      mstore\n      keccak256(0x00, 0x40)\n      0x00\n      swap2\n      pop\n      swap1\n      pop\n      sload\n      dup2\n      jump\t// out\n        /* \"homework/level-02/05.Solidity \\xe7\\xbc\\x96\\xe7\\xa0\\x81\\xe8\\xa7\\x84\\xe8\\x8c\\x83\\xe3\\x80\\x81\\xe9\\xab\\x98\\xe7\\xba\\xa7\\xe7\\x89\\xb9\\xe6\\x80\\xa7/EtherStore.sol\":332:1055  function withdrawFunds(uint256 _weiToWithdraw) public {... */\n    tag_19:\n        /* \"homework/level-02/05.Solidity \\xe7\\xbc\\x96\\xe7\\xa0\\x81\\xe8\\xa7\\x84\\xe8\\x8c\\x83\\xe3\\x80\\x81\\xe9\\xab\\x98\\xe7\\xba\\xa7\\xe7\\x89\\xb9\\xe6\\x80\\xa7/EtherStore.sol\":428:442  _weiToWithdraw */\n      dup1\n        /* \"homework/level-02/05.Solidity \\xe7\\xbc\\x96\\xe7\\xa0\\x81\\xe8\\xa7\\x84\\xe8\\x8c\\x83\\xe3\\x80\\x81\\xe9\\xab\\x98\\xe7\\xba\\xa7\\xe7\\x89\\xb9\\xe6\\x80\\xa7/EtherStore.sol\":404:412  balances */\n      0x02\n        /* \"homework/level-02/05.Solidity \\xe7\\xbc\\x96\\xe7\\xa0\\x81\\xe8\\xa7\\x84\\xe8\\x8c\\x83\\xe3\\x80\\x81\\xe9\\xab\\x98\\xe7\\xba\\xa7\\xe7\\x89\\xb9\\xe6\\x80\\xa7/EtherStore.sol\":404:424  balances[msg.sender] */\n      0x00\n        /* \"homework/level-02/05.Solidity \\xe7\\xbc\\x96\\xe7\\xa0\\x81\\xe8\\xa7\\x84\\xe8\\x8c\\x83\\xe3\\x80\\x81\\xe9\\xab\\x98\\xe7\\xba\\xa7\\xe7\\x89\\xb9\\xe6\\x80\\xa7/EtherStore.sol\":413:423  msg.sender */\n      caller\n        /* \"homework/level-02/05.Solidity \\xe7\\xbc\\x96\\xe7\\xa0\\x81\\xe8\\xa7\\x84\\xe8\\x8c\\x83\\xe3\\x80\\x81\\xe9\\xab\\x98\\xe7\\xba\\xa7\\xe7\\x89\\xb9\\xe6\\x80\\xa7/EtherStore.sol\":404:424  balances[msg.sender] */\n      0xffffffffffffffffffffffffffffffffffffffff\n      and\n      0xffffffffffffffffffffffffffffffffffffffff\n      and\n      dup2\n      mstore\n      0x20\n      add\n      swap1\n      dup2\n      mstore\n      0x20\n      add\n      0x00\n      keccak256\n      sload\n        /* \"homework/level-02/05.Solidity \\xe7\\xbc\\x96\\xe7\\xa0\\x81\\xe8\\xa7\\x84\\xe8\\x8c\\x83\\xe3\\x80\\x81\\xe9\\xab\\x98\\xe7\\xba\\xa7\\xe7\\x89\\xb9\\xe6\\x80\\xa7/EtherStore.sol\":404:442  balances[msg.sender] >= _weiToWithdraw */\n      lt\n      iszero\n        /* \"homework/level-02/05.Solidity \\xe7\\xbc\\x96\\xe7\\xa0\\x81\\xe8\\xa7\\x84\\xe8\\x8c\\x83\\xe3\\x80\\x81\\xe9\\xab\\x98\\xe7\\xba\\xa7\\xe7\\x89\\xb9\\xe6\\x80\\xa7/EtherStore.sol\":396:467  require(balances[msg.sender] >= _weiToWithdraw, \"Insufficient balance\") */\n      tag_37\n      jumpi\n      mload(0x40)\n      0x08c379a000000000000000000000000000000000000000000000000000000000\n      dup2\n      mstore\n      0x04\n      add\n      tag_38\n      swap1\n      tag_39\n      jump\t// in\n    tag_38:\n      mload(0x40)\n      dup1\n      swap2\n      sub\n      swap1\n      revert\n    tag_37:\n        /* \"homework/level-02/05.Solidity \\xe7\\xbc\\x96\\xe7\\xa0\\x81\\xe8\\xa7\\x84\\xe8\\x8c\\x83\\xe3\\x80\\x81\\xe9\\xab\\x98\\xe7\\xba\\xa7\\xe7\\x89\\xb9\\xe6\\x80\\xa7/EtherStore.sol\":533:548  withdrawalLimit */\n      sload(0x00)\n        /* \"homework/level-02/05.Solidity \\xe7\\xbc\\x96\\xe7\\xa0\\x81\\xe8\\xa7\\x84\\xe8\\x8c\\x83\\xe3\\x80\\x81\\xe9\\xab\\x98\\xe7\\xba\\xa7\\xe7\\x89\\xb9\\xe6\\x80\\xa7/EtherStore.sol\":515:529  _weiToWithdraw */\n      dup2\n        /* \"homework/level-02/05.Solidity \\xe7\\xbc\\x96\\xe7\\xa0\\x81\\xe8\\xa7\\x84\\xe8\\x8c\\x83\\xe3\\x80\\x81\\xe9\\xab\\x98\\xe7\\xba\\xa7\\xe7\\x89\\xb9\\xe6\\x80\\xa7/EtherStore.sol\":515:548  _weiToWithdraw <= withdrawalLimit */\n      gt\n      iszero\n        /* \"homework/level-02/05.Solidity \\xe7\\xbc\\x96\\xe7\\xa0\\x81\\xe8\\xa7\\x84\\xe8\\x8c\\x83\\xe3\\x80\\x81\\xe9\\xab\\x98\\xe7\\xba\\xa7\\xe7\\x89\\xb9\\xe6\\x80\\xa7/EtherStore.sol\":507:577  require(_weiToWithdraw <= withdrawalLimit, \"Exceeds withdrawal limit\") */\n      tag_40\n      jumpi\n      mload(0x40)\n      0x08c379a000000000000000000000000000000000000000000000000000000000\n      dup2\n      mstore\n      0x04\n      add\n      tag_41\n      swap1\n      tag_42\n      jump\t// in\n    tag_41:\n      mload(0x40)\n      dup1\n      swap2\n      sub\n      swap1\n      revert\n    tag_40:\n        /* \"homework/level-02/05.Solidity \\xe7\\xbc\\x96\\xe7\\xa0\\x81\\xe8\\xa7\\x84\\xe8\\x8c\\x83\\xe3\\x80\\x81\\xe9\\xab\\x98\\xe7\\xba\\xa7\\xe7\\x89\\xb9\\xe6\\x80\\xa7/EtherStore.sol\":697:704  1 weeks */\n      0x093a80\n        /* \"homework/level-02/05.Solidity \\xe7\\xbc\\x96\\xe7\\xa0\\x81\\xe8\\xa7\\x84\\xe8\\x8c\\x83\\xe3\\x80\\x81\\xe9\\xab\\x98\\xe7\\xba\\xa7\\xe7\\x89\\xb9\\xe6\\x80\\xa7/EtherStore.sol\":666:682  lastWithdrawTime */\n      0x01\n        /* \"homework/level-02/05.Solidity \\xe7\\xbc\\x96\\xe7\\xa0\\x81\\xe8\\xa7\\x84\\xe8\\x8c\\x83\\xe3\\x80\\x81\\xe9\\xab\\x98\\xe7\\xba\\xa7\\xe7\\x89\\xb9\\xe6\\x80\\xa7/EtherStore.sol\":666:694  lastWithdrawTime[msg.sender] */\n      0x00\n        /* \"homework/level-02/05.Solidity \\xe7\\xbc\\x96\\xe7\\xa0\\x81\\xe8\\xa7\\x84\\xe8\\x8c\\x83\\xe3\\x80\\x81\\xe9\\xab\\x98\\xe7\\xba\\xa7\\xe7\\x89\\xb9\\xe6\\x80\\xa7/EtherStore.sol\":683:693  msg.sender */\n      caller\n        /* \"homework/level-02/05.Solidity \\xe7\\xbc\\x96\\xe7\\xa0\\x81\\xe8\\xa7\\x84\\xe8\\x8c\\x83\\xe3\\x80\\x81\\xe9\\xab\\x98\\xe7\\xba\\xa7\\xe7\\x89\\xb9\\xe6\\x80\\xa7/EtherStore.sol\":666:694  lastWithdrawTime[msg.sender] */\n      0xffffffffffffffffffffffffffffffffffffffff\n      and\n      0xffffffffffffffffffffffffffffffffffffffff\n      and\n      dup2\n      mstore\n      0x20\n      add\n      swap1\n      dup2\n      mstore\n      0x20\n      add\n      0x00\n      keccak256\n      sload\n        /* \"homework/level-02/05.Solidity \\xe7\\xbc\\x96\\xe7\\xa0\\x81\\xe8\\xa7\\x84\\xe8\\x8c\\x83\\xe3\\x80\\x81\\xe9\\xab\\x98\\xe7\\xba\\xa7\\xe7\\x89\\xb9\\xe6\\x80\\xa7/EtherStore.sol\":666:704  lastWithdrawTime[msg.sender] + 1 weeks */\n      tag_43\n      swap2\n      swap1\n      tag_44\n      jump\t// in\n    tag_43:\n        /* \"homework/level-02/05.Solidity \\xe7\\xbc\\x96\\xe7\\xa0\\x81\\xe8\\xa7\\x84\\xe8\\x8c\\x83\\xe3\\x80\\x81\\xe9\\xab\\x98\\xe7\\xba\\xa7\\xe7\\x89\\xb9\\xe6\\x80\\xa7/EtherStore.sol\":647:662  block.timestamp */\n      timestamp\n        /* \"homework/level-02/05.Solidity \\xe7\\xbc\\x96\\xe7\\xa0\\x81\\xe8\\xa7\\x84\\xe8\\x8c\\x83\\xe3\\x80\\x81\\xe9\\xab\\x98\\xe7\\xba\\xa7\\xe7\\x89\\xb9\\xe6\\x80\\xa7/EtherStore.sol\":647:704  block.timestamp >= lastWithdrawTime[msg.sender] + 1 weeks */\n      lt\n      iszero\n        /* \"homework/level-02/05.Solidity \\xe7\\xbc\\x96\\xe7\\xa0\\x81\\xe8\\xa7\\x84\\xe8\\x8c\\x83\\xe3\\x80\\x81\\xe9\\xab\\x98\\xe7\\xba\\xa7\\xe7\\x89\\xb9\\xe6\\x80\\xa7/EtherStore.sol\":626:756  require(... */\n      tag_45\n      jumpi\n      mload(0x40)\n      0x08c379a000000000000000000000000000000000000000000000000000000000\n      dup2\n      mstore\n      0x04\n      add\n      tag_46\n      swap1\n      tag_47\n      jump\t// in\n    tag_46:\n      mload(0x40)\n      dup1\n      swap2\n      sub\n      swap1\n      revert\n    tag_45:\n        /* \"homework/level-02/05.Solidity \\xe7\\xbc\\x96\\xe7\\xa0\\x81\\xe8\\xa7\\x84\\xe8\\x8c\\x83\\xe3\\x80\\x81\\xe9\\xab\\x98\\xe7\\xba\\xa7\\xe7\\x89\\xb9\\xe6\\x80\\xa7/EtherStore.sol\":831:843  bool success */\n      0x00\n        /* \"homework/level-02/05.Solidity \\xe7\\xbc\\x96\\xe7\\xa0\\x81\\xe8\\xa7\\x84\\xe8\\x8c\\x83\\xe3\\x80\\x81\\xe9\\xab\\x98\\xe7\\xba\\xa7\\xe7\\x89\\xb9\\xe6\\x80\\xa7/EtherStore.sol\":849:859  msg.sender */\n      caller\n        /* \"homework/level-02/05.Solidity \\xe7\\xbc\\x96\\xe7\\xa0\\x81\\xe8\\xa7\\x84\\xe8\\x8c\\x83\\xe3\\x80\\x81\\xe9\\xab\\x98\\xe7\\xba\\xa7\\xe7\\x89\\xb9\\xe6\\x80\\xa7/EtherStore.sol\":849:864  msg.sender.call */\n      0xffffffffffffffffffffffffffffffffffffffff\n      and\n        /* \"homework/level-02/05.Solidity \\xe7\\xbc\\x96\\xe7\\xa0\\x81\\xe8\\xa7\\x84\\xe8\\x8c\\x83\\xe3\\x80\\x81\\xe9\\xab\\x98\\xe7\\xba\\xa7\\xe7\\x89\\xb9\\xe6\\x80\\xa7/EtherStore.sol\":872:893  address(this).balance */\n      selfbalance\n        /* \"homework/level-02/05.Solidity \\xe7\\xbc\\x96\\xe7\\xa0\\x81\\xe8\\xa7\\x84\\xe8\\x8c\\x83\\xe3\\x80\\x81\\xe9\\xab\\x98\\xe7\\xba\\xa7\\xe7\\x89\\xb9\\xe6\\x80\\xa7/EtherStore.sol\":849:898  msg.sender.call{value: address(this).balance}(\"\") */\n      mload(0x40)\n      tag_48\n      swap1\n      tag_49\n      jump\t// in\n    tag_48:\n      0x00\n      mload(0x40)\n      dup1\n      dup4\n      sub\n      dup2\n      dup6\n      dup8\n      gas\n      call\n      swap3\n      pop\n      pop\n      pop\n      returndatasize\n      dup1\n      0x00\n      dup2\n      eq\n      tag_52\n      jumpi\n      mload(0x40)\n      swap2\n      pop\n      and(add(returndatasize, 0x3f), not(0x1f))\n      dup3\n      add\n      0x40\n      mstore\n      returndatasize\n      dup3\n      mstore\n      returndatasize\n      0x00\n      0x20\n      dup5\n      add\n      returndatacopy\n      jump(tag_51)\n    tag_52:\n      0x60\n      swap2\n      pop\n    tag_51:\n      pop\n        /* \"homework/level-02/05.Solidity \\xe7\\xbc\\x96\\xe7\\xa0\\x81\\xe8\\xa7\\x84\\xe8\\x8c\\x83\\xe3\\x80\\x81\\xe9\\xab\\x98\\xe7\\xba\\xa7\\xe7\\x89\\xb9\\xe6\\x80\\xa7/EtherStore.sol\":830:898  (bool success, ) = msg.sender.call{value: address(this).balance}(\"\") */\n      pop\n      swap1\n      pop\n        /* \"homework/level-02/05.Solidity \\xe7\\xbc\\x96\\xe7\\xa0\\x81\\xe8\\xa7\\x84\\xe8\\x8c\\x83\\xe3\\x80\\x81\\xe9\\xab\\x98\\xe7\\xba\\xa7\\xe7\\x89\\xb9\\xe6\\x80\\xa7/EtherStore.sol\":916:923  success */\n      dup1\n        /* \"homework/level-02/05.Solidity \\xe7\\xbc\\x96\\xe7\\xa0\\x81\\xe8\\xa7\\x84\\xe8\\x8c\\x83\\xe3\\x80\\x81\\xe9\\xab\\x98\\xe7\\xba\\xa7\\xe7\\x89\\xb9\\xe6\\x80\\xa7/EtherStore.sol\":908:943  require(success, \"Transfer failed\") */\n      tag_53\n      jumpi\n      mload(0x40)\n      0x08c379a000000000000000000000000000000000000000000000000000000000\n      dup2\n      mstore\n      0x04\n      add\n      tag_54\n      swap1\n      tag_55\n      jump\t// in\n    tag_54:\n      mload(0x40)\n      dup1\n      swap2\n      sub\n      swap1\n      revert\n    tag_53:\n        /* \"homework/level-02/05.Solidity \\xe7\\xbc\\x96\\xe7\\xa0\\x81\\xe8\\xa7\\x84\\xe8\\x8c\\x83\\xe3\\x80\\x81\\xe9\\xab\\x98\\xe7\\xba\\xa7\\xe7\\x89\\xb9\\xe6\\x80\\xa7/EtherStore.sol\":978:992  _weiToWithdraw */\n      dup2\n        /* \"homework/level-02/05.Solidity \\xe7\\xbc\\x96\\xe7\\xa0\\x81\\xe8\\xa7\\x84\\xe8\\x8c\\x83\\xe3\\x80\\x81\\xe9\\xab\\x98\\xe7\\xba\\xa7\\xe7\\x89\\xb9\\xe6\\x80\\xa7/EtherStore.sol\":954:962  balances */\n      0x02\n        /* \"homework/level-02/05.Solidity \\xe7\\xbc\\x96\\xe7\\xa0\\x81\\xe8\\xa7\\x84\\xe8\\x8c\\x83\\xe3\\x80\\x81\\xe9\\xab\\x98\\xe7\\xba\\xa7\\xe7\\x89\\xb9\\xe6\\x80\\xa7/EtherStore.sol\":954:974  balances[msg.sender] */\n      0x00\n        /* \"homework/level-02/05.Solidity \\xe7\\xbc\\x96\\xe7\\xa0\\x81\\xe8\\xa7\\x84\\xe8\\x8c\\x83\\xe3\\x80\\x81\\xe9\\xab\\x98\\xe7\\xba\\xa7\\xe7\\x89\\xb9\\xe6\\x80\\xa7/EtherStore.sol\":963:973  msg.sender */\n      caller\n        /* \"homework/level-02/05.Solidity \\xe7\\xbc\\x96\\xe7\\xa0\\x81\\xe8\\xa7\\x84\\xe8\\x8c\\x83\\xe3\\x80\\x81\\xe9\\xab\\x98\\xe7\\xba\\xa7\\xe7\\x89\\xb9\\xe6\\x80\\xa7/EtherStore.sol\":954:974  balances[msg.sender] */\n      0xffffffffffffffffffffffffffffffffffffffff\n      and\n      0xffffffffffffffffffffffffffffffffffffffff\n      and\n      dup2\n      mstore\n      0x20\n      add\n      swap1\n      dup2\n      mstore\n      0x20\n      add\n      0x00\n      keccak256\n      0x00\n        /* \"homework/level-02/05.Solidity \\xe7\\xbc\\x96\\xe7\\xa0\\x81\\xe8\\xa7\\x84\\xe8\\x8c\\x83\\xe3\\x80\\x81\\xe9\\xab\\x98\\xe7\\xba\\xa7\\xe7\\x89\\xb9\\xe6\\x80\\xa7/EtherStore.sol\":954:992  balances[msg.sender] -= _weiToWithdraw */\n      dup3\n      dup3\n      sload\n      tag_56\n      swap2\n      swap1\n      tag_57\n      jump\t// in\n    tag_56:\n      swap3\n      pop\n      pop\n      dup2\n      swap1\n      sstore\n      pop\n        /* \"homework/level-02/05.Solidity \\xe7\\xbc\\x96\\xe7\\xa0\\x81\\xe8\\xa7\\x84\\xe8\\x8c\\x83\\xe3\\x80\\x81\\xe9\\xab\\x98\\xe7\\xba\\xa7\\xe7\\x89\\xb9\\xe6\\x80\\xa7/EtherStore.sol\":1033:1048  block.timestamp */\n      timestamp\n        /* \"homework/level-02/05.Solidity \\xe7\\xbc\\x96\\xe7\\xa0\\x81\\xe8\\xa7\\x84\\xe8\\x8c\\x83\\xe3\\x80\\x81\\xe9\\xab\\x98\\xe7\\xba\\xa7\\xe7\\x89\\xb9\\xe6\\x80\\xa7/EtherStore.sol\":1002:1018  lastWithdrawTime */\n      0x01\n        /* \"homework/level-02/05.Solidity \\xe7\\xbc\\x96\\xe7\\xa0\\x81\\xe8\\xa7\\x84\\xe8\\x8c\\x83\\xe3\\x80\\x81\\xe9\\xab\\x98\\xe7\\xba\\xa7\\xe7\\x89\\xb9\\xe6\\x80\\xa7/EtherStore.sol\":1002:1030  lastWithdrawTime[msg.sender] */\n      0x00\n        /* \"homework/level-02/05.Solidity \\xe7\\xbc\\x96\\xe7\\xa0\\x81\\xe8\\xa7\\x84\\xe8\\x8c\\x83\\xe3\\x80\\x81\\xe9\\xab\\x98\\xe7\\xba\\xa7\\xe7\\x89\\xb9\\xe6\\x80\\xa7/EtherStore.sol\":1019:1029  msg.sender */\n      caller\n        /* \"homework/level-02/05.Solidity \\xe7\\xbc\\x96\\xe7\\xa0\\x81\\xe8\\xa7\\x84\\xe8\\x8c\\x83\\xe3\\x80\\x81\\xe9\\xab\\x98\\xe7\\xba\\xa7\\xe7\\x89\\xb9\\xe6\\x80\\xa7/EtherStore.sol\":1002:1030  lastWithdrawTime[msg.sender] */\n      0xffffffffffffffffffffffffffffffffffffffff\n      and\n      0xffffffffffffffffffffffffffffffffffffffff\n      and\n      dup2\n      mstore\n      0x20\n      add\n      swap1\n      dup2\n      mstore\n      0x20\n      add\n      0x00\n      keccak256\n        /* \"homework/level-02/05.Solidity \\xe7\\xbc\\x96\\xe7\\xa0\\x81\\xe8\\xa7\\x84\\xe8\\x8c\\x83\\xe3\\x80\\x81\\xe9\\xab\\x98\\xe7\\xba\\xa7\\xe7\\x89\\xb9\\xe6\\x80\\xa7/EtherStore.sol\":1002:1048  lastWithdrawTime[msg.sender] = block.timestamp */\n      dup2\n      swap1\n      sstore\n      pop\n        /* \"homework/level-02/05.Solidity \\xe7\\xbc\\x96\\xe7\\xa0\\x81\\xe8\\xa7\\x84\\xe8\\x8c\\x83\\xe3\\x80\\x81\\xe9\\xab\\x98\\xe7\\xba\\xa7\\xe7\\x89\\xb9\\xe6\\x80\\xa7/EtherStore.sol\":386:1055  {... */\n      pop\n        /* \"homework/level-02/05.Solidity \\xe7\\xbc\\x96\\xe7\\xa0\\x81\\xe8\\xa7\\x84\\xe8\\x8c\\x83\\xe3\\x80\\x81\\xe9\\xab\\x98\\xe7\\xba\\xa7\\xe7\\x89\\xb9\\xe6\\x80\\xa7/EtherStore.sol\":332:1055  function withdrawFunds(uint256 _weiToWithdraw) public {... */\n      pop\n      jump\t// out\n        /* \"homework/level-02/05.Solidity \\xe7\\xbc\\x96\\xe7\\xa0\\x81\\xe8\\xa7\\x84\\xe8\\x8c\\x83\\xe3\\x80\\x81\\xe9\\xab\\x98\\xe7\\xba\\xa7\\xe7\\x89\\xb9\\xe6\\x80\\xa7/EtherStore.sol\":187:230  mapping(address => uint256) public balances */\n    tag_23:\n      mstore(0x20, 0x02)\n      dup1\n      0x00\n      mstore\n      keccak256(0x00, 0x40)\n      0x00\n      swap2\n      pop\n      swap1\n      pop\n      sload\n      dup2\n      jump\t// out\n        /* \"homework/level-02/05.Solidity \\xe7\\xbc\\x96\\xe7\\xa0\\x81\\xe8\\xa7\\x84\\xe8\\x8c\\x83\\xe3\\x80\\x81\\xe9\\xab\\x98\\xe7\\xba\\xa7\\xe7\\x89\\xb9\\xe6\\x80\\xa7/EtherStore.sol\":1061:1227  function getSelfAndSenderBalance() public view returns(uint256,uint256,uint256){... */\n    tag_27:\n        /* \"homework/level-02/05.Solidity \\xe7\\xbc\\x96\\xe7\\xa0\\x81\\xe8\\xa7\\x84\\xe8\\x8c\\x83\\xe3\\x80\\x81\\xe9\\xab\\x98\\xe7\\xba\\xa7\\xe7\\x89\\xb9\\xe6\\x80\\xa7/EtherStore.sol\":1116:1123  uint256 */\n      0x00\n        /* \"homework/level-02/05.Solidity \\xe7\\xbc\\x96\\xe7\\xa0\\x81\\xe8\\xa7\\x84\\xe8\\x8c\\x83\\xe3\\x80\\x81\\xe9\\xab\\x98\\xe7\\xba\\xa7\\xe7\\x89\\xb9\\xe6\\x80\\xa7/EtherStore.sol\":1124:1131  uint256 */\n      dup1\n        /* \"homework/level-02/05.Solidity \\xe7\\xbc\\x96\\xe7\\xa0\\x81\\xe8\\xa7\\x84\\xe8\\x8c\\x83\\xe3\\x80\\x81\\xe9\\xab\\x98\\xe7\\xba\\xa7\\xe7\\x89\\xb9\\xe6\\x80\\xa7/EtherStore.sol\":1132:1139  uint256 */\n      0x00\n        /* \"homework/level-02/05.Solidity \\xe7\\xbc\\x96\\xe7\\xa0\\x81\\xe8\\xa7\\x84\\xe8\\x8c\\x83\\xe3\\x80\\x81\\xe9\\xab\\x98\\xe7\\xba\\xa7\\xe7\\x89\\xb9\\xe6\\x80\\xa7/EtherStore.sol\":1158:1179  address(this).balance */\n      selfbalance\n        /* \"homework/level-02/05.Solidity \\xe7\\xbc\\x96\\xe7\\xa0\\x81\\xe8\\xa7\\x84\\xe8\\x8c\\x83\\xe3\\x80\\x81\\xe9\\xab\\x98\\xe7\\xba\\xa7\\xe7\\x89\\xb9\\xe6\\x80\\xa7/EtherStore.sol\":1180:1188  balances */\n      0x02\n        /* \"homework/level-02/05.Solidity \\xe7\\xbc\\x96\\xe7\\xa0\\x81\\xe8\\xa7\\x84\\xe8\\x8c\\x83\\xe3\\x80\\x81\\xe9\\xab\\x98\\xe7\\xba\\xa7\\xe7\\x89\\xb9\\xe6\\x80\\xa7/EtherStore.sol\":1180:1200  balances[msg.sender] */\n      0x00\n        /* \"homework/level-02/05.Solidity \\xe7\\xbc\\x96\\xe7\\xa0\\x81\\xe8\\xa7\\x84\\xe8\\x8c\\x83\\xe3\\x80\\x81\\xe9\\xab\\x98\\xe7\\xba\\xa7\\xe7\\x89\\xb9\\xe6\\x80\\xa7/EtherStore.sol\":1189:1199  msg.sender */\n      caller\n        /* \"homework/level-02/05.Solidity \\xe7\\xbc\\x96\\xe7\\xa0\\x81\\xe8\\xa7\\x84\\xe8\\x8c\\x83\\xe3\\x80\\x81\\xe9\\xab\\x98\\xe7\\xba\\xa7\\xe7\\x89\\xb9\\xe6\\x80\\xa7/EtherStore.sol\":1180:1200  balances[msg.sender] */\n      0xffffffffffffffffffffffffffffffffffffffff\n      and\n      0xffffffffffffffffffffffffffffffffffffffff\n      and\n      dup2\n      mstore\n      0x20\n      add\n      swap1\n      dup2\n      mstore\n      0x20\n      add\n      0x00\n      keccak256\n      sload\n        /* \"homework/level-02/05.Solidity \\xe7\\xbc\\x96\\xe7\\xa0\\x81\\xe8\\xa7\\x84\\xe8\\x8c\\x83\\xe3\\x80\\x81\\xe9\\xab\\x98\\xe7\\xba\\xa7\\xe7\\x89\\xb9\\xe6\\x80\\xa7/EtherStore.sol\":1201:1211  msg.sender */\n      caller\n        /* \"homework/level-02/05.Solidity \\xe7\\xbc\\x96\\xe7\\xa0\\x81\\xe8\\xa7\\x84\\xe8\\x8c\\x83\\xe3\\x80\\x81\\xe9\\xab\\x98\\xe7\\xba\\xa7\\xe7\\x89\\xb9\\xe6\\x80\\xa7/EtherStore.sol\":1201:1219  msg.sender.balance */\n      0xffffffffffffffffffffffffffffffffffffffff\n      and\n      balance\n        /* \"homework/level-02/05.Solidity \\xe7\\xbc\\x96\\xe7\\xa0\\x81\\xe8\\xa7\\x84\\xe8\\x8c\\x83\\xe3\\x80\\x81\\xe9\\xab\\x98\\xe7\\xba\\xa7\\xe7\\x89\\xb9\\xe6\\x80\\xa7/EtherStore.sol\":1150:1220  return (address(this).balance,balances[msg.sender],msg.sender.balance) */\n      swap3\n      pop\n      swap3\n      pop\n      swap3\n      pop\n        /* \"homework/level-02/05.Solidity \\xe7\\xbc\\x96\\xe7\\xa0\\x81\\xe8\\xa7\\x84\\xe8\\x8c\\x83\\xe3\\x80\\x81\\xe9\\xab\\x98\\xe7\\xba\\xa7\\xe7\\x89\\xb9\\xe6\\x80\\xa7/EtherStore.sol\":1061:1227  function getSelfAndSenderBalance() public view returns(uint256,uint256,uint256){... */\n      swap1\n      swap2\n      swap3\n      jump\t// out\n        /* \"homework/level-02/05.Solidity \\xe7\\xbc\\x96\\xe7\\xa0\\x81\\xe8\\xa7\\x84\\xe8\\x8c\\x83\\xe3\\x80\\x81\\xe9\\xab\\x98\\xe7\\xba\\xa7\\xe7\\x89\\xb9\\xe6\\x80\\xa7/EtherStore.sol\":84:124  uint256 public withdrawalLimit = 1 ether */\n    tag_32:\n      sload(0x00)\n      dup2\n      jump\t// out\n        /* \"homework/level-02/05.Solidity \\xe7\\xbc\\x96\\xe7\\xa0\\x81\\xe8\\xa7\\x84\\xe8\\x8c\\x83\\xe3\\x80\\x81\\xe9\\xab\\x98\\xe7\\xba\\xa7\\xe7\\x89\\xb9\\xe6\\x80\\xa7/EtherStore.sol\":237:326  function depositFunds() public payable {... */\n    tag_35:\n        /* \"homework/level-02/05.Solidity \\xe7\\xbc\\x96\\xe7\\xa0\\x81\\xe8\\xa7\\x84\\xe8\\x8c\\x83\\xe3\\x80\\x81\\xe9\\xab\\x98\\xe7\\xba\\xa7\\xe7\\x89\\xb9\\xe6\\x80\\xa7/EtherStore.sol\":310:319  msg.value */\n      callvalue\n        /* \"homework/level-02/05.Solidity \\xe7\\xbc\\x96\\xe7\\xa0\\x81\\xe8\\xa7\\x84\\xe8\\x8c\\x83\\xe3\\x80\\x81\\xe9\\xab\\x98\\xe7\\xba\\xa7\\xe7\\x89\\xb9\\xe6\\x80\\xa7/EtherStore.sol\":286:294  balances */\n      0x02\n        /* \"homework/level-02/05.Solidity \\xe7\\xbc\\x96\\xe7\\xa0\\x81\\xe8\\xa7\\x84\\xe8\\x8c\\x83\\xe3\\x80\\x81\\xe9\\xab\\x98\\xe7\\xba\\xa7\\xe7\\x89\\xb9\\xe6\\x80\\xa7/EtherStore.sol\":286:306  balances[msg.sender] */\n      0x00\n        /* \"homework/level-02/05.Solidity \\xe7\\xbc\\x96\\xe7\\xa0\\x81\\xe8\\xa7\\x84\\xe8\\x8c\\x83\\xe3\\x80\\x81\\xe9\\xab\\x98\\xe7\\xba\\xa7\\xe7\\x89\\xb9\\xe6\\x80\\xa7/EtherStore.sol\":295:305  msg.sender */\n      caller\n        /* \"homework/level-02/05.Solidity \\xe7\\xbc\\x96\\xe7\\xa0\\x81\\xe8\\xa7\\x84\\xe8\\x8c\\x83\\xe3\\x80\\x81\\xe9\\xab\\x98\\xe7\\xba\\xa7\\xe7\\x89\\xb9\\xe6\\x80\\xa7/EtherStore.sol\":286:306  balances[msg.sender] */\n      0xffffffffffffffffffffffffffffffffffffffff\n      and\n      0xffffffffffffffffffffffffffffffffffffffff\n      and\n      dup2\n      mstore\n      0x20\n      add\n      swap1\n      dup2\n      mstore\n      0x20\n      add\n      0x00\n      keccak256\n      0x00\n        /* \"homework/level-02/05.Solidity \\xe7\\xbc\\x96\\xe7\\xa0\\x81\\xe8\\xa7\\x84\\xe8\\x8c\\x83\\xe3\\x80\\x81\\xe9\\xab\\x98\\xe7\\xba\\xa7\\xe7\\x89\\xb9\\xe6\\x80\\xa7/EtherStore.sol\":286:319  balances[msg.sender] += msg.value */\n      dup3\n      dup3\n      sload\n      tag_60\n      swap2\n      swap1\n      tag_44\n      jump\t// in\n    tag_60:\n      swap3\n      pop\n      pop\n      dup2\n      swap1\n      sstore\n      pop\n        /* \"homework/level-02/05.Solidity \\xe7\\xbc\\x96\\xe7\\xa0\\x81\\xe8\\xa7\\x84\\xe8\\x8c\\x83\\xe3\\x80\\x81\\xe9\\xab\\x98\\xe7\\xba\\xa7\\xe7\\x89\\xb9\\xe6\\x80\\xa7/EtherStore.sol\":237:326  function depositFunds() public payable {... */\n      jump\t// out\n        /* \"#utility.yul\":88:205   */\n    tag_62:\n        /* \"#utility.yul\":197:198   */\n      0x00\n        /* \"#utility.yul\":194:195   */\n      dup1\n        /* \"#utility.yul\":187:199   */\n      revert\n        /* \"#utility.yul\":334:460   */\n    tag_64:\n        /* \"#utility.yul\":371:378   */\n      0x00\n        /* \"#utility.yul\":411:453   */\n      0xffffffffffffffffffffffffffffffffffffffff\n        /* \"#utility.yul\":404:409   */\n      dup3\n        /* \"#utility.yul\":400:454   */\n      and\n        /* \"#utility.yul\":389:454   */\n      swap1\n      pop\n        /* \"#utility.yul\":334:460   */\n      swap2\n      swap1\n      pop\n      jump\t// out\n        /* \"#utility.yul\":466:562   */\n    tag_65:\n        /* \"#utility.yul\":503:510   */\n      0x00\n        /* \"#utility.yul\":532:556   */\n      tag_91\n        /* \"#utility.yul\":550:555   */\n      dup3\n        /* \"#utility.yul\":532:556   */\n      tag_64\n      jump\t// in\n    tag_91:\n        /* \"#utility.yul\":521:556   */\n      swap1\n      pop\n        /* \"#utility.yul\":466:562   */\n      swap2\n      swap1\n      pop\n      jump\t// out\n        /* \"#utility.yul\":568:690   */\n    tag_66:\n        /* \"#utility.yul\":641:665   */\n      tag_93\n        /* \"#utility.yul\":659:664   */\n      dup2\n        /* \"#utility.yul\":641:665   */\n      tag_65\n      jump\t// in\n    tag_93:\n        /* \"#utility.yul\":634:639   */\n      dup2\n        /* \"#utility.yul\":631:666   */\n      eq\n        /* \"#utility.yul\":621:684   */\n      tag_94\n      jumpi\n        /* \"#utility.yul\":680:681   */\n      0x00\n        /* \"#utility.yul\":677:678   */\n      dup1\n        /* \"#utility.yul\":670:682   */\n      revert\n        /* \"#utility.yul\":621:684   */\n    tag_94:\n        /* \"#utility.yul\":568:690   */\n      pop\n      jump\t// out\n        /* \"#utility.yul\":696:835   */\n    tag_67:\n        /* \"#utility.yul\":742:747   */\n      0x00\n        /* \"#utility.yul\":780:786   */\n      dup2\n        /* \"#utility.yul\":767:787   */\n      calldataload\n        /* \"#utility.yul\":758:787   */\n      swap1\n      pop\n        /* \"#utility.yul\":796:829   */\n      tag_96\n        /* \"#utility.yul\":823:828   */\n      dup2\n        /* \"#utility.yul\":796:829   */\n      tag_66\n      jump\t// in\n    tag_96:\n        /* \"#utility.yul\":696:835   */\n      swap3\n      swap2\n      pop\n      pop\n      jump\t// out\n        /* \"#utility.yul\":841:1170   */\n    tag_11:\n        /* \"#utility.yul\":900:906   */\n      0x00\n        /* \"#utility.yul\":949:951   */\n      0x20\n        /* \"#utility.yul\":937:946   */\n      dup3\n        /* \"#utility.yul\":928:935   */\n      dup5\n        /* \"#utility.yul\":924:947   */\n      sub\n        /* \"#utility.yul\":920:952   */\n      slt\n        /* \"#utility.yul\":917:1036   */\n      iszero\n      tag_98\n      jumpi\n        /* \"#utility.yul\":955:1034   */\n      tag_99\n      tag_62\n      jump\t// in\n    tag_99:\n        /* \"#utility.yul\":917:1036   */\n    tag_98:\n        /* \"#utility.yul\":1075:1076   */\n      0x00\n        /* \"#utility.yul\":1100:1153   */\n      tag_100\n        /* \"#utility.yul\":1145:1152   */\n      dup5\n        /* \"#utility.yul\":1136:1142   */\n      dup3\n        /* \"#utility.yul\":1125:1134   */\n      dup6\n        /* \"#utility.yul\":1121:1143   */\n      add\n        /* \"#utility.yul\":1100:1153   */\n      tag_67\n      jump\t// in\n    tag_100:\n        /* \"#utility.yul\":1090:1153   */\n      swap2\n      pop\n        /* \"#utility.yul\":1046:1163   */\n      pop\n        /* \"#utility.yul\":841:1170   */\n      swap3\n      swap2\n      pop\n      pop\n      jump\t// out\n        /* \"#utility.yul\":1176:1253   */\n    tag_68:\n        /* \"#utility.yul\":1213:1220   */\n      0x00\n        /* \"#utility.yul\":1242:1247   */\n      dup2\n        /* \"#utility.yul\":1231:1247   */\n      swap1\n      pop\n        /* \"#utility.yul\":1176:1253   */\n      swap2\n      swap1\n      pop\n      jump\t// out\n        /* \"#utility.yul\":1259:1377   */\n    tag_69:\n        /* \"#utility.yul\":1346:1370   */\n      tag_103\n        /* \"#utility.yul\":1364:1369   */\n      dup2\n        /* \"#utility.yul\":1346:1370   */\n      tag_68\n      jump\t// in\n    tag_103:\n        /* \"#utility.yul\":1341:1344   */\n      dup3\n        /* \"#utility.yul\":1334:1371   */\n      mstore\n        /* \"#utility.yul\":1259:1377   */\n      pop\n      pop\n      jump\t// out\n        /* \"#utility.yul\":1383:1605   */\n    tag_14:\n        /* \"#utility.yul\":1476:1480   */\n      0x00\n        /* \"#utility.yul\":1514:1516   */\n      0x20\n        /* \"#utility.yul\":1503:1512   */\n      dup3\n        /* \"#utility.yul\":1499:1517   */\n      add\n        /* \"#utility.yul\":1491:1517   */\n      swap1\n      pop\n        /* \"#utility.yul\":1527:1598   */\n      tag_105\n        /* \"#utility.yul\":1595:1596   */\n      0x00\n        /* \"#utility.yul\":1584:1593   */\n      dup4\n        /* \"#utility.yul\":1580:1597   */\n      add\n        /* \"#utility.yul\":1571:1577   */\n      dup5\n        /* \"#utility.yul\":1527:1598   */\n      tag_69\n      jump\t// in\n    tag_105:\n        /* \"#utility.yul\":1383:1605   */\n      swap3\n      swap2\n      pop\n      pop\n      jump\t// out\n        /* \"#utility.yul\":1611:1733   */\n    tag_70:\n        /* \"#utility.yul\":1684:1708   */\n      tag_107\n        /* \"#utility.yul\":1702:1707   */\n      dup2\n        /* \"#utility.yul\":1684:1708   */\n      tag_68\n      jump\t// in\n    tag_107:\n        /* \"#utility.yul\":1677:1682   */\n      dup2\n        /* \"#utility.yul\":1674:1709   */\n      eq\n        /* \"#utility.yul\":1664:1727   */\n      tag_108\n      jumpi\n        /* \"#utility.yul\":1723:1724   */\n      0x00\n        /* \"#utility.yul\":1720:1721   */\n      dup1\n        /* \"#utility.yul\":1713:1725   */\n      revert\n        /* \"#utility.yul\":1664:1727   */\n    tag_108:\n        /* \"#utility.yul\":1611:1733   */\n      pop\n      jump\t// out\n        /* \"#utility.yul\":1739:1878   */\n    tag_71:\n        /* \"#utility.yul\":1785:1790   */\n      0x00\n        /* \"#utility.yul\":1823:1829   */\n      dup2\n        /* \"#utility.yul\":1810:1830   */\n      calldataload\n        /* \"#utility.yul\":1801:1830   */\n      swap1\n      pop\n        /* \"#utility.yul\":1839:1872   */\n      tag_110\n        /* \"#utility.yul\":1866:1871   */\n      dup2\n        /* \"#utility.yul\":1839:1872   */\n      tag_70\n      jump\t// in\n    tag_110:\n        /* \"#utility.yul\":1739:1878   */\n      swap3\n      swap2\n      pop\n      pop\n      jump\t// out\n        /* \"#utility.yul\":1884:2213   */\n    tag_18:\n        /* \"#utility.yul\":1943:1949   */\n      0x00\n        /* \"#utility.yul\":1992:1994   */\n      0x20\n        /* \"#utility.yul\":1980:1989   */\n      dup3\n        /* \"#utility.yul\":1971:1978   */\n      dup5\n        /* \"#utility.yul\":1967:1990   */\n      sub\n        /* \"#utility.yul\":1963:1995   */\n      slt\n        /* \"#utility.yul\":1960:2079   */\n      iszero\n      tag_112\n      jumpi\n        /* \"#utility.yul\":1998:2077   */\n      tag_113\n      tag_62\n      jump\t// in\n    tag_113:\n        /* \"#utility.yul\":1960:2079   */\n    tag_112:\n        /* \"#utility.yul\":2118:2119   */\n      0x00\n        /* \"#utility.yul\":2143:2196   */\n      tag_114\n        /* \"#utility.yul\":2188:2195   */\n      dup5\n        /* \"#utility.yul\":2179:2185   */\n      dup3\n        /* \"#utility.yul\":2168:2177   */\n      dup6\n        /* \"#utility.yul\":2164:2186   */\n      add\n        /* \"#utility.yul\":2143:2196   */\n      tag_71\n      jump\t// in\n    tag_114:\n        /* \"#utility.yul\":2133:2196   */\n      swap2\n      pop\n        /* \"#utility.yul\":2089:2206   */\n      pop\n        /* \"#utility.yul\":1884:2213   */\n      swap3\n      swap2\n      pop\n      pop\n      jump\t// out\n        /* \"#utility.yul\":2219:2661   */\n    tag_29:\n        /* \"#utility.yul\":2368:2372   */\n      0x00\n        /* \"#utility.yul\":2406:2408   */\n      0x60\n        /* \"#utility.yul\":2395:2404   */\n      dup3\n        /* \"#utility.yul\":2391:2409   */\n      add\n        /* \"#utility.yul\":2383:2409   */\n      swap1\n      pop\n        /* \"#utility.yul\":2419:2490   */\n      tag_116\n        /* \"#utility.yul\":2487:2488   */\n      0x00\n        /* \"#utility.yul\":2476:2485   */\n      dup4\n        /* \"#utility.yul\":2472:2489   */\n      add\n        /* \"#utility.yul\":2463:2469   */\n      dup7\n        /* \"#utility.yul\":2419:2490   */\n      tag_69\n      jump\t// in\n    tag_116:\n        /* \"#utility.yul\":2500:2572   */\n      tag_117\n        /* \"#utility.yul\":2568:2570   */\n      0x20\n        /* \"#utility.yul\":2557:2566   */\n      dup4\n        /* \"#utility.yul\":2553:2571   */\n      add\n        /* \"#utility.yul\":2544:2550   */\n      dup6\n        /* \"#utility.yul\":2500:2572   */\n      tag_69\n      jump\t// in\n    tag_117:\n        /* \"#utility.yul\":2582:2654   */\n      tag_118\n        /* \"#utility.yul\":2650:2652   */\n      0x40\n        /* \"#utility.yul\":2639:2648   */\n      dup4\n        /* \"#utility.yul\":2635:2653   */\n      add\n        /* \"#utility.yul\":2626:2632   */\n      dup5\n        /* \"#utility.yul\":2582:2654   */\n      tag_69\n      jump\t// in\n    tag_118:\n        /* \"#utility.yul\":2219:2661   */\n      swap5\n      swap4\n      pop\n      pop\n      pop\n      pop\n      jump\t// out\n        /* \"#utility.yul\":2667:2836   */\n    tag_72:\n        /* \"#utility.yul\":2751:2762   */\n      0x00\n        /* \"#utility.yul\":2785:2791   */\n      dup3\n        /* \"#utility.yul\":2780:2783   */\n      dup3\n        /* \"#utility.yul\":2773:2792   */\n      mstore\n        /* \"#utility.yul\":2825:2829   */\n      0x20\n        /* \"#utility.yul\":2820:2823   */\n      dup3\n        /* \"#utility.yul\":2816:2830   */\n      add\n        /* \"#utility.yul\":2801:2830   */\n      swap1\n      pop\n        /* \"#utility.yul\":2667:2836   */\n      swap3\n      swap2\n      pop\n      pop\n      jump\t// out\n        /* \"#utility.yul\":2842:3012   */\n    tag_73:\n        /* \"#utility.yul\":2982:3004   */\n      0x496e73756666696369656e742062616c616e6365000000000000000000000000\n        /* \"#utility.yul\":2978:2979   */\n      0x00\n        /* \"#utility.yul\":2970:2976   */\n      dup3\n        /* \"#utility.yul\":2966:2980   */\n      add\n        /* \"#utility.yul\":2959:3005   */\n      mstore\n        /* \"#utility.yul\":2842:3012   */\n      pop\n      jump\t// out\n        /* \"#utility.yul\":3018:3384   */\n    tag_74:\n        /* \"#utility.yul\":3160:3163   */\n      0x00\n        /* \"#utility.yul\":3181:3248   */\n      tag_122\n        /* \"#utility.yul\":3245:3247   */\n      0x14\n        /* \"#utility.yul\":3240:3243   */\n      dup4\n        /* \"#utility.yul\":3181:3248   */\n      tag_72\n      jump\t// in\n    tag_122:\n        /* \"#utility.yul\":3174:3248   */\n      swap2\n      pop\n        /* \"#utility.yul\":3257:3350   */\n      tag_123\n        /* \"#utility.yul\":3346:3349   */\n      dup3\n        /* \"#utility.yul\":3257:3350   */\n      tag_73\n      jump\t// in\n    tag_123:\n        /* \"#utility.yul\":3375:3377   */\n      0x20\n        /* \"#utility.yul\":3370:3373   */\n      dup3\n        /* \"#utility.yul\":3366:3378   */\n      add\n        /* \"#utility.yul\":3359:3378   */\n      swap1\n      pop\n        /* \"#utility.yul\":3018:3384   */\n      swap2\n      swap1\n      pop\n      jump\t// out\n        /* \"#utility.yul\":3390:3809   */\n    tag_39:\n        /* \"#utility.yul\":3556:3560   */\n      0x00\n        /* \"#utility.yul\":3594:3596   */\n      0x20\n        /* \"#utility.yul\":3583:3592   */\n      dup3\n        /* \"#utility.yul\":3579:3597   */\n      add\n        /* \"#utility.yul\":3571:3597   */\n      swap1\n      pop\n        /* \"#utility.yul\":3643:3652   */\n      dup2\n        /* \"#utility.yul\":3637:3641   */\n      dup2\n        /* \"#utility.yul\":3633:3653   */\n      sub\n        /* \"#utility.yul\":3629:3630   */\n      0x00\n        /* \"#utility.yul\":3618:3627   */\n      dup4\n        /* \"#utility.yul\":3614:3631   */\n      add\n        /* \"#utility.yul\":3607:3654   */\n      mstore\n        /* \"#utility.yul\":3671:3802   */\n      tag_125\n        /* \"#utility.yul\":3797:3801   */\n      dup2\n        /* \"#utility.yul\":3671:3802   */\n      tag_74\n      jump\t// in\n    tag_125:\n        /* \"#utility.yul\":3663:3802   */\n      swap1\n      pop\n        /* \"#utility.yul\":3390:3809   */\n      swap2\n      swap1\n      pop\n      jump\t// out\n        /* \"#utility.yul\":3815:3989   */\n    tag_75:\n        /* \"#utility.yul\":3955:3981   */\n      0x45786365656473207769746864726177616c206c696d69740000000000000000\n        /* \"#utility.yul\":3951:3952   */\n      0x00\n        /* \"#utility.yul\":3943:3949   */\n      dup3\n        /* \"#utility.yul\":3939:3953   */\n      add\n        /* \"#utility.yul\":3932:3982   */\n      mstore\n        /* \"#utility.yul\":3815:3989   */\n      pop\n      jump\t// out\n        /* \"#utility.yul\":3995:4361   */\n    tag_76:\n        /* \"#utility.yul\":4137:4140   */\n      0x00\n        /* \"#utility.yul\":4158:4225   */\n      tag_128\n        /* \"#utility.yul\":4222:4224   */\n      0x18\n        /* \"#utility.yul\":4217:4220   */\n      dup4\n        /* \"#utility.yul\":4158:4225   */\n      tag_72\n      jump\t// in\n    tag_128:\n        /* \"#utility.yul\":4151:4225   */\n      swap2\n      pop\n        /* \"#utility.yul\":4234:4327   */\n      tag_129\n        /* \"#utility.yul\":4323:4326   */\n      dup3\n        /* \"#utility.yul\":4234:4327   */\n      tag_75\n      jump\t// in\n    tag_129:\n        /* \"#utility.yul\":4352:4354   */\n      0x20\n        /* \"#utility.yul\":4347:4350   */\n      dup3\n        /* \"#utility.yul\":4343:4355   */\n      add\n        /* \"#utility.yul\":4336:4355   */\n      swap1\n      pop\n        /* \"#utility.yul\":3995:4361   */\n      swap2\n      swap1\n      pop\n      jump\t// out\n        /* \"#utility.yul\":4367:4786   */\n    tag_42:\n        /* \"#utility.yul\":4533:4537   */\n      0x00\n        /* \"#utility.yul\":4571:4573   */\n      0x20\n        /* \"#utility.yul\":4560:4569   */\n      dup3\n        /* \"#utility.yul\":4556:4574   */\n      add\n        /* \"#utility.yul\":4548:4574   */\n      swap1\n      pop\n        /* \"#utility.yul\":4620:4629   */\n      dup2\n        /* \"#utility.yul\":4614:4618   */\n      dup2\n        /* \"#utility.yul\":4610:4630   */\n      sub\n        /* \"#utility.yul\":4606:4607   */\n      0x00\n        /* \"#utility.yul\":4595:4604   */\n      dup4\n        /* \"#utility.yul\":4591:4608   */\n      add\n        /* \"#utility.yul\":4584:4631   */\n      mstore\n        /* \"#utility.yul\":4648:4779   */\n      tag_131\n        /* \"#utility.yul\":4774:4778   */\n      dup2\n        /* \"#utility.yul\":4648:4779   */\n      tag_76\n      jump\t// in\n    tag_131:\n        /* \"#utility.yul\":4640:4779   */\n      swap1\n      pop\n        /* \"#utility.yul\":4367:4786   */\n      swap2\n      swap1\n      pop\n      jump\t// out\n        /* \"#utility.yul\":4792:4972   */\n    tag_77:\n        /* \"#utility.yul\":4840:4917   */\n      0x4e487b7100000000000000000000000000000000000000000000000000000000\n        /* \"#utility.yul\":4837:4838   */\n      0x00\n        /* \"#utility.yul\":4830:4918   */\n      mstore\n        /* \"#utility.yul\":4937:4941   */\n      0x11\n        /* \"#utility.yul\":4934:4935   */\n      0x04\n        /* \"#utility.yul\":4927:4942   */\n      mstore\n        /* \"#utility.yul\":4961:4965   */\n      0x24\n        /* \"#utility.yul\":4958:4959   */\n      0x00\n        /* \"#utility.yul\":4951:4966   */\n      revert\n        /* \"#utility.yul\":4978:5169   */\n    tag_44:\n        /* \"#utility.yul\":5018:5021   */\n      0x00\n        /* \"#utility.yul\":5037:5057   */\n      tag_134\n        /* \"#utility.yul\":5055:5056   */\n      dup3\n        /* \"#utility.yul\":5037:5057   */\n      tag_68\n      jump\t// in\n    tag_134:\n        /* \"#utility.yul\":5032:5057   */\n      swap2\n      pop\n        /* \"#utility.yul\":5071:5091   */\n      tag_135\n        /* \"#utility.yul\":5089:5090   */\n      dup4\n        /* \"#utility.yul\":5071:5091   */\n      tag_68\n      jump\t// in\n    tag_135:\n        /* \"#utility.yul\":5066:5091   */\n      swap3\n      pop\n        /* \"#utility.yul\":5114:5115   */\n      dup3\n        /* \"#utility.yul\":5111:5112   */\n      dup3\n        /* \"#utility.yul\":5107:5116   */\n      add\n        /* \"#utility.yul\":5100:5116   */\n      swap1\n      pop\n        /* \"#utility.yul\":5135:5138   */\n      dup1\n        /* \"#utility.yul\":5132:5133   */\n      dup3\n        /* \"#utility.yul\":5129:5139   */\n      gt\n        /* \"#utility.yul\":5126:5162   */\n      iszero\n      tag_136\n      jumpi\n        /* \"#utility.yul\":5142:5160   */\n      tag_137\n      tag_77\n      jump\t// in\n    tag_137:\n        /* \"#utility.yul\":5126:5162   */\n    tag_136:\n        /* \"#utility.yul\":4978:5169   */\n      swap3\n      swap2\n      pop\n      pop\n      jump\t// out\n        /* \"#utility.yul\":5175:5351   */\n    tag_78:\n        /* \"#utility.yul\":5315:5343   */\n      0x5769746864726177616c206e6f7420616c6c6f77656420796574000000000000\n        /* \"#utility.yul\":5311:5312   */\n      0x00\n        /* \"#utility.yul\":5303:5309   */\n      dup3\n        /* \"#utility.yul\":5299:5313   */\n      add\n        /* \"#utility.yul\":5292:5344   */\n      mstore\n        /* \"#utility.yul\":5175:5351   */\n      pop\n      jump\t// out\n        /* \"#utility.yul\":5357:5723   */\n    tag_79:\n        /* \"#utility.yul\":5499:5502   */\n      0x00\n        /* \"#utility.yul\":5520:5587   */\n      tag_140\n        /* \"#utility.yul\":5584:5586   */\n      0x1a\n        /* \"#utility.yul\":5579:5582   */\n      dup4\n        /* \"#utility.yul\":5520:5587   */\n      tag_72\n      jump\t// in\n    tag_140:\n        /* \"#utility.yul\":5513:5587   */\n      swap2\n      pop\n        /* \"#utility.yul\":5596:5689   */\n      tag_141\n        /* \"#utility.yul\":5685:5688   */\n      dup3\n        /* \"#utility.yul\":5596:5689   */\n      tag_78\n      jump\t// in\n    tag_141:\n        /* \"#utility.yul\":5714:5716   */\n      0x20\n        /* \"#utility.yul\":5709:5712   */\n      dup3\n        /* \"#utility.yul\":5705:5717   */\n      add\n        /* \"#utility.yul\":5698:5717   */\n      swap1\n      pop\n        /* \"#utility.yul\":5357:5723   */\n      swap2\n      swap1\n      pop\n      jump\t// out\n        /* \"#utility.yul\":5729:6148   */\n    tag_47:\n        /* \"#utility.yul\":5895:5899   */\n      0x00\n        /* \"#utility.yul\":5933:5935   */\n      0x20\n        /* \"#utility.yul\":5922:5931   */\n      dup3\n        /* \"#utility.yul\":5918:5936   */\n      add\n        /* \"#utility.yul\":5910:5936   */\n      swap1\n      pop\n        /* \"#utility.yul\":5982:5991   */\n      dup2\n        /* \"#utility.yul\":5976:5980   */\n      dup2\n        /* \"#utility.yul\":5972:5992   */\n      sub\n        /* \"#utility.yul\":5968:5969   */\n      0x00\n        /* \"#utility.yul\":5957:5966   */\n      dup4\n        /* \"#utility.yul\":5953:5970   */\n      add\n        /* \"#utility.yul\":5946:5993   */\n      mstore\n        /* \"#utility.yul\":6010:6141   */\n      tag_143\n        /* \"#utility.yul\":6136:6140   */\n      dup2\n        /* \"#utility.yul\":6010:6141   */\n      tag_79\n      jump\t// in\n    tag_143:\n        /* \"#utility.yul\":6002:6141   */\n      swap1\n      pop\n        /* \"#utility.yul\":5729:6148   */\n      swap2\n      swap1\n      pop\n      jump\t// out\n        /* \"#utility.yul\":6154:6301   */\n    tag_80:\n        /* \"#utility.yul\":6255:6266   */\n      0x00\n        /* \"#utility.yul\":6292:6295   */\n      dup2\n        /* \"#utility.yul\":6277:6295   */\n      swap1\n      pop\n        /* \"#utility.yul\":6154:6301   */\n      swap3\n      swap2\n      pop\n      pop\n      jump\t// out\n        /* \"#utility.yul\":6307:6421   */\n    tag_81:\n      pop\n      jump\t// out\n        /* \"#utility.yul\":6427:6825   */\n    tag_82:\n        /* \"#utility.yul\":6586:6589   */\n      0x00\n        /* \"#utility.yul\":6607:6690   */\n      tag_147\n        /* \"#utility.yul\":6688:6689   */\n      0x00\n        /* \"#utility.yul\":6683:6686   */\n      dup4\n        /* \"#utility.yul\":6607:6690   */\n      tag_80\n      jump\t// in\n    tag_147:\n        /* \"#utility.yul\":6600:6690   */\n      swap2\n      pop\n        /* \"#utility.yul\":6699:6792   */\n      tag_148\n        /* \"#utility.yul\":6788:6791   */\n      dup3\n        /* \"#utility.yul\":6699:6792   */\n      tag_81\n      jump\t// in\n    tag_148:\n        /* \"#utility.yul\":6817:6818   */\n      0x00\n        /* \"#utility.yul\":6812:6815   */\n      dup3\n        /* \"#utility.yul\":6808:6819   */\n      add\n        /* \"#utility.yul\":6801:6819   */\n      swap1\n      pop\n        /* \"#utility.yul\":6427:6825   */\n      swap2\n      swap1\n      pop\n      jump\t// out\n        /* \"#utility.yul\":6831:7210   */\n    tag_49:\n        /* \"#utility.yul\":7015:7018   */\n      0x00\n        /* \"#utility.yul\":7037:7184   */\n      tag_150\n        /* \"#utility.yul\":7180:7183   */\n      dup3\n        /* \"#utility.yul\":7037:7184   */\n      tag_82\n      jump\t// in\n    tag_150:\n        /* \"#utility.yul\":7030:7184   */\n      swap2\n      pop\n        /* \"#utility.yul\":7201:7204   */\n      dup2\n        /* \"#utility.yul\":7194:7204   */\n      swap1\n      pop\n        /* \"#utility.yul\":6831:7210   */\n      swap2\n      swap1\n      pop\n      jump\t// out\n        /* \"#utility.yul\":7216:7381   */\n    tag_83:\n        /* \"#utility.yul\":7356:7373   */\n      0x5472616e73666572206661696c65640000000000000000000000000000000000\n        /* \"#utility.yul\":7352:7353   */\n      0x00\n        /* \"#utility.yul\":7344:7350   */\n      dup3\n        /* \"#utility.yul\":7340:7354   */\n      add\n        /* \"#utility.yul\":7333:7374   */\n      mstore\n        /* \"#utility.yul\":7216:7381   */\n      pop\n      jump\t// out\n        /* \"#utility.yul\":7387:7753   */\n    tag_84:\n        /* \"#utility.yul\":7529:7532   */\n      0x00\n        /* \"#utility.yul\":7550:7617   */\n      tag_153\n        /* \"#utility.yul\":7614:7616   */\n      0x0f\n        /* \"#utility.yul\":7609:7612   */\n      dup4\n        /* \"#utility.yul\":7550:7617   */\n      tag_72\n      jump\t// in\n    tag_153:\n        /* \"#utility.yul\":7543:7617   */\n      swap2\n      pop\n        /* \"#utility.yul\":7626:7719   */\n      tag_154\n        /* \"#utility.yul\":7715:7718   */\n      dup3\n        /* \"#utility.yul\":7626:7719   */\n      tag_83\n      jump\t// in\n    tag_154:\n        /* \"#utility.yul\":7744:7746   */\n      0x20\n        /* \"#utility.yul\":7739:7742   */\n      dup3\n        /* \"#utility.yul\":7735:7747   */\n      add\n        /* \"#utility.yul\":7728:7747   */\n      swap1\n      pop\n        /* \"#utility.yul\":7387:7753   */\n      swap2\n      swap1\n      pop\n      jump\t// out\n        /* \"#utility.yul\":7759:8178   */\n    tag_55:\n        /* \"#utility.yul\":7925:7929   */\n      0x00\n        /* \"#utility.yul\":7963:7965   */\n      0x20\n        /* \"#utility.yul\":7952:7961   */\n      dup3\n        /* \"#utility.yul\":7948:7966   */\n      add\n        /* \"#utility.yul\":7940:7966   */\n      swap1\n      pop\n        /* \"#utility.yul\":8012:8021   */\n      dup2\n        /* \"#utility.yul\":8006:8010   */\n      dup2\n        /* \"#utility.yul\":8002:8022   */\n      sub\n        /* \"#utility.yul\":7998:7999   */\n      0x00\n        /* \"#utility.yul\":7987:7996   */\n      dup4\n        /* \"#utility.yul\":7983:8000   */\n      add\n        /* \"#utility.yul\":7976:8023   */\n      mstore\n        /* \"#utility.yul\":8040:8171   */\n      tag_156\n        /* \"#utility.yul\":8166:8170   */\n      dup2\n        /* \"#utility.yul\":8040:8171   */\n      tag_84\n      jump\t// in\n    tag_156:\n        /* \"#utility.yul\":8032:8171   */\n      swap1\n      pop\n        /* \"#utility.yul\":7759:8178   */\n      swap2\n      swap1\n      pop\n      jump\t// out\n        /* \"#utility.yul\":8184:8378   */\n    tag_57:\n        /* \"#utility.yul\":8224:8228   */\n      0x00\n        /* \"#utility.yul\":8244:8264   */\n      tag_158\n        /* \"#utility.yul\":8262:8263   */\n      dup3\n        /* \"#utility.yul\":8244:8264   */\n      tag_68\n      jump\t// in\n    tag_158:\n        /* \"#utility.yul\":8239:8264   */\n      swap2\n      pop\n        /* \"#utility.yul\":8278:8298   */\n      tag_159\n        /* \"#utility.yul\":8296:8297   */\n      dup4\n        /* \"#utility.yul\":8278:8298   */\n      tag_68\n      jump\t// in\n    tag_159:\n        /* \"#utility.yul\":8273:8298   */\n      swap3\n      pop\n        /* \"#utility.yul\":8322:8323   */\n      dup3\n        /* \"#utility.yul\":8319:8320   */\n      dup3\n        /* \"#utility.yul\":8315:8324   */\n      sub\n        /* \"#utility.yul\":8307:8324   */\n      swap1\n      pop\n        /* \"#utility.yul\":8346:8347   */\n      dup2\n        /* \"#utility.yul\":8340:8344   */\n      dup2\n        /* \"#utility.yul\":8337:8348   */\n      gt\n        /* \"#utility.yul\":8334:8371   */\n      iszero\n      tag_160\n      jumpi\n        /* \"#utility.yul\":8351:8369   */\n      tag_161\n      tag_77\n      jump\t// in\n    tag_161:\n        /* \"#utility.yul\":8334:8371   */\n    tag_160:\n        /* \"#utility.yul\":8184:8378   */\n      swap3\n      swap2\n      pop\n      pop\n      jump\t// out\n\n    auxdata: 0xa26469706673582212205af6e55cd584c35bc41653d65be848f50cef54f024f1a2291bf4db02bd28c8bb64736f6c634300081a0033\n}\n",
				"bytecode": {
					"linkReferences": {},
					"object": "6080604052670de0b6b3a76400005f553480156019575f80fd5b506108d2806100275f395ff3fe608060405260043610610054575f3560e01c80631031ec3114610058578063155dd5ee1461009457806327e235e3146100bc57806355afeca6146100f85780637ddfe78d14610124578063e2c41dbc1461014e575b5f80fd5b348015610063575f80fd5b5061007e60048036038101906100799190610532565b610158565b60405161008b9190610575565b60405180910390f35b34801561009f575f80fd5b506100ba60048036038101906100b591906105b8565b61016d565b005b3480156100c7575f80fd5b506100e260048036038101906100dd9190610532565b610400565b6040516100ef9190610575565b60405180910390f35b348015610103575f80fd5b5061010c610415565b60405161011b939291906105e3565b60405180910390f35b34801561012f575f80fd5b5061013861047a565b6040516101459190610575565b60405180910390f35b61015661047f565b005b6001602052805f5260405f205f915090505481565b8060025f3373ffffffffffffffffffffffffffffffffffffffff1673ffffffffffffffffffffffffffffffffffffffff1681526020019081526020015f205410156101ed576040517f08c379a00000000000000000000000000000000000000000000000000000000081526004016101e490610672565b60405180910390fd5b5f54811115610231576040517f08c379a0000000000000000000000000000000000000000000000000000000008152600401610228906106da565b60405180910390fd5b62093a8060015f3373ffffffffffffffffffffffffffffffffffffffff1673ffffffffffffffffffffffffffffffffffffffff1681526020019081526020015f205461027d9190610725565b4210156102bf576040517f08c379a00000000000000000000000000000000000000000000000000000000081526004016102b6906107a2565b60405180910390fd5b5f3373ffffffffffffffffffffffffffffffffffffffff16476040516102e4906107ed565b5f6040518083038185875af1925050503d805f811461031e576040519150601f19603f3d011682016040523d82523d5f602084013e610323565b606091505b5050905080610367576040517f08c379a000000000000000000000000000000000000000000000000000000000815260040161035e9061084b565b60405180910390fd5b8160025f3373ffffffffffffffffffffffffffffffffffffffff1673ffffffffffffffffffffffffffffffffffffffff1681526020019081526020015f205f8282546103b39190610869565b925050819055504260015f3373ffffffffffffffffffffffffffffffffffffffff1673ffffffffffffffffffffffffffffffffffffffff1681526020019081526020015f20819055505050565b6002602052805f5260405f205f915090505481565b5f805f4760025f3373ffffffffffffffffffffffffffffffffffffffff1673ffffffffffffffffffffffffffffffffffffffff1681526020019081526020015f20543373ffffffffffffffffffffffffffffffffffffffff1631925092509250909192565b5f5481565b3460025f3373ffffffffffffffffffffffffffffffffffffffff1673ffffffffffffffffffffffffffffffffffffffff1681526020019081526020015f205f8282546104cb9190610725565b92505081905550565b5f80fd5b5f73ffffffffffffffffffffffffffffffffffffffff82169050919050565b5f610501826104d8565b9050919050565b610511816104f7565b811461051b575f80fd5b50565b5f8135905061052c81610508565b92915050565b5f60208284031215610547576105466104d4565b5b5f6105548482850161051e565b91505092915050565b5f819050919050565b61056f8161055d565b82525050565b5f6020820190506105885f830184610566565b92915050565b6105978161055d565b81146105a1575f80fd5b50565b5f813590506105b28161058e565b92915050565b5f602082840312156105cd576105cc6104d4565b5b5f6105da848285016105a4565b91505092915050565b5f6060820190506105f65f830186610566565b6106036020830185610566565b6106106040830184610566565b949350505050565b5f82825260208201905092915050565b7f496e73756666696369656e742062616c616e63650000000000000000000000005f82015250565b5f61065c601483610618565b915061066782610628565b602082019050919050565b5f6020820190508181035f83015261068981610650565b9050919050565b7f45786365656473207769746864726177616c206c696d697400000000000000005f82015250565b5f6106c4601883610618565b91506106cf82610690565b602082019050919050565b5f6020820190508181035f8301526106f1816106b8565b9050919050565b7f4e487b71000000000000000000000000000000000000000000000000000000005f52601160045260245ffd5b5f61072f8261055d565b915061073a8361055d565b9250828201905080821115610752576107516106f8565b5b92915050565b7f5769746864726177616c206e6f7420616c6c6f776564207965740000000000005f82015250565b5f61078c601a83610618565b915061079782610758565b602082019050919050565b5f6020820190508181035f8301526107b981610780565b9050919050565b5f81905092915050565b50565b5f6107d85f836107c0565b91506107e3826107ca565b5f82019050919050565b5f6107f7826107cd565b9150819050919050565b7f5472616e73666572206661696c656400000000000000000000000000000000005f82015250565b5f610835600f83610618565b915061084082610801565b602082019050919050565b5f6020820190508181035f83015261086281610829565b9050919050565b5f6108738261055d565b915061087e8361055d565b9250828203905081811115610896576108956106f8565b5b9291505056fea26469706673582212205af6e55cd584c35bc41653d65be848f50cef54f024f1a2291bf4db02bd28c8bb64736f6c634300081a0033",
					"opcodes": "PUSH1 0x80 PUSH1 0x40 MSTORE PUSH8 0xDE0B6B3A7640000 PUSH0 SSTORE CALLVALUE DUP1 ISZERO PUSH1 0x19 JUMPI PUSH0 DUP1 REVERT JUMPDEST POP PUSH2 0x8D2 DUP1 PUSH2 0x27 PUSH0 CODECOPY PUSH0 RETURN INVALID PUSH1 0x80 PUSH1 0x40 MSTORE PUSH1 0x4 CALLDATASIZE LT PUSH2 0x54 JUMPI PUSH0 CALLDATALOAD PUSH1 0xE0 SHR DUP1 PUSH4 0x1031EC31 EQ PUSH2 0x58 JUMPI DUP1 PUSH4 0x155DD5EE EQ PUSH2 0x94 JUMPI DUP1 PUSH4 0x27E235E3 EQ PUSH2 0xBC JUMPI DUP1 PUSH4 0x55AFECA6 EQ PUSH2 0xF8 JUMPI DUP1 PUSH4 0x7DDFE78D EQ PUSH2 0x124 JUMPI DUP1 PUSH4 0xE2C41DBC EQ PUSH2 0x14E JUMPI JUMPDEST PUSH0 DUP1 REVERT JUMPDEST CALLVALUE DUP1 ISZERO PUSH2 0x63 JUMPI PUSH0 DUP1 REVERT JUMPDEST POP PUSH2 0x7E PUSH1 0x4 DUP1 CALLDATASIZE SUB DUP2 ADD SWAP1 PUSH2 0x79 SWAP2 SWAP1 PUSH2 0x532 JUMP JUMPDEST PUSH2 0x158 JUMP JUMPDEST PUSH1 0x40 MLOAD PUSH2 0x8B SWAP2 SWAP1 PUSH2 0x575 JUMP JUMPDEST PUSH1 0x40 MLOAD DUP1 SWAP2 SUB SWAP1 RETURN JUMPDEST CALLVALUE DUP1 ISZERO PUSH2 0x9F JUMPI PUSH0 DUP1 REVERT JUMPDEST POP PUSH2 0xBA PUSH1 0x4 DUP1 CALLDATASIZE SUB DUP2 ADD SWAP1 PUSH2 0xB5 SWAP2 SWAP1 PUSH2 0x5B8 JUMP JUMPDEST PUSH2 0x16D JUMP JUMPDEST STOP JUMPDEST CALLVALUE DUP1 ISZERO PUSH2 0xC7 JUMPI PUSH0 DUP1 REVERT JUMPDEST POP PUSH2 0xE2 PUSH1 0x4 DUP1 CALLDATASIZE SUB DUP2 ADD SWAP1 PUSH2 0xDD SWAP2 SWAP1 PUSH2 0x532 JUMP JUMPDEST PUSH2 0x400 JUMP JUMPDEST PUSH1 0x40 MLOAD PUSH2 0xEF SWAP2 SWAP1 PUSH2 0x575 JUMP JUMPDEST PUSH1 0x40 MLOAD DUP1 SWAP2 SUB SWAP1 RETURN JUMPDEST CALLVALUE DUP1 ISZERO PUSH2 0x103 JUMPI PUSH0 DUP1 REVERT JUMPDEST POP PUSH2 0x10C PUSH2 0x415 JUMP JUMPDEST PUSH1 0x40 MLOAD PUSH2 0x11B SWAP4 SWAP3 SWAP2 SWAP1 PUSH2 0x5E3 JUMP JUMPDEST PUSH1 0x40 MLOAD DUP1 SWAP2 SUB SWAP1 RETURN JUMPDEST CALLVALUE DUP1 ISZERO PUSH2 0x12F JUMPI PUSH0 DUP1 REVERT JUMPDEST POP PUSH2 0x138 PUSH2 0x47A JUMP JUMPDEST PUSH1 0x40 MLOAD PUSH2 0x145 SWAP2 SWAP1 PUSH2 0x575 JUMP JUMPDEST PUSH1 0x40 MLOAD DUP1 SWAP2 SUB SWAP1 RETURN JUMPDEST PUSH2 0x156 PUSH2 0x47F JUMP JUMPDEST STOP JUMPDEST PUSH1 0x1 PUSH1 0x20 MSTORE DUP1 PUSH0 MSTORE PUSH1 0x40 PUSH0 KECCAK256 PUSH0 SWAP2 POP SWAP1 POP SLOAD DUP2 JUMP JUMPDEST DUP1 PUSH1 0x2 PUSH0 CALLER PUSH20 0xFFFFFFFFFFFFFFFFFFFFFFFFFFFFFFFFFFFFFFFF AND PUSH20 0xFFFFFFFFFFFFFFFFFFFFFFFFFFFFFFFFFFFFFFFF AND DUP2 MSTORE PUSH1 0x20 ADD SWAP1 DUP2 MSTORE PUSH1 0x20 ADD PUSH0 KECCAK256 SLOAD LT ISZERO PUSH2 0x1ED JUMPI PUSH1 0x40 MLOAD PUSH32 0x8C379A000000000000000000000000000000000000000000000000000000000 DUP2 MSTORE PUSH1 0x4 ADD PUSH2 0x1E4 SWAP1 PUSH2 0x672 JUMP JUMPDEST PUSH1 0x40 MLOAD DUP1 SWAP2 SUB SWAP1 REVERT JUMPDEST PUSH0 SLOAD DUP2 GT ISZERO PUSH2 0x231 JUMPI PUSH1 0x40 MLOAD PUSH32 0x8C379A000000000000000000000000000000000000000000000000000000000 DUP2 MSTORE PUSH1 0x4 ADD PUSH2 0x228 SWAP1 PUSH2 0x6DA JUMP JUMPDEST PUSH1 0x40 MLOAD DUP1 SWAP2 SUB SWAP1 REVERT JUMPDEST PUSH3 0x93A80 PUSH1 0x1 PUSH0 CALLER PUSH20 0xFFFFFFFFFFFFFFFFFFFFFFFFFFFFFFFFFFFFFFFF AND PUSH20 0xFFFFFFFFFFFFFFFFFFFFFFFFFFFFFFFFFFFFFFFF AND DUP2 MSTORE PUSH1 0x20 ADD SWAP1 DUP2 MSTORE PUSH1 0x20 ADD PUSH0 KECCAK256 SLOAD PUSH2 0x27D SWAP2 SWAP1 PUSH2 0x725 JUMP JUMPDEST TIMESTAMP LT ISZERO PUSH2 0x2BF JUMPI PUSH1 0x40 MLOAD PUSH32 0x8C379A000000000000000000000000000000000000000000000000000000000 DUP2 MSTORE PUSH1 0x4 ADD PUSH2 0x2B6 SWAP1 PUSH2 0x7A2 JUMP JUMPDEST PUSH1 0x40 MLOAD DUP1 SWAP2 SUB SWAP1 REVERT JUMPDEST PUSH0 CALLER PUSH20 0xFFFFFFFFFFFFFFFFFFFFFFFFFFFFFFFFFFFFFFFF AND SELFBALANCE PUSH1 0x40 MLOAD PUSH2 0x2E4 SWAP1 PUSH2 0x7ED JUMP JUMPDEST PUSH0 PUSH1 0x40 MLOAD DUP1 DUP4 SUB DUP2 DUP6 DUP8 GAS CALL SWAP3 POP POP POP RETURNDATASIZE DUP1 PUSH0 DUP2 EQ PUSH2 0x31E JUMPI PUSH1 0x40 MLOAD SWAP2 POP PUSH1 0x1F NOT PUSH1 0x3F RETURNDATASIZE ADD AND DUP3 ADD PUSH1 0x40 MSTORE RETURNDATASIZE DUP3 MSTORE RETURNDATASIZE PUSH0 PUSH1 0x20 DUP5 ADD RETURNDATACOPY PUSH2 0x323 JUMP JUMPDEST PUSH1 0x60 SWAP2 POP JUMPDEST POP POP SWAP1 POP DUP1 PUSH2 0x367 JUMPI PUSH1 0x40 MLOAD PUSH32 0x8C379A000000000000000000000000000000000000000000000000000000000 DUP2 MSTORE PUSH1 0x4 ADD PUSH2 0x35E SWAP1 PUSH2 0x84B JUMP JUMPDEST PUSH1 0x40 MLOAD DUP1 SWAP2 SUB SWAP1 REVERT JUMPDEST DUP2 PUSH1 0x2 PUSH0 CALLER PUSH20 0xFFFFFFFFFFFFFFFFFFFFFFFFFFFFFFFFFFFFFFFF AND PUSH20 0xFFFFFFFFFFFFFFFFFFFFFFFFFFFFFFFFFFFFFFFF AND DUP2 MSTORE PUSH1 0x20 ADD SWAP1 DUP2 MSTORE PUSH1 0x20 ADD PUSH0 KECCAK256 PUSH0 DUP3 DUP3 SLOAD PUSH2 0x3B3 SWAP2 SWAP1 PUSH2 0x869 JUMP JUMPDEST SWAP3 POP POP DUP2 SWAP1 SSTORE POP TIMESTAMP PUSH1 0x1 PUSH0 CALLER PUSH20 0xFFFFFFFFFFFFFFFFFFFFFFFFFFFFFFFFFFFFFFFF AND PUSH20 0xFFFFFFFFFFFFFFFFFFFFFFFFFFFFFFFFFFFFFFFF AND DUP2 MSTORE PUSH1 0x20 ADD SWAP1 DUP2 MSTORE PUSH1 0x20 ADD PUSH0 KECCAK256 DUP2 SWAP1 SSTORE POP POP POP JUMP JUMPDEST PUSH1 0x2 PUSH1 0x20 MSTORE DUP1 PUSH0 MSTORE PUSH1 0x40 PUSH0 KECCAK256 PUSH0 SWAP2 POP SWAP1 POP SLOAD DUP2 JUMP JUMPDEST PUSH0 DUP1 PUSH0 SELFBALANCE PUSH1 0x2 PUSH0 CALLER PUSH20 0xFFFFFFFFFFFFFFFFFFFFFFFFFFFFFFFFFFFFFFFF AND PUSH20 0xFFFFFFFFFFFFFFFFFFFFFFFFFFFFFFFFFFFFFFFF AND DUP2 MSTORE PUSH1 0x20 ADD SWAP1 DUP2 MSTORE PUSH1 0x20 ADD PUSH0 KECCAK256 SLOAD CALLER PUSH20 0xFFFFFFFFFFFFFFFFFFFFFFFFFFFFFFFFFFFFFFFF AND BALANCE SWAP3 POP SWAP3 POP SWAP3 POP SWAP1 SWAP2 SWAP3 JUMP JUMPDEST PUSH0 SLOAD DUP2 JUMP JUMPDEST CALLVALUE PUSH1 0x2 PUSH0 CALLER PUSH20 0xFFFFFFFFFFFFFFFFFFFFFFFFFFFFFFFFFFFFFFFF AND PUSH20 0xFFFFFFFFFFFFFFFFFFFFFFFFFFFFFFFFFFFFFFFF AND DUP2 MSTORE PUSH1 0x20 ADD SWAP1 DUP2 MSTORE PUSH1 0x20 ADD PUSH0 KECCAK256 PUSH0 DUP3 DUP3 SLOAD PUSH2 0x4CB SWAP2 SWAP1 PUSH2 0x725 JUMP JUMPDEST SWAP3 POP POP DUP2 SWAP1 SSTORE POP JUMP JUMPDEST PUSH0 DUP1 REVERT JUMPDEST PUSH0 PUSH20 0xFFFFFFFFFFFFFFFFFFFFFFFFFFFFFFFFFFFFFFFF DUP3 AND SWAP1 POP SWAP2 SWAP1 POP JUMP JUMPDEST PUSH0 PUSH2 0x501 DUP3 PUSH2 0x4D8 JUMP JUMPDEST SWAP1 POP SWAP2 SWAP1 POP JUMP JUMPDEST PUSH2 0x511 DUP2 PUSH2 0x4F7 JUMP JUMPDEST DUP2 EQ PUSH2 0x51B JUMPI PUSH0 DUP1 REVERT JUMPDEST POP JUMP JUMPDEST PUSH0 DUP2 CALLDATALOAD SWAP1 POP PUSH2 0x52C DUP2 PUSH2 0x508 JUMP JUMPDEST SWAP3 SWAP2 POP POP JUMP JUMPDEST PUSH0 PUSH1 0x20 DUP3 DUP5 SUB SLT ISZERO PUSH2 0x547 JUMPI PUSH2 0x546 PUSH2 0x4D4 JUMP JUMPDEST JUMPDEST PUSH0 PUSH2 0x554 DUP5 DUP3 DUP6 ADD PUSH2 0x51E JUMP JUMPDEST SWAP2 POP POP SWAP3 SWAP2 POP POP JUMP JUMPDEST PUSH0 DUP2 SWAP1 POP SWAP2 SWAP1 POP JUMP JUMPDEST PUSH2 0x56F DUP2 PUSH2 0x55D JUMP JUMPDEST DUP3 MSTORE POP POP JUMP JUMPDEST PUSH0 PUSH1 0x20 DUP3 ADD SWAP1 POP PUSH2 0x588 PUSH0 DUP4 ADD DUP5 PUSH2 0x566 JUMP JUMPDEST SWAP3 SWAP2 POP POP JUMP JUMPDEST PUSH2 0x597 DUP2 PUSH2 0x55D JUMP JUMPDEST DUP2 EQ PUSH2 0x5A1 JUMPI PUSH0 DUP1 REVERT JUMPDEST POP JUMP JUMPDEST PUSH0 DUP2 CALLDATALOAD SWAP1 POP PUSH2 0x5B2 DUP2 PUSH2 0x58E JUMP JUMPDEST SWAP3 SWAP2 POP POP JUMP JUMPDEST PUSH0 PUSH1 0x20 DUP3 DUP5 SUB SLT ISZERO PUSH2 0x5CD JUMPI PUSH2 0x5CC PUSH2 0x4D4 JUMP JUMPDEST JUMPDEST PUSH0 PUSH2 0x5DA DUP5 DUP3 DUP6 ADD PUSH2 0x5A4 JUMP JUMPDEST SWAP2 POP POP SWAP3 SWAP2 POP POP JUMP JUMPDEST PUSH0 PUSH1 0x60 DUP3 ADD SWAP1 POP PUSH2 0x5F6 PUSH0 DUP4 ADD DUP7 PUSH2 0x566 JUMP JUMPDEST PUSH2 0x603 PUSH1 0x20 DUP4 ADD DUP6 PUSH2 0x566 JUMP JUMPDEST PUSH2 0x610 PUSH1 0x40 DUP4 ADD DUP5 PUSH2 0x566 JUMP JUMPDEST SWAP5 SWAP4 POP POP POP POP JUMP JUMPDEST PUSH0 DUP3 DUP3 MSTORE PUSH1 0x20 DUP3 ADD SWAP1 POP SWAP3 SWAP2 POP POP JUMP JUMPDEST PUSH32 0x496E73756666696369656E742062616C616E6365000000000000000000000000 PUSH0 DUP3 ADD MSTORE POP JUMP JUMPDEST PUSH0 PUSH2 0x65C PUSH1 0x14 DUP4 PUSH2 0x618 JUMP JUMPDEST SWAP2 POP PUSH2 0x667 DUP3 PUSH2 0x628 JUMP JUMPDEST PUSH1 0x20 DUP3 ADD SWAP1 POP SWAP2 SWAP1 POP JUMP JUMPDEST PUSH0 PUSH1 0x20 DUP3 ADD SWAP1 POP DUP2 DUP2 SUB PUSH0 DUP4 ADD MSTORE PUSH2 0x689 DUP2 PUSH2 0x650 JUMP JUMPDEST SWAP1 POP SWAP2 SWAP1 POP JUMP JUMPDEST PUSH32 0x45786365656473207769746864726177616C206C696D69740000000000000000 PUSH0 DUP3 ADD MSTORE POP JUMP JUMPDEST PUSH0 PUSH2 0x6C4 PUSH1 0x18 DUP4 PUSH2 0x618 JUMP JUMPDEST SWAP2 POP PUSH2 0x6CF DUP3 PUSH2 0x690 JUMP JUMPDEST PUSH1 0x20 DUP3 ADD SWAP1 POP SWAP2 SWAP1 POP JUMP JUMPDEST PUSH0 PUSH1 0x20 DUP3 ADD SWAP1 POP DUP2 DUP2 SUB PUSH0 DUP4 ADD MSTORE PUSH2 0x6F1 DUP2 PUSH2 0x6B8 JUMP JUMPDEST SWAP1 POP SWAP2 SWAP1 POP JUMP JUMPDEST PUSH32 0x4E487B7100000000000000000000000000000000000000000000000000000000 PUSH0 MSTORE PUSH1 0x11 PUSH1 0x4 MSTORE PUSH1 0x24 PUSH0 REVERT JUMPDEST PUSH0 PUSH2 0x72F DUP3 PUSH2 0x55D JUMP JUMPDEST SWAP2 POP PUSH2 0x73A DUP4 PUSH2 0x55D JUMP JUMPDEST SWAP3 POP DUP3 DUP3 ADD SWAP1 POP DUP1 DUP3 GT ISZERO PUSH2 0x752 JUMPI PUSH2 0x751 PUSH2 0x6F8 JUMP JUMPDEST JUMPDEST SWAP3 SWAP2 POP POP JUMP JUMPDEST PUSH32 0x5769746864726177616C206E6F7420616C6C6F77656420796574000000000000 PUSH0 DUP3 ADD MSTORE POP JUMP JUMPDEST PUSH0 PUSH2 0x78C PUSH1 0x1A DUP4 PUSH2 0x618 JUMP JUMPDEST SWAP2 POP PUSH2 0x797 DUP3 PUSH2 0x758 JUMP JUMPDEST PUSH1 0x20 DUP3 ADD SWAP1 POP SWAP2 SWAP1 POP JUMP JUMPDEST PUSH0 PUSH1 0x20 DUP3 ADD SWAP1 POP DUP2 DUP2 SUB PUSH0 DUP4 ADD MSTORE PUSH2 0x7B9 DUP2 PUSH2 0x780 JUMP JUMPDEST SWAP1 POP SWAP2 SWAP1 POP JUMP JUMPDEST PUSH0 DUP2 SWAP1 POP SWAP3 SWAP2 POP POP JUMP JUMPDEST POP JUMP JUMPDEST PUSH0 PUSH2 0x7D8 PUSH0 DUP4 PUSH2 0x7C0 JUMP JUMPDEST SWAP2 POP PUSH2 0x7E3 DUP3 PUSH2 0x7CA JUMP JUMPDEST PUSH0 DUP3 ADD SWAP1 POP SWAP2 SWAP1 POP JUMP JUMPDEST PUSH0 PUSH2 0x7F7 DUP3 PUSH2 0x7CD JUMP JUMPDEST SWAP2 POP DUP2 SWAP1 POP SWAP2 SWAP1 POP JUMP JUMPDEST PUSH32 0x5472616E73666572206661696C65640000000000000000000000000000000000 PUSH0 DUP3 ADD MSTORE POP JUMP JUMPDEST PUSH0 PUSH2 0x835 PUSH1 0xF DUP4 PUSH2 0x618 JUMP JUMPDEST SWAP2 POP PUSH2 0x840 DUP3 PUSH2 0x801 JUMP JUMPDEST PUSH1 0x20 DUP3 ADD SWAP1 POP SWAP2 SWAP1 POP JUMP JUMPDEST PUSH0 PUSH1 0x20 DUP3 ADD SWAP1 POP DUP2 DUP2 SUB PUSH0 DUP4 ADD MSTORE PUSH2 0x862 DUP2 PUSH2 0x829 JUMP JUMPDEST SWAP1 POP SWAP2 SWAP1 POP JUMP JUMPDEST PUSH0 PUSH2 0x873 DUP3 PUSH2 0x55D JUMP JUMPDEST SWAP2 POP PUSH2 0x87E DUP4 PUSH2 0x55D JUMP JUMPDEST SWAP3 POP DUP3 DUP3 SUB SWAP1 POP DUP2 DUP2 GT ISZERO PUSH2 0x896 JUMPI PUSH2 0x895 PUSH2 0x6F8 JUMP JUMPDEST JUMPDEST SWAP3 SWAP2 POP POP JUMP INVALID LOG2 PUSH5 0x6970667358 0x22 SLT KECCAK256 GAS 0xF6 0xE5 TLOAD 0xD5 DUP5 0xC3 JUMPDEST 0xC4 AND MSTORE8 0xD6 JUMPDEST 0xE8 BASEFEE CREATE2 0xC 0xEF SLOAD CREATE 0x24 CALL LOG2 0x29 SHL DELEGATECALL 0xDB MUL 0xBD 0x28 0xC8 0xBB PUSH5 0x736F6C6343 STOP ADDMOD BYTE STOP CALLER "
				},
				"gasEstimates": {
					"creation": {
						"codeDepositCost": "451600",
						"executionCost": "22589",
						"totalCost": "474189"
					},
					"external": {
						"balances(address)": "2824",
						"depositFunds()": "infinite",
						"getSelfAndSenderBalance()": "infinite",
						"lastWithdrawTime(address)": "2780",
						"withdrawFunds(uint256)": "infinite",
						"withdrawalLimit()": "2490"
					}
				},
				"methodIdentifiers": {
					"balances(address)": "27e235e3",
					"depositFunds()": "e2c41dbc",
					"getSelfAndSenderBalance()": "55afeca6",
					"lastWithdrawTime(address)": "1031ec31",
					"withdrawFunds(uint256)": "155dd5ee",
					"withdrawalLimit()": "7ddfe78d"
				}
			},
			"storageLayout": {
				"storage": [
					{
						"astId": 96,
						"contract": "homework/level-02/05.Solidity 编码规范、高级特性/EtherStore.sol:EtherStore",
						"label": "withdrawalLimit",
						"offset": 0,
						"slot": "0",
						"type": "t_uint256"
					},
					{
						"astId": 100,
						"contract": "homework/level-02/05.Solidity 编码规范、高级特性/EtherStore.sol:EtherStore",
						"label": "lastWithdrawTime",
						"offset": 0,
						"slot": "1",
						"type": "t_mapping(t_address,t_uint256)"
					},
					{
						"astId": 104,
						"contract": "homework/level-02/05.Solidity 编码规范、高级特性/EtherStore.sol:EtherStore",
						"label": "balances",
						"offset": 0,
						"slot": "2",
						"type": "t_mapping(t_address,t_uint256)"
					}
				],
				"types": {
					"t_address": {
						"encoding": "inplace",
						"label": "address",
						"numberOfBytes": "20"
					},
					"t_mapping(t_address,t_uint256)": {
						"encoding": "mapping",
						"key": "t_address",
						"label": "mapping(address => uint256)",
						"numberOfBytes": "32",
						"value": "t_uint256"
					},
					"t_uint256": {
						"encoding": "inplace",
						"label": "uint256",
						"numberOfBytes": "32"
					}
				}
			},
			"userdoc": {
				"kind": "user",
				"methods": {},
				"version": 1
			}
		}
	}
}