{
	"homework/level-02/05.Solidity 编码规范、高级特性/FibonacciLib.sol": {
		"FibonacciLib": {
			"abi": [
				{
					"inputs": [],
					"name": "calculatedFibNumber",
					"outputs": [
						{
							"internalType": "uint256",
							"name": "",
							"type": "uint256"
						}
					],
					"stateMutability": "view",
					"type": "function"
				},
				{
					"inputs": [
						{
							"internalType": "uint256",
							"name": "n",
							"type": "uint256"
						}
					],
					"name": "setFibonacci",
					"outputs": [],
					"stateMutability": "nonpayable",
					"type": "function"
				},
				{
					"inputs": [
						{
							"internalType": "uint256",
							"name": "_start",
							"type": "uint256"
						}
					],
					"name": "setStart",
					"outputs": [],
					"stateMutability": "nonpayable",
					"type": "function"
				},
				{
					"inputs": [],
					"name": "start",
					"outputs": [
						{
							"internalType": "uint256",
							"name": "",
							"type": "uint256"
						}
					],
					"stateMutability": "view",
					"type": "function"
				}
			],
			"devdoc": {
				"kind": "dev",
				"methods": {},
				"version": 1
			},
			"evm": {
				"assembly": "    /* \"homework/level-02/05.Solidity \\xe7\\xbc\\x96\\xe7\\xa0\\x81\\xe8\\xa7\\x84\\xe8\\x8c\\x83\\xe3\\x80\\x81\\xe9\\xab\\x98\\xe7\\xba\\xa7\\xe7\\x89\\xb9\\xe6\\x80\\xa7/FibonacciLib.sol\":65:637  contract FibonacciLib {... */\n  mstore(0x40, 0x80)\n  callvalue\n  dup1\n  iszero\n  tag_1\n  jumpi\n  0x00\n  dup1\n  revert\ntag_1:\n  pop\n  dataSize(sub_0)\n  dup1\n  dataOffset(sub_0)\n  0x00\n  codecopy\n  0x00\n  return\nstop\n\nsub_0: assembly {\n        /* \"homework/level-02/05.Solidity \\xe7\\xbc\\x96\\xe7\\xa0\\x81\\xe8\\xa7\\x84\\xe8\\x8c\\x83\\xe3\\x80\\x81\\xe9\\xab\\x98\\xe7\\xba\\xa7\\xe7\\x89\\xb9\\xe6\\x80\\xa7/FibonacciLib.sol\":65:637  contract FibonacciLib {... */\n      mstore(0x40, 0x80)\n      callvalue\n      dup1\n      iszero\n      tag_1\n      jumpi\n      0x00\n      dup1\n      revert\n    tag_1:\n      pop\n      jumpi(tag_2, lt(calldatasize, 0x04))\n      shr(0xe0, calldataload(0x00))\n      dup1\n      0xbbe1d75b\n      eq\n      tag_3\n      jumpi\n      dup1\n      0xbe9a6555\n      eq\n      tag_4\n      jumpi\n      dup1\n      0xf6a03ebf\n      eq\n      tag_5\n      jumpi\n      dup1\n      0xfe75faab\n      eq\n      tag_6\n      jumpi\n    tag_2:\n      0x00\n      dup1\n      revert\n        /* \"homework/level-02/05.Solidity \\xe7\\xbc\\x96\\xe7\\xa0\\x81\\xe8\\xa7\\x84\\xe8\\x8c\\x83\\xe3\\x80\\x81\\xe9\\xab\\x98\\xe7\\xba\\xa7\\xe7\\x89\\xb9\\xe6\\x80\\xa7/FibonacciLib.sol\":172:203  uint public calculatedFibNumber */\n    tag_3:\n      tag_7\n      tag_8\n      jump\t// in\n    tag_7:\n      mload(0x40)\n      tag_9\n      swap2\n      swap1\n      tag_10\n      jump\t// in\n    tag_9:\n      mload(0x40)\n      dup1\n      swap2\n      sub\n      swap1\n      return\n        /* \"homework/level-02/05.Solidity \\xe7\\xbc\\x96\\xe7\\xa0\\x81\\xe8\\xa7\\x84\\xe8\\x8c\\x83\\xe3\\x80\\x81\\xe9\\xab\\x98\\xe7\\xba\\xa7\\xe7\\x89\\xb9\\xe6\\x80\\xa7/FibonacciLib.sol\":148:165  uint public start */\n    tag_4:\n      tag_11\n      tag_12\n      jump\t// in\n    tag_11:\n      mload(0x40)\n      tag_13\n      swap2\n      swap1\n      tag_10\n      jump\t// in\n    tag_13:\n      mload(0x40)\n      dup1\n      swap2\n      sub\n      swap1\n      return\n        /* \"homework/level-02/05.Solidity \\xe7\\xbc\\x96\\xe7\\xa0\\x81\\xe8\\xa7\\x84\\xe8\\x8c\\x83\\xe3\\x80\\x81\\xe9\\xab\\x98\\xe7\\xba\\xa7\\xe7\\x89\\xb9\\xe6\\x80\\xa7/FibonacciLib.sol\":261:332  function setStart(uint _start) public {... */\n    tag_5:\n      tag_14\n      0x04\n      dup1\n      calldatasize\n      sub\n      dup2\n      add\n      swap1\n      tag_15\n      swap2\n      swap1\n      tag_16\n      jump\t// in\n    tag_15:\n      tag_17\n      jump\t// in\n    tag_14:\n      stop\n        /* \"homework/level-02/05.Solidity \\xe7\\xbc\\x96\\xe7\\xa0\\x81\\xe8\\xa7\\x84\\xe8\\x8c\\x83\\xe3\\x80\\x81\\xe9\\xab\\x98\\xe7\\xba\\xa7\\xe7\\x89\\xb9\\xe6\\x80\\xa7/FibonacciLib.sol\":340:430  function setFibonacci(uint n) public {... */\n    tag_6:\n      tag_18\n      0x04\n      dup1\n      calldatasize\n      sub\n      dup2\n      add\n      swap1\n      tag_19\n      swap2\n      swap1\n      tag_16\n      jump\t// in\n    tag_19:\n      tag_20\n      jump\t// in\n    tag_18:\n      stop\n        /* \"homework/level-02/05.Solidity \\xe7\\xbc\\x96\\xe7\\xa0\\x81\\xe8\\xa7\\x84\\xe8\\x8c\\x83\\xe3\\x80\\x81\\xe9\\xab\\x98\\xe7\\xba\\xa7\\xe7\\x89\\xb9\\xe6\\x80\\xa7/FibonacciLib.sol\":172:203  uint public calculatedFibNumber */\n    tag_8:\n      sload(0x01)\n      dup2\n      jump\t// out\n        /* \"homework/level-02/05.Solidity \\xe7\\xbc\\x96\\xe7\\xa0\\x81\\xe8\\xa7\\x84\\xe8\\x8c\\x83\\xe3\\x80\\x81\\xe9\\xab\\x98\\xe7\\xba\\xa7\\xe7\\x89\\xb9\\xe6\\x80\\xa7/FibonacciLib.sol\":148:165  uint public start */\n    tag_12:\n      sload(0x00)\n      dup2\n      jump\t// out\n        /* \"homework/level-02/05.Solidity \\xe7\\xbc\\x96\\xe7\\xa0\\x81\\xe8\\xa7\\x84\\xe8\\x8c\\x83\\xe3\\x80\\x81\\xe9\\xab\\x98\\xe7\\xba\\xa7\\xe7\\x89\\xb9\\xe6\\x80\\xa7/FibonacciLib.sol\":261:332  function setStart(uint _start) public {... */\n    tag_17:\n        /* \"homework/level-02/05.Solidity \\xe7\\xbc\\x96\\xe7\\xa0\\x81\\xe8\\xa7\\x84\\xe8\\x8c\\x83\\xe3\\x80\\x81\\xe9\\xab\\x98\\xe7\\xba\\xa7\\xe7\\x89\\xb9\\xe6\\x80\\xa7/FibonacciLib.sol\":318:324  _start */\n      dup1\n        /* \"homework/level-02/05.Solidity \\xe7\\xbc\\x96\\xe7\\xa0\\x81\\xe8\\xa7\\x84\\xe8\\x8c\\x83\\xe3\\x80\\x81\\xe9\\xab\\x98\\xe7\\xba\\xa7\\xe7\\x89\\xb9\\xe6\\x80\\xa7/FibonacciLib.sol\":310:315  start */\n      0x00\n        /* \"homework/level-02/05.Solidity \\xe7\\xbc\\x96\\xe7\\xa0\\x81\\xe8\\xa7\\x84\\xe8\\x8c\\x83\\xe3\\x80\\x81\\xe9\\xab\\x98\\xe7\\xba\\xa7\\xe7\\x89\\xb9\\xe6\\x80\\xa7/FibonacciLib.sol\":310:324  start = _start */\n      dup2\n      swap1\n      sstore\n      pop\n        /* \"homework/level-02/05.Solidity \\xe7\\xbc\\x96\\xe7\\xa0\\x81\\xe8\\xa7\\x84\\xe8\\x8c\\x83\\xe3\\x80\\x81\\xe9\\xab\\x98\\xe7\\xba\\xa7\\xe7\\x89\\xb9\\xe6\\x80\\xa7/FibonacciLib.sol\":261:332  function setStart(uint _start) public {... */\n      pop\n      jump\t// out\n        /* \"homework/level-02/05.Solidity \\xe7\\xbc\\x96\\xe7\\xa0\\x81\\xe8\\xa7\\x84\\xe8\\x8c\\x83\\xe3\\x80\\x81\\xe9\\xab\\x98\\xe7\\xba\\xa7\\xe7\\x89\\xb9\\xe6\\x80\\xa7/FibonacciLib.sol\":340:430  function setFibonacci(uint n) public {... */\n    tag_20:\n        /* \"homework/level-02/05.Solidity \\xe7\\xbc\\x96\\xe7\\xa0\\x81\\xe8\\xa7\\x84\\xe8\\x8c\\x83\\xe3\\x80\\x81\\xe9\\xab\\x98\\xe7\\xba\\xa7\\xe7\\x89\\xb9\\xe6\\x80\\xa7/FibonacciLib.sol\":410:422  fibonacci(n) */\n      tag_23\n        /* \"homework/level-02/05.Solidity \\xe7\\xbc\\x96\\xe7\\xa0\\x81\\xe8\\xa7\\x84\\xe8\\x8c\\x83\\xe3\\x80\\x81\\xe9\\xab\\x98\\xe7\\xba\\xa7\\xe7\\x89\\xb9\\xe6\\x80\\xa7/FibonacciLib.sol\":420:421  n */\n      dup2\n        /* \"homework/level-02/05.Solidity \\xe7\\xbc\\x96\\xe7\\xa0\\x81\\xe8\\xa7\\x84\\xe8\\x8c\\x83\\xe3\\x80\\x81\\xe9\\xab\\x98\\xe7\\xba\\xa7\\xe7\\x89\\xb9\\xe6\\x80\\xa7/FibonacciLib.sol\":410:419  fibonacci */\n      tag_24\n        /* \"homework/level-02/05.Solidity \\xe7\\xbc\\x96\\xe7\\xa0\\x81\\xe8\\xa7\\x84\\xe8\\x8c\\x83\\xe3\\x80\\x81\\xe9\\xab\\x98\\xe7\\xba\\xa7\\xe7\\x89\\xb9\\xe6\\x80\\xa7/FibonacciLib.sol\":410:422  fibonacci(n) */\n      jump\t// in\n    tag_23:\n        /* \"homework/level-02/05.Solidity \\xe7\\xbc\\x96\\xe7\\xa0\\x81\\xe8\\xa7\\x84\\xe8\\x8c\\x83\\xe3\\x80\\x81\\xe9\\xab\\x98\\xe7\\xba\\xa7\\xe7\\x89\\xb9\\xe6\\x80\\xa7/FibonacciLib.sol\":388:407  calculatedFibNumber */\n      0x01\n        /* \"homework/level-02/05.Solidity \\xe7\\xbc\\x96\\xe7\\xa0\\x81\\xe8\\xa7\\x84\\xe8\\x8c\\x83\\xe3\\x80\\x81\\xe9\\xab\\x98\\xe7\\xba\\xa7\\xe7\\x89\\xb9\\xe6\\x80\\xa7/FibonacciLib.sol\":388:422  calculatedFibNumber = fibonacci(n) */\n      dup2\n      swap1\n      sstore\n      pop\n        /* \"homework/level-02/05.Solidity \\xe7\\xbc\\x96\\xe7\\xa0\\x81\\xe8\\xa7\\x84\\xe8\\x8c\\x83\\xe3\\x80\\x81\\xe9\\xab\\x98\\xe7\\xba\\xa7\\xe7\\x89\\xb9\\xe6\\x80\\xa7/FibonacciLib.sol\":340:430  function setFibonacci(uint n) public {... */\n      pop\n      jump\t// out\n        /* \"homework/level-02/05.Solidity \\xe7\\xbc\\x96\\xe7\\xa0\\x81\\xe8\\xa7\\x84\\xe8\\x8c\\x83\\xe3\\x80\\x81\\xe9\\xab\\x98\\xe7\\xba\\xa7\\xe7\\x89\\xb9\\xe6\\x80\\xa7/FibonacciLib.sol\":438:634  function fibonacci(uint n) internal returns (uint) {... */\n    tag_24:\n        /* \"homework/level-02/05.Solidity \\xe7\\xbc\\x96\\xe7\\xa0\\x81\\xe8\\xa7\\x84\\xe8\\x8c\\x83\\xe3\\x80\\x81\\xe9\\xab\\x98\\xe7\\xba\\xa7\\xe7\\x89\\xb9\\xe6\\x80\\xa7/FibonacciLib.sol\":483:487  uint */\n      0x00\n        /* \"homework/level-02/05.Solidity \\xe7\\xbc\\x96\\xe7\\xa0\\x81\\xe8\\xa7\\x84\\xe8\\x8c\\x83\\xe3\\x80\\x81\\xe9\\xab\\x98\\xe7\\xba\\xa7\\xe7\\x89\\xb9\\xe6\\x80\\xa7/FibonacciLib.sol\":509:510  0 */\n      dup1\n        /* \"homework/level-02/05.Solidity \\xe7\\xbc\\x96\\xe7\\xa0\\x81\\xe8\\xa7\\x84\\xe8\\x8c\\x83\\xe3\\x80\\x81\\xe9\\xab\\x98\\xe7\\xba\\xa7\\xe7\\x89\\xb9\\xe6\\x80\\xa7/FibonacciLib.sol\":504:505  n */\n      dup3\n        /* \"homework/level-02/05.Solidity \\xe7\\xbc\\x96\\xe7\\xa0\\x81\\xe8\\xa7\\x84\\xe8\\x8c\\x83\\xe3\\x80\\x81\\xe9\\xab\\x98\\xe7\\xba\\xa7\\xe7\\x89\\xb9\\xe6\\x80\\xa7/FibonacciLib.sol\":504:510  n == 0 */\n      sub\n        /* \"homework/level-02/05.Solidity \\xe7\\xbc\\x96\\xe7\\xa0\\x81\\xe8\\xa7\\x84\\xe8\\x8c\\x83\\xe3\\x80\\x81\\xe9\\xab\\x98\\xe7\\xba\\xa7\\xe7\\x89\\xb9\\xe6\\x80\\xa7/FibonacciLib.sol\":500:626  if (n == 0) return start;... */\n      tag_26\n      jumpi\n        /* \"homework/level-02/05.Solidity \\xe7\\xbc\\x96\\xe7\\xa0\\x81\\xe8\\xa7\\x84\\xe8\\x8c\\x83\\xe3\\x80\\x81\\xe9\\xab\\x98\\xe7\\xba\\xa7\\xe7\\x89\\xb9\\xe6\\x80\\xa7/FibonacciLib.sol\":519:524  start */\n      sload(0x00)\n        /* \"homework/level-02/05.Solidity \\xe7\\xbc\\x96\\xe7\\xa0\\x81\\xe8\\xa7\\x84\\xe8\\x8c\\x83\\xe3\\x80\\x81\\xe9\\xab\\x98\\xe7\\xba\\xa7\\xe7\\x89\\xb9\\xe6\\x80\\xa7/FibonacciLib.sol\":512:524  return start */\n      swap1\n      pop\n      jump(tag_25)\n        /* \"homework/level-02/05.Solidity \\xe7\\xbc\\x96\\xe7\\xa0\\x81\\xe8\\xa7\\x84\\xe8\\x8c\\x83\\xe3\\x80\\x81\\xe9\\xab\\x98\\xe7\\xba\\xa7\\xe7\\x89\\xb9\\xe6\\x80\\xa7/FibonacciLib.sol\":500:626  if (n == 0) return start;... */\n    tag_26:\n        /* \"homework/level-02/05.Solidity \\xe7\\xbc\\x96\\xe7\\xa0\\x81\\xe8\\xa7\\x84\\xe8\\x8c\\x83\\xe3\\x80\\x81\\xe9\\xab\\x98\\xe7\\xba\\xa7\\xe7\\x89\\xb9\\xe6\\x80\\xa7/FibonacciLib.sol\":549:550  1 */\n      0x01\n        /* \"homework/level-02/05.Solidity \\xe7\\xbc\\x96\\xe7\\xa0\\x81\\xe8\\xa7\\x84\\xe8\\x8c\\x83\\xe3\\x80\\x81\\xe9\\xab\\x98\\xe7\\xba\\xa7\\xe7\\x89\\xb9\\xe6\\x80\\xa7/FibonacciLib.sol\":544:545  n */\n      dup3\n        /* \"homework/level-02/05.Solidity \\xe7\\xbc\\x96\\xe7\\xa0\\x81\\xe8\\xa7\\x84\\xe8\\x8c\\x83\\xe3\\x80\\x81\\xe9\\xab\\x98\\xe7\\xba\\xa7\\xe7\\x89\\xb9\\xe6\\x80\\xa7/FibonacciLib.sol\":544:550  n == 1 */\n      sub\n        /* \"homework/level-02/05.Solidity \\xe7\\xbc\\x96\\xe7\\xa0\\x81\\xe8\\xa7\\x84\\xe8\\x8c\\x83\\xe3\\x80\\x81\\xe9\\xab\\x98\\xe7\\xba\\xa7\\xe7\\x89\\xb9\\xe6\\x80\\xa7/FibonacciLib.sol\":540:626  if (n == 1) return start + 1;... */\n      tag_28\n      jumpi\n        /* \"homework/level-02/05.Solidity \\xe7\\xbc\\x96\\xe7\\xa0\\x81\\xe8\\xa7\\x84\\xe8\\x8c\\x83\\xe3\\x80\\x81\\xe9\\xab\\x98\\xe7\\xba\\xa7\\xe7\\x89\\xb9\\xe6\\x80\\xa7/FibonacciLib.sol\":567:568  1 */\n      0x01\n        /* \"homework/level-02/05.Solidity \\xe7\\xbc\\x96\\xe7\\xa0\\x81\\xe8\\xa7\\x84\\xe8\\x8c\\x83\\xe3\\x80\\x81\\xe9\\xab\\x98\\xe7\\xba\\xa7\\xe7\\x89\\xb9\\xe6\\x80\\xa7/FibonacciLib.sol\":559:564  start */\n      sload(0x00)\n        /* \"homework/level-02/05.Solidity \\xe7\\xbc\\x96\\xe7\\xa0\\x81\\xe8\\xa7\\x84\\xe8\\x8c\\x83\\xe3\\x80\\x81\\xe9\\xab\\x98\\xe7\\xba\\xa7\\xe7\\x89\\xb9\\xe6\\x80\\xa7/FibonacciLib.sol\":559:568  start + 1 */\n      tag_29\n      swap2\n      swap1\n      tag_30\n      jump\t// in\n    tag_29:\n        /* \"homework/level-02/05.Solidity \\xe7\\xbc\\x96\\xe7\\xa0\\x81\\xe8\\xa7\\x84\\xe8\\x8c\\x83\\xe3\\x80\\x81\\xe9\\xab\\x98\\xe7\\xba\\xa7\\xe7\\x89\\xb9\\xe6\\x80\\xa7/FibonacciLib.sol\":552:568  return start + 1 */\n      swap1\n      pop\n      jump(tag_25)\n        /* \"homework/level-02/05.Solidity \\xe7\\xbc\\x96\\xe7\\xa0\\x81\\xe8\\xa7\\x84\\xe8\\x8c\\x83\\xe3\\x80\\x81\\xe9\\xab\\x98\\xe7\\xba\\xa7\\xe7\\x89\\xb9\\xe6\\x80\\xa7/FibonacciLib.sol\":540:626  if (n == 1) return start + 1;... */\n    tag_28:\n        /* \"homework/level-02/05.Solidity \\xe7\\xbc\\x96\\xe7\\xa0\\x81\\xe8\\xa7\\x84\\xe8\\x8c\\x83\\xe3\\x80\\x81\\xe9\\xab\\x98\\xe7\\xba\\xa7\\xe7\\x89\\xb9\\xe6\\x80\\xa7/FibonacciLib.sol\":610:626  fibonacci(n - 2) */\n      tag_32\n        /* \"homework/level-02/05.Solidity \\xe7\\xbc\\x96\\xe7\\xa0\\x81\\xe8\\xa7\\x84\\xe8\\x8c\\x83\\xe3\\x80\\x81\\xe9\\xab\\x98\\xe7\\xba\\xa7\\xe7\\x89\\xb9\\xe6\\x80\\xa7/FibonacciLib.sol\":624:625  2 */\n      0x02\n        /* \"homework/level-02/05.Solidity \\xe7\\xbc\\x96\\xe7\\xa0\\x81\\xe8\\xa7\\x84\\xe8\\x8c\\x83\\xe3\\x80\\x81\\xe9\\xab\\x98\\xe7\\xba\\xa7\\xe7\\x89\\xb9\\xe6\\x80\\xa7/FibonacciLib.sol\":620:621  n */\n      dup4\n        /* \"homework/level-02/05.Solidity \\xe7\\xbc\\x96\\xe7\\xa0\\x81\\xe8\\xa7\\x84\\xe8\\x8c\\x83\\xe3\\x80\\x81\\xe9\\xab\\x98\\xe7\\xba\\xa7\\xe7\\x89\\xb9\\xe6\\x80\\xa7/FibonacciLib.sol\":620:625  n - 2 */\n      tag_33\n      swap2\n      swap1\n      tag_34\n      jump\t// in\n    tag_33:\n        /* \"homework/level-02/05.Solidity \\xe7\\xbc\\x96\\xe7\\xa0\\x81\\xe8\\xa7\\x84\\xe8\\x8c\\x83\\xe3\\x80\\x81\\xe9\\xab\\x98\\xe7\\xba\\xa7\\xe7\\x89\\xb9\\xe6\\x80\\xa7/FibonacciLib.sol\":610:619  fibonacci */\n      tag_24\n        /* \"homework/level-02/05.Solidity \\xe7\\xbc\\x96\\xe7\\xa0\\x81\\xe8\\xa7\\x84\\xe8\\x8c\\x83\\xe3\\x80\\x81\\xe9\\xab\\x98\\xe7\\xba\\xa7\\xe7\\x89\\xb9\\xe6\\x80\\xa7/FibonacciLib.sol\":610:626  fibonacci(n - 2) */\n      jump\t// in\n    tag_32:\n        /* \"homework/level-02/05.Solidity \\xe7\\xbc\\x96\\xe7\\xa0\\x81\\xe8\\xa7\\x84\\xe8\\x8c\\x83\\xe3\\x80\\x81\\xe9\\xab\\x98\\xe7\\xba\\xa7\\xe7\\x89\\xb9\\xe6\\x80\\xa7/FibonacciLib.sol\":591:607  fibonacci(n - 1) */\n      tag_35\n        /* \"homework/level-02/05.Solidity \\xe7\\xbc\\x96\\xe7\\xa0\\x81\\xe8\\xa7\\x84\\xe8\\x8c\\x83\\xe3\\x80\\x81\\xe9\\xab\\x98\\xe7\\xba\\xa7\\xe7\\x89\\xb9\\xe6\\x80\\xa7/FibonacciLib.sol\":605:606  1 */\n      0x01\n        /* \"homework/level-02/05.Solidity \\xe7\\xbc\\x96\\xe7\\xa0\\x81\\xe8\\xa7\\x84\\xe8\\x8c\\x83\\xe3\\x80\\x81\\xe9\\xab\\x98\\xe7\\xba\\xa7\\xe7\\x89\\xb9\\xe6\\x80\\xa7/FibonacciLib.sol\":601:602  n */\n      dup5\n        /* \"homework/level-02/05.Solidity \\xe7\\xbc\\x96\\xe7\\xa0\\x81\\xe8\\xa7\\x84\\xe8\\x8c\\x83\\xe3\\x80\\x81\\xe9\\xab\\x98\\xe7\\xba\\xa7\\xe7\\x89\\xb9\\xe6\\x80\\xa7/FibonacciLib.sol\":601:606  n - 1 */\n      tag_36\n      swap2\n      swap1\n      tag_34\n      jump\t// in\n    tag_36:\n        /* \"homework/level-02/05.Solidity \\xe7\\xbc\\x96\\xe7\\xa0\\x81\\xe8\\xa7\\x84\\xe8\\x8c\\x83\\xe3\\x80\\x81\\xe9\\xab\\x98\\xe7\\xba\\xa7\\xe7\\x89\\xb9\\xe6\\x80\\xa7/FibonacciLib.sol\":591:600  fibonacci */\n      tag_24\n        /* \"homework/level-02/05.Solidity \\xe7\\xbc\\x96\\xe7\\xa0\\x81\\xe8\\xa7\\x84\\xe8\\x8c\\x83\\xe3\\x80\\x81\\xe9\\xab\\x98\\xe7\\xba\\xa7\\xe7\\x89\\xb9\\xe6\\x80\\xa7/FibonacciLib.sol\":591:607  fibonacci(n - 1) */\n      jump\t// in\n    tag_35:\n        /* \"homework/level-02/05.Solidity \\xe7\\xbc\\x96\\xe7\\xa0\\x81\\xe8\\xa7\\x84\\xe8\\x8c\\x83\\xe3\\x80\\x81\\xe9\\xab\\x98\\xe7\\xba\\xa7\\xe7\\x89\\xb9\\xe6\\x80\\xa7/FibonacciLib.sol\":591:626  fibonacci(n - 1) + fibonacci(n - 2) */\n      tag_37\n      swap2\n      swap1\n      tag_30\n      jump\t// in\n    tag_37:\n        /* \"homework/level-02/05.Solidity \\xe7\\xbc\\x96\\xe7\\xa0\\x81\\xe8\\xa7\\x84\\xe8\\x8c\\x83\\xe3\\x80\\x81\\xe9\\xab\\x98\\xe7\\xba\\xa7\\xe7\\x89\\xb9\\xe6\\x80\\xa7/FibonacciLib.sol\":584:626  return fibonacci(n - 1) + fibonacci(n - 2) */\n      swap1\n      pop\n        /* \"homework/level-02/05.Solidity \\xe7\\xbc\\x96\\xe7\\xa0\\x81\\xe8\\xa7\\x84\\xe8\\x8c\\x83\\xe3\\x80\\x81\\xe9\\xab\\x98\\xe7\\xba\\xa7\\xe7\\x89\\xb9\\xe6\\x80\\xa7/FibonacciLib.sol\":438:634  function fibonacci(uint n) internal returns (uint) {... */\n    tag_25:\n      swap2\n      swap1\n      pop\n      jump\t// out\n        /* \"#utility.yul\":7:84   */\n    tag_38:\n        /* \"#utility.yul\":44:51   */\n      0x00\n        /* \"#utility.yul\":73:78   */\n      dup2\n        /* \"#utility.yul\":62:78   */\n      swap1\n      pop\n        /* \"#utility.yul\":7:84   */\n      swap2\n      swap1\n      pop\n      jump\t// out\n        /* \"#utility.yul\":90:208   */\n    tag_39:\n        /* \"#utility.yul\":177:201   */\n      tag_49\n        /* \"#utility.yul\":195:200   */\n      dup2\n        /* \"#utility.yul\":177:201   */\n      tag_38\n      jump\t// in\n    tag_49:\n        /* \"#utility.yul\":172:175   */\n      dup3\n        /* \"#utility.yul\":165:202   */\n      mstore\n        /* \"#utility.yul\":90:208   */\n      pop\n      pop\n      jump\t// out\n        /* \"#utility.yul\":214:436   */\n    tag_10:\n        /* \"#utility.yul\":307:311   */\n      0x00\n        /* \"#utility.yul\":345:347   */\n      0x20\n        /* \"#utility.yul\":334:343   */\n      dup3\n        /* \"#utility.yul\":330:348   */\n      add\n        /* \"#utility.yul\":322:348   */\n      swap1\n      pop\n        /* \"#utility.yul\":358:429   */\n      tag_51\n        /* \"#utility.yul\":426:427   */\n      0x00\n        /* \"#utility.yul\":415:424   */\n      dup4\n        /* \"#utility.yul\":411:428   */\n      add\n        /* \"#utility.yul\":402:408   */\n      dup5\n        /* \"#utility.yul\":358:429   */\n      tag_39\n      jump\t// in\n    tag_51:\n        /* \"#utility.yul\":214:436   */\n      swap3\n      swap2\n      pop\n      pop\n      jump\t// out\n        /* \"#utility.yul\":523:640   */\n    tag_41:\n        /* \"#utility.yul\":632:633   */\n      0x00\n        /* \"#utility.yul\":629:630   */\n      dup1\n        /* \"#utility.yul\":622:634   */\n      revert\n        /* \"#utility.yul\":769:891   */\n    tag_43:\n        /* \"#utility.yul\":842:866   */\n      tag_56\n        /* \"#utility.yul\":860:865   */\n      dup2\n        /* \"#utility.yul\":842:866   */\n      tag_38\n      jump\t// in\n    tag_56:\n        /* \"#utility.yul\":835:840   */\n      dup2\n        /* \"#utility.yul\":832:867   */\n      eq\n        /* \"#utility.yul\":822:885   */\n      tag_57\n      jumpi\n        /* \"#utility.yul\":881:882   */\n      0x00\n        /* \"#utility.yul\":878:879   */\n      dup1\n        /* \"#utility.yul\":871:883   */\n      revert\n        /* \"#utility.yul\":822:885   */\n    tag_57:\n        /* \"#utility.yul\":769:891   */\n      pop\n      jump\t// out\n        /* \"#utility.yul\":897:1036   */\n    tag_44:\n        /* \"#utility.yul\":943:948   */\n      0x00\n        /* \"#utility.yul\":981:987   */\n      dup2\n        /* \"#utility.yul\":968:988   */\n      calldataload\n        /* \"#utility.yul\":959:988   */\n      swap1\n      pop\n        /* \"#utility.yul\":997:1030   */\n      tag_59\n        /* \"#utility.yul\":1024:1029   */\n      dup2\n        /* \"#utility.yul\":997:1030   */\n      tag_43\n      jump\t// in\n    tag_59:\n        /* \"#utility.yul\":897:1036   */\n      swap3\n      swap2\n      pop\n      pop\n      jump\t// out\n        /* \"#utility.yul\":1042:1371   */\n    tag_16:\n        /* \"#utility.yul\":1101:1107   */\n      0x00\n        /* \"#utility.yul\":1150:1152   */\n      0x20\n        /* \"#utility.yul\":1138:1147   */\n      dup3\n        /* \"#utility.yul\":1129:1136   */\n      dup5\n        /* \"#utility.yul\":1125:1148   */\n      sub\n        /* \"#utility.yul\":1121:1153   */\n      slt\n        /* \"#utility.yul\":1118:1237   */\n      iszero\n      tag_61\n      jumpi\n        /* \"#utility.yul\":1156:1235   */\n      tag_62\n      tag_41\n      jump\t// in\n    tag_62:\n        /* \"#utility.yul\":1118:1237   */\n    tag_61:\n        /* \"#utility.yul\":1276:1277   */\n      0x00\n        /* \"#utility.yul\":1301:1354   */\n      tag_63\n        /* \"#utility.yul\":1346:1353   */\n      dup5\n        /* \"#utility.yul\":1337:1343   */\n      dup3\n        /* \"#utility.yul\":1326:1335   */\n      dup6\n        /* \"#utility.yul\":1322:1344   */\n      add\n        /* \"#utility.yul\":1301:1354   */\n      tag_44\n      jump\t// in\n    tag_63:\n        /* \"#utility.yul\":1291:1354   */\n      swap2\n      pop\n        /* \"#utility.yul\":1247:1364   */\n      pop\n        /* \"#utility.yul\":1042:1371   */\n      swap3\n      swap2\n      pop\n      pop\n      jump\t// out\n        /* \"#utility.yul\":1377:1557   */\n    tag_45:\n        /* \"#utility.yul\":1425:1502   */\n      0x4e487b7100000000000000000000000000000000000000000000000000000000\n        /* \"#utility.yul\":1422:1423   */\n      0x00\n        /* \"#utility.yul\":1415:1503   */\n      mstore\n        /* \"#utility.yul\":1522:1526   */\n      0x11\n        /* \"#utility.yul\":1519:1520   */\n      0x04\n        /* \"#utility.yul\":1512:1527   */\n      mstore\n        /* \"#utility.yul\":1546:1550   */\n      0x24\n        /* \"#utility.yul\":1543:1544   */\n      0x00\n        /* \"#utility.yul\":1536:1551   */\n      revert\n        /* \"#utility.yul\":1563:1754   */\n    tag_30:\n        /* \"#utility.yul\":1603:1606   */\n      0x00\n        /* \"#utility.yul\":1622:1642   */\n      tag_66\n        /* \"#utility.yul\":1640:1641   */\n      dup3\n        /* \"#utility.yul\":1622:1642   */\n      tag_38\n      jump\t// in\n    tag_66:\n        /* \"#utility.yul\":1617:1642   */\n      swap2\n      pop\n        /* \"#utility.yul\":1656:1676   */\n      tag_67\n        /* \"#utility.yul\":1674:1675   */\n      dup4\n        /* \"#utility.yul\":1656:1676   */\n      tag_38\n      jump\t// in\n    tag_67:\n        /* \"#utility.yul\":1651:1676   */\n      swap3\n      pop\n        /* \"#utility.yul\":1699:1700   */\n      dup3\n        /* \"#utility.yul\":1696:1697   */\n      dup3\n        /* \"#utility.yul\":1692:1701   */\n      add\n        /* \"#utility.yul\":1685:1701   */\n      swap1\n      pop\n        /* \"#utility.yul\":1720:1723   */\n      dup1\n        /* \"#utility.yul\":1717:1718   */\n      dup3\n        /* \"#utility.yul\":1714:1724   */\n      gt\n        /* \"#utility.yul\":1711:1747   */\n      iszero\n      tag_68\n      jumpi\n        /* \"#utility.yul\":1727:1745   */\n      tag_69\n      tag_45\n      jump\t// in\n    tag_69:\n        /* \"#utility.yul\":1711:1747   */\n    tag_68:\n        /* \"#utility.yul\":1563:1754   */\n      swap3\n      swap2\n      pop\n      pop\n      jump\t// out\n        /* \"#utility.yul\":1760:1954   */\n    tag_34:\n        /* \"#utility.yul\":1800:1804   */\n      0x00\n        /* \"#utility.yul\":1820:1840   */\n      tag_71\n        /* \"#utility.yul\":1838:1839   */\n      dup3\n        /* \"#utility.yul\":1820:1840   */\n      tag_38\n      jump\t// in\n    tag_71:\n        /* \"#utility.yul\":1815:1840   */\n      swap2\n      pop\n        /* \"#utility.yul\":1854:1874   */\n      tag_72\n        /* \"#utility.yul\":1872:1873   */\n      dup4\n        /* \"#utility.yul\":1854:1874   */\n      tag_38\n      jump\t// in\n    tag_72:\n        /* \"#utility.yul\":1849:1874   */\n      swap3\n      pop\n        /* \"#utility.yul\":1898:1899   */\n      dup3\n        /* \"#utility.yul\":1895:1896   */\n      dup3\n        /* \"#utility.yul\":1891:1900   */\n      sub\n        /* \"#utility.yul\":1883:1900   */\n      swap1\n      pop\n        /* \"#utility.yul\":1922:1923   */\n      dup2\n        /* \"#utility.yul\":1916:1920   */\n      dup2\n        /* \"#utility.yul\":1913:1924   */\n      gt\n        /* \"#utility.yul\":1910:1947   */\n      iszero\n      tag_73\n      jumpi\n        /* \"#utility.yul\":1927:1945   */\n      tag_74\n      tag_45\n      jump\t// in\n    tag_74:\n        /* \"#utility.yul\":1910:1947   */\n    tag_73:\n        /* \"#utility.yul\":1760:1954   */\n      swap3\n      swap2\n      pop\n      pop\n      jump\t// out\n\n    auxdata: 0xa26469706673582212209c1ae42ce9e42c1ca544dd582dcb0dead35f2a7844089e18ad51f0c582ed2ef964736f6c634300081a0033\n}\n",
				"bytecode": {
					"linkReferences": {},
					"object": "6080604052348015600e575f80fd5b506102a58061001c5f395ff3fe608060405234801561000f575f80fd5b506004361061004a575f3560e01c8063bbe1d75b1461004e578063be9a65551461006c578063f6a03ebf1461008a578063fe75faab146100a6575b5f80fd5b6100566100c2565b604051610063919061016a565b60405180910390f35b6100746100c8565b604051610081919061016a565b60405180910390f35b6100a4600480360381019061009f91906101b1565b6100cd565b005b6100c060048036038101906100bb91906101b1565b6100d6565b005b60015481565b5f5481565b805f8190555050565b6100df816100e8565b60018190555050565b5f8082036100f9575f54905061014d565b600182036101165760015f5461010f9190610209565b905061014d565b61012b600283610126919061023c565b6100e8565b61014060018461013b919061023c565b6100e8565b61014a9190610209565b90505b919050565b5f819050919050565b61016481610152565b82525050565b5f60208201905061017d5f83018461015b565b92915050565b5f80fd5b61019081610152565b811461019a575f80fd5b50565b5f813590506101ab81610187565b92915050565b5f602082840312156101c6576101c5610183565b5b5f6101d38482850161019d565b91505092915050565b7f4e487b71000000000000000000000000000000000000000000000000000000005f52601160045260245ffd5b5f61021382610152565b915061021e83610152565b9250828201905080821115610236576102356101dc565b5b92915050565b5f61024682610152565b915061025183610152565b9250828203905081811115610269576102686101dc565b5b9291505056fea26469706673582212209c1ae42ce9e42c1ca544dd582dcb0dead35f2a7844089e18ad51f0c582ed2ef964736f6c634300081a0033",
					"opcodes": "PUSH1 0x80 PUSH1 0x40 MSTORE CALLVALUE DUP1 ISZERO PUSH1 0xE JUMPI PUSH0 DUP1 REVERT JUMPDEST POP PUSH2 0x2A5 DUP1 PUSH2 0x1C PUSH0 CODECOPY PUSH0 RETURN INVALID PUSH1 0x80 PUSH1 0x40 MSTORE CALLVALUE DUP1 ISZERO PUSH2 0xF JUMPI PUSH0 DUP1 REVERT JUMPDEST POP PUSH1 0x4 CALLDATASIZE LT PUSH2 0x4A JUMPI PUSH0 CALLDATALOAD PUSH1 0xE0 SHR DUP1 PUSH4 0xBBE1D75B EQ PUSH2 0x4E JUMPI DUP1 PUSH4 0xBE9A6555 EQ PUSH2 0x6C JUMPI DUP1 PUSH4 0xF6A03EBF EQ PUSH2 0x8A JUMPI DUP1 PUSH4 0xFE75FAAB EQ PUSH2 0xA6 JUMPI JUMPDEST PUSH0 DUP1 REVERT JUMPDEST PUSH2 0x56 PUSH2 0xC2 JUMP JUMPDEST PUSH1 0x40 MLOAD PUSH2 0x63 SWAP2 SWAP1 PUSH2 0x16A JUMP JUMPDEST PUSH1 0x40 MLOAD DUP1 SWAP2 SUB SWAP1 RETURN JUMPDEST PUSH2 0x74 PUSH2 0xC8 JUMP JUMPDEST PUSH1 0x40 MLOAD PUSH2 0x81 SWAP2 SWAP1 PUSH2 0x16A JUMP JUMPDEST PUSH1 0x40 MLOAD DUP1 SWAP2 SUB SWAP1 RETURN JUMPDEST PUSH2 0xA4 PUSH1 0x4 DUP1 CALLDATASIZE SUB DUP2 ADD SWAP1 PUSH2 0x9F SWAP2 SWAP1 PUSH2 0x1B1 JUMP JUMPDEST PUSH2 0xCD JUMP JUMPDEST STOP JUMPDEST PUSH2 0xC0 PUSH1 0x4 DUP1 CALLDATASIZE SUB DUP2 ADD SWAP1 PUSH2 0xBB SWAP2 SWAP1 PUSH2 0x1B1 JUMP JUMPDEST PUSH2 0xD6 JUMP JUMPDEST STOP JUMPDEST PUSH1 0x1 SLOAD DUP2 JUMP JUMPDEST PUSH0 SLOAD DUP2 JUMP JUMPDEST DUP1 PUSH0 DUP2 SWAP1 SSTORE POP POP JUMP JUMPDEST PUSH2 0xDF DUP2 PUSH2 0xE8 JUMP JUMPDEST PUSH1 0x1 DUP2 SWAP1 SSTORE POP POP JUMP JUMPDEST PUSH0 DUP1 DUP3 SUB PUSH2 0xF9 JUMPI PUSH0 SLOAD SWAP1 POP PUSH2 0x14D JUMP JUMPDEST PUSH1 0x1 DUP3 SUB PUSH2 0x116 JUMPI PUSH1 0x1 PUSH0 SLOAD PUSH2 0x10F SWAP2 SWAP1 PUSH2 0x209 JUMP JUMPDEST SWAP1 POP PUSH2 0x14D JUMP JUMPDEST PUSH2 0x12B PUSH1 0x2 DUP4 PUSH2 0x126 SWAP2 SWAP1 PUSH2 0x23C JUMP JUMPDEST PUSH2 0xE8 JUMP JUMPDEST PUSH2 0x140 PUSH1 0x1 DUP5 PUSH2 0x13B SWAP2 SWAP1 PUSH2 0x23C JUMP JUMPDEST PUSH2 0xE8 JUMP JUMPDEST PUSH2 0x14A SWAP2 SWAP1 PUSH2 0x209 JUMP JUMPDEST SWAP1 POP JUMPDEST SWAP2 SWAP1 POP JUMP JUMPDEST PUSH0 DUP2 SWAP1 POP SWAP2 SWAP1 POP JUMP JUMPDEST PUSH2 0x164 DUP2 PUSH2 0x152 JUMP JUMPDEST DUP3 MSTORE POP POP JUMP JUMPDEST PUSH0 PUSH1 0x20 DUP3 ADD SWAP1 POP PUSH2 0x17D PUSH0 DUP4 ADD DUP5 PUSH2 0x15B JUMP JUMPDEST SWAP3 SWAP2 POP POP JUMP JUMPDEST PUSH0 DUP1 REVERT JUMPDEST PUSH2 0x190 DUP2 PUSH2 0x152 JUMP JUMPDEST DUP2 EQ PUSH2 0x19A JUMPI PUSH0 DUP1 REVERT JUMPDEST POP JUMP JUMPDEST PUSH0 DUP2 CALLDATALOAD SWAP1 POP PUSH2 0x1AB DUP2 PUSH2 0x187 JUMP JUMPDEST SWAP3 SWAP2 POP POP JUMP JUMPDEST PUSH0 PUSH1 0x20 DUP3 DUP5 SUB SLT ISZERO PUSH2 0x1C6 JUMPI PUSH2 0x1C5 PUSH2 0x183 JUMP JUMPDEST JUMPDEST PUSH0 PUSH2 0x1D3 DUP5 DUP3 DUP6 ADD PUSH2 0x19D JUMP JUMPDEST SWAP2 POP POP SWAP3 SWAP2 POP POP JUMP JUMPDEST PUSH32 0x4E487B7100000000000000000000000000000000000000000000000000000000 PUSH0 MSTORE PUSH1 0x11 PUSH1 0x4 MSTORE PUSH1 0x24 PUSH0 REVERT JUMPDEST PUSH0 PUSH2 0x213 DUP3 PUSH2 0x152 JUMP JUMPDEST SWAP2 POP PUSH2 0x21E DUP4 PUSH2 0x152 JUMP JUMPDEST SWAP3 POP DUP3 DUP3 ADD SWAP1 POP DUP1 DUP3 GT ISZERO PUSH2 0x236 JUMPI PUSH2 0x235 PUSH2 0x1DC JUMP JUMPDEST JUMPDEST SWAP3 SWAP2 POP POP JUMP JUMPDEST PUSH0 PUSH2 0x246 DUP3 PUSH2 0x152 JUMP JUMPDEST SWAP2 POP PUSH2 0x251 DUP4 PUSH2 0x152 JUMP JUMPDEST SWAP3 POP DUP3 DUP3 SUB SWAP1 POP DUP2 DUP2 GT ISZERO PUSH2 0x269 JUMPI PUSH2 0x268 PUSH2 0x1DC JUMP JUMPDEST JUMPDEST SWAP3 SWAP2 POP POP JUMP INVALID LOG2 PUSH5 0x6970667358 0x22 SLT KECCAK256 SWAP13 BYTE 0xE4 0x2C 0xE9 0xE4 0x2C SHR 0xA5 PREVRANDAO 0xDD PC 0x2D 0xCB 0xD 0xEA 0xD3 PUSH0 0x2A PUSH25 0x44089E18AD51F0C582ED2EF964736F6C634300081A00330000 "
				},
				"gasEstimates": {
					"creation": {
						"codeDepositCost": "135400",
						"executionCost": "181",
						"totalCost": "135581"
					},
					"external": {
						"calculatedFibNumber()": "2403",
						"setFibonacci(uint256)": "infinite",
						"setStart(uint256)": "22536",
						"start()": "2424"
					},
					"internal": {
						"fibonacci(uint256)": "infinite"
					}
				},
				"methodIdentifiers": {
					"calculatedFibNumber()": "bbe1d75b",
					"setFibonacci(uint256)": "fe75faab",
					"setStart(uint256)": "f6a03ebf",
					"start()": "be9a6555"
				}
			},
			"storageLayout": {
				"storage": [
					{
						"astId": 3,
						"contract": "homework/level-02/05.Solidity 编码规范、高级特性/FibonacciLib.sol:FibonacciLib",
						"label": "start",
						"offset": 0,
						"slot": "0",
						"type": "t_uint256"
					},
					{
						"astId": 5,
						"contract": "homework/level-02/05.Solidity 编码规范、高级特性/FibonacciLib.sol:FibonacciLib",
						"label": "calculatedFibNumber",
						"offset": 0,
						"slot": "1",
						"type": "t_uint256"
					}
				],
				"types": {
					"t_uint256": {
						"encoding": "inplace",
						"label": "uint256",
						"numberOfBytes": "32"
					}
				}
			},
			"userdoc": {
				"kind": "user",
				"methods": {},
				"version": 1
			}
		}
	}
}