{
	"homework/level-02/05.Solidity 编码规范、高级特性/HelloWorld.sol": {
		"HelloWorld": {
			"abi": [
				{
					"inputs": [],
					"name": "get",
					"outputs": [
						{
							"internalType": "string",
							"name": "",
							"type": "string"
						}
					],
					"stateMutability": "view",
					"type": "function"
				},
				{
					"inputs": [],
					"name": "getSelf",
					"outputs": [
						{
							"internalType": "address",
							"name": "",
							"type": "address"
						}
					],
					"stateMutability": "view",
					"type": "function"
				},
				{
					"inputs": [],
					"name": "getSelf2",
					"outputs": [
						{
							"internalType": "address",
							"name": "",
							"type": "address"
						}
					],
					"stateMutability": "view",
					"type": "function"
				},
				{
					"inputs": [
						{
							"internalType": "string",
							"name": "message",
							"type": "string"
						}
					],
					"name": "set",
					"outputs": [],
					"stateMutability": "nonpayable",
					"type": "function"
				}
			],
			"devdoc": {
				"kind": "dev",
				"methods": {},
				"version": 1
			},
			"evm": {
				"assembly": "    /* \"homework/level-02/05.Solidity \\xe7\\xbc\\x96\\xe7\\xa0\\x81\\xe8\\xa7\\x84\\xe8\\x8c\\x83\\xe3\\x80\\x81\\xe9\\xab\\x98\\xe7\\xba\\xa7\\xe7\\x89\\xb9\\xe6\\x80\\xa7/HelloWorld.sol\":67:480  contract HelloWorld {... */\n  mstore(0x40, 0x80)\n  callvalue\n  dup1\n  iszero\n  tag_1\n  jumpi\n  0x00\n  dup1\n  revert\ntag_1:\n  pop\n  dataSize(sub_0)\n  dup1\n  dataOffset(sub_0)\n  0x00\n  codecopy\n  0x00\n  return\nstop\n\nsub_0: assembly {\n        /* \"homework/level-02/05.Solidity \\xe7\\xbc\\x96\\xe7\\xa0\\x81\\xe8\\xa7\\x84\\xe8\\x8c\\x83\\xe3\\x80\\x81\\xe9\\xab\\x98\\xe7\\xba\\xa7\\xe7\\x89\\xb9\\xe6\\x80\\xa7/HelloWorld.sol\":67:480  contract HelloWorld {... */\n      mstore(0x40, 0x80)\n      callvalue\n      dup1\n      iszero\n      tag_1\n      jumpi\n      0x00\n      dup1\n      revert\n    tag_1:\n      pop\n      jumpi(tag_2, lt(calldatasize, 0x04))\n      shr(0xe0, calldataload(0x00))\n      dup1\n      0x4ed3885e\n      eq\n      tag_3\n      jumpi\n      dup1\n      0x6d4ce63c\n      eq\n      tag_4\n      jumpi\n      dup1\n      0x9dd86cde\n      eq\n      tag_5\n      jumpi\n      dup1\n      0xe237f75b\n      eq\n      tag_6\n      jumpi\n    tag_2:\n      0x00\n      dup1\n      revert\n        /* \"homework/level-02/05.Solidity \\xe7\\xbc\\x96\\xe7\\xa0\\x81\\xe8\\xa7\\x84\\xe8\\x8c\\x83\\xe3\\x80\\x81\\xe9\\xab\\x98\\xe7\\xba\\xa7\\xe7\\x89\\xb9\\xe6\\x80\\xa7/HelloWorld.sol\":118:198  function set(string memory message) public {... */\n    tag_3:\n      tag_7\n      0x04\n      dup1\n      calldatasize\n      sub\n      dup2\n      add\n      swap1\n      tag_8\n      swap2\n      swap1\n      tag_9\n      jump\t// in\n    tag_8:\n      tag_10\n      jump\t// in\n    tag_7:\n      stop\n        /* \"homework/level-02/05.Solidity \\xe7\\xbc\\x96\\xe7\\xa0\\x81\\xe8\\xa7\\x84\\xe8\\x8c\\x83\\xe3\\x80\\x81\\xe9\\xab\\x98\\xe7\\xba\\xa7\\xe7\\x89\\xb9\\xe6\\x80\\xa7/HelloWorld.sol\":206:291  function get() public view returns (string memory) {... */\n    tag_4:\n      tag_11\n      tag_12\n      jump\t// in\n    tag_11:\n      mload(0x40)\n      tag_13\n      swap2\n      swap1\n      tag_14\n      jump\t// in\n    tag_13:\n      mload(0x40)\n      dup1\n      swap2\n      sub\n      swap1\n      return\n        /* \"homework/level-02/05.Solidity \\xe7\\xbc\\x96\\xe7\\xa0\\x81\\xe8\\xa7\\x84\\xe8\\x8c\\x83\\xe3\\x80\\x81\\xe9\\xab\\x98\\xe7\\xba\\xa7\\xe7\\x89\\xb9\\xe6\\x80\\xa7/HelloWorld.sol\":390:477  function getSelf2() public view returns(address){... */\n    tag_5:\n      tag_15\n      tag_16\n      jump\t// in\n    tag_15:\n      mload(0x40)\n      tag_17\n      swap2\n      swap1\n      tag_18\n      jump\t// in\n    tag_17:\n      mload(0x40)\n      dup1\n      swap2\n      sub\n      swap1\n      return\n        /* \"homework/level-02/05.Solidity \\xe7\\xbc\\x96\\xe7\\xa0\\x81\\xe8\\xa7\\x84\\xe8\\x8c\\x83\\xe3\\x80\\x81\\xe9\\xab\\x98\\xe7\\xba\\xa7\\xe7\\x89\\xb9\\xe6\\x80\\xa7/HelloWorld.sol\":299:382  function getSelf() public view returns(address){... */\n    tag_6:\n      tag_19\n      tag_20\n      jump\t// in\n    tag_19:\n      mload(0x40)\n      tag_21\n      swap2\n      swap1\n      tag_18\n      jump\t// in\n    tag_21:\n      mload(0x40)\n      dup1\n      swap2\n      sub\n      swap1\n      return\n        /* \"homework/level-02/05.Solidity \\xe7\\xbc\\x96\\xe7\\xa0\\x81\\xe8\\xa7\\x84\\xe8\\x8c\\x83\\xe3\\x80\\x81\\xe9\\xab\\x98\\xe7\\xba\\xa7\\xe7\\x89\\xb9\\xe6\\x80\\xa7/HelloWorld.sol\":118:198  function set(string memory message) public {... */\n    tag_10:\n        /* \"homework/level-02/05.Solidity \\xe7\\xbc\\x96\\xe7\\xa0\\x81\\xe8\\xa7\\x84\\xe8\\x8c\\x83\\xe3\\x80\\x81\\xe9\\xab\\x98\\xe7\\xba\\xa7\\xe7\\x89\\xb9\\xe6\\x80\\xa7/HelloWorld.sol\":183:190  message */\n      dup1\n        /* \"homework/level-02/05.Solidity \\xe7\\xbc\\x96\\xe7\\xa0\\x81\\xe8\\xa7\\x84\\xe8\\x8c\\x83\\xe3\\x80\\x81\\xe9\\xab\\x98\\xe7\\xba\\xa7\\xe7\\x89\\xb9\\xe6\\x80\\xa7/HelloWorld.sol\":172:180  storeMsg */\n      0x00\n        /* \"homework/level-02/05.Solidity \\xe7\\xbc\\x96\\xe7\\xa0\\x81\\xe8\\xa7\\x84\\xe8\\x8c\\x83\\xe3\\x80\\x81\\xe9\\xab\\x98\\xe7\\xba\\xa7\\xe7\\x89\\xb9\\xe6\\x80\\xa7/HelloWorld.sol\":172:190  storeMsg = message */\n      swap1\n      dup2\n      tag_23\n      swap2\n      swap1\n      tag_24\n      jump\t// in\n    tag_23:\n      pop\n        /* \"homework/level-02/05.Solidity \\xe7\\xbc\\x96\\xe7\\xa0\\x81\\xe8\\xa7\\x84\\xe8\\x8c\\x83\\xe3\\x80\\x81\\xe9\\xab\\x98\\xe7\\xba\\xa7\\xe7\\x89\\xb9\\xe6\\x80\\xa7/HelloWorld.sol\":118:198  function set(string memory message) public {... */\n      pop\n      jump\t// out\n        /* \"homework/level-02/05.Solidity \\xe7\\xbc\\x96\\xe7\\xa0\\x81\\xe8\\xa7\\x84\\xe8\\x8c\\x83\\xe3\\x80\\x81\\xe9\\xab\\x98\\xe7\\xba\\xa7\\xe7\\x89\\xb9\\xe6\\x80\\xa7/HelloWorld.sol\":206:291  function get() public view returns (string memory) {... */\n    tag_12:\n        /* \"homework/level-02/05.Solidity \\xe7\\xbc\\x96\\xe7\\xa0\\x81\\xe8\\xa7\\x84\\xe8\\x8c\\x83\\xe3\\x80\\x81\\xe9\\xab\\x98\\xe7\\xba\\xa7\\xe7\\x89\\xb9\\xe6\\x80\\xa7/HelloWorld.sol\":242:255  string memory */\n      0x60\n        /* \"homework/level-02/05.Solidity \\xe7\\xbc\\x96\\xe7\\xa0\\x81\\xe8\\xa7\\x84\\xe8\\x8c\\x83\\xe3\\x80\\x81\\xe9\\xab\\x98\\xe7\\xba\\xa7\\xe7\\x89\\xb9\\xe6\\x80\\xa7/HelloWorld.sol\":275:283  storeMsg */\n      0x00\n        /* \"homework/level-02/05.Solidity \\xe7\\xbc\\x96\\xe7\\xa0\\x81\\xe8\\xa7\\x84\\xe8\\x8c\\x83\\xe3\\x80\\x81\\xe9\\xab\\x98\\xe7\\xba\\xa7\\xe7\\x89\\xb9\\xe6\\x80\\xa7/HelloWorld.sol\":268:283  return storeMsg */\n      dup1\n      sload\n      tag_26\n      swap1\n      tag_27\n      jump\t// in\n    tag_26:\n      dup1\n      0x1f\n      add\n      0x20\n      dup1\n      swap2\n      div\n      mul\n      0x20\n      add\n      mload(0x40)\n      swap1\n      dup2\n      add\n      0x40\n      mstore\n      dup1\n      swap3\n      swap2\n      swap1\n      dup2\n      dup2\n      mstore\n      0x20\n      add\n      dup3\n      dup1\n      sload\n      tag_28\n      swap1\n      tag_27\n      jump\t// in\n    tag_28:\n      dup1\n      iszero\n      tag_29\n      jumpi\n      dup1\n      0x1f\n      lt\n      tag_30\n      jumpi\n      0x0100\n      dup1\n      dup4\n      sload\n      div\n      mul\n      dup4\n      mstore\n      swap2\n      0x20\n      add\n      swap2\n      jump(tag_29)\n    tag_30:\n      dup3\n      add\n      swap2\n      swap1\n      0x00\n      mstore\n      keccak256(0x00, 0x20)\n      swap1\n    tag_31:\n      dup2\n      sload\n      dup2\n      mstore\n      swap1\n      0x01\n      add\n      swap1\n      0x20\n      add\n      dup1\n      dup4\n      gt\n      tag_31\n      jumpi\n      dup3\n      swap1\n      sub\n      0x1f\n      and\n      dup3\n      add\n      swap2\n    tag_29:\n      pop\n      pop\n      pop\n      pop\n      pop\n      swap1\n      pop\n        /* \"homework/level-02/05.Solidity \\xe7\\xbc\\x96\\xe7\\xa0\\x81\\xe8\\xa7\\x84\\xe8\\x8c\\x83\\xe3\\x80\\x81\\xe9\\xab\\x98\\xe7\\xba\\xa7\\xe7\\x89\\xb9\\xe6\\x80\\xa7/HelloWorld.sol\":206:291  function get() public view returns (string memory) {... */\n      swap1\n      jump\t// out\n        /* \"homework/level-02/05.Solidity \\xe7\\xbc\\x96\\xe7\\xa0\\x81\\xe8\\xa7\\x84\\xe8\\x8c\\x83\\xe3\\x80\\x81\\xe9\\xab\\x98\\xe7\\xba\\xa7\\xe7\\x89\\xb9\\xe6\\x80\\xa7/HelloWorld.sol\":390:477  function getSelf2() public view returns(address){... */\n    tag_16:\n        /* \"homework/level-02/05.Solidity \\xe7\\xbc\\x96\\xe7\\xa0\\x81\\xe8\\xa7\\x84\\xe8\\x8c\\x83\\xe3\\x80\\x81\\xe9\\xab\\x98\\xe7\\xba\\xa7\\xe7\\x89\\xb9\\xe6\\x80\\xa7/HelloWorld.sol\":430:437  address */\n      0x00\n        /* \"homework/level-02/05.Solidity \\xe7\\xbc\\x96\\xe7\\xa0\\x81\\xe8\\xa7\\x84\\xe8\\x8c\\x83\\xe3\\x80\\x81\\xe9\\xab\\x98\\xe7\\xba\\xa7\\xe7\\x89\\xb9\\xe6\\x80\\xa7/HelloWorld.sol\":464:468  this */\n      address\n        /* \"homework/level-02/05.Solidity \\xe7\\xbc\\x96\\xe7\\xa0\\x81\\xe8\\xa7\\x84\\xe8\\x8c\\x83\\xe3\\x80\\x81\\xe9\\xab\\x98\\xe7\\xba\\xa7\\xe7\\x89\\xb9\\xe6\\x80\\xa7/HelloWorld.sol\":449:469  return address(this) */\n      swap1\n      pop\n        /* \"homework/level-02/05.Solidity \\xe7\\xbc\\x96\\xe7\\xa0\\x81\\xe8\\xa7\\x84\\xe8\\x8c\\x83\\xe3\\x80\\x81\\xe9\\xab\\x98\\xe7\\xba\\xa7\\xe7\\x89\\xb9\\xe6\\x80\\xa7/HelloWorld.sol\":390:477  function getSelf2() public view returns(address){... */\n      swap1\n      jump\t// out\n        /* \"homework/level-02/05.Solidity \\xe7\\xbc\\x96\\xe7\\xa0\\x81\\xe8\\xa7\\x84\\xe8\\x8c\\x83\\xe3\\x80\\x81\\xe9\\xab\\x98\\xe7\\xba\\xa7\\xe7\\x89\\xb9\\xe6\\x80\\xa7/HelloWorld.sol\":299:382  function getSelf() public view returns(address){... */\n    tag_20:\n        /* \"homework/level-02/05.Solidity \\xe7\\xbc\\x96\\xe7\\xa0\\x81\\xe8\\xa7\\x84\\xe8\\x8c\\x83\\xe3\\x80\\x81\\xe9\\xab\\x98\\xe7\\xba\\xa7\\xe7\\x89\\xb9\\xe6\\x80\\xa7/HelloWorld.sol\":338:345  address */\n      0x00\n        /* \"homework/level-02/05.Solidity \\xe7\\xbc\\x96\\xe7\\xa0\\x81\\xe8\\xa7\\x84\\xe8\\x8c\\x83\\xe3\\x80\\x81\\xe9\\xab\\x98\\xe7\\xba\\xa7\\xe7\\x89\\xb9\\xe6\\x80\\xa7/HelloWorld.sol\":364:374  msg.sender */\n      caller\n        /* \"homework/level-02/05.Solidity \\xe7\\xbc\\x96\\xe7\\xa0\\x81\\xe8\\xa7\\x84\\xe8\\x8c\\x83\\xe3\\x80\\x81\\xe9\\xab\\x98\\xe7\\xba\\xa7\\xe7\\x89\\xb9\\xe6\\x80\\xa7/HelloWorld.sol\":357:374  return msg.sender */\n      swap1\n      pop\n        /* \"homework/level-02/05.Solidity \\xe7\\xbc\\x96\\xe7\\xa0\\x81\\xe8\\xa7\\x84\\xe8\\x8c\\x83\\xe3\\x80\\x81\\xe9\\xab\\x98\\xe7\\xba\\xa7\\xe7\\x89\\xb9\\xe6\\x80\\xa7/HelloWorld.sol\":299:382  function getSelf() public view returns(address){... */\n      swap1\n      jump\t// out\n        /* \"#utility.yul\":7:82   */\n    tag_34:\n        /* \"#utility.yul\":40:46   */\n      0x00\n        /* \"#utility.yul\":73:75   */\n      0x40\n        /* \"#utility.yul\":67:76   */\n      mload\n        /* \"#utility.yul\":57:76   */\n      swap1\n      pop\n        /* \"#utility.yul\":7:82   */\n      swap1\n      jump\t// out\n        /* \"#utility.yul\":88:205   */\n    tag_35:\n        /* \"#utility.yul\":197:198   */\n      0x00\n        /* \"#utility.yul\":194:195   */\n      dup1\n        /* \"#utility.yul\":187:199   */\n      revert\n        /* \"#utility.yul\":211:328   */\n    tag_36:\n        /* \"#utility.yul\":320:321   */\n      0x00\n        /* \"#utility.yul\":317:318   */\n      dup1\n        /* \"#utility.yul\":310:322   */\n      revert\n        /* \"#utility.yul\":334:451   */\n    tag_37:\n        /* \"#utility.yul\":443:444   */\n      0x00\n        /* \"#utility.yul\":440:441   */\n      dup1\n        /* \"#utility.yul\":433:445   */\n      revert\n        /* \"#utility.yul\":457:574   */\n    tag_38:\n        /* \"#utility.yul\":566:567   */\n      0x00\n        /* \"#utility.yul\":563:564   */\n      dup1\n        /* \"#utility.yul\":556:568   */\n      revert\n        /* \"#utility.yul\":580:682   */\n    tag_39:\n        /* \"#utility.yul\":621:627   */\n      0x00\n        /* \"#utility.yul\":672:674   */\n      0x1f\n        /* \"#utility.yul\":668:675   */\n      not\n        /* \"#utility.yul\":663:665   */\n      0x1f\n        /* \"#utility.yul\":656:661   */\n      dup4\n        /* \"#utility.yul\":652:666   */\n      add\n        /* \"#utility.yul\":648:676   */\n      and\n        /* \"#utility.yul\":638:676   */\n      swap1\n      pop\n        /* \"#utility.yul\":580:682   */\n      swap2\n      swap1\n      pop\n      jump\t// out\n        /* \"#utility.yul\":688:868   */\n    tag_40:\n        /* \"#utility.yul\":736:813   */\n      0x4e487b7100000000000000000000000000000000000000000000000000000000\n        /* \"#utility.yul\":733:734   */\n      0x00\n        /* \"#utility.yul\":726:814   */\n      mstore\n        /* \"#utility.yul\":833:837   */\n      0x41\n        /* \"#utility.yul\":830:831   */\n      0x04\n        /* \"#utility.yul\":823:838   */\n      mstore\n        /* \"#utility.yul\":857:861   */\n      0x24\n        /* \"#utility.yul\":854:855   */\n      0x00\n        /* \"#utility.yul\":847:862   */\n      revert\n        /* \"#utility.yul\":874:1155   */\n    tag_41:\n        /* \"#utility.yul\":957:984   */\n      tag_80\n        /* \"#utility.yul\":979:983   */\n      dup3\n        /* \"#utility.yul\":957:984   */\n      tag_39\n      jump\t// in\n    tag_80:\n        /* \"#utility.yul\":949:955   */\n      dup2\n        /* \"#utility.yul\":945:985   */\n      add\n        /* \"#utility.yul\":1087:1093   */\n      dup2\n        /* \"#utility.yul\":1075:1085   */\n      dup2\n        /* \"#utility.yul\":1072:1094   */\n      lt\n        /* \"#utility.yul\":1051:1069   */\n      0xffffffffffffffff\n        /* \"#utility.yul\":1039:1049   */\n      dup3\n        /* \"#utility.yul\":1036:1070   */\n      gt\n        /* \"#utility.yul\":1033:1095   */\n      or\n        /* \"#utility.yul\":1030:1118   */\n      iszero\n      tag_81\n      jumpi\n        /* \"#utility.yul\":1098:1116   */\n      tag_82\n      tag_40\n      jump\t// in\n    tag_82:\n        /* \"#utility.yul\":1030:1118   */\n    tag_81:\n        /* \"#utility.yul\":1138:1148   */\n      dup1\n        /* \"#utility.yul\":1134:1136   */\n      0x40\n        /* \"#utility.yul\":1127:1149   */\n      mstore\n        /* \"#utility.yul\":917:1155   */\n      pop\n        /* \"#utility.yul\":874:1155   */\n      pop\n      pop\n      jump\t// out\n        /* \"#utility.yul\":1161:1290   */\n    tag_42:\n        /* \"#utility.yul\":1195:1201   */\n      0x00\n        /* \"#utility.yul\":1222:1242   */\n      tag_84\n      tag_34\n      jump\t// in\n    tag_84:\n        /* \"#utility.yul\":1212:1242   */\n      swap1\n      pop\n        /* \"#utility.yul\":1251:1284   */\n      tag_85\n        /* \"#utility.yul\":1279:1283   */\n      dup3\n        /* \"#utility.yul\":1271:1277   */\n      dup3\n        /* \"#utility.yul\":1251:1284   */\n      tag_41\n      jump\t// in\n    tag_85:\n        /* \"#utility.yul\":1161:1290   */\n      swap2\n      swap1\n      pop\n      jump\t// out\n        /* \"#utility.yul\":1296:1604   */\n    tag_43:\n        /* \"#utility.yul\":1358:1362   */\n      0x00\n        /* \"#utility.yul\":1448:1466   */\n      0xffffffffffffffff\n        /* \"#utility.yul\":1440:1446   */\n      dup3\n        /* \"#utility.yul\":1437:1467   */\n      gt\n        /* \"#utility.yul\":1434:1490   */\n      iszero\n      tag_87\n      jumpi\n        /* \"#utility.yul\":1470:1488   */\n      tag_88\n      tag_40\n      jump\t// in\n    tag_88:\n        /* \"#utility.yul\":1434:1490   */\n    tag_87:\n        /* \"#utility.yul\":1508:1537   */\n      tag_89\n        /* \"#utility.yul\":1530:1536   */\n      dup3\n        /* \"#utility.yul\":1508:1537   */\n      tag_39\n      jump\t// in\n    tag_89:\n        /* \"#utility.yul\":1500:1537   */\n      swap1\n      pop\n        /* \"#utility.yul\":1592:1596   */\n      0x20\n        /* \"#utility.yul\":1586:1590   */\n      dup2\n        /* \"#utility.yul\":1582:1597   */\n      add\n        /* \"#utility.yul\":1574:1597   */\n      swap1\n      pop\n        /* \"#utility.yul\":1296:1604   */\n      swap2\n      swap1\n      pop\n      jump\t// out\n        /* \"#utility.yul\":1610:1758   */\n    tag_44:\n        /* \"#utility.yul\":1708:1714   */\n      dup3\n        /* \"#utility.yul\":1703:1706   */\n      dup2\n        /* \"#utility.yul\":1698:1701   */\n      dup4\n        /* \"#utility.yul\":1685:1715   */\n      calldatacopy\n        /* \"#utility.yul\":1749:1750   */\n      0x00\n        /* \"#utility.yul\":1740:1746   */\n      dup4\n        /* \"#utility.yul\":1735:1738   */\n      dup4\n        /* \"#utility.yul\":1731:1747   */\n      add\n        /* \"#utility.yul\":1724:1751   */\n      mstore\n        /* \"#utility.yul\":1610:1758   */\n      pop\n      pop\n      pop\n      jump\t// out\n        /* \"#utility.yul\":1764:2189   */\n    tag_45:\n        /* \"#utility.yul\":1842:1847   */\n      0x00\n        /* \"#utility.yul\":1867:1933   */\n      tag_92\n        /* \"#utility.yul\":1883:1932   */\n      tag_93\n        /* \"#utility.yul\":1925:1931   */\n      dup5\n        /* \"#utility.yul\":1883:1932   */\n      tag_43\n      jump\t// in\n    tag_93:\n        /* \"#utility.yul\":1867:1933   */\n      tag_42\n      jump\t// in\n    tag_92:\n        /* \"#utility.yul\":1858:1933   */\n      swap1\n      pop\n        /* \"#utility.yul\":1956:1962   */\n      dup3\n        /* \"#utility.yul\":1949:1954   */\n      dup2\n        /* \"#utility.yul\":1942:1963   */\n      mstore\n        /* \"#utility.yul\":1994:1998   */\n      0x20\n        /* \"#utility.yul\":1987:1992   */\n      dup2\n        /* \"#utility.yul\":1983:1999   */\n      add\n        /* \"#utility.yul\":2032:2035   */\n      dup5\n        /* \"#utility.yul\":2023:2029   */\n      dup5\n        /* \"#utility.yul\":2018:2021   */\n      dup5\n        /* \"#utility.yul\":2014:2030   */\n      add\n        /* \"#utility.yul\":2011:2036   */\n      gt\n        /* \"#utility.yul\":2008:2120   */\n      iszero\n      tag_94\n      jumpi\n        /* \"#utility.yul\":2039:2118   */\n      tag_95\n      tag_38\n      jump\t// in\n    tag_95:\n        /* \"#utility.yul\":2008:2120   */\n    tag_94:\n        /* \"#utility.yul\":2129:2183   */\n      tag_96\n        /* \"#utility.yul\":2176:2182   */\n      dup5\n        /* \"#utility.yul\":2171:2174   */\n      dup3\n        /* \"#utility.yul\":2166:2169   */\n      dup6\n        /* \"#utility.yul\":2129:2183   */\n      tag_44\n      jump\t// in\n    tag_96:\n        /* \"#utility.yul\":1848:2189   */\n      pop\n        /* \"#utility.yul\":1764:2189   */\n      swap4\n      swap3\n      pop\n      pop\n      pop\n      jump\t// out\n        /* \"#utility.yul\":2209:2549   */\n    tag_46:\n        /* \"#utility.yul\":2265:2270   */\n      0x00\n        /* \"#utility.yul\":2314:2317   */\n      dup3\n        /* \"#utility.yul\":2307:2311   */\n      0x1f\n        /* \"#utility.yul\":2299:2305   */\n      dup4\n        /* \"#utility.yul\":2295:2312   */\n      add\n        /* \"#utility.yul\":2291:2318   */\n      slt\n        /* \"#utility.yul\":2281:2403   */\n      tag_98\n      jumpi\n        /* \"#utility.yul\":2322:2401   */\n      tag_99\n      tag_37\n      jump\t// in\n    tag_99:\n        /* \"#utility.yul\":2281:2403   */\n    tag_98:\n        /* \"#utility.yul\":2439:2445   */\n      dup2\n        /* \"#utility.yul\":2426:2446   */\n      calldataload\n        /* \"#utility.yul\":2464:2543   */\n      tag_100\n        /* \"#utility.yul\":2539:2542   */\n      dup5\n        /* \"#utility.yul\":2531:2537   */\n      dup3\n        /* \"#utility.yul\":2524:2528   */\n      0x20\n        /* \"#utility.yul\":2516:2522   */\n      dup7\n        /* \"#utility.yul\":2512:2529   */\n      add\n        /* \"#utility.yul\":2464:2543   */\n      tag_45\n      jump\t// in\n    tag_100:\n        /* \"#utility.yul\":2455:2543   */\n      swap2\n      pop\n        /* \"#utility.yul\":2271:2549   */\n      pop\n        /* \"#utility.yul\":2209:2549   */\n      swap3\n      swap2\n      pop\n      pop\n      jump\t// out\n        /* \"#utility.yul\":2555:3064   */\n    tag_9:\n        /* \"#utility.yul\":2624:2630   */\n      0x00\n        /* \"#utility.yul\":2673:2675   */\n      0x20\n        /* \"#utility.yul\":2661:2670   */\n      dup3\n        /* \"#utility.yul\":2652:2659   */\n      dup5\n        /* \"#utility.yul\":2648:2671   */\n      sub\n        /* \"#utility.yul\":2644:2676   */\n      slt\n        /* \"#utility.yul\":2641:2760   */\n      iszero\n      tag_102\n      jumpi\n        /* \"#utility.yul\":2679:2758   */\n      tag_103\n      tag_35\n      jump\t// in\n    tag_103:\n        /* \"#utility.yul\":2641:2760   */\n    tag_102:\n        /* \"#utility.yul\":2827:2828   */\n      0x00\n        /* \"#utility.yul\":2816:2825   */\n      dup3\n        /* \"#utility.yul\":2812:2829   */\n      add\n        /* \"#utility.yul\":2799:2830   */\n      calldataload\n        /* \"#utility.yul\":2857:2875   */\n      0xffffffffffffffff\n        /* \"#utility.yul\":2849:2855   */\n      dup2\n        /* \"#utility.yul\":2846:2876   */\n      gt\n        /* \"#utility.yul\":2843:2960   */\n      iszero\n      tag_104\n      jumpi\n        /* \"#utility.yul\":2879:2958   */\n      tag_105\n      tag_36\n      jump\t// in\n    tag_105:\n        /* \"#utility.yul\":2843:2960   */\n    tag_104:\n        /* \"#utility.yul\":2984:3047   */\n      tag_106\n        /* \"#utility.yul\":3039:3046   */\n      dup5\n        /* \"#utility.yul\":3030:3036   */\n      dup3\n        /* \"#utility.yul\":3019:3028   */\n      dup6\n        /* \"#utility.yul\":3015:3037   */\n      add\n        /* \"#utility.yul\":2984:3047   */\n      tag_46\n      jump\t// in\n    tag_106:\n        /* \"#utility.yul\":2974:3047   */\n      swap2\n      pop\n        /* \"#utility.yul\":2770:3057   */\n      pop\n        /* \"#utility.yul\":2555:3064   */\n      swap3\n      swap2\n      pop\n      pop\n      jump\t// out\n        /* \"#utility.yul\":3070:3169   */\n    tag_47:\n        /* \"#utility.yul\":3122:3128   */\n      0x00\n        /* \"#utility.yul\":3156:3161   */\n      dup2\n        /* \"#utility.yul\":3150:3162   */\n      mload\n        /* \"#utility.yul\":3140:3162   */\n      swap1\n      pop\n        /* \"#utility.yul\":3070:3169   */\n      swap2\n      swap1\n      pop\n      jump\t// out\n        /* \"#utility.yul\":3175:3344   */\n    tag_48:\n        /* \"#utility.yul\":3259:3270   */\n      0x00\n        /* \"#utility.yul\":3293:3299   */\n      dup3\n        /* \"#utility.yul\":3288:3291   */\n      dup3\n        /* \"#utility.yul\":3281:3300   */\n      mstore\n        /* \"#utility.yul\":3333:3337   */\n      0x20\n        /* \"#utility.yul\":3328:3331   */\n      dup3\n        /* \"#utility.yul\":3324:3338   */\n      add\n        /* \"#utility.yul\":3309:3338   */\n      swap1\n      pop\n        /* \"#utility.yul\":3175:3344   */\n      swap3\n      swap2\n      pop\n      pop\n      jump\t// out\n        /* \"#utility.yul\":3350:3489   */\n    tag_49:\n        /* \"#utility.yul\":3439:3445   */\n      dup3\n        /* \"#utility.yul\":3434:3437   */\n      dup2\n        /* \"#utility.yul\":3429:3432   */\n      dup4\n        /* \"#utility.yul\":3423:3446   */\n      mcopy\n        /* \"#utility.yul\":3480:3481   */\n      0x00\n        /* \"#utility.yul\":3471:3477   */\n      dup4\n        /* \"#utility.yul\":3466:3469   */\n      dup4\n        /* \"#utility.yul\":3462:3478   */\n      add\n        /* \"#utility.yul\":3455:3482   */\n      mstore\n        /* \"#utility.yul\":3350:3489   */\n      pop\n      pop\n      pop\n      jump\t// out\n        /* \"#utility.yul\":3495:3872   */\n    tag_50:\n        /* \"#utility.yul\":3583:3586   */\n      0x00\n        /* \"#utility.yul\":3611:3650   */\n      tag_111\n        /* \"#utility.yul\":3644:3649   */\n      dup3\n        /* \"#utility.yul\":3611:3650   */\n      tag_47\n      jump\t// in\n    tag_111:\n        /* \"#utility.yul\":3666:3737   */\n      tag_112\n        /* \"#utility.yul\":3730:3736   */\n      dup2\n        /* \"#utility.yul\":3725:3728   */\n      dup6\n        /* \"#utility.yul\":3666:3737   */\n      tag_48\n      jump\t// in\n    tag_112:\n        /* \"#utility.yul\":3659:3737   */\n      swap4\n      pop\n        /* \"#utility.yul\":3746:3811   */\n      tag_113\n        /* \"#utility.yul\":3804:3810   */\n      dup2\n        /* \"#utility.yul\":3799:3802   */\n      dup6\n        /* \"#utility.yul\":3792:3796   */\n      0x20\n        /* \"#utility.yul\":3785:3790   */\n      dup7\n        /* \"#utility.yul\":3781:3797   */\n      add\n        /* \"#utility.yul\":3746:3811   */\n      tag_49\n      jump\t// in\n    tag_113:\n        /* \"#utility.yul\":3836:3865   */\n      tag_114\n        /* \"#utility.yul\":3858:3864   */\n      dup2\n        /* \"#utility.yul\":3836:3865   */\n      tag_39\n      jump\t// in\n    tag_114:\n        /* \"#utility.yul\":3831:3834   */\n      dup5\n        /* \"#utility.yul\":3827:3866   */\n      add\n        /* \"#utility.yul\":3820:3866   */\n      swap2\n      pop\n        /* \"#utility.yul\":3587:3872   */\n      pop\n        /* \"#utility.yul\":3495:3872   */\n      swap3\n      swap2\n      pop\n      pop\n      jump\t// out\n        /* \"#utility.yul\":3878:4191   */\n    tag_14:\n        /* \"#utility.yul\":3991:3995   */\n      0x00\n        /* \"#utility.yul\":4029:4031   */\n      0x20\n        /* \"#utility.yul\":4018:4027   */\n      dup3\n        /* \"#utility.yul\":4014:4032   */\n      add\n        /* \"#utility.yul\":4006:4032   */\n      swap1\n      pop\n        /* \"#utility.yul\":4078:4087   */\n      dup2\n        /* \"#utility.yul\":4072:4076   */\n      dup2\n        /* \"#utility.yul\":4068:4088   */\n      sub\n        /* \"#utility.yul\":4064:4065   */\n      0x00\n        /* \"#utility.yul\":4053:4062   */\n      dup4\n        /* \"#utility.yul\":4049:4066   */\n      add\n        /* \"#utility.yul\":4042:4089   */\n      mstore\n        /* \"#utility.yul\":4106:4184   */\n      tag_116\n        /* \"#utility.yul\":4179:4183   */\n      dup2\n        /* \"#utility.yul\":4170:4176   */\n      dup5\n        /* \"#utility.yul\":4106:4184   */\n      tag_50\n      jump\t// in\n    tag_116:\n        /* \"#utility.yul\":4098:4184   */\n      swap1\n      pop\n        /* \"#utility.yul\":3878:4191   */\n      swap3\n      swap2\n      pop\n      pop\n      jump\t// out\n        /* \"#utility.yul\":4197:4323   */\n    tag_51:\n        /* \"#utility.yul\":4234:4241   */\n      0x00\n        /* \"#utility.yul\":4274:4316   */\n      0xffffffffffffffffffffffffffffffffffffffff\n        /* \"#utility.yul\":4267:4272   */\n      dup3\n        /* \"#utility.yul\":4263:4317   */\n      and\n        /* \"#utility.yul\":4252:4317   */\n      swap1\n      pop\n        /* \"#utility.yul\":4197:4323   */\n      swap2\n      swap1\n      pop\n      jump\t// out\n        /* \"#utility.yul\":4329:4425   */\n    tag_52:\n        /* \"#utility.yul\":4366:4373   */\n      0x00\n        /* \"#utility.yul\":4395:4419   */\n      tag_119\n        /* \"#utility.yul\":4413:4418   */\n      dup3\n        /* \"#utility.yul\":4395:4419   */\n      tag_51\n      jump\t// in\n    tag_119:\n        /* \"#utility.yul\":4384:4419   */\n      swap1\n      pop\n        /* \"#utility.yul\":4329:4425   */\n      swap2\n      swap1\n      pop\n      jump\t// out\n        /* \"#utility.yul\":4431:4549   */\n    tag_53:\n        /* \"#utility.yul\":4518:4542   */\n      tag_121\n        /* \"#utility.yul\":4536:4541   */\n      dup2\n        /* \"#utility.yul\":4518:4542   */\n      tag_52\n      jump\t// in\n    tag_121:\n        /* \"#utility.yul\":4513:4516   */\n      dup3\n        /* \"#utility.yul\":4506:4543   */\n      mstore\n        /* \"#utility.yul\":4431:4549   */\n      pop\n      pop\n      jump\t// out\n        /* \"#utility.yul\":4555:4777   */\n    tag_18:\n        /* \"#utility.yul\":4648:4652   */\n      0x00\n        /* \"#utility.yul\":4686:4688   */\n      0x20\n        /* \"#utility.yul\":4675:4684   */\n      dup3\n        /* \"#utility.yul\":4671:4689   */\n      add\n        /* \"#utility.yul\":4663:4689   */\n      swap1\n      pop\n        /* \"#utility.yul\":4699:4770   */\n      tag_123\n        /* \"#utility.yul\":4767:4768   */\n      0x00\n        /* \"#utility.yul\":4756:4765   */\n      dup4\n        /* \"#utility.yul\":4752:4769   */\n      add\n        /* \"#utility.yul\":4743:4749   */\n      dup5\n        /* \"#utility.yul\":4699:4770   */\n      tag_53\n      jump\t// in\n    tag_123:\n        /* \"#utility.yul\":4555:4777   */\n      swap3\n      swap2\n      pop\n      pop\n      jump\t// out\n        /* \"#utility.yul\":4783:4963   */\n    tag_54:\n        /* \"#utility.yul\":4831:4908   */\n      0x4e487b7100000000000000000000000000000000000000000000000000000000\n        /* \"#utility.yul\":4828:4829   */\n      0x00\n        /* \"#utility.yul\":4821:4909   */\n      mstore\n        /* \"#utility.yul\":4928:4932   */\n      0x22\n        /* \"#utility.yul\":4925:4926   */\n      0x04\n        /* \"#utility.yul\":4918:4933   */\n      mstore\n        /* \"#utility.yul\":4952:4956   */\n      0x24\n        /* \"#utility.yul\":4949:4950   */\n      0x00\n        /* \"#utility.yul\":4942:4957   */\n      revert\n        /* \"#utility.yul\":4969:5289   */\n    tag_27:\n        /* \"#utility.yul\":5013:5019   */\n      0x00\n        /* \"#utility.yul\":5050:5051   */\n      0x02\n        /* \"#utility.yul\":5044:5048   */\n      dup3\n        /* \"#utility.yul\":5040:5052   */\n      div\n        /* \"#utility.yul\":5030:5052   */\n      swap1\n      pop\n        /* \"#utility.yul\":5097:5098   */\n      0x01\n        /* \"#utility.yul\":5091:5095   */\n      dup3\n        /* \"#utility.yul\":5087:5099   */\n      and\n        /* \"#utility.yul\":5118:5136   */\n      dup1\n        /* \"#utility.yul\":5108:5189   */\n      tag_126\n      jumpi\n        /* \"#utility.yul\":5174:5178   */\n      0x7f\n        /* \"#utility.yul\":5166:5172   */\n      dup3\n        /* \"#utility.yul\":5162:5179   */\n      and\n        /* \"#utility.yul\":5152:5179   */\n      swap2\n      pop\n        /* \"#utility.yul\":5108:5189   */\n    tag_126:\n        /* \"#utility.yul\":5236:5238   */\n      0x20\n        /* \"#utility.yul\":5228:5234   */\n      dup3\n        /* \"#utility.yul\":5225:5239   */\n      lt\n        /* \"#utility.yul\":5205:5223   */\n      dup2\n        /* \"#utility.yul\":5202:5240   */\n      sub\n        /* \"#utility.yul\":5199:5283   */\n      tag_127\n      jumpi\n        /* \"#utility.yul\":5255:5273   */\n      tag_128\n      tag_54\n      jump\t// in\n    tag_128:\n        /* \"#utility.yul\":5199:5283   */\n    tag_127:\n        /* \"#utility.yul\":5020:5289   */\n      pop\n        /* \"#utility.yul\":4969:5289   */\n      swap2\n      swap1\n      pop\n      jump\t// out\n        /* \"#utility.yul\":5295:5436   */\n    tag_55:\n        /* \"#utility.yul\":5344:5348   */\n      0x00\n        /* \"#utility.yul\":5367:5370   */\n      dup2\n        /* \"#utility.yul\":5359:5370   */\n      swap1\n      pop\n        /* \"#utility.yul\":5390:5393   */\n      dup2\n        /* \"#utility.yul\":5387:5388   */\n      0x00\n        /* \"#utility.yul\":5380:5394   */\n      mstore\n        /* \"#utility.yul\":5424:5428   */\n      0x20\n        /* \"#utility.yul\":5421:5422   */\n      0x00\n        /* \"#utility.yul\":5411:5429   */\n      keccak256\n        /* \"#utility.yul\":5403:5429   */\n      swap1\n      pop\n        /* \"#utility.yul\":5295:5436   */\n      swap2\n      swap1\n      pop\n      jump\t// out\n        /* \"#utility.yul\":5442:5535   */\n    tag_56:\n        /* \"#utility.yul\":5479:5485   */\n      0x00\n        /* \"#utility.yul\":5526:5528   */\n      0x20\n        /* \"#utility.yul\":5521:5523   */\n      0x1f\n        /* \"#utility.yul\":5514:5519   */\n      dup4\n        /* \"#utility.yul\":5510:5524   */\n      add\n        /* \"#utility.yul\":5506:5529   */\n      div\n        /* \"#utility.yul\":5496:5529   */\n      swap1\n      pop\n        /* \"#utility.yul\":5442:5535   */\n      swap2\n      swap1\n      pop\n      jump\t// out\n        /* \"#utility.yul\":5541:5648   */\n    tag_57:\n        /* \"#utility.yul\":5585:5593   */\n      0x00\n        /* \"#utility.yul\":5635:5640   */\n      dup3\n        /* \"#utility.yul\":5629:5633   */\n      dup3\n        /* \"#utility.yul\":5625:5641   */\n      shl\n        /* \"#utility.yul\":5604:5641   */\n      swap1\n      pop\n        /* \"#utility.yul\":5541:5648   */\n      swap3\n      swap2\n      pop\n      pop\n      jump\t// out\n        /* \"#utility.yul\":5654:6047   */\n    tag_58:\n        /* \"#utility.yul\":5723:5729   */\n      0x00\n        /* \"#utility.yul\":5773:5774   */\n      0x08\n        /* \"#utility.yul\":5761:5771   */\n      dup4\n        /* \"#utility.yul\":5757:5775   */\n      mul\n        /* \"#utility.yul\":5796:5893   */\n      tag_133\n        /* \"#utility.yul\":5826:5892   */\n      0xffffffffffffffffffffffffffffffffffffffffffffffffffffffffffffffff\n        /* \"#utility.yul\":5815:5824   */\n      dup3\n        /* \"#utility.yul\":5796:5893   */\n      tag_57\n      jump\t// in\n    tag_133:\n        /* \"#utility.yul\":5914:5953   */\n      tag_134\n        /* \"#utility.yul\":5944:5952   */\n      dup7\n        /* \"#utility.yul\":5933:5942   */\n      dup4\n        /* \"#utility.yul\":5914:5953   */\n      tag_57\n      jump\t// in\n    tag_134:\n        /* \"#utility.yul\":5902:5953   */\n      swap6\n      pop\n        /* \"#utility.yul\":5986:5990   */\n      dup1\n        /* \"#utility.yul\":5982:5991   */\n      not\n        /* \"#utility.yul\":5975:5980   */\n      dup5\n        /* \"#utility.yul\":5971:5992   */\n      and\n        /* \"#utility.yul\":5962:5992   */\n      swap4\n      pop\n        /* \"#utility.yul\":6035:6039   */\n      dup1\n        /* \"#utility.yul\":6025:6033   */\n      dup7\n        /* \"#utility.yul\":6021:6040   */\n      and\n        /* \"#utility.yul\":6014:6019   */\n      dup5\n        /* \"#utility.yul\":6011:6041   */\n      or\n        /* \"#utility.yul\":6001:6041   */\n      swap3\n      pop\n        /* \"#utility.yul\":5730:6047   */\n      pop\n      pop\n        /* \"#utility.yul\":5654:6047   */\n      swap4\n      swap3\n      pop\n      pop\n      pop\n      jump\t// out\n        /* \"#utility.yul\":6053:6130   */\n    tag_59:\n        /* \"#utility.yul\":6090:6097   */\n      0x00\n        /* \"#utility.yul\":6119:6124   */\n      dup2\n        /* \"#utility.yul\":6108:6124   */\n      swap1\n      pop\n        /* \"#utility.yul\":6053:6130   */\n      swap2\n      swap1\n      pop\n      jump\t// out\n        /* \"#utility.yul\":6136:6196   */\n    tag_60:\n        /* \"#utility.yul\":6164:6167   */\n      0x00\n        /* \"#utility.yul\":6185:6190   */\n      dup2\n        /* \"#utility.yul\":6178:6190   */\n      swap1\n      pop\n        /* \"#utility.yul\":6136:6196   */\n      swap2\n      swap1\n      pop\n      jump\t// out\n        /* \"#utility.yul\":6202:6344   */\n    tag_61:\n        /* \"#utility.yul\":6252:6261   */\n      0x00\n        /* \"#utility.yul\":6285:6338   */\n      tag_138\n        /* \"#utility.yul\":6303:6337   */\n      tag_139\n        /* \"#utility.yul\":6312:6336   */\n      tag_140\n        /* \"#utility.yul\":6330:6335   */\n      dup5\n        /* \"#utility.yul\":6312:6336   */\n      tag_59\n      jump\t// in\n    tag_140:\n        /* \"#utility.yul\":6303:6337   */\n      tag_60\n      jump\t// in\n    tag_139:\n        /* \"#utility.yul\":6285:6338   */\n      tag_59\n      jump\t// in\n    tag_138:\n        /* \"#utility.yul\":6272:6338   */\n      swap1\n      pop\n        /* \"#utility.yul\":6202:6344   */\n      swap2\n      swap1\n      pop\n      jump\t// out\n        /* \"#utility.yul\":6350:6425   */\n    tag_62:\n        /* \"#utility.yul\":6393:6396   */\n      0x00\n        /* \"#utility.yul\":6414:6419   */\n      dup2\n        /* \"#utility.yul\":6407:6419   */\n      swap1\n      pop\n        /* \"#utility.yul\":6350:6425   */\n      swap2\n      swap1\n      pop\n      jump\t// out\n        /* \"#utility.yul\":6431:6700   */\n    tag_63:\n        /* \"#utility.yul\":6541:6580   */\n      tag_143\n        /* \"#utility.yul\":6572:6579   */\n      dup4\n        /* \"#utility.yul\":6541:6580   */\n      tag_61\n      jump\t// in\n    tag_143:\n        /* \"#utility.yul\":6602:6693   */\n      tag_144\n        /* \"#utility.yul\":6651:6692   */\n      tag_145\n        /* \"#utility.yul\":6675:6691   */\n      dup3\n        /* \"#utility.yul\":6651:6692   */\n      tag_62\n      jump\t// in\n    tag_145:\n        /* \"#utility.yul\":6643:6649   */\n      dup5\n        /* \"#utility.yul\":6636:6640   */\n      dup5\n        /* \"#utility.yul\":6630:6641   */\n      sload\n        /* \"#utility.yul\":6602:6693   */\n      tag_58\n      jump\t// in\n    tag_144:\n        /* \"#utility.yul\":6596:6600   */\n      dup3\n        /* \"#utility.yul\":6589:6694   */\n      sstore\n        /* \"#utility.yul\":6507:6700   */\n      pop\n        /* \"#utility.yul\":6431:6700   */\n      pop\n      pop\n      pop\n      jump\t// out\n        /* \"#utility.yul\":6706:6779   */\n    tag_64:\n        /* \"#utility.yul\":6751:6754   */\n      0x00\n        /* \"#utility.yul\":6706:6779   */\n      swap1\n      jump\t// out\n        /* \"#utility.yul\":6785:6974   */\n    tag_65:\n        /* \"#utility.yul\":6862:6894   */\n      tag_148\n      tag_64\n      jump\t// in\n    tag_148:\n        /* \"#utility.yul\":6903:6968   */\n      tag_149\n        /* \"#utility.yul\":6961:6967   */\n      dup2\n        /* \"#utility.yul\":6953:6959   */\n      dup5\n        /* \"#utility.yul\":6947:6951   */\n      dup5\n        /* \"#utility.yul\":6903:6968   */\n      tag_63\n      jump\t// in\n    tag_149:\n        /* \"#utility.yul\":6838:6974   */\n      pop\n        /* \"#utility.yul\":6785:6974   */\n      pop\n      pop\n      jump\t// out\n        /* \"#utility.yul\":6980:7166   */\n    tag_66:\n        /* \"#utility.yul\":7040:7160   */\n    tag_151:\n        /* \"#utility.yul\":7057:7060   */\n      dup2\n        /* \"#utility.yul\":7050:7055   */\n      dup2\n        /* \"#utility.yul\":7047:7061   */\n      lt\n        /* \"#utility.yul\":7040:7160   */\n      iszero\n      tag_153\n      jumpi\n        /* \"#utility.yul\":7111:7150   */\n      tag_154\n        /* \"#utility.yul\":7148:7149   */\n      0x00\n        /* \"#utility.yul\":7141:7146   */\n      dup3\n        /* \"#utility.yul\":7111:7150   */\n      tag_65\n      jump\t// in\n    tag_154:\n        /* \"#utility.yul\":7084:7085   */\n      0x01\n        /* \"#utility.yul\":7077:7082   */\n      dup2\n        /* \"#utility.yul\":7073:7086   */\n      add\n        /* \"#utility.yul\":7064:7086   */\n      swap1\n      pop\n        /* \"#utility.yul\":7040:7160   */\n      jump(tag_151)\n    tag_153:\n        /* \"#utility.yul\":6980:7166   */\n      pop\n      pop\n      jump\t// out\n        /* \"#utility.yul\":7172:7715   */\n    tag_67:\n        /* \"#utility.yul\":7273:7275   */\n      0x1f\n        /* \"#utility.yul\":7268:7271   */\n      dup3\n        /* \"#utility.yul\":7265:7276   */\n      gt\n        /* \"#utility.yul\":7262:7708   */\n      iszero\n      tag_156\n      jumpi\n        /* \"#utility.yul\":7307:7345   */\n      tag_157\n        /* \"#utility.yul\":7339:7344   */\n      dup2\n        /* \"#utility.yul\":7307:7345   */\n      tag_55\n      jump\t// in\n    tag_157:\n        /* \"#utility.yul\":7391:7420   */\n      tag_158\n        /* \"#utility.yul\":7409:7419   */\n      dup5\n        /* \"#utility.yul\":7391:7420   */\n      tag_56\n      jump\t// in\n    tag_158:\n        /* \"#utility.yul\":7381:7389   */\n      dup2\n        /* \"#utility.yul\":7377:7421   */\n      add\n        /* \"#utility.yul\":7574:7576   */\n      0x20\n        /* \"#utility.yul\":7562:7572   */\n      dup6\n        /* \"#utility.yul\":7559:7577   */\n      lt\n        /* \"#utility.yul\":7556:7605   */\n      iszero\n      tag_159\n      jumpi\n        /* \"#utility.yul\":7595:7603   */\n      dup2\n        /* \"#utility.yul\":7580:7603   */\n      swap1\n      pop\n        /* \"#utility.yul\":7556:7605   */\n    tag_159:\n        /* \"#utility.yul\":7618:7698   */\n      tag_160\n        /* \"#utility.yul\":7674:7696   */\n      tag_161\n        /* \"#utility.yul\":7692:7695   */\n      dup6\n        /* \"#utility.yul\":7674:7696   */\n      tag_56\n      jump\t// in\n    tag_161:\n        /* \"#utility.yul\":7664:7672   */\n      dup4\n        /* \"#utility.yul\":7660:7697   */\n      add\n        /* \"#utility.yul\":7647:7658   */\n      dup3\n        /* \"#utility.yul\":7618:7698   */\n      tag_66\n      jump\t// in\n    tag_160:\n        /* \"#utility.yul\":7277:7708   */\n      pop\n      pop\n        /* \"#utility.yul\":7262:7708   */\n    tag_156:\n        /* \"#utility.yul\":7172:7715   */\n      pop\n      pop\n      pop\n      jump\t// out\n        /* \"#utility.yul\":7721:7838   */\n    tag_68:\n        /* \"#utility.yul\":7775:7783   */\n      0x00\n        /* \"#utility.yul\":7825:7830   */\n      dup3\n        /* \"#utility.yul\":7819:7823   */\n      dup3\n        /* \"#utility.yul\":7815:7831   */\n      shr\n        /* \"#utility.yul\":7794:7831   */\n      swap1\n      pop\n        /* \"#utility.yul\":7721:7838   */\n      swap3\n      swap2\n      pop\n      pop\n      jump\t// out\n        /* \"#utility.yul\":7844:8013   */\n    tag_69:\n        /* \"#utility.yul\":7888:7894   */\n      0x00\n        /* \"#utility.yul\":7921:7972   */\n      tag_164\n        /* \"#utility.yul\":7969:7970   */\n      0x00\n        /* \"#utility.yul\":7965:7971   */\n      not\n        /* \"#utility.yul\":7957:7962   */\n      dup5\n        /* \"#utility.yul\":7954:7955   */\n      0x08\n        /* \"#utility.yul\":7950:7963   */\n      mul\n        /* \"#utility.yul\":7921:7972   */\n      tag_68\n      jump\t// in\n    tag_164:\n        /* \"#utility.yul\":7917:7973   */\n      not\n        /* \"#utility.yul\":8002:8006   */\n      dup1\n        /* \"#utility.yul\":7996:8000   */\n      dup4\n        /* \"#utility.yul\":7992:8007   */\n      and\n        /* \"#utility.yul\":7982:8007   */\n      swap2\n      pop\n        /* \"#utility.yul\":7895:8013   */\n      pop\n        /* \"#utility.yul\":7844:8013   */\n      swap3\n      swap2\n      pop\n      pop\n      jump\t// out\n        /* \"#utility.yul\":8018:8313   */\n    tag_70:\n        /* \"#utility.yul\":8094:8098   */\n      0x00\n        /* \"#utility.yul\":8240:8269   */\n      tag_166\n        /* \"#utility.yul\":8265:8268   */\n      dup4\n        /* \"#utility.yul\":8259:8263   */\n      dup4\n        /* \"#utility.yul\":8240:8269   */\n      tag_69\n      jump\t// in\n    tag_166:\n        /* \"#utility.yul\":8232:8269   */\n      swap2\n      pop\n        /* \"#utility.yul\":8302:8305   */\n      dup3\n        /* \"#utility.yul\":8299:8300   */\n      0x02\n        /* \"#utility.yul\":8295:8306   */\n      mul\n        /* \"#utility.yul\":8289:8293   */\n      dup3\n        /* \"#utility.yul\":8286:8307   */\n      or\n        /* \"#utility.yul\":8278:8307   */\n      swap1\n      pop\n        /* \"#utility.yul\":8018:8313   */\n      swap3\n      swap2\n      pop\n      pop\n      jump\t// out\n        /* \"#utility.yul\":8318:9713   */\n    tag_24:\n        /* \"#utility.yul\":8435:8472   */\n      tag_168\n        /* \"#utility.yul\":8468:8471   */\n      dup3\n        /* \"#utility.yul\":8435:8472   */\n      tag_47\n      jump\t// in\n    tag_168:\n        /* \"#utility.yul\":8537:8555   */\n      0xffffffffffffffff\n        /* \"#utility.yul\":8529:8535   */\n      dup2\n        /* \"#utility.yul\":8526:8556   */\n      gt\n        /* \"#utility.yul\":8523:8579   */\n      iszero\n      tag_169\n      jumpi\n        /* \"#utility.yul\":8559:8577   */\n      tag_170\n      tag_40\n      jump\t// in\n    tag_170:\n        /* \"#utility.yul\":8523:8579   */\n    tag_169:\n        /* \"#utility.yul\":8603:8641   */\n      tag_171\n        /* \"#utility.yul\":8635:8639   */\n      dup3\n        /* \"#utility.yul\":8629:8640   */\n      sload\n        /* \"#utility.yul\":8603:8641   */\n      tag_27\n      jump\t// in\n    tag_171:\n        /* \"#utility.yul\":8688:8755   */\n      tag_172\n        /* \"#utility.yul\":8748:8754   */\n      dup3\n        /* \"#utility.yul\":8740:8746   */\n      dup3\n        /* \"#utility.yul\":8734:8738   */\n      dup6\n        /* \"#utility.yul\":8688:8755   */\n      tag_67\n      jump\t// in\n    tag_172:\n        /* \"#utility.yul\":8782:8783   */\n      0x00\n        /* \"#utility.yul\":8806:8810   */\n      0x20\n        /* \"#utility.yul\":8793:8810   */\n      swap1\n      pop\n        /* \"#utility.yul\":8838:8840   */\n      0x1f\n        /* \"#utility.yul\":8830:8836   */\n      dup4\n        /* \"#utility.yul\":8827:8841   */\n      gt\n        /* \"#utility.yul\":8855:8856   */\n      0x01\n        /* \"#utility.yul\":8850:9468   */\n      dup2\n      eq\n      tag_174\n      jumpi\n        /* \"#utility.yul\":9512:9513   */\n      0x00\n        /* \"#utility.yul\":9529:9535   */\n      dup5\n        /* \"#utility.yul\":9526:9603   */\n      iszero\n      tag_175\n      jumpi\n        /* \"#utility.yul\":9578:9587   */\n      dup3\n        /* \"#utility.yul\":9573:9576   */\n      dup8\n        /* \"#utility.yul\":9569:9588   */\n      add\n        /* \"#utility.yul\":9563:9589   */\n      mload\n        /* \"#utility.yul\":9554:9589   */\n      swap1\n      pop\n        /* \"#utility.yul\":9526:9603   */\n    tag_175:\n        /* \"#utility.yul\":9629:9696   */\n      tag_176\n        /* \"#utility.yul\":9689:9695   */\n      dup6\n        /* \"#utility.yul\":9682:9687   */\n      dup3\n        /* \"#utility.yul\":9629:9696   */\n      tag_70\n      jump\t// in\n    tag_176:\n        /* \"#utility.yul\":9623:9627   */\n      dup7\n        /* \"#utility.yul\":9616:9697   */\n      sstore\n        /* \"#utility.yul\":9485:9707   */\n      pop\n        /* \"#utility.yul\":8820:9707   */\n      jump(tag_173)\n        /* \"#utility.yul\":8850:9468   */\n    tag_174:\n        /* \"#utility.yul\":8902:8906   */\n      0x1f\n        /* \"#utility.yul\":8898:8907   */\n      not\n        /* \"#utility.yul\":8890:8896   */\n      dup5\n        /* \"#utility.yul\":8886:8908   */\n      and\n        /* \"#utility.yul\":8936:8973   */\n      tag_177\n        /* \"#utility.yul\":8968:8972   */\n      dup7\n        /* \"#utility.yul\":8936:8973   */\n      tag_55\n      jump\t// in\n    tag_177:\n        /* \"#utility.yul\":8995:8996   */\n      0x00\n        /* \"#utility.yul\":9009:9217   */\n    tag_178:\n        /* \"#utility.yul\":9023:9030   */\n      dup3\n        /* \"#utility.yul\":9020:9021   */\n      dup2\n        /* \"#utility.yul\":9017:9031   */\n      lt\n        /* \"#utility.yul\":9009:9217   */\n      iszero\n      tag_180\n      jumpi\n        /* \"#utility.yul\":9102:9111   */\n      dup5\n        /* \"#utility.yul\":9097:9100   */\n      dup10\n        /* \"#utility.yul\":9093:9112   */\n      add\n        /* \"#utility.yul\":9087:9113   */\n      mload\n        /* \"#utility.yul\":9079:9085   */\n      dup3\n        /* \"#utility.yul\":9072:9114   */\n      sstore\n        /* \"#utility.yul\":9153:9154   */\n      0x01\n        /* \"#utility.yul\":9145:9151   */\n      dup3\n        /* \"#utility.yul\":9141:9155   */\n      add\n        /* \"#utility.yul\":9131:9155   */\n      swap2\n      pop\n        /* \"#utility.yul\":9200:9202   */\n      0x20\n        /* \"#utility.yul\":9189:9198   */\n      dup6\n        /* \"#utility.yul\":9185:9203   */\n      add\n        /* \"#utility.yul\":9172:9203   */\n      swap5\n      pop\n        /* \"#utility.yul\":9046:9050   */\n      0x20\n        /* \"#utility.yul\":9043:9044   */\n      dup2\n        /* \"#utility.yul\":9039:9051   */\n      add\n        /* \"#utility.yul\":9034:9051   */\n      swap1\n      pop\n        /* \"#utility.yul\":9009:9217   */\n      jump(tag_178)\n    tag_180:\n        /* \"#utility.yul\":9245:9251   */\n      dup7\n        /* \"#utility.yul\":9236:9243   */\n      dup4\n        /* \"#utility.yul\":9233:9252   */\n      lt\n        /* \"#utility.yul\":9230:9409   */\n      iszero\n      tag_181\n      jumpi\n        /* \"#utility.yul\":9303:9312   */\n      dup5\n        /* \"#utility.yul\":9298:9301   */\n      dup10\n        /* \"#utility.yul\":9294:9313   */\n      add\n        /* \"#utility.yul\":9288:9314   */\n      mload\n        /* \"#utility.yul\":9346:9394   */\n      tag_182\n        /* \"#utility.yul\":9388:9392   */\n      0x1f\n        /* \"#utility.yul\":9380:9386   */\n      dup10\n        /* \"#utility.yul\":9376:9393   */\n      and\n        /* \"#utility.yul\":9365:9374   */\n      dup3\n        /* \"#utility.yul\":9346:9394   */\n      tag_69\n      jump\t// in\n    tag_182:\n        /* \"#utility.yul\":9338:9344   */\n      dup4\n        /* \"#utility.yul\":9331:9395   */\n      sstore\n        /* \"#utility.yul\":9253:9409   */\n      pop\n        /* \"#utility.yul\":9230:9409   */\n    tag_181:\n        /* \"#utility.yul\":9455:9456   */\n      0x01\n        /* \"#utility.yul\":9451:9452   */\n      0x02\n        /* \"#utility.yul\":9443:9449   */\n      dup9\n        /* \"#utility.yul\":9439:9453   */\n      mul\n        /* \"#utility.yul\":9435:9457   */\n      add\n        /* \"#utility.yul\":9429:9433   */\n      dup9\n        /* \"#utility.yul\":9422:9458   */\n      sstore\n        /* \"#utility.yul\":8857:9468   */\n      pop\n      pop\n      pop\n        /* \"#utility.yul\":8820:9707   */\n    tag_173:\n      pop\n        /* \"#utility.yul\":8410:9713   */\n      pop\n      pop\n      pop\n        /* \"#utility.yul\":8318:9713   */\n      pop\n      pop\n      jump\t// out\n\n    auxdata: 0xa264697066735822122028449dd520214d281dc4e6d95d63a0427e85a73df9c2d8254975f5111bc5126e64736f6c634300081a0033\n}\n",
				"bytecode": {
					"linkReferences": {},
					"object": "6080604052348015600e575f80fd5b506106e78061001c5f395ff3fe608060405234801561000f575f80fd5b506004361061004a575f3560e01c80634ed3885e1461004e5780636d4ce63c1461006a5780639dd86cde14610088578063e237f75b146100a6575b5f80fd5b610068600480360381019061006391906102c0565b6100c4565b005b6100726100d6565b60405161007f9190610367565b60405180910390f35b610090610165565b60405161009d91906103c6565b60405180910390f35b6100ae61016c565b6040516100bb91906103c6565b60405180910390f35b805f90816100d291906105e2565b5050565b60605f80546100e49061040c565b80601f01602080910402602001604051908101604052809291908181526020018280546101109061040c565b801561015b5780601f106101325761010080835404028352916020019161015b565b820191905f5260205f20905b81548152906001019060200180831161013e57829003601f168201915b5050505050905090565b5f30905090565b5f33905090565b5f604051905090565b5f80fd5b5f80fd5b5f80fd5b5f80fd5b5f601f19601f8301169050919050565b7f4e487b71000000000000000000000000000000000000000000000000000000005f52604160045260245ffd5b6101d28261018c565b810181811067ffffffffffffffff821117156101f1576101f061019c565b5b80604052505050565b5f610203610173565b905061020f82826101c9565b919050565b5f67ffffffffffffffff82111561022e5761022d61019c565b5b6102378261018c565b9050602081019050919050565b828183375f83830152505050565b5f61026461025f84610214565b6101fa565b9050828152602081018484840111156102805761027f610188565b5b61028b848285610244565b509392505050565b5f82601f8301126102a7576102a6610184565b5b81356102b7848260208601610252565b91505092915050565b5f602082840312156102d5576102d461017c565b5b5f82013567ffffffffffffffff8111156102f2576102f1610180565b5b6102fe84828501610293565b91505092915050565b5f81519050919050565b5f82825260208201905092915050565b8281835e5f83830152505050565b5f61033982610307565b6103438185610311565b9350610353818560208601610321565b61035c8161018c565b840191505092915050565b5f6020820190508181035f83015261037f818461032f565b905092915050565b5f73ffffffffffffffffffffffffffffffffffffffff82169050919050565b5f6103b082610387565b9050919050565b6103c0816103a6565b82525050565b5f6020820190506103d95f8301846103b7565b92915050565b7f4e487b71000000000000000000000000000000000000000000000000000000005f52602260045260245ffd5b5f600282049050600182168061042357607f821691505b602082108103610436576104356103df565b5b50919050565b5f819050815f5260205f209050919050565b5f6020601f8301049050919050565b5f82821b905092915050565b5f600883026104987fffffffffffffffffffffffffffffffffffffffffffffffffffffffffffffffff8261045d565b6104a2868361045d565b95508019841693508086168417925050509392505050565b5f819050919050565b5f819050919050565b5f6104e66104e16104dc846104ba565b6104c3565b6104ba565b9050919050565b5f819050919050565b6104ff836104cc565b61051361050b826104ed565b848454610469565b825550505050565b5f90565b61052761051b565b6105328184846104f6565b505050565b5b818110156105555761054a5f8261051f565b600181019050610538565b5050565b601f82111561059a5761056b8161043c565b6105748461044e565b81016020851015610583578190505b61059761058f8561044e565b830182610537565b50505b505050565b5f82821c905092915050565b5f6105ba5f198460080261059f565b1980831691505092915050565b5f6105d283836105ab565b9150826002028217905092915050565b6105eb82610307565b67ffffffffffffffff8111156106045761060361019c565b5b61060e825461040c565b610619828285610559565b5f60209050601f83116001811461064a575f8415610638578287015190505b61064285826105c7565b8655506106a9565b601f1984166106588661043c565b5f5b8281101561067f5784890151825560018201915060208501945060208101905061065a565b8683101561069c5784890151610698601f8916826105ab565b8355505b6001600288020188555050505b50505050505056fea264697066735822122028449dd520214d281dc4e6d95d63a0427e85a73df9c2d8254975f5111bc5126e64736f6c634300081a0033",
					"opcodes": "PUSH1 0x80 PUSH1 0x40 MSTORE CALLVALUE DUP1 ISZERO PUSH1 0xE JUMPI PUSH0 DUP1 REVERT JUMPDEST POP PUSH2 0x6E7 DUP1 PUSH2 0x1C PUSH0 CODECOPY PUSH0 RETURN INVALID PUSH1 0x80 PUSH1 0x40 MSTORE CALLVALUE DUP1 ISZERO PUSH2 0xF JUMPI PUSH0 DUP1 REVERT JUMPDEST POP PUSH1 0x4 CALLDATASIZE LT PUSH2 0x4A JUMPI PUSH0 CALLDATALOAD PUSH1 0xE0 SHR DUP1 PUSH4 0x4ED3885E EQ PUSH2 0x4E JUMPI DUP1 PUSH4 0x6D4CE63C EQ PUSH2 0x6A JUMPI DUP1 PUSH4 0x9DD86CDE EQ PUSH2 0x88 JUMPI DUP1 PUSH4 0xE237F75B EQ PUSH2 0xA6 JUMPI JUMPDEST PUSH0 DUP1 REVERT JUMPDEST PUSH2 0x68 PUSH1 0x4 DUP1 CALLDATASIZE SUB DUP2 ADD SWAP1 PUSH2 0x63 SWAP2 SWAP1 PUSH2 0x2C0 JUMP JUMPDEST PUSH2 0xC4 JUMP JUMPDEST STOP JUMPDEST PUSH2 0x72 PUSH2 0xD6 JUMP JUMPDEST PUSH1 0x40 MLOAD PUSH2 0x7F SWAP2 SWAP1 PUSH2 0x367 JUMP JUMPDEST PUSH1 0x40 MLOAD DUP1 SWAP2 SUB SWAP1 RETURN JUMPDEST PUSH2 0x90 PUSH2 0x165 JUMP JUMPDEST PUSH1 0x40 MLOAD PUSH2 0x9D SWAP2 SWAP1 PUSH2 0x3C6 JUMP JUMPDEST PUSH1 0x40 MLOAD DUP1 SWAP2 SUB SWAP1 RETURN JUMPDEST PUSH2 0xAE PUSH2 0x16C JUMP JUMPDEST PUSH1 0x40 MLOAD PUSH2 0xBB SWAP2 SWAP1 PUSH2 0x3C6 JUMP JUMPDEST PUSH1 0x40 MLOAD DUP1 SWAP2 SUB SWAP1 RETURN JUMPDEST DUP1 PUSH0 SWAP1 DUP2 PUSH2 0xD2 SWAP2 SWAP1 PUSH2 0x5E2 JUMP JUMPDEST POP POP JUMP JUMPDEST PUSH1 0x60 PUSH0 DUP1 SLOAD PUSH2 0xE4 SWAP1 PUSH2 0x40C JUMP JUMPDEST DUP1 PUSH1 0x1F ADD PUSH1 0x20 DUP1 SWAP2 DIV MUL PUSH1 0x20 ADD PUSH1 0x40 MLOAD SWAP1 DUP2 ADD PUSH1 0x40 MSTORE DUP1 SWAP3 SWAP2 SWAP1 DUP2 DUP2 MSTORE PUSH1 0x20 ADD DUP3 DUP1 SLOAD PUSH2 0x110 SWAP1 PUSH2 0x40C JUMP JUMPDEST DUP1 ISZERO PUSH2 0x15B JUMPI DUP1 PUSH1 0x1F LT PUSH2 0x132 JUMPI PUSH2 0x100 DUP1 DUP4 SLOAD DIV MUL DUP4 MSTORE SWAP2 PUSH1 0x20 ADD SWAP2 PUSH2 0x15B JUMP JUMPDEST DUP3 ADD SWAP2 SWAP1 PUSH0 MSTORE PUSH1 0x20 PUSH0 KECCAK256 SWAP1 JUMPDEST DUP2 SLOAD DUP2 MSTORE SWAP1 PUSH1 0x1 ADD SWAP1 PUSH1 0x20 ADD DUP1 DUP4 GT PUSH2 0x13E JUMPI DUP3 SWAP1 SUB PUSH1 0x1F AND DUP3 ADD SWAP2 JUMPDEST POP POP POP POP POP SWAP1 POP SWAP1 JUMP JUMPDEST PUSH0 ADDRESS SWAP1 POP SWAP1 JUMP JUMPDEST PUSH0 CALLER SWAP1 POP SWAP1 JUMP JUMPDEST PUSH0 PUSH1 0x40 MLOAD SWAP1 POP SWAP1 JUMP JUMPDEST PUSH0 DUP1 REVERT JUMPDEST PUSH0 DUP1 REVERT JUMPDEST PUSH0 DUP1 REVERT JUMPDEST PUSH0 DUP1 REVERT JUMPDEST PUSH0 PUSH1 0x1F NOT PUSH1 0x1F DUP4 ADD AND SWAP1 POP SWAP2 SWAP1 POP JUMP JUMPDEST PUSH32 0x4E487B7100000000000000000000000000000000000000000000000000000000 PUSH0 MSTORE PUSH1 0x41 PUSH1 0x4 MSTORE PUSH1 0x24 PUSH0 REVERT JUMPDEST PUSH2 0x1D2 DUP3 PUSH2 0x18C JUMP JUMPDEST DUP2 ADD DUP2 DUP2 LT PUSH8 0xFFFFFFFFFFFFFFFF DUP3 GT OR ISZERO PUSH2 0x1F1 JUMPI PUSH2 0x1F0 PUSH2 0x19C JUMP JUMPDEST JUMPDEST DUP1 PUSH1 0x40 MSTORE POP POP POP JUMP JUMPDEST PUSH0 PUSH2 0x203 PUSH2 0x173 JUMP JUMPDEST SWAP1 POP PUSH2 0x20F DUP3 DUP3 PUSH2 0x1C9 JUMP JUMPDEST SWAP2 SWAP1 POP JUMP JUMPDEST PUSH0 PUSH8 0xFFFFFFFFFFFFFFFF DUP3 GT ISZERO PUSH2 0x22E JUMPI PUSH2 0x22D PUSH2 0x19C JUMP JUMPDEST JUMPDEST PUSH2 0x237 DUP3 PUSH2 0x18C JUMP JUMPDEST SWAP1 POP PUSH1 0x20 DUP2 ADD SWAP1 POP SWAP2 SWAP1 POP JUMP JUMPDEST DUP3 DUP2 DUP4 CALLDATACOPY PUSH0 DUP4 DUP4 ADD MSTORE POP POP POP JUMP JUMPDEST PUSH0 PUSH2 0x264 PUSH2 0x25F DUP5 PUSH2 0x214 JUMP JUMPDEST PUSH2 0x1FA JUMP JUMPDEST SWAP1 POP DUP3 DUP2 MSTORE PUSH1 0x20 DUP2 ADD DUP5 DUP5 DUP5 ADD GT ISZERO PUSH2 0x280 JUMPI PUSH2 0x27F PUSH2 0x188 JUMP JUMPDEST JUMPDEST PUSH2 0x28B DUP5 DUP3 DUP6 PUSH2 0x244 JUMP JUMPDEST POP SWAP4 SWAP3 POP POP POP JUMP JUMPDEST PUSH0 DUP3 PUSH1 0x1F DUP4 ADD SLT PUSH2 0x2A7 JUMPI PUSH2 0x2A6 PUSH2 0x184 JUMP JUMPDEST JUMPDEST DUP2 CALLDATALOAD PUSH2 0x2B7 DUP5 DUP3 PUSH1 0x20 DUP7 ADD PUSH2 0x252 JUMP JUMPDEST SWAP2 POP POP SWAP3 SWAP2 POP POP JUMP JUMPDEST PUSH0 PUSH1 0x20 DUP3 DUP5 SUB SLT ISZERO PUSH2 0x2D5 JUMPI PUSH2 0x2D4 PUSH2 0x17C JUMP JUMPDEST JUMPDEST PUSH0 DUP3 ADD CALLDATALOAD PUSH8 0xFFFFFFFFFFFFFFFF DUP2 GT ISZERO PUSH2 0x2F2 JUMPI PUSH2 0x2F1 PUSH2 0x180 JUMP JUMPDEST JUMPDEST PUSH2 0x2FE DUP5 DUP3 DUP6 ADD PUSH2 0x293 JUMP JUMPDEST SWAP2 POP POP SWAP3 SWAP2 POP POP JUMP JUMPDEST PUSH0 DUP2 MLOAD SWAP1 POP SWAP2 SWAP1 POP JUMP JUMPDEST PUSH0 DUP3 DUP3 MSTORE PUSH1 0x20 DUP3 ADD SWAP1 POP SWAP3 SWAP2 POP POP JUMP JUMPDEST DUP3 DUP2 DUP4 MCOPY PUSH0 DUP4 DUP4 ADD MSTORE POP POP POP JUMP JUMPDEST PUSH0 PUSH2 0x339 DUP3 PUSH2 0x307 JUMP JUMPDEST PUSH2 0x343 DUP2 DUP6 PUSH2 0x311 JUMP JUMPDEST SWAP4 POP PUSH2 0x353 DUP2 DUP6 PUSH1 0x20 DUP7 ADD PUSH2 0x321 JUMP JUMPDEST PUSH2 0x35C DUP2 PUSH2 0x18C JUMP JUMPDEST DUP5 ADD SWAP2 POP POP SWAP3 SWAP2 POP POP JUMP JUMPDEST PUSH0 PUSH1 0x20 DUP3 ADD SWAP1 POP DUP2 DUP2 SUB PUSH0 DUP4 ADD MSTORE PUSH2 0x37F DUP2 DUP5 PUSH2 0x32F JUMP JUMPDEST SWAP1 POP SWAP3 SWAP2 POP POP JUMP JUMPDEST PUSH0 PUSH20 0xFFFFFFFFFFFFFFFFFFFFFFFFFFFFFFFFFFFFFFFF DUP3 AND SWAP1 POP SWAP2 SWAP1 POP JUMP JUMPDEST PUSH0 PUSH2 0x3B0 DUP3 PUSH2 0x387 JUMP JUMPDEST SWAP1 POP SWAP2 SWAP1 POP JUMP JUMPDEST PUSH2 0x3C0 DUP2 PUSH2 0x3A6 JUMP JUMPDEST DUP3 MSTORE POP POP JUMP JUMPDEST PUSH0 PUSH1 0x20 DUP3 ADD SWAP1 POP PUSH2 0x3D9 PUSH0 DUP4 ADD DUP5 PUSH2 0x3B7 JUMP JUMPDEST SWAP3 SWAP2 POP POP JUMP JUMPDEST PUSH32 0x4E487B7100000000000000000000000000000000000000000000000000000000 PUSH0 MSTORE PUSH1 0x22 PUSH1 0x4 MSTORE PUSH1 0x24 PUSH0 REVERT JUMPDEST PUSH0 PUSH1 0x2 DUP3 DIV SWAP1 POP PUSH1 0x1 DUP3 AND DUP1 PUSH2 0x423 JUMPI PUSH1 0x7F DUP3 AND SWAP2 POP JUMPDEST PUSH1 0x20 DUP3 LT DUP2 SUB PUSH2 0x436 JUMPI PUSH2 0x435 PUSH2 0x3DF JUMP JUMPDEST JUMPDEST POP SWAP2 SWAP1 POP JUMP JUMPDEST PUSH0 DUP2 SWAP1 POP DUP2 PUSH0 MSTORE PUSH1 0x20 PUSH0 KECCAK256 SWAP1 POP SWAP2 SWAP1 POP JUMP JUMPDEST PUSH0 PUSH1 0x20 PUSH1 0x1F DUP4 ADD DIV SWAP1 POP SWAP2 SWAP1 POP JUMP JUMPDEST PUSH0 DUP3 DUP3 SHL SWAP1 POP SWAP3 SWAP2 POP POP JUMP JUMPDEST PUSH0 PUSH1 0x8 DUP4 MUL PUSH2 0x498 PUSH32 0xFFFFFFFFFFFFFFFFFFFFFFFFFFFFFFFFFFFFFFFFFFFFFFFFFFFFFFFFFFFFFFFF DUP3 PUSH2 0x45D JUMP JUMPDEST PUSH2 0x4A2 DUP7 DUP4 PUSH2 0x45D JUMP JUMPDEST SWAP6 POP DUP1 NOT DUP5 AND SWAP4 POP DUP1 DUP7 AND DUP5 OR SWAP3 POP POP POP SWAP4 SWAP3 POP POP POP JUMP JUMPDEST PUSH0 DUP2 SWAP1 POP SWAP2 SWAP1 POP JUMP JUMPDEST PUSH0 DUP2 SWAP1 POP SWAP2 SWAP1 POP JUMP JUMPDEST PUSH0 PUSH2 0x4E6 PUSH2 0x4E1 PUSH2 0x4DC DUP5 PUSH2 0x4BA JUMP JUMPDEST PUSH2 0x4C3 JUMP JUMPDEST PUSH2 0x4BA JUMP JUMPDEST SWAP1 POP SWAP2 SWAP1 POP JUMP JUMPDEST PUSH0 DUP2 SWAP1 POP SWAP2 SWAP1 POP JUMP JUMPDEST PUSH2 0x4FF DUP4 PUSH2 0x4CC JUMP JUMPDEST PUSH2 0x513 PUSH2 0x50B DUP3 PUSH2 0x4ED JUMP JUMPDEST DUP5 DUP5 SLOAD PUSH2 0x469 JUMP JUMPDEST DUP3 SSTORE POP POP POP POP JUMP JUMPDEST PUSH0 SWAP1 JUMP JUMPDEST PUSH2 0x527 PUSH2 0x51B JUMP JUMPDEST PUSH2 0x532 DUP2 DUP5 DUP5 PUSH2 0x4F6 JUMP JUMPDEST POP POP POP JUMP JUMPDEST JUMPDEST DUP2 DUP2 LT ISZERO PUSH2 0x555 JUMPI PUSH2 0x54A PUSH0 DUP3 PUSH2 0x51F JUMP JUMPDEST PUSH1 0x1 DUP2 ADD SWAP1 POP PUSH2 0x538 JUMP JUMPDEST POP POP JUMP JUMPDEST PUSH1 0x1F DUP3 GT ISZERO PUSH2 0x59A JUMPI PUSH2 0x56B DUP2 PUSH2 0x43C JUMP JUMPDEST PUSH2 0x574 DUP5 PUSH2 0x44E JUMP JUMPDEST DUP2 ADD PUSH1 0x20 DUP6 LT ISZERO PUSH2 0x583 JUMPI DUP2 SWAP1 POP JUMPDEST PUSH2 0x597 PUSH2 0x58F DUP6 PUSH2 0x44E JUMP JUMPDEST DUP4 ADD DUP3 PUSH2 0x537 JUMP JUMPDEST POP POP JUMPDEST POP POP POP JUMP JUMPDEST PUSH0 DUP3 DUP3 SHR SWAP1 POP SWAP3 SWAP2 POP POP JUMP JUMPDEST PUSH0 PUSH2 0x5BA PUSH0 NOT DUP5 PUSH1 0x8 MUL PUSH2 0x59F JUMP JUMPDEST NOT DUP1 DUP4 AND SWAP2 POP POP SWAP3 SWAP2 POP POP JUMP JUMPDEST PUSH0 PUSH2 0x5D2 DUP4 DUP4 PUSH2 0x5AB JUMP JUMPDEST SWAP2 POP DUP3 PUSH1 0x2 MUL DUP3 OR SWAP1 POP SWAP3 SWAP2 POP POP JUMP JUMPDEST PUSH2 0x5EB DUP3 PUSH2 0x307 JUMP JUMPDEST PUSH8 0xFFFFFFFFFFFFFFFF DUP2 GT ISZERO PUSH2 0x604 JUMPI PUSH2 0x603 PUSH2 0x19C JUMP JUMPDEST JUMPDEST PUSH2 0x60E DUP3 SLOAD PUSH2 0x40C JUMP JUMPDEST PUSH2 0x619 DUP3 DUP3 DUP6 PUSH2 0x559 JUMP JUMPDEST PUSH0 PUSH1 0x20 SWAP1 POP PUSH1 0x1F DUP4 GT PUSH1 0x1 DUP2 EQ PUSH2 0x64A JUMPI PUSH0 DUP5 ISZERO PUSH2 0x638 JUMPI DUP3 DUP8 ADD MLOAD SWAP1 POP JUMPDEST PUSH2 0x642 DUP6 DUP3 PUSH2 0x5C7 JUMP JUMPDEST DUP7 SSTORE POP PUSH2 0x6A9 JUMP JUMPDEST PUSH1 0x1F NOT DUP5 AND PUSH2 0x658 DUP7 PUSH2 0x43C JUMP JUMPDEST PUSH0 JUMPDEST DUP3 DUP2 LT ISZERO PUSH2 0x67F JUMPI DUP5 DUP10 ADD MLOAD DUP3 SSTORE PUSH1 0x1 DUP3 ADD SWAP2 POP PUSH1 0x20 DUP6 ADD SWAP5 POP PUSH1 0x20 DUP2 ADD SWAP1 POP PUSH2 0x65A JUMP JUMPDEST DUP7 DUP4 LT ISZERO PUSH2 0x69C JUMPI DUP5 DUP10 ADD MLOAD PUSH2 0x698 PUSH1 0x1F DUP10 AND DUP3 PUSH2 0x5AB JUMP JUMPDEST DUP4 SSTORE POP JUMPDEST PUSH1 0x1 PUSH1 0x2 DUP9 MUL ADD DUP9 SSTORE POP POP POP JUMPDEST POP POP POP POP POP POP JUMP INVALID LOG2 PUSH5 0x6970667358 0x22 SLT KECCAK256 0x28 PREVRANDAO SWAP14 0xD5 KECCAK256 0x21 0x4D 0x28 SAR 0xC4 0xE6 0xD9 TSTORE PUSH4 0xA0427E85 0xA7 RETURNDATASIZE 0xF9 0xC2 0xD8 0x25 BLOBHASH PUSH22 0xF5111BC5126E64736F6C634300081A00330000000000 "
				},
				"gasEstimates": {
					"creation": {
						"codeDepositCost": "353400",
						"executionCost": "391",
						"totalCost": "353791"
					},
					"external": {
						"get()": "infinite",
						"getSelf()": "423",
						"getSelf2()": "401",
						"set(string)": "infinite"
					}
				},
				"methodIdentifiers": {
					"get()": "6d4ce63c",
					"getSelf()": "e237f75b",
					"getSelf2()": "9dd86cde",
					"set(string)": "4ed3885e"
				}
			},
			"storageLayout": {
				"storage": [
					{
						"astId": 3,
						"contract": "homework/level-02/05.Solidity 编码规范、高级特性/HelloWorld.sol:HelloWorld",
						"label": "storeMsg",
						"offset": 0,
						"slot": "0",
						"type": "t_string_storage"
					}
				],
				"types": {
					"t_string_storage": {
						"encoding": "bytes",
						"label": "string",
						"numberOfBytes": "32"
					}
				}
			},
			"userdoc": {
				"kind": "user",
				"methods": {},
				"version": 1
			}
		}
	}
}