{
	"homework/02/映射/UserBalanceManagerment.sol": {
		"UserBalanceManagerment": {
			"abi": [
				{
					"inputs": [
						{
							"internalType": "uint256",
							"name": "newBalance",
							"type": "uint256"
						}
					],
					"name": "addBalances",
					"outputs": [],
					"stateMutability": "nonpayable",
					"type": "function"
				},
				{
					"inputs": [
						{
							"internalType": "address",
							"name": "userAddress",
							"type": "address"
						},
						{
							"internalType": "uint256",
							"name": "newBalance",
							"type": "uint256"
						}
					],
					"name": "addUserBalances",
					"outputs": [],
					"stateMutability": "nonpayable",
					"type": "function"
				},
				{
					"inputs": [],
					"name": "queryBalances",
					"outputs": [
						{
							"internalType": "uint256",
							"name": "",
							"type": "uint256"
						}
					],
					"stateMutability": "view",
					"type": "function"
				},
				{
					"inputs": [
						{
							"internalType": "address",
							"name": "userAddress",
							"type": "address"
						}
					],
					"name": "queryUserBalances",
					"outputs": [
						{
							"internalType": "uint256",
							"name": "",
							"type": "uint256"
						}
					],
					"stateMutability": "view",
					"type": "function"
				},
				{
					"inputs": [],
					"name": "sortUserBalances",
					"outputs": [],
					"stateMutability": "nonpayable",
					"type": "function"
				}
			],
			"devdoc": {
				"kind": "dev",
				"methods": {},
				"version": 1
			},
			"evm": {
				"assembly": "    /* \"homework/02/\\xe6\\x98\\xa0\\xe5\\xb0\\x84/UserBalanceManagerment.sol\":188:1627  contract UserBalanceManagerment{... */\n  mstore(0x40, 0x80)\n  callvalue\n  dup1\n  iszero\n  tag_1\n  jumpi\n  0x00\n  dup1\n  revert\ntag_1:\n  pop\n  dataSize(sub_0)\n  dup1\n  dataOffset(sub_0)\n  0x00\n  codecopy\n  0x00\n  return\nstop\n\nsub_0: assembly {\n        /* \"homework/02/\\xe6\\x98\\xa0\\xe5\\xb0\\x84/UserBalanceManagerment.sol\":188:1627  contract UserBalanceManagerment{... */\n      mstore(0x40, 0x80)\n      callvalue\n      dup1\n      iszero\n      tag_1\n      jumpi\n      0x00\n      dup1\n      revert\n    tag_1:\n      pop\n      jumpi(tag_2, lt(calldatasize, 0x04))\n      shr(0xe0, calldataload(0x00))\n      dup1\n      0x10eef3be\n      eq\n      tag_3\n      jumpi\n      dup1\n      0x30bbcade\n      eq\n      tag_4\n      jumpi\n      dup1\n      0x7aa53ecc\n      eq\n      tag_5\n      jumpi\n      dup1\n      0xcdc8a2e6\n      eq\n      tag_6\n      jumpi\n      dup1\n      0xfbf83ffa\n      eq\n      tag_7\n      jumpi\n    tag_2:\n      0x00\n      dup1\n      revert\n        /* \"homework/02/\\xe6\\x98\\xa0\\xe5\\xb0\\x84/UserBalanceManagerment.sol\":273:390  function addBalances(uint256 newBalance) public{... */\n    tag_3:\n      tag_8\n      0x04\n      dup1\n      calldatasize\n      sub\n      dup2\n      add\n      swap1\n      tag_9\n      swap2\n      swap1\n      tag_10\n      jump\t// in\n    tag_9:\n      tag_11\n      jump\t// in\n    tag_8:\n      stop\n        /* \"homework/02/\\xe6\\x98\\xa0\\xe5\\xb0\\x84/UserBalanceManagerment.sol\":398:517  function queryBalances() public view returns(uint256){... */\n    tag_4:\n      tag_12\n      tag_13\n      jump\t// in\n    tag_12:\n      mload(0x40)\n      tag_14\n      swap2\n      swap1\n      tag_15\n      jump\t// in\n    tag_14:\n      mload(0x40)\n      dup1\n      swap2\n      sub\n      swap1\n      return\n        /* \"homework/02/\\xe6\\x98\\xa0\\xe5\\xb0\\x84/UserBalanceManagerment.sol\":677:820  function addUserBalances(address userAddress,uint256 newBalance) public{... */\n    tag_5:\n      tag_16\n      0x04\n      dup1\n      calldatasize\n      sub\n      dup2\n      add\n      swap1\n      tag_17\n      swap2\n      swap1\n      tag_18\n      jump\t// in\n    tag_17:\n      tag_19\n      jump\t// in\n    tag_16:\n      stop\n        /* \"homework/02/\\xe6\\x98\\xa0\\xe5\\xb0\\x84/UserBalanceManagerment.sol\":525:669  function queryUserBalances(address userAddress ) public view returns(uint256){... */\n    tag_6:\n      tag_20\n      0x04\n      dup1\n      calldatasize\n      sub\n      dup2\n      add\n      swap1\n      tag_21\n      swap2\n      swap1\n      tag_22\n      jump\t// in\n    tag_21:\n      tag_23\n      jump\t// in\n    tag_20:\n      mload(0x40)\n      tag_24\n      swap2\n      swap1\n      tag_15\n      jump\t// in\n    tag_24:\n      mload(0x40)\n      dup1\n      swap2\n      sub\n      swap1\n      return\n        /* \"homework/02/\\xe6\\x98\\xa0\\xe5\\xb0\\x84/UserBalanceManagerment.sol\":828:1624  function sortUserBalances() public{... */\n    tag_7:\n      tag_25\n      tag_26\n      jump\t// in\n    tag_25:\n      stop\n        /* \"homework/02/\\xe6\\x98\\xa0\\xe5\\xb0\\x84/UserBalanceManagerment.sol\":273:390  function addBalances(uint256 newBalance) public{... */\n    tag_11:\n        /* \"homework/02/\\xe6\\x98\\xa0\\xe5\\xb0\\x84/UserBalanceManagerment.sol\":331:346  IterableMapping */\n      linkerSymbol(\"c947f54886c40084e2a28a99aab0e311c4b0a763a0092be3654e1dc78bf2d213\")\n        /* \"homework/02/\\xe6\\x98\\xa0\\xe5\\xb0\\x84/UserBalanceManagerment.sol\":331:350  IterableMapping.set */\n      0xbc2b405c\n        /* \"homework/02/\\xe6\\x98\\xa0\\xe5\\xb0\\x84/UserBalanceManagerment.sol\":351:359  balances */\n      0x00\n        /* \"homework/02/\\xe6\\x98\\xa0\\xe5\\xb0\\x84/UserBalanceManagerment.sol\":360:370  msg.sender */\n      caller\n        /* \"homework/02/\\xe6\\x98\\xa0\\xe5\\xb0\\x84/UserBalanceManagerment.sol\":371:381  newBalance */\n      dup5\n        /* \"homework/02/\\xe6\\x98\\xa0\\xe5\\xb0\\x84/UserBalanceManagerment.sol\":331:382  IterableMapping.set(balances,msg.sender,newBalance) */\n      mload(0x40)\n      dup5\n      0xffffffff\n      and\n      0xe0\n      shl\n      dup2\n      mstore\n      0x04\n      add\n      tag_28\n      swap4\n      swap3\n      swap2\n      swap1\n      tag_29\n      jump\t// in\n    tag_28:\n      0x00\n      mload(0x40)\n      dup1\n      dup4\n      sub\n      dup2\n      dup7\n      dup1\n      extcodesize\n      iszero\n      dup1\n      iszero\n      tag_30\n      jumpi\n      0x00\n      dup1\n      revert\n    tag_30:\n      pop\n      gas\n      delegatecall\n      iszero\n      dup1\n      iszero\n      tag_32\n      jumpi\n      returndatasize\n      0x00\n      dup1\n      returndatacopy\n      revert(0x00, returndatasize)\n    tag_32:\n      pop\n      pop\n      pop\n      pop\n        /* \"homework/02/\\xe6\\x98\\xa0\\xe5\\xb0\\x84/UserBalanceManagerment.sol\":273:390  function addBalances(uint256 newBalance) public{... */\n      pop\n      jump\t// out\n        /* \"homework/02/\\xe6\\x98\\xa0\\xe5\\xb0\\x84/UserBalanceManagerment.sol\":398:517  function queryBalances() public view returns(uint256){... */\n    tag_13:\n        /* \"homework/02/\\xe6\\x98\\xa0\\xe5\\xb0\\x84/UserBalanceManagerment.sol\":443:450  uint256 */\n      0x00\n        /* \"homework/02/\\xe6\\x98\\xa0\\xe5\\xb0\\x84/UserBalanceManagerment.sol\":469:484  IterableMapping */\n      linkerSymbol(\"c947f54886c40084e2a28a99aab0e311c4b0a763a0092be3654e1dc78bf2d213\")\n        /* \"homework/02/\\xe6\\x98\\xa0\\xe5\\xb0\\x84/UserBalanceManagerment.sol\":469:488  IterableMapping.get */\n      0x732a2ccf\n        /* \"homework/02/\\xe6\\x98\\xa0\\xe5\\xb0\\x84/UserBalanceManagerment.sol\":489:497  balances */\n      0x00\n        /* \"homework/02/\\xe6\\x98\\xa0\\xe5\\xb0\\x84/UserBalanceManagerment.sol\":498:508  msg.sender */\n      caller\n        /* \"homework/02/\\xe6\\x98\\xa0\\xe5\\xb0\\x84/UserBalanceManagerment.sol\":469:509  IterableMapping.get(balances,msg.sender) */\n      mload(0x40)\n      dup4\n      0xffffffff\n      and\n      0xe0\n      shl\n      dup2\n      mstore\n      0x04\n      add\n      tag_34\n      swap3\n      swap2\n      swap1\n      tag_35\n      jump\t// in\n    tag_34:\n      0x20\n      mload(0x40)\n      dup1\n      dup4\n      sub\n      dup2\n      dup7\n      gas\n      delegatecall\n      iszero\n      dup1\n      iszero\n      tag_37\n      jumpi\n      returndatasize\n      0x00\n      dup1\n      returndatacopy\n      revert(0x00, returndatasize)\n    tag_37:\n      pop\n      pop\n      pop\n      pop\n      mload(0x40)\n      returndatasize\n      not(0x1f)\n      0x1f\n      dup3\n      add\n      and\n      dup3\n      add\n      dup1\n      0x40\n      mstore\n      pop\n      dup2\n      add\n      swap1\n      tag_38\n      swap2\n      swap1\n      tag_39\n      jump\t// in\n    tag_38:\n        /* \"homework/02/\\xe6\\x98\\xa0\\xe5\\xb0\\x84/UserBalanceManagerment.sol\":462:509  return IterableMapping.get(balances,msg.sender) */\n      swap1\n      pop\n        /* \"homework/02/\\xe6\\x98\\xa0\\xe5\\xb0\\x84/UserBalanceManagerment.sol\":398:517  function queryBalances() public view returns(uint256){... */\n      swap1\n      jump\t// out\n        /* \"homework/02/\\xe6\\x98\\xa0\\xe5\\xb0\\x84/UserBalanceManagerment.sol\":677:820  function addUserBalances(address userAddress,uint256 newBalance) public{... */\n    tag_19:\n        /* \"homework/02/\\xe6\\x98\\xa0\\xe5\\xb0\\x84/UserBalanceManagerment.sol\":760:775  IterableMapping */\n      linkerSymbol(\"c947f54886c40084e2a28a99aab0e311c4b0a763a0092be3654e1dc78bf2d213\")\n        /* \"homework/02/\\xe6\\x98\\xa0\\xe5\\xb0\\x84/UserBalanceManagerment.sol\":760:779  IterableMapping.set */\n      0xbc2b405c\n        /* \"homework/02/\\xe6\\x98\\xa0\\xe5\\xb0\\x84/UserBalanceManagerment.sol\":780:788  balances */\n      0x00\n        /* \"homework/02/\\xe6\\x98\\xa0\\xe5\\xb0\\x84/UserBalanceManagerment.sol\":789:800  userAddress */\n      dup5\n        /* \"homework/02/\\xe6\\x98\\xa0\\xe5\\xb0\\x84/UserBalanceManagerment.sol\":801:811  newBalance */\n      dup5\n        /* \"homework/02/\\xe6\\x98\\xa0\\xe5\\xb0\\x84/UserBalanceManagerment.sol\":760:812  IterableMapping.set(balances,userAddress,newBalance) */\n      mload(0x40)\n      dup5\n      0xffffffff\n      and\n      0xe0\n      shl\n      dup2\n      mstore\n      0x04\n      add\n      tag_41\n      swap4\n      swap3\n      swap2\n      swap1\n      tag_29\n      jump\t// in\n    tag_41:\n      0x00\n      mload(0x40)\n      dup1\n      dup4\n      sub\n      dup2\n      dup7\n      dup1\n      extcodesize\n      iszero\n      dup1\n      iszero\n      tag_42\n      jumpi\n      0x00\n      dup1\n      revert\n    tag_42:\n      pop\n      gas\n      delegatecall\n      iszero\n      dup1\n      iszero\n      tag_44\n      jumpi\n      returndatasize\n      0x00\n      dup1\n      returndatacopy\n      revert(0x00, returndatasize)\n    tag_44:\n      pop\n      pop\n      pop\n      pop\n        /* \"homework/02/\\xe6\\x98\\xa0\\xe5\\xb0\\x84/UserBalanceManagerment.sol\":677:820  function addUserBalances(address userAddress,uint256 newBalance) public{... */\n      pop\n      pop\n      jump\t// out\n        /* \"homework/02/\\xe6\\x98\\xa0\\xe5\\xb0\\x84/UserBalanceManagerment.sol\":525:669  function queryUserBalances(address userAddress ) public view returns(uint256){... */\n    tag_23:\n        /* \"homework/02/\\xe6\\x98\\xa0\\xe5\\xb0\\x84/UserBalanceManagerment.sol\":594:601  uint256 */\n      0x00\n        /* \"homework/02/\\xe6\\x98\\xa0\\xe5\\xb0\\x84/UserBalanceManagerment.sol\":620:635  IterableMapping */\n      linkerSymbol(\"c947f54886c40084e2a28a99aab0e311c4b0a763a0092be3654e1dc78bf2d213\")\n        /* \"homework/02/\\xe6\\x98\\xa0\\xe5\\xb0\\x84/UserBalanceManagerment.sol\":620:639  IterableMapping.get */\n      0x732a2ccf\n        /* \"homework/02/\\xe6\\x98\\xa0\\xe5\\xb0\\x84/UserBalanceManagerment.sol\":640:648  balances */\n      0x00\n        /* \"homework/02/\\xe6\\x98\\xa0\\xe5\\xb0\\x84/UserBalanceManagerment.sol\":649:660  userAddress */\n      dup5\n        /* \"homework/02/\\xe6\\x98\\xa0\\xe5\\xb0\\x84/UserBalanceManagerment.sol\":620:661  IterableMapping.get(balances,userAddress) */\n      mload(0x40)\n      dup4\n      0xffffffff\n      and\n      0xe0\n      shl\n      dup2\n      mstore\n      0x04\n      add\n      tag_46\n      swap3\n      swap2\n      swap1\n      tag_35\n      jump\t// in\n    tag_46:\n      0x20\n      mload(0x40)\n      dup1\n      dup4\n      sub\n      dup2\n      dup7\n      gas\n      delegatecall\n      iszero\n      dup1\n      iszero\n      tag_48\n      jumpi\n      returndatasize\n      0x00\n      dup1\n      returndatacopy\n      revert(0x00, returndatasize)\n    tag_48:\n      pop\n      pop\n      pop\n      pop\n      mload(0x40)\n      returndatasize\n      not(0x1f)\n      0x1f\n      dup3\n      add\n      and\n      dup3\n      add\n      dup1\n      0x40\n      mstore\n      pop\n      dup2\n      add\n      swap1\n      tag_49\n      swap2\n      swap1\n      tag_39\n      jump\t// in\n    tag_49:\n        /* \"homework/02/\\xe6\\x98\\xa0\\xe5\\xb0\\x84/UserBalanceManagerment.sol\":613:661  return IterableMapping.get(balances,userAddress) */\n      swap1\n      pop\n        /* \"homework/02/\\xe6\\x98\\xa0\\xe5\\xb0\\x84/UserBalanceManagerment.sol\":525:669  function queryUserBalances(address userAddress ) public view returns(uint256){... */\n      swap2\n      swap1\n      pop\n      jump\t// out\n        /* \"homework/02/\\xe6\\x98\\xa0\\xe5\\xb0\\x84/UserBalanceManagerment.sol\":828:1624  function sortUserBalances() public{... */\n    tag_26:\n        /* \"homework/02/\\xe6\\x98\\xa0\\xe5\\xb0\\x84/UserBalanceManagerment.sol\":909:910  0 */\n      0x00\n        /* \"homework/02/\\xe6\\x98\\xa0\\xe5\\xb0\\x84/UserBalanceManagerment.sol\":877:892  IterableMapping */\n      linkerSymbol(\"c947f54886c40084e2a28a99aab0e311c4b0a763a0092be3654e1dc78bf2d213\")\n        /* \"homework/02/\\xe6\\x98\\xa0\\xe5\\xb0\\x84/UserBalanceManagerment.sol\":877:897  IterableMapping.size */\n      0xdeb3d896\n        /* \"homework/02/\\xe6\\x98\\xa0\\xe5\\xb0\\x84/UserBalanceManagerment.sol\":898:906  balances */\n      0x00\n        /* \"homework/02/\\xe6\\x98\\xa0\\xe5\\xb0\\x84/UserBalanceManagerment.sol\":877:907  IterableMapping.size(balances) */\n      mload(0x40)\n      dup3\n      0xffffffff\n      and\n      0xe0\n      shl\n      dup2\n      mstore\n      0x04\n      add\n      tag_51\n      swap2\n      swap1\n      tag_52\n      jump\t// in\n    tag_51:\n      0x20\n      mload(0x40)\n      dup1\n      dup4\n      sub\n      dup2\n      dup7\n      gas\n      delegatecall\n      iszero\n      dup1\n      iszero\n      tag_54\n      jumpi\n      returndatasize\n      0x00\n      dup1\n      returndatacopy\n      revert(0x00, returndatasize)\n    tag_54:\n      pop\n      pop\n      pop\n      pop\n      mload(0x40)\n      returndatasize\n      not(0x1f)\n      0x1f\n      dup3\n      add\n      and\n      dup3\n      add\n      dup1\n      0x40\n      mstore\n      pop\n      dup2\n      add\n      swap1\n      tag_55\n      swap2\n      swap1\n      tag_39\n      jump\t// in\n    tag_55:\n        /* \"homework/02/\\xe6\\x98\\xa0\\xe5\\xb0\\x84/UserBalanceManagerment.sol\":877:910  IterableMapping.size(balances)<=0 */\n      gt\n        /* \"homework/02/\\xe6\\x98\\xa0\\xe5\\xb0\\x84/UserBalanceManagerment.sol\":873:945  if (IterableMapping.size(balances)<=0) {... */\n      iszero\n        /* \"homework/02/\\xe6\\x98\\xa0\\xe5\\xb0\\x84/UserBalanceManagerment.sol\":927:934  return; */\n      tag_50\n        /* \"homework/02/\\xe6\\x98\\xa0\\xe5\\xb0\\x84/UserBalanceManagerment.sol\":873:945  if (IterableMapping.size(balances)<=0) {... */\n      jumpi\n        /* \"homework/02/\\xe6\\x98\\xa0\\xe5\\xb0\\x84/UserBalanceManagerment.sol\":1050:1051  0 */\n      0x00\n        /* \"homework/02/\\xe6\\x98\\xa0\\xe5\\xb0\\x84/UserBalanceManagerment.sol\":1017:1032  IterableMapping */\n      linkerSymbol(\"c947f54886c40084e2a28a99aab0e311c4b0a763a0092be3654e1dc78bf2d213\")\n        /* \"homework/02/\\xe6\\x98\\xa0\\xe5\\xb0\\x84/UserBalanceManagerment.sol\":1017:1037  IterableMapping.size */\n      0xdeb3d896\n        /* \"homework/02/\\xe6\\x98\\xa0\\xe5\\xb0\\x84/UserBalanceManagerment.sol\":1038:1046  balances */\n      0x00\n        /* \"homework/02/\\xe6\\x98\\xa0\\xe5\\xb0\\x84/UserBalanceManagerment.sol\":1017:1047  IterableMapping.size(balances) */\n      mload(0x40)\n      dup3\n      0xffffffff\n      and\n      0xe0\n      shl\n      dup2\n      mstore\n      0x04\n      add\n      tag_57\n      swap2\n      swap1\n      tag_52\n      jump\t// in\n    tag_57:\n      0x20\n      mload(0x40)\n      dup1\n      dup4\n      sub\n      dup2\n      dup7\n      gas\n      delegatecall\n      iszero\n      dup1\n      iszero\n      tag_59\n      jumpi\n      returndatasize\n      0x00\n      dup1\n      returndatacopy\n      revert(0x00, returndatasize)\n    tag_59:\n      pop\n      pop\n      pop\n      pop\n      mload(0x40)\n      returndatasize\n      not(0x1f)\n      0x1f\n      dup3\n      add\n      and\n      dup3\n      add\n      dup1\n      0x40\n      mstore\n      pop\n      dup2\n      add\n      swap1\n      tag_60\n      swap2\n      swap1\n      tag_39\n      jump\t// in\n    tag_60:\n        /* \"homework/02/\\xe6\\x98\\xa0\\xe5\\xb0\\x84/UserBalanceManagerment.sol\":1017:1051  IterableMapping.size(balances) > 0 */\n      gt\n        /* \"homework/02/\\xe6\\x98\\xa0\\xe5\\xb0\\x84/UserBalanceManagerment.sol\":1009:1072  require(IterableMapping.size(balances) > 0,\"balances need > 0\") */\n      tag_61\n      jumpi\n      mload(0x40)\n      0x08c379a000000000000000000000000000000000000000000000000000000000\n      dup2\n      mstore\n      0x04\n      add\n      tag_62\n      swap1\n      tag_63\n      jump\t// in\n    tag_62:\n      mload(0x40)\n      dup1\n      swap2\n      sub\n      swap1\n      revert\n    tag_61:\n        /* \"homework/02/\\xe6\\x98\\xa0\\xe5\\xb0\\x84/UserBalanceManagerment.sol\":1083:1092  uint size */\n      0x00\n        /* \"homework/02/\\xe6\\x98\\xa0\\xe5\\xb0\\x84/UserBalanceManagerment.sol\":1096:1111  IterableMapping */\n      linkerSymbol(\"c947f54886c40084e2a28a99aab0e311c4b0a763a0092be3654e1dc78bf2d213\")\n        /* \"homework/02/\\xe6\\x98\\xa0\\xe5\\xb0\\x84/UserBalanceManagerment.sol\":1096:1116  IterableMapping.size */\n      0xdeb3d896\n        /* \"homework/02/\\xe6\\x98\\xa0\\xe5\\xb0\\x84/UserBalanceManagerment.sol\":1117:1125  balances */\n      0x00\n        /* \"homework/02/\\xe6\\x98\\xa0\\xe5\\xb0\\x84/UserBalanceManagerment.sol\":1096:1126  IterableMapping.size(balances) */\n      mload(0x40)\n      dup3\n      0xffffffff\n      and\n      0xe0\n      shl\n      dup2\n      mstore\n      0x04\n      add\n      tag_64\n      swap2\n      swap1\n      tag_52\n      jump\t// in\n    tag_64:\n      0x20\n      mload(0x40)\n      dup1\n      dup4\n      sub\n      dup2\n      dup7\n      gas\n      delegatecall\n      iszero\n      dup1\n      iszero\n      tag_66\n      jumpi\n      returndatasize\n      0x00\n      dup1\n      returndatacopy\n      revert(0x00, returndatasize)\n    tag_66:\n      pop\n      pop\n      pop\n      pop\n      mload(0x40)\n      returndatasize\n      not(0x1f)\n      0x1f\n      dup3\n      add\n      and\n      dup3\n      add\n      dup1\n      0x40\n      mstore\n      pop\n      dup2\n      add\n      swap1\n      tag_67\n      swap2\n      swap1\n      tag_39\n      jump\t// in\n    tag_67:\n        /* \"homework/02/\\xe6\\x98\\xa0\\xe5\\xb0\\x84/UserBalanceManagerment.sol\":1083:1126  uint size =  IterableMapping.size(balances) */\n      swap1\n      pop\n        /* \"homework/02/\\xe6\\x98\\xa0\\xe5\\xb0\\x84/UserBalanceManagerment.sol\":1142:1148  uint i */\n      0x00\n        /* \"homework/02/\\xe6\\x98\\xa0\\xe5\\xb0\\x84/UserBalanceManagerment.sol\":1137:1617  for (uint i = 0; i < size-1; i++) {... */\n    tag_68:\n        /* \"homework/02/\\xe6\\x98\\xa0\\xe5\\xb0\\x84/UserBalanceManagerment.sol\":1163:1164  1 */\n      0x01\n        /* \"homework/02/\\xe6\\x98\\xa0\\xe5\\xb0\\x84/UserBalanceManagerment.sol\":1158:1162  size */\n      dup3\n        /* \"homework/02/\\xe6\\x98\\xa0\\xe5\\xb0\\x84/UserBalanceManagerment.sol\":1158:1164  size-1 */\n      tag_71\n      swap2\n      swap1\n      tag_72\n      jump\t// in\n    tag_71:\n        /* \"homework/02/\\xe6\\x98\\xa0\\xe5\\xb0\\x84/UserBalanceManagerment.sol\":1154:1155  i */\n      dup2\n        /* \"homework/02/\\xe6\\x98\\xa0\\xe5\\xb0\\x84/UserBalanceManagerment.sol\":1154:1164  i < size-1 */\n      lt\n        /* \"homework/02/\\xe6\\x98\\xa0\\xe5\\xb0\\x84/UserBalanceManagerment.sol\":1137:1617  for (uint i = 0; i < size-1; i++) {... */\n      iszero\n      tag_69\n      jumpi\n        /* \"homework/02/\\xe6\\x98\\xa0\\xe5\\xb0\\x84/UserBalanceManagerment.sol\":1191:1197  uint j */\n      0x00\n        /* \"homework/02/\\xe6\\x98\\xa0\\xe5\\xb0\\x84/UserBalanceManagerment.sol\":1186:1606  for (uint j = 0; j < size-1-i; j++) {... */\n    tag_73:\n        /* \"homework/02/\\xe6\\x98\\xa0\\xe5\\xb0\\x84/UserBalanceManagerment.sol\":1214:1215  i */\n      dup2\n        /* \"homework/02/\\xe6\\x98\\xa0\\xe5\\xb0\\x84/UserBalanceManagerment.sol\":1212:1213  1 */\n      0x01\n        /* \"homework/02/\\xe6\\x98\\xa0\\xe5\\xb0\\x84/UserBalanceManagerment.sol\":1207:1211  size */\n      dup5\n        /* \"homework/02/\\xe6\\x98\\xa0\\xe5\\xb0\\x84/UserBalanceManagerment.sol\":1207:1213  size-1 */\n      tag_76\n      swap2\n      swap1\n      tag_72\n      jump\t// in\n    tag_76:\n        /* \"homework/02/\\xe6\\x98\\xa0\\xe5\\xb0\\x84/UserBalanceManagerment.sol\":1207:1215  size-1-i */\n      tag_77\n      swap2\n      swap1\n      tag_72\n      jump\t// in\n    tag_77:\n        /* \"homework/02/\\xe6\\x98\\xa0\\xe5\\xb0\\x84/UserBalanceManagerment.sol\":1203:1204  j */\n      dup2\n        /* \"homework/02/\\xe6\\x98\\xa0\\xe5\\xb0\\x84/UserBalanceManagerment.sol\":1203:1215  j < size-1-i */\n      lt\n        /* \"homework/02/\\xe6\\x98\\xa0\\xe5\\xb0\\x84/UserBalanceManagerment.sol\":1186:1606  for (uint j = 0; j < size-1-i; j++) {... */\n      iszero\n      tag_74\n      jumpi\n        /* \"homework/02/\\xe6\\x98\\xa0\\xe5\\xb0\\x84/UserBalanceManagerment.sol\":1286:1301  IterableMapping */\n      linkerSymbol(\"c947f54886c40084e2a28a99aab0e311c4b0a763a0092be3654e1dc78bf2d213\")\n        /* \"homework/02/\\xe6\\x98\\xa0\\xe5\\xb0\\x84/UserBalanceManagerment.sol\":1286:1315  IterableMapping.getKeyAtIndex */\n      0xd1aa9e7e\n        /* \"homework/02/\\xe6\\x98\\xa0\\xe5\\xb0\\x84/UserBalanceManagerment.sol\":1316:1324  balances */\n      0x00\n        /* \"homework/02/\\xe6\\x98\\xa0\\xe5\\xb0\\x84/UserBalanceManagerment.sol\":1327:1328  1 */\n      0x01\n        /* \"homework/02/\\xe6\\x98\\xa0\\xe5\\xb0\\x84/UserBalanceManagerment.sol\":1325:1326  j */\n      dup5\n        /* \"homework/02/\\xe6\\x98\\xa0\\xe5\\xb0\\x84/UserBalanceManagerment.sol\":1325:1328  j+1 */\n      tag_78\n      swap2\n      swap1\n      tag_79\n      jump\t// in\n    tag_78:\n        /* \"homework/02/\\xe6\\x98\\xa0\\xe5\\xb0\\x84/UserBalanceManagerment.sol\":1286:1329  IterableMapping.getKeyAtIndex(balances,j+1) */\n      mload(0x40)\n      dup4\n      0xffffffff\n      and\n      0xe0\n      shl\n      dup2\n      mstore\n      0x04\n      add\n      tag_80\n      swap3\n      swap2\n      swap1\n      tag_81\n      jump\t// in\n    tag_80:\n      0x20\n      mload(0x40)\n      dup1\n      dup4\n      sub\n      dup2\n      dup7\n      gas\n      delegatecall\n      iszero\n      dup1\n      iszero\n      tag_83\n      jumpi\n      returndatasize\n      0x00\n      dup1\n      returndatacopy\n      revert(0x00, returndatasize)\n    tag_83:\n      pop\n      pop\n      pop\n      pop\n      mload(0x40)\n      returndatasize\n      not(0x1f)\n      0x1f\n      dup3\n      add\n      and\n      dup3\n      add\n      dup1\n      0x40\n      mstore\n      pop\n      dup2\n      add\n      swap1\n      tag_84\n      swap2\n      swap1\n      tag_85\n      jump\t// in\n    tag_84:\n        /* \"homework/02/\\xe6\\x98\\xa0\\xe5\\xb0\\x84/UserBalanceManagerment.sol\":1244:1329  IterableMapping.getKeyAtIndex(balances,j)>IterableMapping.getKeyAtIndex(balances,j+1) */\n      0xffffffffffffffffffffffffffffffffffffffff\n      and\n        /* \"homework/02/\\xe6\\x98\\xa0\\xe5\\xb0\\x84/UserBalanceManagerment.sol\":1244:1259  IterableMapping */\n      linkerSymbol(\"c947f54886c40084e2a28a99aab0e311c4b0a763a0092be3654e1dc78bf2d213\")\n        /* \"homework/02/\\xe6\\x98\\xa0\\xe5\\xb0\\x84/UserBalanceManagerment.sol\":1244:1273  IterableMapping.getKeyAtIndex */\n      0xd1aa9e7e\n        /* \"homework/02/\\xe6\\x98\\xa0\\xe5\\xb0\\x84/UserBalanceManagerment.sol\":1274:1282  balances */\n      0x00\n        /* \"homework/02/\\xe6\\x98\\xa0\\xe5\\xb0\\x84/UserBalanceManagerment.sol\":1283:1284  j */\n      dup5\n        /* \"homework/02/\\xe6\\x98\\xa0\\xe5\\xb0\\x84/UserBalanceManagerment.sol\":1244:1285  IterableMapping.getKeyAtIndex(balances,j) */\n      mload(0x40)\n      dup4\n      0xffffffff\n      and\n      0xe0\n      shl\n      dup2\n      mstore\n      0x04\n      add\n      tag_86\n      swap3\n      swap2\n      swap1\n      tag_81\n      jump\t// in\n    tag_86:\n      0x20\n      mload(0x40)\n      dup1\n      dup4\n      sub\n      dup2\n      dup7\n      gas\n      delegatecall\n      iszero\n      dup1\n      iszero\n      tag_88\n      jumpi\n      returndatasize\n      0x00\n      dup1\n      returndatacopy\n      revert(0x00, returndatasize)\n    tag_88:\n      pop\n      pop\n      pop\n      pop\n      mload(0x40)\n      returndatasize\n      not(0x1f)\n      0x1f\n      dup3\n      add\n      and\n      dup3\n      add\n      dup1\n      0x40\n      mstore\n      pop\n      dup2\n      add\n      swap1\n      tag_89\n      swap2\n      swap1\n      tag_85\n      jump\t// in\n    tag_89:\n        /* \"homework/02/\\xe6\\x98\\xa0\\xe5\\xb0\\x84/UserBalanceManagerment.sol\":1244:1329  IterableMapping.getKeyAtIndex(balances,j)>IterableMapping.getKeyAtIndex(balances,j+1) */\n      0xffffffffffffffffffffffffffffffffffffffff\n      and\n      gt\n        /* \"homework/02/\\xe6\\x98\\xa0\\xe5\\xb0\\x84/UserBalanceManagerment.sol\":1241:1591  if(IterableMapping.getKeyAtIndex(balances,j)>IterableMapping.getKeyAtIndex(balances,j+1)){... */\n      iszero\n      tag_90\n      jumpi\n        /* \"homework/02/\\xe6\\x98\\xa0\\xe5\\xb0\\x84/UserBalanceManagerment.sol\":1353:1365  uint256 temp */\n      0x00\n        /* \"homework/02/\\xe6\\x98\\xa0\\xe5\\xb0\\x84/UserBalanceManagerment.sol\":1367:1382  IterableMapping */\n      linkerSymbol(\"c947f54886c40084e2a28a99aab0e311c4b0a763a0092be3654e1dc78bf2d213\")\n        /* \"homework/02/\\xe6\\x98\\xa0\\xe5\\xb0\\x84/UserBalanceManagerment.sol\":1367:1398  IterableMapping.getValueAtIndex */\n      0x110868d6\n        /* \"homework/02/\\xe6\\x98\\xa0\\xe5\\xb0\\x84/UserBalanceManagerment.sol\":1399:1407  balances */\n      0x00\n        /* \"homework/02/\\xe6\\x98\\xa0\\xe5\\xb0\\x84/UserBalanceManagerment.sol\":1408:1409  j */\n      dup5\n        /* \"homework/02/\\xe6\\x98\\xa0\\xe5\\xb0\\x84/UserBalanceManagerment.sol\":1367:1410  IterableMapping.getValueAtIndex(balances,j) */\n      mload(0x40)\n      dup4\n      0xffffffff\n      and\n      0xe0\n      shl\n      dup2\n      mstore\n      0x04\n      add\n      tag_91\n      swap3\n      swap2\n      swap1\n      tag_81\n      jump\t// in\n    tag_91:\n      0x20\n      mload(0x40)\n      dup1\n      dup4\n      sub\n      dup2\n      dup7\n      gas\n      delegatecall\n      iszero\n      dup1\n      iszero\n      tag_93\n      jumpi\n      returndatasize\n      0x00\n      dup1\n      returndatacopy\n      revert(0x00, returndatasize)\n    tag_93:\n      pop\n      pop\n      pop\n      pop\n      mload(0x40)\n      returndatasize\n      not(0x1f)\n      0x1f\n      dup3\n      add\n      and\n      dup3\n      add\n      dup1\n      0x40\n      mstore\n      pop\n      dup2\n      add\n      swap1\n      tag_94\n      swap2\n      swap1\n      tag_39\n      jump\t// in\n    tag_94:\n        /* \"homework/02/\\xe6\\x98\\xa0\\xe5\\xb0\\x84/UserBalanceManagerment.sol\":1353:1410  uint256 temp= IterableMapping.getValueAtIndex(balances,j) */\n      swap1\n      pop\n        /* \"homework/02/\\xe6\\x98\\xa0\\xe5\\xb0\\x84/UserBalanceManagerment.sol\":1433:1448  IterableMapping */\n      linkerSymbol(\"c947f54886c40084e2a28a99aab0e311c4b0a763a0092be3654e1dc78bf2d213\")\n        /* \"homework/02/\\xe6\\x98\\xa0\\xe5\\xb0\\x84/UserBalanceManagerment.sol\":1433:1452  IterableMapping.set */\n      0x7041e7b1\n        /* \"homework/02/\\xe6\\x98\\xa0\\xe5\\xb0\\x84/UserBalanceManagerment.sol\":1453:1461  balances */\n      0x00\n        /* \"homework/02/\\xe6\\x98\\xa0\\xe5\\xb0\\x84/UserBalanceManagerment.sol\":1462:1463  j */\n      dup5\n        /* \"homework/02/\\xe6\\x98\\xa0\\xe5\\xb0\\x84/UserBalanceManagerment.sol\":1464:1479  IterableMapping */\n      linkerSymbol(\"c947f54886c40084e2a28a99aab0e311c4b0a763a0092be3654e1dc78bf2d213\")\n        /* \"homework/02/\\xe6\\x98\\xa0\\xe5\\xb0\\x84/UserBalanceManagerment.sol\":1464:1495  IterableMapping.getValueAtIndex */\n      0x110868d6\n        /* \"homework/02/\\xe6\\x98\\xa0\\xe5\\xb0\\x84/UserBalanceManagerment.sol\":1496:1504  balances */\n      0x00\n        /* \"homework/02/\\xe6\\x98\\xa0\\xe5\\xb0\\x84/UserBalanceManagerment.sol\":1507:1508  1 */\n      0x01\n        /* \"homework/02/\\xe6\\x98\\xa0\\xe5\\xb0\\x84/UserBalanceManagerment.sol\":1505:1506  j */\n      dup10\n        /* \"homework/02/\\xe6\\x98\\xa0\\xe5\\xb0\\x84/UserBalanceManagerment.sol\":1505:1508  j+1 */\n      tag_95\n      swap2\n      swap1\n      tag_79\n      jump\t// in\n    tag_95:\n        /* \"homework/02/\\xe6\\x98\\xa0\\xe5\\xb0\\x84/UserBalanceManagerment.sol\":1464:1509  IterableMapping.getValueAtIndex(balances,j+1) */\n      mload(0x40)\n      dup4\n      0xffffffff\n      and\n      0xe0\n      shl\n      dup2\n      mstore\n      0x04\n      add\n      tag_96\n      swap3\n      swap2\n      swap1\n      tag_81\n      jump\t// in\n    tag_96:\n      0x20\n      mload(0x40)\n      dup1\n      dup4\n      sub\n      dup2\n      dup7\n      gas\n      delegatecall\n      iszero\n      dup1\n      iszero\n      tag_98\n      jumpi\n      returndatasize\n      0x00\n      dup1\n      returndatacopy\n      revert(0x00, returndatasize)\n    tag_98:\n      pop\n      pop\n      pop\n      pop\n      mload(0x40)\n      returndatasize\n      not(0x1f)\n      0x1f\n      dup3\n      add\n      and\n      dup3\n      add\n      dup1\n      0x40\n      mstore\n      pop\n      dup2\n      add\n      swap1\n      tag_99\n      swap2\n      swap1\n      tag_39\n      jump\t// in\n    tag_99:\n        /* \"homework/02/\\xe6\\x98\\xa0\\xe5\\xb0\\x84/UserBalanceManagerment.sol\":1433:1510  IterableMapping.set(balances,j,IterableMapping.getValueAtIndex(balances,j+1)) */\n      mload(0x40)\n      dup5\n      0xffffffff\n      and\n      0xe0\n      shl\n      dup2\n      mstore\n      0x04\n      add\n      tag_100\n      swap4\n      swap3\n      swap2\n      swap1\n      tag_101\n      jump\t// in\n    tag_100:\n      0x00\n      mload(0x40)\n      dup1\n      dup4\n      sub\n      dup2\n      dup7\n      dup1\n      extcodesize\n      iszero\n      dup1\n      iszero\n      tag_102\n      jumpi\n      0x00\n      dup1\n      revert\n    tag_102:\n      pop\n      gas\n      delegatecall\n      iszero\n      dup1\n      iszero\n      tag_104\n      jumpi\n      returndatasize\n      0x00\n      dup1\n      returndatacopy\n      revert(0x00, returndatasize)\n    tag_104:\n      pop\n      pop\n      pop\n      pop\n        /* \"homework/02/\\xe6\\x98\\xa0\\xe5\\xb0\\x84/UserBalanceManagerment.sol\":1533:1548  IterableMapping */\n      linkerSymbol(\"c947f54886c40084e2a28a99aab0e311c4b0a763a0092be3654e1dc78bf2d213\")\n        /* \"homework/02/\\xe6\\x98\\xa0\\xe5\\xb0\\x84/UserBalanceManagerment.sol\":1533:1552  IterableMapping.set */\n      0x7041e7b1\n        /* \"homework/02/\\xe6\\x98\\xa0\\xe5\\xb0\\x84/UserBalanceManagerment.sol\":1553:1561  balances */\n      0x00\n        /* \"homework/02/\\xe6\\x98\\xa0\\xe5\\xb0\\x84/UserBalanceManagerment.sol\":1564:1565  1 */\n      0x01\n        /* \"homework/02/\\xe6\\x98\\xa0\\xe5\\xb0\\x84/UserBalanceManagerment.sol\":1562:1563  j */\n      dup6\n        /* \"homework/02/\\xe6\\x98\\xa0\\xe5\\xb0\\x84/UserBalanceManagerment.sol\":1562:1565  j+1 */\n      tag_105\n      swap2\n      swap1\n      tag_79\n      jump\t// in\n    tag_105:\n        /* \"homework/02/\\xe6\\x98\\xa0\\xe5\\xb0\\x84/UserBalanceManagerment.sol\":1566:1570  temp */\n      dup5\n        /* \"homework/02/\\xe6\\x98\\xa0\\xe5\\xb0\\x84/UserBalanceManagerment.sol\":1533:1571  IterableMapping.set(balances,j+1,temp) */\n      mload(0x40)\n      dup5\n      0xffffffff\n      and\n      0xe0\n      shl\n      dup2\n      mstore\n      0x04\n      add\n      tag_106\n      swap4\n      swap3\n      swap2\n      swap1\n      tag_101\n      jump\t// in\n    tag_106:\n      0x00\n      mload(0x40)\n      dup1\n      dup4\n      sub\n      dup2\n      dup7\n      dup1\n      extcodesize\n      iszero\n      dup1\n      iszero\n      tag_107\n      jumpi\n      0x00\n      dup1\n      revert\n    tag_107:\n      pop\n      gas\n      delegatecall\n      iszero\n      dup1\n      iszero\n      tag_109\n      jumpi\n      returndatasize\n      0x00\n      dup1\n      returndatacopy\n      revert(0x00, returndatasize)\n    tag_109:\n      pop\n      pop\n      pop\n      pop\n        /* \"homework/02/\\xe6\\x98\\xa0\\xe5\\xb0\\x84/UserBalanceManagerment.sol\":1330:1591  {... */\n      pop\n        /* \"homework/02/\\xe6\\x98\\xa0\\xe5\\xb0\\x84/UserBalanceManagerment.sol\":1241:1591  if(IterableMapping.getKeyAtIndex(balances,j)>IterableMapping.getKeyAtIndex(balances,j+1)){... */\n    tag_90:\n        /* \"homework/02/\\xe6\\x98\\xa0\\xe5\\xb0\\x84/UserBalanceManagerment.sol\":1217:1220  j++ */\n      dup1\n      dup1\n      0x01\n      add\n      swap2\n      pop\n      pop\n        /* \"homework/02/\\xe6\\x98\\xa0\\xe5\\xb0\\x84/UserBalanceManagerment.sol\":1186:1606  for (uint j = 0; j < size-1-i; j++) {... */\n      jump(tag_73)\n    tag_74:\n      pop\n        /* \"homework/02/\\xe6\\x98\\xa0\\xe5\\xb0\\x84/UserBalanceManagerment.sol\":1166:1169  i++ */\n      dup1\n      dup1\n      0x01\n      add\n      swap2\n      pop\n      pop\n        /* \"homework/02/\\xe6\\x98\\xa0\\xe5\\xb0\\x84/UserBalanceManagerment.sol\":1137:1617  for (uint i = 0; i < size-1; i++) {... */\n      jump(tag_68)\n    tag_69:\n      pop\n        /* \"homework/02/\\xe6\\x98\\xa0\\xe5\\xb0\\x84/UserBalanceManagerment.sol\":862:1624  {... */\n      pop\n        /* \"homework/02/\\xe6\\x98\\xa0\\xe5\\xb0\\x84/UserBalanceManagerment.sol\":828:1624  function sortUserBalances() public{... */\n    tag_50:\n      jump\t// out\n        /* \"#utility.yul\":88:205   */\n    tag_111:\n        /* \"#utility.yul\":197:198   */\n      0x00\n        /* \"#utility.yul\":194:195   */\n      dup1\n        /* \"#utility.yul\":187:199   */\n      revert\n        /* \"#utility.yul\":334:411   */\n    tag_113:\n        /* \"#utility.yul\":371:378   */\n      0x00\n        /* \"#utility.yul\":400:405   */\n      dup2\n        /* \"#utility.yul\":389:405   */\n      swap1\n      pop\n        /* \"#utility.yul\":334:411   */\n      swap2\n      swap1\n      pop\n      jump\t// out\n        /* \"#utility.yul\":417:539   */\n    tag_114:\n        /* \"#utility.yul\":490:514   */\n      tag_136\n        /* \"#utility.yul\":508:513   */\n      dup2\n        /* \"#utility.yul\":490:514   */\n      tag_113\n      jump\t// in\n    tag_136:\n        /* \"#utility.yul\":483:488   */\n      dup2\n        /* \"#utility.yul\":480:515   */\n      eq\n        /* \"#utility.yul\":470:533   */\n      tag_137\n      jumpi\n        /* \"#utility.yul\":529:530   */\n      0x00\n        /* \"#utility.yul\":526:527   */\n      dup1\n        /* \"#utility.yul\":519:531   */\n      revert\n        /* \"#utility.yul\":470:533   */\n    tag_137:\n        /* \"#utility.yul\":417:539   */\n      pop\n      jump\t// out\n        /* \"#utility.yul\":545:684   */\n    tag_115:\n        /* \"#utility.yul\":591:596   */\n      0x00\n        /* \"#utility.yul\":629:635   */\n      dup2\n        /* \"#utility.yul\":616:636   */\n      calldataload\n        /* \"#utility.yul\":607:636   */\n      swap1\n      pop\n        /* \"#utility.yul\":645:678   */\n      tag_139\n        /* \"#utility.yul\":672:677   */\n      dup2\n        /* \"#utility.yul\":645:678   */\n      tag_114\n      jump\t// in\n    tag_139:\n        /* \"#utility.yul\":545:684   */\n      swap3\n      swap2\n      pop\n      pop\n      jump\t// out\n        /* \"#utility.yul\":690:1019   */\n    tag_10:\n        /* \"#utility.yul\":749:755   */\n      0x00\n        /* \"#utility.yul\":798:800   */\n      0x20\n        /* \"#utility.yul\":786:795   */\n      dup3\n        /* \"#utility.yul\":777:784   */\n      dup5\n        /* \"#utility.yul\":773:796   */\n      sub\n        /* \"#utility.yul\":769:801   */\n      slt\n        /* \"#utility.yul\":766:885   */\n      iszero\n      tag_141\n      jumpi\n        /* \"#utility.yul\":804:883   */\n      tag_142\n      tag_111\n      jump\t// in\n    tag_142:\n        /* \"#utility.yul\":766:885   */\n    tag_141:\n        /* \"#utility.yul\":924:925   */\n      0x00\n        /* \"#utility.yul\":949:1002   */\n      tag_143\n        /* \"#utility.yul\":994:1001   */\n      dup5\n        /* \"#utility.yul\":985:991   */\n      dup3\n        /* \"#utility.yul\":974:983   */\n      dup6\n        /* \"#utility.yul\":970:992   */\n      add\n        /* \"#utility.yul\":949:1002   */\n      tag_115\n      jump\t// in\n    tag_143:\n        /* \"#utility.yul\":939:1002   */\n      swap2\n      pop\n        /* \"#utility.yul\":895:1012   */\n      pop\n        /* \"#utility.yul\":690:1019   */\n      swap3\n      swap2\n      pop\n      pop\n      jump\t// out\n        /* \"#utility.yul\":1025:1143   */\n    tag_116:\n        /* \"#utility.yul\":1112:1136   */\n      tag_145\n        /* \"#utility.yul\":1130:1135   */\n      dup2\n        /* \"#utility.yul\":1112:1136   */\n      tag_113\n      jump\t// in\n    tag_145:\n        /* \"#utility.yul\":1107:1110   */\n      dup3\n        /* \"#utility.yul\":1100:1137   */\n      mstore\n        /* \"#utility.yul\":1025:1143   */\n      pop\n      pop\n      jump\t// out\n        /* \"#utility.yul\":1149:1371   */\n    tag_15:\n        /* \"#utility.yul\":1242:1246   */\n      0x00\n        /* \"#utility.yul\":1280:1282   */\n      0x20\n        /* \"#utility.yul\":1269:1278   */\n      dup3\n        /* \"#utility.yul\":1265:1283   */\n      add\n        /* \"#utility.yul\":1257:1283   */\n      swap1\n      pop\n        /* \"#utility.yul\":1293:1364   */\n      tag_147\n        /* \"#utility.yul\":1361:1362   */\n      0x00\n        /* \"#utility.yul\":1350:1359   */\n      dup4\n        /* \"#utility.yul\":1346:1363   */\n      add\n        /* \"#utility.yul\":1337:1343   */\n      dup5\n        /* \"#utility.yul\":1293:1364   */\n      tag_116\n      jump\t// in\n    tag_147:\n        /* \"#utility.yul\":1149:1371   */\n      swap3\n      swap2\n      pop\n      pop\n      jump\t// out\n        /* \"#utility.yul\":1377:1503   */\n    tag_117:\n        /* \"#utility.yul\":1414:1421   */\n      0x00\n        /* \"#utility.yul\":1454:1496   */\n      0xffffffffffffffffffffffffffffffffffffffff\n        /* \"#utility.yul\":1447:1452   */\n      dup3\n        /* \"#utility.yul\":1443:1497   */\n      and\n        /* \"#utility.yul\":1432:1497   */\n      swap1\n      pop\n        /* \"#utility.yul\":1377:1503   */\n      swap2\n      swap1\n      pop\n      jump\t// out\n        /* \"#utility.yul\":1509:1605   */\n    tag_118:\n        /* \"#utility.yul\":1546:1553   */\n      0x00\n        /* \"#utility.yul\":1575:1599   */\n      tag_150\n        /* \"#utility.yul\":1593:1598   */\n      dup3\n        /* \"#utility.yul\":1575:1599   */\n      tag_117\n      jump\t// in\n    tag_150:\n        /* \"#utility.yul\":1564:1599   */\n      swap1\n      pop\n        /* \"#utility.yul\":1509:1605   */\n      swap2\n      swap1\n      pop\n      jump\t// out\n        /* \"#utility.yul\":1611:1733   */\n    tag_119:\n        /* \"#utility.yul\":1684:1708   */\n      tag_152\n        /* \"#utility.yul\":1702:1707   */\n      dup2\n        /* \"#utility.yul\":1684:1708   */\n      tag_118\n      jump\t// in\n    tag_152:\n        /* \"#utility.yul\":1677:1682   */\n      dup2\n        /* \"#utility.yul\":1674:1709   */\n      eq\n        /* \"#utility.yul\":1664:1727   */\n      tag_153\n      jumpi\n        /* \"#utility.yul\":1723:1724   */\n      0x00\n        /* \"#utility.yul\":1720:1721   */\n      dup1\n        /* \"#utility.yul\":1713:1725   */\n      revert\n        /* \"#utility.yul\":1664:1727   */\n    tag_153:\n        /* \"#utility.yul\":1611:1733   */\n      pop\n      jump\t// out\n        /* \"#utility.yul\":1739:1878   */\n    tag_120:\n        /* \"#utility.yul\":1785:1790   */\n      0x00\n        /* \"#utility.yul\":1823:1829   */\n      dup2\n        /* \"#utility.yul\":1810:1830   */\n      calldataload\n        /* \"#utility.yul\":1801:1830   */\n      swap1\n      pop\n        /* \"#utility.yul\":1839:1872   */\n      tag_155\n        /* \"#utility.yul\":1866:1871   */\n      dup2\n        /* \"#utility.yul\":1839:1872   */\n      tag_119\n      jump\t// in\n    tag_155:\n        /* \"#utility.yul\":1739:1878   */\n      swap3\n      swap2\n      pop\n      pop\n      jump\t// out\n        /* \"#utility.yul\":1884:2358   */\n    tag_18:\n        /* \"#utility.yul\":1952:1958   */\n      0x00\n        /* \"#utility.yul\":1960:1966   */\n      dup1\n        /* \"#utility.yul\":2009:2011   */\n      0x40\n        /* \"#utility.yul\":1997:2006   */\n      dup4\n        /* \"#utility.yul\":1988:1995   */\n      dup6\n        /* \"#utility.yul\":1984:2007   */\n      sub\n        /* \"#utility.yul\":1980:2012   */\n      slt\n        /* \"#utility.yul\":1977:2096   */\n      iszero\n      tag_157\n      jumpi\n        /* \"#utility.yul\":2015:2094   */\n      tag_158\n      tag_111\n      jump\t// in\n    tag_158:\n        /* \"#utility.yul\":1977:2096   */\n    tag_157:\n        /* \"#utility.yul\":2135:2136   */\n      0x00\n        /* \"#utility.yul\":2160:2213   */\n      tag_159\n        /* \"#utility.yul\":2205:2212   */\n      dup6\n        /* \"#utility.yul\":2196:2202   */\n      dup3\n        /* \"#utility.yul\":2185:2194   */\n      dup7\n        /* \"#utility.yul\":2181:2203   */\n      add\n        /* \"#utility.yul\":2160:2213   */\n      tag_120\n      jump\t// in\n    tag_159:\n        /* \"#utility.yul\":2150:2213   */\n      swap3\n      pop\n        /* \"#utility.yul\":2106:2223   */\n      pop\n        /* \"#utility.yul\":2262:2264   */\n      0x20\n        /* \"#utility.yul\":2288:2341   */\n      tag_160\n        /* \"#utility.yul\":2333:2340   */\n      dup6\n        /* \"#utility.yul\":2324:2330   */\n      dup3\n        /* \"#utility.yul\":2313:2322   */\n      dup7\n        /* \"#utility.yul\":2309:2331   */\n      add\n        /* \"#utility.yul\":2288:2341   */\n      tag_115\n      jump\t// in\n    tag_160:\n        /* \"#utility.yul\":2278:2341   */\n      swap2\n      pop\n        /* \"#utility.yul\":2233:2351   */\n      pop\n        /* \"#utility.yul\":1884:2358   */\n      swap3\n      pop\n      swap3\n      swap1\n      pop\n      jump\t// out\n        /* \"#utility.yul\":2364:2693   */\n    tag_22:\n        /* \"#utility.yul\":2423:2429   */\n      0x00\n        /* \"#utility.yul\":2472:2474   */\n      0x20\n        /* \"#utility.yul\":2460:2469   */\n      dup3\n        /* \"#utility.yul\":2451:2458   */\n      dup5\n        /* \"#utility.yul\":2447:2470   */\n      sub\n        /* \"#utility.yul\":2443:2475   */\n      slt\n        /* \"#utility.yul\":2440:2559   */\n      iszero\n      tag_162\n      jumpi\n        /* \"#utility.yul\":2478:2557   */\n      tag_163\n      tag_111\n      jump\t// in\n    tag_163:\n        /* \"#utility.yul\":2440:2559   */\n    tag_162:\n        /* \"#utility.yul\":2598:2599   */\n      0x00\n        /* \"#utility.yul\":2623:2676   */\n      tag_164\n        /* \"#utility.yul\":2668:2675   */\n      dup5\n        /* \"#utility.yul\":2659:2665   */\n      dup3\n        /* \"#utility.yul\":2648:2657   */\n      dup6\n        /* \"#utility.yul\":2644:2666   */\n      add\n        /* \"#utility.yul\":2623:2676   */\n      tag_120\n      jump\t// in\n    tag_164:\n        /* \"#utility.yul\":2613:2676   */\n      swap2\n      pop\n        /* \"#utility.yul\":2569:2686   */\n      pop\n        /* \"#utility.yul\":2364:2693   */\n      swap3\n      swap2\n      pop\n      pop\n      jump\t// out\n        /* \"#utility.yul\":2699:2823   */\n    tag_121:\n        /* \"#utility.yul\":2811:2816   */\n      dup1\n        /* \"#utility.yul\":2806:2809   */\n      dup3\n        /* \"#utility.yul\":2799:2817   */\n      mstore\n        /* \"#utility.yul\":2699:2823   */\n      pop\n      pop\n      jump\t// out\n        /* \"#utility.yul\":2829:2955   */\n    tag_122:\n        /* \"#utility.yul\":2924:2948   */\n      tag_167\n        /* \"#utility.yul\":2942:2947   */\n      dup2\n        /* \"#utility.yul\":2924:2948   */\n      tag_118\n      jump\t// in\n    tag_167:\n        /* \"#utility.yul\":2919:2922   */\n      dup3\n        /* \"#utility.yul\":2912:2949   */\n      mstore\n        /* \"#utility.yul\":2829:2955   */\n      pop\n      pop\n      jump\t// out\n        /* \"#utility.yul\":2961:3087   */\n    tag_123:\n        /* \"#utility.yul\":3056:3080   */\n      tag_169\n        /* \"#utility.yul\":3074:3079   */\n      dup2\n        /* \"#utility.yul\":3056:3080   */\n      tag_113\n      jump\t// in\n    tag_169:\n        /* \"#utility.yul\":3051:3054   */\n      dup3\n        /* \"#utility.yul\":3044:3081   */\n      mstore\n        /* \"#utility.yul\":2961:3087   */\n      pop\n      pop\n      jump\t// out\n        /* \"#utility.yul\":3093:3601   */\n    tag_29:\n        /* \"#utility.yul\":3267:3271   */\n      0x00\n        /* \"#utility.yul\":3305:3307   */\n      0x60\n        /* \"#utility.yul\":3294:3303   */\n      dup3\n        /* \"#utility.yul\":3290:3308   */\n      add\n        /* \"#utility.yul\":3282:3308   */\n      swap1\n      pop\n        /* \"#utility.yul\":3318:3414   */\n      tag_171\n        /* \"#utility.yul\":3411:3412   */\n      0x00\n        /* \"#utility.yul\":3400:3409   */\n      dup4\n        /* \"#utility.yul\":3396:3413   */\n      add\n        /* \"#utility.yul\":3387:3393   */\n      dup7\n        /* \"#utility.yul\":3318:3414   */\n      tag_121\n      jump\t// in\n    tag_171:\n        /* \"#utility.yul\":3424:3504   */\n      tag_172\n        /* \"#utility.yul\":3500:3502   */\n      0x20\n        /* \"#utility.yul\":3489:3498   */\n      dup4\n        /* \"#utility.yul\":3485:3503   */\n      add\n        /* \"#utility.yul\":3476:3482   */\n      dup6\n        /* \"#utility.yul\":3424:3504   */\n      tag_122\n      jump\t// in\n    tag_172:\n        /* \"#utility.yul\":3514:3594   */\n      tag_173\n        /* \"#utility.yul\":3590:3592   */\n      0x40\n        /* \"#utility.yul\":3579:3588   */\n      dup4\n        /* \"#utility.yul\":3575:3593   */\n      add\n        /* \"#utility.yul\":3566:3572   */\n      dup5\n        /* \"#utility.yul\":3514:3594   */\n      tag_123\n      jump\t// in\n    tag_173:\n        /* \"#utility.yul\":3093:3601   */\n      swap5\n      swap4\n      pop\n      pop\n      pop\n      pop\n      jump\t// out\n        /* \"#utility.yul\":3607:3997   */\n    tag_35:\n        /* \"#utility.yul\":3753:3757   */\n      0x00\n        /* \"#utility.yul\":3791:3793   */\n      0x40\n        /* \"#utility.yul\":3780:3789   */\n      dup3\n        /* \"#utility.yul\":3776:3794   */\n      add\n        /* \"#utility.yul\":3768:3794   */\n      swap1\n      pop\n        /* \"#utility.yul\":3804:3900   */\n      tag_175\n        /* \"#utility.yul\":3897:3898   */\n      0x00\n        /* \"#utility.yul\":3886:3895   */\n      dup4\n        /* \"#utility.yul\":3882:3899   */\n      add\n        /* \"#utility.yul\":3873:3879   */\n      dup6\n        /* \"#utility.yul\":3804:3900   */\n      tag_121\n      jump\t// in\n    tag_175:\n        /* \"#utility.yul\":3910:3990   */\n      tag_176\n        /* \"#utility.yul\":3986:3988   */\n      0x20\n        /* \"#utility.yul\":3975:3984   */\n      dup4\n        /* \"#utility.yul\":3971:3989   */\n      add\n        /* \"#utility.yul\":3962:3968   */\n      dup5\n        /* \"#utility.yul\":3910:3990   */\n      tag_122\n      jump\t// in\n    tag_176:\n        /* \"#utility.yul\":3607:3997   */\n      swap4\n      swap3\n      pop\n      pop\n      pop\n      jump\t// out\n        /* \"#utility.yul\":4003:4146   */\n    tag_124:\n        /* \"#utility.yul\":4060:4065   */\n      0x00\n        /* \"#utility.yul\":4091:4097   */\n      dup2\n        /* \"#utility.yul\":4085:4098   */\n      mload\n        /* \"#utility.yul\":4076:4098   */\n      swap1\n      pop\n        /* \"#utility.yul\":4107:4140   */\n      tag_178\n        /* \"#utility.yul\":4134:4139   */\n      dup2\n        /* \"#utility.yul\":4107:4140   */\n      tag_114\n      jump\t// in\n    tag_178:\n        /* \"#utility.yul\":4003:4146   */\n      swap3\n      swap2\n      pop\n      pop\n      jump\t// out\n        /* \"#utility.yul\":4152:4503   */\n    tag_39:\n        /* \"#utility.yul\":4222:4228   */\n      0x00\n        /* \"#utility.yul\":4271:4273   */\n      0x20\n        /* \"#utility.yul\":4259:4268   */\n      dup3\n        /* \"#utility.yul\":4250:4257   */\n      dup5\n        /* \"#utility.yul\":4246:4269   */\n      sub\n        /* \"#utility.yul\":4242:4274   */\n      slt\n        /* \"#utility.yul\":4239:4358   */\n      iszero\n      tag_180\n      jumpi\n        /* \"#utility.yul\":4277:4356   */\n      tag_181\n      tag_111\n      jump\t// in\n    tag_181:\n        /* \"#utility.yul\":4239:4358   */\n    tag_180:\n        /* \"#utility.yul\":4397:4398   */\n      0x00\n        /* \"#utility.yul\":4422:4486   */\n      tag_182\n        /* \"#utility.yul\":4478:4485   */\n      dup5\n        /* \"#utility.yul\":4469:4475   */\n      dup3\n        /* \"#utility.yul\":4458:4467   */\n      dup6\n        /* \"#utility.yul\":4454:4476   */\n      add\n        /* \"#utility.yul\":4422:4486   */\n      tag_124\n      jump\t// in\n    tag_182:\n        /* \"#utility.yul\":4412:4486   */\n      swap2\n      pop\n        /* \"#utility.yul\":4368:4496   */\n      pop\n        /* \"#utility.yul\":4152:4503   */\n      swap3\n      swap2\n      pop\n      pop\n      jump\t// out\n        /* \"#utility.yul\":4509:4781   */\n    tag_52:\n        /* \"#utility.yul\":4627:4631   */\n      0x00\n        /* \"#utility.yul\":4665:4667   */\n      0x20\n        /* \"#utility.yul\":4654:4663   */\n      dup3\n        /* \"#utility.yul\":4650:4668   */\n      add\n        /* \"#utility.yul\":4642:4668   */\n      swap1\n      pop\n        /* \"#utility.yul\":4678:4774   */\n      tag_184\n        /* \"#utility.yul\":4771:4772   */\n      0x00\n        /* \"#utility.yul\":4760:4769   */\n      dup4\n        /* \"#utility.yul\":4756:4773   */\n      add\n        /* \"#utility.yul\":4747:4753   */\n      dup5\n        /* \"#utility.yul\":4678:4774   */\n      tag_121\n      jump\t// in\n    tag_184:\n        /* \"#utility.yul\":4509:4781   */\n      swap3\n      swap2\n      pop\n      pop\n      jump\t// out\n        /* \"#utility.yul\":4787:4956   */\n    tag_125:\n        /* \"#utility.yul\":4871:4882   */\n      0x00\n        /* \"#utility.yul\":4905:4911   */\n      dup3\n        /* \"#utility.yul\":4900:4903   */\n      dup3\n        /* \"#utility.yul\":4893:4912   */\n      mstore\n        /* \"#utility.yul\":4945:4949   */\n      0x20\n        /* \"#utility.yul\":4940:4943   */\n      dup3\n        /* \"#utility.yul\":4936:4950   */\n      add\n        /* \"#utility.yul\":4921:4950   */\n      swap1\n      pop\n        /* \"#utility.yul\":4787:4956   */\n      swap3\n      swap2\n      pop\n      pop\n      jump\t// out\n        /* \"#utility.yul\":4962:5129   */\n    tag_126:\n        /* \"#utility.yul\":5102:5121   */\n      0x62616c616e636573206e656564203e2030000000000000000000000000000000\n        /* \"#utility.yul\":5098:5099   */\n      0x00\n        /* \"#utility.yul\":5090:5096   */\n      dup3\n        /* \"#utility.yul\":5086:5100   */\n      add\n        /* \"#utility.yul\":5079:5122   */\n      mstore\n        /* \"#utility.yul\":4962:5129   */\n      pop\n      jump\t// out\n        /* \"#utility.yul\":5135:5501   */\n    tag_127:\n        /* \"#utility.yul\":5277:5280   */\n      0x00\n        /* \"#utility.yul\":5298:5365   */\n      tag_188\n        /* \"#utility.yul\":5362:5364   */\n      0x11\n        /* \"#utility.yul\":5357:5360   */\n      dup4\n        /* \"#utility.yul\":5298:5365   */\n      tag_125\n      jump\t// in\n    tag_188:\n        /* \"#utility.yul\":5291:5365   */\n      swap2\n      pop\n        /* \"#utility.yul\":5374:5467   */\n      tag_189\n        /* \"#utility.yul\":5463:5466   */\n      dup3\n        /* \"#utility.yul\":5374:5467   */\n      tag_126\n      jump\t// in\n    tag_189:\n        /* \"#utility.yul\":5492:5494   */\n      0x20\n        /* \"#utility.yul\":5487:5490   */\n      dup3\n        /* \"#utility.yul\":5483:5495   */\n      add\n        /* \"#utility.yul\":5476:5495   */\n      swap1\n      pop\n        /* \"#utility.yul\":5135:5501   */\n      swap2\n      swap1\n      pop\n      jump\t// out\n        /* \"#utility.yul\":5507:5926   */\n    tag_63:\n        /* \"#utility.yul\":5673:5677   */\n      0x00\n        /* \"#utility.yul\":5711:5713   */\n      0x20\n        /* \"#utility.yul\":5700:5709   */\n      dup3\n        /* \"#utility.yul\":5696:5714   */\n      add\n        /* \"#utility.yul\":5688:5714   */\n      swap1\n      pop\n        /* \"#utility.yul\":5760:5769   */\n      dup2\n        /* \"#utility.yul\":5754:5758   */\n      dup2\n        /* \"#utility.yul\":5750:5770   */\n      sub\n        /* \"#utility.yul\":5746:5747   */\n      0x00\n        /* \"#utility.yul\":5735:5744   */\n      dup4\n        /* \"#utility.yul\":5731:5748   */\n      add\n        /* \"#utility.yul\":5724:5771   */\n      mstore\n        /* \"#utility.yul\":5788:5919   */\n      tag_191\n        /* \"#utility.yul\":5914:5918   */\n      dup2\n        /* \"#utility.yul\":5788:5919   */\n      tag_127\n      jump\t// in\n    tag_191:\n        /* \"#utility.yul\":5780:5919   */\n      swap1\n      pop\n        /* \"#utility.yul\":5507:5926   */\n      swap2\n      swap1\n      pop\n      jump\t// out\n        /* \"#utility.yul\":5932:6112   */\n    tag_128:\n        /* \"#utility.yul\":5980:6057   */\n      0x4e487b7100000000000000000000000000000000000000000000000000000000\n        /* \"#utility.yul\":5977:5978   */\n      0x00\n        /* \"#utility.yul\":5970:6058   */\n      mstore\n        /* \"#utility.yul\":6077:6081   */\n      0x11\n        /* \"#utility.yul\":6074:6075   */\n      0x04\n        /* \"#utility.yul\":6067:6082   */\n      mstore\n        /* \"#utility.yul\":6101:6105   */\n      0x24\n        /* \"#utility.yul\":6098:6099   */\n      0x00\n        /* \"#utility.yul\":6091:6106   */\n      revert\n        /* \"#utility.yul\":6118:6312   */\n    tag_72:\n        /* \"#utility.yul\":6158:6162   */\n      0x00\n        /* \"#utility.yul\":6178:6198   */\n      tag_194\n        /* \"#utility.yul\":6196:6197   */\n      dup3\n        /* \"#utility.yul\":6178:6198   */\n      tag_113\n      jump\t// in\n    tag_194:\n        /* \"#utility.yul\":6173:6198   */\n      swap2\n      pop\n        /* \"#utility.yul\":6212:6232   */\n      tag_195\n        /* \"#utility.yul\":6230:6231   */\n      dup4\n        /* \"#utility.yul\":6212:6232   */\n      tag_113\n      jump\t// in\n    tag_195:\n        /* \"#utility.yul\":6207:6232   */\n      swap3\n      pop\n        /* \"#utility.yul\":6256:6257   */\n      dup3\n        /* \"#utility.yul\":6253:6254   */\n      dup3\n        /* \"#utility.yul\":6249:6258   */\n      sub\n        /* \"#utility.yul\":6241:6258   */\n      swap1\n      pop\n        /* \"#utility.yul\":6280:6281   */\n      dup2\n        /* \"#utility.yul\":6274:6278   */\n      dup2\n        /* \"#utility.yul\":6271:6282   */\n      gt\n        /* \"#utility.yul\":6268:6305   */\n      iszero\n      tag_196\n      jumpi\n        /* \"#utility.yul\":6285:6303   */\n      tag_197\n      tag_128\n      jump\t// in\n    tag_197:\n        /* \"#utility.yul\":6268:6305   */\n    tag_196:\n        /* \"#utility.yul\":6118:6312   */\n      swap3\n      swap2\n      pop\n      pop\n      jump\t// out\n        /* \"#utility.yul\":6318:6509   */\n    tag_79:\n        /* \"#utility.yul\":6358:6361   */\n      0x00\n        /* \"#utility.yul\":6377:6397   */\n      tag_199\n        /* \"#utility.yul\":6395:6396   */\n      dup3\n        /* \"#utility.yul\":6377:6397   */\n      tag_113\n      jump\t// in\n    tag_199:\n        /* \"#utility.yul\":6372:6397   */\n      swap2\n      pop\n        /* \"#utility.yul\":6411:6431   */\n      tag_200\n        /* \"#utility.yul\":6429:6430   */\n      dup4\n        /* \"#utility.yul\":6411:6431   */\n      tag_113\n      jump\t// in\n    tag_200:\n        /* \"#utility.yul\":6406:6431   */\n      swap3\n      pop\n        /* \"#utility.yul\":6454:6455   */\n      dup3\n        /* \"#utility.yul\":6451:6452   */\n      dup3\n        /* \"#utility.yul\":6447:6456   */\n      add\n        /* \"#utility.yul\":6440:6456   */\n      swap1\n      pop\n        /* \"#utility.yul\":6475:6478   */\n      dup1\n        /* \"#utility.yul\":6472:6473   */\n      dup3\n        /* \"#utility.yul\":6469:6479   */\n      gt\n        /* \"#utility.yul\":6466:6502   */\n      iszero\n      tag_201\n      jumpi\n        /* \"#utility.yul\":6482:6500   */\n      tag_202\n      tag_128\n      jump\t// in\n    tag_202:\n        /* \"#utility.yul\":6466:6502   */\n    tag_201:\n        /* \"#utility.yul\":6318:6509   */\n      swap3\n      swap2\n      pop\n      pop\n      jump\t// out\n        /* \"#utility.yul\":6515:6905   */\n    tag_81:\n        /* \"#utility.yul\":6661:6665   */\n      0x00\n        /* \"#utility.yul\":6699:6701   */\n      0x40\n        /* \"#utility.yul\":6688:6697   */\n      dup3\n        /* \"#utility.yul\":6684:6702   */\n      add\n        /* \"#utility.yul\":6676:6702   */\n      swap1\n      pop\n        /* \"#utility.yul\":6712:6808   */\n      tag_204\n        /* \"#utility.yul\":6805:6806   */\n      0x00\n        /* \"#utility.yul\":6794:6803   */\n      dup4\n        /* \"#utility.yul\":6790:6807   */\n      add\n        /* \"#utility.yul\":6781:6787   */\n      dup6\n        /* \"#utility.yul\":6712:6808   */\n      tag_121\n      jump\t// in\n    tag_204:\n        /* \"#utility.yul\":6818:6898   */\n      tag_205\n        /* \"#utility.yul\":6894:6896   */\n      0x20\n        /* \"#utility.yul\":6883:6892   */\n      dup4\n        /* \"#utility.yul\":6879:6897   */\n      add\n        /* \"#utility.yul\":6870:6876   */\n      dup5\n        /* \"#utility.yul\":6818:6898   */\n      tag_123\n      jump\t// in\n    tag_205:\n        /* \"#utility.yul\":6515:6905   */\n      swap4\n      swap3\n      pop\n      pop\n      pop\n      jump\t// out\n        /* \"#utility.yul\":6911:7054   */\n    tag_129:\n        /* \"#utility.yul\":6968:6973   */\n      0x00\n        /* \"#utility.yul\":6999:7005   */\n      dup2\n        /* \"#utility.yul\":6993:7006   */\n      mload\n        /* \"#utility.yul\":6984:7006   */\n      swap1\n      pop\n        /* \"#utility.yul\":7015:7048   */\n      tag_207\n        /* \"#utility.yul\":7042:7047   */\n      dup2\n        /* \"#utility.yul\":7015:7048   */\n      tag_119\n      jump\t// in\n    tag_207:\n        /* \"#utility.yul\":6911:7054   */\n      swap3\n      swap2\n      pop\n      pop\n      jump\t// out\n        /* \"#utility.yul\":7060:7411   */\n    tag_85:\n        /* \"#utility.yul\":7130:7136   */\n      0x00\n        /* \"#utility.yul\":7179:7181   */\n      0x20\n        /* \"#utility.yul\":7167:7176   */\n      dup3\n        /* \"#utility.yul\":7158:7165   */\n      dup5\n        /* \"#utility.yul\":7154:7177   */\n      sub\n        /* \"#utility.yul\":7150:7182   */\n      slt\n        /* \"#utility.yul\":7147:7266   */\n      iszero\n      tag_209\n      jumpi\n        /* \"#utility.yul\":7185:7264   */\n      tag_210\n      tag_111\n      jump\t// in\n    tag_210:\n        /* \"#utility.yul\":7147:7266   */\n    tag_209:\n        /* \"#utility.yul\":7305:7306   */\n      0x00\n        /* \"#utility.yul\":7330:7394   */\n      tag_211\n        /* \"#utility.yul\":7386:7393   */\n      dup5\n        /* \"#utility.yul\":7377:7383   */\n      dup3\n        /* \"#utility.yul\":7366:7375   */\n      dup6\n        /* \"#utility.yul\":7362:7384   */\n      add\n        /* \"#utility.yul\":7330:7394   */\n      tag_129\n      jump\t// in\n    tag_211:\n        /* \"#utility.yul\":7320:7394   */\n      swap2\n      pop\n        /* \"#utility.yul\":7276:7404   */\n      pop\n        /* \"#utility.yul\":7060:7411   */\n      swap3\n      swap2\n      pop\n      pop\n      jump\t// out\n        /* \"#utility.yul\":7417:7925   */\n    tag_101:\n        /* \"#utility.yul\":7591:7595   */\n      0x00\n        /* \"#utility.yul\":7629:7631   */\n      0x60\n        /* \"#utility.yul\":7618:7627   */\n      dup3\n        /* \"#utility.yul\":7614:7632   */\n      add\n        /* \"#utility.yul\":7606:7632   */\n      swap1\n      pop\n        /* \"#utility.yul\":7642:7738   */\n      tag_213\n        /* \"#utility.yul\":7735:7736   */\n      0x00\n        /* \"#utility.yul\":7724:7733   */\n      dup4\n        /* \"#utility.yul\":7720:7737   */\n      add\n        /* \"#utility.yul\":7711:7717   */\n      dup7\n        /* \"#utility.yul\":7642:7738   */\n      tag_121\n      jump\t// in\n    tag_213:\n        /* \"#utility.yul\":7748:7828   */\n      tag_214\n        /* \"#utility.yul\":7824:7826   */\n      0x20\n        /* \"#utility.yul\":7813:7822   */\n      dup4\n        /* \"#utility.yul\":7809:7827   */\n      add\n        /* \"#utility.yul\":7800:7806   */\n      dup6\n        /* \"#utility.yul\":7748:7828   */\n      tag_123\n      jump\t// in\n    tag_214:\n        /* \"#utility.yul\":7838:7918   */\n      tag_215\n        /* \"#utility.yul\":7914:7916   */\n      0x40\n        /* \"#utility.yul\":7903:7912   */\n      dup4\n        /* \"#utility.yul\":7899:7917   */\n      add\n        /* \"#utility.yul\":7890:7896   */\n      dup5\n        /* \"#utility.yul\":7838:7918   */\n      tag_123\n      jump\t// in\n    tag_215:\n        /* \"#utility.yul\":7417:7925   */\n      swap5\n      swap4\n      pop\n      pop\n      pop\n      pop\n      jump\t// out\n\n    auxdata: 0xa2646970667358221220658da829f5f72f502634a7ddbd997764b7a4ae1ce5c59c1c09deeb08ffa098e964736f6c634300081a0033\n}\n",
				"bytecode": {
					"linkReferences": {
						"homework/library/IterableMapping.sol": {
							"IterableMapping": [
								{
									"length": 20,
									"start": 263
								},
								{
									"length": 20,
									"start": 370
								},
								{
									"length": 20,
									"start": 495
								},
								{
									"length": 20,
									"start": 603
								},
								{
									"length": 20,
									"start": 731
								},
								{
									"length": 20,
									"start": 856
								},
								{
									"length": 20,
									"start": 1039
								},
								{
									"length": 20,
									"start": 1214
								},
								{
									"length": 20,
									"start": 1368
								},
								{
									"length": 20,
									"start": 1517
								},
								{
									"length": 20,
									"start": 1639
								},
								{
									"length": 20,
									"start": 1667
								},
								{
									"length": 20,
									"start": 1873
								}
							]
						}
					},
					"object": "6080604052348015600e575f80fd5b50610bca8061001c5f395ff3fe608060405234801561000f575f80fd5b5060043610610055575f3560e01c806310eef3be1461005957806330bbcade146100755780637aa53ecc14610093578063cdc8a2e6146100af578063fbf83ffa146100df575b5f80fd5b610073600480360381019061006e91906107ff565b6100e9565b005b61007d610153565b60405161008a9190610839565b60405180910390f35b6100ad60048036038101906100a891906108ac565b6101d1565b005b6100c960048036038101906100c491906108ea565b61023c565b6040516100d69190610839565b60405180910390f35b6100e76102bc565b005b73__$c947f54886c40084e2a28a99aab0e311c4$__63bc2b405c5f33846040518463ffffffff1660e01b81526004016101249392919061093a565b5f6040518083038186803b15801561013a575f80fd5b505af415801561014c573d5f803e3d5ffd5b5050505050565b5f73__$c947f54886c40084e2a28a99aab0e311c4$__63732a2ccf5f336040518363ffffffff1660e01b815260040161018d92919061096f565b602060405180830381865af41580156101a8573d5f803e3d5ffd5b505050506040513d601f19601f820116820180604052508101906101cc91906109aa565b905090565b73__$c947f54886c40084e2a28a99aab0e311c4$__63bc2b405c5f84846040518463ffffffff1660e01b815260040161020c9392919061093a565b5f6040518083038186803b158015610222575f80fd5b505af4158015610234573d5f803e3d5ffd5b505050505050565b5f73__$c947f54886c40084e2a28a99aab0e311c4$__63732a2ccf5f846040518363ffffffff1660e01b815260040161027692919061096f565b602060405180830381865af4158015610291573d5f803e3d5ffd5b505050506040513d601f19601f820116820180604052508101906102b591906109aa565b9050919050565b5f73__$c947f54886c40084e2a28a99aab0e311c4$__63deb3d8965f6040518263ffffffff1660e01b81526004016102f491906109d5565b602060405180830381865af415801561030f573d5f803e3d5ffd5b505050506040513d601f19601f8201168201806040525081019061033391906109aa565b11156107c6575f73__$c947f54886c40084e2a28a99aab0e311c4$__63deb3d8965f6040518263ffffffff1660e01b815260040161037191906109d5565b602060405180830381865af415801561038c573d5f803e3d5ffd5b505050506040513d601f19601f820116820180604052508101906103b091906109aa565b116103f0576040517f08c379a00000000000000000000000000000000000000000000000000000000081526004016103e790610a48565b60405180910390fd5b5f73__$c947f54886c40084e2a28a99aab0e311c4$__63deb3d8965f6040518263ffffffff1660e01b815260040161042891906109d5565b602060405180830381865af4158015610443573d5f803e3d5ffd5b505050506040513d601f19601f8201168201806040525081019061046791906109aa565b90505f5b6001826104789190610a93565b8110156107c3575f5b8160018461048f9190610a93565b6104999190610a93565b8110156107b55773__$c947f54886c40084e2a28a99aab0e311c4$__63d1aa9e7e5f6001846104c89190610ac6565b6040518363ffffffff1660e01b81526004016104e5929190610af9565b602060405180830381865af4158015610500573d5f803e3d5ffd5b505050506040513d601f19601f820116820180604052508101906105249190610b34565b73ffffffffffffffffffffffffffffffffffffffff1673__$c947f54886c40084e2a28a99aab0e311c4$__63d1aa9e7e5f846040518363ffffffff1660e01b8152600401610573929190610af9565b602060405180830381865af415801561058e573d5f803e3d5ffd5b505050506040513d601f19601f820116820180604052508101906105b29190610b34565b73ffffffffffffffffffffffffffffffffffffffff1611156107a8575f73__$c947f54886c40084e2a28a99aab0e311c4$__63110868d65f846040518363ffffffff1660e01b8152600401610608929190610af9565b602060405180830381865af4158015610623573d5f803e3d5ffd5b505050506040513d601f19601f8201168201806040525081019061064791906109aa565b905073__$c947f54886c40084e2a28a99aab0e311c4$__637041e7b15f8473__$c947f54886c40084e2a28a99aab0e311c4$__63110868d65f60018961068d9190610ac6565b6040518363ffffffff1660e01b81526004016106aa929190610af9565b602060405180830381865af41580156106c5573d5f803e3d5ffd5b505050506040513d601f19601f820116820180604052508101906106e991906109aa565b6040518463ffffffff1660e01b815260040161070793929190610b5f565b5f6040518083038186803b15801561071d575f80fd5b505af415801561072f573d5f803e3d5ffd5b5050505073__$c947f54886c40084e2a28a99aab0e311c4$__637041e7b15f60018561075b9190610ac6565b846040518463ffffffff1660e01b815260040161077a93929190610b5f565b5f6040518083038186803b158015610790575f80fd5b505af41580156107a2573d5f803e3d5ffd5b50505050505b8080600101915050610481565b50808060010191505061046b565b50505b565b5f80fd5b5f819050919050565b6107de816107cc565b81146107e8575f80fd5b50565b5f813590506107f9816107d5565b92915050565b5f60208284031215610814576108136107c8565b5b5f610821848285016107eb565b91505092915050565b610833816107cc565b82525050565b5f60208201905061084c5f83018461082a565b92915050565b5f73ffffffffffffffffffffffffffffffffffffffff82169050919050565b5f61087b82610852565b9050919050565b61088b81610871565b8114610895575f80fd5b50565b5f813590506108a681610882565b92915050565b5f80604083850312156108c2576108c16107c8565b5b5f6108cf85828601610898565b92505060206108e0858286016107eb565b9150509250929050565b5f602082840312156108ff576108fe6107c8565b5b5f61090c84828501610898565b91505092915050565b8082525050565b61092581610871565b82525050565b610934816107cc565b82525050565b5f60608201905061094d5f830186610915565b61095a602083018561091c565b610967604083018461092b565b949350505050565b5f6040820190506109825f830185610915565b61098f602083018461091c565b9392505050565b5f815190506109a4816107d5565b92915050565b5f602082840312156109bf576109be6107c8565b5b5f6109cc84828501610996565b91505092915050565b5f6020820190506109e85f830184610915565b92915050565b5f82825260208201905092915050565b7f62616c616e636573206e656564203e20300000000000000000000000000000005f82015250565b5f610a326011836109ee565b9150610a3d826109fe565b602082019050919050565b5f6020820190508181035f830152610a5f81610a26565b9050919050565b7f4e487b71000000000000000000000000000000000000000000000000000000005f52601160045260245ffd5b5f610a9d826107cc565b9150610aa8836107cc565b9250828203905081811115610ac057610abf610a66565b5b92915050565b5f610ad0826107cc565b9150610adb836107cc565b9250828201905080821115610af357610af2610a66565b5b92915050565b5f604082019050610b0c5f830185610915565b610b19602083018461092b565b9392505050565b5f81519050610b2e81610882565b92915050565b5f60208284031215610b4957610b486107c8565b5b5f610b5684828501610b20565b91505092915050565b5f606082019050610b725f830186610915565b610b7f602083018561092b565b610b8c604083018461092b565b94935050505056fea2646970667358221220658da829f5f72f502634a7ddbd997764b7a4ae1ce5c59c1c09deeb08ffa098e964736f6c634300081a0033",
					"opcodes": "PUSH1 0x80 PUSH1 0x40 MSTORE CALLVALUE DUP1 ISZERO PUSH1 0xE JUMPI PUSH0 DUP1 REVERT JUMPDEST POP PUSH2 0xBCA DUP1 PUSH2 0x1C PUSH0 CODECOPY PUSH0 RETURN INVALID PUSH1 0x80 PUSH1 0x40 MSTORE CALLVALUE DUP1 ISZERO PUSH2 0xF JUMPI PUSH0 DUP1 REVERT JUMPDEST POP PUSH1 0x4 CALLDATASIZE LT PUSH2 0x55 JUMPI PUSH0 CALLDATALOAD PUSH1 0xE0 SHR DUP1 PUSH4 0x10EEF3BE EQ PUSH2 0x59 JUMPI DUP1 PUSH4 0x30BBCADE EQ PUSH2 0x75 JUMPI DUP1 PUSH4 0x7AA53ECC EQ PUSH2 0x93 JUMPI DUP1 PUSH4 0xCDC8A2E6 EQ PUSH2 0xAF JUMPI DUP1 PUSH4 0xFBF83FFA EQ PUSH2 0xDF JUMPI JUMPDEST PUSH0 DUP1 REVERT JUMPDEST PUSH2 0x73 PUSH1 0x4 DUP1 CALLDATASIZE SUB DUP2 ADD SWAP1 PUSH2 0x6E SWAP2 SWAP1 PUSH2 0x7FF JUMP JUMPDEST PUSH2 0xE9 JUMP JUMPDEST STOP JUMPDEST PUSH2 0x7D PUSH2 0x153 JUMP JUMPDEST PUSH1 0x40 MLOAD PUSH2 0x8A SWAP2 SWAP1 PUSH2 0x839 JUMP JUMPDEST PUSH1 0x40 MLOAD DUP1 SWAP2 SUB SWAP1 RETURN JUMPDEST PUSH2 0xAD PUSH1 0x4 DUP1 CALLDATASIZE SUB DUP2 ADD SWAP1 PUSH2 0xA8 SWAP2 SWAP1 PUSH2 0x8AC JUMP JUMPDEST PUSH2 0x1D1 JUMP JUMPDEST STOP JUMPDEST PUSH2 0xC9 PUSH1 0x4 DUP1 CALLDATASIZE SUB DUP2 ADD SWAP1 PUSH2 0xC4 SWAP2 SWAP1 PUSH2 0x8EA JUMP JUMPDEST PUSH2 0x23C JUMP JUMPDEST PUSH1 0x40 MLOAD PUSH2 0xD6 SWAP2 SWAP1 PUSH2 0x839 JUMP JUMPDEST PUSH1 0x40 MLOAD DUP1 SWAP2 SUB SWAP1 RETURN JUMPDEST PUSH2 0xE7 PUSH2 0x2BC JUMP JUMPDEST STOP JUMPDEST PUSH20 0x0 PUSH4 0xBC2B405C PUSH0 CALLER DUP5 PUSH1 0x40 MLOAD DUP5 PUSH4 0xFFFFFFFF AND PUSH1 0xE0 SHL DUP2 MSTORE PUSH1 0x4 ADD PUSH2 0x124 SWAP4 SWAP3 SWAP2 SWAP1 PUSH2 0x93A JUMP JUMPDEST PUSH0 PUSH1 0x40 MLOAD DUP1 DUP4 SUB DUP2 DUP7 DUP1 EXTCODESIZE ISZERO DUP1 ISZERO PUSH2 0x13A JUMPI PUSH0 DUP1 REVERT JUMPDEST POP GAS DELEGATECALL ISZERO DUP1 ISZERO PUSH2 0x14C JUMPI RETURNDATASIZE PUSH0 DUP1 RETURNDATACOPY RETURNDATASIZE PUSH0 REVERT JUMPDEST POP POP POP POP POP JUMP JUMPDEST PUSH0 PUSH20 0x0 PUSH4 0x732A2CCF PUSH0 CALLER PUSH1 0x40 MLOAD DUP4 PUSH4 0xFFFFFFFF AND PUSH1 0xE0 SHL DUP2 MSTORE PUSH1 0x4 ADD PUSH2 0x18D SWAP3 SWAP2 SWAP1 PUSH2 0x96F JUMP JUMPDEST PUSH1 0x20 PUSH1 0x40 MLOAD DUP1 DUP4 SUB DUP2 DUP7 GAS DELEGATECALL ISZERO DUP1 ISZERO PUSH2 0x1A8 JUMPI RETURNDATASIZE PUSH0 DUP1 RETURNDATACOPY RETURNDATASIZE PUSH0 REVERT JUMPDEST POP POP POP POP PUSH1 0x40 MLOAD RETURNDATASIZE PUSH1 0x1F NOT PUSH1 0x1F DUP3 ADD AND DUP3 ADD DUP1 PUSH1 0x40 MSTORE POP DUP2 ADD SWAP1 PUSH2 0x1CC SWAP2 SWAP1 PUSH2 0x9AA JUMP JUMPDEST SWAP1 POP SWAP1 JUMP JUMPDEST PUSH20 0x0 PUSH4 0xBC2B405C PUSH0 DUP5 DUP5 PUSH1 0x40 MLOAD DUP5 PUSH4 0xFFFFFFFF AND PUSH1 0xE0 SHL DUP2 MSTORE PUSH1 0x4 ADD PUSH2 0x20C SWAP4 SWAP3 SWAP2 SWAP1 PUSH2 0x93A JUMP JUMPDEST PUSH0 PUSH1 0x40 MLOAD DUP1 DUP4 SUB DUP2 DUP7 DUP1 EXTCODESIZE ISZERO DUP1 ISZERO PUSH2 0x222 JUMPI PUSH0 DUP1 REVERT JUMPDEST POP GAS DELEGATECALL ISZERO DUP1 ISZERO PUSH2 0x234 JUMPI RETURNDATASIZE PUSH0 DUP1 RETURNDATACOPY RETURNDATASIZE PUSH0 REVERT JUMPDEST POP POP POP POP POP POP JUMP JUMPDEST PUSH0 PUSH20 0x0 PUSH4 0x732A2CCF PUSH0 DUP5 PUSH1 0x40 MLOAD DUP4 PUSH4 0xFFFFFFFF AND PUSH1 0xE0 SHL DUP2 MSTORE PUSH1 0x4 ADD PUSH2 0x276 SWAP3 SWAP2 SWAP1 PUSH2 0x96F JUMP JUMPDEST PUSH1 0x20 PUSH1 0x40 MLOAD DUP1 DUP4 SUB DUP2 DUP7 GAS DELEGATECALL ISZERO DUP1 ISZERO PUSH2 0x291 JUMPI RETURNDATASIZE PUSH0 DUP1 RETURNDATACOPY RETURNDATASIZE PUSH0 REVERT JUMPDEST POP POP POP POP PUSH1 0x40 MLOAD RETURNDATASIZE PUSH1 0x1F NOT PUSH1 0x1F DUP3 ADD AND DUP3 ADD DUP1 PUSH1 0x40 MSTORE POP DUP2 ADD SWAP1 PUSH2 0x2B5 SWAP2 SWAP1 PUSH2 0x9AA JUMP JUMPDEST SWAP1 POP SWAP2 SWAP1 POP JUMP JUMPDEST PUSH0 PUSH20 0x0 PUSH4 0xDEB3D896 PUSH0 PUSH1 0x40 MLOAD DUP3 PUSH4 0xFFFFFFFF AND PUSH1 0xE0 SHL DUP2 MSTORE PUSH1 0x4 ADD PUSH2 0x2F4 SWAP2 SWAP1 PUSH2 0x9D5 JUMP JUMPDEST PUSH1 0x20 PUSH1 0x40 MLOAD DUP1 DUP4 SUB DUP2 DUP7 GAS DELEGATECALL ISZERO DUP1 ISZERO PUSH2 0x30F JUMPI RETURNDATASIZE PUSH0 DUP1 RETURNDATACOPY RETURNDATASIZE PUSH0 REVERT JUMPDEST POP POP POP POP PUSH1 0x40 MLOAD RETURNDATASIZE PUSH1 0x1F NOT PUSH1 0x1F DUP3 ADD AND DUP3 ADD DUP1 PUSH1 0x40 MSTORE POP DUP2 ADD SWAP1 PUSH2 0x333 SWAP2 SWAP1 PUSH2 0x9AA JUMP JUMPDEST GT ISZERO PUSH2 0x7C6 JUMPI PUSH0 PUSH20 0x0 PUSH4 0xDEB3D896 PUSH0 PUSH1 0x40 MLOAD DUP3 PUSH4 0xFFFFFFFF AND PUSH1 0xE0 SHL DUP2 MSTORE PUSH1 0x4 ADD PUSH2 0x371 SWAP2 SWAP1 PUSH2 0x9D5 JUMP JUMPDEST PUSH1 0x20 PUSH1 0x40 MLOAD DUP1 DUP4 SUB DUP2 DUP7 GAS DELEGATECALL ISZERO DUP1 ISZERO PUSH2 0x38C JUMPI RETURNDATASIZE PUSH0 DUP1 RETURNDATACOPY RETURNDATASIZE PUSH0 REVERT JUMPDEST POP POP POP POP PUSH1 0x40 MLOAD RETURNDATASIZE PUSH1 0x1F NOT PUSH1 0x1F DUP3 ADD AND DUP3 ADD DUP1 PUSH1 0x40 MSTORE POP DUP2 ADD SWAP1 PUSH2 0x3B0 SWAP2 SWAP1 PUSH2 0x9AA JUMP JUMPDEST GT PUSH2 0x3F0 JUMPI PUSH1 0x40 MLOAD PUSH32 0x8C379A000000000000000000000000000000000000000000000000000000000 DUP2 MSTORE PUSH1 0x4 ADD PUSH2 0x3E7 SWAP1 PUSH2 0xA48 JUMP JUMPDEST PUSH1 0x40 MLOAD DUP1 SWAP2 SUB SWAP1 REVERT JUMPDEST PUSH0 PUSH20 0x0 PUSH4 0xDEB3D896 PUSH0 PUSH1 0x40 MLOAD DUP3 PUSH4 0xFFFFFFFF AND PUSH1 0xE0 SHL DUP2 MSTORE PUSH1 0x4 ADD PUSH2 0x428 SWAP2 SWAP1 PUSH2 0x9D5 JUMP JUMPDEST PUSH1 0x20 PUSH1 0x40 MLOAD DUP1 DUP4 SUB DUP2 DUP7 GAS DELEGATECALL ISZERO DUP1 ISZERO PUSH2 0x443 JUMPI RETURNDATASIZE PUSH0 DUP1 RETURNDATACOPY RETURNDATASIZE PUSH0 REVERT JUMPDEST POP POP POP POP PUSH1 0x40 MLOAD RETURNDATASIZE PUSH1 0x1F NOT PUSH1 0x1F DUP3 ADD AND DUP3 ADD DUP1 PUSH1 0x40 MSTORE POP DUP2 ADD SWAP1 PUSH2 0x467 SWAP2 SWAP1 PUSH2 0x9AA JUMP JUMPDEST SWAP1 POP PUSH0 JUMPDEST PUSH1 0x1 DUP3 PUSH2 0x478 SWAP2 SWAP1 PUSH2 0xA93 JUMP JUMPDEST DUP2 LT ISZERO PUSH2 0x7C3 JUMPI PUSH0 JUMPDEST DUP2 PUSH1 0x1 DUP5 PUSH2 0x48F SWAP2 SWAP1 PUSH2 0xA93 JUMP JUMPDEST PUSH2 0x499 SWAP2 SWAP1 PUSH2 0xA93 JUMP JUMPDEST DUP2 LT ISZERO PUSH2 0x7B5 JUMPI PUSH20 0x0 PUSH4 0xD1AA9E7E PUSH0 PUSH1 0x1 DUP5 PUSH2 0x4C8 SWAP2 SWAP1 PUSH2 0xAC6 JUMP JUMPDEST PUSH1 0x40 MLOAD DUP4 PUSH4 0xFFFFFFFF AND PUSH1 0xE0 SHL DUP2 MSTORE PUSH1 0x4 ADD PUSH2 0x4E5 SWAP3 SWAP2 SWAP1 PUSH2 0xAF9 JUMP JUMPDEST PUSH1 0x20 PUSH1 0x40 MLOAD DUP1 DUP4 SUB DUP2 DUP7 GAS DELEGATECALL ISZERO DUP1 ISZERO PUSH2 0x500 JUMPI RETURNDATASIZE PUSH0 DUP1 RETURNDATACOPY RETURNDATASIZE PUSH0 REVERT JUMPDEST POP POP POP POP PUSH1 0x40 MLOAD RETURNDATASIZE PUSH1 0x1F NOT PUSH1 0x1F DUP3 ADD AND DUP3 ADD DUP1 PUSH1 0x40 MSTORE POP DUP2 ADD SWAP1 PUSH2 0x524 SWAP2 SWAP1 PUSH2 0xB34 JUMP JUMPDEST PUSH20 0xFFFFFFFFFFFFFFFFFFFFFFFFFFFFFFFFFFFFFFFF AND PUSH20 0x0 PUSH4 0xD1AA9E7E PUSH0 DUP5 PUSH1 0x40 MLOAD DUP4 PUSH4 0xFFFFFFFF AND PUSH1 0xE0 SHL DUP2 MSTORE PUSH1 0x4 ADD PUSH2 0x573 SWAP3 SWAP2 SWAP1 PUSH2 0xAF9 JUMP JUMPDEST PUSH1 0x20 PUSH1 0x40 MLOAD DUP1 DUP4 SUB DUP2 DUP7 GAS DELEGATECALL ISZERO DUP1 ISZERO PUSH2 0x58E JUMPI RETURNDATASIZE PUSH0 DUP1 RETURNDATACOPY RETURNDATASIZE PUSH0 REVERT JUMPDEST POP POP POP POP PUSH1 0x40 MLOAD RETURNDATASIZE PUSH1 0x1F NOT PUSH1 0x1F DUP3 ADD AND DUP3 ADD DUP1 PUSH1 0x40 MSTORE POP DUP2 ADD SWAP1 PUSH2 0x5B2 SWAP2 SWAP1 PUSH2 0xB34 JUMP JUMPDEST PUSH20 0xFFFFFFFFFFFFFFFFFFFFFFFFFFFFFFFFFFFFFFFF AND GT ISZERO PUSH2 0x7A8 JUMPI PUSH0 PUSH20 0x0 PUSH4 0x110868D6 PUSH0 DUP5 PUSH1 0x40 MLOAD DUP4 PUSH4 0xFFFFFFFF AND PUSH1 0xE0 SHL DUP2 MSTORE PUSH1 0x4 ADD PUSH2 0x608 SWAP3 SWAP2 SWAP1 PUSH2 0xAF9 JUMP JUMPDEST PUSH1 0x20 PUSH1 0x40 MLOAD DUP1 DUP4 SUB DUP2 DUP7 GAS DELEGATECALL ISZERO DUP1 ISZERO PUSH2 0x623 JUMPI RETURNDATASIZE PUSH0 DUP1 RETURNDATACOPY RETURNDATASIZE PUSH0 REVERT JUMPDEST POP POP POP POP PUSH1 0x40 MLOAD RETURNDATASIZE PUSH1 0x1F NOT PUSH1 0x1F DUP3 ADD AND DUP3 ADD DUP1 PUSH1 0x40 MSTORE POP DUP2 ADD SWAP1 PUSH2 0x647 SWAP2 SWAP1 PUSH2 0x9AA JUMP JUMPDEST SWAP1 POP PUSH20 0x0 PUSH4 0x7041E7B1 PUSH0 DUP5 PUSH20 0x0 PUSH4 0x110868D6 PUSH0 PUSH1 0x1 DUP10 PUSH2 0x68D SWAP2 SWAP1 PUSH2 0xAC6 JUMP JUMPDEST PUSH1 0x40 MLOAD DUP4 PUSH4 0xFFFFFFFF AND PUSH1 0xE0 SHL DUP2 MSTORE PUSH1 0x4 ADD PUSH2 0x6AA SWAP3 SWAP2 SWAP1 PUSH2 0xAF9 JUMP JUMPDEST PUSH1 0x20 PUSH1 0x40 MLOAD DUP1 DUP4 SUB DUP2 DUP7 GAS DELEGATECALL ISZERO DUP1 ISZERO PUSH2 0x6C5 JUMPI RETURNDATASIZE PUSH0 DUP1 RETURNDATACOPY RETURNDATASIZE PUSH0 REVERT JUMPDEST POP POP POP POP PUSH1 0x40 MLOAD RETURNDATASIZE PUSH1 0x1F NOT PUSH1 0x1F DUP3 ADD AND DUP3 ADD DUP1 PUSH1 0x40 MSTORE POP DUP2 ADD SWAP1 PUSH2 0x6E9 SWAP2 SWAP1 PUSH2 0x9AA JUMP JUMPDEST PUSH1 0x40 MLOAD DUP5 PUSH4 0xFFFFFFFF AND PUSH1 0xE0 SHL DUP2 MSTORE PUSH1 0x4 ADD PUSH2 0x707 SWAP4 SWAP3 SWAP2 SWAP1 PUSH2 0xB5F JUMP JUMPDEST PUSH0 PUSH1 0x40 MLOAD DUP1 DUP4 SUB DUP2 DUP7 DUP1 EXTCODESIZE ISZERO DUP1 ISZERO PUSH2 0x71D JUMPI PUSH0 DUP1 REVERT JUMPDEST POP GAS DELEGATECALL ISZERO DUP1 ISZERO PUSH2 0x72F JUMPI RETURNDATASIZE PUSH0 DUP1 RETURNDATACOPY RETURNDATASIZE PUSH0 REVERT JUMPDEST POP POP POP POP PUSH20 0x0 PUSH4 0x7041E7B1 PUSH0 PUSH1 0x1 DUP6 PUSH2 0x75B SWAP2 SWAP1 PUSH2 0xAC6 JUMP JUMPDEST DUP5 PUSH1 0x40 MLOAD DUP5 PUSH4 0xFFFFFFFF AND PUSH1 0xE0 SHL DUP2 MSTORE PUSH1 0x4 ADD PUSH2 0x77A SWAP4 SWAP3 SWAP2 SWAP1 PUSH2 0xB5F JUMP JUMPDEST PUSH0 PUSH1 0x40 MLOAD DUP1 DUP4 SUB DUP2 DUP7 DUP1 EXTCODESIZE ISZERO DUP1 ISZERO PUSH2 0x790 JUMPI PUSH0 DUP1 REVERT JUMPDEST POP GAS DELEGATECALL ISZERO DUP1 ISZERO PUSH2 0x7A2 JUMPI RETURNDATASIZE PUSH0 DUP1 RETURNDATACOPY RETURNDATASIZE PUSH0 REVERT JUMPDEST POP POP POP POP POP JUMPDEST DUP1 DUP1 PUSH1 0x1 ADD SWAP2 POP POP PUSH2 0x481 JUMP JUMPDEST POP DUP1 DUP1 PUSH1 0x1 ADD SWAP2 POP POP PUSH2 0x46B JUMP JUMPDEST POP POP JUMPDEST JUMP JUMPDEST PUSH0 DUP1 REVERT JUMPDEST PUSH0 DUP2 SWAP1 POP SWAP2 SWAP1 POP JUMP JUMPDEST PUSH2 0x7DE DUP2 PUSH2 0x7CC JUMP JUMPDEST DUP2 EQ PUSH2 0x7E8 JUMPI PUSH0 DUP1 REVERT JUMPDEST POP JUMP JUMPDEST PUSH0 DUP2 CALLDATALOAD SWAP1 POP PUSH2 0x7F9 DUP2 PUSH2 0x7D5 JUMP JUMPDEST SWAP3 SWAP2 POP POP JUMP JUMPDEST PUSH0 PUSH1 0x20 DUP3 DUP5 SUB SLT ISZERO PUSH2 0x814 JUMPI PUSH2 0x813 PUSH2 0x7C8 JUMP JUMPDEST JUMPDEST PUSH0 PUSH2 0x821 DUP5 DUP3 DUP6 ADD PUSH2 0x7EB JUMP JUMPDEST SWAP2 POP POP SWAP3 SWAP2 POP POP JUMP JUMPDEST PUSH2 0x833 DUP2 PUSH2 0x7CC JUMP JUMPDEST DUP3 MSTORE POP POP JUMP JUMPDEST PUSH0 PUSH1 0x20 DUP3 ADD SWAP1 POP PUSH2 0x84C PUSH0 DUP4 ADD DUP5 PUSH2 0x82A JUMP JUMPDEST SWAP3 SWAP2 POP POP JUMP JUMPDEST PUSH0 PUSH20 0xFFFFFFFFFFFFFFFFFFFFFFFFFFFFFFFFFFFFFFFF DUP3 AND SWAP1 POP SWAP2 SWAP1 POP JUMP JUMPDEST PUSH0 PUSH2 0x87B DUP3 PUSH2 0x852 JUMP JUMPDEST SWAP1 POP SWAP2 SWAP1 POP JUMP JUMPDEST PUSH2 0x88B DUP2 PUSH2 0x871 JUMP JUMPDEST DUP2 EQ PUSH2 0x895 JUMPI PUSH0 DUP1 REVERT JUMPDEST POP JUMP JUMPDEST PUSH0 DUP2 CALLDATALOAD SWAP1 POP PUSH2 0x8A6 DUP2 PUSH2 0x882 JUMP JUMPDEST SWAP3 SWAP2 POP POP JUMP JUMPDEST PUSH0 DUP1 PUSH1 0x40 DUP4 DUP6 SUB SLT ISZERO PUSH2 0x8C2 JUMPI PUSH2 0x8C1 PUSH2 0x7C8 JUMP JUMPDEST JUMPDEST PUSH0 PUSH2 0x8CF DUP6 DUP3 DUP7 ADD PUSH2 0x898 JUMP JUMPDEST SWAP3 POP POP PUSH1 0x20 PUSH2 0x8E0 DUP6 DUP3 DUP7 ADD PUSH2 0x7EB JUMP JUMPDEST SWAP2 POP POP SWAP3 POP SWAP3 SWAP1 POP JUMP JUMPDEST PUSH0 PUSH1 0x20 DUP3 DUP5 SUB SLT ISZERO PUSH2 0x8FF JUMPI PUSH2 0x8FE PUSH2 0x7C8 JUMP JUMPDEST JUMPDEST PUSH0 PUSH2 0x90C DUP5 DUP3 DUP6 ADD PUSH2 0x898 JUMP JUMPDEST SWAP2 POP POP SWAP3 SWAP2 POP POP JUMP JUMPDEST DUP1 DUP3 MSTORE POP POP JUMP JUMPDEST PUSH2 0x925 DUP2 PUSH2 0x871 JUMP JUMPDEST DUP3 MSTORE POP POP JUMP JUMPDEST PUSH2 0x934 DUP2 PUSH2 0x7CC JUMP JUMPDEST DUP3 MSTORE POP POP JUMP JUMPDEST PUSH0 PUSH1 0x60 DUP3 ADD SWAP1 POP PUSH2 0x94D PUSH0 DUP4 ADD DUP7 PUSH2 0x915 JUMP JUMPDEST PUSH2 0x95A PUSH1 0x20 DUP4 ADD DUP6 PUSH2 0x91C JUMP JUMPDEST PUSH2 0x967 PUSH1 0x40 DUP4 ADD DUP5 PUSH2 0x92B JUMP JUMPDEST SWAP5 SWAP4 POP POP POP POP JUMP JUMPDEST PUSH0 PUSH1 0x40 DUP3 ADD SWAP1 POP PUSH2 0x982 PUSH0 DUP4 ADD DUP6 PUSH2 0x915 JUMP JUMPDEST PUSH2 0x98F PUSH1 0x20 DUP4 ADD DUP5 PUSH2 0x91C JUMP JUMPDEST SWAP4 SWAP3 POP POP POP JUMP JUMPDEST PUSH0 DUP2 MLOAD SWAP1 POP PUSH2 0x9A4 DUP2 PUSH2 0x7D5 JUMP JUMPDEST SWAP3 SWAP2 POP POP JUMP JUMPDEST PUSH0 PUSH1 0x20 DUP3 DUP5 SUB SLT ISZERO PUSH2 0x9BF JUMPI PUSH2 0x9BE PUSH2 0x7C8 JUMP JUMPDEST JUMPDEST PUSH0 PUSH2 0x9CC DUP5 DUP3 DUP6 ADD PUSH2 0x996 JUMP JUMPDEST SWAP2 POP POP SWAP3 SWAP2 POP POP JUMP JUMPDEST PUSH0 PUSH1 0x20 DUP3 ADD SWAP1 POP PUSH2 0x9E8 PUSH0 DUP4 ADD DUP5 PUSH2 0x915 JUMP JUMPDEST SWAP3 SWAP2 POP POP JUMP JUMPDEST PUSH0 DUP3 DUP3 MSTORE PUSH1 0x20 DUP3 ADD SWAP1 POP SWAP3 SWAP2 POP POP JUMP JUMPDEST PUSH32 0x62616C616E636573206E656564203E2030000000000000000000000000000000 PUSH0 DUP3 ADD MSTORE POP JUMP JUMPDEST PUSH0 PUSH2 0xA32 PUSH1 0x11 DUP4 PUSH2 0x9EE JUMP JUMPDEST SWAP2 POP PUSH2 0xA3D DUP3 PUSH2 0x9FE JUMP JUMPDEST PUSH1 0x20 DUP3 ADD SWAP1 POP SWAP2 SWAP1 POP JUMP JUMPDEST PUSH0 PUSH1 0x20 DUP3 ADD SWAP1 POP DUP2 DUP2 SUB PUSH0 DUP4 ADD MSTORE PUSH2 0xA5F DUP2 PUSH2 0xA26 JUMP JUMPDEST SWAP1 POP SWAP2 SWAP1 POP JUMP JUMPDEST PUSH32 0x4E487B7100000000000000000000000000000000000000000000000000000000 PUSH0 MSTORE PUSH1 0x11 PUSH1 0x4 MSTORE PUSH1 0x24 PUSH0 REVERT JUMPDEST PUSH0 PUSH2 0xA9D DUP3 PUSH2 0x7CC JUMP JUMPDEST SWAP2 POP PUSH2 0xAA8 DUP4 PUSH2 0x7CC JUMP JUMPDEST SWAP3 POP DUP3 DUP3 SUB SWAP1 POP DUP2 DUP2 GT ISZERO PUSH2 0xAC0 JUMPI PUSH2 0xABF PUSH2 0xA66 JUMP JUMPDEST JUMPDEST SWAP3 SWAP2 POP POP JUMP JUMPDEST PUSH0 PUSH2 0xAD0 DUP3 PUSH2 0x7CC JUMP JUMPDEST SWAP2 POP PUSH2 0xADB DUP4 PUSH2 0x7CC JUMP JUMPDEST SWAP3 POP DUP3 DUP3 ADD SWAP1 POP DUP1 DUP3 GT ISZERO PUSH2 0xAF3 JUMPI PUSH2 0xAF2 PUSH2 0xA66 JUMP JUMPDEST JUMPDEST SWAP3 SWAP2 POP POP JUMP JUMPDEST PUSH0 PUSH1 0x40 DUP3 ADD SWAP1 POP PUSH2 0xB0C PUSH0 DUP4 ADD DUP6 PUSH2 0x915 JUMP JUMPDEST PUSH2 0xB19 PUSH1 0x20 DUP4 ADD DUP5 PUSH2 0x92B JUMP JUMPDEST SWAP4 SWAP3 POP POP POP JUMP JUMPDEST PUSH0 DUP2 MLOAD SWAP1 POP PUSH2 0xB2E DUP2 PUSH2 0x882 JUMP JUMPDEST SWAP3 SWAP2 POP POP JUMP JUMPDEST PUSH0 PUSH1 0x20 DUP3 DUP5 SUB SLT ISZERO PUSH2 0xB49 JUMPI PUSH2 0xB48 PUSH2 0x7C8 JUMP JUMPDEST JUMPDEST PUSH0 PUSH2 0xB56 DUP5 DUP3 DUP6 ADD PUSH2 0xB20 JUMP JUMPDEST SWAP2 POP POP SWAP3 SWAP2 POP POP JUMP JUMPDEST PUSH0 PUSH1 0x60 DUP3 ADD SWAP1 POP PUSH2 0xB72 PUSH0 DUP4 ADD DUP7 PUSH2 0x915 JUMP JUMPDEST PUSH2 0xB7F PUSH1 0x20 DUP4 ADD DUP6 PUSH2 0x92B JUMP JUMPDEST PUSH2 0xB8C PUSH1 0x40 DUP4 ADD DUP5 PUSH2 0x92B JUMP JUMPDEST SWAP5 SWAP4 POP POP POP POP JUMP INVALID LOG2 PUSH5 0x6970667358 0x22 SLT KECCAK256 PUSH6 0x8DA829F5F72F POP 0x26 CALLVALUE 0xA7 0xDD 0xBD SWAP10 PUSH24 0x64B7A4AE1CE5C59C1C09DEEB08FFA098E964736F6C634300 ADDMOD BYTE STOP CALLER "
				},
				"gasEstimates": {
					"creation": {
						"codeDepositCost": "603600",
						"executionCost": "636",
						"totalCost": "604236"
					},
					"external": {
						"addBalances(uint256)": "infinite",
						"addUserBalances(address,uint256)": "infinite",
						"queryBalances()": "infinite",
						"queryUserBalances(address)": "infinite",
						"sortUserBalances()": "infinite"
					}
				},
				"methodIdentifiers": {
					"addBalances(uint256)": "10eef3be",
					"addUserBalances(address,uint256)": "7aa53ecc",
					"queryBalances()": "30bbcade",
					"queryUserBalances(address)": "cdc8a2e6",
					"sortUserBalances()": "fbf83ffa"
				}
			},
			"storageLayout": {
				"storage": [
					{
						"astId": 5,
						"contract": "homework/02/映射/UserBalanceManagerment.sol:UserBalanceManagerment",
						"label": "balances",
						"offset": 0,
						"slot": "0",
						"type": "t_struct(Map)189_storage"
					}
				],
				"types": {
					"t_address": {
						"encoding": "inplace",
						"label": "address",
						"numberOfBytes": "20"
					},
					"t_array(t_address)dyn_storage": {
						"base": "t_address",
						"encoding": "dynamic_array",
						"label": "address[]",
						"numberOfBytes": "32"
					},
					"t_bool": {
						"encoding": "inplace",
						"label": "bool",
						"numberOfBytes": "1"
					},
					"t_mapping(t_address,t_bool)": {
						"encoding": "mapping",
						"key": "t_address",
						"label": "mapping(address => bool)",
						"numberOfBytes": "32",
						"value": "t_bool"
					},
					"t_mapping(t_address,t_uint256)": {
						"encoding": "mapping",
						"key": "t_address",
						"label": "mapping(address => uint256)",
						"numberOfBytes": "32",
						"value": "t_uint256"
					},
					"t_struct(Map)189_storage": {
						"encoding": "inplace",
						"label": "struct IterableMapping.Map",
						"members": [
							{
								"astId": 176,
								"contract": "homework/02/映射/UserBalanceManagerment.sol:UserBalanceManagerment",
								"label": "keys",
								"offset": 0,
								"slot": "0",
								"type": "t_array(t_address)dyn_storage"
							},
							{
								"astId": 180,
								"contract": "homework/02/映射/UserBalanceManagerment.sol:UserBalanceManagerment",
								"label": "values",
								"offset": 0,
								"slot": "1",
								"type": "t_mapping(t_address,t_uint256)"
							},
							{
								"astId": 184,
								"contract": "homework/02/映射/UserBalanceManagerment.sol:UserBalanceManagerment",
								"label": "indexOf",
								"offset": 0,
								"slot": "2",
								"type": "t_mapping(t_address,t_uint256)"
							},
							{
								"astId": 188,
								"contract": "homework/02/映射/UserBalanceManagerment.sol:UserBalanceManagerment",
								"label": "inserted",
								"offset": 0,
								"slot": "3",
								"type": "t_mapping(t_address,t_bool)"
							}
						],
						"numberOfBytes": "128"
					},
					"t_uint256": {
						"encoding": "inplace",
						"label": "uint256",
						"numberOfBytes": "32"
					}
				}
			},
			"userdoc": {
				"kind": "user",
				"methods": {},
				"version": 1
			}
		}
	}
}