{
	"homework/02/数组/AddressArrayOperations.sol": {
		"AddressArrayOperations": {
			"abi": [
				{
					"inputs": [
						{
							"internalType": "uint256[]",
							"name": "data",
							"type": "uint256[]"
						}
					],
					"name": "add",
					"outputs": [
						{
							"internalType": "uint256",
							"name": "",
							"type": "uint256"
						}
					],
					"stateMutability": "pure",
					"type": "function"
				},
				{
					"inputs": [
						{
							"internalType": "uint256[]",
							"name": "data",
							"type": "uint256[]"
						}
					],
					"name": "del",
					"outputs": [
						{
							"internalType": "uint256[]",
							"name": "",
							"type": "uint256[]"
						}
					],
					"stateMutability": "pure",
					"type": "function"
				},
				{
					"inputs": [
						{
							"internalType": "uint256",
							"name": "",
							"type": "uint256"
						}
					],
					"name": "dynamicAddressData",
					"outputs": [
						{
							"internalType": "uint256",
							"name": "",
							"type": "uint256"
						}
					],
					"stateMutability": "view",
					"type": "function"
				},
				{
					"inputs": [],
					"name": "getData",
					"outputs": [
						{
							"internalType": "uint256[3]",
							"name": "",
							"type": "uint256[3]"
						}
					],
					"stateMutability": "pure",
					"type": "function"
				}
			],
			"devdoc": {
				"kind": "dev",
				"methods": {},
				"version": 1
			},
			"evm": {
				"assembly": "    /* \"homework/02/\\xe6\\x95\\xb0\\xe7\\xbb\\x84/AddressArrayOperations.sol\":138:885  contract AddressArrayOperations {... */\n  mstore(0x40, 0x80)\n  callvalue\n  dup1\n  iszero\n  tag_1\n  jumpi\n  0x00\n  dup1\n  revert\ntag_1:\n  pop\n  dataSize(sub_0)\n  dup1\n  dataOffset(sub_0)\n  0x00\n  codecopy\n  0x00\n  return\nstop\n\nsub_0: assembly {\n        /* \"homework/02/\\xe6\\x95\\xb0\\xe7\\xbb\\x84/AddressArrayOperations.sol\":138:885  contract AddressArrayOperations {... */\n      mstore(0x40, 0x80)\n      callvalue\n      dup1\n      iszero\n      tag_1\n      jumpi\n      0x00\n      dup1\n      revert\n    tag_1:\n      pop\n      jumpi(tag_2, lt(calldatasize, 0x04))\n      shr(0xe0, calldataload(0x00))\n      dup1\n      0x10b0b5d5\n      eq\n      tag_3\n      jumpi\n      dup1\n      0x3bc5de30\n      eq\n      tag_4\n      jumpi\n      dup1\n      0x6f1944fb\n      eq\n      tag_5\n      jumpi\n      dup1\n      0xf0280e85\n      eq\n      tag_6\n      jumpi\n    tag_2:\n      0x00\n      dup1\n      revert\n        /* \"homework/02/\\xe6\\x95\\xb0\\xe7\\xbb\\x84/AddressArrayOperations.sol\":359:610  function add(uint256[] memory data) public pure returns (uint256) {... */\n    tag_3:\n      tag_7\n      0x04\n      dup1\n      calldatasize\n      sub\n      dup2\n      add\n      swap1\n      tag_8\n      swap2\n      swap1\n      tag_9\n      jump\t// in\n    tag_8:\n      tag_10\n      jump\t// in\n    tag_7:\n      mload(0x40)\n      tag_11\n      swap2\n      swap1\n      tag_12\n      jump\t// in\n    tag_11:\n      mload(0x40)\n      dup1\n      swap2\n      sub\n      swap1\n      return\n        /* \"homework/02/\\xe6\\x95\\xb0\\xe7\\xbb\\x84/AddressArrayOperations.sol\":219:352  function getData() public pure returns(uint[3] memory){... */\n    tag_4:\n      tag_13\n      tag_14\n      jump\t// in\n    tag_13:\n      mload(0x40)\n      tag_15\n      swap2\n      swap1\n      tag_16\n      jump\t// in\n    tag_15:\n      mload(0x40)\n      dup1\n      swap2\n      sub\n      swap1\n      return\n        /* \"homework/02/\\xe6\\x95\\xb0\\xe7\\xbb\\x84/AddressArrayOperations.sol\":616:883  function del(uint256[] memory data) public pure returns (uint256[] memory) {... */\n    tag_5:\n      tag_17\n      0x04\n      dup1\n      calldatasize\n      sub\n      dup2\n      add\n      swap1\n      tag_18\n      swap2\n      swap1\n      tag_9\n      jump\t// in\n    tag_18:\n      tag_19\n      jump\t// in\n    tag_17:\n      mload(0x40)\n      tag_20\n      swap2\n      swap1\n      tag_21\n      jump\t// in\n    tag_20:\n      mload(0x40)\n      dup1\n      swap2\n      sub\n      swap1\n      return\n        /* \"homework/02/\\xe6\\x95\\xb0\\xe7\\xbb\\x84/AddressArrayOperations.sol\":176:211  uint256[] public dynamicAddressData */\n    tag_6:\n      tag_22\n      0x04\n      dup1\n      calldatasize\n      sub\n      dup2\n      add\n      swap1\n      tag_23\n      swap2\n      swap1\n      tag_24\n      jump\t// in\n    tag_23:\n      tag_25\n      jump\t// in\n    tag_22:\n      mload(0x40)\n      tag_26\n      swap2\n      swap1\n      tag_12\n      jump\t// in\n    tag_26:\n      mload(0x40)\n      dup1\n      swap2\n      sub\n      swap1\n      return\n        /* \"homework/02/\\xe6\\x95\\xb0\\xe7\\xbb\\x84/AddressArrayOperations.sol\":359:610  function add(uint256[] memory data) public pure returns (uint256) {... */\n    tag_10:\n        /* \"homework/02/\\xe6\\x95\\xb0\\xe7\\xbb\\x84/AddressArrayOperations.sol\":416:423  uint256 */\n      0x00\n        /* \"homework/02/\\xe6\\x95\\xb0\\xe7\\xbb\\x84/AddressArrayOperations.sol\":435:444  uint256 x */\n      dup1\n        /* \"homework/02/\\xe6\\x95\\xb0\\xe7\\xbb\\x84/AddressArrayOperations.sol\":472:473  0 */\n      0x00\n        /* \"homework/02/\\xe6\\x95\\xb0\\xe7\\xbb\\x84/AddressArrayOperations.sol\":458:462  data */\n      dup4\n        /* \"homework/02/\\xe6\\x95\\xb0\\xe7\\xbb\\x84/AddressArrayOperations.sol\":458:469  data.length */\n      mload\n        /* \"homework/02/\\xe6\\x95\\xb0\\xe7\\xbb\\x84/AddressArrayOperations.sol\":458:473  data.length > 0 */\n      gt\n        /* \"homework/02/\\xe6\\x95\\xb0\\xe7\\xbb\\x84/AddressArrayOperations.sol\":454:586  if (data.length > 0) {... */\n      iszero\n      tag_28\n      jumpi\n        /* \"homework/02/\\xe6\\x95\\xb0\\xe7\\xbb\\x84/AddressArrayOperations.sol\":494:503  uint256 i */\n      0x00\n        /* \"homework/02/\\xe6\\x95\\xb0\\xe7\\xbb\\x84/AddressArrayOperations.sol\":489:576  for (uint256 i = 0; i < data.length; i++) {... */\n    tag_29:\n        /* \"homework/02/\\xe6\\x95\\xb0\\xe7\\xbb\\x84/AddressArrayOperations.sol\":513:517  data */\n      dup4\n        /* \"homework/02/\\xe6\\x95\\xb0\\xe7\\xbb\\x84/AddressArrayOperations.sol\":513:524  data.length */\n      mload\n        /* \"homework/02/\\xe6\\x95\\xb0\\xe7\\xbb\\x84/AddressArrayOperations.sol\":509:510  i */\n      dup2\n        /* \"homework/02/\\xe6\\x95\\xb0\\xe7\\xbb\\x84/AddressArrayOperations.sol\":509:524  i < data.length */\n      lt\n        /* \"homework/02/\\xe6\\x95\\xb0\\xe7\\xbb\\x84/AddressArrayOperations.sol\":489:576  for (uint256 i = 0; i < data.length; i++) {... */\n      iszero\n      tag_30\n      jumpi\n        /* \"homework/02/\\xe6\\x95\\xb0\\xe7\\xbb\\x84/AddressArrayOperations.sol\":554:558  data */\n      dup4\n        /* \"homework/02/\\xe6\\x95\\xb0\\xe7\\xbb\\x84/AddressArrayOperations.sol\":559:560  i */\n      dup2\n        /* \"homework/02/\\xe6\\x95\\xb0\\xe7\\xbb\\x84/AddressArrayOperations.sol\":554:561  data[i] */\n      dup2\n      mload\n      dup2\n      lt\n      tag_32\n      jumpi\n      tag_33\n      tag_34\n      jump\t// in\n    tag_33:\n    tag_32:\n      0x20\n      mul\n      0x20\n      add\n      add\n      mload\n        /* \"homework/02/\\xe6\\x95\\xb0\\xe7\\xbb\\x84/AddressArrayOperations.sol\":549:561  x += data[i] */\n      dup3\n      tag_35\n      swap2\n      swap1\n      tag_36\n      jump\t// in\n    tag_35:\n      swap2\n      pop\n        /* \"homework/02/\\xe6\\x95\\xb0\\xe7\\xbb\\x84/AddressArrayOperations.sol\":526:529  i++ */\n      dup1\n      dup1\n      0x01\n      add\n      swap2\n      pop\n      pop\n        /* \"homework/02/\\xe6\\x95\\xb0\\xe7\\xbb\\x84/AddressArrayOperations.sol\":489:576  for (uint256 i = 0; i < data.length; i++) {... */\n      jump(tag_29)\n    tag_30:\n      pop\n        /* \"homework/02/\\xe6\\x95\\xb0\\xe7\\xbb\\x84/AddressArrayOperations.sol\":454:586  if (data.length > 0) {... */\n    tag_28:\n        /* \"homework/02/\\xe6\\x95\\xb0\\xe7\\xbb\\x84/AddressArrayOperations.sol\":602:603  x */\n      dup1\n        /* \"homework/02/\\xe6\\x95\\xb0\\xe7\\xbb\\x84/AddressArrayOperations.sol\":595:603  return x */\n      swap2\n      pop\n      pop\n        /* \"homework/02/\\xe6\\x95\\xb0\\xe7\\xbb\\x84/AddressArrayOperations.sol\":359:610  function add(uint256[] memory data) public pure returns (uint256) {... */\n      swap2\n      swap1\n      pop\n      jump\t// out\n        /* \"homework/02/\\xe6\\x95\\xb0\\xe7\\xbb\\x84/AddressArrayOperations.sol\":219:352  function getData() public pure returns(uint[3] memory){... */\n    tag_14:\n        /* \"homework/02/\\xe6\\x95\\xb0\\xe7\\xbb\\x84/AddressArrayOperations.sol\":258:272  uint[3] memory */\n      tag_37\n      tag_38\n      jump\t// in\n    tag_37:\n        /* \"homework/02/\\xe6\\x95\\xb0\\xe7\\xbb\\x84/AddressArrayOperations.sol\":283:299  uint[3] memory x */\n      0x00\n        /* \"homework/02/\\xe6\\x95\\xb0\\xe7\\xbb\\x84/AddressArrayOperations.sol\":283:326  uint[3] memory x = [uint(1000), 1001, 1002] */\n      mload(0x40)\n      dup1\n      0x60\n      add\n      0x40\n      mstore\n      dup1\n        /* \"homework/02/\\xe6\\x95\\xb0\\xe7\\xbb\\x84/AddressArrayOperations.sol\":308:312  1000 */\n      0x03e8\n        /* \"homework/02/\\xe6\\x95\\xb0\\xe7\\xbb\\x84/AddressArrayOperations.sol\":283:326  uint[3] memory x = [uint(1000), 1001, 1002] */\n      dup2\n      mstore\n      0x20\n      add\n        /* \"homework/02/\\xe6\\x95\\xb0\\xe7\\xbb\\x84/AddressArrayOperations.sol\":315:319  1001 */\n      0x03e9\n        /* \"homework/02/\\xe6\\x95\\xb0\\xe7\\xbb\\x84/AddressArrayOperations.sol\":283:326  uint[3] memory x = [uint(1000), 1001, 1002] */\n      dup2\n      mstore\n      0x20\n      add\n        /* \"homework/02/\\xe6\\x95\\xb0\\xe7\\xbb\\x84/AddressArrayOperations.sol\":321:325  1002 */\n      0x03ea\n        /* \"homework/02/\\xe6\\x95\\xb0\\xe7\\xbb\\x84/AddressArrayOperations.sol\":283:326  uint[3] memory x = [uint(1000), 1001, 1002] */\n      dup2\n      mstore\n      pop\n      swap1\n      pop\n        /* \"homework/02/\\xe6\\x95\\xb0\\xe7\\xbb\\x84/AddressArrayOperations.sol\":344:345  x */\n      dup1\n        /* \"homework/02/\\xe6\\x95\\xb0\\xe7\\xbb\\x84/AddressArrayOperations.sol\":337:345  return x */\n      swap2\n      pop\n      pop\n        /* \"homework/02/\\xe6\\x95\\xb0\\xe7\\xbb\\x84/AddressArrayOperations.sol\":219:352  function getData() public pure returns(uint[3] memory){... */\n      swap1\n      jump\t// out\n        /* \"homework/02/\\xe6\\x95\\xb0\\xe7\\xbb\\x84/AddressArrayOperations.sol\":616:883  function del(uint256[] memory data) public pure returns (uint256[] memory) {... */\n    tag_19:\n        /* \"homework/02/\\xe6\\x95\\xb0\\xe7\\xbb\\x84/AddressArrayOperations.sol\":673:689  uint256[] memory */\n      0x60\n        /* \"homework/02/\\xe6\\x95\\xb0\\xe7\\xbb\\x84/AddressArrayOperations.sol\":701:719  uint256[] memory x */\n      dup1\n        /* \"homework/02/\\xe6\\x95\\xb0\\xe7\\xbb\\x84/AddressArrayOperations.sol\":747:748  0 */\n      0x00\n        /* \"homework/02/\\xe6\\x95\\xb0\\xe7\\xbb\\x84/AddressArrayOperations.sol\":733:737  data */\n      dup4\n        /* \"homework/02/\\xe6\\x95\\xb0\\xe7\\xbb\\x84/AddressArrayOperations.sol\":733:744  data.length */\n      mload\n        /* \"homework/02/\\xe6\\x95\\xb0\\xe7\\xbb\\x84/AddressArrayOperations.sol\":733:748  data.length > 0 */\n      gt\n        /* \"homework/02/\\xe6\\x95\\xb0\\xe7\\xbb\\x84/AddressArrayOperations.sol\":729:859  if (data.length > 0) {... */\n      iszero\n      tag_41\n      jumpi\n        /* \"homework/02/\\xe6\\x95\\xb0\\xe7\\xbb\\x84/AddressArrayOperations.sol\":796:797  1 */\n      0x01\n        /* \"homework/02/\\xe6\\x95\\xb0\\xe7\\xbb\\x84/AddressArrayOperations.sol\":782:786  data */\n      dup4\n        /* \"homework/02/\\xe6\\x95\\xb0\\xe7\\xbb\\x84/AddressArrayOperations.sol\":782:793  data.length */\n      mload\n        /* \"homework/02/\\xe6\\x95\\xb0\\xe7\\xbb\\x84/AddressArrayOperations.sol\":782:797  data.length - 1 */\n      tag_42\n      swap2\n      swap1\n      tag_43\n      jump\t// in\n    tag_42:\n        /* \"homework/02/\\xe6\\x95\\xb0\\xe7\\xbb\\x84/AddressArrayOperations.sol\":768:798  new uint256[](data.length - 1) */\n      0xffffffffffffffff\n      dup2\n      gt\n      iszero\n      tag_44\n      jumpi\n      tag_45\n      tag_46\n      jump\t// in\n    tag_45:\n    tag_44:\n      mload(0x40)\n      swap1\n      dup1\n      dup3\n      mstore\n      dup1\n      0x20\n      mul\n      0x20\n      add\n      dup3\n      add\n      0x40\n      mstore\n      dup1\n      iszero\n      tag_47\n      jumpi\n      dup2\n      0x20\n      add\n      0x20\n      dup3\n      mul\n      dup1\n      calldatasize\n      dup4\n      calldatacopy\n      dup1\n      dup3\n      add\n      swap2\n      pop\n      pop\n      swap1\n      pop\n    tag_47:\n      pop\n        /* \"homework/02/\\xe6\\x95\\xb0\\xe7\\xbb\\x84/AddressArrayOperations.sol\":764:798  x = new uint256[](data.length - 1) */\n      swap1\n      pop\n        /* \"homework/02/\\xe6\\x95\\xb0\\xe7\\xbb\\x84/AddressArrayOperations.sol\":819:823  data */\n      dup3\n        /* \"homework/02/\\xe6\\x95\\xb0\\xe7\\xbb\\x84/AddressArrayOperations.sol\":824:825  0 */\n      0x00\n        /* \"homework/02/\\xe6\\x95\\xb0\\xe7\\xbb\\x84/AddressArrayOperations.sol\":819:826  data[0] */\n      dup2\n      mload\n      dup2\n      lt\n      tag_48\n      jumpi\n      tag_49\n      tag_34\n      jump\t// in\n    tag_49:\n    tag_48:\n      0x20\n      mul\n      0x20\n      add\n      add\n        /* \"homework/02/\\xe6\\x95\\xb0\\xe7\\xbb\\x84/AddressArrayOperations.sol\":812:826  delete data[0] */\n      0x00\n      dup2\n      mstore\n      pop\n        /* \"homework/02/\\xe6\\x95\\xb0\\xe7\\xbb\\x84/AddressArrayOperations.sol\":844:848  data */\n      dup3\n        /* \"homework/02/\\xe6\\x95\\xb0\\xe7\\xbb\\x84/AddressArrayOperations.sol\":840:848  x = data */\n      swap1\n      pop\n        /* \"homework/02/\\xe6\\x95\\xb0\\xe7\\xbb\\x84/AddressArrayOperations.sol\":729:859  if (data.length > 0) {... */\n    tag_41:\n        /* \"homework/02/\\xe6\\x95\\xb0\\xe7\\xbb\\x84/AddressArrayOperations.sol\":875:876  x */\n      dup1\n        /* \"homework/02/\\xe6\\x95\\xb0\\xe7\\xbb\\x84/AddressArrayOperations.sol\":868:876  return x */\n      swap2\n      pop\n      pop\n        /* \"homework/02/\\xe6\\x95\\xb0\\xe7\\xbb\\x84/AddressArrayOperations.sol\":616:883  function del(uint256[] memory data) public pure returns (uint256[] memory) {... */\n      swap2\n      swap1\n      pop\n      jump\t// out\n        /* \"homework/02/\\xe6\\x95\\xb0\\xe7\\xbb\\x84/AddressArrayOperations.sol\":176:211  uint256[] public dynamicAddressData */\n    tag_25:\n      0x00\n      dup2\n      dup2\n      sload\n      dup2\n      lt\n      tag_50\n      jumpi\n      0x00\n      dup1\n      revert\n    tag_50:\n      swap1\n      0x00\n      mstore\n      keccak256(0x00, 0x20)\n      add\n      0x00\n      swap2\n      pop\n      swap1\n      pop\n      sload\n      dup2\n      jump\t// out\n    tag_38:\n      mload(0x40)\n      dup1\n      0x60\n      add\n      0x40\n      mstore\n      dup1\n      0x03\n      swap1\n      0x20\n      dup3\n      mul\n      dup1\n      calldatasize\n      dup4\n      calldatacopy\n      dup1\n      dup3\n      add\n      swap2\n      pop\n      pop\n      swap1\n      pop\n      pop\n      swap1\n      jump\t// out\n        /* \"#utility.yul\":7:82   */\n    tag_52:\n        /* \"#utility.yul\":40:46   */\n      0x00\n        /* \"#utility.yul\":73:75   */\n      0x40\n        /* \"#utility.yul\":67:76   */\n      mload\n        /* \"#utility.yul\":57:76   */\n      swap1\n      pop\n        /* \"#utility.yul\":7:82   */\n      swap1\n      jump\t// out\n        /* \"#utility.yul\":88:205   */\n    tag_53:\n        /* \"#utility.yul\":197:198   */\n      0x00\n        /* \"#utility.yul\":194:195   */\n      dup1\n        /* \"#utility.yul\":187:199   */\n      revert\n        /* \"#utility.yul\":211:328   */\n    tag_54:\n        /* \"#utility.yul\":320:321   */\n      0x00\n        /* \"#utility.yul\":317:318   */\n      dup1\n        /* \"#utility.yul\":310:322   */\n      revert\n        /* \"#utility.yul\":334:451   */\n    tag_55:\n        /* \"#utility.yul\":443:444   */\n      0x00\n        /* \"#utility.yul\":440:441   */\n      dup1\n        /* \"#utility.yul\":433:445   */\n      revert\n        /* \"#utility.yul\":457:559   */\n    tag_56:\n        /* \"#utility.yul\":498:504   */\n      0x00\n        /* \"#utility.yul\":549:551   */\n      0x1f\n        /* \"#utility.yul\":545:552   */\n      not\n        /* \"#utility.yul\":540:542   */\n      0x1f\n        /* \"#utility.yul\":533:538   */\n      dup4\n        /* \"#utility.yul\":529:543   */\n      add\n        /* \"#utility.yul\":525:553   */\n      and\n        /* \"#utility.yul\":515:553   */\n      swap1\n      pop\n        /* \"#utility.yul\":457:559   */\n      swap2\n      swap1\n      pop\n      jump\t// out\n        /* \"#utility.yul\":565:745   */\n    tag_46:\n        /* \"#utility.yul\":613:690   */\n      0x4e487b7100000000000000000000000000000000000000000000000000000000\n        /* \"#utility.yul\":610:611   */\n      0x00\n        /* \"#utility.yul\":603:691   */\n      mstore\n        /* \"#utility.yul\":710:714   */\n      0x41\n        /* \"#utility.yul\":707:708   */\n      0x04\n        /* \"#utility.yul\":700:715   */\n      mstore\n        /* \"#utility.yul\":734:738   */\n      0x24\n        /* \"#utility.yul\":731:732   */\n      0x00\n        /* \"#utility.yul\":724:739   */\n      revert\n        /* \"#utility.yul\":751:1032   */\n    tag_57:\n        /* \"#utility.yul\":834:861   */\n      tag_88\n        /* \"#utility.yul\":856:860   */\n      dup3\n        /* \"#utility.yul\":834:861   */\n      tag_56\n      jump\t// in\n    tag_88:\n        /* \"#utility.yul\":826:832   */\n      dup2\n        /* \"#utility.yul\":822:862   */\n      add\n        /* \"#utility.yul\":964:970   */\n      dup2\n        /* \"#utility.yul\":952:962   */\n      dup2\n        /* \"#utility.yul\":949:971   */\n      lt\n        /* \"#utility.yul\":928:946   */\n      0xffffffffffffffff\n        /* \"#utility.yul\":916:926   */\n      dup3\n        /* \"#utility.yul\":913:947   */\n      gt\n        /* \"#utility.yul\":910:972   */\n      or\n        /* \"#utility.yul\":907:995   */\n      iszero\n      tag_89\n      jumpi\n        /* \"#utility.yul\":975:993   */\n      tag_90\n      tag_46\n      jump\t// in\n    tag_90:\n        /* \"#utility.yul\":907:995   */\n    tag_89:\n        /* \"#utility.yul\":1015:1025   */\n      dup1\n        /* \"#utility.yul\":1011:1013   */\n      0x40\n        /* \"#utility.yul\":1004:1026   */\n      mstore\n        /* \"#utility.yul\":794:1032   */\n      pop\n        /* \"#utility.yul\":751:1032   */\n      pop\n      pop\n      jump\t// out\n        /* \"#utility.yul\":1038:1167   */\n    tag_58:\n        /* \"#utility.yul\":1072:1078   */\n      0x00\n        /* \"#utility.yul\":1099:1119   */\n      tag_92\n      tag_52\n      jump\t// in\n    tag_92:\n        /* \"#utility.yul\":1089:1119   */\n      swap1\n      pop\n        /* \"#utility.yul\":1128:1161   */\n      tag_93\n        /* \"#utility.yul\":1156:1160   */\n      dup3\n        /* \"#utility.yul\":1148:1154   */\n      dup3\n        /* \"#utility.yul\":1128:1161   */\n      tag_57\n      jump\t// in\n    tag_93:\n        /* \"#utility.yul\":1038:1167   */\n      swap2\n      swap1\n      pop\n      jump\t// out\n        /* \"#utility.yul\":1173:1484   */\n    tag_59:\n        /* \"#utility.yul\":1250:1254   */\n      0x00\n        /* \"#utility.yul\":1340:1358   */\n      0xffffffffffffffff\n        /* \"#utility.yul\":1332:1338   */\n      dup3\n        /* \"#utility.yul\":1329:1359   */\n      gt\n        /* \"#utility.yul\":1326:1382   */\n      iszero\n      tag_95\n      jumpi\n        /* \"#utility.yul\":1362:1380   */\n      tag_96\n      tag_46\n      jump\t// in\n    tag_96:\n        /* \"#utility.yul\":1326:1382   */\n    tag_95:\n        /* \"#utility.yul\":1412:1416   */\n      0x20\n        /* \"#utility.yul\":1404:1410   */\n      dup3\n        /* \"#utility.yul\":1400:1417   */\n      mul\n        /* \"#utility.yul\":1392:1417   */\n      swap1\n      pop\n        /* \"#utility.yul\":1472:1476   */\n      0x20\n        /* \"#utility.yul\":1466:1470   */\n      dup2\n        /* \"#utility.yul\":1462:1477   */\n      add\n        /* \"#utility.yul\":1454:1477   */\n      swap1\n      pop\n        /* \"#utility.yul\":1173:1484   */\n      swap2\n      swap1\n      pop\n      jump\t// out\n        /* \"#utility.yul\":1490:1607   */\n    tag_60:\n        /* \"#utility.yul\":1599:1600   */\n      0x00\n        /* \"#utility.yul\":1596:1597   */\n      dup1\n        /* \"#utility.yul\":1589:1601   */\n      revert\n        /* \"#utility.yul\":1613:1690   */\n    tag_61:\n        /* \"#utility.yul\":1650:1657   */\n      0x00\n        /* \"#utility.yul\":1679:1684   */\n      dup2\n        /* \"#utility.yul\":1668:1684   */\n      swap1\n      pop\n        /* \"#utility.yul\":1613:1690   */\n      swap2\n      swap1\n      pop\n      jump\t// out\n        /* \"#utility.yul\":1696:1818   */\n    tag_62:\n        /* \"#utility.yul\":1769:1793   */\n      tag_100\n        /* \"#utility.yul\":1787:1792   */\n      dup2\n        /* \"#utility.yul\":1769:1793   */\n      tag_61\n      jump\t// in\n    tag_100:\n        /* \"#utility.yul\":1762:1767   */\n      dup2\n        /* \"#utility.yul\":1759:1794   */\n      eq\n        /* \"#utility.yul\":1749:1812   */\n      tag_101\n      jumpi\n        /* \"#utility.yul\":1808:1809   */\n      0x00\n        /* \"#utility.yul\":1805:1806   */\n      dup1\n        /* \"#utility.yul\":1798:1810   */\n      revert\n        /* \"#utility.yul\":1749:1812   */\n    tag_101:\n        /* \"#utility.yul\":1696:1818   */\n      pop\n      jump\t// out\n        /* \"#utility.yul\":1824:1963   */\n    tag_63:\n        /* \"#utility.yul\":1870:1875   */\n      0x00\n        /* \"#utility.yul\":1908:1914   */\n      dup2\n        /* \"#utility.yul\":1895:1915   */\n      calldataload\n        /* \"#utility.yul\":1886:1915   */\n      swap1\n      pop\n        /* \"#utility.yul\":1924:1957   */\n      tag_103\n        /* \"#utility.yul\":1951:1956   */\n      dup2\n        /* \"#utility.yul\":1924:1957   */\n      tag_62\n      jump\t// in\n    tag_103:\n        /* \"#utility.yul\":1824:1963   */\n      swap3\n      swap2\n      pop\n      pop\n      jump\t// out\n        /* \"#utility.yul\":1986:2696   */\n    tag_64:\n        /* \"#utility.yul\":2082:2087   */\n      0x00\n        /* \"#utility.yul\":2107:2188   */\n      tag_105\n        /* \"#utility.yul\":2123:2187   */\n      tag_106\n        /* \"#utility.yul\":2180:2186   */\n      dup5\n        /* \"#utility.yul\":2123:2187   */\n      tag_59\n      jump\t// in\n    tag_106:\n        /* \"#utility.yul\":2107:2188   */\n      tag_58\n      jump\t// in\n    tag_105:\n        /* \"#utility.yul\":2098:2188   */\n      swap1\n      pop\n        /* \"#utility.yul\":2208:2213   */\n      dup1\n        /* \"#utility.yul\":2237:2243   */\n      dup4\n        /* \"#utility.yul\":2230:2235   */\n      dup3\n        /* \"#utility.yul\":2223:2244   */\n      mstore\n        /* \"#utility.yul\":2271:2275   */\n      0x20\n        /* \"#utility.yul\":2264:2269   */\n      dup3\n        /* \"#utility.yul\":2260:2276   */\n      add\n        /* \"#utility.yul\":2253:2276   */\n      swap1\n      pop\n        /* \"#utility.yul\":2324:2328   */\n      0x20\n        /* \"#utility.yul\":2316:2322   */\n      dup5\n        /* \"#utility.yul\":2312:2329   */\n      mul\n        /* \"#utility.yul\":2304:2310   */\n      dup4\n        /* \"#utility.yul\":2300:2330   */\n      add\n        /* \"#utility.yul\":2353:2356   */\n      dup6\n        /* \"#utility.yul\":2345:2351   */\n      dup2\n        /* \"#utility.yul\":2342:2357   */\n      gt\n        /* \"#utility.yul\":2339:2461   */\n      iszero\n      tag_107\n      jumpi\n        /* \"#utility.yul\":2372:2451   */\n      tag_108\n      tag_60\n      jump\t// in\n    tag_108:\n        /* \"#utility.yul\":2339:2461   */\n    tag_107:\n        /* \"#utility.yul\":2487:2493   */\n      dup4\n        /* \"#utility.yul\":2470:2690   */\n    tag_109:\n        /* \"#utility.yul\":2504:2510   */\n      dup2\n        /* \"#utility.yul\":2499:2502   */\n      dup2\n        /* \"#utility.yul\":2496:2511   */\n      lt\n        /* \"#utility.yul\":2470:2690   */\n      iszero\n      tag_111\n      jumpi\n        /* \"#utility.yul\":2579:2582   */\n      dup1\n        /* \"#utility.yul\":2608:2645   */\n      tag_112\n        /* \"#utility.yul\":2641:2644   */\n      dup9\n        /* \"#utility.yul\":2629:2639   */\n      dup3\n        /* \"#utility.yul\":2608:2645   */\n      tag_63\n      jump\t// in\n    tag_112:\n        /* \"#utility.yul\":2603:2606   */\n      dup5\n        /* \"#utility.yul\":2596:2646   */\n      mstore\n        /* \"#utility.yul\":2675:2679   */\n      0x20\n        /* \"#utility.yul\":2670:2673   */\n      dup5\n        /* \"#utility.yul\":2666:2680   */\n      add\n        /* \"#utility.yul\":2659:2680   */\n      swap4\n      pop\n        /* \"#utility.yul\":2546:2690   */\n      pop\n        /* \"#utility.yul\":2530:2534   */\n      0x20\n        /* \"#utility.yul\":2525:2528   */\n      dup2\n        /* \"#utility.yul\":2521:2535   */\n      add\n        /* \"#utility.yul\":2514:2535   */\n      swap1\n      pop\n        /* \"#utility.yul\":2470:2690   */\n      jump(tag_109)\n    tag_111:\n        /* \"#utility.yul\":2474:2495   */\n      pop\n        /* \"#utility.yul\":2088:2696   */\n      pop\n      pop\n        /* \"#utility.yul\":1986:2696   */\n      swap4\n      swap3\n      pop\n      pop\n      pop\n      jump\t// out\n        /* \"#utility.yul\":2719:3089   */\n    tag_65:\n        /* \"#utility.yul\":2790:2795   */\n      0x00\n        /* \"#utility.yul\":2839:2842   */\n      dup3\n        /* \"#utility.yul\":2832:2836   */\n      0x1f\n        /* \"#utility.yul\":2824:2830   */\n      dup4\n        /* \"#utility.yul\":2820:2837   */\n      add\n        /* \"#utility.yul\":2816:2843   */\n      slt\n        /* \"#utility.yul\":2806:2928   */\n      tag_114\n      jumpi\n        /* \"#utility.yul\":2847:2926   */\n      tag_115\n      tag_55\n      jump\t// in\n    tag_115:\n        /* \"#utility.yul\":2806:2928   */\n    tag_114:\n        /* \"#utility.yul\":2964:2970   */\n      dup2\n        /* \"#utility.yul\":2951:2971   */\n      calldataload\n        /* \"#utility.yul\":2989:3083   */\n      tag_116\n        /* \"#utility.yul\":3079:3082   */\n      dup5\n        /* \"#utility.yul\":3071:3077   */\n      dup3\n        /* \"#utility.yul\":3064:3068   */\n      0x20\n        /* \"#utility.yul\":3056:3062   */\n      dup7\n        /* \"#utility.yul\":3052:3069   */\n      add\n        /* \"#utility.yul\":2989:3083   */\n      tag_64\n      jump\t// in\n    tag_116:\n        /* \"#utility.yul\":2980:3083   */\n      swap2\n      pop\n        /* \"#utility.yul\":2796:3089   */\n      pop\n        /* \"#utility.yul\":2719:3089   */\n      swap3\n      swap2\n      pop\n      pop\n      jump\t// out\n        /* \"#utility.yul\":3095:3634   */\n    tag_9:\n        /* \"#utility.yul\":3179:3185   */\n      0x00\n        /* \"#utility.yul\":3228:3230   */\n      0x20\n        /* \"#utility.yul\":3216:3225   */\n      dup3\n        /* \"#utility.yul\":3207:3214   */\n      dup5\n        /* \"#utility.yul\":3203:3226   */\n      sub\n        /* \"#utility.yul\":3199:3231   */\n      slt\n        /* \"#utility.yul\":3196:3315   */\n      iszero\n      tag_118\n      jumpi\n        /* \"#utility.yul\":3234:3313   */\n      tag_119\n      tag_53\n      jump\t// in\n    tag_119:\n        /* \"#utility.yul\":3196:3315   */\n    tag_118:\n        /* \"#utility.yul\":3382:3383   */\n      0x00\n        /* \"#utility.yul\":3371:3380   */\n      dup3\n        /* \"#utility.yul\":3367:3384   */\n      add\n        /* \"#utility.yul\":3354:3385   */\n      calldataload\n        /* \"#utility.yul\":3412:3430   */\n      0xffffffffffffffff\n        /* \"#utility.yul\":3404:3410   */\n      dup2\n        /* \"#utility.yul\":3401:3431   */\n      gt\n        /* \"#utility.yul\":3398:3515   */\n      iszero\n      tag_120\n      jumpi\n        /* \"#utility.yul\":3434:3513   */\n      tag_121\n      tag_54\n      jump\t// in\n    tag_121:\n        /* \"#utility.yul\":3398:3515   */\n    tag_120:\n        /* \"#utility.yul\":3539:3617   */\n      tag_122\n        /* \"#utility.yul\":3609:3616   */\n      dup5\n        /* \"#utility.yul\":3600:3606   */\n      dup3\n        /* \"#utility.yul\":3589:3598   */\n      dup6\n        /* \"#utility.yul\":3585:3607   */\n      add\n        /* \"#utility.yul\":3539:3617   */\n      tag_65\n      jump\t// in\n    tag_122:\n        /* \"#utility.yul\":3529:3617   */\n      swap2\n      pop\n        /* \"#utility.yul\":3325:3627   */\n      pop\n        /* \"#utility.yul\":3095:3634   */\n      swap3\n      swap2\n      pop\n      pop\n      jump\t// out\n        /* \"#utility.yul\":3640:3758   */\n    tag_66:\n        /* \"#utility.yul\":3727:3751   */\n      tag_124\n        /* \"#utility.yul\":3745:3750   */\n      dup2\n        /* \"#utility.yul\":3727:3751   */\n      tag_61\n      jump\t// in\n    tag_124:\n        /* \"#utility.yul\":3722:3725   */\n      dup3\n        /* \"#utility.yul\":3715:3752   */\n      mstore\n        /* \"#utility.yul\":3640:3758   */\n      pop\n      pop\n      jump\t// out\n        /* \"#utility.yul\":3764:3986   */\n    tag_12:\n        /* \"#utility.yul\":3857:3861   */\n      0x00\n        /* \"#utility.yul\":3895:3897   */\n      0x20\n        /* \"#utility.yul\":3884:3893   */\n      dup3\n        /* \"#utility.yul\":3880:3898   */\n      add\n        /* \"#utility.yul\":3872:3898   */\n      swap1\n      pop\n        /* \"#utility.yul\":3908:3979   */\n      tag_126\n        /* \"#utility.yul\":3976:3977   */\n      0x00\n        /* \"#utility.yul\":3965:3974   */\n      dup4\n        /* \"#utility.yul\":3961:3978   */\n      add\n        /* \"#utility.yul\":3952:3958   */\n      dup5\n        /* \"#utility.yul\":3908:3979   */\n      tag_66\n      jump\t// in\n    tag_126:\n        /* \"#utility.yul\":3764:3986   */\n      swap3\n      swap2\n      pop\n      pop\n      jump\t// out\n        /* \"#utility.yul\":3992:4096   */\n    tag_67:\n        /* \"#utility.yul\":4057:4063   */\n      0x00\n        /* \"#utility.yul\":4085:4089   */\n      0x03\n        /* \"#utility.yul\":4075:4089   */\n      swap1\n      pop\n        /* \"#utility.yul\":3992:4096   */\n      swap2\n      swap1\n      pop\n      jump\t// out\n        /* \"#utility.yul\":4102:4245   */\n    tag_68:\n        /* \"#utility.yul\":4199:4210   */\n      0x00\n        /* \"#utility.yul\":4236:4239   */\n      dup2\n        /* \"#utility.yul\":4221:4239   */\n      swap1\n      pop\n        /* \"#utility.yul\":4102:4245   */\n      swap3\n      swap2\n      pop\n      pop\n      jump\t// out\n        /* \"#utility.yul\":4251:4349   */\n    tag_69:\n        /* \"#utility.yul\":4316:4320   */\n      0x00\n        /* \"#utility.yul\":4339:4342   */\n      dup2\n        /* \"#utility.yul\":4331:4342   */\n      swap1\n      pop\n        /* \"#utility.yul\":4251:4349   */\n      swap2\n      swap1\n      pop\n      jump\t// out\n        /* \"#utility.yul\":4355:4463   */\n    tag_70:\n        /* \"#utility.yul\":4432:4456   */\n      tag_131\n        /* \"#utility.yul\":4450:4455   */\n      dup2\n        /* \"#utility.yul\":4432:4456   */\n      tag_61\n      jump\t// in\n    tag_131:\n        /* \"#utility.yul\":4427:4430   */\n      dup3\n        /* \"#utility.yul\":4420:4457   */\n      mstore\n        /* \"#utility.yul\":4355:4463   */\n      pop\n      pop\n      jump\t// out\n        /* \"#utility.yul\":4469:4648   */\n    tag_71:\n        /* \"#utility.yul\":4538:4548   */\n      0x00\n        /* \"#utility.yul\":4559:4605   */\n      tag_133\n        /* \"#utility.yul\":4601:4604   */\n      dup4\n        /* \"#utility.yul\":4593:4599   */\n      dup4\n        /* \"#utility.yul\":4559:4605   */\n      tag_70\n      jump\t// in\n    tag_133:\n        /* \"#utility.yul\":4637:4641   */\n      0x20\n        /* \"#utility.yul\":4632:4635   */\n      dup4\n        /* \"#utility.yul\":4628:4642   */\n      add\n        /* \"#utility.yul\":4614:4642   */\n      swap1\n      pop\n        /* \"#utility.yul\":4469:4648   */\n      swap3\n      swap2\n      pop\n      pop\n      jump\t// out\n        /* \"#utility.yul\":4654:4765   */\n    tag_72:\n        /* \"#utility.yul\":4722:4726   */\n      0x00\n        /* \"#utility.yul\":4754:4758   */\n      0x20\n        /* \"#utility.yul\":4749:4752   */\n      dup3\n        /* \"#utility.yul\":4745:4759   */\n      add\n        /* \"#utility.yul\":4737:4759   */\n      swap1\n      pop\n        /* \"#utility.yul\":4654:4765   */\n      swap2\n      swap1\n      pop\n      jump\t// out\n        /* \"#utility.yul\":4803:5497   */\n    tag_73:\n        /* \"#utility.yul\":4939:4991   */\n      tag_136\n        /* \"#utility.yul\":4985:4990   */\n      dup2\n        /* \"#utility.yul\":4939:4991   */\n      tag_67\n      jump\t// in\n    tag_136:\n        /* \"#utility.yul\":5007:5091   */\n      tag_137\n        /* \"#utility.yul\":5084:5090   */\n      dup2\n        /* \"#utility.yul\":5079:5082   */\n      dup5\n        /* \"#utility.yul\":5007:5091   */\n      tag_68\n      jump\t// in\n    tag_137:\n        /* \"#utility.yul\":5000:5091   */\n      swap3\n      pop\n        /* \"#utility.yul\":5115:5169   */\n      tag_138\n        /* \"#utility.yul\":5163:5168   */\n      dup3\n        /* \"#utility.yul\":5115:5169   */\n      tag_69\n      jump\t// in\n    tag_138:\n        /* \"#utility.yul\":5192:5199   */\n      dup1\n        /* \"#utility.yul\":5223:5224   */\n      0x00\n        /* \"#utility.yul\":5208:5490   */\n    tag_139:\n        /* \"#utility.yul\":5233:5239   */\n      dup4\n        /* \"#utility.yul\":5230:5231   */\n      dup2\n        /* \"#utility.yul\":5227:5240   */\n      lt\n        /* \"#utility.yul\":5208:5490   */\n      iszero\n      tag_141\n      jumpi\n        /* \"#utility.yul\":5309:5315   */\n      dup2\n        /* \"#utility.yul\":5303:5316   */\n      mload\n        /* \"#utility.yul\":5336:5399   */\n      tag_142\n        /* \"#utility.yul\":5395:5398   */\n      dup8\n        /* \"#utility.yul\":5380:5393   */\n      dup3\n        /* \"#utility.yul\":5336:5399   */\n      tag_71\n      jump\t// in\n    tag_142:\n        /* \"#utility.yul\":5329:5399   */\n      swap7\n      pop\n        /* \"#utility.yul\":5422:5480   */\n      tag_143\n        /* \"#utility.yul\":5473:5479   */\n      dup4\n        /* \"#utility.yul\":5422:5480   */\n      tag_72\n      jump\t// in\n    tag_143:\n        /* \"#utility.yul\":5412:5480   */\n      swap3\n      pop\n        /* \"#utility.yul\":5268:5490   */\n      pop\n        /* \"#utility.yul\":5255:5256   */\n      0x01\n        /* \"#utility.yul\":5252:5253   */\n      dup2\n        /* \"#utility.yul\":5248:5257   */\n      add\n        /* \"#utility.yul\":5243:5257   */\n      swap1\n      pop\n        /* \"#utility.yul\":5208:5490   */\n      jump(tag_139)\n    tag_141:\n        /* \"#utility.yul\":5212:5226   */\n      pop\n        /* \"#utility.yul\":4915:5497   */\n      pop\n      pop\n      pop\n        /* \"#utility.yul\":4803:5497   */\n      pop\n      pop\n      jump\t// out\n        /* \"#utility.yul\":5503:5817   */\n    tag_16:\n        /* \"#utility.yul\":5642:5646   */\n      0x00\n        /* \"#utility.yul\":5680:5682   */\n      0x60\n        /* \"#utility.yul\":5669:5678   */\n      dup3\n        /* \"#utility.yul\":5665:5683   */\n      add\n        /* \"#utility.yul\":5657:5683   */\n      swap1\n      pop\n        /* \"#utility.yul\":5693:5810   */\n      tag_145\n        /* \"#utility.yul\":5807:5808   */\n      0x00\n        /* \"#utility.yul\":5796:5805   */\n      dup4\n        /* \"#utility.yul\":5792:5809   */\n      add\n        /* \"#utility.yul\":5783:5789   */\n      dup5\n        /* \"#utility.yul\":5693:5810   */\n      tag_73\n      jump\t// in\n    tag_145:\n        /* \"#utility.yul\":5503:5817   */\n      swap3\n      swap2\n      pop\n      pop\n      jump\t// out\n        /* \"#utility.yul\":5823:5937   */\n    tag_74:\n        /* \"#utility.yul\":5890:5896   */\n      0x00\n        /* \"#utility.yul\":5924:5929   */\n      dup2\n        /* \"#utility.yul\":5918:5930   */\n      mload\n        /* \"#utility.yul\":5908:5930   */\n      swap1\n      pop\n        /* \"#utility.yul\":5823:5937   */\n      swap2\n      swap1\n      pop\n      jump\t// out\n        /* \"#utility.yul\":5943:6127   */\n    tag_75:\n        /* \"#utility.yul\":6042:6053   */\n      0x00\n        /* \"#utility.yul\":6076:6082   */\n      dup3\n        /* \"#utility.yul\":6071:6074   */\n      dup3\n        /* \"#utility.yul\":6064:6083   */\n      mstore\n        /* \"#utility.yul\":6116:6120   */\n      0x20\n        /* \"#utility.yul\":6111:6114   */\n      dup3\n        /* \"#utility.yul\":6107:6121   */\n      add\n        /* \"#utility.yul\":6092:6121   */\n      swap1\n      pop\n        /* \"#utility.yul\":5943:6127   */\n      swap3\n      swap2\n      pop\n      pop\n      jump\t// out\n        /* \"#utility.yul\":6133:6265   */\n    tag_76:\n        /* \"#utility.yul\":6200:6204   */\n      0x00\n        /* \"#utility.yul\":6223:6226   */\n      dup2\n        /* \"#utility.yul\":6215:6226   */\n      swap1\n      pop\n        /* \"#utility.yul\":6253:6257   */\n      0x20\n        /* \"#utility.yul\":6248:6251   */\n      dup3\n        /* \"#utility.yul\":6244:6258   */\n      add\n        /* \"#utility.yul\":6236:6258   */\n      swap1\n      pop\n        /* \"#utility.yul\":6133:6265   */\n      swap2\n      swap1\n      pop\n      jump\t// out\n        /* \"#utility.yul\":6271:6384   */\n    tag_77:\n        /* \"#utility.yul\":6341:6345   */\n      0x00\n        /* \"#utility.yul\":6373:6377   */\n      0x20\n        /* \"#utility.yul\":6368:6371   */\n      dup3\n        /* \"#utility.yul\":6364:6378   */\n      add\n        /* \"#utility.yul\":6356:6378   */\n      swap1\n      pop\n        /* \"#utility.yul\":6271:6384   */\n      swap2\n      swap1\n      pop\n      jump\t// out\n        /* \"#utility.yul\":6420:7152   */\n    tag_78:\n        /* \"#utility.yul\":6539:6542   */\n      0x00\n        /* \"#utility.yul\":6568:6622   */\n      tag_151\n        /* \"#utility.yul\":6616:6621   */\n      dup3\n        /* \"#utility.yul\":6568:6622   */\n      tag_74\n      jump\t// in\n    tag_151:\n        /* \"#utility.yul\":6638:6724   */\n      tag_152\n        /* \"#utility.yul\":6717:6723   */\n      dup2\n        /* \"#utility.yul\":6712:6715   */\n      dup6\n        /* \"#utility.yul\":6638:6724   */\n      tag_75\n      jump\t// in\n    tag_152:\n        /* \"#utility.yul\":6631:6724   */\n      swap4\n      pop\n        /* \"#utility.yul\":6748:6804   */\n      tag_153\n        /* \"#utility.yul\":6798:6803   */\n      dup4\n        /* \"#utility.yul\":6748:6804   */\n      tag_76\n      jump\t// in\n    tag_153:\n        /* \"#utility.yul\":6827:6834   */\n      dup1\n        /* \"#utility.yul\":6858:6859   */\n      0x00\n        /* \"#utility.yul\":6843:7127   */\n    tag_154:\n        /* \"#utility.yul\":6868:6874   */\n      dup4\n        /* \"#utility.yul\":6865:6866   */\n      dup2\n        /* \"#utility.yul\":6862:6875   */\n      lt\n        /* \"#utility.yul\":6843:7127   */\n      iszero\n      tag_156\n      jumpi\n        /* \"#utility.yul\":6944:6950   */\n      dup2\n        /* \"#utility.yul\":6938:6951   */\n      mload\n        /* \"#utility.yul\":6971:7034   */\n      tag_157\n        /* \"#utility.yul\":7030:7033   */\n      dup9\n        /* \"#utility.yul\":7015:7028   */\n      dup3\n        /* \"#utility.yul\":6971:7034   */\n      tag_71\n      jump\t// in\n    tag_157:\n        /* \"#utility.yul\":6964:7034   */\n      swap8\n      pop\n        /* \"#utility.yul\":7057:7117   */\n      tag_158\n        /* \"#utility.yul\":7110:7116   */\n      dup4\n        /* \"#utility.yul\":7057:7117   */\n      tag_77\n      jump\t// in\n    tag_158:\n        /* \"#utility.yul\":7047:7117   */\n      swap3\n      pop\n        /* \"#utility.yul\":6903:7127   */\n      pop\n        /* \"#utility.yul\":6890:6891   */\n      0x01\n        /* \"#utility.yul\":6887:6888   */\n      dup2\n        /* \"#utility.yul\":6883:6892   */\n      add\n        /* \"#utility.yul\":6878:6892   */\n      swap1\n      pop\n        /* \"#utility.yul\":6843:7127   */\n      jump(tag_154)\n    tag_156:\n        /* \"#utility.yul\":6847:6861   */\n      pop\n        /* \"#utility.yul\":7143:7146   */\n      dup6\n        /* \"#utility.yul\":7136:7146   */\n      swap4\n      pop\n        /* \"#utility.yul\":6544:7152   */\n      pop\n      pop\n      pop\n        /* \"#utility.yul\":6420:7152   */\n      swap3\n      swap2\n      pop\n      pop\n      jump\t// out\n        /* \"#utility.yul\":7158:7531   */\n    tag_21:\n        /* \"#utility.yul\":7301:7305   */\n      0x00\n        /* \"#utility.yul\":7339:7341   */\n      0x20\n        /* \"#utility.yul\":7328:7337   */\n      dup3\n        /* \"#utility.yul\":7324:7342   */\n      add\n        /* \"#utility.yul\":7316:7342   */\n      swap1\n      pop\n        /* \"#utility.yul\":7388:7397   */\n      dup2\n        /* \"#utility.yul\":7382:7386   */\n      dup2\n        /* \"#utility.yul\":7378:7398   */\n      sub\n        /* \"#utility.yul\":7374:7375   */\n      0x00\n        /* \"#utility.yul\":7363:7372   */\n      dup4\n        /* \"#utility.yul\":7359:7376   */\n      add\n        /* \"#utility.yul\":7352:7399   */\n      mstore\n        /* \"#utility.yul\":7416:7524   */\n      tag_160\n        /* \"#utility.yul\":7519:7523   */\n      dup2\n        /* \"#utility.yul\":7510:7516   */\n      dup5\n        /* \"#utility.yul\":7416:7524   */\n      tag_78\n      jump\t// in\n    tag_160:\n        /* \"#utility.yul\":7408:7524   */\n      swap1\n      pop\n        /* \"#utility.yul\":7158:7531   */\n      swap3\n      swap2\n      pop\n      pop\n      jump\t// out\n        /* \"#utility.yul\":7537:7866   */\n    tag_24:\n        /* \"#utility.yul\":7596:7602   */\n      0x00\n        /* \"#utility.yul\":7645:7647   */\n      0x20\n        /* \"#utility.yul\":7633:7642   */\n      dup3\n        /* \"#utility.yul\":7624:7631   */\n      dup5\n        /* \"#utility.yul\":7620:7643   */\n      sub\n        /* \"#utility.yul\":7616:7648   */\n      slt\n        /* \"#utility.yul\":7613:7732   */\n      iszero\n      tag_162\n      jumpi\n        /* \"#utility.yul\":7651:7730   */\n      tag_163\n      tag_53\n      jump\t// in\n    tag_163:\n        /* \"#utility.yul\":7613:7732   */\n    tag_162:\n        /* \"#utility.yul\":7771:7772   */\n      0x00\n        /* \"#utility.yul\":7796:7849   */\n      tag_164\n        /* \"#utility.yul\":7841:7848   */\n      dup5\n        /* \"#utility.yul\":7832:7838   */\n      dup3\n        /* \"#utility.yul\":7821:7830   */\n      dup6\n        /* \"#utility.yul\":7817:7839   */\n      add\n        /* \"#utility.yul\":7796:7849   */\n      tag_63\n      jump\t// in\n    tag_164:\n        /* \"#utility.yul\":7786:7849   */\n      swap2\n      pop\n        /* \"#utility.yul\":7742:7859   */\n      pop\n        /* \"#utility.yul\":7537:7866   */\n      swap3\n      swap2\n      pop\n      pop\n      jump\t// out\n        /* \"#utility.yul\":7872:8052   */\n    tag_34:\n        /* \"#utility.yul\":7920:7997   */\n      0x4e487b7100000000000000000000000000000000000000000000000000000000\n        /* \"#utility.yul\":7917:7918   */\n      0x00\n        /* \"#utility.yul\":7910:7998   */\n      mstore\n        /* \"#utility.yul\":8017:8021   */\n      0x32\n        /* \"#utility.yul\":8014:8015   */\n      0x04\n        /* \"#utility.yul\":8007:8022   */\n      mstore\n        /* \"#utility.yul\":8041:8045   */\n      0x24\n        /* \"#utility.yul\":8038:8039   */\n      0x00\n        /* \"#utility.yul\":8031:8046   */\n      revert\n        /* \"#utility.yul\":8058:8238   */\n    tag_79:\n        /* \"#utility.yul\":8106:8183   */\n      0x4e487b7100000000000000000000000000000000000000000000000000000000\n        /* \"#utility.yul\":8103:8104   */\n      0x00\n        /* \"#utility.yul\":8096:8184   */\n      mstore\n        /* \"#utility.yul\":8203:8207   */\n      0x11\n        /* \"#utility.yul\":8200:8201   */\n      0x04\n        /* \"#utility.yul\":8193:8208   */\n      mstore\n        /* \"#utility.yul\":8227:8231   */\n      0x24\n        /* \"#utility.yul\":8224:8225   */\n      0x00\n        /* \"#utility.yul\":8217:8232   */\n      revert\n        /* \"#utility.yul\":8244:8435   */\n    tag_36:\n        /* \"#utility.yul\":8284:8287   */\n      0x00\n        /* \"#utility.yul\":8303:8323   */\n      tag_168\n        /* \"#utility.yul\":8321:8322   */\n      dup3\n        /* \"#utility.yul\":8303:8323   */\n      tag_61\n      jump\t// in\n    tag_168:\n        /* \"#utility.yul\":8298:8323   */\n      swap2\n      pop\n        /* \"#utility.yul\":8337:8357   */\n      tag_169\n        /* \"#utility.yul\":8355:8356   */\n      dup4\n        /* \"#utility.yul\":8337:8357   */\n      tag_61\n      jump\t// in\n    tag_169:\n        /* \"#utility.yul\":8332:8357   */\n      swap3\n      pop\n        /* \"#utility.yul\":8380:8381   */\n      dup3\n        /* \"#utility.yul\":8377:8378   */\n      dup3\n        /* \"#utility.yul\":8373:8382   */\n      add\n        /* \"#utility.yul\":8366:8382   */\n      swap1\n      pop\n        /* \"#utility.yul\":8401:8404   */\n      dup1\n        /* \"#utility.yul\":8398:8399   */\n      dup3\n        /* \"#utility.yul\":8395:8405   */\n      gt\n        /* \"#utility.yul\":8392:8428   */\n      iszero\n      tag_170\n      jumpi\n        /* \"#utility.yul\":8408:8426   */\n      tag_171\n      tag_79\n      jump\t// in\n    tag_171:\n        /* \"#utility.yul\":8392:8428   */\n    tag_170:\n        /* \"#utility.yul\":8244:8435   */\n      swap3\n      swap2\n      pop\n      pop\n      jump\t// out\n        /* \"#utility.yul\":8441:8635   */\n    tag_43:\n        /* \"#utility.yul\":8481:8485   */\n      0x00\n        /* \"#utility.yul\":8501:8521   */\n      tag_173\n        /* \"#utility.yul\":8519:8520   */\n      dup3\n        /* \"#utility.yul\":8501:8521   */\n      tag_61\n      jump\t// in\n    tag_173:\n        /* \"#utility.yul\":8496:8521   */\n      swap2\n      pop\n        /* \"#utility.yul\":8535:8555   */\n      tag_174\n        /* \"#utility.yul\":8553:8554   */\n      dup4\n        /* \"#utility.yul\":8535:8555   */\n      tag_61\n      jump\t// in\n    tag_174:\n        /* \"#utility.yul\":8530:8555   */\n      swap3\n      pop\n        /* \"#utility.yul\":8579:8580   */\n      dup3\n        /* \"#utility.yul\":8576:8577   */\n      dup3\n        /* \"#utility.yul\":8572:8581   */\n      sub\n        /* \"#utility.yul\":8564:8581   */\n      swap1\n      pop\n        /* \"#utility.yul\":8603:8604   */\n      dup2\n        /* \"#utility.yul\":8597:8601   */\n      dup2\n        /* \"#utility.yul\":8594:8605   */\n      gt\n        /* \"#utility.yul\":8591:8628   */\n      iszero\n      tag_175\n      jumpi\n        /* \"#utility.yul\":8608:8626   */\n      tag_176\n      tag_79\n      jump\t// in\n    tag_176:\n        /* \"#utility.yul\":8591:8628   */\n    tag_175:\n        /* \"#utility.yul\":8441:8635   */\n      swap3\n      swap2\n      pop\n      pop\n      jump\t// out\n\n    auxdata: 0xa2646970667358221220b6cce951089de86f4c0d3d7f20a4cc2ab6f8d04e147ac05eb74388cbec37d5fe64736f6c634300081a0033\n}\n",
				"bytecode": {
					"linkReferences": {},
					"object": "6080604052348015600e575f80fd5b506106e88061001c5f395ff3fe608060405234801561000f575f80fd5b506004361061004a575f3560e01c806310b0b5d51461004e5780633bc5de301461007e5780636f1944fb1461009c578063f0280e85146100cc575b5f80fd5b610068600480360381019061006391906103e9565b6100fc565b604051610075919061043f565b60405180910390f35b610086610152565b60405161009391906104fd565b60405180910390f35b6100b660048036038101906100b191906103e9565b610185565b6040516100c391906105a7565b60405180910390f35b6100e660048036038101906100e191906105c7565b610214565b6040516100f3919061043f565b60405180910390f35b5f805f83511115610149575f5b835181101561014757838181518110610125576101246105f2565b5b602002602001015182610138919061064c565b91508080600101915050610109565b505b80915050919050565b61015a610233565b5f60405180606001604052806103e881526020016103e981526020016103ea81525090508091505090565b6060805f8351111561020b576001835161019f919061067f565b67ffffffffffffffff8111156101b8576101b761027a565b5b6040519080825280602002602001820160405280156101e65781602001602082028036833780820191505090505b509050825f815181106101fc576101fb6105f2565b5b602002602001015f8152508290505b80915050919050565b5f8181548110610222575f80fd5b905f5260205f20015f915090505481565b6040518060600160405280600390602082028036833780820191505090505090565b5f604051905090565b5f80fd5b5f80fd5b5f80fd5b5f601f19601f8301169050919050565b7f4e487b71000000000000000000000000000000000000000000000000000000005f52604160045260245ffd5b6102b08261026a565b810181811067ffffffffffffffff821117156102cf576102ce61027a565b5b80604052505050565b5f6102e1610255565b90506102ed82826102a7565b919050565b5f67ffffffffffffffff82111561030c5761030b61027a565b5b602082029050602081019050919050565b5f80fd5b5f819050919050565b61033381610321565b811461033d575f80fd5b50565b5f8135905061034e8161032a565b92915050565b5f610366610361846102f2565b6102d8565b905080838252602082019050602084028301858111156103895761038861031d565b5b835b818110156103b2578061039e8882610340565b84526020840193505060208101905061038b565b5050509392505050565b5f82601f8301126103d0576103cf610266565b5b81356103e0848260208601610354565b91505092915050565b5f602082840312156103fe576103fd61025e565b5b5f82013567ffffffffffffffff81111561041b5761041a610262565b5b610427848285016103bc565b91505092915050565b61043981610321565b82525050565b5f6020820190506104525f830184610430565b92915050565b5f60039050919050565b5f81905092915050565b5f819050919050565b61047e81610321565b82525050565b5f61048f8383610475565b60208301905092915050565b5f602082019050919050565b6104b081610458565b6104ba8184610462565b92506104c58261046c565b805f5b838110156104f55781516104dc8782610484565b96506104e78361049b565b9250506001810190506104c8565b505050505050565b5f6060820190506105105f8301846104a7565b92915050565b5f81519050919050565b5f82825260208201905092915050565b5f819050602082019050919050565b5f602082019050919050565b5f61055582610516565b61055f8185610520565b935061056a83610530565b805f5b8381101561059a5781516105818882610484565b975061058c8361053f565b92505060018101905061056d565b5085935050505092915050565b5f6020820190508181035f8301526105bf818461054b565b905092915050565b5f602082840312156105dc576105db61025e565b5b5f6105e984828501610340565b91505092915050565b7f4e487b71000000000000000000000000000000000000000000000000000000005f52603260045260245ffd5b7f4e487b71000000000000000000000000000000000000000000000000000000005f52601160045260245ffd5b5f61065682610321565b915061066183610321565b92508282019050808211156106795761067861061f565b5b92915050565b5f61068982610321565b915061069483610321565b92508282039050818111156106ac576106ab61061f565b5b9291505056fea2646970667358221220b6cce951089de86f4c0d3d7f20a4cc2ab6f8d04e147ac05eb74388cbec37d5fe64736f6c634300081a0033",
					"opcodes": "PUSH1 0x80 PUSH1 0x40 MSTORE CALLVALUE DUP1 ISZERO PUSH1 0xE JUMPI PUSH0 DUP1 REVERT JUMPDEST POP PUSH2 0x6E8 DUP1 PUSH2 0x1C PUSH0 CODECOPY PUSH0 RETURN INVALID PUSH1 0x80 PUSH1 0x40 MSTORE CALLVALUE DUP1 ISZERO PUSH2 0xF JUMPI PUSH0 DUP1 REVERT JUMPDEST POP PUSH1 0x4 CALLDATASIZE LT PUSH2 0x4A JUMPI PUSH0 CALLDATALOAD PUSH1 0xE0 SHR DUP1 PUSH4 0x10B0B5D5 EQ PUSH2 0x4E JUMPI DUP1 PUSH4 0x3BC5DE30 EQ PUSH2 0x7E JUMPI DUP1 PUSH4 0x6F1944FB EQ PUSH2 0x9C JUMPI DUP1 PUSH4 0xF0280E85 EQ PUSH2 0xCC JUMPI JUMPDEST PUSH0 DUP1 REVERT JUMPDEST PUSH2 0x68 PUSH1 0x4 DUP1 CALLDATASIZE SUB DUP2 ADD SWAP1 PUSH2 0x63 SWAP2 SWAP1 PUSH2 0x3E9 JUMP JUMPDEST PUSH2 0xFC JUMP JUMPDEST PUSH1 0x40 MLOAD PUSH2 0x75 SWAP2 SWAP1 PUSH2 0x43F JUMP JUMPDEST PUSH1 0x40 MLOAD DUP1 SWAP2 SUB SWAP1 RETURN JUMPDEST PUSH2 0x86 PUSH2 0x152 JUMP JUMPDEST PUSH1 0x40 MLOAD PUSH2 0x93 SWAP2 SWAP1 PUSH2 0x4FD JUMP JUMPDEST PUSH1 0x40 MLOAD DUP1 SWAP2 SUB SWAP1 RETURN JUMPDEST PUSH2 0xB6 PUSH1 0x4 DUP1 CALLDATASIZE SUB DUP2 ADD SWAP1 PUSH2 0xB1 SWAP2 SWAP1 PUSH2 0x3E9 JUMP JUMPDEST PUSH2 0x185 JUMP JUMPDEST PUSH1 0x40 MLOAD PUSH2 0xC3 SWAP2 SWAP1 PUSH2 0x5A7 JUMP JUMPDEST PUSH1 0x40 MLOAD DUP1 SWAP2 SUB SWAP1 RETURN JUMPDEST PUSH2 0xE6 PUSH1 0x4 DUP1 CALLDATASIZE SUB DUP2 ADD SWAP1 PUSH2 0xE1 SWAP2 SWAP1 PUSH2 0x5C7 JUMP JUMPDEST PUSH2 0x214 JUMP JUMPDEST PUSH1 0x40 MLOAD PUSH2 0xF3 SWAP2 SWAP1 PUSH2 0x43F JUMP JUMPDEST PUSH1 0x40 MLOAD DUP1 SWAP2 SUB SWAP1 RETURN JUMPDEST PUSH0 DUP1 PUSH0 DUP4 MLOAD GT ISZERO PUSH2 0x149 JUMPI PUSH0 JUMPDEST DUP4 MLOAD DUP2 LT ISZERO PUSH2 0x147 JUMPI DUP4 DUP2 DUP2 MLOAD DUP2 LT PUSH2 0x125 JUMPI PUSH2 0x124 PUSH2 0x5F2 JUMP JUMPDEST JUMPDEST PUSH1 0x20 MUL PUSH1 0x20 ADD ADD MLOAD DUP3 PUSH2 0x138 SWAP2 SWAP1 PUSH2 0x64C JUMP JUMPDEST SWAP2 POP DUP1 DUP1 PUSH1 0x1 ADD SWAP2 POP POP PUSH2 0x109 JUMP JUMPDEST POP JUMPDEST DUP1 SWAP2 POP POP SWAP2 SWAP1 POP JUMP JUMPDEST PUSH2 0x15A PUSH2 0x233 JUMP JUMPDEST PUSH0 PUSH1 0x40 MLOAD DUP1 PUSH1 0x60 ADD PUSH1 0x40 MSTORE DUP1 PUSH2 0x3E8 DUP2 MSTORE PUSH1 0x20 ADD PUSH2 0x3E9 DUP2 MSTORE PUSH1 0x20 ADD PUSH2 0x3EA DUP2 MSTORE POP SWAP1 POP DUP1 SWAP2 POP POP SWAP1 JUMP JUMPDEST PUSH1 0x60 DUP1 PUSH0 DUP4 MLOAD GT ISZERO PUSH2 0x20B JUMPI PUSH1 0x1 DUP4 MLOAD PUSH2 0x19F SWAP2 SWAP1 PUSH2 0x67F JUMP JUMPDEST PUSH8 0xFFFFFFFFFFFFFFFF DUP2 GT ISZERO PUSH2 0x1B8 JUMPI PUSH2 0x1B7 PUSH2 0x27A JUMP JUMPDEST JUMPDEST PUSH1 0x40 MLOAD SWAP1 DUP1 DUP3 MSTORE DUP1 PUSH1 0x20 MUL PUSH1 0x20 ADD DUP3 ADD PUSH1 0x40 MSTORE DUP1 ISZERO PUSH2 0x1E6 JUMPI DUP2 PUSH1 0x20 ADD PUSH1 0x20 DUP3 MUL DUP1 CALLDATASIZE DUP4 CALLDATACOPY DUP1 DUP3 ADD SWAP2 POP POP SWAP1 POP JUMPDEST POP SWAP1 POP DUP3 PUSH0 DUP2 MLOAD DUP2 LT PUSH2 0x1FC JUMPI PUSH2 0x1FB PUSH2 0x5F2 JUMP JUMPDEST JUMPDEST PUSH1 0x20 MUL PUSH1 0x20 ADD ADD PUSH0 DUP2 MSTORE POP DUP3 SWAP1 POP JUMPDEST DUP1 SWAP2 POP POP SWAP2 SWAP1 POP JUMP JUMPDEST PUSH0 DUP2 DUP2 SLOAD DUP2 LT PUSH2 0x222 JUMPI PUSH0 DUP1 REVERT JUMPDEST SWAP1 PUSH0 MSTORE PUSH1 0x20 PUSH0 KECCAK256 ADD PUSH0 SWAP2 POP SWAP1 POP SLOAD DUP2 JUMP JUMPDEST PUSH1 0x40 MLOAD DUP1 PUSH1 0x60 ADD PUSH1 0x40 MSTORE DUP1 PUSH1 0x3 SWAP1 PUSH1 0x20 DUP3 MUL DUP1 CALLDATASIZE DUP4 CALLDATACOPY DUP1 DUP3 ADD SWAP2 POP POP SWAP1 POP POP SWAP1 JUMP JUMPDEST PUSH0 PUSH1 0x40 MLOAD SWAP1 POP SWAP1 JUMP JUMPDEST PUSH0 DUP1 REVERT JUMPDEST PUSH0 DUP1 REVERT JUMPDEST PUSH0 DUP1 REVERT JUMPDEST PUSH0 PUSH1 0x1F NOT PUSH1 0x1F DUP4 ADD AND SWAP1 POP SWAP2 SWAP1 POP JUMP JUMPDEST PUSH32 0x4E487B7100000000000000000000000000000000000000000000000000000000 PUSH0 MSTORE PUSH1 0x41 PUSH1 0x4 MSTORE PUSH1 0x24 PUSH0 REVERT JUMPDEST PUSH2 0x2B0 DUP3 PUSH2 0x26A JUMP JUMPDEST DUP2 ADD DUP2 DUP2 LT PUSH8 0xFFFFFFFFFFFFFFFF DUP3 GT OR ISZERO PUSH2 0x2CF JUMPI PUSH2 0x2CE PUSH2 0x27A JUMP JUMPDEST JUMPDEST DUP1 PUSH1 0x40 MSTORE POP POP POP JUMP JUMPDEST PUSH0 PUSH2 0x2E1 PUSH2 0x255 JUMP JUMPDEST SWAP1 POP PUSH2 0x2ED DUP3 DUP3 PUSH2 0x2A7 JUMP JUMPDEST SWAP2 SWAP1 POP JUMP JUMPDEST PUSH0 PUSH8 0xFFFFFFFFFFFFFFFF DUP3 GT ISZERO PUSH2 0x30C JUMPI PUSH2 0x30B PUSH2 0x27A JUMP JUMPDEST JUMPDEST PUSH1 0x20 DUP3 MUL SWAP1 POP PUSH1 0x20 DUP2 ADD SWAP1 POP SWAP2 SWAP1 POP JUMP JUMPDEST PUSH0 DUP1 REVERT JUMPDEST PUSH0 DUP2 SWAP1 POP SWAP2 SWAP1 POP JUMP JUMPDEST PUSH2 0x333 DUP2 PUSH2 0x321 JUMP JUMPDEST DUP2 EQ PUSH2 0x33D JUMPI PUSH0 DUP1 REVERT JUMPDEST POP JUMP JUMPDEST PUSH0 DUP2 CALLDATALOAD SWAP1 POP PUSH2 0x34E DUP2 PUSH2 0x32A JUMP JUMPDEST SWAP3 SWAP2 POP POP JUMP JUMPDEST PUSH0 PUSH2 0x366 PUSH2 0x361 DUP5 PUSH2 0x2F2 JUMP JUMPDEST PUSH2 0x2D8 JUMP JUMPDEST SWAP1 POP DUP1 DUP4 DUP3 MSTORE PUSH1 0x20 DUP3 ADD SWAP1 POP PUSH1 0x20 DUP5 MUL DUP4 ADD DUP6 DUP2 GT ISZERO PUSH2 0x389 JUMPI PUSH2 0x388 PUSH2 0x31D JUMP JUMPDEST JUMPDEST DUP4 JUMPDEST DUP2 DUP2 LT ISZERO PUSH2 0x3B2 JUMPI DUP1 PUSH2 0x39E DUP9 DUP3 PUSH2 0x340 JUMP JUMPDEST DUP5 MSTORE PUSH1 0x20 DUP5 ADD SWAP4 POP POP PUSH1 0x20 DUP2 ADD SWAP1 POP PUSH2 0x38B JUMP JUMPDEST POP POP POP SWAP4 SWAP3 POP POP POP JUMP JUMPDEST PUSH0 DUP3 PUSH1 0x1F DUP4 ADD SLT PUSH2 0x3D0 JUMPI PUSH2 0x3CF PUSH2 0x266 JUMP JUMPDEST JUMPDEST DUP2 CALLDATALOAD PUSH2 0x3E0 DUP5 DUP3 PUSH1 0x20 DUP7 ADD PUSH2 0x354 JUMP JUMPDEST SWAP2 POP POP SWAP3 SWAP2 POP POP JUMP JUMPDEST PUSH0 PUSH1 0x20 DUP3 DUP5 SUB SLT ISZERO PUSH2 0x3FE JUMPI PUSH2 0x3FD PUSH2 0x25E JUMP JUMPDEST JUMPDEST PUSH0 DUP3 ADD CALLDATALOAD PUSH8 0xFFFFFFFFFFFFFFFF DUP2 GT ISZERO PUSH2 0x41B JUMPI PUSH2 0x41A PUSH2 0x262 JUMP JUMPDEST JUMPDEST PUSH2 0x427 DUP5 DUP3 DUP6 ADD PUSH2 0x3BC JUMP JUMPDEST SWAP2 POP POP SWAP3 SWAP2 POP POP JUMP JUMPDEST PUSH2 0x439 DUP2 PUSH2 0x321 JUMP JUMPDEST DUP3 MSTORE POP POP JUMP JUMPDEST PUSH0 PUSH1 0x20 DUP3 ADD SWAP1 POP PUSH2 0x452 PUSH0 DUP4 ADD DUP5 PUSH2 0x430 JUMP JUMPDEST SWAP3 SWAP2 POP POP JUMP JUMPDEST PUSH0 PUSH1 0x3 SWAP1 POP SWAP2 SWAP1 POP JUMP JUMPDEST PUSH0 DUP2 SWAP1 POP SWAP3 SWAP2 POP POP JUMP JUMPDEST PUSH0 DUP2 SWAP1 POP SWAP2 SWAP1 POP JUMP JUMPDEST PUSH2 0x47E DUP2 PUSH2 0x321 JUMP JUMPDEST DUP3 MSTORE POP POP JUMP JUMPDEST PUSH0 PUSH2 0x48F DUP4 DUP4 PUSH2 0x475 JUMP JUMPDEST PUSH1 0x20 DUP4 ADD SWAP1 POP SWAP3 SWAP2 POP POP JUMP JUMPDEST PUSH0 PUSH1 0x20 DUP3 ADD SWAP1 POP SWAP2 SWAP1 POP JUMP JUMPDEST PUSH2 0x4B0 DUP2 PUSH2 0x458 JUMP JUMPDEST PUSH2 0x4BA DUP2 DUP5 PUSH2 0x462 JUMP JUMPDEST SWAP3 POP PUSH2 0x4C5 DUP3 PUSH2 0x46C JUMP JUMPDEST DUP1 PUSH0 JUMPDEST DUP4 DUP2 LT ISZERO PUSH2 0x4F5 JUMPI DUP2 MLOAD PUSH2 0x4DC DUP8 DUP3 PUSH2 0x484 JUMP JUMPDEST SWAP7 POP PUSH2 0x4E7 DUP4 PUSH2 0x49B JUMP JUMPDEST SWAP3 POP POP PUSH1 0x1 DUP2 ADD SWAP1 POP PUSH2 0x4C8 JUMP JUMPDEST POP POP POP POP POP POP JUMP JUMPDEST PUSH0 PUSH1 0x60 DUP3 ADD SWAP1 POP PUSH2 0x510 PUSH0 DUP4 ADD DUP5 PUSH2 0x4A7 JUMP JUMPDEST SWAP3 SWAP2 POP POP JUMP JUMPDEST PUSH0 DUP2 MLOAD SWAP1 POP SWAP2 SWAP1 POP JUMP JUMPDEST PUSH0 DUP3 DUP3 MSTORE PUSH1 0x20 DUP3 ADD SWAP1 POP SWAP3 SWAP2 POP POP JUMP JUMPDEST PUSH0 DUP2 SWAP1 POP PUSH1 0x20 DUP3 ADD SWAP1 POP SWAP2 SWAP1 POP JUMP JUMPDEST PUSH0 PUSH1 0x20 DUP3 ADD SWAP1 POP SWAP2 SWAP1 POP JUMP JUMPDEST PUSH0 PUSH2 0x555 DUP3 PUSH2 0x516 JUMP JUMPDEST PUSH2 0x55F DUP2 DUP6 PUSH2 0x520 JUMP JUMPDEST SWAP4 POP PUSH2 0x56A DUP4 PUSH2 0x530 JUMP JUMPDEST DUP1 PUSH0 JUMPDEST DUP4 DUP2 LT ISZERO PUSH2 0x59A JUMPI DUP2 MLOAD PUSH2 0x581 DUP9 DUP3 PUSH2 0x484 JUMP JUMPDEST SWAP8 POP PUSH2 0x58C DUP4 PUSH2 0x53F JUMP JUMPDEST SWAP3 POP POP PUSH1 0x1 DUP2 ADD SWAP1 POP PUSH2 0x56D JUMP JUMPDEST POP DUP6 SWAP4 POP POP POP POP SWAP3 SWAP2 POP POP JUMP JUMPDEST PUSH0 PUSH1 0x20 DUP3 ADD SWAP1 POP DUP2 DUP2 SUB PUSH0 DUP4 ADD MSTORE PUSH2 0x5BF DUP2 DUP5 PUSH2 0x54B JUMP JUMPDEST SWAP1 POP SWAP3 SWAP2 POP POP JUMP JUMPDEST PUSH0 PUSH1 0x20 DUP3 DUP5 SUB SLT ISZERO PUSH2 0x5DC JUMPI PUSH2 0x5DB PUSH2 0x25E JUMP JUMPDEST JUMPDEST PUSH0 PUSH2 0x5E9 DUP5 DUP3 DUP6 ADD PUSH2 0x340 JUMP JUMPDEST SWAP2 POP POP SWAP3 SWAP2 POP POP JUMP JUMPDEST PUSH32 0x4E487B7100000000000000000000000000000000000000000000000000000000 PUSH0 MSTORE PUSH1 0x32 PUSH1 0x4 MSTORE PUSH1 0x24 PUSH0 REVERT JUMPDEST PUSH32 0x4E487B7100000000000000000000000000000000000000000000000000000000 PUSH0 MSTORE PUSH1 0x11 PUSH1 0x4 MSTORE PUSH1 0x24 PUSH0 REVERT JUMPDEST PUSH0 PUSH2 0x656 DUP3 PUSH2 0x321 JUMP JUMPDEST SWAP2 POP PUSH2 0x661 DUP4 PUSH2 0x321 JUMP JUMPDEST SWAP3 POP DUP3 DUP3 ADD SWAP1 POP DUP1 DUP3 GT ISZERO PUSH2 0x679 JUMPI PUSH2 0x678 PUSH2 0x61F JUMP JUMPDEST JUMPDEST SWAP3 SWAP2 POP POP JUMP JUMPDEST PUSH0 PUSH2 0x689 DUP3 PUSH2 0x321 JUMP JUMPDEST SWAP2 POP PUSH2 0x694 DUP4 PUSH2 0x321 JUMP JUMPDEST SWAP3 POP DUP3 DUP3 SUB SWAP1 POP DUP2 DUP2 GT ISZERO PUSH2 0x6AC JUMPI PUSH2 0x6AB PUSH2 0x61F JUMP JUMPDEST JUMPDEST SWAP3 SWAP2 POP POP JUMP INVALID LOG2 PUSH5 0x6970667358 0x22 SLT KECCAK256 0xB6 0xCC 0xE9 MLOAD ADDMOD SWAP14 0xE8 PUSH16 0x4C0D3D7F20A4CC2AB6F8D04E147AC05E 0xB7 NUMBER DUP9 0xCB 0xEC CALLDATACOPY 0xD5 INVALID PUSH5 0x736F6C6343 STOP ADDMOD BYTE STOP CALLER "
				},
				"gasEstimates": {
					"creation": {
						"codeDepositCost": "353600",
						"executionCost": "391",
						"totalCost": "353991"
					},
					"external": {
						"add(uint256[])": "infinite",
						"del(uint256[])": "infinite",
						"dynamicAddressData(uint256)": "infinite",
						"getData()": "infinite"
					}
				},
				"methodIdentifiers": {
					"add(uint256[])": "10b0b5d5",
					"del(uint256[])": "6f1944fb",
					"dynamicAddressData(uint256)": "f0280e85",
					"getData()": "3bc5de30"
				}
			},
			"storageLayout": {
				"storage": [
					{
						"astId": 4,
						"contract": "homework/02/数组/AddressArrayOperations.sol:AddressArrayOperations",
						"label": "dynamicAddressData",
						"offset": 0,
						"slot": "0",
						"type": "t_array(t_uint256)dyn_storage"
					}
				],
				"types": {
					"t_array(t_uint256)dyn_storage": {
						"base": "t_uint256",
						"encoding": "dynamic_array",
						"label": "uint256[]",
						"numberOfBytes": "32"
					},
					"t_uint256": {
						"encoding": "inplace",
						"label": "uint256",
						"numberOfBytes": "32"
					}
				}
			},
			"userdoc": {
				"kind": "user",
				"methods": {},
				"version": 1
			}
		}
	}
}