{
	"homework/02/assembly/Assembly.sol": {
		"Assembly": {
			"abi": [
				{
					"inputs": [
						{
							"internalType": "uint256",
							"name": "x",
							"type": "uint256"
						},
						{
							"internalType": "uint256",
							"name": "y",
							"type": "uint256"
						}
					],
					"name": "addAssembly",
					"outputs": [
						{
							"internalType": "uint256",
							"name": "",
							"type": "uint256"
						}
					],
					"stateMutability": "pure",
					"type": "function"
				},
				{
					"inputs": [
						{
							"internalType": "uint256",
							"name": "x",
							"type": "uint256"
						},
						{
							"internalType": "uint256",
							"name": "y",
							"type": "uint256"
						}
					],
					"name": "addSolidity",
					"outputs": [
						{
							"internalType": "uint256",
							"name": "",
							"type": "uint256"
						}
					],
					"stateMutability": "pure",
					"type": "function"
				},
				{
					"inputs": [
						{
							"internalType": "uint256",
							"name": "n",
							"type": "uint256"
						},
						{
							"internalType": "uint256",
							"name": "value",
							"type": "uint256"
						}
					],
					"name": "forloop",
					"outputs": [
						{
							"internalType": "uint256",
							"name": "",
							"type": "uint256"
						}
					],
					"stateMutability": "pure",
					"type": "function"
				},
				{
					"inputs": [],
					"name": "localvar",
					"outputs": [],
					"stateMutability": "pure",
					"type": "function"
				}
			],
			"devdoc": {
				"kind": "dev",
				"methods": {},
				"version": 1
			},
			"evm": {
				"assembly": "    /* \"homework/02/assembly/Assembly.sol\":138:1134  contract Assembly {... */\n  mstore(0x40, 0x80)\n  callvalue\n  dup1\n  iszero\n  tag_1\n  jumpi\n  0x00\n  dup1\n  revert\ntag_1:\n  pop\n  dataSize(sub_0)\n  dup1\n  dataOffset(sub_0)\n  0x00\n  codecopy\n  0x00\n  return\nstop\n\nsub_0: assembly {\n        /* \"homework/02/assembly/Assembly.sol\":138:1134  contract Assembly {... */\n      mstore(0x40, 0x80)\n      callvalue\n      dup1\n      iszero\n      tag_1\n      jumpi\n      0x00\n      dup1\n      revert\n    tag_1:\n      pop\n      jumpi(tag_2, lt(calldatasize, 0x04))\n      shr(0xe0, calldataload(0x00))\n      dup1\n      0x08bb1114\n      eq\n      tag_3\n      jumpi\n      dup1\n      0x43b4364a\n      eq\n      tag_4\n      jumpi\n      dup1\n      0x945b497a\n      eq\n      tag_5\n      jumpi\n      dup1\n      0xde9bad0c\n      eq\n      tag_6\n      jumpi\n    tag_2:\n      0x00\n      dup1\n      revert\n        /* \"homework/02/assembly/Assembly.sol\":162:434  function addAssembly(uint256 x, uint256 y) public pure returns (uint256) {... */\n    tag_3:\n      tag_7\n      0x04\n      dup1\n      calldatasize\n      sub\n      dup2\n      add\n      swap1\n      tag_8\n      swap2\n      swap1\n      tag_9\n      jump\t// in\n    tag_8:\n      tag_10\n      jump\t// in\n    tag_7:\n      mload(0x40)\n      tag_11\n      swap2\n      swap1\n      tag_12\n      jump\t// in\n    tag_11:\n      mload(0x40)\n      dup1\n      swap2\n      sub\n      swap1\n      return\n        /* \"homework/02/assembly/Assembly.sol\":548:788  function localvar() public pure {... */\n    tag_4:\n      tag_13\n      tag_14\n      jump\t// in\n    tag_13:\n      stop\n        /* \"homework/02/assembly/Assembly.sol\":794:1132  function forloop(uint256 n, uint256 value) public pure returns (uint256) {... */\n    tag_5:\n      tag_15\n      0x04\n      dup1\n      calldatasize\n      sub\n      dup2\n      add\n      swap1\n      tag_16\n      swap2\n      swap1\n      tag_9\n      jump\t// in\n    tag_16:\n      tag_17\n      jump\t// in\n    tag_15:\n      mload(0x40)\n      tag_18\n      swap2\n      swap1\n      tag_12\n      jump\t// in\n    tag_18:\n      mload(0x40)\n      dup1\n      swap2\n      sub\n      swap1\n      return\n        /* \"homework/02/assembly/Assembly.sol\":440:542  function addSolidity(uint256 x, uint256 y) public pure returns (uint256) {... */\n    tag_6:\n      tag_19\n      0x04\n      dup1\n      calldatasize\n      sub\n      dup2\n      add\n      swap1\n      tag_20\n      swap2\n      swap1\n      tag_9\n      jump\t// in\n    tag_20:\n      tag_21\n      jump\t// in\n    tag_19:\n      mload(0x40)\n      tag_22\n      swap2\n      swap1\n      tag_12\n      jump\t// in\n    tag_22:\n      mload(0x40)\n      dup1\n      swap2\n      sub\n      swap1\n      return\n        /* \"homework/02/assembly/Assembly.sol\":162:434  function addAssembly(uint256 x, uint256 y) public pure returns (uint256) {... */\n    tag_10:\n        /* \"homework/02/assembly/Assembly.sol\":226:233  uint256 */\n      0x00\n        /* \"homework/02/assembly/Assembly.sol\":289:290  y */\n      dup2\n        /* \"homework/02/assembly/Assembly.sol\":286:287  x */\n      dup4\n        /* \"homework/02/assembly/Assembly.sol\":282:291  add(x, y) */\n      add\n        /* \"homework/02/assembly/Assembly.sol\":323:329  result */\n      dup1\n        /* \"homework/02/assembly/Assembly.sol\":318:321  0x0 */\n      0x00\n        /* \"homework/02/assembly/Assembly.sol\":311:330  mstore(0x0, result) */\n      mstore\n        /* \"homework/02/assembly/Assembly.sol\":383:385  32 */\n      0x20\n        /* \"homework/02/assembly/Assembly.sol\":378:381  0x0 */\n      0x00\n        /* \"homework/02/assembly/Assembly.sol\":371:386  return(0x0, 32) */\n      return\n        /* \"homework/02/assembly/Assembly.sol\":548:788  function localvar() public pure {... */\n    tag_14:\n        /* \"homework/02/assembly/Assembly.sol\":590:599  uint256 b */\n      0x00\n        /* \"homework/02/assembly/Assembly.sol\":602:603  5 */\n      0x05\n        /* \"homework/02/assembly/Assembly.sol\":590:603  uint256 b = 5 */\n      swap1\n      pop\n        /* \"homework/02/assembly/Assembly.sol\":622:782  {... */\n      pop\n        /* \"homework/02/assembly/Assembly.sol\":548:788  function localvar() public pure {... */\n      jump\t// out\n        /* \"homework/02/assembly/Assembly.sol\":794:1132  function forloop(uint256 n, uint256 value) public pure returns (uint256) {... */\n    tag_17:\n        /* \"homework/02/assembly/Assembly.sol\":858:865  uint256 */\n      0x00\n        /* \"homework/02/assembly/Assembly.sol\":931:932  0 */\n      dup1\n        /* \"homework/02/assembly/Assembly.sol\":900:1057  for {... */\n    tag_26:\n        /* \"homework/02/assembly/Assembly.sol\":953:954  n */\n      dup4\n        /* \"homework/02/assembly/Assembly.sol\":950:951  i */\n      dup2\n        /* \"homework/02/assembly/Assembly.sol\":947:955  lt(i, n) */\n      lt\n        /* \"homework/02/assembly/Assembly.sol\":900:1057  for {... */\n      iszero\n      tag_28\n      jumpi\n        /* \"homework/02/assembly/Assembly.sol\":1037:1042  value */\n      dup3\n        /* \"homework/02/assembly/Assembly.sol\":1034:1035  2 */\n      0x02\n        /* \"homework/02/assembly/Assembly.sol\":1030:1043  add(2, value) */\n      add\n        /* \"homework/02/assembly/Assembly.sol\":1021:1043  value := add(2, value) */\n      swap3\n      pop\n        /* \"homework/02/assembly/Assembly.sol\":986:987  1 */\n      0x01\n        /* \"homework/02/assembly/Assembly.sol\":983:984  i */\n      dup2\n        /* \"homework/02/assembly/Assembly.sol\":979:988  add(i, 1) */\n      add\n        /* \"homework/02/assembly/Assembly.sol\":974:988  i := add(i, 1) */\n      swap1\n      pop\n        /* \"homework/02/assembly/Assembly.sol\":900:1057  for {... */\n      jump(tag_26)\n    tag_28:\n        /* \"homework/02/assembly/Assembly.sol\":904:946  {... */\n      pop\n        /* \"homework/02/assembly/Assembly.sol\":1082:1087  value */\n      dup2\n        /* \"homework/02/assembly/Assembly.sol\":1077:1080  0x0 */\n      0x00\n        /* \"homework/02/assembly/Assembly.sol\":1070:1088  mstore(0x0, value) */\n      mstore\n        /* \"homework/02/assembly/Assembly.sol\":1113:1115  32 */\n      0x20\n        /* \"homework/02/assembly/Assembly.sol\":1108:1111  0x0 */\n      0x00\n        /* \"homework/02/assembly/Assembly.sol\":1101:1116  return(0x0, 32) */\n      return\n        /* \"homework/02/assembly/Assembly.sol\":440:542  function addSolidity(uint256 x, uint256 y) public pure returns (uint256) {... */\n    tag_21:\n        /* \"homework/02/assembly/Assembly.sol\":504:511  uint256 */\n      0x00\n        /* \"homework/02/assembly/Assembly.sol\":534:535  y */\n      dup2\n        /* \"homework/02/assembly/Assembly.sol\":530:531  x */\n      dup4\n        /* \"homework/02/assembly/Assembly.sol\":530:535  x + y */\n      tag_30\n      swap2\n      swap1\n      tag_31\n      jump\t// in\n    tag_30:\n        /* \"homework/02/assembly/Assembly.sol\":523:535  return x + y */\n      swap1\n      pop\n        /* \"homework/02/assembly/Assembly.sol\":440:542  function addSolidity(uint256 x, uint256 y) public pure returns (uint256) {... */\n      swap3\n      swap2\n      pop\n      pop\n      jump\t// out\n        /* \"#utility.yul\":88:205   */\n    tag_33:\n        /* \"#utility.yul\":197:198   */\n      0x00\n        /* \"#utility.yul\":194:195   */\n      dup1\n        /* \"#utility.yul\":187:199   */\n      revert\n        /* \"#utility.yul\":334:411   */\n    tag_35:\n        /* \"#utility.yul\":371:378   */\n      0x00\n        /* \"#utility.yul\":400:405   */\n      dup2\n        /* \"#utility.yul\":389:405   */\n      swap1\n      pop\n        /* \"#utility.yul\":334:411   */\n      swap2\n      swap1\n      pop\n      jump\t// out\n        /* \"#utility.yul\":417:539   */\n    tag_36:\n        /* \"#utility.yul\":490:514   */\n      tag_46\n        /* \"#utility.yul\":508:513   */\n      dup2\n        /* \"#utility.yul\":490:514   */\n      tag_35\n      jump\t// in\n    tag_46:\n        /* \"#utility.yul\":483:488   */\n      dup2\n        /* \"#utility.yul\":480:515   */\n      eq\n        /* \"#utility.yul\":470:533   */\n      tag_47\n      jumpi\n        /* \"#utility.yul\":529:530   */\n      0x00\n        /* \"#utility.yul\":526:527   */\n      dup1\n        /* \"#utility.yul\":519:531   */\n      revert\n        /* \"#utility.yul\":470:533   */\n    tag_47:\n        /* \"#utility.yul\":417:539   */\n      pop\n      jump\t// out\n        /* \"#utility.yul\":545:684   */\n    tag_37:\n        /* \"#utility.yul\":591:596   */\n      0x00\n        /* \"#utility.yul\":629:635   */\n      dup2\n        /* \"#utility.yul\":616:636   */\n      calldataload\n        /* \"#utility.yul\":607:636   */\n      swap1\n      pop\n        /* \"#utility.yul\":645:678   */\n      tag_49\n        /* \"#utility.yul\":672:677   */\n      dup2\n        /* \"#utility.yul\":645:678   */\n      tag_36\n      jump\t// in\n    tag_49:\n        /* \"#utility.yul\":545:684   */\n      swap3\n      swap2\n      pop\n      pop\n      jump\t// out\n        /* \"#utility.yul\":690:1164   */\n    tag_9:\n        /* \"#utility.yul\":758:764   */\n      0x00\n        /* \"#utility.yul\":766:772   */\n      dup1\n        /* \"#utility.yul\":815:817   */\n      0x40\n        /* \"#utility.yul\":803:812   */\n      dup4\n        /* \"#utility.yul\":794:801   */\n      dup6\n        /* \"#utility.yul\":790:813   */\n      sub\n        /* \"#utility.yul\":786:818   */\n      slt\n        /* \"#utility.yul\":783:902   */\n      iszero\n      tag_51\n      jumpi\n        /* \"#utility.yul\":821:900   */\n      tag_52\n      tag_33\n      jump\t// in\n    tag_52:\n        /* \"#utility.yul\":783:902   */\n    tag_51:\n        /* \"#utility.yul\":941:942   */\n      0x00\n        /* \"#utility.yul\":966:1019   */\n      tag_53\n        /* \"#utility.yul\":1011:1018   */\n      dup6\n        /* \"#utility.yul\":1002:1008   */\n      dup3\n        /* \"#utility.yul\":991:1000   */\n      dup7\n        /* \"#utility.yul\":987:1009   */\n      add\n        /* \"#utility.yul\":966:1019   */\n      tag_37\n      jump\t// in\n    tag_53:\n        /* \"#utility.yul\":956:1019   */\n      swap3\n      pop\n        /* \"#utility.yul\":912:1029   */\n      pop\n        /* \"#utility.yul\":1068:1070   */\n      0x20\n        /* \"#utility.yul\":1094:1147   */\n      tag_54\n        /* \"#utility.yul\":1139:1146   */\n      dup6\n        /* \"#utility.yul\":1130:1136   */\n      dup3\n        /* \"#utility.yul\":1119:1128   */\n      dup7\n        /* \"#utility.yul\":1115:1137   */\n      add\n        /* \"#utility.yul\":1094:1147   */\n      tag_37\n      jump\t// in\n    tag_54:\n        /* \"#utility.yul\":1084:1147   */\n      swap2\n      pop\n        /* \"#utility.yul\":1039:1157   */\n      pop\n        /* \"#utility.yul\":690:1164   */\n      swap3\n      pop\n      swap3\n      swap1\n      pop\n      jump\t// out\n        /* \"#utility.yul\":1170:1288   */\n    tag_38:\n        /* \"#utility.yul\":1257:1281   */\n      tag_56\n        /* \"#utility.yul\":1275:1280   */\n      dup2\n        /* \"#utility.yul\":1257:1281   */\n      tag_35\n      jump\t// in\n    tag_56:\n        /* \"#utility.yul\":1252:1255   */\n      dup3\n        /* \"#utility.yul\":1245:1282   */\n      mstore\n        /* \"#utility.yul\":1170:1288   */\n      pop\n      pop\n      jump\t// out\n        /* \"#utility.yul\":1294:1516   */\n    tag_12:\n        /* \"#utility.yul\":1387:1391   */\n      0x00\n        /* \"#utility.yul\":1425:1427   */\n      0x20\n        /* \"#utility.yul\":1414:1423   */\n      dup3\n        /* \"#utility.yul\":1410:1428   */\n      add\n        /* \"#utility.yul\":1402:1428   */\n      swap1\n      pop\n        /* \"#utility.yul\":1438:1509   */\n      tag_58\n        /* \"#utility.yul\":1506:1507   */\n      0x00\n        /* \"#utility.yul\":1495:1504   */\n      dup4\n        /* \"#utility.yul\":1491:1508   */\n      add\n        /* \"#utility.yul\":1482:1488   */\n      dup5\n        /* \"#utility.yul\":1438:1509   */\n      tag_38\n      jump\t// in\n    tag_58:\n        /* \"#utility.yul\":1294:1516   */\n      swap3\n      swap2\n      pop\n      pop\n      jump\t// out\n        /* \"#utility.yul\":1522:1702   */\n    tag_39:\n        /* \"#utility.yul\":1570:1647   */\n      0x4e487b7100000000000000000000000000000000000000000000000000000000\n        /* \"#utility.yul\":1567:1568   */\n      0x00\n        /* \"#utility.yul\":1560:1648   */\n      mstore\n        /* \"#utility.yul\":1667:1671   */\n      0x11\n        /* \"#utility.yul\":1664:1665   */\n      0x04\n        /* \"#utility.yul\":1657:1672   */\n      mstore\n        /* \"#utility.yul\":1691:1695   */\n      0x24\n        /* \"#utility.yul\":1688:1689   */\n      0x00\n        /* \"#utility.yul\":1681:1696   */\n      revert\n        /* \"#utility.yul\":1708:1899   */\n    tag_31:\n        /* \"#utility.yul\":1748:1751   */\n      0x00\n        /* \"#utility.yul\":1767:1787   */\n      tag_61\n        /* \"#utility.yul\":1785:1786   */\n      dup3\n        /* \"#utility.yul\":1767:1787   */\n      tag_35\n      jump\t// in\n    tag_61:\n        /* \"#utility.yul\":1762:1787   */\n      swap2\n      pop\n        /* \"#utility.yul\":1801:1821   */\n      tag_62\n        /* \"#utility.yul\":1819:1820   */\n      dup4\n        /* \"#utility.yul\":1801:1821   */\n      tag_35\n      jump\t// in\n    tag_62:\n        /* \"#utility.yul\":1796:1821   */\n      swap3\n      pop\n        /* \"#utility.yul\":1844:1845   */\n      dup3\n        /* \"#utility.yul\":1841:1842   */\n      dup3\n        /* \"#utility.yul\":1837:1846   */\n      add\n        /* \"#utility.yul\":1830:1846   */\n      swap1\n      pop\n        /* \"#utility.yul\":1865:1868   */\n      dup1\n        /* \"#utility.yul\":1862:1863   */\n      dup3\n        /* \"#utility.yul\":1859:1869   */\n      gt\n        /* \"#utility.yul\":1856:1892   */\n      iszero\n      tag_63\n      jumpi\n        /* \"#utility.yul\":1872:1890   */\n      tag_64\n      tag_39\n      jump\t// in\n    tag_64:\n        /* \"#utility.yul\":1856:1892   */\n    tag_63:\n        /* \"#utility.yul\":1708:1899   */\n      swap3\n      swap2\n      pop\n      pop\n      jump\t// out\n\n    auxdata: 0xa264697066735822122067e6c901e6851df591a4f5e63e95e690f55a9d8c4dcab010de5d2ab73b97e80a64736f6c634300081a0033\n}\n",
				"bytecode": {
					"linkReferences": {},
					"object": "6080604052348015600e575f80fd5b506102698061001c5f395ff3fe608060405234801561000f575f80fd5b506004361061004a575f3560e01c806308bb11141461004e57806343b4364a1461007e578063945b497a14610088578063de9bad0c146100b8575b5f80fd5b6100686004803603810190610063919061016d565b6100e8565b60405161007591906101ba565b60405180910390f35b6100866100f4565b005b6100a2600480360381019061009d919061016d565b6100fc565b6040516100af91906101ba565b60405180910390f35b6100d260048036038101906100cd919061016d565b610121565b6040516100df91906101ba565b60405180910390f35b5f818301805f5260205ff35b5f6005905050565b5f805b83811015610118578260020192506001810190506100ff565b50815f5260205ff35b5f818361012e9190610200565b905092915050565b5f80fd5b5f819050919050565b61014c8161013a565b8114610156575f80fd5b50565b5f8135905061016781610143565b92915050565b5f806040838503121561018357610182610136565b5b5f61019085828601610159565b92505060206101a185828601610159565b9150509250929050565b6101b48161013a565b82525050565b5f6020820190506101cd5f8301846101ab565b92915050565b7f4e487b71000000000000000000000000000000000000000000000000000000005f52601160045260245ffd5b5f61020a8261013a565b91506102158361013a565b925082820190508082111561022d5761022c6101d3565b5b9291505056fea264697066735822122067e6c901e6851df591a4f5e63e95e690f55a9d8c4dcab010de5d2ab73b97e80a64736f6c634300081a0033",
					"opcodes": "PUSH1 0x80 PUSH1 0x40 MSTORE CALLVALUE DUP1 ISZERO PUSH1 0xE JUMPI PUSH0 DUP1 REVERT JUMPDEST POP PUSH2 0x269 DUP1 PUSH2 0x1C PUSH0 CODECOPY PUSH0 RETURN INVALID PUSH1 0x80 PUSH1 0x40 MSTORE CALLVALUE DUP1 ISZERO PUSH2 0xF JUMPI PUSH0 DUP1 REVERT JUMPDEST POP PUSH1 0x4 CALLDATASIZE LT PUSH2 0x4A JUMPI PUSH0 CALLDATALOAD PUSH1 0xE0 SHR DUP1 PUSH4 0x8BB1114 EQ PUSH2 0x4E JUMPI DUP1 PUSH4 0x43B4364A EQ PUSH2 0x7E JUMPI DUP1 PUSH4 0x945B497A EQ PUSH2 0x88 JUMPI DUP1 PUSH4 0xDE9BAD0C EQ PUSH2 0xB8 JUMPI JUMPDEST PUSH0 DUP1 REVERT JUMPDEST PUSH2 0x68 PUSH1 0x4 DUP1 CALLDATASIZE SUB DUP2 ADD SWAP1 PUSH2 0x63 SWAP2 SWAP1 PUSH2 0x16D JUMP JUMPDEST PUSH2 0xE8 JUMP JUMPDEST PUSH1 0x40 MLOAD PUSH2 0x75 SWAP2 SWAP1 PUSH2 0x1BA JUMP JUMPDEST PUSH1 0x40 MLOAD DUP1 SWAP2 SUB SWAP1 RETURN JUMPDEST PUSH2 0x86 PUSH2 0xF4 JUMP JUMPDEST STOP JUMPDEST PUSH2 0xA2 PUSH1 0x4 DUP1 CALLDATASIZE SUB DUP2 ADD SWAP1 PUSH2 0x9D SWAP2 SWAP1 PUSH2 0x16D JUMP JUMPDEST PUSH2 0xFC JUMP JUMPDEST PUSH1 0x40 MLOAD PUSH2 0xAF SWAP2 SWAP1 PUSH2 0x1BA JUMP JUMPDEST PUSH1 0x40 MLOAD DUP1 SWAP2 SUB SWAP1 RETURN JUMPDEST PUSH2 0xD2 PUSH1 0x4 DUP1 CALLDATASIZE SUB DUP2 ADD SWAP1 PUSH2 0xCD SWAP2 SWAP1 PUSH2 0x16D JUMP JUMPDEST PUSH2 0x121 JUMP JUMPDEST PUSH1 0x40 MLOAD PUSH2 0xDF SWAP2 SWAP1 PUSH2 0x1BA JUMP JUMPDEST PUSH1 0x40 MLOAD DUP1 SWAP2 SUB SWAP1 RETURN JUMPDEST PUSH0 DUP2 DUP4 ADD DUP1 PUSH0 MSTORE PUSH1 0x20 PUSH0 RETURN JUMPDEST PUSH0 PUSH1 0x5 SWAP1 POP POP JUMP JUMPDEST PUSH0 DUP1 JUMPDEST DUP4 DUP2 LT ISZERO PUSH2 0x118 JUMPI DUP3 PUSH1 0x2 ADD SWAP3 POP PUSH1 0x1 DUP2 ADD SWAP1 POP PUSH2 0xFF JUMP JUMPDEST POP DUP2 PUSH0 MSTORE PUSH1 0x20 PUSH0 RETURN JUMPDEST PUSH0 DUP2 DUP4 PUSH2 0x12E SWAP2 SWAP1 PUSH2 0x200 JUMP JUMPDEST SWAP1 POP SWAP3 SWAP2 POP POP JUMP JUMPDEST PUSH0 DUP1 REVERT JUMPDEST PUSH0 DUP2 SWAP1 POP SWAP2 SWAP1 POP JUMP JUMPDEST PUSH2 0x14C DUP2 PUSH2 0x13A JUMP JUMPDEST DUP2 EQ PUSH2 0x156 JUMPI PUSH0 DUP1 REVERT JUMPDEST POP JUMP JUMPDEST PUSH0 DUP2 CALLDATALOAD SWAP1 POP PUSH2 0x167 DUP2 PUSH2 0x143 JUMP JUMPDEST SWAP3 SWAP2 POP POP JUMP JUMPDEST PUSH0 DUP1 PUSH1 0x40 DUP4 DUP6 SUB SLT ISZERO PUSH2 0x183 JUMPI PUSH2 0x182 PUSH2 0x136 JUMP JUMPDEST JUMPDEST PUSH0 PUSH2 0x190 DUP6 DUP3 DUP7 ADD PUSH2 0x159 JUMP JUMPDEST SWAP3 POP POP PUSH1 0x20 PUSH2 0x1A1 DUP6 DUP3 DUP7 ADD PUSH2 0x159 JUMP JUMPDEST SWAP2 POP POP SWAP3 POP SWAP3 SWAP1 POP JUMP JUMPDEST PUSH2 0x1B4 DUP2 PUSH2 0x13A JUMP JUMPDEST DUP3 MSTORE POP POP JUMP JUMPDEST PUSH0 PUSH1 0x20 DUP3 ADD SWAP1 POP PUSH2 0x1CD PUSH0 DUP4 ADD DUP5 PUSH2 0x1AB JUMP JUMPDEST SWAP3 SWAP2 POP POP JUMP JUMPDEST PUSH32 0x4E487B7100000000000000000000000000000000000000000000000000000000 PUSH0 MSTORE PUSH1 0x11 PUSH1 0x4 MSTORE PUSH1 0x24 PUSH0 REVERT JUMPDEST PUSH0 PUSH2 0x20A DUP3 PUSH2 0x13A JUMP JUMPDEST SWAP2 POP PUSH2 0x215 DUP4 PUSH2 0x13A JUMP JUMPDEST SWAP3 POP DUP3 DUP3 ADD SWAP1 POP DUP1 DUP3 GT ISZERO PUSH2 0x22D JUMPI PUSH2 0x22C PUSH2 0x1D3 JUMP JUMPDEST JUMPDEST SWAP3 SWAP2 POP POP JUMP INVALID LOG2 PUSH5 0x6970667358 0x22 SLT KECCAK256 PUSH8 0xE6C901E6851DF591 LOG4 CREATE2 0xE6 RETURNDATACOPY SWAP6 0xE6 SWAP1 CREATE2 GAS SWAP14 DUP13 0x4D 0xCA 0xB0 LT 0xDE TSTORE 0x2A 0xB7 EXTCODESIZE SWAP8 0xE8 EXP PUSH5 0x736F6C6343 STOP ADDMOD BYTE STOP CALLER "
				},
				"gasEstimates": {
					"creation": {
						"codeDepositCost": "123400",
						"executionCost": "169",
						"totalCost": "123569"
					},
					"external": {
						"addAssembly(uint256,uint256)": "infinite",
						"addSolidity(uint256,uint256)": "infinite",
						"forloop(uint256,uint256)": "infinite",
						"localvar()": "155"
					}
				},
				"methodIdentifiers": {
					"addAssembly(uint256,uint256)": "08bb1114",
					"addSolidity(uint256,uint256)": "de9bad0c",
					"forloop(uint256,uint256)": "945b497a",
					"localvar()": "43b4364a"
				}
			},
			"storageLayout": {
				"storage": [],
				"types": null
			},
			"userdoc": {
				"kind": "user",
				"methods": {},
				"version": 1
			}
		}
	}
}