{
	"homework/经典用例/artifacts/Account.sol": {
		"Account": {
			"abi": [
				{
					"inputs": [],
					"name": "MAX_UINT",
					"outputs": [
						{
							"internalType": "uint256",
							"name": "",
							"type": "uint256"
						}
					],
					"stateMutability": "view",
					"type": "function"
				},
				{
					"inputs": [],
					"name": "balance",
					"outputs": [
						{
							"internalType": "uint256",
							"name": "",
							"type": "uint256"
						}
					],
					"stateMutability": "view",
					"type": "function"
				},
				{
					"inputs": [
						{
							"internalType": "uint256",
							"name": "_amount",
							"type": "uint256"
						}
					],
					"name": "deposit",
					"outputs": [],
					"stateMutability": "nonpayable",
					"type": "function"
				},
				{
					"inputs": [
						{
							"internalType": "uint256",
							"name": "_amount",
							"type": "uint256"
						}
					],
					"name": "withdraw",
					"outputs": [],
					"stateMutability": "nonpayable",
					"type": "function"
				}
			],
			"devdoc": {
				"kind": "dev",
				"methods": {},
				"version": 1
			},
			"evm": {
				"assembly": "    /* \"homework/\\xe7\\xbb\\x8f\\xe5\\x85\\xb8\\xe7\\x94\\xa8\\xe4\\xbe\\x8b/artifacts/Account.sol\":59:726  contract Account{... */\n  mstore(0x40, 0x80)\n  callvalue\n  dup1\n  iszero\n  tag_1\n  jumpi\n  0x00\n  dup1\n  revert\ntag_1:\n  pop\n  dataSize(sub_0)\n  dup1\n  dataOffset(sub_0)\n  0x00\n  codecopy\n  0x00\n  return\nstop\n\nsub_0: assembly {\n        /* \"homework/\\xe7\\xbb\\x8f\\xe5\\x85\\xb8\\xe7\\x94\\xa8\\xe4\\xbe\\x8b/artifacts/Account.sol\":59:726  contract Account{... */\n      mstore(0x40, 0x80)\n      callvalue\n      dup1\n      iszero\n      tag_1\n      jumpi\n      0x00\n      dup1\n      revert\n    tag_1:\n      pop\n      jumpi(tag_2, lt(calldatasize, 0x04))\n      shr(0xe0, calldataload(0x00))\n      dup1\n      0x2e1a7d4d\n      eq\n      tag_3\n      jumpi\n      dup1\n      0xb69ef8a8\n      eq\n      tag_4\n      jumpi\n      dup1\n      0xb6b55f25\n      eq\n      tag_5\n      jumpi\n      dup1\n      0xe5b5019a\n      eq\n      tag_6\n      jumpi\n    tag_2:\n      0x00\n      dup1\n      revert\n        /* \"homework/\\xe7\\xbb\\x8f\\xe5\\x85\\xb8\\xe7\\x94\\xa8\\xe4\\xbe\\x8b/artifacts/Account.sol\":437:721  function withdraw(uint256 _amount) public{... */\n    tag_3:\n      tag_7\n      0x04\n      dup1\n      calldatasize\n      sub\n      dup2\n      add\n      swap1\n      tag_8\n      swap2\n      swap1\n      tag_9\n      jump\t// in\n    tag_8:\n      tag_10\n      jump\t// in\n    tag_7:\n      stop\n        /* \"homework/\\xe7\\xbb\\x8f\\xe5\\x85\\xb8\\xe7\\x94\\xa8\\xe4\\xbe\\x8b/artifacts/Account.sol\":82:104  uint256 public balance */\n    tag_4:\n      tag_11\n      tag_12\n      jump\t// in\n    tag_11:\n      mload(0x40)\n      tag_13\n      swap2\n      swap1\n      tag_14\n      jump\t// in\n    tag_13:\n      mload(0x40)\n      dup1\n      swap2\n      sub\n      swap1\n      return\n        /* \"homework/\\xe7\\xbb\\x8f\\xe5\\x85\\xb8\\xe7\\x94\\xa8\\xe4\\xbe\\x8b/artifacts/Account.sol\":170:429  function deposit(uint256 _amount)public{... */\n    tag_5:\n      tag_15\n      0x04\n      dup1\n      calldatasize\n      sub\n      dup2\n      add\n      swap1\n      tag_16\n      swap2\n      swap1\n      tag_9\n      jump\t// in\n    tag_16:\n      tag_17\n      jump\t// in\n    tag_15:\n      stop\n        /* \"homework/\\xe7\\xbb\\x8f\\xe5\\x85\\xb8\\xe7\\x94\\xa8\\xe4\\xbe\\x8b/artifacts/Account.sol\":113:161  uint256 public constant MAX_UINT = 2 ** 256  - 1 */\n    tag_6:\n      tag_18\n      tag_19\n      jump\t// in\n    tag_18:\n      mload(0x40)\n      tag_20\n      swap2\n      swap1\n      tag_14\n      jump\t// in\n    tag_20:\n      mload(0x40)\n      dup1\n      swap2\n      sub\n      swap1\n      return\n        /* \"homework/\\xe7\\xbb\\x8f\\xe5\\x85\\xb8\\xe7\\x94\\xa8\\xe4\\xbe\\x8b/artifacts/Account.sol\":437:721  function withdraw(uint256 _amount) public{... */\n    tag_10:\n        /* \"homework/\\xe7\\xbb\\x8f\\xe5\\x85\\xb8\\xe7\\x94\\xa8\\xe4\\xbe\\x8b/artifacts/Account.sol\":491:509  uint256 oldBalance */\n      0x00\n        /* \"homework/\\xe7\\xbb\\x8f\\xe5\\x85\\xb8\\xe7\\x94\\xa8\\xe4\\xbe\\x8b/artifacts/Account.sol\":512:519  balance */\n      dup1\n      sload\n        /* \"homework/\\xe7\\xbb\\x8f\\xe5\\x85\\xb8\\xe7\\x94\\xa8\\xe4\\xbe\\x8b/artifacts/Account.sol\":491:519  uint256 oldBalance = balance */\n      swap1\n      pop\n        /* \"homework/\\xe7\\xbb\\x8f\\xe5\\x85\\xb8\\xe7\\x94\\xa8\\xe4\\xbe\\x8b/artifacts/Account.sol\":548:555  _amount */\n      dup2\n        /* \"homework/\\xe7\\xbb\\x8f\\xe5\\x85\\xb8\\xe7\\x94\\xa8\\xe4\\xbe\\x8b/artifacts/Account.sol\":538:545  balance */\n      sload(0x00)\n        /* \"homework/\\xe7\\xbb\\x8f\\xe5\\x85\\xb8\\xe7\\x94\\xa8\\xe4\\xbe\\x8b/artifacts/Account.sol\":538:555  balance > _amount */\n      gt\n        /* \"homework/\\xe7\\xbb\\x8f\\xe5\\x85\\xb8\\xe7\\x94\\xa8\\xe4\\xbe\\x8b/artifacts/Account.sol\":530:569  require(balance > _amount,\"uunderflow\") */\n      tag_22\n      jumpi\n      mload(0x40)\n      0x08c379a000000000000000000000000000000000000000000000000000000000\n      dup2\n      mstore\n      0x04\n      add\n      tag_23\n      swap1\n      tag_24\n      jump\t// in\n    tag_23:\n      mload(0x40)\n      dup1\n      swap2\n      sub\n      swap1\n      revert\n    tag_22:\n        /* \"homework/\\xe7\\xbb\\x8f\\xe5\\x85\\xb8\\xe7\\x94\\xa8\\xe4\\xbe\\x8b/artifacts/Account.sol\":593:600  _amount */\n      dup2\n        /* \"homework/\\xe7\\xbb\\x8f\\xe5\\x85\\xb8\\xe7\\x94\\xa8\\xe4\\xbe\\x8b/artifacts/Account.sol\":583:590  balance */\n      sload(0x00)\n        /* \"homework/\\xe7\\xbb\\x8f\\xe5\\x85\\xb8\\xe7\\x94\\xa8\\xe4\\xbe\\x8b/artifacts/Account.sol\":583:600  balance < _amount */\n      lt\n        /* \"homework/\\xe7\\xbb\\x8f\\xe5\\x85\\xb8\\xe7\\x94\\xa8\\xe4\\xbe\\x8b/artifacts/Account.sol\":580:648  if(balance < _amount){... */\n      iszero\n      tag_25\n      jumpi\n        /* \"homework/\\xe7\\xbb\\x8f\\xe5\\x85\\xb8\\xe7\\x94\\xa8\\xe4\\xbe\\x8b/artifacts/Account.sol\":616:636  revert(\"uunderflow\") */\n      mload(0x40)\n      0x08c379a000000000000000000000000000000000000000000000000000000000\n      dup2\n      mstore\n      0x04\n      add\n      tag_26\n      swap1\n      tag_24\n      jump\t// in\n    tag_26:\n      mload(0x40)\n      dup1\n      swap2\n      sub\n      swap1\n      revert\n        /* \"homework/\\xe7\\xbb\\x8f\\xe5\\x85\\xb8\\xe7\\x94\\xa8\\xe4\\xbe\\x8b/artifacts/Account.sol\":580:648  if(balance < _amount){... */\n    tag_25:\n        /* \"homework/\\xe7\\xbb\\x8f\\xe5\\x85\\xb8\\xe7\\x94\\xa8\\xe4\\xbe\\x8b/artifacts/Account.sol\":671:678  _amount */\n      dup2\n        /* \"homework/\\xe7\\xbb\\x8f\\xe5\\x85\\xb8\\xe7\\x94\\xa8\\xe4\\xbe\\x8b/artifacts/Account.sol\":660:667  balance */\n      0x00\n      dup1\n        /* \"homework/\\xe7\\xbb\\x8f\\xe5\\x85\\xb8\\xe7\\x94\\xa8\\xe4\\xbe\\x8b/artifacts/Account.sol\":660:678  balance -= _amount */\n      dup3\n      dup3\n      sload\n      tag_27\n      swap2\n      swap1\n      tag_28\n      jump\t// in\n    tag_27:\n      swap3\n      pop\n      pop\n      dup2\n      swap1\n      sstore\n      pop\n        /* \"homework/\\xe7\\xbb\\x8f\\xe5\\x85\\xb8\\xe7\\x94\\xa8\\xe4\\xbe\\x8b/artifacts/Account.sol\":705:712  _amount */\n      dup2\n        /* \"homework/\\xe7\\xbb\\x8f\\xe5\\x85\\xb8\\xe7\\x94\\xa8\\xe4\\xbe\\x8b/artifacts/Account.sol\":696:703  balance */\n      sload(0x00)\n        /* \"homework/\\xe7\\xbb\\x8f\\xe5\\x85\\xb8\\xe7\\x94\\xa8\\xe4\\xbe\\x8b/artifacts/Account.sol\":696:712  balance<=_amount */\n      gt\n      iszero\n        /* \"homework/\\xe7\\xbb\\x8f\\xe5\\x85\\xb8\\xe7\\x94\\xa8\\xe4\\xbe\\x8b/artifacts/Account.sol\":689:713  assert(balance<=_amount) */\n      tag_29\n      jumpi\n      tag_30\n      tag_31\n      jump\t// in\n    tag_30:\n    tag_29:\n        /* \"homework/\\xe7\\xbb\\x8f\\xe5\\x85\\xb8\\xe7\\x94\\xa8\\xe4\\xbe\\x8b/artifacts/Account.sol\":478:721  {... */\n      pop\n        /* \"homework/\\xe7\\xbb\\x8f\\xe5\\x85\\xb8\\xe7\\x94\\xa8\\xe4\\xbe\\x8b/artifacts/Account.sol\":437:721  function withdraw(uint256 _amount) public{... */\n      pop\n      jump\t// out\n        /* \"homework/\\xe7\\xbb\\x8f\\xe5\\x85\\xb8\\xe7\\x94\\xa8\\xe4\\xbe\\x8b/artifacts/Account.sol\":82:104  uint256 public balance */\n    tag_12:\n      sload(0x00)\n      dup2\n      jump\t// out\n        /* \"homework/\\xe7\\xbb\\x8f\\xe5\\x85\\xb8\\xe7\\x94\\xa8\\xe4\\xbe\\x8b/artifacts/Account.sol\":170:429  function deposit(uint256 _amount)public{... */\n    tag_17:\n        /* \"homework/\\xe7\\xbb\\x8f\\xe5\\x85\\xb8\\xe7\\x94\\xa8\\xe4\\xbe\\x8b/artifacts/Account.sol\":220:238  uint256 oldBalance */\n      0x00\n        /* \"homework/\\xe7\\xbb\\x8f\\xe5\\x85\\xb8\\xe7\\x94\\xa8\\xe4\\xbe\\x8b/artifacts/Account.sol\":241:248  balance */\n      dup1\n      sload\n        /* \"homework/\\xe7\\xbb\\x8f\\xe5\\x85\\xb8\\xe7\\x94\\xa8\\xe4\\xbe\\x8b/artifacts/Account.sol\":220:248  uint256 oldBalance = balance */\n      swap1\n      pop\n        /* \"homework/\\xe7\\xbb\\x8f\\xe5\\x85\\xb8\\xe7\\x94\\xa8\\xe4\\xbe\\x8b/artifacts/Account.sol\":259:277  uint256 newBalance */\n      0x00\n        /* \"homework/\\xe7\\xbb\\x8f\\xe5\\x85\\xb8\\xe7\\x94\\xa8\\xe4\\xbe\\x8b/artifacts/Account.sol\":290:297  _amount */\n      dup3\n        /* \"homework/\\xe7\\xbb\\x8f\\xe5\\x85\\xb8\\xe7\\x94\\xa8\\xe4\\xbe\\x8b/artifacts/Account.sol\":280:287  balance */\n      sload(0x00)\n        /* \"homework/\\xe7\\xbb\\x8f\\xe5\\x85\\xb8\\xe7\\x94\\xa8\\xe4\\xbe\\x8b/artifacts/Account.sol\":280:297  balance + _amount */\n      tag_33\n      swap2\n      swap1\n      tag_34\n      jump\t// in\n    tag_33:\n        /* \"homework/\\xe7\\xbb\\x8f\\xe5\\x85\\xb8\\xe7\\x94\\xa8\\xe4\\xbe\\x8b/artifacts/Account.sol\":259:297  uint256 newBalance = balance + _amount */\n      swap1\n      pop\n        /* \"homework/\\xe7\\xbb\\x8f\\xe5\\x85\\xb8\\xe7\\x94\\xa8\\xe4\\xbe\\x8b/artifacts/Account.sol\":329:339  oldBalance */\n      dup2\n        /* \"homework/\\xe7\\xbb\\x8f\\xe5\\x85\\xb8\\xe7\\x94\\xa8\\xe4\\xbe\\x8b/artifacts/Account.sol\":316:326  newBalance */\n      dup2\n        /* \"homework/\\xe7\\xbb\\x8f\\xe5\\x85\\xb8\\xe7\\x94\\xa8\\xe4\\xbe\\x8b/artifacts/Account.sol\":316:339  newBalance > oldBalance */\n      gt\n        /* \"homework/\\xe7\\xbb\\x8f\\xe5\\x85\\xb8\\xe7\\x94\\xa8\\xe4\\xbe\\x8b/artifacts/Account.sol\":308:351  require(newBalance > oldBalance,\"overflow\") */\n      tag_35\n      jumpi\n      mload(0x40)\n      0x08c379a000000000000000000000000000000000000000000000000000000000\n      dup2\n      mstore\n      0x04\n      add\n      tag_36\n      swap1\n      tag_37\n      jump\t// in\n    tag_36:\n      mload(0x40)\n      dup1\n      swap2\n      sub\n      swap1\n      revert\n    tag_35:\n        /* \"homework/\\xe7\\xbb\\x8f\\xe5\\x85\\xb8\\xe7\\x94\\xa8\\xe4\\xbe\\x8b/artifacts/Account.sol\":372:382  newBalance */\n      dup1\n        /* \"homework/\\xe7\\xbb\\x8f\\xe5\\x85\\xb8\\xe7\\x94\\xa8\\xe4\\xbe\\x8b/artifacts/Account.sol\":362:369  balance */\n      0x00\n        /* \"homework/\\xe7\\xbb\\x8f\\xe5\\x85\\xb8\\xe7\\x94\\xa8\\xe4\\xbe\\x8b/artifacts/Account.sol\":362:382  balance = newBalance */\n      dup2\n      swap1\n      sstore\n      pop\n        /* \"homework/\\xe7\\xbb\\x8f\\xe5\\x85\\xb8\\xe7\\x94\\xa8\\xe4\\xbe\\x8b/artifacts/Account.sol\":410:420  oldBalance */\n      dup2\n        /* \"homework/\\xe7\\xbb\\x8f\\xe5\\x85\\xb8\\xe7\\x94\\xa8\\xe4\\xbe\\x8b/artifacts/Account.sol\":400:407  balance */\n      sload(0x00)\n        /* \"homework/\\xe7\\xbb\\x8f\\xe5\\x85\\xb8\\xe7\\x94\\xa8\\xe4\\xbe\\x8b/artifacts/Account.sol\":400:420  balance > oldBalance */\n      gt\n        /* \"homework/\\xe7\\xbb\\x8f\\xe5\\x85\\xb8\\xe7\\x94\\xa8\\xe4\\xbe\\x8b/artifacts/Account.sol\":393:421  assert(balance > oldBalance) */\n      tag_38\n      jumpi\n      tag_39\n      tag_31\n      jump\t// in\n    tag_39:\n    tag_38:\n        /* \"homework/\\xe7\\xbb\\x8f\\xe5\\x85\\xb8\\xe7\\x94\\xa8\\xe4\\xbe\\x8b/artifacts/Account.sol\":209:429  {... */\n      pop\n      pop\n        /* \"homework/\\xe7\\xbb\\x8f\\xe5\\x85\\xb8\\xe7\\x94\\xa8\\xe4\\xbe\\x8b/artifacts/Account.sol\":170:429  function deposit(uint256 _amount)public{... */\n      pop\n      jump\t// out\n        /* \"homework/\\xe7\\xbb\\x8f\\xe5\\x85\\xb8\\xe7\\x94\\xa8\\xe4\\xbe\\x8b/artifacts/Account.sol\":113:161  uint256 public constant MAX_UINT = 2 ** 256  - 1 */\n    tag_19:\n        /* \"homework/\\xe7\\xbb\\x8f\\xe5\\x85\\xb8\\xe7\\x94\\xa8\\xe4\\xbe\\x8b/artifacts/Account.sol\":148:161  2 ** 256  - 1 */\n      0xffffffffffffffffffffffffffffffffffffffffffffffffffffffffffffffff\n        /* \"homework/\\xe7\\xbb\\x8f\\xe5\\x85\\xb8\\xe7\\x94\\xa8\\xe4\\xbe\\x8b/artifacts/Account.sol\":113:161  uint256 public constant MAX_UINT = 2 ** 256  - 1 */\n      dup2\n      jump\t// out\n        /* \"#utility.yul\":88:205   */\n    tag_41:\n        /* \"#utility.yul\":197:198   */\n      0x00\n        /* \"#utility.yul\":194:195   */\n      dup1\n        /* \"#utility.yul\":187:199   */\n      revert\n        /* \"#utility.yul\":334:411   */\n    tag_43:\n        /* \"#utility.yul\":371:378   */\n      0x00\n        /* \"#utility.yul\":400:405   */\n      dup2\n        /* \"#utility.yul\":389:405   */\n      swap1\n      pop\n        /* \"#utility.yul\":334:411   */\n      swap2\n      swap1\n      pop\n      jump\t// out\n        /* \"#utility.yul\":417:539   */\n    tag_44:\n        /* \"#utility.yul\":490:514   */\n      tag_59\n        /* \"#utility.yul\":508:513   */\n      dup2\n        /* \"#utility.yul\":490:514   */\n      tag_43\n      jump\t// in\n    tag_59:\n        /* \"#utility.yul\":483:488   */\n      dup2\n        /* \"#utility.yul\":480:515   */\n      eq\n        /* \"#utility.yul\":470:533   */\n      tag_60\n      jumpi\n        /* \"#utility.yul\":529:530   */\n      0x00\n        /* \"#utility.yul\":526:527   */\n      dup1\n        /* \"#utility.yul\":519:531   */\n      revert\n        /* \"#utility.yul\":470:533   */\n    tag_60:\n        /* \"#utility.yul\":417:539   */\n      pop\n      jump\t// out\n        /* \"#utility.yul\":545:684   */\n    tag_45:\n        /* \"#utility.yul\":591:596   */\n      0x00\n        /* \"#utility.yul\":629:635   */\n      dup2\n        /* \"#utility.yul\":616:636   */\n      calldataload\n        /* \"#utility.yul\":607:636   */\n      swap1\n      pop\n        /* \"#utility.yul\":645:678   */\n      tag_62\n        /* \"#utility.yul\":672:677   */\n      dup2\n        /* \"#utility.yul\":645:678   */\n      tag_44\n      jump\t// in\n    tag_62:\n        /* \"#utility.yul\":545:684   */\n      swap3\n      swap2\n      pop\n      pop\n      jump\t// out\n        /* \"#utility.yul\":690:1019   */\n    tag_9:\n        /* \"#utility.yul\":749:755   */\n      0x00\n        /* \"#utility.yul\":798:800   */\n      0x20\n        /* \"#utility.yul\":786:795   */\n      dup3\n        /* \"#utility.yul\":777:784   */\n      dup5\n        /* \"#utility.yul\":773:796   */\n      sub\n        /* \"#utility.yul\":769:801   */\n      slt\n        /* \"#utility.yul\":766:885   */\n      iszero\n      tag_64\n      jumpi\n        /* \"#utility.yul\":804:883   */\n      tag_65\n      tag_41\n      jump\t// in\n    tag_65:\n        /* \"#utility.yul\":766:885   */\n    tag_64:\n        /* \"#utility.yul\":924:925   */\n      0x00\n        /* \"#utility.yul\":949:1002   */\n      tag_66\n        /* \"#utility.yul\":994:1001   */\n      dup5\n        /* \"#utility.yul\":985:991   */\n      dup3\n        /* \"#utility.yul\":974:983   */\n      dup6\n        /* \"#utility.yul\":970:992   */\n      add\n        /* \"#utility.yul\":949:1002   */\n      tag_45\n      jump\t// in\n    tag_66:\n        /* \"#utility.yul\":939:1002   */\n      swap2\n      pop\n        /* \"#utility.yul\":895:1012   */\n      pop\n        /* \"#utility.yul\":690:1019   */\n      swap3\n      swap2\n      pop\n      pop\n      jump\t// out\n        /* \"#utility.yul\":1025:1143   */\n    tag_46:\n        /* \"#utility.yul\":1112:1136   */\n      tag_68\n        /* \"#utility.yul\":1130:1135   */\n      dup2\n        /* \"#utility.yul\":1112:1136   */\n      tag_43\n      jump\t// in\n    tag_68:\n        /* \"#utility.yul\":1107:1110   */\n      dup3\n        /* \"#utility.yul\":1100:1137   */\n      mstore\n        /* \"#utility.yul\":1025:1143   */\n      pop\n      pop\n      jump\t// out\n        /* \"#utility.yul\":1149:1371   */\n    tag_14:\n        /* \"#utility.yul\":1242:1246   */\n      0x00\n        /* \"#utility.yul\":1280:1282   */\n      0x20\n        /* \"#utility.yul\":1269:1278   */\n      dup3\n        /* \"#utility.yul\":1265:1283   */\n      add\n        /* \"#utility.yul\":1257:1283   */\n      swap1\n      pop\n        /* \"#utility.yul\":1293:1364   */\n      tag_70\n        /* \"#utility.yul\":1361:1362   */\n      0x00\n        /* \"#utility.yul\":1350:1359   */\n      dup4\n        /* \"#utility.yul\":1346:1363   */\n      add\n        /* \"#utility.yul\":1337:1343   */\n      dup5\n        /* \"#utility.yul\":1293:1364   */\n      tag_46\n      jump\t// in\n    tag_70:\n        /* \"#utility.yul\":1149:1371   */\n      swap3\n      swap2\n      pop\n      pop\n      jump\t// out\n        /* \"#utility.yul\":1377:1546   */\n    tag_47:\n        /* \"#utility.yul\":1461:1472   */\n      0x00\n        /* \"#utility.yul\":1495:1501   */\n      dup3\n        /* \"#utility.yul\":1490:1493   */\n      dup3\n        /* \"#utility.yul\":1483:1502   */\n      mstore\n        /* \"#utility.yul\":1535:1539   */\n      0x20\n        /* \"#utility.yul\":1530:1533   */\n      dup3\n        /* \"#utility.yul\":1526:1540   */\n      add\n        /* \"#utility.yul\":1511:1540   */\n      swap1\n      pop\n        /* \"#utility.yul\":1377:1546   */\n      swap3\n      swap2\n      pop\n      pop\n      jump\t// out\n        /* \"#utility.yul\":1552:1712   */\n    tag_48:\n        /* \"#utility.yul\":1692:1704   */\n      0x75756e646572666c6f7700000000000000000000000000000000000000000000\n        /* \"#utility.yul\":1688:1689   */\n      0x00\n        /* \"#utility.yul\":1680:1686   */\n      dup3\n        /* \"#utility.yul\":1676:1690   */\n      add\n        /* \"#utility.yul\":1669:1705   */\n      mstore\n        /* \"#utility.yul\":1552:1712   */\n      pop\n      jump\t// out\n        /* \"#utility.yul\":1718:2084   */\n    tag_49:\n        /* \"#utility.yul\":1860:1863   */\n      0x00\n        /* \"#utility.yul\":1881:1948   */\n      tag_74\n        /* \"#utility.yul\":1945:1947   */\n      0x0a\n        /* \"#utility.yul\":1940:1943   */\n      dup4\n        /* \"#utility.yul\":1881:1948   */\n      tag_47\n      jump\t// in\n    tag_74:\n        /* \"#utility.yul\":1874:1948   */\n      swap2\n      pop\n        /* \"#utility.yul\":1957:2050   */\n      tag_75\n        /* \"#utility.yul\":2046:2049   */\n      dup3\n        /* \"#utility.yul\":1957:2050   */\n      tag_48\n      jump\t// in\n    tag_75:\n        /* \"#utility.yul\":2075:2077   */\n      0x20\n        /* \"#utility.yul\":2070:2073   */\n      dup3\n        /* \"#utility.yul\":2066:2078   */\n      add\n        /* \"#utility.yul\":2059:2078   */\n      swap1\n      pop\n        /* \"#utility.yul\":1718:2084   */\n      swap2\n      swap1\n      pop\n      jump\t// out\n        /* \"#utility.yul\":2090:2509   */\n    tag_24:\n        /* \"#utility.yul\":2256:2260   */\n      0x00\n        /* \"#utility.yul\":2294:2296   */\n      0x20\n        /* \"#utility.yul\":2283:2292   */\n      dup3\n        /* \"#utility.yul\":2279:2297   */\n      add\n        /* \"#utility.yul\":2271:2297   */\n      swap1\n      pop\n        /* \"#utility.yul\":2343:2352   */\n      dup2\n        /* \"#utility.yul\":2337:2341   */\n      dup2\n        /* \"#utility.yul\":2333:2353   */\n      sub\n        /* \"#utility.yul\":2329:2330   */\n      0x00\n        /* \"#utility.yul\":2318:2327   */\n      dup4\n        /* \"#utility.yul\":2314:2331   */\n      add\n        /* \"#utility.yul\":2307:2354   */\n      mstore\n        /* \"#utility.yul\":2371:2502   */\n      tag_77\n        /* \"#utility.yul\":2497:2501   */\n      dup2\n        /* \"#utility.yul\":2371:2502   */\n      tag_49\n      jump\t// in\n    tag_77:\n        /* \"#utility.yul\":2363:2502   */\n      swap1\n      pop\n        /* \"#utility.yul\":2090:2509   */\n      swap2\n      swap1\n      pop\n      jump\t// out\n        /* \"#utility.yul\":2515:2695   */\n    tag_50:\n        /* \"#utility.yul\":2563:2640   */\n      0x4e487b7100000000000000000000000000000000000000000000000000000000\n        /* \"#utility.yul\":2560:2561   */\n      0x00\n        /* \"#utility.yul\":2553:2641   */\n      mstore\n        /* \"#utility.yul\":2660:2664   */\n      0x11\n        /* \"#utility.yul\":2657:2658   */\n      0x04\n        /* \"#utility.yul\":2650:2665   */\n      mstore\n        /* \"#utility.yul\":2684:2688   */\n      0x24\n        /* \"#utility.yul\":2681:2682   */\n      0x00\n        /* \"#utility.yul\":2674:2689   */\n      revert\n        /* \"#utility.yul\":2701:2895   */\n    tag_28:\n        /* \"#utility.yul\":2741:2745   */\n      0x00\n        /* \"#utility.yul\":2761:2781   */\n      tag_80\n        /* \"#utility.yul\":2779:2780   */\n      dup3\n        /* \"#utility.yul\":2761:2781   */\n      tag_43\n      jump\t// in\n    tag_80:\n        /* \"#utility.yul\":2756:2781   */\n      swap2\n      pop\n        /* \"#utility.yul\":2795:2815   */\n      tag_81\n        /* \"#utility.yul\":2813:2814   */\n      dup4\n        /* \"#utility.yul\":2795:2815   */\n      tag_43\n      jump\t// in\n    tag_81:\n        /* \"#utility.yul\":2790:2815   */\n      swap3\n      pop\n        /* \"#utility.yul\":2839:2840   */\n      dup3\n        /* \"#utility.yul\":2836:2837   */\n      dup3\n        /* \"#utility.yul\":2832:2841   */\n      sub\n        /* \"#utility.yul\":2824:2841   */\n      swap1\n      pop\n        /* \"#utility.yul\":2863:2864   */\n      dup2\n        /* \"#utility.yul\":2857:2861   */\n      dup2\n        /* \"#utility.yul\":2854:2865   */\n      gt\n        /* \"#utility.yul\":2851:2888   */\n      iszero\n      tag_82\n      jumpi\n        /* \"#utility.yul\":2868:2886   */\n      tag_83\n      tag_50\n      jump\t// in\n    tag_83:\n        /* \"#utility.yul\":2851:2888   */\n    tag_82:\n        /* \"#utility.yul\":2701:2895   */\n      swap3\n      swap2\n      pop\n      pop\n      jump\t// out\n        /* \"#utility.yul\":2901:3081   */\n    tag_31:\n        /* \"#utility.yul\":2949:3026   */\n      0x4e487b7100000000000000000000000000000000000000000000000000000000\n        /* \"#utility.yul\":2946:2947   */\n      0x00\n        /* \"#utility.yul\":2939:3027   */\n      mstore\n        /* \"#utility.yul\":3046:3050   */\n      0x01\n        /* \"#utility.yul\":3043:3044   */\n      0x04\n        /* \"#utility.yul\":3036:3051   */\n      mstore\n        /* \"#utility.yul\":3070:3074   */\n      0x24\n        /* \"#utility.yul\":3067:3068   */\n      0x00\n        /* \"#utility.yul\":3060:3075   */\n      revert\n        /* \"#utility.yul\":3087:3278   */\n    tag_34:\n        /* \"#utility.yul\":3127:3130   */\n      0x00\n        /* \"#utility.yul\":3146:3166   */\n      tag_86\n        /* \"#utility.yul\":3164:3165   */\n      dup3\n        /* \"#utility.yul\":3146:3166   */\n      tag_43\n      jump\t// in\n    tag_86:\n        /* \"#utility.yul\":3141:3166   */\n      swap2\n      pop\n        /* \"#utility.yul\":3180:3200   */\n      tag_87\n        /* \"#utility.yul\":3198:3199   */\n      dup4\n        /* \"#utility.yul\":3180:3200   */\n      tag_43\n      jump\t// in\n    tag_87:\n        /* \"#utility.yul\":3175:3200   */\n      swap3\n      pop\n        /* \"#utility.yul\":3223:3224   */\n      dup3\n        /* \"#utility.yul\":3220:3221   */\n      dup3\n        /* \"#utility.yul\":3216:3225   */\n      add\n        /* \"#utility.yul\":3209:3225   */\n      swap1\n      pop\n        /* \"#utility.yul\":3244:3247   */\n      dup1\n        /* \"#utility.yul\":3241:3242   */\n      dup3\n        /* \"#utility.yul\":3238:3248   */\n      gt\n        /* \"#utility.yul\":3235:3271   */\n      iszero\n      tag_88\n      jumpi\n        /* \"#utility.yul\":3251:3269   */\n      tag_89\n      tag_50\n      jump\t// in\n    tag_89:\n        /* \"#utility.yul\":3235:3271   */\n    tag_88:\n        /* \"#utility.yul\":3087:3278   */\n      swap3\n      swap2\n      pop\n      pop\n      jump\t// out\n        /* \"#utility.yul\":3284:3442   */\n    tag_51:\n        /* \"#utility.yul\":3424:3434   */\n      0x6f766572666c6f77000000000000000000000000000000000000000000000000\n        /* \"#utility.yul\":3420:3421   */\n      0x00\n        /* \"#utility.yul\":3412:3418   */\n      dup3\n        /* \"#utility.yul\":3408:3422   */\n      add\n        /* \"#utility.yul\":3401:3435   */\n      mstore\n        /* \"#utility.yul\":3284:3442   */\n      pop\n      jump\t// out\n        /* \"#utility.yul\":3448:3813   */\n    tag_52:\n        /* \"#utility.yul\":3590:3593   */\n      0x00\n        /* \"#utility.yul\":3611:3677   */\n      tag_92\n        /* \"#utility.yul\":3675:3676   */\n      0x08\n        /* \"#utility.yul\":3670:3673   */\n      dup4\n        /* \"#utility.yul\":3611:3677   */\n      tag_47\n      jump\t// in\n    tag_92:\n        /* \"#utility.yul\":3604:3677   */\n      swap2\n      pop\n        /* \"#utility.yul\":3686:3779   */\n      tag_93\n        /* \"#utility.yul\":3775:3778   */\n      dup3\n        /* \"#utility.yul\":3686:3779   */\n      tag_51\n      jump\t// in\n    tag_93:\n        /* \"#utility.yul\":3804:3806   */\n      0x20\n        /* \"#utility.yul\":3799:3802   */\n      dup3\n        /* \"#utility.yul\":3795:3807   */\n      add\n        /* \"#utility.yul\":3788:3807   */\n      swap1\n      pop\n        /* \"#utility.yul\":3448:3813   */\n      swap2\n      swap1\n      pop\n      jump\t// out\n        /* \"#utility.yul\":3819:4238   */\n    tag_37:\n        /* \"#utility.yul\":3985:3989   */\n      0x00\n        /* \"#utility.yul\":4023:4025   */\n      0x20\n        /* \"#utility.yul\":4012:4021   */\n      dup3\n        /* \"#utility.yul\":4008:4026   */\n      add\n        /* \"#utility.yul\":4000:4026   */\n      swap1\n      pop\n        /* \"#utility.yul\":4072:4081   */\n      dup2\n        /* \"#utility.yul\":4066:4070   */\n      dup2\n        /* \"#utility.yul\":4062:4082   */\n      sub\n        /* \"#utility.yul\":4058:4059   */\n      0x00\n        /* \"#utility.yul\":4047:4056   */\n      dup4\n        /* \"#utility.yul\":4043:4060   */\n      add\n        /* \"#utility.yul\":4036:4083   */\n      mstore\n        /* \"#utility.yul\":4100:4231   */\n      tag_95\n        /* \"#utility.yul\":4226:4230   */\n      dup2\n        /* \"#utility.yul\":4100:4231   */\n      tag_52\n      jump\t// in\n    tag_95:\n        /* \"#utility.yul\":4092:4231   */\n      swap1\n      pop\n        /* \"#utility.yul\":3819:4238   */\n      swap2\n      swap1\n      pop\n      jump\t// out\n\n    auxdata: 0xa26469706673582212209829a8cdc3d301d9a0abc70571515f9eaf84dd56aae6e135b0a17a87debc518e64736f6c634300081a0033\n}\n",
				"bytecode": {
					"linkReferences": {},
					"object": "6080604052348015600e575f80fd5b506104778061001c5f395ff3fe608060405234801561000f575f80fd5b506004361061004a575f3560e01c80632e1a7d4d1461004e578063b69ef8a81461006a578063b6b55f2514610088578063e5b5019a146100a4575b5f80fd5b6100686004803603810190610063919061024e565b6100c2565b005b61007261017b565b60405161007f9190610288565b60405180910390f35b6100a2600480360381019061009d919061024e565b610180565b005b6100ac6101f3565b6040516100b99190610288565b60405180910390f35b5f80549050815f541161010a576040517f08c379a0000000000000000000000000000000000000000000000000000000008152600401610101906102fb565b60405180910390fd5b815f54101561014e576040517f08c379a0000000000000000000000000000000000000000000000000000000008152600401610145906102fb565b60405180910390fd5b815f8082825461015e9190610346565b92505081905550815f54111561017757610176610379565b5b5050565b5f5481565b5f805490505f825f5461019391906103a6565b90508181116101d7576040517f08c379a00000000000000000000000000000000000000000000000000000000081526004016101ce90610423565b60405180910390fd5b805f81905550815f54116101ee576101ed610379565b5b505050565b7fffffffffffffffffffffffffffffffffffffffffffffffffffffffffffffffff81565b5f80fd5b5f819050919050565b61022d8161021b565b8114610237575f80fd5b50565b5f8135905061024881610224565b92915050565b5f6020828403121561026357610262610217565b5b5f6102708482850161023a565b91505092915050565b6102828161021b565b82525050565b5f60208201905061029b5f830184610279565b92915050565b5f82825260208201905092915050565b7f75756e646572666c6f77000000000000000000000000000000000000000000005f82015250565b5f6102e5600a836102a1565b91506102f0826102b1565b602082019050919050565b5f6020820190508181035f830152610312816102d9565b9050919050565b7f4e487b71000000000000000000000000000000000000000000000000000000005f52601160045260245ffd5b5f6103508261021b565b915061035b8361021b565b925082820390508181111561037357610372610319565b5b92915050565b7f4e487b71000000000000000000000000000000000000000000000000000000005f52600160045260245ffd5b5f6103b08261021b565b91506103bb8361021b565b92508282019050808211156103d3576103d2610319565b5b92915050565b7f6f766572666c6f770000000000000000000000000000000000000000000000005f82015250565b5f61040d6008836102a1565b9150610418826103d9565b602082019050919050565b5f6020820190508181035f83015261043a81610401565b905091905056fea26469706673582212209829a8cdc3d301d9a0abc70571515f9eaf84dd56aae6e135b0a17a87debc518e64736f6c634300081a0033",
					"opcodes": "PUSH1 0x80 PUSH1 0x40 MSTORE CALLVALUE DUP1 ISZERO PUSH1 0xE JUMPI PUSH0 DUP1 REVERT JUMPDEST POP PUSH2 0x477 DUP1 PUSH2 0x1C PUSH0 CODECOPY PUSH0 RETURN INVALID PUSH1 0x80 PUSH1 0x40 MSTORE CALLVALUE DUP1 ISZERO PUSH2 0xF JUMPI PUSH0 DUP1 REVERT JUMPDEST POP PUSH1 0x4 CALLDATASIZE LT PUSH2 0x4A JUMPI PUSH0 CALLDATALOAD PUSH1 0xE0 SHR DUP1 PUSH4 0x2E1A7D4D EQ PUSH2 0x4E JUMPI DUP1 PUSH4 0xB69EF8A8 EQ PUSH2 0x6A JUMPI DUP1 PUSH4 0xB6B55F25 EQ PUSH2 0x88 JUMPI DUP1 PUSH4 0xE5B5019A EQ PUSH2 0xA4 JUMPI JUMPDEST PUSH0 DUP1 REVERT JUMPDEST PUSH2 0x68 PUSH1 0x4 DUP1 CALLDATASIZE SUB DUP2 ADD SWAP1 PUSH2 0x63 SWAP2 SWAP1 PUSH2 0x24E JUMP JUMPDEST PUSH2 0xC2 JUMP JUMPDEST STOP JUMPDEST PUSH2 0x72 PUSH2 0x17B JUMP JUMPDEST PUSH1 0x40 MLOAD PUSH2 0x7F SWAP2 SWAP1 PUSH2 0x288 JUMP JUMPDEST PUSH1 0x40 MLOAD DUP1 SWAP2 SUB SWAP1 RETURN JUMPDEST PUSH2 0xA2 PUSH1 0x4 DUP1 CALLDATASIZE SUB DUP2 ADD SWAP1 PUSH2 0x9D SWAP2 SWAP1 PUSH2 0x24E JUMP JUMPDEST PUSH2 0x180 JUMP JUMPDEST STOP JUMPDEST PUSH2 0xAC PUSH2 0x1F3 JUMP JUMPDEST PUSH1 0x40 MLOAD PUSH2 0xB9 SWAP2 SWAP1 PUSH2 0x288 JUMP JUMPDEST PUSH1 0x40 MLOAD DUP1 SWAP2 SUB SWAP1 RETURN JUMPDEST PUSH0 DUP1 SLOAD SWAP1 POP DUP2 PUSH0 SLOAD GT PUSH2 0x10A JUMPI PUSH1 0x40 MLOAD PUSH32 0x8C379A000000000000000000000000000000000000000000000000000000000 DUP2 MSTORE PUSH1 0x4 ADD PUSH2 0x101 SWAP1 PUSH2 0x2FB JUMP JUMPDEST PUSH1 0x40 MLOAD DUP1 SWAP2 SUB SWAP1 REVERT JUMPDEST DUP2 PUSH0 SLOAD LT ISZERO PUSH2 0x14E JUMPI PUSH1 0x40 MLOAD PUSH32 0x8C379A000000000000000000000000000000000000000000000000000000000 DUP2 MSTORE PUSH1 0x4 ADD PUSH2 0x145 SWAP1 PUSH2 0x2FB JUMP JUMPDEST PUSH1 0x40 MLOAD DUP1 SWAP2 SUB SWAP1 REVERT JUMPDEST DUP2 PUSH0 DUP1 DUP3 DUP3 SLOAD PUSH2 0x15E SWAP2 SWAP1 PUSH2 0x346 JUMP JUMPDEST SWAP3 POP POP DUP2 SWAP1 SSTORE POP DUP2 PUSH0 SLOAD GT ISZERO PUSH2 0x177 JUMPI PUSH2 0x176 PUSH2 0x379 JUMP JUMPDEST JUMPDEST POP POP JUMP JUMPDEST PUSH0 SLOAD DUP2 JUMP JUMPDEST PUSH0 DUP1 SLOAD SWAP1 POP PUSH0 DUP3 PUSH0 SLOAD PUSH2 0x193 SWAP2 SWAP1 PUSH2 0x3A6 JUMP JUMPDEST SWAP1 POP DUP2 DUP2 GT PUSH2 0x1D7 JUMPI PUSH1 0x40 MLOAD PUSH32 0x8C379A000000000000000000000000000000000000000000000000000000000 DUP2 MSTORE PUSH1 0x4 ADD PUSH2 0x1CE SWAP1 PUSH2 0x423 JUMP JUMPDEST PUSH1 0x40 MLOAD DUP1 SWAP2 SUB SWAP1 REVERT JUMPDEST DUP1 PUSH0 DUP2 SWAP1 SSTORE POP DUP2 PUSH0 SLOAD GT PUSH2 0x1EE JUMPI PUSH2 0x1ED PUSH2 0x379 JUMP JUMPDEST JUMPDEST POP POP POP JUMP JUMPDEST PUSH32 0xFFFFFFFFFFFFFFFFFFFFFFFFFFFFFFFFFFFFFFFFFFFFFFFFFFFFFFFFFFFFFFFF DUP2 JUMP JUMPDEST PUSH0 DUP1 REVERT JUMPDEST PUSH0 DUP2 SWAP1 POP SWAP2 SWAP1 POP JUMP JUMPDEST PUSH2 0x22D DUP2 PUSH2 0x21B JUMP JUMPDEST DUP2 EQ PUSH2 0x237 JUMPI PUSH0 DUP1 REVERT JUMPDEST POP JUMP JUMPDEST PUSH0 DUP2 CALLDATALOAD SWAP1 POP PUSH2 0x248 DUP2 PUSH2 0x224 JUMP JUMPDEST SWAP3 SWAP2 POP POP JUMP JUMPDEST PUSH0 PUSH1 0x20 DUP3 DUP5 SUB SLT ISZERO PUSH2 0x263 JUMPI PUSH2 0x262 PUSH2 0x217 JUMP JUMPDEST JUMPDEST PUSH0 PUSH2 0x270 DUP5 DUP3 DUP6 ADD PUSH2 0x23A JUMP JUMPDEST SWAP2 POP POP SWAP3 SWAP2 POP POP JUMP JUMPDEST PUSH2 0x282 DUP2 PUSH2 0x21B JUMP JUMPDEST DUP3 MSTORE POP POP JUMP JUMPDEST PUSH0 PUSH1 0x20 DUP3 ADD SWAP1 POP PUSH2 0x29B PUSH0 DUP4 ADD DUP5 PUSH2 0x279 JUMP JUMPDEST SWAP3 SWAP2 POP POP JUMP JUMPDEST PUSH0 DUP3 DUP3 MSTORE PUSH1 0x20 DUP3 ADD SWAP1 POP SWAP3 SWAP2 POP POP JUMP JUMPDEST PUSH32 0x75756E646572666C6F7700000000000000000000000000000000000000000000 PUSH0 DUP3 ADD MSTORE POP JUMP JUMPDEST PUSH0 PUSH2 0x2E5 PUSH1 0xA DUP4 PUSH2 0x2A1 JUMP JUMPDEST SWAP2 POP PUSH2 0x2F0 DUP3 PUSH2 0x2B1 JUMP JUMPDEST PUSH1 0x20 DUP3 ADD SWAP1 POP SWAP2 SWAP1 POP JUMP JUMPDEST PUSH0 PUSH1 0x20 DUP3 ADD SWAP1 POP DUP2 DUP2 SUB PUSH0 DUP4 ADD MSTORE PUSH2 0x312 DUP2 PUSH2 0x2D9 JUMP JUMPDEST SWAP1 POP SWAP2 SWAP1 POP JUMP JUMPDEST PUSH32 0x4E487B7100000000000000000000000000000000000000000000000000000000 PUSH0 MSTORE PUSH1 0x11 PUSH1 0x4 MSTORE PUSH1 0x24 PUSH0 REVERT JUMPDEST PUSH0 PUSH2 0x350 DUP3 PUSH2 0x21B JUMP JUMPDEST SWAP2 POP PUSH2 0x35B DUP4 PUSH2 0x21B JUMP JUMPDEST SWAP3 POP DUP3 DUP3 SUB SWAP1 POP DUP2 DUP2 GT ISZERO PUSH2 0x373 JUMPI PUSH2 0x372 PUSH2 0x319 JUMP JUMPDEST JUMPDEST SWAP3 SWAP2 POP POP JUMP JUMPDEST PUSH32 0x4E487B7100000000000000000000000000000000000000000000000000000000 PUSH0 MSTORE PUSH1 0x1 PUSH1 0x4 MSTORE PUSH1 0x24 PUSH0 REVERT JUMPDEST PUSH0 PUSH2 0x3B0 DUP3 PUSH2 0x21B JUMP JUMPDEST SWAP2 POP PUSH2 0x3BB DUP4 PUSH2 0x21B JUMP JUMPDEST SWAP3 POP DUP3 DUP3 ADD SWAP1 POP DUP1 DUP3 GT ISZERO PUSH2 0x3D3 JUMPI PUSH2 0x3D2 PUSH2 0x319 JUMP JUMPDEST JUMPDEST SWAP3 SWAP2 POP POP JUMP JUMPDEST PUSH32 0x6F766572666C6F77000000000000000000000000000000000000000000000000 PUSH0 DUP3 ADD MSTORE POP JUMP JUMPDEST PUSH0 PUSH2 0x40D PUSH1 0x8 DUP4 PUSH2 0x2A1 JUMP JUMPDEST SWAP2 POP PUSH2 0x418 DUP3 PUSH2 0x3D9 JUMP JUMPDEST PUSH1 0x20 DUP3 ADD SWAP1 POP SWAP2 SWAP1 POP JUMP JUMPDEST PUSH0 PUSH1 0x20 DUP3 ADD SWAP1 POP DUP2 DUP2 SUB PUSH0 DUP4 ADD MSTORE PUSH2 0x43A DUP2 PUSH2 0x401 JUMP JUMPDEST SWAP1 POP SWAP2 SWAP1 POP JUMP INVALID LOG2 PUSH5 0x6970667358 0x22 SLT KECCAK256 SWAP9 0x29 0xA8 0xCD 0xC3 0xD3 ADD 0xD9 LOG0 0xAB 0xC7 SDIV PUSH18 0x515F9EAF84DD56AAE6E135B0A17A87DEBC51 DUP15 PUSH5 0x736F6C6343 STOP ADDMOD BYTE STOP CALLER "
				},
				"gasEstimates": {
					"creation": {
						"codeDepositCost": "228600",
						"executionCost": "267",
						"totalCost": "228867"
					},
					"external": {
						"MAX_UINT()": "369",
						"balance()": "2424",
						"deposit(uint256)": "infinite",
						"withdraw(uint256)": "infinite"
					}
				},
				"methodIdentifiers": {
					"MAX_UINT()": "e5b5019a",
					"balance()": "b69ef8a8",
					"deposit(uint256)": "b6b55f25",
					"withdraw(uint256)": "2e1a7d4d"
				}
			},
			"storageLayout": {
				"storage": [
					{
						"astId": 3,
						"contract": "homework/经典用例/artifacts/Account.sol:Account",
						"label": "balance",
						"offset": 0,
						"slot": "0",
						"type": "t_uint256"
					}
				],
				"types": {
					"t_uint256": {
						"encoding": "inplace",
						"label": "uint256",
						"numberOfBytes": "32"
					}
				}
			},
			"userdoc": {
				"kind": "user",
				"methods": {},
				"version": 1
			}
		}
	}
}