{
	"homework/02/错误处理/RevertExample.sol": {
		"RevertExample": {
			"abi": [
				{
					"inputs": [
						{
							"internalType": "uint256",
							"name": "value",
							"type": "uint256"
						}
					],
					"name": "checkValue",
					"outputs": [],
					"stateMutability": "pure",
					"type": "function"
				}
			],
			"devdoc": {
				"kind": "dev",
				"methods": {},
				"version": 1
			},
			"evm": {
				"assembly": "    /* \"homework/02/\\xe9\\x94\\x99\\xe8\\xaf\\xaf\\xe5\\xa4\\x84\\xe7\\x90\\x86/RevertExample.sol\":140:341  contract RevertExample {... */\n  mstore(0x40, 0x80)\n  callvalue\n  dup1\n  iszero\n  tag_1\n  jumpi\n  0x00\n  dup1\n  revert\ntag_1:\n  pop\n  dataSize(sub_0)\n  dup1\n  dataOffset(sub_0)\n  0x00\n  codecopy\n  0x00\n  return\nstop\n\nsub_0: assembly {\n        /* \"homework/02/\\xe9\\x94\\x99\\xe8\\xaf\\xaf\\xe5\\xa4\\x84\\xe7\\x90\\x86/RevertExample.sol\":140:341  contract RevertExample {... */\n      mstore(0x40, 0x80)\n      callvalue\n      dup1\n      iszero\n      tag_1\n      jumpi\n      0x00\n      dup1\n      revert\n    tag_1:\n      pop\n      jumpi(tag_2, lt(calldatasize, 0x04))\n      shr(0xe0, calldataload(0x00))\n      dup1\n      0x18db62fb\n      eq\n      tag_3\n      jumpi\n    tag_2:\n      0x00\n      dup1\n      revert\n        /* \"homework/02/\\xe9\\x94\\x99\\xe8\\xaf\\xaf\\xe5\\xa4\\x84\\xe7\\x90\\x86/RevertExample.sol\":170:338  function checkValue(uint value) public pure {... */\n    tag_3:\n      tag_4\n      0x04\n      dup1\n      calldatasize\n      sub\n      dup2\n      add\n      swap1\n      tag_5\n      swap2\n      swap1\n      tag_6\n      jump\t// in\n    tag_5:\n      tag_7\n      jump\t// in\n    tag_4:\n      stop\n    tag_7:\n        /* \"homework/02/\\xe9\\x94\\x99\\xe8\\xaf\\xaf\\xe5\\xa4\\x84\\xe7\\x90\\x86/RevertExample.sol\":237:239  10 */\n      0x0a\n        /* \"homework/02/\\xe9\\x94\\x99\\xe8\\xaf\\xaf\\xe5\\xa4\\x84\\xe7\\x90\\x86/RevertExample.sol\":229:234  value */\n      dup2\n        /* \"homework/02/\\xe9\\x94\\x99\\xe8\\xaf\\xaf\\xe5\\xa4\\x84\\xe7\\x90\\x86/RevertExample.sol\":229:239  value > 10 */\n      gt\n        /* \"homework/02/\\xe9\\x94\\x99\\xe8\\xaf\\xaf\\xe5\\xa4\\x84\\xe7\\x90\\x86/RevertExample.sol\":225:331  if (value > 10) {... */\n      iszero\n      tag_9\n      jumpi\n        /* \"homework/02/\\xe9\\x94\\x99\\xe8\\xaf\\xaf\\xe5\\xa4\\x84\\xe7\\x90\\x86/RevertExample.sol\":256:288  revert(\"Value cannot exceed 10\") */\n      mload(0x40)\n      0x08c379a000000000000000000000000000000000000000000000000000000000\n      dup2\n      mstore\n      0x04\n      add\n      tag_10\n      swap1\n      tag_11\n      jump\t// in\n    tag_10:\n      mload(0x40)\n      dup1\n      swap2\n      sub\n      swap1\n      revert\n        /* \"homework/02/\\xe9\\x94\\x99\\xe8\\xaf\\xaf\\xe5\\xa4\\x84\\xe7\\x90\\x86/RevertExample.sol\":225:331  if (value > 10) {... */\n    tag_9:\n        /* \"homework/02/\\xe9\\x94\\x99\\xe8\\xaf\\xaf\\xe5\\xa4\\x84\\xe7\\x90\\x86/RevertExample.sol\":170:338  function checkValue(uint value) public pure {... */\n      pop\n      jump\t// out\n        /* \"#utility.yul\":88:205   */\n    tag_13:\n        /* \"#utility.yul\":197:198   */\n      0x00\n        /* \"#utility.yul\":194:195   */\n      dup1\n        /* \"#utility.yul\":187:199   */\n      revert\n        /* \"#utility.yul\":334:411   */\n    tag_15:\n        /* \"#utility.yul\":371:378   */\n      0x00\n        /* \"#utility.yul\":400:405   */\n      dup2\n        /* \"#utility.yul\":389:405   */\n      swap1\n      pop\n        /* \"#utility.yul\":334:411   */\n      swap2\n      swap1\n      pop\n      jump\t// out\n        /* \"#utility.yul\":417:539   */\n    tag_16:\n        /* \"#utility.yul\":490:514   */\n      tag_27\n        /* \"#utility.yul\":508:513   */\n      dup2\n        /* \"#utility.yul\":490:514   */\n      tag_15\n      jump\t// in\n    tag_27:\n        /* \"#utility.yul\":483:488   */\n      dup2\n        /* \"#utility.yul\":480:515   */\n      eq\n        /* \"#utility.yul\":470:533   */\n      tag_28\n      jumpi\n        /* \"#utility.yul\":529:530   */\n      0x00\n        /* \"#utility.yul\":526:527   */\n      dup1\n        /* \"#utility.yul\":519:531   */\n      revert\n        /* \"#utility.yul\":470:533   */\n    tag_28:\n        /* \"#utility.yul\":417:539   */\n      pop\n      jump\t// out\n        /* \"#utility.yul\":545:684   */\n    tag_17:\n        /* \"#utility.yul\":591:596   */\n      0x00\n        /* \"#utility.yul\":629:635   */\n      dup2\n        /* \"#utility.yul\":616:636   */\n      calldataload\n        /* \"#utility.yul\":607:636   */\n      swap1\n      pop\n        /* \"#utility.yul\":645:678   */\n      tag_30\n        /* \"#utility.yul\":672:677   */\n      dup2\n        /* \"#utility.yul\":645:678   */\n      tag_16\n      jump\t// in\n    tag_30:\n        /* \"#utility.yul\":545:684   */\n      swap3\n      swap2\n      pop\n      pop\n      jump\t// out\n        /* \"#utility.yul\":690:1019   */\n    tag_6:\n        /* \"#utility.yul\":749:755   */\n      0x00\n        /* \"#utility.yul\":798:800   */\n      0x20\n        /* \"#utility.yul\":786:795   */\n      dup3\n        /* \"#utility.yul\":777:784   */\n      dup5\n        /* \"#utility.yul\":773:796   */\n      sub\n        /* \"#utility.yul\":769:801   */\n      slt\n        /* \"#utility.yul\":766:885   */\n      iszero\n      tag_32\n      jumpi\n        /* \"#utility.yul\":804:883   */\n      tag_33\n      tag_13\n      jump\t// in\n    tag_33:\n        /* \"#utility.yul\":766:885   */\n    tag_32:\n        /* \"#utility.yul\":924:925   */\n      0x00\n        /* \"#utility.yul\":949:1002   */\n      tag_34\n        /* \"#utility.yul\":994:1001   */\n      dup5\n        /* \"#utility.yul\":985:991   */\n      dup3\n        /* \"#utility.yul\":974:983   */\n      dup6\n        /* \"#utility.yul\":970:992   */\n      add\n        /* \"#utility.yul\":949:1002   */\n      tag_17\n      jump\t// in\n    tag_34:\n        /* \"#utility.yul\":939:1002   */\n      swap2\n      pop\n        /* \"#utility.yul\":895:1012   */\n      pop\n        /* \"#utility.yul\":690:1019   */\n      swap3\n      swap2\n      pop\n      pop\n      jump\t// out\n        /* \"#utility.yul\":1025:1194   */\n    tag_18:\n        /* \"#utility.yul\":1109:1120   */\n      0x00\n        /* \"#utility.yul\":1143:1149   */\n      dup3\n        /* \"#utility.yul\":1138:1141   */\n      dup3\n        /* \"#utility.yul\":1131:1150   */\n      mstore\n        /* \"#utility.yul\":1183:1187   */\n      0x20\n        /* \"#utility.yul\":1178:1181   */\n      dup3\n        /* \"#utility.yul\":1174:1188   */\n      add\n        /* \"#utility.yul\":1159:1188   */\n      swap1\n      pop\n        /* \"#utility.yul\":1025:1194   */\n      swap3\n      swap2\n      pop\n      pop\n      jump\t// out\n        /* \"#utility.yul\":1200:1372   */\n    tag_19:\n        /* \"#utility.yul\":1340:1364   */\n      0x56616c75652063616e6e6f742065786365656420313000000000000000000000\n        /* \"#utility.yul\":1336:1337   */\n      0x00\n        /* \"#utility.yul\":1328:1334   */\n      dup3\n        /* \"#utility.yul\":1324:1338   */\n      add\n        /* \"#utility.yul\":1317:1365   */\n      mstore\n        /* \"#utility.yul\":1200:1372   */\n      pop\n      jump\t// out\n        /* \"#utility.yul\":1378:1744   */\n    tag_20:\n        /* \"#utility.yul\":1520:1523   */\n      0x00\n        /* \"#utility.yul\":1541:1608   */\n      tag_38\n        /* \"#utility.yul\":1605:1607   */\n      0x16\n        /* \"#utility.yul\":1600:1603   */\n      dup4\n        /* \"#utility.yul\":1541:1608   */\n      tag_18\n      jump\t// in\n    tag_38:\n        /* \"#utility.yul\":1534:1608   */\n      swap2\n      pop\n        /* \"#utility.yul\":1617:1710   */\n      tag_39\n        /* \"#utility.yul\":1706:1709   */\n      dup3\n        /* \"#utility.yul\":1617:1710   */\n      tag_19\n      jump\t// in\n    tag_39:\n        /* \"#utility.yul\":1735:1737   */\n      0x20\n        /* \"#utility.yul\":1730:1733   */\n      dup3\n        /* \"#utility.yul\":1726:1738   */\n      add\n        /* \"#utility.yul\":1719:1738   */\n      swap1\n      pop\n        /* \"#utility.yul\":1378:1744   */\n      swap2\n      swap1\n      pop\n      jump\t// out\n        /* \"#utility.yul\":1750:2169   */\n    tag_11:\n        /* \"#utility.yul\":1916:1920   */\n      0x00\n        /* \"#utility.yul\":1954:1956   */\n      0x20\n        /* \"#utility.yul\":1943:1952   */\n      dup3\n        /* \"#utility.yul\":1939:1957   */\n      add\n        /* \"#utility.yul\":1931:1957   */\n      swap1\n      pop\n        /* \"#utility.yul\":2003:2012   */\n      dup2\n        /* \"#utility.yul\":1997:2001   */\n      dup2\n        /* \"#utility.yul\":1993:2013   */\n      sub\n        /* \"#utility.yul\":1989:1990   */\n      0x00\n        /* \"#utility.yul\":1978:1987   */\n      dup4\n        /* \"#utility.yul\":1974:1991   */\n      add\n        /* \"#utility.yul\":1967:2014   */\n      mstore\n        /* \"#utility.yul\":2031:2162   */\n      tag_41\n        /* \"#utility.yul\":2157:2161   */\n      dup2\n        /* \"#utility.yul\":2031:2162   */\n      tag_20\n      jump\t// in\n    tag_41:\n        /* \"#utility.yul\":2023:2162   */\n      swap1\n      pop\n        /* \"#utility.yul\":1750:2169   */\n      swap2\n      swap1\n      pop\n      jump\t// out\n\n    auxdata: 0xa2646970667358221220fc50e3a3cedf0cf128dc9374c79f8317f2a9e490aed8ceee61fa9a04e859144364736f6c634300081a0033\n}\n",
				"bytecode": {
					"linkReferences": {},
					"object": "6080604052348015600e575f80fd5b506101a08061001c5f395ff3fe608060405234801561000f575f80fd5b5060043610610029575f3560e01c806318db62fb1461002d575b5f80fd5b610047600480360381019061004291906100c7565b610049565b005b600a81111561008d576040517f08c379a00000000000000000000000000000000000000000000000000000000081526004016100849061014c565b60405180910390fd5b50565b5f80fd5b5f819050919050565b6100a681610094565b81146100b0575f80fd5b50565b5f813590506100c18161009d565b92915050565b5f602082840312156100dc576100db610090565b5b5f6100e9848285016100b3565b91505092915050565b5f82825260208201905092915050565b7f56616c75652063616e6e6f7420657863656564203130000000000000000000005f82015250565b5f6101366016836100f2565b915061014182610102565b602082019050919050565b5f6020820190508181035f8301526101638161012a565b905091905056fea2646970667358221220fc50e3a3cedf0cf128dc9374c79f8317f2a9e490aed8ceee61fa9a04e859144364736f6c634300081a0033",
					"opcodes": "PUSH1 0x80 PUSH1 0x40 MSTORE CALLVALUE DUP1 ISZERO PUSH1 0xE JUMPI PUSH0 DUP1 REVERT JUMPDEST POP PUSH2 0x1A0 DUP1 PUSH2 0x1C PUSH0 CODECOPY PUSH0 RETURN INVALID PUSH1 0x80 PUSH1 0x40 MSTORE CALLVALUE DUP1 ISZERO PUSH2 0xF JUMPI PUSH0 DUP1 REVERT JUMPDEST POP PUSH1 0x4 CALLDATASIZE LT PUSH2 0x29 JUMPI PUSH0 CALLDATALOAD PUSH1 0xE0 SHR DUP1 PUSH4 0x18DB62FB EQ PUSH2 0x2D JUMPI JUMPDEST PUSH0 DUP1 REVERT JUMPDEST PUSH2 0x47 PUSH1 0x4 DUP1 CALLDATASIZE SUB DUP2 ADD SWAP1 PUSH2 0x42 SWAP2 SWAP1 PUSH2 0xC7 JUMP JUMPDEST PUSH2 0x49 JUMP JUMPDEST STOP JUMPDEST PUSH1 0xA DUP2 GT ISZERO PUSH2 0x8D JUMPI PUSH1 0x40 MLOAD PUSH32 0x8C379A000000000000000000000000000000000000000000000000000000000 DUP2 MSTORE PUSH1 0x4 ADD PUSH2 0x84 SWAP1 PUSH2 0x14C JUMP JUMPDEST PUSH1 0x40 MLOAD DUP1 SWAP2 SUB SWAP1 REVERT JUMPDEST POP JUMP JUMPDEST PUSH0 DUP1 REVERT JUMPDEST PUSH0 DUP2 SWAP1 POP SWAP2 SWAP1 POP JUMP JUMPDEST PUSH2 0xA6 DUP2 PUSH2 0x94 JUMP JUMPDEST DUP2 EQ PUSH2 0xB0 JUMPI PUSH0 DUP1 REVERT JUMPDEST POP JUMP JUMPDEST PUSH0 DUP2 CALLDATALOAD SWAP1 POP PUSH2 0xC1 DUP2 PUSH2 0x9D JUMP JUMPDEST SWAP3 SWAP2 POP POP JUMP JUMPDEST PUSH0 PUSH1 0x20 DUP3 DUP5 SUB SLT ISZERO PUSH2 0xDC JUMPI PUSH2 0xDB PUSH2 0x90 JUMP JUMPDEST JUMPDEST PUSH0 PUSH2 0xE9 DUP5 DUP3 DUP6 ADD PUSH2 0xB3 JUMP JUMPDEST SWAP2 POP POP SWAP3 SWAP2 POP POP JUMP JUMPDEST PUSH0 DUP3 DUP3 MSTORE PUSH1 0x20 DUP3 ADD SWAP1 POP SWAP3 SWAP2 POP POP JUMP JUMPDEST PUSH32 0x56616C75652063616E6E6F742065786365656420313000000000000000000000 PUSH0 DUP3 ADD MSTORE POP JUMP JUMPDEST PUSH0 PUSH2 0x136 PUSH1 0x16 DUP4 PUSH2 0xF2 JUMP JUMPDEST SWAP2 POP PUSH2 0x141 DUP3 PUSH2 0x102 JUMP JUMPDEST PUSH1 0x20 DUP3 ADD SWAP1 POP SWAP2 SWAP1 POP JUMP JUMPDEST PUSH0 PUSH1 0x20 DUP3 ADD SWAP1 POP DUP2 DUP2 SUB PUSH0 DUP4 ADD MSTORE PUSH2 0x163 DUP2 PUSH2 0x12A JUMP JUMPDEST SWAP1 POP SWAP2 SWAP1 POP JUMP INVALID LOG2 PUSH5 0x6970667358 0x22 SLT KECCAK256 0xFC POP 0xE3 LOG3 0xCE 0xDF 0xC CALL 0x28 0xDC SWAP4 PUSH21 0xC79F8317F2A9E490AED8CEEE61FA9A04E859144364 PUSH20 0x6F6C634300081A00330000000000000000000000 "
				},
				"gasEstimates": {
					"creation": {
						"codeDepositCost": "83200",
						"executionCost": "127",
						"totalCost": "83327"
					},
					"external": {
						"checkValue(uint256)": "687"
					}
				},
				"methodIdentifiers": {
					"checkValue(uint256)": "18db62fb"
				}
			},
			"storageLayout": {
				"storage": [],
				"types": null
			},
			"userdoc": {
				"kind": "user",
				"methods": {},
				"version": 1
			}
		}
	}
}