{
	"homework/02/错误处理/CustomErrorExample.sol": {
		"CustomErrorExample": {
			"abi": [
				{
					"inputs": [],
					"stateMutability": "nonpayable",
					"type": "constructor"
				},
				{
					"inputs": [
						{
							"internalType": "address",
							"name": "caller",
							"type": "address"
						}
					],
					"name": "Unauthorized",
					"type": "error"
				},
				{
					"inputs": [],
					"name": "owner",
					"outputs": [
						{
							"internalType": "address",
							"name": "",
							"type": "address"
						}
					],
					"stateMutability": "view",
					"type": "function"
				},
				{
					"inputs": [],
					"name": "restrictedFunction",
					"outputs": [],
					"stateMutability": "nonpayable",
					"type": "function"
				}
			],
			"devdoc": {
				"kind": "dev",
				"methods": {},
				"version": 1
			},
			"evm": {
				"assembly": "    /* \"homework/02/\\xe9\\x94\\x99\\xe8\\xaf\\xaf\\xe5\\xa4\\x84\\xe7\\x90\\x86/CustomErrorExample.sol\":140:487  contract CustomErrorExample {... */\n  mstore(0x40, 0x80)\n    /* \"homework/02/\\xe9\\x94\\x99\\xe8\\xaf\\xaf\\xe5\\xa4\\x84\\xe7\\x90\\x86/CustomErrorExample.sol\":263:314  constructor() {... */\n  callvalue\n  dup1\n  iszero\n  tag_1\n  jumpi\n  0x00\n  dup1\n  revert\ntag_1:\n  pop\n    /* \"homework/02/\\xe9\\x94\\x99\\xe8\\xaf\\xaf\\xe5\\xa4\\x84\\xe7\\x90\\x86/CustomErrorExample.sol\":296:306  msg.sender */\n  caller\n    /* \"homework/02/\\xe9\\x94\\x99\\xe8\\xaf\\xaf\\xe5\\xa4\\x84\\xe7\\x90\\x86/CustomErrorExample.sol\":288:293  owner */\n  0x00\n  dup1\n    /* \"homework/02/\\xe9\\x94\\x99\\xe8\\xaf\\xaf\\xe5\\xa4\\x84\\xe7\\x90\\x86/CustomErrorExample.sol\":288:306  owner = msg.sender */\n  0x0100\n  exp\n  dup2\n  sload\n  dup2\n  0xffffffffffffffffffffffffffffffffffffffff\n  mul\n  not\n  and\n  swap1\n  dup4\n  0xffffffffffffffffffffffffffffffffffffffff\n  and\n  mul\n  or\n  swap1\n  sstore\n  pop\n    /* \"homework/02/\\xe9\\x94\\x99\\xe8\\xaf\\xaf\\xe5\\xa4\\x84\\xe7\\x90\\x86/CustomErrorExample.sol\":140:487  contract CustomErrorExample {... */\n  dataSize(sub_0)\n  dup1\n  dataOffset(sub_0)\n  0x00\n  codecopy\n  0x00\n  return\nstop\n\nsub_0: assembly {\n        /* \"homework/02/\\xe9\\x94\\x99\\xe8\\xaf\\xaf\\xe5\\xa4\\x84\\xe7\\x90\\x86/CustomErrorExample.sol\":140:487  contract CustomErrorExample {... */\n      mstore(0x40, 0x80)\n      callvalue\n      dup1\n      iszero\n      tag_1\n      jumpi\n      0x00\n      dup1\n      revert\n    tag_1:\n      pop\n      jumpi(tag_2, lt(calldatasize, 0x04))\n      shr(0xe0, calldataload(0x00))\n      dup1\n      0x777acf37\n      eq\n      tag_3\n      jumpi\n      dup1\n      0x8da5cb5b\n      eq\n      tag_4\n      jumpi\n    tag_2:\n      0x00\n      dup1\n      revert\n        /* \"homework/02/\\xe9\\x94\\x99\\xe8\\xaf\\xaf\\xe5\\xa4\\x84\\xe7\\x90\\x86/CustomErrorExample.sol\":320:484  function restrictedFunction() public {... */\n    tag_3:\n      tag_5\n      tag_6\n      jump\t// in\n    tag_5:\n      stop\n        /* \"homework/02/\\xe9\\x94\\x99\\xe8\\xaf\\xaf\\xe5\\xa4\\x84\\xe7\\x90\\x86/CustomErrorExample.sol\":236:256  address public owner */\n    tag_4:\n      tag_7\n      tag_8\n      jump\t// in\n    tag_7:\n      mload(0x40)\n      tag_9\n      swap2\n      swap1\n      tag_10\n      jump\t// in\n    tag_9:\n      mload(0x40)\n      dup1\n      swap2\n      sub\n      swap1\n      return\n        /* \"homework/02/\\xe9\\x94\\x99\\xe8\\xaf\\xaf\\xe5\\xa4\\x84\\xe7\\x90\\x86/CustomErrorExample.sol\":320:484  function restrictedFunction() public {... */\n    tag_6:\n        /* \"homework/02/\\xe9\\x94\\x99\\xe8\\xaf\\xaf\\xe5\\xa4\\x84\\xe7\\x90\\x86/CustomErrorExample.sol\":386:391  owner */\n      0x00\n      dup1\n      sload\n      swap1\n      0x0100\n      exp\n      swap1\n      div\n      0xffffffffffffffffffffffffffffffffffffffff\n      and\n        /* \"homework/02/\\xe9\\x94\\x99\\xe8\\xaf\\xaf\\xe5\\xa4\\x84\\xe7\\x90\\x86/CustomErrorExample.sol\":372:391  msg.sender != owner */\n      0xffffffffffffffffffffffffffffffffffffffff\n      and\n        /* \"homework/02/\\xe9\\x94\\x99\\xe8\\xaf\\xaf\\xe5\\xa4\\x84\\xe7\\x90\\x86/CustomErrorExample.sol\":372:382  msg.sender */\n      caller\n        /* \"homework/02/\\xe9\\x94\\x99\\xe8\\xaf\\xaf\\xe5\\xa4\\x84\\xe7\\x90\\x86/CustomErrorExample.sol\":372:391  msg.sender != owner */\n      0xffffffffffffffffffffffffffffffffffffffff\n      and\n      eq\n        /* \"homework/02/\\xe9\\x94\\x99\\xe8\\xaf\\xaf\\xe5\\xa4\\x84\\xe7\\x90\\x86/CustomErrorExample.sol\":368:477  if (msg.sender != owner) {... */\n      tag_12\n      jumpi\n        /* \"homework/02/\\xe9\\x94\\x99\\xe8\\xaf\\xaf\\xe5\\xa4\\x84\\xe7\\x90\\x86/CustomErrorExample.sol\":428:438  msg.sender */\n      caller\n        /* \"homework/02/\\xe9\\x94\\x99\\xe8\\xaf\\xaf\\xe5\\xa4\\x84\\xe7\\x90\\x86/CustomErrorExample.sol\":415:439  Unauthorized(msg.sender) */\n      mload(0x40)\n      0x8e4a23d600000000000000000000000000000000000000000000000000000000\n      dup2\n      mstore\n      0x04\n      add\n      tag_13\n      swap2\n      swap1\n      tag_10\n      jump\t// in\n    tag_13:\n      mload(0x40)\n      dup1\n      swap2\n      sub\n      swap1\n      revert\n        /* \"homework/02/\\xe9\\x94\\x99\\xe8\\xaf\\xaf\\xe5\\xa4\\x84\\xe7\\x90\\x86/CustomErrorExample.sol\":368:477  if (msg.sender != owner) {... */\n    tag_12:\n        /* \"homework/02/\\xe9\\x94\\x99\\xe8\\xaf\\xaf\\xe5\\xa4\\x84\\xe7\\x90\\x86/CustomErrorExample.sol\":320:484  function restrictedFunction() public {... */\n      jump\t// out\n        /* \"homework/02/\\xe9\\x94\\x99\\xe8\\xaf\\xaf\\xe5\\xa4\\x84\\xe7\\x90\\x86/CustomErrorExample.sol\":236:256  address public owner */\n    tag_8:\n      0x00\n      dup1\n      sload\n      swap1\n      0x0100\n      exp\n      swap1\n      div\n      0xffffffffffffffffffffffffffffffffffffffff\n      and\n      dup2\n      jump\t// out\n        /* \"#utility.yul\":7:133   */\n    tag_14:\n        /* \"#utility.yul\":44:51   */\n      0x00\n        /* \"#utility.yul\":84:126   */\n      0xffffffffffffffffffffffffffffffffffffffff\n        /* \"#utility.yul\":77:82   */\n      dup3\n        /* \"#utility.yul\":73:127   */\n      and\n        /* \"#utility.yul\":62:127   */\n      swap1\n      pop\n        /* \"#utility.yul\":7:133   */\n      swap2\n      swap1\n      pop\n      jump\t// out\n        /* \"#utility.yul\":139:235   */\n    tag_15:\n        /* \"#utility.yul\":176:183   */\n      0x00\n        /* \"#utility.yul\":205:229   */\n      tag_20\n        /* \"#utility.yul\":223:228   */\n      dup3\n        /* \"#utility.yul\":205:229   */\n      tag_14\n      jump\t// in\n    tag_20:\n        /* \"#utility.yul\":194:229   */\n      swap1\n      pop\n        /* \"#utility.yul\":139:235   */\n      swap2\n      swap1\n      pop\n      jump\t// out\n        /* \"#utility.yul\":241:359   */\n    tag_16:\n        /* \"#utility.yul\":328:352   */\n      tag_22\n        /* \"#utility.yul\":346:351   */\n      dup2\n        /* \"#utility.yul\":328:352   */\n      tag_15\n      jump\t// in\n    tag_22:\n        /* \"#utility.yul\":323:326   */\n      dup3\n        /* \"#utility.yul\":316:353   */\n      mstore\n        /* \"#utility.yul\":241:359   */\n      pop\n      pop\n      jump\t// out\n        /* \"#utility.yul\":365:587   */\n    tag_10:\n        /* \"#utility.yul\":458:462   */\n      0x00\n        /* \"#utility.yul\":496:498   */\n      0x20\n        /* \"#utility.yul\":485:494   */\n      dup3\n        /* \"#utility.yul\":481:499   */\n      add\n        /* \"#utility.yul\":473:499   */\n      swap1\n      pop\n        /* \"#utility.yul\":509:580   */\n      tag_24\n        /* \"#utility.yul\":577:578   */\n      0x00\n        /* \"#utility.yul\":566:575   */\n      dup4\n        /* \"#utility.yul\":562:579   */\n      add\n        /* \"#utility.yul\":553:559   */\n      dup5\n        /* \"#utility.yul\":509:580   */\n      tag_16\n      jump\t// in\n    tag_24:\n        /* \"#utility.yul\":365:587   */\n      swap3\n      swap2\n      pop\n      pop\n      jump\t// out\n\n    auxdata: 0xa2646970667358221220cf910d233c69aa94a5cc6444605978258a273bf367891414a81b9197ff2aa95564736f6c634300081a0033\n}\n",
				"bytecode": {
					"linkReferences": {},
					"object": "6080604052348015600e575f80fd5b50335f806101000a81548173ffffffffffffffffffffffffffffffffffffffff021916908373ffffffffffffffffffffffffffffffffffffffff1602179055506101a28061005b5f395ff3fe608060405234801561000f575f80fd5b5060043610610034575f3560e01c8063777acf37146100385780638da5cb5b14610042575b5f80fd5b610040610060565b005b61004a6100f1565b6040516100579190610153565b60405180910390f35b5f8054906101000a900473ffffffffffffffffffffffffffffffffffffffff1673ffffffffffffffffffffffffffffffffffffffff163373ffffffffffffffffffffffffffffffffffffffff16146100ef57336040517f8e4a23d60000000000000000000000000000000000000000000000000000000081526004016100e69190610153565b60405180910390fd5b565b5f8054906101000a900473ffffffffffffffffffffffffffffffffffffffff1681565b5f73ffffffffffffffffffffffffffffffffffffffff82169050919050565b5f61013d82610114565b9050919050565b61014d81610133565b82525050565b5f6020820190506101665f830184610144565b9291505056fea2646970667358221220cf910d233c69aa94a5cc6444605978258a273bf367891414a81b9197ff2aa95564736f6c634300081a0033",
					"opcodes": "PUSH1 0x80 PUSH1 0x40 MSTORE CALLVALUE DUP1 ISZERO PUSH1 0xE JUMPI PUSH0 DUP1 REVERT JUMPDEST POP CALLER PUSH0 DUP1 PUSH2 0x100 EXP DUP2 SLOAD DUP2 PUSH20 0xFFFFFFFFFFFFFFFFFFFFFFFFFFFFFFFFFFFFFFFF MUL NOT AND SWAP1 DUP4 PUSH20 0xFFFFFFFFFFFFFFFFFFFFFFFFFFFFFFFFFFFFFFFF AND MUL OR SWAP1 SSTORE POP PUSH2 0x1A2 DUP1 PUSH2 0x5B PUSH0 CODECOPY PUSH0 RETURN INVALID PUSH1 0x80 PUSH1 0x40 MSTORE CALLVALUE DUP1 ISZERO PUSH2 0xF JUMPI PUSH0 DUP1 REVERT JUMPDEST POP PUSH1 0x4 CALLDATASIZE LT PUSH2 0x34 JUMPI PUSH0 CALLDATALOAD PUSH1 0xE0 SHR DUP1 PUSH4 0x777ACF37 EQ PUSH2 0x38 JUMPI DUP1 PUSH4 0x8DA5CB5B EQ PUSH2 0x42 JUMPI JUMPDEST PUSH0 DUP1 REVERT JUMPDEST PUSH2 0x40 PUSH2 0x60 JUMP JUMPDEST STOP JUMPDEST PUSH2 0x4A PUSH2 0xF1 JUMP JUMPDEST PUSH1 0x40 MLOAD PUSH2 0x57 SWAP2 SWAP1 PUSH2 0x153 JUMP JUMPDEST PUSH1 0x40 MLOAD DUP1 SWAP2 SUB SWAP1 RETURN JUMPDEST PUSH0 DUP1 SLOAD SWAP1 PUSH2 0x100 EXP SWAP1 DIV PUSH20 0xFFFFFFFFFFFFFFFFFFFFFFFFFFFFFFFFFFFFFFFF AND PUSH20 0xFFFFFFFFFFFFFFFFFFFFFFFFFFFFFFFFFFFFFFFF AND CALLER PUSH20 0xFFFFFFFFFFFFFFFFFFFFFFFFFFFFFFFFFFFFFFFF AND EQ PUSH2 0xEF JUMPI CALLER PUSH1 0x40 MLOAD PUSH32 0x8E4A23D600000000000000000000000000000000000000000000000000000000 DUP2 MSTORE PUSH1 0x4 ADD PUSH2 0xE6 SWAP2 SWAP1 PUSH2 0x153 JUMP JUMPDEST PUSH1 0x40 MLOAD DUP1 SWAP2 SUB SWAP1 REVERT JUMPDEST JUMP JUMPDEST PUSH0 DUP1 SLOAD SWAP1 PUSH2 0x100 EXP SWAP1 DIV PUSH20 0xFFFFFFFFFFFFFFFFFFFFFFFFFFFFFFFFFFFFFFFF AND DUP2 JUMP JUMPDEST PUSH0 PUSH20 0xFFFFFFFFFFFFFFFFFFFFFFFFFFFFFFFFFFFFFFFF DUP3 AND SWAP1 POP SWAP2 SWAP1 POP JUMP JUMPDEST PUSH0 PUSH2 0x13D DUP3 PUSH2 0x114 JUMP JUMPDEST SWAP1 POP SWAP2 SWAP1 POP JUMP JUMPDEST PUSH2 0x14D DUP2 PUSH2 0x133 JUMP JUMPDEST DUP3 MSTORE POP POP JUMP JUMPDEST PUSH0 PUSH1 0x20 DUP3 ADD SWAP1 POP PUSH2 0x166 PUSH0 DUP4 ADD DUP5 PUSH2 0x144 JUMP JUMPDEST SWAP3 SWAP2 POP POP JUMP INVALID LOG2 PUSH5 0x6970667358 0x22 SLT KECCAK256 0xCF SWAP2 0xD 0x23 EXTCODECOPY PUSH10 0xAA94A5CC644460597825 DUP11 0x27 EXTCODESIZE RETURN PUSH8 0x891414A81B9197FF 0x2A 0xA9 SSTORE PUSH5 0x736F6C6343 STOP ADDMOD BYTE STOP CALLER "
				},
				"gasEstimates": {
					"creation": {
						"codeDepositCost": "83600",
						"executionCost": "24398",
						"totalCost": "107998"
					},
					"external": {
						"owner()": "2505",
						"restrictedFunction()": "2521"
					}
				},
				"methodIdentifiers": {
					"owner()": "8da5cb5b",
					"restrictedFunction()": "777acf37"
				}
			},
			"storageLayout": {
				"storage": [
					{
						"astId": 7,
						"contract": "homework/02/错误处理/CustomErrorExample.sol:CustomErrorExample",
						"label": "owner",
						"offset": 0,
						"slot": "0",
						"type": "t_address"
					}
				],
				"types": {
					"t_address": {
						"encoding": "inplace",
						"label": "address",
						"numberOfBytes": "20"
					}
				}
			},
			"userdoc": {
				"kind": "user",
				"methods": {},
				"version": 1
			}
		}
	}
}