{
	"homework/02/错误处理/ExternalContract.sol": {
		"ExternalContract": {
			"abi": [
				{
					"inputs": [],
					"name": "getValue",
					"outputs": [
						{
							"internalType": "uint256",
							"name": "",
							"type": "uint256"
						}
					],
					"stateMutability": "pure",
					"type": "function"
				},
				{
					"inputs": [],
					"name": "willRevert",
					"outputs": [],
					"stateMutability": "pure",
					"type": "function"
				}
			],
			"devdoc": {
				"kind": "dev",
				"methods": {},
				"version": 1
			},
			"evm": {
				"assembly": "    /* \"homework/02/\\xe9\\x94\\x99\\xe8\\xaf\\xaf\\xe5\\xa4\\x84\\xe7\\x90\\x86/ExternalContract.sol\":138:341  contract ExternalContract {... */\n  mstore(0x40, 0x80)\n  callvalue\n  dup1\n  iszero\n  tag_1\n  jumpi\n  0x00\n  dup1\n  revert\ntag_1:\n  pop\n  dataSize(sub_0)\n  dup1\n  dataOffset(sub_0)\n  0x00\n  codecopy\n  0x00\n  return\nstop\n\nsub_0: assembly {\n        /* \"homework/02/\\xe9\\x94\\x99\\xe8\\xaf\\xaf\\xe5\\xa4\\x84\\xe7\\x90\\x86/ExternalContract.sol\":138:341  contract ExternalContract {... */\n      mstore(0x40, 0x80)\n      callvalue\n      dup1\n      iszero\n      tag_1\n      jumpi\n      0x00\n      dup1\n      revert\n    tag_1:\n      pop\n      jumpi(tag_2, lt(calldatasize, 0x04))\n      shr(0xe0, calldataload(0x00))\n      dup1\n      0x20965255\n      eq\n      tag_3\n      jumpi\n      dup1\n      0x73ee93b3\n      eq\n      tag_4\n      jumpi\n    tag_2:\n      0x00\n      dup1\n      revert\n        /* \"homework/02/\\xe9\\x94\\x99\\xe8\\xaf\\xaf\\xe5\\xa4\\x84\\xe7\\x90\\x86/ExternalContract.sol\":170:246  function getValue() public pure returns (uint256) {... */\n    tag_3:\n      tag_5\n      tag_6\n      jump\t// in\n    tag_5:\n      mload(0x40)\n      tag_7\n      swap2\n      swap1\n      tag_8\n      jump\t// in\n    tag_7:\n      mload(0x40)\n      dup1\n      swap2\n      sub\n      swap1\n      return\n        /* \"homework/02/\\xe9\\x94\\x99\\xe8\\xaf\\xaf\\xe5\\xa4\\x84\\xe7\\x90\\x86/ExternalContract.sol\":252:339  function willRevert() public pure {... */\n    tag_4:\n      tag_9\n      tag_10\n      jump\t// in\n    tag_9:\n      stop\n        /* \"homework/02/\\xe9\\x94\\x99\\xe8\\xaf\\xaf\\xe5\\xa4\\x84\\xe7\\x90\\x86/ExternalContract.sol\":170:246  function getValue() public pure returns (uint256) {... */\n    tag_6:\n        /* \"homework/02/\\xe9\\x94\\x99\\xe8\\xaf\\xaf\\xe5\\xa4\\x84\\xe7\\x90\\x86/ExternalContract.sol\":211:218  uint256 */\n      0x00\n        /* \"homework/02/\\xe9\\x94\\x99\\xe8\\xaf\\xaf\\xe5\\xa4\\x84\\xe7\\x90\\x86/ExternalContract.sol\":237:239  42 */\n      0x2a\n        /* \"homework/02/\\xe9\\x94\\x99\\xe8\\xaf\\xaf\\xe5\\xa4\\x84\\xe7\\x90\\x86/ExternalContract.sol\":230:239  return 42 */\n      swap1\n      pop\n        /* \"homework/02/\\xe9\\x94\\x99\\xe8\\xaf\\xaf\\xe5\\xa4\\x84\\xe7\\x90\\x86/ExternalContract.sol\":170:246  function getValue() public pure returns (uint256) {... */\n      swap1\n      jump\t// out\n        /* \"homework/02/\\xe9\\x94\\x99\\xe8\\xaf\\xaf\\xe5\\xa4\\x84\\xe7\\x90\\x86/ExternalContract.sol\":252:339  function willRevert() public pure {... */\n    tag_10:\n        /* \"homework/02/\\xe9\\x94\\x99\\xe8\\xaf\\xaf\\xe5\\xa4\\x84\\xe7\\x90\\x86/ExternalContract.sol\":296:332  revert(\"This function always fails\") */\n      mload(0x40)\n      0x08c379a000000000000000000000000000000000000000000000000000000000\n      dup2\n      mstore\n      0x04\n      add\n      tag_13\n      swap1\n      tag_14\n      jump\t// in\n    tag_13:\n      mload(0x40)\n      dup1\n      swap2\n      sub\n      swap1\n      revert\n        /* \"#utility.yul\":7:84   */\n    tag_15:\n        /* \"#utility.yul\":44:51   */\n      0x00\n        /* \"#utility.yul\":73:78   */\n      dup2\n        /* \"#utility.yul\":62:78   */\n      swap1\n      pop\n        /* \"#utility.yul\":7:84   */\n      swap2\n      swap1\n      pop\n      jump\t// out\n        /* \"#utility.yul\":90:208   */\n    tag_16:\n        /* \"#utility.yul\":177:201   */\n      tag_23\n        /* \"#utility.yul\":195:200   */\n      dup2\n        /* \"#utility.yul\":177:201   */\n      tag_15\n      jump\t// in\n    tag_23:\n        /* \"#utility.yul\":172:175   */\n      dup3\n        /* \"#utility.yul\":165:202   */\n      mstore\n        /* \"#utility.yul\":90:208   */\n      pop\n      pop\n      jump\t// out\n        /* \"#utility.yul\":214:436   */\n    tag_8:\n        /* \"#utility.yul\":307:311   */\n      0x00\n        /* \"#utility.yul\":345:347   */\n      0x20\n        /* \"#utility.yul\":334:343   */\n      dup3\n        /* \"#utility.yul\":330:348   */\n      add\n        /* \"#utility.yul\":322:348   */\n      swap1\n      pop\n        /* \"#utility.yul\":358:429   */\n      tag_25\n        /* \"#utility.yul\":426:427   */\n      0x00\n        /* \"#utility.yul\":415:424   */\n      dup4\n        /* \"#utility.yul\":411:428   */\n      add\n        /* \"#utility.yul\":402:408   */\n      dup5\n        /* \"#utility.yul\":358:429   */\n      tag_16\n      jump\t// in\n    tag_25:\n        /* \"#utility.yul\":214:436   */\n      swap3\n      swap2\n      pop\n      pop\n      jump\t// out\n        /* \"#utility.yul\":442:611   */\n    tag_17:\n        /* \"#utility.yul\":526:537   */\n      0x00\n        /* \"#utility.yul\":560:566   */\n      dup3\n        /* \"#utility.yul\":555:558   */\n      dup3\n        /* \"#utility.yul\":548:567   */\n      mstore\n        /* \"#utility.yul\":600:604   */\n      0x20\n        /* \"#utility.yul\":595:598   */\n      dup3\n        /* \"#utility.yul\":591:605   */\n      add\n        /* \"#utility.yul\":576:605   */\n      swap1\n      pop\n        /* \"#utility.yul\":442:611   */\n      swap3\n      swap2\n      pop\n      pop\n      jump\t// out\n        /* \"#utility.yul\":617:793   */\n    tag_18:\n        /* \"#utility.yul\":757:785   */\n      0x546869732066756e6374696f6e20616c77617973206661696c73000000000000\n        /* \"#utility.yul\":753:754   */\n      0x00\n        /* \"#utility.yul\":745:751   */\n      dup3\n        /* \"#utility.yul\":741:755   */\n      add\n        /* \"#utility.yul\":734:786   */\n      mstore\n        /* \"#utility.yul\":617:793   */\n      pop\n      jump\t// out\n        /* \"#utility.yul\":799:1165   */\n    tag_19:\n        /* \"#utility.yul\":941:944   */\n      0x00\n        /* \"#utility.yul\":962:1029   */\n      tag_29\n        /* \"#utility.yul\":1026:1028   */\n      0x1a\n        /* \"#utility.yul\":1021:1024   */\n      dup4\n        /* \"#utility.yul\":962:1029   */\n      tag_17\n      jump\t// in\n    tag_29:\n        /* \"#utility.yul\":955:1029   */\n      swap2\n      pop\n        /* \"#utility.yul\":1038:1131   */\n      tag_30\n        /* \"#utility.yul\":1127:1130   */\n      dup3\n        /* \"#utility.yul\":1038:1131   */\n      tag_18\n      jump\t// in\n    tag_30:\n        /* \"#utility.yul\":1156:1158   */\n      0x20\n        /* \"#utility.yul\":1151:1154   */\n      dup3\n        /* \"#utility.yul\":1147:1159   */\n      add\n        /* \"#utility.yul\":1140:1159   */\n      swap1\n      pop\n        /* \"#utility.yul\":799:1165   */\n      swap2\n      swap1\n      pop\n      jump\t// out\n        /* \"#utility.yul\":1171:1590   */\n    tag_14:\n        /* \"#utility.yul\":1337:1341   */\n      0x00\n        /* \"#utility.yul\":1375:1377   */\n      0x20\n        /* \"#utility.yul\":1364:1373   */\n      dup3\n        /* \"#utility.yul\":1360:1378   */\n      add\n        /* \"#utility.yul\":1352:1378   */\n      swap1\n      pop\n        /* \"#utility.yul\":1424:1433   */\n      dup2\n        /* \"#utility.yul\":1418:1422   */\n      dup2\n        /* \"#utility.yul\":1414:1434   */\n      sub\n        /* \"#utility.yul\":1410:1411   */\n      0x00\n        /* \"#utility.yul\":1399:1408   */\n      dup4\n        /* \"#utility.yul\":1395:1412   */\n      add\n        /* \"#utility.yul\":1388:1435   */\n      mstore\n        /* \"#utility.yul\":1452:1583   */\n      tag_32\n        /* \"#utility.yul\":1578:1582   */\n      dup2\n        /* \"#utility.yul\":1452:1583   */\n      tag_19\n      jump\t// in\n    tag_32:\n        /* \"#utility.yul\":1444:1583   */\n      swap1\n      pop\n        /* \"#utility.yul\":1171:1590   */\n      swap2\n      swap1\n      pop\n      jump\t// out\n\n    auxdata: 0xa264697066735822122026b477cceced98888fde9a769ae827e5c997acbf26937472f99f7c2def15a17f64736f6c634300081a0033\n}\n",
				"bytecode": {
					"linkReferences": {},
					"object": "6080604052348015600e575f80fd5b506101828061001c5f395ff3fe608060405234801561000f575f80fd5b5060043610610034575f3560e01c8063209652551461003857806373ee93b314610056575b5f80fd5b610040610060565b60405161004d91906100bb565b60405180910390f35b61005e610068565b005b5f602a905090565b6040517f08c379a000000000000000000000000000000000000000000000000000000000815260040161009a9061012e565b60405180910390fd5b5f819050919050565b6100b5816100a3565b82525050565b5f6020820190506100ce5f8301846100ac565b92915050565b5f82825260208201905092915050565b7f546869732066756e6374696f6e20616c77617973206661696c730000000000005f82015250565b5f610118601a836100d4565b9150610123826100e4565b602082019050919050565b5f6020820190508181035f8301526101458161010c565b905091905056fea264697066735822122026b477cceced98888fde9a769ae827e5c997acbf26937472f99f7c2def15a17f64736f6c634300081a0033",
					"opcodes": "PUSH1 0x80 PUSH1 0x40 MSTORE CALLVALUE DUP1 ISZERO PUSH1 0xE JUMPI PUSH0 DUP1 REVERT JUMPDEST POP PUSH2 0x182 DUP1 PUSH2 0x1C PUSH0 CODECOPY PUSH0 RETURN INVALID PUSH1 0x80 PUSH1 0x40 MSTORE CALLVALUE DUP1 ISZERO PUSH2 0xF JUMPI PUSH0 DUP1 REVERT JUMPDEST POP PUSH1 0x4 CALLDATASIZE LT PUSH2 0x34 JUMPI PUSH0 CALLDATALOAD PUSH1 0xE0 SHR DUP1 PUSH4 0x20965255 EQ PUSH2 0x38 JUMPI DUP1 PUSH4 0x73EE93B3 EQ PUSH2 0x56 JUMPI JUMPDEST PUSH0 DUP1 REVERT JUMPDEST PUSH2 0x40 PUSH2 0x60 JUMP JUMPDEST PUSH1 0x40 MLOAD PUSH2 0x4D SWAP2 SWAP1 PUSH2 0xBB JUMP JUMPDEST PUSH1 0x40 MLOAD DUP1 SWAP2 SUB SWAP1 RETURN JUMPDEST PUSH2 0x5E PUSH2 0x68 JUMP JUMPDEST STOP JUMPDEST PUSH0 PUSH1 0x2A SWAP1 POP SWAP1 JUMP JUMPDEST PUSH1 0x40 MLOAD PUSH32 0x8C379A000000000000000000000000000000000000000000000000000000000 DUP2 MSTORE PUSH1 0x4 ADD PUSH2 0x9A SWAP1 PUSH2 0x12E JUMP JUMPDEST PUSH1 0x40 MLOAD DUP1 SWAP2 SUB SWAP1 REVERT JUMPDEST PUSH0 DUP2 SWAP1 POP SWAP2 SWAP1 POP JUMP JUMPDEST PUSH2 0xB5 DUP2 PUSH2 0xA3 JUMP JUMPDEST DUP3 MSTORE POP POP JUMP JUMPDEST PUSH0 PUSH1 0x20 DUP3 ADD SWAP1 POP PUSH2 0xCE PUSH0 DUP4 ADD DUP5 PUSH2 0xAC JUMP JUMPDEST SWAP3 SWAP2 POP POP JUMP JUMPDEST PUSH0 DUP3 DUP3 MSTORE PUSH1 0x20 DUP3 ADD SWAP1 POP SWAP3 SWAP2 POP POP JUMP JUMPDEST PUSH32 0x546869732066756E6374696F6E20616C77617973206661696C73000000000000 PUSH0 DUP3 ADD MSTORE POP JUMP JUMPDEST PUSH0 PUSH2 0x118 PUSH1 0x1A DUP4 PUSH2 0xD4 JUMP JUMPDEST SWAP2 POP PUSH2 0x123 DUP3 PUSH2 0xE4 JUMP JUMPDEST PUSH1 0x20 DUP3 ADD SWAP1 POP SWAP2 SWAP1 POP JUMP JUMPDEST PUSH0 PUSH1 0x20 DUP3 ADD SWAP1 POP DUP2 DUP2 SUB PUSH0 DUP4 ADD MSTORE PUSH2 0x145 DUP2 PUSH2 0x10C JUMP JUMPDEST SWAP1 POP SWAP2 SWAP1 POP JUMP INVALID LOG2 PUSH5 0x6970667358 0x22 SLT KECCAK256 0x26 0xB4 PUSH24 0xCCECED98888FDE9A769AE827E5C997ACBF26937472F99F7C 0x2D 0xEF ISZERO LOG1 PUSH32 0x64736F6C634300081A0033000000000000000000000000000000000000000000 "
				},
				"gasEstimates": {
					"creation": {
						"codeDepositCost": "77200",
						"executionCost": "127",
						"totalCost": "77327"
					},
					"external": {
						"getValue()": "310",
						"willRevert()": "428"
					}
				},
				"methodIdentifiers": {
					"getValue()": "20965255",
					"willRevert()": "73ee93b3"
				}
			},
			"storageLayout": {
				"storage": [],
				"types": null
			},
			"userdoc": {
				"kind": "user",
				"methods": {},
				"version": 1
			}
		}
	}
}