{
	"homework/03/ERC20/MyToken.sol": {
		"MyToken": {
			"abi": [
				{
					"inputs": [],
					"stateMutability": "nonpayable",
					"type": "constructor"
				},
				{
					"inputs": [
						{
							"internalType": "address",
							"name": "spender",
							"type": "address"
						},
						{
							"internalType": "uint256",
							"name": "allowance",
							"type": "uint256"
						},
						{
							"internalType": "uint256",
							"name": "needed",
							"type": "uint256"
						}
					],
					"name": "ERC20InsufficientAllowance",
					"type": "error"
				},
				{
					"inputs": [
						{
							"internalType": "address",
							"name": "sender",
							"type": "address"
						},
						{
							"internalType": "uint256",
							"name": "balance",
							"type": "uint256"
						},
						{
							"internalType": "uint256",
							"name": "needed",
							"type": "uint256"
						}
					],
					"name": "ERC20InsufficientBalance",
					"type": "error"
				},
				{
					"inputs": [
						{
							"internalType": "address",
							"name": "approver",
							"type": "address"
						}
					],
					"name": "ERC20InvalidApprover",
					"type": "error"
				},
				{
					"inputs": [
						{
							"internalType": "address",
							"name": "receiver",
							"type": "address"
						}
					],
					"name": "ERC20InvalidReceiver",
					"type": "error"
				},
				{
					"inputs": [
						{
							"internalType": "address",
							"name": "sender",
							"type": "address"
						}
					],
					"name": "ERC20InvalidSender",
					"type": "error"
				},
				{
					"inputs": [
						{
							"internalType": "address",
							"name": "spender",
							"type": "address"
						}
					],
					"name": "ERC20InvalidSpender",
					"type": "error"
				},
				{
					"anonymous": false,
					"inputs": [
						{
							"indexed": true,
							"internalType": "address",
							"name": "owner",
							"type": "address"
						},
						{
							"indexed": true,
							"internalType": "address",
							"name": "spender",
							"type": "address"
						},
						{
							"indexed": false,
							"internalType": "uint256",
							"name": "value",
							"type": "uint256"
						}
					],
					"name": "Approval",
					"type": "event"
				},
				{
					"anonymous": false,
					"inputs": [
						{
							"indexed": true,
							"internalType": "address",
							"name": "dst",
							"type": "address"
						},
						{
							"indexed": false,
							"internalType": "uint256",
							"name": "wad",
							"type": "uint256"
						}
					],
					"name": "Deposit",
					"type": "event"
				},
				{
					"anonymous": false,
					"inputs": [
						{
							"indexed": true,
							"internalType": "address",
							"name": "from",
							"type": "address"
						},
						{
							"indexed": true,
							"internalType": "address",
							"name": "to",
							"type": "address"
						},
						{
							"indexed": false,
							"internalType": "uint256",
							"name": "value",
							"type": "uint256"
						}
					],
					"name": "Transfer",
					"type": "event"
				},
				{
					"anonymous": false,
					"inputs": [
						{
							"indexed": true,
							"internalType": "address",
							"name": "src",
							"type": "address"
						},
						{
							"indexed": false,
							"internalType": "uint256",
							"name": "wad",
							"type": "uint256"
						}
					],
					"name": "Withdrawal",
					"type": "event"
				},
				{
					"inputs": [
						{
							"internalType": "address",
							"name": "owner",
							"type": "address"
						},
						{
							"internalType": "address",
							"name": "spender",
							"type": "address"
						}
					],
					"name": "allowance",
					"outputs": [
						{
							"internalType": "uint256",
							"name": "",
							"type": "uint256"
						}
					],
					"stateMutability": "view",
					"type": "function"
				},
				{
					"inputs": [
						{
							"internalType": "address",
							"name": "spender",
							"type": "address"
						},
						{
							"internalType": "uint256",
							"name": "value",
							"type": "uint256"
						}
					],
					"name": "approve",
					"outputs": [
						{
							"internalType": "bool",
							"name": "",
							"type": "bool"
						}
					],
					"stateMutability": "nonpayable",
					"type": "function"
				},
				{
					"inputs": [
						{
							"internalType": "address",
							"name": "account",
							"type": "address"
						}
					],
					"name": "balanceOf",
					"outputs": [
						{
							"internalType": "uint256",
							"name": "",
							"type": "uint256"
						}
					],
					"stateMutability": "view",
					"type": "function"
				},
				{
					"inputs": [],
					"name": "decimals",
					"outputs": [
						{
							"internalType": "uint8",
							"name": "",
							"type": "uint8"
						}
					],
					"stateMutability": "view",
					"type": "function"
				},
				{
					"inputs": [],
					"name": "deposit",
					"outputs": [],
					"stateMutability": "payable",
					"type": "function"
				},
				{
					"inputs": [],
					"name": "getBytes4",
					"outputs": [
						{
							"internalType": "bytes4",
							"name": "",
							"type": "bytes4"
						}
					],
					"stateMutability": "pure",
					"type": "function"
				},
				{
					"inputs": [],
					"name": "name",
					"outputs": [
						{
							"internalType": "string",
							"name": "",
							"type": "string"
						}
					],
					"stateMutability": "view",
					"type": "function"
				},
				{
					"inputs": [],
					"name": "symbol",
					"outputs": [
						{
							"internalType": "string",
							"name": "",
							"type": "string"
						}
					],
					"stateMutability": "view",
					"type": "function"
				},
				{
					"inputs": [],
					"name": "totalSupply",
					"outputs": [
						{
							"internalType": "uint256",
							"name": "",
							"type": "uint256"
						}
					],
					"stateMutability": "view",
					"type": "function"
				},
				{
					"inputs": [
						{
							"internalType": "address",
							"name": "to",
							"type": "address"
						},
						{
							"internalType": "uint256",
							"name": "value",
							"type": "uint256"
						}
					],
					"name": "transfer",
					"outputs": [
						{
							"internalType": "bool",
							"name": "",
							"type": "bool"
						}
					],
					"stateMutability": "nonpayable",
					"type": "function"
				},
				{
					"inputs": [
						{
							"internalType": "address",
							"name": "from",
							"type": "address"
						},
						{
							"internalType": "address",
							"name": "to",
							"type": "address"
						},
						{
							"internalType": "uint256",
							"name": "value",
							"type": "uint256"
						}
					],
					"name": "transferFrom",
					"outputs": [
						{
							"internalType": "bool",
							"name": "",
							"type": "bool"
						}
					],
					"stateMutability": "nonpayable",
					"type": "function"
				},
				{
					"inputs": [
						{
							"internalType": "uint256",
							"name": "wad",
							"type": "uint256"
						}
					],
					"name": "withdraw",
					"outputs": [],
					"stateMutability": "nonpayable",
					"type": "function"
				},
				{
					"stateMutability": "payable",
					"type": "receive"
				}
			],
			"devdoc": {
				"errors": {
					"ERC20InsufficientAllowance(address,uint256,uint256)": [
						{
							"details": "Indicates a failure with the `spender`’s `allowance`. Used in transfers.",
							"params": {
								"allowance": "Amount of tokens a `spender` is allowed to operate with.",
								"needed": "Minimum amount required to perform a transfer.",
								"spender": "Address that may be allowed to operate on tokens without being their owner."
							}
						}
					],
					"ERC20InsufficientBalance(address,uint256,uint256)": [
						{
							"details": "Indicates an error related to the current `balance` of a `sender`. Used in transfers.",
							"params": {
								"balance": "Current balance for the interacting account.",
								"needed": "Minimum amount required to perform a transfer.",
								"sender": "Address whose tokens are being transferred."
							}
						}
					],
					"ERC20InvalidApprover(address)": [
						{
							"details": "Indicates a failure with the `approver` of a token to be approved. Used in approvals.",
							"params": {
								"approver": "Address initiating an approval operation."
							}
						}
					],
					"ERC20InvalidReceiver(address)": [
						{
							"details": "Indicates a failure with the token `receiver`. Used in transfers.",
							"params": {
								"receiver": "Address to which tokens are being transferred."
							}
						}
					],
					"ERC20InvalidSender(address)": [
						{
							"details": "Indicates a failure with the token `sender`. Used in transfers.",
							"params": {
								"sender": "Address whose tokens are being transferred."
							}
						}
					],
					"ERC20InvalidSpender(address)": [
						{
							"details": "Indicates a failure with the `spender` to be approved. Used in approvals.",
							"params": {
								"spender": "Address that may be allowed to operate on tokens without being their owner."
							}
						}
					]
				},
				"events": {
					"Approval(address,address,uint256)": {
						"details": "Emitted when the allowance of a `spender` for an `owner` is set by a call to {approve}. `value` is the new allowance."
					},
					"Transfer(address,address,uint256)": {
						"details": "Emitted when `value` tokens are moved from one account (`from`) to another (`to`). Note that `value` may be zero."
					}
				},
				"kind": "dev",
				"methods": {
					"allowance(address,address)": {
						"details": "See {IERC20-allowance}."
					},
					"approve(address,uint256)": {
						"details": "See {IERC20-approve}. NOTE: If `value` is the maximum `uint256`, the allowance is not updated on `transferFrom`. This is semantically equivalent to an infinite approval. Requirements: - `spender` cannot be the zero address."
					},
					"balanceOf(address)": {
						"details": "See {IERC20-balanceOf}."
					},
					"decimals()": {
						"details": "Returns the number of decimals used to get its user representation. For example, if `decimals` equals `2`, a balance of `505` tokens should be displayed to a user as `5.05` (`505 / 10 ** 2`). Tokens usually opt for a value of 18, imitating the relationship between Ether and Wei. This is the default value returned by this function, unless it's overridden. NOTE: This information is only used for _display_ purposes: it in no way affects any of the arithmetic of the contract, including {IERC20-balanceOf} and {IERC20-transfer}."
					},
					"name()": {
						"details": "Returns the name of the token."
					},
					"symbol()": {
						"details": "Returns the symbol of the token, usually a shorter version of the name."
					},
					"totalSupply()": {
						"details": "See {IERC20-totalSupply}."
					},
					"transfer(address,uint256)": {
						"details": "See {IERC20-transfer}. Requirements: - `to` cannot be the zero address. - the caller must have a balance of at least `value`."
					},
					"transferFrom(address,address,uint256)": {
						"details": "See {IERC20-transferFrom}. Skips emitting an {Approval} event indicating an allowance update. This is not required by the ERC. See {xref-ERC20-_approve-address-address-uint256-bool-}[_approve]. NOTE: Does not update the allowance if the current allowance is the maximum `uint256`. Requirements: - `from` and `to` cannot be the zero address. - `from` must have a balance of at least `value`. - the caller must have allowance for ``from``'s tokens of at least `value`."
					}
				},
				"version": 1
			},
			"evm": {
				"assembly": "    /* \"homework/03/ERC20/MyToken.sol\":256:1033  contract MyToken is ERC20(\"aaa\", \"bb\") {... */\n  mstore(0x40, 0x80)\n    /* \"homework/03/ERC20/MyToken.sol\":411:435  constructor() public  {} */\n  callvalue\n  dup1\n  iszero\n  tag_1\n  jumpi\n  0x00\n  dup1\n  revert\ntag_1:\n  pop\n    /* \"homework/library/openzeppelin-contracts-5.1.0/openzeppelin-contracts-5.1.0/contracts/token/ERC20/ERC20.sol\":1601:1714  constructor(string memory name_, string memory symbol_) {... */\n  mload(0x40)\n  dup1\n  0x40\n  add\n  0x40\n  mstore\n  dup1\n  0x03\n  dup2\n  mstore\n  0x20\n  add\n  0x6161610000000000000000000000000000000000000000000000000000000000\n  dup2\n  mstore\n  pop\n  mload(0x40)\n  dup1\n  0x40\n  add\n  0x40\n  mstore\n  dup1\n  0x02\n  dup2\n  mstore\n  0x20\n  add\n  0x6262000000000000000000000000000000000000000000000000000000000000\n  dup2\n  mstore\n  pop\n    /* \"homework/library/openzeppelin-contracts-5.1.0/openzeppelin-contracts-5.1.0/contracts/token/ERC20/ERC20.sol\":1675:1680  name_ */\n  dup2\n    /* \"homework/library/openzeppelin-contracts-5.1.0/openzeppelin-contracts-5.1.0/contracts/token/ERC20/ERC20.sol\":1667:1672  _name */\n  0x03\n    /* \"homework/library/openzeppelin-contracts-5.1.0/openzeppelin-contracts-5.1.0/contracts/token/ERC20/ERC20.sol\":1667:1680  _name = name_ */\n  swap1\n  dup2\n  tag_5\n  swap2\n  swap1\n  tag_6\n  jump\t// in\ntag_5:\n  pop\n    /* \"homework/library/openzeppelin-contracts-5.1.0/openzeppelin-contracts-5.1.0/contracts/token/ERC20/ERC20.sol\":1700:1707  symbol_ */\n  dup1\n    /* \"homework/library/openzeppelin-contracts-5.1.0/openzeppelin-contracts-5.1.0/contracts/token/ERC20/ERC20.sol\":1690:1697  _symbol */\n  0x04\n    /* \"homework/library/openzeppelin-contracts-5.1.0/openzeppelin-contracts-5.1.0/contracts/token/ERC20/ERC20.sol\":1690:1707  _symbol = symbol_ */\n  swap1\n  dup2\n  tag_7\n  swap2\n  swap1\n  tag_6\n  jump\t// in\ntag_7:\n  pop\n    /* \"homework/library/openzeppelin-contracts-5.1.0/openzeppelin-contracts-5.1.0/contracts/token/ERC20/ERC20.sol\":1601:1714  constructor(string memory name_, string memory symbol_) {... */\n  pop\n  pop\n    /* \"homework/03/ERC20/MyToken.sol\":256:1033  contract MyToken is ERC20(\"aaa\", \"bb\") {... */\n  jump(tag_9)\n    /* \"#utility.yul\":7:106   */\ntag_10:\n    /* \"#utility.yul\":59:65   */\n  0x00\n    /* \"#utility.yul\":93:98   */\n  dup2\n    /* \"#utility.yul\":87:99   */\n  mload\n    /* \"#utility.yul\":77:99   */\n  swap1\n  pop\n    /* \"#utility.yul\":7:106   */\n  swap2\n  swap1\n  pop\n  jump\t// out\n    /* \"#utility.yul\":112:292   */\ntag_11:\n    /* \"#utility.yul\":160:237   */\n  0x4e487b7100000000000000000000000000000000000000000000000000000000\n    /* \"#utility.yul\":157:158   */\n  0x00\n    /* \"#utility.yul\":150:238   */\n  mstore\n    /* \"#utility.yul\":257:261   */\n  0x41\n    /* \"#utility.yul\":254:255   */\n  0x04\n    /* \"#utility.yul\":247:262   */\n  mstore\n    /* \"#utility.yul\":281:285   */\n  0x24\n    /* \"#utility.yul\":278:279   */\n  0x00\n    /* \"#utility.yul\":271:286   */\n  revert\n    /* \"#utility.yul\":298:478   */\ntag_12:\n    /* \"#utility.yul\":346:423   */\n  0x4e487b7100000000000000000000000000000000000000000000000000000000\n    /* \"#utility.yul\":343:344   */\n  0x00\n    /* \"#utility.yul\":336:424   */\n  mstore\n    /* \"#utility.yul\":443:447   */\n  0x22\n    /* \"#utility.yul\":440:441   */\n  0x04\n    /* \"#utility.yul\":433:448   */\n  mstore\n    /* \"#utility.yul\":467:471   */\n  0x24\n    /* \"#utility.yul\":464:465   */\n  0x00\n    /* \"#utility.yul\":457:472   */\n  revert\n    /* \"#utility.yul\":484:804   */\ntag_13:\n    /* \"#utility.yul\":528:534   */\n  0x00\n    /* \"#utility.yul\":565:566   */\n  0x02\n    /* \"#utility.yul\":559:563   */\n  dup3\n    /* \"#utility.yul\":555:567   */\n  div\n    /* \"#utility.yul\":545:567   */\n  swap1\n  pop\n    /* \"#utility.yul\":612:613   */\n  0x01\n    /* \"#utility.yul\":606:610   */\n  dup3\n    /* \"#utility.yul\":602:614   */\n  and\n    /* \"#utility.yul\":633:651   */\n  dup1\n    /* \"#utility.yul\":623:704   */\n  tag_35\n  jumpi\n    /* \"#utility.yul\":689:693   */\n  0x7f\n    /* \"#utility.yul\":681:687   */\n  dup3\n    /* \"#utility.yul\":677:694   */\n  and\n    /* \"#utility.yul\":667:694   */\n  swap2\n  pop\n    /* \"#utility.yul\":623:704   */\ntag_35:\n    /* \"#utility.yul\":751:753   */\n  0x20\n    /* \"#utility.yul\":743:749   */\n  dup3\n    /* \"#utility.yul\":740:754   */\n  lt\n    /* \"#utility.yul\":720:738   */\n  dup2\n    /* \"#utility.yul\":717:755   */\n  sub\n    /* \"#utility.yul\":714:798   */\n  tag_36\n  jumpi\n    /* \"#utility.yul\":770:788   */\n  tag_37\n  tag_12\n  jump\t// in\ntag_37:\n    /* \"#utility.yul\":714:798   */\ntag_36:\n    /* \"#utility.yul\":535:804   */\n  pop\n    /* \"#utility.yul\":484:804   */\n  swap2\n  swap1\n  pop\n  jump\t// out\n    /* \"#utility.yul\":810:951   */\ntag_14:\n    /* \"#utility.yul\":859:863   */\n  0x00\n    /* \"#utility.yul\":882:885   */\n  dup2\n    /* \"#utility.yul\":874:885   */\n  swap1\n  pop\n    /* \"#utility.yul\":905:908   */\n  dup2\n    /* \"#utility.yul\":902:903   */\n  0x00\n    /* \"#utility.yul\":895:909   */\n  mstore\n    /* \"#utility.yul\":939:943   */\n  0x20\n    /* \"#utility.yul\":936:937   */\n  0x00\n    /* \"#utility.yul\":926:944   */\n  keccak256\n    /* \"#utility.yul\":918:944   */\n  swap1\n  pop\n    /* \"#utility.yul\":810:951   */\n  swap2\n  swap1\n  pop\n  jump\t// out\n    /* \"#utility.yul\":957:1050   */\ntag_15:\n    /* \"#utility.yul\":994:1000   */\n  0x00\n    /* \"#utility.yul\":1041:1043   */\n  0x20\n    /* \"#utility.yul\":1036:1038   */\n  0x1f\n    /* \"#utility.yul\":1029:1034   */\n  dup4\n    /* \"#utility.yul\":1025:1039   */\n  add\n    /* \"#utility.yul\":1021:1044   */\n  div\n    /* \"#utility.yul\":1011:1044   */\n  swap1\n  pop\n    /* \"#utility.yul\":957:1050   */\n  swap2\n  swap1\n  pop\n  jump\t// out\n    /* \"#utility.yul\":1056:1163   */\ntag_16:\n    /* \"#utility.yul\":1100:1108   */\n  0x00\n    /* \"#utility.yul\":1150:1155   */\n  dup3\n    /* \"#utility.yul\":1144:1148   */\n  dup3\n    /* \"#utility.yul\":1140:1156   */\n  shl\n    /* \"#utility.yul\":1119:1156   */\n  swap1\n  pop\n    /* \"#utility.yul\":1056:1163   */\n  swap3\n  swap2\n  pop\n  pop\n  jump\t// out\n    /* \"#utility.yul\":1169:1562   */\ntag_17:\n    /* \"#utility.yul\":1238:1244   */\n  0x00\n    /* \"#utility.yul\":1288:1289   */\n  0x08\n    /* \"#utility.yul\":1276:1286   */\n  dup4\n    /* \"#utility.yul\":1272:1290   */\n  mul\n    /* \"#utility.yul\":1311:1408   */\n  tag_42\n    /* \"#utility.yul\":1341:1407   */\n  0xffffffffffffffffffffffffffffffffffffffffffffffffffffffffffffffff\n    /* \"#utility.yul\":1330:1339   */\n  dup3\n    /* \"#utility.yul\":1311:1408   */\n  tag_16\n  jump\t// in\ntag_42:\n    /* \"#utility.yul\":1429:1468   */\n  tag_43\n    /* \"#utility.yul\":1459:1467   */\n  dup7\n    /* \"#utility.yul\":1448:1457   */\n  dup4\n    /* \"#utility.yul\":1429:1468   */\n  tag_16\n  jump\t// in\ntag_43:\n    /* \"#utility.yul\":1417:1468   */\n  swap6\n  pop\n    /* \"#utility.yul\":1501:1505   */\n  dup1\n    /* \"#utility.yul\":1497:1506   */\n  not\n    /* \"#utility.yul\":1490:1495   */\n  dup5\n    /* \"#utility.yul\":1486:1507   */\n  and\n    /* \"#utility.yul\":1477:1507   */\n  swap4\n  pop\n    /* \"#utility.yul\":1550:1554   */\n  dup1\n    /* \"#utility.yul\":1540:1548   */\n  dup7\n    /* \"#utility.yul\":1536:1555   */\n  and\n    /* \"#utility.yul\":1529:1534   */\n  dup5\n    /* \"#utility.yul\":1526:1556   */\n  or\n    /* \"#utility.yul\":1516:1556   */\n  swap3\n  pop\n    /* \"#utility.yul\":1245:1562   */\n  pop\n  pop\n    /* \"#utility.yul\":1169:1562   */\n  swap4\n  swap3\n  pop\n  pop\n  pop\n  jump\t// out\n    /* \"#utility.yul\":1568:1645   */\ntag_18:\n    /* \"#utility.yul\":1605:1612   */\n  0x00\n    /* \"#utility.yul\":1634:1639   */\n  dup2\n    /* \"#utility.yul\":1623:1639   */\n  swap1\n  pop\n    /* \"#utility.yul\":1568:1645   */\n  swap2\n  swap1\n  pop\n  jump\t// out\n    /* \"#utility.yul\":1651:1711   */\ntag_19:\n    /* \"#utility.yul\":1679:1682   */\n  0x00\n    /* \"#utility.yul\":1700:1705   */\n  dup2\n    /* \"#utility.yul\":1693:1705   */\n  swap1\n  pop\n    /* \"#utility.yul\":1651:1711   */\n  swap2\n  swap1\n  pop\n  jump\t// out\n    /* \"#utility.yul\":1717:1859   */\ntag_20:\n    /* \"#utility.yul\":1767:1776   */\n  0x00\n    /* \"#utility.yul\":1800:1853   */\n  tag_47\n    /* \"#utility.yul\":1818:1852   */\n  tag_48\n    /* \"#utility.yul\":1827:1851   */\n  tag_49\n    /* \"#utility.yul\":1845:1850   */\n  dup5\n    /* \"#utility.yul\":1827:1851   */\n  tag_18\n  jump\t// in\ntag_49:\n    /* \"#utility.yul\":1818:1852   */\n  tag_19\n  jump\t// in\ntag_48:\n    /* \"#utility.yul\":1800:1853   */\n  tag_18\n  jump\t// in\ntag_47:\n    /* \"#utility.yul\":1787:1853   */\n  swap1\n  pop\n    /* \"#utility.yul\":1717:1859   */\n  swap2\n  swap1\n  pop\n  jump\t// out\n    /* \"#utility.yul\":1865:1940   */\ntag_21:\n    /* \"#utility.yul\":1908:1911   */\n  0x00\n    /* \"#utility.yul\":1929:1934   */\n  dup2\n    /* \"#utility.yul\":1922:1934   */\n  swap1\n  pop\n    /* \"#utility.yul\":1865:1940   */\n  swap2\n  swap1\n  pop\n  jump\t// out\n    /* \"#utility.yul\":1946:2215   */\ntag_22:\n    /* \"#utility.yul\":2056:2095   */\n  tag_52\n    /* \"#utility.yul\":2087:2094   */\n  dup4\n    /* \"#utility.yul\":2056:2095   */\n  tag_20\n  jump\t// in\ntag_52:\n    /* \"#utility.yul\":2117:2208   */\n  tag_53\n    /* \"#utility.yul\":2166:2207   */\n  tag_54\n    /* \"#utility.yul\":2190:2206   */\n  dup3\n    /* \"#utility.yul\":2166:2207   */\n  tag_21\n  jump\t// in\ntag_54:\n    /* \"#utility.yul\":2158:2164   */\n  dup5\n    /* \"#utility.yul\":2151:2155   */\n  dup5\n    /* \"#utility.yul\":2145:2156   */\n  sload\n    /* \"#utility.yul\":2117:2208   */\n  tag_17\n  jump\t// in\ntag_53:\n    /* \"#utility.yul\":2111:2115   */\n  dup3\n    /* \"#utility.yul\":2104:2209   */\n  sstore\n    /* \"#utility.yul\":2022:2215   */\n  pop\n    /* \"#utility.yul\":1946:2215   */\n  pop\n  pop\n  pop\n  jump\t// out\n    /* \"#utility.yul\":2221:2294   */\ntag_23:\n    /* \"#utility.yul\":2266:2269   */\n  0x00\n    /* \"#utility.yul\":2221:2294   */\n  swap1\n  jump\t// out\n    /* \"#utility.yul\":2300:2489   */\ntag_24:\n    /* \"#utility.yul\":2377:2409   */\n  tag_57\n  tag_23\n  jump\t// in\ntag_57:\n    /* \"#utility.yul\":2418:2483   */\n  tag_58\n    /* \"#utility.yul\":2476:2482   */\n  dup2\n    /* \"#utility.yul\":2468:2474   */\n  dup5\n    /* \"#utility.yul\":2462:2466   */\n  dup5\n    /* \"#utility.yul\":2418:2483   */\n  tag_22\n  jump\t// in\ntag_58:\n    /* \"#utility.yul\":2353:2489   */\n  pop\n    /* \"#utility.yul\":2300:2489   */\n  pop\n  pop\n  jump\t// out\n    /* \"#utility.yul\":2495:2681   */\ntag_25:\n    /* \"#utility.yul\":2555:2675   */\ntag_60:\n    /* \"#utility.yul\":2572:2575   */\n  dup2\n    /* \"#utility.yul\":2565:2570   */\n  dup2\n    /* \"#utility.yul\":2562:2576   */\n  lt\n    /* \"#utility.yul\":2555:2675   */\n  iszero\n  tag_62\n  jumpi\n    /* \"#utility.yul\":2626:2665   */\n  tag_63\n    /* \"#utility.yul\":2663:2664   */\n  0x00\n    /* \"#utility.yul\":2656:2661   */\n  dup3\n    /* \"#utility.yul\":2626:2665   */\n  tag_24\n  jump\t// in\ntag_63:\n    /* \"#utility.yul\":2599:2600   */\n  0x01\n    /* \"#utility.yul\":2592:2597   */\n  dup2\n    /* \"#utility.yul\":2588:2601   */\n  add\n    /* \"#utility.yul\":2579:2601   */\n  swap1\n  pop\n    /* \"#utility.yul\":2555:2675   */\n  jump(tag_60)\ntag_62:\n    /* \"#utility.yul\":2495:2681   */\n  pop\n  pop\n  jump\t// out\n    /* \"#utility.yul\":2687:3230   */\ntag_26:\n    /* \"#utility.yul\":2788:2790   */\n  0x1f\n    /* \"#utility.yul\":2783:2786   */\n  dup3\n    /* \"#utility.yul\":2780:2791   */\n  gt\n    /* \"#utility.yul\":2777:3223   */\n  iszero\n  tag_65\n  jumpi\n    /* \"#utility.yul\":2822:2860   */\n  tag_66\n    /* \"#utility.yul\":2854:2859   */\n  dup2\n    /* \"#utility.yul\":2822:2860   */\n  tag_14\n  jump\t// in\ntag_66:\n    /* \"#utility.yul\":2906:2935   */\n  tag_67\n    /* \"#utility.yul\":2924:2934   */\n  dup5\n    /* \"#utility.yul\":2906:2935   */\n  tag_15\n  jump\t// in\ntag_67:\n    /* \"#utility.yul\":2896:2904   */\n  dup2\n    /* \"#utility.yul\":2892:2936   */\n  add\n    /* \"#utility.yul\":3089:3091   */\n  0x20\n    /* \"#utility.yul\":3077:3087   */\n  dup6\n    /* \"#utility.yul\":3074:3092   */\n  lt\n    /* \"#utility.yul\":3071:3120   */\n  iszero\n  tag_68\n  jumpi\n    /* \"#utility.yul\":3110:3118   */\n  dup2\n    /* \"#utility.yul\":3095:3118   */\n  swap1\n  pop\n    /* \"#utility.yul\":3071:3120   */\ntag_68:\n    /* \"#utility.yul\":3133:3213   */\n  tag_69\n    /* \"#utility.yul\":3189:3211   */\n  tag_70\n    /* \"#utility.yul\":3207:3210   */\n  dup6\n    /* \"#utility.yul\":3189:3211   */\n  tag_15\n  jump\t// in\ntag_70:\n    /* \"#utility.yul\":3179:3187   */\n  dup4\n    /* \"#utility.yul\":3175:3212   */\n  add\n    /* \"#utility.yul\":3162:3173   */\n  dup3\n    /* \"#utility.yul\":3133:3213   */\n  tag_25\n  jump\t// in\ntag_69:\n    /* \"#utility.yul\":2792:3223   */\n  pop\n  pop\n    /* \"#utility.yul\":2777:3223   */\ntag_65:\n    /* \"#utility.yul\":2687:3230   */\n  pop\n  pop\n  pop\n  jump\t// out\n    /* \"#utility.yul\":3236:3353   */\ntag_27:\n    /* \"#utility.yul\":3290:3298   */\n  0x00\n    /* \"#utility.yul\":3340:3345   */\n  dup3\n    /* \"#utility.yul\":3334:3338   */\n  dup3\n    /* \"#utility.yul\":3330:3346   */\n  shr\n    /* \"#utility.yul\":3309:3346   */\n  swap1\n  pop\n    /* \"#utility.yul\":3236:3353   */\n  swap3\n  swap2\n  pop\n  pop\n  jump\t// out\n    /* \"#utility.yul\":3359:3528   */\ntag_28:\n    /* \"#utility.yul\":3403:3409   */\n  0x00\n    /* \"#utility.yul\":3436:3487   */\n  tag_73\n    /* \"#utility.yul\":3484:3485   */\n  0x00\n    /* \"#utility.yul\":3480:3486   */\n  not\n    /* \"#utility.yul\":3472:3477   */\n  dup5\n    /* \"#utility.yul\":3469:3470   */\n  0x08\n    /* \"#utility.yul\":3465:3478   */\n  mul\n    /* \"#utility.yul\":3436:3487   */\n  tag_27\n  jump\t// in\ntag_73:\n    /* \"#utility.yul\":3432:3488   */\n  not\n    /* \"#utility.yul\":3517:3521   */\n  dup1\n    /* \"#utility.yul\":3511:3515   */\n  dup4\n    /* \"#utility.yul\":3507:3522   */\n  and\n    /* \"#utility.yul\":3497:3522   */\n  swap2\n  pop\n    /* \"#utility.yul\":3410:3528   */\n  pop\n    /* \"#utility.yul\":3359:3528   */\n  swap3\n  swap2\n  pop\n  pop\n  jump\t// out\n    /* \"#utility.yul\":3533:3828   */\ntag_29:\n    /* \"#utility.yul\":3609:3613   */\n  0x00\n    /* \"#utility.yul\":3755:3784   */\n  tag_75\n    /* \"#utility.yul\":3780:3783   */\n  dup4\n    /* \"#utility.yul\":3774:3778   */\n  dup4\n    /* \"#utility.yul\":3755:3784   */\n  tag_28\n  jump\t// in\ntag_75:\n    /* \"#utility.yul\":3747:3784   */\n  swap2\n  pop\n    /* \"#utility.yul\":3817:3820   */\n  dup3\n    /* \"#utility.yul\":3814:3815   */\n  0x02\n    /* \"#utility.yul\":3810:3821   */\n  mul\n    /* \"#utility.yul\":3804:3808   */\n  dup3\n    /* \"#utility.yul\":3801:3822   */\n  or\n    /* \"#utility.yul\":3793:3822   */\n  swap1\n  pop\n    /* \"#utility.yul\":3533:3828   */\n  swap3\n  swap2\n  pop\n  pop\n  jump\t// out\n    /* \"#utility.yul\":3833:5228   */\ntag_6:\n    /* \"#utility.yul\":3950:3987   */\n  tag_77\n    /* \"#utility.yul\":3983:3986   */\n  dup3\n    /* \"#utility.yul\":3950:3987   */\n  tag_10\n  jump\t// in\ntag_77:\n    /* \"#utility.yul\":4052:4070   */\n  0xffffffffffffffff\n    /* \"#utility.yul\":4044:4050   */\n  dup2\n    /* \"#utility.yul\":4041:4071   */\n  gt\n    /* \"#utility.yul\":4038:4094   */\n  iszero\n  tag_78\n  jumpi\n    /* \"#utility.yul\":4074:4092   */\n  tag_79\n  tag_11\n  jump\t// in\ntag_79:\n    /* \"#utility.yul\":4038:4094   */\ntag_78:\n    /* \"#utility.yul\":4118:4156   */\n  tag_80\n    /* \"#utility.yul\":4150:4154   */\n  dup3\n    /* \"#utility.yul\":4144:4155   */\n  sload\n    /* \"#utility.yul\":4118:4156   */\n  tag_13\n  jump\t// in\ntag_80:\n    /* \"#utility.yul\":4203:4270   */\n  tag_81\n    /* \"#utility.yul\":4263:4269   */\n  dup3\n    /* \"#utility.yul\":4255:4261   */\n  dup3\n    /* \"#utility.yul\":4249:4253   */\n  dup6\n    /* \"#utility.yul\":4203:4270   */\n  tag_26\n  jump\t// in\ntag_81:\n    /* \"#utility.yul\":4297:4298   */\n  0x00\n    /* \"#utility.yul\":4321:4325   */\n  0x20\n    /* \"#utility.yul\":4308:4325   */\n  swap1\n  pop\n    /* \"#utility.yul\":4353:4355   */\n  0x1f\n    /* \"#utility.yul\":4345:4351   */\n  dup4\n    /* \"#utility.yul\":4342:4356   */\n  gt\n    /* \"#utility.yul\":4370:4371   */\n  0x01\n    /* \"#utility.yul\":4365:4983   */\n  dup2\n  eq\n  tag_83\n  jumpi\n    /* \"#utility.yul\":5027:5028   */\n  0x00\n    /* \"#utility.yul\":5044:5050   */\n  dup5\n    /* \"#utility.yul\":5041:5118   */\n  iszero\n  tag_84\n  jumpi\n    /* \"#utility.yul\":5093:5102   */\n  dup3\n    /* \"#utility.yul\":5088:5091   */\n  dup8\n    /* \"#utility.yul\":5084:5103   */\n  add\n    /* \"#utility.yul\":5078:5104   */\n  mload\n    /* \"#utility.yul\":5069:5104   */\n  swap1\n  pop\n    /* \"#utility.yul\":5041:5118   */\ntag_84:\n    /* \"#utility.yul\":5144:5211   */\n  tag_85\n    /* \"#utility.yul\":5204:5210   */\n  dup6\n    /* \"#utility.yul\":5197:5202   */\n  dup3\n    /* \"#utility.yul\":5144:5211   */\n  tag_29\n  jump\t// in\ntag_85:\n    /* \"#utility.yul\":5138:5142   */\n  dup7\n    /* \"#utility.yul\":5131:5212   */\n  sstore\n    /* \"#utility.yul\":5000:5222   */\n  pop\n    /* \"#utility.yul\":4335:5222   */\n  jump(tag_82)\n    /* \"#utility.yul\":4365:4983   */\ntag_83:\n    /* \"#utility.yul\":4417:4421   */\n  0x1f\n    /* \"#utility.yul\":4413:4422   */\n  not\n    /* \"#utility.yul\":4405:4411   */\n  dup5\n    /* \"#utility.yul\":4401:4423   */\n  and\n    /* \"#utility.yul\":4451:4488   */\n  tag_86\n    /* \"#utility.yul\":4483:4487   */\n  dup7\n    /* \"#utility.yul\":4451:4488   */\n  tag_14\n  jump\t// in\ntag_86:\n    /* \"#utility.yul\":4510:4511   */\n  0x00\n    /* \"#utility.yul\":4524:4732   */\ntag_87:\n    /* \"#utility.yul\":4538:4545   */\n  dup3\n    /* \"#utility.yul\":4535:4536   */\n  dup2\n    /* \"#utility.yul\":4532:4546   */\n  lt\n    /* \"#utility.yul\":4524:4732   */\n  iszero\n  tag_89\n  jumpi\n    /* \"#utility.yul\":4617:4626   */\n  dup5\n    /* \"#utility.yul\":4612:4615   */\n  dup10\n    /* \"#utility.yul\":4608:4627   */\n  add\n    /* \"#utility.yul\":4602:4628   */\n  mload\n    /* \"#utility.yul\":4594:4600   */\n  dup3\n    /* \"#utility.yul\":4587:4629   */\n  sstore\n    /* \"#utility.yul\":4668:4669   */\n  0x01\n    /* \"#utility.yul\":4660:4666   */\n  dup3\n    /* \"#utility.yul\":4656:4670   */\n  add\n    /* \"#utility.yul\":4646:4670   */\n  swap2\n  pop\n    /* \"#utility.yul\":4715:4717   */\n  0x20\n    /* \"#utility.yul\":4704:4713   */\n  dup6\n    /* \"#utility.yul\":4700:4718   */\n  add\n    /* \"#utility.yul\":4687:4718   */\n  swap5\n  pop\n    /* \"#utility.yul\":4561:4565   */\n  0x20\n    /* \"#utility.yul\":4558:4559   */\n  dup2\n    /* \"#utility.yul\":4554:4566   */\n  add\n    /* \"#utility.yul\":4549:4566   */\n  swap1\n  pop\n    /* \"#utility.yul\":4524:4732   */\n  jump(tag_87)\ntag_89:\n    /* \"#utility.yul\":4760:4766   */\n  dup7\n    /* \"#utility.yul\":4751:4758   */\n  dup4\n    /* \"#utility.yul\":4748:4767   */\n  lt\n    /* \"#utility.yul\":4745:4924   */\n  iszero\n  tag_90\n  jumpi\n    /* \"#utility.yul\":4818:4827   */\n  dup5\n    /* \"#utility.yul\":4813:4816   */\n  dup10\n    /* \"#utility.yul\":4809:4828   */\n  add\n    /* \"#utility.yul\":4803:4829   */\n  mload\n    /* \"#utility.yul\":4861:4909   */\n  tag_91\n    /* \"#utility.yul\":4903:4907   */\n  0x1f\n    /* \"#utility.yul\":4895:4901   */\n  dup10\n    /* \"#utility.yul\":4891:4908   */\n  and\n    /* \"#utility.yul\":4880:4889   */\n  dup3\n    /* \"#utility.yul\":4861:4909   */\n  tag_28\n  jump\t// in\ntag_91:\n    /* \"#utility.yul\":4853:4859   */\n  dup4\n    /* \"#utility.yul\":4846:4910   */\n  sstore\n    /* \"#utility.yul\":4768:4924   */\n  pop\n    /* \"#utility.yul\":4745:4924   */\ntag_90:\n    /* \"#utility.yul\":4970:4971   */\n  0x01\n    /* \"#utility.yul\":4966:4967   */\n  0x02\n    /* \"#utility.yul\":4958:4964   */\n  dup9\n    /* \"#utility.yul\":4954:4968   */\n  mul\n    /* \"#utility.yul\":4950:4972   */\n  add\n    /* \"#utility.yul\":4944:4948   */\n  dup9\n    /* \"#utility.yul\":4937:4973   */\n  sstore\n    /* \"#utility.yul\":4372:4983   */\n  pop\n  pop\n  pop\n    /* \"#utility.yul\":4335:5222   */\ntag_82:\n  pop\n    /* \"#utility.yul\":3925:5228   */\n  pop\n  pop\n  pop\n    /* \"#utility.yul\":3833:5228   */\n  pop\n  pop\n  jump\t// out\n    /* \"homework/03/ERC20/MyToken.sol\":256:1033  contract MyToken is ERC20(\"aaa\", \"bb\") {... */\ntag_9:\n  dataSize(sub_0)\n  dup1\n  dataOffset(sub_0)\n  0x00\n  codecopy\n  0x00\n  return\nstop\n\nsub_0: assembly {\n        /* \"homework/03/ERC20/MyToken.sol\":256:1033  contract MyToken is ERC20(\"aaa\", \"bb\") {... */\n      mstore(0x40, 0x80)\n      jumpi(tag_1, lt(calldatasize, 0x04))\n      shr(0xe0, calldataload(0x00))\n      dup1\n      0x61d8a17c\n      gt\n      tag_15\n      jumpi\n      dup1\n      0x61d8a17c\n      eq\n      tag_9\n      jumpi\n      dup1\n      0x70a08231\n      eq\n      tag_10\n      jumpi\n      dup1\n      0x95d89b41\n      eq\n      tag_11\n      jumpi\n      dup1\n      0xa9059cbb\n      eq\n      tag_12\n      jumpi\n      dup1\n      0xd0e30db0\n      eq\n      tag_13\n      jumpi\n      dup1\n      0xdd62ed3e\n      eq\n      tag_14\n      jumpi\n      jump(tag_2)\n    tag_15:\n      dup1\n      0x06fdde03\n      eq\n      tag_3\n      jumpi\n      dup1\n      0x095ea7b3\n      eq\n      tag_4\n      jumpi\n      dup1\n      0x18160ddd\n      eq\n      tag_5\n      jumpi\n      dup1\n      0x23b872dd\n      eq\n      tag_6\n      jumpi\n      dup1\n      0x2e1a7d4d\n      eq\n      tag_7\n      jumpi\n      dup1\n      0x313ce567\n      eq\n      tag_8\n      jumpi\n      jump(tag_2)\n    tag_1:\n      jumpi(tag_2, calldatasize)\n        /* \"homework/03/ERC20/MyToken.sol\":592:601  deposit() */\n      tag_18\n        /* \"homework/03/ERC20/MyToken.sol\":592:599  deposit */\n      tag_19\n        /* \"homework/03/ERC20/MyToken.sol\":592:601  deposit() */\n      jump\t// in\n    tag_18:\n        /* \"homework/03/ERC20/MyToken.sol\":256:1033  contract MyToken is ERC20(\"aaa\", \"bb\") {... */\n      stop\n    tag_2:\n      0x00\n      dup1\n      revert\n        /* \"homework/library/openzeppelin-contracts-5.1.0/openzeppelin-contracts-5.1.0/contracts/token/ERC20/ERC20.sol\":1779:1868  function name() public view virtual returns (string memory) {... */\n    tag_3:\n      callvalue\n      dup1\n      iszero\n      tag_20\n      jumpi\n      0x00\n      dup1\n      revert\n    tag_20:\n      pop\n      tag_21\n      tag_22\n      jump\t// in\n    tag_21:\n      mload(0x40)\n      tag_23\n      swap2\n      swap1\n      tag_24\n      jump\t// in\n    tag_23:\n      mload(0x40)\n      dup1\n      swap2\n      sub\n      swap1\n      return\n        /* \"homework/library/openzeppelin-contracts-5.1.0/openzeppelin-contracts-5.1.0/contracts/token/ERC20/ERC20.sol\":3998:4184  function approve(address spender, uint256 value) public virtual returns (bool) {... */\n    tag_4:\n      callvalue\n      dup1\n      iszero\n      tag_25\n      jumpi\n      0x00\n      dup1\n      revert\n    tag_25:\n      pop\n      tag_26\n      0x04\n      dup1\n      calldatasize\n      sub\n      dup2\n      add\n      swap1\n      tag_27\n      swap2\n      swap1\n      tag_28\n      jump\t// in\n    tag_27:\n      tag_29\n      jump\t// in\n    tag_26:\n      mload(0x40)\n      tag_30\n      swap2\n      swap1\n      tag_31\n      jump\t// in\n    tag_30:\n      mload(0x40)\n      dup1\n      swap2\n      sub\n      swap1\n      return\n        /* \"homework/03/ERC20/MyToken.sol\":441:549  function totalSupply() public view override  returns (uint256) {... */\n    tag_5:\n      callvalue\n      dup1\n      iszero\n      tag_32\n      jumpi\n      0x00\n      dup1\n      revert\n    tag_32:\n      pop\n      tag_33\n      tag_34\n      jump\t// in\n    tag_33:\n      mload(0x40)\n      tag_35\n      swap2\n      swap1\n      tag_36\n      jump\t// in\n    tag_35:\n      mload(0x40)\n      dup1\n      swap2\n      sub\n      swap1\n      return\n        /* \"homework/library/openzeppelin-contracts-5.1.0/openzeppelin-contracts-5.1.0/contracts/token/ERC20/ERC20.sol\":4776:5020  function transferFrom(address from, address to, uint256 value) public virtual returns (bool) {... */\n    tag_6:\n      callvalue\n      dup1\n      iszero\n      tag_37\n      jumpi\n      0x00\n      dup1\n      revert\n    tag_37:\n      pop\n      tag_38\n      0x04\n      dup1\n      calldatasize\n      sub\n      dup2\n      add\n      swap1\n      tag_39\n      swap2\n      swap1\n      tag_40\n      jump\t// in\n    tag_39:\n      tag_41\n      jump\t// in\n    tag_38:\n      mload(0x40)\n      tag_42\n      swap2\n      swap1\n      tag_31\n      jump\t// in\n    tag_42:\n      mload(0x40)\n      dup1\n      swap2\n      sub\n      swap1\n      return\n        /* \"homework/03/ERC20/MyToken.sol\":744:907  function withdraw(uint256 wad) public {... */\n    tag_7:\n      callvalue\n      dup1\n      iszero\n      tag_43\n      jumpi\n      0x00\n      dup1\n      revert\n    tag_43:\n      pop\n      tag_44\n      0x04\n      dup1\n      calldatasize\n      sub\n      dup2\n      add\n      swap1\n      tag_45\n      swap2\n      swap1\n      tag_46\n      jump\t// in\n    tag_45:\n      tag_47\n      jump\t// in\n    tag_44:\n      stop\n        /* \"homework/library/openzeppelin-contracts-5.1.0/openzeppelin-contracts-5.1.0/contracts/token/ERC20/ERC20.sol\":2707:2789  function decimals() public view virtual returns (uint8) {... */\n    tag_8:\n      callvalue\n      dup1\n      iszero\n      tag_48\n      jumpi\n      0x00\n      dup1\n      revert\n    tag_48:\n      pop\n      tag_49\n      tag_50\n      jump\t// in\n    tag_49:\n      mload(0x40)\n      tag_51\n      swap2\n      swap1\n      tag_52\n      jump\t// in\n    tag_51:\n      mload(0x40)\n      dup1\n      swap2\n      sub\n      swap1\n      return\n        /* \"homework/03/ERC20/MyToken.sol\":913:1031  function getBytes4()public pure returns (bytes4){... */\n    tag_9:\n      callvalue\n      dup1\n      iszero\n      tag_53\n      jumpi\n      0x00\n      dup1\n      revert\n    tag_53:\n      pop\n      tag_54\n      tag_55\n      jump\t// in\n    tag_54:\n      mload(0x40)\n      tag_56\n      swap2\n      swap1\n      tag_57\n      jump\t// in\n    tag_56:\n      mload(0x40)\n      dup1\n      swap2\n      sub\n      swap1\n      return\n        /* \"homework/library/openzeppelin-contracts-5.1.0/openzeppelin-contracts-5.1.0/contracts/token/ERC20/ERC20.sol\":3004:3120  function balanceOf(address account) public view virtual returns (uint256) {... */\n    tag_10:\n      callvalue\n      dup1\n      iszero\n      tag_58\n      jumpi\n      0x00\n      dup1\n      revert\n    tag_58:\n      pop\n      tag_59\n      0x04\n      dup1\n      calldatasize\n      sub\n      dup2\n      add\n      swap1\n      tag_60\n      swap2\n      swap1\n      tag_61\n      jump\t// in\n    tag_60:\n      tag_62\n      jump\t// in\n    tag_59:\n      mload(0x40)\n      tag_63\n      swap2\n      swap1\n      tag_36\n      jump\t// in\n    tag_63:\n      mload(0x40)\n      dup1\n      swap2\n      sub\n      swap1\n      return\n        /* \"homework/library/openzeppelin-contracts-5.1.0/openzeppelin-contracts-5.1.0/contracts/token/ERC20/ERC20.sol\":1981:2074  function symbol() public view virtual returns (string memory) {... */\n    tag_11:\n      callvalue\n      dup1\n      iszero\n      tag_64\n      jumpi\n      0x00\n      dup1\n      revert\n    tag_64:\n      pop\n      tag_65\n      tag_66\n      jump\t// in\n    tag_65:\n      mload(0x40)\n      tag_67\n      swap2\n      swap1\n      tag_24\n      jump\t// in\n    tag_67:\n      mload(0x40)\n      dup1\n      swap2\n      sub\n      swap1\n      return\n        /* \"homework/library/openzeppelin-contracts-5.1.0/openzeppelin-contracts-5.1.0/contracts/token/ERC20/ERC20.sol\":3315:3493  function transfer(address to, uint256 value) public virtual returns (bool) {... */\n    tag_12:\n      callvalue\n      dup1\n      iszero\n      tag_68\n      jumpi\n      0x00\n      dup1\n      revert\n    tag_68:\n      pop\n      tag_69\n      0x04\n      dup1\n      calldatasize\n      sub\n      dup2\n      add\n      swap1\n      tag_70\n      swap2\n      swap1\n      tag_28\n      jump\t// in\n    tag_70:\n      tag_71\n      jump\t// in\n    tag_69:\n      mload(0x40)\n      tag_72\n      swap2\n      swap1\n      tag_31\n      jump\t// in\n    tag_72:\n      mload(0x40)\n      dup1\n      swap2\n      sub\n      swap1\n      return\n        /* \"homework/03/ERC20/MyToken.sol\":614:738  function deposit() public payable {... */\n    tag_13:\n      tag_73\n      tag_19\n      jump\t// in\n    tag_73:\n      stop\n        /* \"homework/library/openzeppelin-contracts-5.1.0/openzeppelin-contracts-5.1.0/contracts/token/ERC20/ERC20.sol\":3551:3691  function allowance(address owner, address spender) public view virtual returns (uint256) {... */\n    tag_14:\n      callvalue\n      dup1\n      iszero\n      tag_74\n      jumpi\n      0x00\n      dup1\n      revert\n    tag_74:\n      pop\n      tag_75\n      0x04\n      dup1\n      calldatasize\n      sub\n      dup2\n      add\n      swap1\n      tag_76\n      swap2\n      swap1\n      tag_77\n      jump\t// in\n    tag_76:\n      tag_78\n      jump\t// in\n    tag_75:\n      mload(0x40)\n      tag_79\n      swap2\n      swap1\n      tag_36\n      jump\t// in\n    tag_79:\n      mload(0x40)\n      dup1\n      swap2\n      sub\n      swap1\n      return\n        /* \"homework/03/ERC20/MyToken.sol\":614:738  function deposit() public payable {... */\n    tag_19:\n        /* \"homework/03/ERC20/MyToken.sol\":658:686  _mint(msg.sender, msg.value) */\n      tag_81\n        /* \"homework/03/ERC20/MyToken.sol\":664:674  msg.sender */\n      caller\n        /* \"homework/03/ERC20/MyToken.sol\":676:685  msg.value */\n      callvalue\n        /* \"homework/03/ERC20/MyToken.sol\":658:663  _mint */\n      tag_82\n        /* \"homework/03/ERC20/MyToken.sol\":658:686  _mint(msg.sender, msg.value) */\n      jump\t// in\n    tag_81:\n        /* \"homework/03/ERC20/MyToken.sol\":709:719  msg.sender */\n      caller\n        /* \"homework/03/ERC20/MyToken.sol\":701:731  Deposit(msg.sender, msg.value) */\n      0xffffffffffffffffffffffffffffffffffffffff\n      and\n      0xe1fffcc4923d04b559f4d29a8bfc6cda04eb5b0d3c460751c2402c5c5cc9109c\n        /* \"homework/03/ERC20/MyToken.sol\":721:730  msg.value */\n      callvalue\n        /* \"homework/03/ERC20/MyToken.sol\":701:731  Deposit(msg.sender, msg.value) */\n      mload(0x40)\n      tag_83\n      swap2\n      swap1\n      tag_36\n      jump\t// in\n    tag_83:\n      mload(0x40)\n      dup1\n      swap2\n      sub\n      swap1\n      log2\n        /* \"homework/03/ERC20/MyToken.sol\":614:738  function deposit() public payable {... */\n      jump\t// out\n        /* \"homework/library/openzeppelin-contracts-5.1.0/openzeppelin-contracts-5.1.0/contracts/token/ERC20/ERC20.sol\":1779:1868  function name() public view virtual returns (string memory) {... */\n    tag_22:\n        /* \"homework/library/openzeppelin-contracts-5.1.0/openzeppelin-contracts-5.1.0/contracts/token/ERC20/ERC20.sol\":1824:1837  string memory */\n      0x60\n        /* \"homework/library/openzeppelin-contracts-5.1.0/openzeppelin-contracts-5.1.0/contracts/token/ERC20/ERC20.sol\":1856:1861  _name */\n      0x03\n        /* \"homework/library/openzeppelin-contracts-5.1.0/openzeppelin-contracts-5.1.0/contracts/token/ERC20/ERC20.sol\":1849:1861  return _name */\n      dup1\n      sload\n      tag_85\n      swap1\n      tag_86\n      jump\t// in\n    tag_85:\n      dup1\n      0x1f\n      add\n      0x20\n      dup1\n      swap2\n      div\n      mul\n      0x20\n      add\n      mload(0x40)\n      swap1\n      dup2\n      add\n      0x40\n      mstore\n      dup1\n      swap3\n      swap2\n      swap1\n      dup2\n      dup2\n      mstore\n      0x20\n      add\n      dup3\n      dup1\n      sload\n      tag_87\n      swap1\n      tag_86\n      jump\t// in\n    tag_87:\n      dup1\n      iszero\n      tag_88\n      jumpi\n      dup1\n      0x1f\n      lt\n      tag_89\n      jumpi\n      0x0100\n      dup1\n      dup4\n      sload\n      div\n      mul\n      dup4\n      mstore\n      swap2\n      0x20\n      add\n      swap2\n      jump(tag_88)\n    tag_89:\n      dup3\n      add\n      swap2\n      swap1\n      0x00\n      mstore\n      keccak256(0x00, 0x20)\n      swap1\n    tag_90:\n      dup2\n      sload\n      dup2\n      mstore\n      swap1\n      0x01\n      add\n      swap1\n      0x20\n      add\n      dup1\n      dup4\n      gt\n      tag_90\n      jumpi\n      dup3\n      swap1\n      sub\n      0x1f\n      and\n      dup3\n      add\n      swap2\n    tag_88:\n      pop\n      pop\n      pop\n      pop\n      pop\n      swap1\n      pop\n        /* \"homework/library/openzeppelin-contracts-5.1.0/openzeppelin-contracts-5.1.0/contracts/token/ERC20/ERC20.sol\":1779:1868  function name() public view virtual returns (string memory) {... */\n      swap1\n      jump\t// out\n        /* \"homework/library/openzeppelin-contracts-5.1.0/openzeppelin-contracts-5.1.0/contracts/token/ERC20/ERC20.sol\":3998:4184  function approve(address spender, uint256 value) public virtual returns (bool) {... */\n    tag_29:\n        /* \"homework/library/openzeppelin-contracts-5.1.0/openzeppelin-contracts-5.1.0/contracts/token/ERC20/ERC20.sol\":4071:4075  bool */\n      0x00\n        /* \"homework/library/openzeppelin-contracts-5.1.0/openzeppelin-contracts-5.1.0/contracts/token/ERC20/ERC20.sol\":4087:4100  address owner */\n      dup1\n        /* \"homework/library/openzeppelin-contracts-5.1.0/openzeppelin-contracts-5.1.0/contracts/token/ERC20/ERC20.sol\":4103:4115  _msgSender() */\n      tag_92\n        /* \"homework/library/openzeppelin-contracts-5.1.0/openzeppelin-contracts-5.1.0/contracts/token/ERC20/ERC20.sol\":4103:4113  _msgSender */\n      tag_93\n        /* \"homework/library/openzeppelin-contracts-5.1.0/openzeppelin-contracts-5.1.0/contracts/token/ERC20/ERC20.sol\":4103:4115  _msgSender() */\n      jump\t// in\n    tag_92:\n        /* \"homework/library/openzeppelin-contracts-5.1.0/openzeppelin-contracts-5.1.0/contracts/token/ERC20/ERC20.sol\":4087:4115  address owner = _msgSender() */\n      swap1\n      pop\n        /* \"homework/library/openzeppelin-contracts-5.1.0/openzeppelin-contracts-5.1.0/contracts/token/ERC20/ERC20.sol\":4125:4156  _approve(owner, spender, value) */\n      tag_94\n        /* \"homework/library/openzeppelin-contracts-5.1.0/openzeppelin-contracts-5.1.0/contracts/token/ERC20/ERC20.sol\":4134:4139  owner */\n      dup2\n        /* \"homework/library/openzeppelin-contracts-5.1.0/openzeppelin-contracts-5.1.0/contracts/token/ERC20/ERC20.sol\":4141:4148  spender */\n      dup6\n        /* \"homework/library/openzeppelin-contracts-5.1.0/openzeppelin-contracts-5.1.0/contracts/token/ERC20/ERC20.sol\":4150:4155  value */\n      dup6\n        /* \"homework/library/openzeppelin-contracts-5.1.0/openzeppelin-contracts-5.1.0/contracts/token/ERC20/ERC20.sol\":4125:4133  _approve */\n      tag_95\n        /* \"homework/library/openzeppelin-contracts-5.1.0/openzeppelin-contracts-5.1.0/contracts/token/ERC20/ERC20.sol\":4125:4156  _approve(owner, spender, value) */\n      jump\t// in\n    tag_94:\n        /* \"homework/library/openzeppelin-contracts-5.1.0/openzeppelin-contracts-5.1.0/contracts/token/ERC20/ERC20.sol\":4173:4177  true */\n      0x01\n        /* \"homework/library/openzeppelin-contracts-5.1.0/openzeppelin-contracts-5.1.0/contracts/token/ERC20/ERC20.sol\":4166:4177  return true */\n      swap2\n      pop\n      pop\n        /* \"homework/library/openzeppelin-contracts-5.1.0/openzeppelin-contracts-5.1.0/contracts/token/ERC20/ERC20.sol\":3998:4184  function approve(address spender, uint256 value) public virtual returns (bool) {... */\n      swap3\n      swap2\n      pop\n      pop\n      jump\t// out\n        /* \"homework/03/ERC20/MyToken.sol\":441:549  function totalSupply() public view override  returns (uint256) {... */\n    tag_34:\n        /* \"homework/03/ERC20/MyToken.sol\":495:502  uint256 */\n      0x00\n        /* \"homework/03/ERC20/MyToken.sol\":521:542  address(this).balance */\n      selfbalance\n        /* \"homework/03/ERC20/MyToken.sol\":514:542  return address(this).balance */\n      swap1\n      pop\n        /* \"homework/03/ERC20/MyToken.sol\":441:549  function totalSupply() public view override  returns (uint256) {... */\n      swap1\n      jump\t// out\n        /* \"homework/library/openzeppelin-contracts-5.1.0/openzeppelin-contracts-5.1.0/contracts/token/ERC20/ERC20.sol\":4776:5020  function transferFrom(address from, address to, uint256 value) public virtual returns (bool) {... */\n    tag_41:\n        /* \"homework/library/openzeppelin-contracts-5.1.0/openzeppelin-contracts-5.1.0/contracts/token/ERC20/ERC20.sol\":4863:4867  bool */\n      0x00\n        /* \"homework/library/openzeppelin-contracts-5.1.0/openzeppelin-contracts-5.1.0/contracts/token/ERC20/ERC20.sol\":4879:4894  address spender */\n      dup1\n        /* \"homework/library/openzeppelin-contracts-5.1.0/openzeppelin-contracts-5.1.0/contracts/token/ERC20/ERC20.sol\":4897:4909  _msgSender() */\n      tag_98\n        /* \"homework/library/openzeppelin-contracts-5.1.0/openzeppelin-contracts-5.1.0/contracts/token/ERC20/ERC20.sol\":4897:4907  _msgSender */\n      tag_93\n        /* \"homework/library/openzeppelin-contracts-5.1.0/openzeppelin-contracts-5.1.0/contracts/token/ERC20/ERC20.sol\":4897:4909  _msgSender() */\n      jump\t// in\n    tag_98:\n        /* \"homework/library/openzeppelin-contracts-5.1.0/openzeppelin-contracts-5.1.0/contracts/token/ERC20/ERC20.sol\":4879:4909  address spender = _msgSender() */\n      swap1\n      pop\n        /* \"homework/library/openzeppelin-contracts-5.1.0/openzeppelin-contracts-5.1.0/contracts/token/ERC20/ERC20.sol\":4919:4956  _spendAllowance(from, spender, value) */\n      tag_99\n        /* \"homework/library/openzeppelin-contracts-5.1.0/openzeppelin-contracts-5.1.0/contracts/token/ERC20/ERC20.sol\":4935:4939  from */\n      dup6\n        /* \"homework/library/openzeppelin-contracts-5.1.0/openzeppelin-contracts-5.1.0/contracts/token/ERC20/ERC20.sol\":4941:4948  spender */\n      dup3\n        /* \"homework/library/openzeppelin-contracts-5.1.0/openzeppelin-contracts-5.1.0/contracts/token/ERC20/ERC20.sol\":4950:4955  value */\n      dup6\n        /* \"homework/library/openzeppelin-contracts-5.1.0/openzeppelin-contracts-5.1.0/contracts/token/ERC20/ERC20.sol\":4919:4934  _spendAllowance */\n      tag_100\n        /* \"homework/library/openzeppelin-contracts-5.1.0/openzeppelin-contracts-5.1.0/contracts/token/ERC20/ERC20.sol\":4919:4956  _spendAllowance(from, spender, value) */\n      jump\t// in\n    tag_99:\n        /* \"homework/library/openzeppelin-contracts-5.1.0/openzeppelin-contracts-5.1.0/contracts/token/ERC20/ERC20.sol\":4966:4992  _transfer(from, to, value) */\n      tag_101\n        /* \"homework/library/openzeppelin-contracts-5.1.0/openzeppelin-contracts-5.1.0/contracts/token/ERC20/ERC20.sol\":4976:4980  from */\n      dup6\n        /* \"homework/library/openzeppelin-contracts-5.1.0/openzeppelin-contracts-5.1.0/contracts/token/ERC20/ERC20.sol\":4982:4984  to */\n      dup6\n        /* \"homework/library/openzeppelin-contracts-5.1.0/openzeppelin-contracts-5.1.0/contracts/token/ERC20/ERC20.sol\":4986:4991  value */\n      dup6\n        /* \"homework/library/openzeppelin-contracts-5.1.0/openzeppelin-contracts-5.1.0/contracts/token/ERC20/ERC20.sol\":4966:4975  _transfer */\n      tag_102\n        /* \"homework/library/openzeppelin-contracts-5.1.0/openzeppelin-contracts-5.1.0/contracts/token/ERC20/ERC20.sol\":4966:4992  _transfer(from, to, value) */\n      jump\t// in\n    tag_101:\n        /* \"homework/library/openzeppelin-contracts-5.1.0/openzeppelin-contracts-5.1.0/contracts/token/ERC20/ERC20.sol\":5009:5013  true */\n      0x01\n        /* \"homework/library/openzeppelin-contracts-5.1.0/openzeppelin-contracts-5.1.0/contracts/token/ERC20/ERC20.sol\":5002:5013  return true */\n      swap2\n      pop\n      pop\n        /* \"homework/library/openzeppelin-contracts-5.1.0/openzeppelin-contracts-5.1.0/contracts/token/ERC20/ERC20.sol\":4776:5020  function transferFrom(address from, address to, uint256 value) public virtual returns (bool) {... */\n      swap4\n      swap3\n      pop\n      pop\n      pop\n      jump\t// out\n        /* \"homework/03/ERC20/MyToken.sol\":744:907  function withdraw(uint256 wad) public {... */\n    tag_47:\n        /* \"homework/03/ERC20/MyToken.sol\":792:814  _burn(msg.sender, wad) */\n      tag_104\n        /* \"homework/03/ERC20/MyToken.sol\":798:808  msg.sender */\n      caller\n        /* \"homework/03/ERC20/MyToken.sol\":810:813  wad */\n      dup3\n        /* \"homework/03/ERC20/MyToken.sol\":792:797  _burn */\n      tag_105\n        /* \"homework/03/ERC20/MyToken.sol\":792:814  _burn(msg.sender, wad) */\n      jump\t// in\n    tag_104:\n        /* \"homework/03/ERC20/MyToken.sol\":833:843  msg.sender */\n      caller\n        /* \"homework/03/ERC20/MyToken.sol\":824:853  payable (msg.sender).transfer */\n      0xffffffffffffffffffffffffffffffffffffffff\n      and\n        /* \"homework/03/ERC20/MyToken.sol\":824:858  payable (msg.sender).transfer(wad) */\n      0x08fc\n        /* \"homework/03/ERC20/MyToken.sol\":854:857  wad */\n      dup3\n        /* \"homework/03/ERC20/MyToken.sol\":824:858  payable (msg.sender).transfer(wad) */\n      swap1\n      dup2\n      iszero\n      mul\n      swap1\n      mload(0x40)\n      0x00\n      mload(0x40)\n      dup1\n      dup4\n      sub\n      dup2\n      dup6\n      dup9\n      dup9\n      call\n      swap4\n      pop\n      pop\n      pop\n      pop\n      iszero\n      dup1\n      iszero\n      tag_107\n      jumpi\n      returndatasize\n      0x00\n      dup1\n      returndatacopy\n      revert(0x00, returndatasize)\n    tag_107:\n      pop\n        /* \"homework/03/ERC20/MyToken.sol\":884:894  msg.sender */\n      caller\n        /* \"homework/03/ERC20/MyToken.sol\":873:900  Withdrawal(msg.sender, wad) */\n      0xffffffffffffffffffffffffffffffffffffffff\n      and\n      0x7fcf532c15f0a6db0bd6d0e038bea71d30d808c7d98cb3bf7268a95bf5081b65\n        /* \"homework/03/ERC20/MyToken.sol\":896:899  wad */\n      dup3\n        /* \"homework/03/ERC20/MyToken.sol\":873:900  Withdrawal(msg.sender, wad) */\n      mload(0x40)\n      tag_108\n      swap2\n      swap1\n      tag_36\n      jump\t// in\n    tag_108:\n      mload(0x40)\n      dup1\n      swap2\n      sub\n      swap1\n      log2\n        /* \"homework/03/ERC20/MyToken.sol\":744:907  function withdraw(uint256 wad) public {... */\n      pop\n      jump\t// out\n        /* \"homework/library/openzeppelin-contracts-5.1.0/openzeppelin-contracts-5.1.0/contracts/token/ERC20/ERC20.sol\":2707:2789  function decimals() public view virtual returns (uint8) {... */\n    tag_50:\n        /* \"homework/library/openzeppelin-contracts-5.1.0/openzeppelin-contracts-5.1.0/contracts/token/ERC20/ERC20.sol\":2756:2761  uint8 */\n      0x00\n        /* \"homework/library/openzeppelin-contracts-5.1.0/openzeppelin-contracts-5.1.0/contracts/token/ERC20/ERC20.sol\":2780:2782  18 */\n      0x12\n        /* \"homework/library/openzeppelin-contracts-5.1.0/openzeppelin-contracts-5.1.0/contracts/token/ERC20/ERC20.sol\":2773:2782  return 18 */\n      swap1\n      pop\n        /* \"homework/library/openzeppelin-contracts-5.1.0/openzeppelin-contracts-5.1.0/contracts/token/ERC20/ERC20.sol\":2707:2789  function decimals() public view virtual returns (uint8) {... */\n      swap1\n      jump\t// out\n        /* \"homework/03/ERC20/MyToken.sol\":913:1031  function getBytes4()public pure returns (bytes4){... */\n    tag_55:\n        /* \"homework/03/ERC20/MyToken.sol\":954:960  bytes4 */\n      0x00\n        /* \"homework/03/ERC20/MyToken.sol\":985:1023  keccak256('supportsInterface(bytes4)') */\n      0x01ffc9a7a5cef8baa21ed3c5c0d7e23accb804b619e9333b597f47a0d84076e2\n        /* \"homework/03/ERC20/MyToken.sol\":971:1024  return bytes4(keccak256('supportsInterface(bytes4)')) */\n      swap1\n      pop\n        /* \"homework/03/ERC20/MyToken.sol\":913:1031  function getBytes4()public pure returns (bytes4){... */\n      swap1\n      jump\t// out\n        /* \"homework/library/openzeppelin-contracts-5.1.0/openzeppelin-contracts-5.1.0/contracts/token/ERC20/ERC20.sol\":3004:3120  function balanceOf(address account) public view virtual returns (uint256) {... */\n    tag_62:\n        /* \"homework/library/openzeppelin-contracts-5.1.0/openzeppelin-contracts-5.1.0/contracts/token/ERC20/ERC20.sol\":3069:3076  uint256 */\n      0x00\n        /* \"homework/library/openzeppelin-contracts-5.1.0/openzeppelin-contracts-5.1.0/contracts/token/ERC20/ERC20.sol\":3095:3104  _balances */\n      dup1\n        /* \"homework/library/openzeppelin-contracts-5.1.0/openzeppelin-contracts-5.1.0/contracts/token/ERC20/ERC20.sol\":3095:3113  _balances[account] */\n      0x00\n        /* \"homework/library/openzeppelin-contracts-5.1.0/openzeppelin-contracts-5.1.0/contracts/token/ERC20/ERC20.sol\":3105:3112  account */\n      dup4\n        /* \"homework/library/openzeppelin-contracts-5.1.0/openzeppelin-contracts-5.1.0/contracts/token/ERC20/ERC20.sol\":3095:3113  _balances[account] */\n      0xffffffffffffffffffffffffffffffffffffffff\n      and\n      0xffffffffffffffffffffffffffffffffffffffff\n      and\n      dup2\n      mstore\n      0x20\n      add\n      swap1\n      dup2\n      mstore\n      0x20\n      add\n      0x00\n      keccak256\n      sload\n        /* \"homework/library/openzeppelin-contracts-5.1.0/openzeppelin-contracts-5.1.0/contracts/token/ERC20/ERC20.sol\":3088:3113  return _balances[account] */\n      swap1\n      pop\n        /* \"homework/library/openzeppelin-contracts-5.1.0/openzeppelin-contracts-5.1.0/contracts/token/ERC20/ERC20.sol\":3004:3120  function balanceOf(address account) public view virtual returns (uint256) {... */\n      swap2\n      swap1\n      pop\n      jump\t// out\n        /* \"homework/library/openzeppelin-contracts-5.1.0/openzeppelin-contracts-5.1.0/contracts/token/ERC20/ERC20.sol\":1981:2074  function symbol() public view virtual returns (string memory) {... */\n    tag_66:\n        /* \"homework/library/openzeppelin-contracts-5.1.0/openzeppelin-contracts-5.1.0/contracts/token/ERC20/ERC20.sol\":2028:2041  string memory */\n      0x60\n        /* \"homework/library/openzeppelin-contracts-5.1.0/openzeppelin-contracts-5.1.0/contracts/token/ERC20/ERC20.sol\":2060:2067  _symbol */\n      0x04\n        /* \"homework/library/openzeppelin-contracts-5.1.0/openzeppelin-contracts-5.1.0/contracts/token/ERC20/ERC20.sol\":2053:2067  return _symbol */\n      dup1\n      sload\n      tag_113\n      swap1\n      tag_86\n      jump\t// in\n    tag_113:\n      dup1\n      0x1f\n      add\n      0x20\n      dup1\n      swap2\n      div\n      mul\n      0x20\n      add\n      mload(0x40)\n      swap1\n      dup2\n      add\n      0x40\n      mstore\n      dup1\n      swap3\n      swap2\n      swap1\n      dup2\n      dup2\n      mstore\n      0x20\n      add\n      dup3\n      dup1\n      sload\n      tag_114\n      swap1\n      tag_86\n      jump\t// in\n    tag_114:\n      dup1\n      iszero\n      tag_115\n      jumpi\n      dup1\n      0x1f\n      lt\n      tag_116\n      jumpi\n      0x0100\n      dup1\n      dup4\n      sload\n      div\n      mul\n      dup4\n      mstore\n      swap2\n      0x20\n      add\n      swap2\n      jump(tag_115)\n    tag_116:\n      dup3\n      add\n      swap2\n      swap1\n      0x00\n      mstore\n      keccak256(0x00, 0x20)\n      swap1\n    tag_117:\n      dup2\n      sload\n      dup2\n      mstore\n      swap1\n      0x01\n      add\n      swap1\n      0x20\n      add\n      dup1\n      dup4\n      gt\n      tag_117\n      jumpi\n      dup3\n      swap1\n      sub\n      0x1f\n      and\n      dup3\n      add\n      swap2\n    tag_115:\n      pop\n      pop\n      pop\n      pop\n      pop\n      swap1\n      pop\n        /* \"homework/library/openzeppelin-contracts-5.1.0/openzeppelin-contracts-5.1.0/contracts/token/ERC20/ERC20.sol\":1981:2074  function symbol() public view virtual returns (string memory) {... */\n      swap1\n      jump\t// out\n        /* \"homework/library/openzeppelin-contracts-5.1.0/openzeppelin-contracts-5.1.0/contracts/token/ERC20/ERC20.sol\":3315:3493  function transfer(address to, uint256 value) public virtual returns (bool) {... */\n    tag_71:\n        /* \"homework/library/openzeppelin-contracts-5.1.0/openzeppelin-contracts-5.1.0/contracts/token/ERC20/ERC20.sol\":3384:3388  bool */\n      0x00\n        /* \"homework/library/openzeppelin-contracts-5.1.0/openzeppelin-contracts-5.1.0/contracts/token/ERC20/ERC20.sol\":3400:3413  address owner */\n      dup1\n        /* \"homework/library/openzeppelin-contracts-5.1.0/openzeppelin-contracts-5.1.0/contracts/token/ERC20/ERC20.sol\":3416:3428  _msgSender() */\n      tag_119\n        /* \"homework/library/openzeppelin-contracts-5.1.0/openzeppelin-contracts-5.1.0/contracts/token/ERC20/ERC20.sol\":3416:3426  _msgSender */\n      tag_93\n        /* \"homework/library/openzeppelin-contracts-5.1.0/openzeppelin-contracts-5.1.0/contracts/token/ERC20/ERC20.sol\":3416:3428  _msgSender() */\n      jump\t// in\n    tag_119:\n        /* \"homework/library/openzeppelin-contracts-5.1.0/openzeppelin-contracts-5.1.0/contracts/token/ERC20/ERC20.sol\":3400:3428  address owner = _msgSender() */\n      swap1\n      pop\n        /* \"homework/library/openzeppelin-contracts-5.1.0/openzeppelin-contracts-5.1.0/contracts/token/ERC20/ERC20.sol\":3438:3465  _transfer(owner, to, value) */\n      tag_120\n        /* \"homework/library/openzeppelin-contracts-5.1.0/openzeppelin-contracts-5.1.0/contracts/token/ERC20/ERC20.sol\":3448:3453  owner */\n      dup2\n        /* \"homework/library/openzeppelin-contracts-5.1.0/openzeppelin-contracts-5.1.0/contracts/token/ERC20/ERC20.sol\":3455:3457  to */\n      dup6\n        /* \"homework/library/openzeppelin-contracts-5.1.0/openzeppelin-contracts-5.1.0/contracts/token/ERC20/ERC20.sol\":3459:3464  value */\n      dup6\n        /* \"homework/library/openzeppelin-contracts-5.1.0/openzeppelin-contracts-5.1.0/contracts/token/ERC20/ERC20.sol\":3438:3447  _transfer */\n      tag_102\n        /* \"homework/library/openzeppelin-contracts-5.1.0/openzeppelin-contracts-5.1.0/contracts/token/ERC20/ERC20.sol\":3438:3465  _transfer(owner, to, value) */\n      jump\t// in\n    tag_120:\n        /* \"homework/library/openzeppelin-contracts-5.1.0/openzeppelin-contracts-5.1.0/contracts/token/ERC20/ERC20.sol\":3482:3486  true */\n      0x01\n        /* \"homework/library/openzeppelin-contracts-5.1.0/openzeppelin-contracts-5.1.0/contracts/token/ERC20/ERC20.sol\":3475:3486  return true */\n      swap2\n      pop\n      pop\n        /* \"homework/library/openzeppelin-contracts-5.1.0/openzeppelin-contracts-5.1.0/contracts/token/ERC20/ERC20.sol\":3315:3493  function transfer(address to, uint256 value) public virtual returns (bool) {... */\n      swap3\n      swap2\n      pop\n      pop\n      jump\t// out\n        /* \"homework/library/openzeppelin-contracts-5.1.0/openzeppelin-contracts-5.1.0/contracts/token/ERC20/ERC20.sol\":3551:3691  function allowance(address owner, address spender) public view virtual returns (uint256) {... */\n    tag_78:\n        /* \"homework/library/openzeppelin-contracts-5.1.0/openzeppelin-contracts-5.1.0/contracts/token/ERC20/ERC20.sol\":3631:3638  uint256 */\n      0x00\n        /* \"homework/library/openzeppelin-contracts-5.1.0/openzeppelin-contracts-5.1.0/contracts/token/ERC20/ERC20.sol\":3657:3668  _allowances */\n      0x01\n        /* \"homework/library/openzeppelin-contracts-5.1.0/openzeppelin-contracts-5.1.0/contracts/token/ERC20/ERC20.sol\":3657:3675  _allowances[owner] */\n      0x00\n        /* \"homework/library/openzeppelin-contracts-5.1.0/openzeppelin-contracts-5.1.0/contracts/token/ERC20/ERC20.sol\":3669:3674  owner */\n      dup5\n        /* \"homework/library/openzeppelin-contracts-5.1.0/openzeppelin-contracts-5.1.0/contracts/token/ERC20/ERC20.sol\":3657:3675  _allowances[owner] */\n      0xffffffffffffffffffffffffffffffffffffffff\n      and\n      0xffffffffffffffffffffffffffffffffffffffff\n      and\n      dup2\n      mstore\n      0x20\n      add\n      swap1\n      dup2\n      mstore\n      0x20\n      add\n      0x00\n      keccak256\n        /* \"homework/library/openzeppelin-contracts-5.1.0/openzeppelin-contracts-5.1.0/contracts/token/ERC20/ERC20.sol\":3657:3684  _allowances[owner][spender] */\n      0x00\n        /* \"homework/library/openzeppelin-contracts-5.1.0/openzeppelin-contracts-5.1.0/contracts/token/ERC20/ERC20.sol\":3676:3683  spender */\n      dup4\n        /* \"homework/library/openzeppelin-contracts-5.1.0/openzeppelin-contracts-5.1.0/contracts/token/ERC20/ERC20.sol\":3657:3684  _allowances[owner][spender] */\n      0xffffffffffffffffffffffffffffffffffffffff\n      and\n      0xffffffffffffffffffffffffffffffffffffffff\n      and\n      dup2\n      mstore\n      0x20\n      add\n      swap1\n      dup2\n      mstore\n      0x20\n      add\n      0x00\n      keccak256\n      sload\n        /* \"homework/library/openzeppelin-contracts-5.1.0/openzeppelin-contracts-5.1.0/contracts/token/ERC20/ERC20.sol\":3650:3684  return _allowances[owner][spender] */\n      swap1\n      pop\n        /* \"homework/library/openzeppelin-contracts-5.1.0/openzeppelin-contracts-5.1.0/contracts/token/ERC20/ERC20.sol\":3551:3691  function allowance(address owner, address spender) public view virtual returns (uint256) {... */\n      swap3\n      swap2\n      pop\n      pop\n      jump\t// out\n        /* \"homework/library/openzeppelin-contracts-5.1.0/openzeppelin-contracts-5.1.0/contracts/token/ERC20/ERC20.sol\":7458:7666  function _mint(address account, uint256 value) internal {... */\n    tag_82:\n        /* \"homework/library/openzeppelin-contracts-5.1.0/openzeppelin-contracts-5.1.0/contracts/token/ERC20/ERC20.sol\":7547:7548  0 */\n      0x00\n        /* \"homework/library/openzeppelin-contracts-5.1.0/openzeppelin-contracts-5.1.0/contracts/token/ERC20/ERC20.sol\":7528:7549  account == address(0) */\n      0xffffffffffffffffffffffffffffffffffffffff\n      and\n        /* \"homework/library/openzeppelin-contracts-5.1.0/openzeppelin-contracts-5.1.0/contracts/token/ERC20/ERC20.sol\":7528:7535  account */\n      dup3\n        /* \"homework/library/openzeppelin-contracts-5.1.0/openzeppelin-contracts-5.1.0/contracts/token/ERC20/ERC20.sol\":7528:7549  account == address(0) */\n      0xffffffffffffffffffffffffffffffffffffffff\n      and\n      sub\n        /* \"homework/library/openzeppelin-contracts-5.1.0/openzeppelin-contracts-5.1.0/contracts/token/ERC20/ERC20.sol\":7524:7615  if (account == address(0)) {... */\n      tag_123\n      jumpi\n        /* \"homework/library/openzeppelin-contracts-5.1.0/openzeppelin-contracts-5.1.0/contracts/token/ERC20/ERC20.sol\":7601:7602  0 */\n      0x00\n        /* \"homework/library/openzeppelin-contracts-5.1.0/openzeppelin-contracts-5.1.0/contracts/token/ERC20/ERC20.sol\":7572:7604  ERC20InvalidReceiver(address(0)) */\n      mload(0x40)\n      0xec442f0500000000000000000000000000000000000000000000000000000000\n      dup2\n      mstore\n      0x04\n      add\n      tag_124\n      swap2\n      swap1\n      tag_125\n      jump\t// in\n    tag_124:\n      mload(0x40)\n      dup1\n      swap2\n      sub\n      swap1\n      revert\n        /* \"homework/library/openzeppelin-contracts-5.1.0/openzeppelin-contracts-5.1.0/contracts/token/ERC20/ERC20.sol\":7524:7615  if (account == address(0)) {... */\n    tag_123:\n        /* \"homework/library/openzeppelin-contracts-5.1.0/openzeppelin-contracts-5.1.0/contracts/token/ERC20/ERC20.sol\":7624:7659  _update(address(0), account, value) */\n      tag_126\n        /* \"homework/library/openzeppelin-contracts-5.1.0/openzeppelin-contracts-5.1.0/contracts/token/ERC20/ERC20.sol\":7640:7641  0 */\n      0x00\n        /* \"homework/library/openzeppelin-contracts-5.1.0/openzeppelin-contracts-5.1.0/contracts/token/ERC20/ERC20.sol\":7644:7651  account */\n      dup4\n        /* \"homework/library/openzeppelin-contracts-5.1.0/openzeppelin-contracts-5.1.0/contracts/token/ERC20/ERC20.sol\":7653:7658  value */\n      dup4\n        /* \"homework/library/openzeppelin-contracts-5.1.0/openzeppelin-contracts-5.1.0/contracts/token/ERC20/ERC20.sol\":7624:7631  _update */\n      tag_127\n        /* \"homework/library/openzeppelin-contracts-5.1.0/openzeppelin-contracts-5.1.0/contracts/token/ERC20/ERC20.sol\":7624:7659  _update(address(0), account, value) */\n      jump\t// in\n    tag_126:\n        /* \"homework/library/openzeppelin-contracts-5.1.0/openzeppelin-contracts-5.1.0/contracts/token/ERC20/ERC20.sol\":7458:7666  function _mint(address account, uint256 value) internal {... */\n      pop\n      pop\n      jump\t// out\n        /* \"homework/library/openzeppelin-contracts-5.1.0/openzeppelin-contracts-5.1.0/contracts/utils/Context.sol\":656:752  function _msgSender() internal view virtual returns (address) {... */\n    tag_93:\n        /* \"homework/library/openzeppelin-contracts-5.1.0/openzeppelin-contracts-5.1.0/contracts/utils/Context.sol\":709:716  address */\n      0x00\n        /* \"homework/library/openzeppelin-contracts-5.1.0/openzeppelin-contracts-5.1.0/contracts/utils/Context.sol\":735:745  msg.sender */\n      caller\n        /* \"homework/library/openzeppelin-contracts-5.1.0/openzeppelin-contracts-5.1.0/contracts/utils/Context.sol\":728:745  return msg.sender */\n      swap1\n      pop\n        /* \"homework/library/openzeppelin-contracts-5.1.0/openzeppelin-contracts-5.1.0/contracts/utils/Context.sol\":656:752  function _msgSender() internal view virtual returns (address) {... */\n      swap1\n      jump\t// out\n        /* \"homework/library/openzeppelin-contracts-5.1.0/openzeppelin-contracts-5.1.0/contracts/token/ERC20/ERC20.sol\":8726:8854  function _approve(address owner, address spender, uint256 value) internal {... */\n    tag_95:\n        /* \"homework/library/openzeppelin-contracts-5.1.0/openzeppelin-contracts-5.1.0/contracts/token/ERC20/ERC20.sol\":8810:8847  _approve(owner, spender, value, true) */\n      tag_130\n        /* \"homework/library/openzeppelin-contracts-5.1.0/openzeppelin-contracts-5.1.0/contracts/token/ERC20/ERC20.sol\":8819:8824  owner */\n      dup4\n        /* \"homework/library/openzeppelin-contracts-5.1.0/openzeppelin-contracts-5.1.0/contracts/token/ERC20/ERC20.sol\":8826:8833  spender */\n      dup4\n        /* \"homework/library/openzeppelin-contracts-5.1.0/openzeppelin-contracts-5.1.0/contracts/token/ERC20/ERC20.sol\":8835:8840  value */\n      dup4\n        /* \"homework/library/openzeppelin-contracts-5.1.0/openzeppelin-contracts-5.1.0/contracts/token/ERC20/ERC20.sol\":8842:8846  true */\n      0x01\n        /* \"homework/library/openzeppelin-contracts-5.1.0/openzeppelin-contracts-5.1.0/contracts/token/ERC20/ERC20.sol\":8810:8818  _approve */\n      tag_131\n        /* \"homework/library/openzeppelin-contracts-5.1.0/openzeppelin-contracts-5.1.0/contracts/token/ERC20/ERC20.sol\":8810:8847  _approve(owner, spender, value, true) */\n      jump\t// in\n    tag_130:\n        /* \"homework/library/openzeppelin-contracts-5.1.0/openzeppelin-contracts-5.1.0/contracts/token/ERC20/ERC20.sol\":8726:8854  function _approve(address owner, address spender, uint256 value) internal {... */\n      pop\n      pop\n      pop\n      jump\t// out\n        /* \"homework/library/openzeppelin-contracts-5.1.0/openzeppelin-contracts-5.1.0/contracts/token/ERC20/ERC20.sol\":10415:10892  function _spendAllowance(address owner, address spender, uint256 value) internal virtual {... */\n    tag_100:\n        /* \"homework/library/openzeppelin-contracts-5.1.0/openzeppelin-contracts-5.1.0/contracts/token/ERC20/ERC20.sol\":10514:10538  uint256 currentAllowance */\n      0x00\n        /* \"homework/library/openzeppelin-contracts-5.1.0/openzeppelin-contracts-5.1.0/contracts/token/ERC20/ERC20.sol\":10541:10566  allowance(owner, spender) */\n      tag_133\n        /* \"homework/library/openzeppelin-contracts-5.1.0/openzeppelin-contracts-5.1.0/contracts/token/ERC20/ERC20.sol\":10551:10556  owner */\n      dup5\n        /* \"homework/library/openzeppelin-contracts-5.1.0/openzeppelin-contracts-5.1.0/contracts/token/ERC20/ERC20.sol\":10558:10565  spender */\n      dup5\n        /* \"homework/library/openzeppelin-contracts-5.1.0/openzeppelin-contracts-5.1.0/contracts/token/ERC20/ERC20.sol\":10541:10550  allowance */\n      tag_78\n        /* \"homework/library/openzeppelin-contracts-5.1.0/openzeppelin-contracts-5.1.0/contracts/token/ERC20/ERC20.sol\":10541:10566  allowance(owner, spender) */\n      jump\t// in\n    tag_133:\n        /* \"homework/library/openzeppelin-contracts-5.1.0/openzeppelin-contracts-5.1.0/contracts/token/ERC20/ERC20.sol\":10514:10566  uint256 currentAllowance = allowance(owner, spender) */\n      swap1\n      pop\n        /* \"homework/library/openzeppelin-contracts-5.1.0/openzeppelin-contracts-5.1.0/contracts/token/ERC20/ERC20.sol\":10600:10617  type(uint256).max */\n      0xffffffffffffffffffffffffffffffffffffffffffffffffffffffffffffffff\n        /* \"homework/library/openzeppelin-contracts-5.1.0/openzeppelin-contracts-5.1.0/contracts/token/ERC20/ERC20.sol\":10580:10596  currentAllowance */\n      dup2\n        /* \"homework/library/openzeppelin-contracts-5.1.0/openzeppelin-contracts-5.1.0/contracts/token/ERC20/ERC20.sol\":10580:10617  currentAllowance != type(uint256).max */\n      eq\n        /* \"homework/library/openzeppelin-contracts-5.1.0/openzeppelin-contracts-5.1.0/contracts/token/ERC20/ERC20.sol\":10576:10886  if (currentAllowance != type(uint256).max) {... */\n      tag_134\n      jumpi\n        /* \"homework/library/openzeppelin-contracts-5.1.0/openzeppelin-contracts-5.1.0/contracts/token/ERC20/ERC20.sol\":10656:10661  value */\n      dup2\n        /* \"homework/library/openzeppelin-contracts-5.1.0/openzeppelin-contracts-5.1.0/contracts/token/ERC20/ERC20.sol\":10637:10653  currentAllowance */\n      dup2\n        /* \"homework/library/openzeppelin-contracts-5.1.0/openzeppelin-contracts-5.1.0/contracts/token/ERC20/ERC20.sol\":10637:10661  currentAllowance < value */\n      lt\n        /* \"homework/library/openzeppelin-contracts-5.1.0/openzeppelin-contracts-5.1.0/contracts/token/ERC20/ERC20.sol\":10633:10763  if (currentAllowance < value) {... */\n      iszero\n      tag_135\n      jumpi\n        /* \"homework/library/openzeppelin-contracts-5.1.0/openzeppelin-contracts-5.1.0/contracts/token/ERC20/ERC20.sol\":10715:10722  spender */\n      dup3\n        /* \"homework/library/openzeppelin-contracts-5.1.0/openzeppelin-contracts-5.1.0/contracts/token/ERC20/ERC20.sol\":10724:10740  currentAllowance */\n      dup2\n        /* \"homework/library/openzeppelin-contracts-5.1.0/openzeppelin-contracts-5.1.0/contracts/token/ERC20/ERC20.sol\":10742:10747  value */\n      dup4\n        /* \"homework/library/openzeppelin-contracts-5.1.0/openzeppelin-contracts-5.1.0/contracts/token/ERC20/ERC20.sol\":10688:10748  ERC20InsufficientAllowance(spender, currentAllowance, value) */\n      mload(0x40)\n      0xfb8f41b200000000000000000000000000000000000000000000000000000000\n      dup2\n      mstore\n      0x04\n      add\n      tag_136\n      swap4\n      swap3\n      swap2\n      swap1\n      tag_137\n      jump\t// in\n    tag_136:\n      mload(0x40)\n      dup1\n      swap2\n      sub\n      swap1\n      revert\n        /* \"homework/library/openzeppelin-contracts-5.1.0/openzeppelin-contracts-5.1.0/contracts/token/ERC20/ERC20.sol\":10633:10763  if (currentAllowance < value) {... */\n    tag_135:\n        /* \"homework/library/openzeppelin-contracts-5.1.0/openzeppelin-contracts-5.1.0/contracts/token/ERC20/ERC20.sol\":10804:10861  _approve(owner, spender, currentAllowance - value, false) */\n      tag_138\n        /* \"homework/library/openzeppelin-contracts-5.1.0/openzeppelin-contracts-5.1.0/contracts/token/ERC20/ERC20.sol\":10813:10818  owner */\n      dup5\n        /* \"homework/library/openzeppelin-contracts-5.1.0/openzeppelin-contracts-5.1.0/contracts/token/ERC20/ERC20.sol\":10820:10827  spender */\n      dup5\n        /* \"homework/library/openzeppelin-contracts-5.1.0/openzeppelin-contracts-5.1.0/contracts/token/ERC20/ERC20.sol\":10848:10853  value */\n      dup5\n        /* \"homework/library/openzeppelin-contracts-5.1.0/openzeppelin-contracts-5.1.0/contracts/token/ERC20/ERC20.sol\":10829:10845  currentAllowance */\n      dup5\n        /* \"homework/library/openzeppelin-contracts-5.1.0/openzeppelin-contracts-5.1.0/contracts/token/ERC20/ERC20.sol\":10829:10853  currentAllowance - value */\n      sub\n        /* \"homework/library/openzeppelin-contracts-5.1.0/openzeppelin-contracts-5.1.0/contracts/token/ERC20/ERC20.sol\":10855:10860  false */\n      0x00\n        /* \"homework/library/openzeppelin-contracts-5.1.0/openzeppelin-contracts-5.1.0/contracts/token/ERC20/ERC20.sol\":10804:10812  _approve */\n      tag_131\n        /* \"homework/library/openzeppelin-contracts-5.1.0/openzeppelin-contracts-5.1.0/contracts/token/ERC20/ERC20.sol\":10804:10861  _approve(owner, spender, currentAllowance - value, false) */\n      jump\t// in\n    tag_138:\n        /* \"homework/library/openzeppelin-contracts-5.1.0/openzeppelin-contracts-5.1.0/contracts/token/ERC20/ERC20.sol\":10576:10886  if (currentAllowance != type(uint256).max) {... */\n    tag_134:\n        /* \"homework/library/openzeppelin-contracts-5.1.0/openzeppelin-contracts-5.1.0/contracts/token/ERC20/ERC20.sol\":10504:10892  {... */\n      pop\n        /* \"homework/library/openzeppelin-contracts-5.1.0/openzeppelin-contracts-5.1.0/contracts/token/ERC20/ERC20.sol\":10415:10892  function _spendAllowance(address owner, address spender, uint256 value) internal virtual {... */\n      pop\n      pop\n      pop\n      jump\t// out\n        /* \"homework/library/openzeppelin-contracts-5.1.0/openzeppelin-contracts-5.1.0/contracts/token/ERC20/ERC20.sol\":5393:5693  function _transfer(address from, address to, uint256 value) internal {... */\n    tag_102:\n        /* \"homework/library/openzeppelin-contracts-5.1.0/openzeppelin-contracts-5.1.0/contracts/token/ERC20/ERC20.sol\":5492:5493  0 */\n      0x00\n        /* \"homework/library/openzeppelin-contracts-5.1.0/openzeppelin-contracts-5.1.0/contracts/token/ERC20/ERC20.sol\":5476:5494  from == address(0) */\n      0xffffffffffffffffffffffffffffffffffffffff\n      and\n        /* \"homework/library/openzeppelin-contracts-5.1.0/openzeppelin-contracts-5.1.0/contracts/token/ERC20/ERC20.sol\":5476:5480  from */\n      dup4\n        /* \"homework/library/openzeppelin-contracts-5.1.0/openzeppelin-contracts-5.1.0/contracts/token/ERC20/ERC20.sol\":5476:5494  from == address(0) */\n      0xffffffffffffffffffffffffffffffffffffffff\n      and\n      sub\n        /* \"homework/library/openzeppelin-contracts-5.1.0/openzeppelin-contracts-5.1.0/contracts/token/ERC20/ERC20.sol\":5472:5558  if (from == address(0)) {... */\n      tag_140\n      jumpi\n        /* \"homework/library/openzeppelin-contracts-5.1.0/openzeppelin-contracts-5.1.0/contracts/token/ERC20/ERC20.sol\":5544:5545  0 */\n      0x00\n        /* \"homework/library/openzeppelin-contracts-5.1.0/openzeppelin-contracts-5.1.0/contracts/token/ERC20/ERC20.sol\":5517:5547  ERC20InvalidSender(address(0)) */\n      mload(0x40)\n      0x96c6fd1e00000000000000000000000000000000000000000000000000000000\n      dup2\n      mstore\n      0x04\n      add\n      tag_141\n      swap2\n      swap1\n      tag_125\n      jump\t// in\n    tag_141:\n      mload(0x40)\n      dup1\n      swap2\n      sub\n      swap1\n      revert\n        /* \"homework/library/openzeppelin-contracts-5.1.0/openzeppelin-contracts-5.1.0/contracts/token/ERC20/ERC20.sol\":5472:5558  if (from == address(0)) {... */\n    tag_140:\n        /* \"homework/library/openzeppelin-contracts-5.1.0/openzeppelin-contracts-5.1.0/contracts/token/ERC20/ERC20.sol\":5585:5586  0 */\n      0x00\n        /* \"homework/library/openzeppelin-contracts-5.1.0/openzeppelin-contracts-5.1.0/contracts/token/ERC20/ERC20.sol\":5571:5587  to == address(0) */\n      0xffffffffffffffffffffffffffffffffffffffff\n      and\n        /* \"homework/library/openzeppelin-contracts-5.1.0/openzeppelin-contracts-5.1.0/contracts/token/ERC20/ERC20.sol\":5571:5573  to */\n      dup3\n        /* \"homework/library/openzeppelin-contracts-5.1.0/openzeppelin-contracts-5.1.0/contracts/token/ERC20/ERC20.sol\":5571:5587  to == address(0) */\n      0xffffffffffffffffffffffffffffffffffffffff\n      and\n      sub\n        /* \"homework/library/openzeppelin-contracts-5.1.0/openzeppelin-contracts-5.1.0/contracts/token/ERC20/ERC20.sol\":5567:5653  if (to == address(0)) {... */\n      tag_142\n      jumpi\n        /* \"homework/library/openzeppelin-contracts-5.1.0/openzeppelin-contracts-5.1.0/contracts/token/ERC20/ERC20.sol\":5639:5640  0 */\n      0x00\n        /* \"homework/library/openzeppelin-contracts-5.1.0/openzeppelin-contracts-5.1.0/contracts/token/ERC20/ERC20.sol\":5610:5642  ERC20InvalidReceiver(address(0)) */\n      mload(0x40)\n      0xec442f0500000000000000000000000000000000000000000000000000000000\n      dup2\n      mstore\n      0x04\n      add\n      tag_143\n      swap2\n      swap1\n      tag_125\n      jump\t// in\n    tag_143:\n      mload(0x40)\n      dup1\n      swap2\n      sub\n      swap1\n      revert\n        /* \"homework/library/openzeppelin-contracts-5.1.0/openzeppelin-contracts-5.1.0/contracts/token/ERC20/ERC20.sol\":5567:5653  if (to == address(0)) {... */\n    tag_142:\n        /* \"homework/library/openzeppelin-contracts-5.1.0/openzeppelin-contracts-5.1.0/contracts/token/ERC20/ERC20.sol\":5662:5686  _update(from, to, value) */\n      tag_144\n        /* \"homework/library/openzeppelin-contracts-5.1.0/openzeppelin-contracts-5.1.0/contracts/token/ERC20/ERC20.sol\":5670:5674  from */\n      dup4\n        /* \"homework/library/openzeppelin-contracts-5.1.0/openzeppelin-contracts-5.1.0/contracts/token/ERC20/ERC20.sol\":5676:5678  to */\n      dup4\n        /* \"homework/library/openzeppelin-contracts-5.1.0/openzeppelin-contracts-5.1.0/contracts/token/ERC20/ERC20.sol\":5680:5685  value */\n      dup4\n        /* \"homework/library/openzeppelin-contracts-5.1.0/openzeppelin-contracts-5.1.0/contracts/token/ERC20/ERC20.sol\":5662:5669  _update */\n      tag_127\n        /* \"homework/library/openzeppelin-contracts-5.1.0/openzeppelin-contracts-5.1.0/contracts/token/ERC20/ERC20.sol\":5662:5686  _update(from, to, value) */\n      jump\t// in\n    tag_144:\n        /* \"homework/library/openzeppelin-contracts-5.1.0/openzeppelin-contracts-5.1.0/contracts/token/ERC20/ERC20.sol\":5393:5693  function _transfer(address from, address to, uint256 value) internal {... */\n      pop\n      pop\n      pop\n      jump\t// out\n        /* \"homework/library/openzeppelin-contracts-5.1.0/openzeppelin-contracts-5.1.0/contracts/token/ERC20/ERC20.sol\":7984:8190  function _burn(address account, uint256 value) internal {... */\n    tag_105:\n        /* \"homework/library/openzeppelin-contracts-5.1.0/openzeppelin-contracts-5.1.0/contracts/token/ERC20/ERC20.sol\":8073:8074  0 */\n      0x00\n        /* \"homework/library/openzeppelin-contracts-5.1.0/openzeppelin-contracts-5.1.0/contracts/token/ERC20/ERC20.sol\":8054:8075  account == address(0) */\n      0xffffffffffffffffffffffffffffffffffffffff\n      and\n        /* \"homework/library/openzeppelin-contracts-5.1.0/openzeppelin-contracts-5.1.0/contracts/token/ERC20/ERC20.sol\":8054:8061  account */\n      dup3\n        /* \"homework/library/openzeppelin-contracts-5.1.0/openzeppelin-contracts-5.1.0/contracts/token/ERC20/ERC20.sol\":8054:8075  account == address(0) */\n      0xffffffffffffffffffffffffffffffffffffffff\n      and\n      sub\n        /* \"homework/library/openzeppelin-contracts-5.1.0/openzeppelin-contracts-5.1.0/contracts/token/ERC20/ERC20.sol\":8050:8139  if (account == address(0)) {... */\n      tag_146\n      jumpi\n        /* \"homework/library/openzeppelin-contracts-5.1.0/openzeppelin-contracts-5.1.0/contracts/token/ERC20/ERC20.sol\":8125:8126  0 */\n      0x00\n        /* \"homework/library/openzeppelin-contracts-5.1.0/openzeppelin-contracts-5.1.0/contracts/token/ERC20/ERC20.sol\":8098:8128  ERC20InvalidSender(address(0)) */\n      mload(0x40)\n      0x96c6fd1e00000000000000000000000000000000000000000000000000000000\n      dup2\n      mstore\n      0x04\n      add\n      tag_147\n      swap2\n      swap1\n      tag_125\n      jump\t// in\n    tag_147:\n      mload(0x40)\n      dup1\n      swap2\n      sub\n      swap1\n      revert\n        /* \"homework/library/openzeppelin-contracts-5.1.0/openzeppelin-contracts-5.1.0/contracts/token/ERC20/ERC20.sol\":8050:8139  if (account == address(0)) {... */\n    tag_146:\n        /* \"homework/library/openzeppelin-contracts-5.1.0/openzeppelin-contracts-5.1.0/contracts/token/ERC20/ERC20.sol\":8148:8183  _update(account, address(0), value) */\n      tag_148\n        /* \"homework/library/openzeppelin-contracts-5.1.0/openzeppelin-contracts-5.1.0/contracts/token/ERC20/ERC20.sol\":8156:8163  account */\n      dup3\n        /* \"homework/library/openzeppelin-contracts-5.1.0/openzeppelin-contracts-5.1.0/contracts/token/ERC20/ERC20.sol\":8173:8174  0 */\n      0x00\n        /* \"homework/library/openzeppelin-contracts-5.1.0/openzeppelin-contracts-5.1.0/contracts/token/ERC20/ERC20.sol\":8177:8182  value */\n      dup4\n        /* \"homework/library/openzeppelin-contracts-5.1.0/openzeppelin-contracts-5.1.0/contracts/token/ERC20/ERC20.sol\":8148:8155  _update */\n      tag_127\n        /* \"homework/library/openzeppelin-contracts-5.1.0/openzeppelin-contracts-5.1.0/contracts/token/ERC20/ERC20.sol\":8148:8183  _update(account, address(0), value) */\n      jump\t// in\n    tag_148:\n        /* \"homework/library/openzeppelin-contracts-5.1.0/openzeppelin-contracts-5.1.0/contracts/token/ERC20/ERC20.sol\":7984:8190  function _burn(address account, uint256 value) internal {... */\n      pop\n      pop\n      jump\t// out\n        /* \"homework/library/openzeppelin-contracts-5.1.0/openzeppelin-contracts-5.1.0/contracts/token/ERC20/ERC20.sol\":6008:7115  function _update(address from, address to, uint256 value) internal virtual {... */\n    tag_127:\n        /* \"homework/library/openzeppelin-contracts-5.1.0/openzeppelin-contracts-5.1.0/contracts/token/ERC20/ERC20.sol\":6113:6114  0 */\n      0x00\n        /* \"homework/library/openzeppelin-contracts-5.1.0/openzeppelin-contracts-5.1.0/contracts/token/ERC20/ERC20.sol\":6097:6115  from == address(0) */\n      0xffffffffffffffffffffffffffffffffffffffff\n      and\n        /* \"homework/library/openzeppelin-contracts-5.1.0/openzeppelin-contracts-5.1.0/contracts/token/ERC20/ERC20.sol\":6097:6101  from */\n      dup4\n        /* \"homework/library/openzeppelin-contracts-5.1.0/openzeppelin-contracts-5.1.0/contracts/token/ERC20/ERC20.sol\":6097:6115  from == address(0) */\n      0xffffffffffffffffffffffffffffffffffffffff\n      and\n      sub\n        /* \"homework/library/openzeppelin-contracts-5.1.0/openzeppelin-contracts-5.1.0/contracts/token/ERC20/ERC20.sol\":6093:6633  if (from == address(0)) {... */\n      tag_150\n      jumpi\n        /* \"homework/library/openzeppelin-contracts-5.1.0/openzeppelin-contracts-5.1.0/contracts/token/ERC20/ERC20.sol\":6249:6254  value */\n      dup1\n        /* \"homework/library/openzeppelin-contracts-5.1.0/openzeppelin-contracts-5.1.0/contracts/token/ERC20/ERC20.sol\":6233:6245  _totalSupply */\n      0x02\n      0x00\n        /* \"homework/library/openzeppelin-contracts-5.1.0/openzeppelin-contracts-5.1.0/contracts/token/ERC20/ERC20.sol\":6233:6254  _totalSupply += value */\n      dup3\n      dup3\n      sload\n      tag_151\n      swap2\n      swap1\n      tag_152\n      jump\t// in\n    tag_151:\n      swap3\n      pop\n      pop\n      dup2\n      swap1\n      sstore\n      pop\n        /* \"homework/library/openzeppelin-contracts-5.1.0/openzeppelin-contracts-5.1.0/contracts/token/ERC20/ERC20.sol\":6093:6633  if (from == address(0)) {... */\n      jump(tag_153)\n    tag_150:\n        /* \"homework/library/openzeppelin-contracts-5.1.0/openzeppelin-contracts-5.1.0/contracts/token/ERC20/ERC20.sol\":6285:6304  uint256 fromBalance */\n      0x00\n        /* \"homework/library/openzeppelin-contracts-5.1.0/openzeppelin-contracts-5.1.0/contracts/token/ERC20/ERC20.sol\":6307:6316  _balances */\n      dup1\n        /* \"homework/library/openzeppelin-contracts-5.1.0/openzeppelin-contracts-5.1.0/contracts/token/ERC20/ERC20.sol\":6307:6322  _balances[from] */\n      0x00\n        /* \"homework/library/openzeppelin-contracts-5.1.0/openzeppelin-contracts-5.1.0/contracts/token/ERC20/ERC20.sol\":6317:6321  from */\n      dup6\n        /* \"homework/library/openzeppelin-contracts-5.1.0/openzeppelin-contracts-5.1.0/contracts/token/ERC20/ERC20.sol\":6307:6322  _balances[from] */\n      0xffffffffffffffffffffffffffffffffffffffff\n      and\n      0xffffffffffffffffffffffffffffffffffffffff\n      and\n      dup2\n      mstore\n      0x20\n      add\n      swap1\n      dup2\n      mstore\n      0x20\n      add\n      0x00\n      keccak256\n      sload\n        /* \"homework/library/openzeppelin-contracts-5.1.0/openzeppelin-contracts-5.1.0/contracts/token/ERC20/ERC20.sol\":6285:6322  uint256 fromBalance = _balances[from] */\n      swap1\n      pop\n        /* \"homework/library/openzeppelin-contracts-5.1.0/openzeppelin-contracts-5.1.0/contracts/token/ERC20/ERC20.sol\":6354:6359  value */\n      dup2\n        /* \"homework/library/openzeppelin-contracts-5.1.0/openzeppelin-contracts-5.1.0/contracts/token/ERC20/ERC20.sol\":6340:6351  fromBalance */\n      dup2\n        /* \"homework/library/openzeppelin-contracts-5.1.0/openzeppelin-contracts-5.1.0/contracts/token/ERC20/ERC20.sol\":6340:6359  fromBalance < value */\n      lt\n        /* \"homework/library/openzeppelin-contracts-5.1.0/openzeppelin-contracts-5.1.0/contracts/token/ERC20/ERC20.sol\":6336:6451  if (fromBalance < value) {... */\n      iszero\n      tag_154\n      jumpi\n        /* \"homework/library/openzeppelin-contracts-5.1.0/openzeppelin-contracts-5.1.0/contracts/token/ERC20/ERC20.sol\":6411:6415  from */\n      dup4\n        /* \"homework/library/openzeppelin-contracts-5.1.0/openzeppelin-contracts-5.1.0/contracts/token/ERC20/ERC20.sol\":6417:6428  fromBalance */\n      dup2\n        /* \"homework/library/openzeppelin-contracts-5.1.0/openzeppelin-contracts-5.1.0/contracts/token/ERC20/ERC20.sol\":6430:6435  value */\n      dup4\n        /* \"homework/library/openzeppelin-contracts-5.1.0/openzeppelin-contracts-5.1.0/contracts/token/ERC20/ERC20.sol\":6386:6436  ERC20InsufficientBalance(from, fromBalance, value) */\n      mload(0x40)\n      0xe450d38c00000000000000000000000000000000000000000000000000000000\n      dup2\n      mstore\n      0x04\n      add\n      tag_155\n      swap4\n      swap3\n      swap2\n      swap1\n      tag_137\n      jump\t// in\n    tag_155:\n      mload(0x40)\n      dup1\n      swap2\n      sub\n      swap1\n      revert\n        /* \"homework/library/openzeppelin-contracts-5.1.0/openzeppelin-contracts-5.1.0/contracts/token/ERC20/ERC20.sol\":6336:6451  if (fromBalance < value) {... */\n    tag_154:\n        /* \"homework/library/openzeppelin-contracts-5.1.0/openzeppelin-contracts-5.1.0/contracts/token/ERC20/ERC20.sol\":6603:6608  value */\n      dup2\n        /* \"homework/library/openzeppelin-contracts-5.1.0/openzeppelin-contracts-5.1.0/contracts/token/ERC20/ERC20.sol\":6589:6600  fromBalance */\n      dup2\n        /* \"homework/library/openzeppelin-contracts-5.1.0/openzeppelin-contracts-5.1.0/contracts/token/ERC20/ERC20.sol\":6589:6608  fromBalance - value */\n      sub\n        /* \"homework/library/openzeppelin-contracts-5.1.0/openzeppelin-contracts-5.1.0/contracts/token/ERC20/ERC20.sol\":6571:6580  _balances */\n      0x00\n        /* \"homework/library/openzeppelin-contracts-5.1.0/openzeppelin-contracts-5.1.0/contracts/token/ERC20/ERC20.sol\":6571:6586  _balances[from] */\n      dup1\n        /* \"homework/library/openzeppelin-contracts-5.1.0/openzeppelin-contracts-5.1.0/contracts/token/ERC20/ERC20.sol\":6581:6585  from */\n      dup7\n        /* \"homework/library/openzeppelin-contracts-5.1.0/openzeppelin-contracts-5.1.0/contracts/token/ERC20/ERC20.sol\":6571:6586  _balances[from] */\n      0xffffffffffffffffffffffffffffffffffffffff\n      and\n      0xffffffffffffffffffffffffffffffffffffffff\n      and\n      dup2\n      mstore\n      0x20\n      add\n      swap1\n      dup2\n      mstore\n      0x20\n      add\n      0x00\n      keccak256\n        /* \"homework/library/openzeppelin-contracts-5.1.0/openzeppelin-contracts-5.1.0/contracts/token/ERC20/ERC20.sol\":6571:6608  _balances[from] = fromBalance - value */\n      dup2\n      swap1\n      sstore\n      pop\n        /* \"homework/library/openzeppelin-contracts-5.1.0/openzeppelin-contracts-5.1.0/contracts/token/ERC20/ERC20.sol\":6271:6633  {... */\n      pop\n        /* \"homework/library/openzeppelin-contracts-5.1.0/openzeppelin-contracts-5.1.0/contracts/token/ERC20/ERC20.sol\":6093:6633  if (from == address(0)) {... */\n    tag_153:\n        /* \"homework/library/openzeppelin-contracts-5.1.0/openzeppelin-contracts-5.1.0/contracts/token/ERC20/ERC20.sol\":6661:6662  0 */\n      0x00\n        /* \"homework/library/openzeppelin-contracts-5.1.0/openzeppelin-contracts-5.1.0/contracts/token/ERC20/ERC20.sol\":6647:6663  to == address(0) */\n      0xffffffffffffffffffffffffffffffffffffffff\n      and\n        /* \"homework/library/openzeppelin-contracts-5.1.0/openzeppelin-contracts-5.1.0/contracts/token/ERC20/ERC20.sol\":6647:6649  to */\n      dup3\n        /* \"homework/library/openzeppelin-contracts-5.1.0/openzeppelin-contracts-5.1.0/contracts/token/ERC20/ERC20.sol\":6647:6663  to == address(0) */\n      0xffffffffffffffffffffffffffffffffffffffff\n      and\n      sub\n        /* \"homework/library/openzeppelin-contracts-5.1.0/openzeppelin-contracts-5.1.0/contracts/token/ERC20/ERC20.sol\":6643:7068  if (to == address(0)) {... */\n      tag_156\n      jumpi\n        /* \"homework/library/openzeppelin-contracts-5.1.0/openzeppelin-contracts-5.1.0/contracts/token/ERC20/ERC20.sol\":6826:6831  value */\n      dup1\n        /* \"homework/library/openzeppelin-contracts-5.1.0/openzeppelin-contracts-5.1.0/contracts/token/ERC20/ERC20.sol\":6810:6822  _totalSupply */\n      0x02\n      0x00\n        /* \"homework/library/openzeppelin-contracts-5.1.0/openzeppelin-contracts-5.1.0/contracts/token/ERC20/ERC20.sol\":6810:6831  _totalSupply -= value */\n      dup3\n      dup3\n      sload\n      sub\n      swap3\n      pop\n      pop\n      dup2\n      swap1\n      sstore\n      pop\n        /* \"homework/library/openzeppelin-contracts-5.1.0/openzeppelin-contracts-5.1.0/contracts/token/ERC20/ERC20.sol\":6643:7068  if (to == address(0)) {... */\n      jump(tag_157)\n    tag_156:\n        /* \"homework/library/openzeppelin-contracts-5.1.0/openzeppelin-contracts-5.1.0/contracts/token/ERC20/ERC20.sol\":7038:7043  value */\n      dup1\n        /* \"homework/library/openzeppelin-contracts-5.1.0/openzeppelin-contracts-5.1.0/contracts/token/ERC20/ERC20.sol\":7021:7030  _balances */\n      0x00\n        /* \"homework/library/openzeppelin-contracts-5.1.0/openzeppelin-contracts-5.1.0/contracts/token/ERC20/ERC20.sol\":7021:7034  _balances[to] */\n      dup1\n        /* \"homework/library/openzeppelin-contracts-5.1.0/openzeppelin-contracts-5.1.0/contracts/token/ERC20/ERC20.sol\":7031:7033  to */\n      dup5\n        /* \"homework/library/openzeppelin-contracts-5.1.0/openzeppelin-contracts-5.1.0/contracts/token/ERC20/ERC20.sol\":7021:7034  _balances[to] */\n      0xffffffffffffffffffffffffffffffffffffffff\n      and\n      0xffffffffffffffffffffffffffffffffffffffff\n      and\n      dup2\n      mstore\n      0x20\n      add\n      swap1\n      dup2\n      mstore\n      0x20\n      add\n      0x00\n      keccak256\n      0x00\n        /* \"homework/library/openzeppelin-contracts-5.1.0/openzeppelin-contracts-5.1.0/contracts/token/ERC20/ERC20.sol\":7021:7043  _balances[to] += value */\n      dup3\n      dup3\n      sload\n      add\n      swap3\n      pop\n      pop\n      dup2\n      swap1\n      sstore\n      pop\n        /* \"homework/library/openzeppelin-contracts-5.1.0/openzeppelin-contracts-5.1.0/contracts/token/ERC20/ERC20.sol\":6643:7068  if (to == address(0)) {... */\n    tag_157:\n        /* \"homework/library/openzeppelin-contracts-5.1.0/openzeppelin-contracts-5.1.0/contracts/token/ERC20/ERC20.sol\":7098:7100  to */\n      dup2\n        /* \"homework/library/openzeppelin-contracts-5.1.0/openzeppelin-contracts-5.1.0/contracts/token/ERC20/ERC20.sol\":7083:7108  Transfer(from, to, value) */\n      0xffffffffffffffffffffffffffffffffffffffff\n      and\n        /* \"homework/library/openzeppelin-contracts-5.1.0/openzeppelin-contracts-5.1.0/contracts/token/ERC20/ERC20.sol\":7092:7096  from */\n      dup4\n        /* \"homework/library/openzeppelin-contracts-5.1.0/openzeppelin-contracts-5.1.0/contracts/token/ERC20/ERC20.sol\":7083:7108  Transfer(from, to, value) */\n      0xffffffffffffffffffffffffffffffffffffffff\n      and\n      0xddf252ad1be2c89b69c2b068fc378daa952ba7f163c4a11628f55a4df523b3ef\n        /* \"homework/library/openzeppelin-contracts-5.1.0/openzeppelin-contracts-5.1.0/contracts/token/ERC20/ERC20.sol\":7102:7107  value */\n      dup4\n        /* \"homework/library/openzeppelin-contracts-5.1.0/openzeppelin-contracts-5.1.0/contracts/token/ERC20/ERC20.sol\":7083:7108  Transfer(from, to, value) */\n      mload(0x40)\n      tag_158\n      swap2\n      swap1\n      tag_36\n      jump\t// in\n    tag_158:\n      mload(0x40)\n      dup1\n      swap2\n      sub\n      swap1\n      log3\n        /* \"homework/library/openzeppelin-contracts-5.1.0/openzeppelin-contracts-5.1.0/contracts/token/ERC20/ERC20.sol\":6008:7115  function _update(address from, address to, uint256 value) internal virtual {... */\n      pop\n      pop\n      pop\n      jump\t// out\n        /* \"homework/library/openzeppelin-contracts-5.1.0/openzeppelin-contracts-5.1.0/contracts/token/ERC20/ERC20.sol\":9701:10133  function _approve(address owner, address spender, uint256 value, bool emitEvent) internal virtual {... */\n    tag_131:\n        /* \"homework/library/openzeppelin-contracts-5.1.0/openzeppelin-contracts-5.1.0/contracts/token/ERC20/ERC20.sol\":9830:9831  0 */\n      0x00\n        /* \"homework/library/openzeppelin-contracts-5.1.0/openzeppelin-contracts-5.1.0/contracts/token/ERC20/ERC20.sol\":9813:9832  owner == address(0) */\n      0xffffffffffffffffffffffffffffffffffffffff\n      and\n        /* \"homework/library/openzeppelin-contracts-5.1.0/openzeppelin-contracts-5.1.0/contracts/token/ERC20/ERC20.sol\":9813:9818  owner */\n      dup5\n        /* \"homework/library/openzeppelin-contracts-5.1.0/openzeppelin-contracts-5.1.0/contracts/token/ERC20/ERC20.sol\":9813:9832  owner == address(0) */\n      0xffffffffffffffffffffffffffffffffffffffff\n      and\n      sub\n        /* \"homework/library/openzeppelin-contracts-5.1.0/openzeppelin-contracts-5.1.0/contracts/token/ERC20/ERC20.sol\":9809:9898  if (owner == address(0)) {... */\n      tag_160\n      jumpi\n        /* \"homework/library/openzeppelin-contracts-5.1.0/openzeppelin-contracts-5.1.0/contracts/token/ERC20/ERC20.sol\":9884:9885  0 */\n      0x00\n        /* \"homework/library/openzeppelin-contracts-5.1.0/openzeppelin-contracts-5.1.0/contracts/token/ERC20/ERC20.sol\":9855:9887  ERC20InvalidApprover(address(0)) */\n      mload(0x40)\n      0xe602df0500000000000000000000000000000000000000000000000000000000\n      dup2\n      mstore\n      0x04\n      add\n      tag_161\n      swap2\n      swap1\n      tag_125\n      jump\t// in\n    tag_161:\n      mload(0x40)\n      dup1\n      swap2\n      sub\n      swap1\n      revert\n        /* \"homework/library/openzeppelin-contracts-5.1.0/openzeppelin-contracts-5.1.0/contracts/token/ERC20/ERC20.sol\":9809:9898  if (owner == address(0)) {... */\n    tag_160:\n        /* \"homework/library/openzeppelin-contracts-5.1.0/openzeppelin-contracts-5.1.0/contracts/token/ERC20/ERC20.sol\":9930:9931  0 */\n      0x00\n        /* \"homework/library/openzeppelin-contracts-5.1.0/openzeppelin-contracts-5.1.0/contracts/token/ERC20/ERC20.sol\":9911:9932  spender == address(0) */\n      0xffffffffffffffffffffffffffffffffffffffff\n      and\n        /* \"homework/library/openzeppelin-contracts-5.1.0/openzeppelin-contracts-5.1.0/contracts/token/ERC20/ERC20.sol\":9911:9918  spender */\n      dup4\n        /* \"homework/library/openzeppelin-contracts-5.1.0/openzeppelin-contracts-5.1.0/contracts/token/ERC20/ERC20.sol\":9911:9932  spender == address(0) */\n      0xffffffffffffffffffffffffffffffffffffffff\n      and\n      sub\n        /* \"homework/library/openzeppelin-contracts-5.1.0/openzeppelin-contracts-5.1.0/contracts/token/ERC20/ERC20.sol\":9907:9997  if (spender == address(0)) {... */\n      tag_162\n      jumpi\n        /* \"homework/library/openzeppelin-contracts-5.1.0/openzeppelin-contracts-5.1.0/contracts/token/ERC20/ERC20.sol\":9983:9984  0 */\n      0x00\n        /* \"homework/library/openzeppelin-contracts-5.1.0/openzeppelin-contracts-5.1.0/contracts/token/ERC20/ERC20.sol\":9955:9986  ERC20InvalidSpender(address(0)) */\n      mload(0x40)\n      0x94280d6200000000000000000000000000000000000000000000000000000000\n      dup2\n      mstore\n      0x04\n      add\n      tag_163\n      swap2\n      swap1\n      tag_125\n      jump\t// in\n    tag_163:\n      mload(0x40)\n      dup1\n      swap2\n      sub\n      swap1\n      revert\n        /* \"homework/library/openzeppelin-contracts-5.1.0/openzeppelin-contracts-5.1.0/contracts/token/ERC20/ERC20.sol\":9907:9997  if (spender == address(0)) {... */\n    tag_162:\n        /* \"homework/library/openzeppelin-contracts-5.1.0/openzeppelin-contracts-5.1.0/contracts/token/ERC20/ERC20.sol\":10036:10041  value */\n      dup2\n        /* \"homework/library/openzeppelin-contracts-5.1.0/openzeppelin-contracts-5.1.0/contracts/token/ERC20/ERC20.sol\":10006:10017  _allowances */\n      0x01\n        /* \"homework/library/openzeppelin-contracts-5.1.0/openzeppelin-contracts-5.1.0/contracts/token/ERC20/ERC20.sol\":10006:10024  _allowances[owner] */\n      0x00\n        /* \"homework/library/openzeppelin-contracts-5.1.0/openzeppelin-contracts-5.1.0/contracts/token/ERC20/ERC20.sol\":10018:10023  owner */\n      dup7\n        /* \"homework/library/openzeppelin-contracts-5.1.0/openzeppelin-contracts-5.1.0/contracts/token/ERC20/ERC20.sol\":10006:10024  _allowances[owner] */\n      0xffffffffffffffffffffffffffffffffffffffff\n      and\n      0xffffffffffffffffffffffffffffffffffffffff\n      and\n      dup2\n      mstore\n      0x20\n      add\n      swap1\n      dup2\n      mstore\n      0x20\n      add\n      0x00\n      keccak256\n        /* \"homework/library/openzeppelin-contracts-5.1.0/openzeppelin-contracts-5.1.0/contracts/token/ERC20/ERC20.sol\":10006:10033  _allowances[owner][spender] */\n      0x00\n        /* \"homework/library/openzeppelin-contracts-5.1.0/openzeppelin-contracts-5.1.0/contracts/token/ERC20/ERC20.sol\":10025:10032  spender */\n      dup6\n        /* \"homework/library/openzeppelin-contracts-5.1.0/openzeppelin-contracts-5.1.0/contracts/token/ERC20/ERC20.sol\":10006:10033  _allowances[owner][spender] */\n      0xffffffffffffffffffffffffffffffffffffffff\n      and\n      0xffffffffffffffffffffffffffffffffffffffff\n      and\n      dup2\n      mstore\n      0x20\n      add\n      swap1\n      dup2\n      mstore\n      0x20\n      add\n      0x00\n      keccak256\n        /* \"homework/library/openzeppelin-contracts-5.1.0/openzeppelin-contracts-5.1.0/contracts/token/ERC20/ERC20.sol\":10006:10041  _allowances[owner][spender] = value */\n      dup2\n      swap1\n      sstore\n      pop\n        /* \"homework/library/openzeppelin-contracts-5.1.0/openzeppelin-contracts-5.1.0/contracts/token/ERC20/ERC20.sol\":10055:10064  emitEvent */\n      dup1\n        /* \"homework/library/openzeppelin-contracts-5.1.0/openzeppelin-contracts-5.1.0/contracts/token/ERC20/ERC20.sol\":10051:10127  if (emitEvent) {... */\n      iszero\n      tag_164\n      jumpi\n        /* \"homework/library/openzeppelin-contracts-5.1.0/openzeppelin-contracts-5.1.0/contracts/token/ERC20/ERC20.sol\":10101:10108  spender */\n      dup3\n        /* \"homework/library/openzeppelin-contracts-5.1.0/openzeppelin-contracts-5.1.0/contracts/token/ERC20/ERC20.sol\":10085:10116  Approval(owner, spender, value) */\n      0xffffffffffffffffffffffffffffffffffffffff\n      and\n        /* \"homework/library/openzeppelin-contracts-5.1.0/openzeppelin-contracts-5.1.0/contracts/token/ERC20/ERC20.sol\":10094:10099  owner */\n      dup5\n        /* \"homework/library/openzeppelin-contracts-5.1.0/openzeppelin-contracts-5.1.0/contracts/token/ERC20/ERC20.sol\":10085:10116  Approval(owner, spender, value) */\n      0xffffffffffffffffffffffffffffffffffffffff\n      and\n      0x8c5be1e5ebec7d5bd14f71427d1e84f3dd0314c0f7b2291e5b200ac8c7c3b925\n        /* \"homework/library/openzeppelin-contracts-5.1.0/openzeppelin-contracts-5.1.0/contracts/token/ERC20/ERC20.sol\":10110:10115  value */\n      dup5\n        /* \"homework/library/openzeppelin-contracts-5.1.0/openzeppelin-contracts-5.1.0/contracts/token/ERC20/ERC20.sol\":10085:10116  Approval(owner, spender, value) */\n      mload(0x40)\n      tag_165\n      swap2\n      swap1\n      tag_36\n      jump\t// in\n    tag_165:\n      mload(0x40)\n      dup1\n      swap2\n      sub\n      swap1\n      log3\n        /* \"homework/library/openzeppelin-contracts-5.1.0/openzeppelin-contracts-5.1.0/contracts/token/ERC20/ERC20.sol\":10051:10127  if (emitEvent) {... */\n    tag_164:\n        /* \"homework/library/openzeppelin-contracts-5.1.0/openzeppelin-contracts-5.1.0/contracts/token/ERC20/ERC20.sol\":9701:10133  function _approve(address owner, address spender, uint256 value, bool emitEvent) internal virtual {... */\n      pop\n      pop\n      pop\n      pop\n      jump\t// out\n        /* \"#utility.yul\":7:106   */\n    tag_166:\n        /* \"#utility.yul\":59:65   */\n      0x00\n        /* \"#utility.yul\":93:98   */\n      dup2\n        /* \"#utility.yul\":87:99   */\n      mload\n        /* \"#utility.yul\":77:99   */\n      swap1\n      pop\n        /* \"#utility.yul\":7:106   */\n      swap2\n      swap1\n      pop\n      jump\t// out\n        /* \"#utility.yul\":112:281   */\n    tag_167:\n        /* \"#utility.yul\":196:207   */\n      0x00\n        /* \"#utility.yul\":230:236   */\n      dup3\n        /* \"#utility.yul\":225:228   */\n      dup3\n        /* \"#utility.yul\":218:237   */\n      mstore\n        /* \"#utility.yul\":270:274   */\n      0x20\n        /* \"#utility.yul\":265:268   */\n      dup3\n        /* \"#utility.yul\":261:275   */\n      add\n        /* \"#utility.yul\":246:275   */\n      swap1\n      pop\n        /* \"#utility.yul\":112:281   */\n      swap3\n      swap2\n      pop\n      pop\n      jump\t// out\n        /* \"#utility.yul\":287:426   */\n    tag_168:\n        /* \"#utility.yul\":376:382   */\n      dup3\n        /* \"#utility.yul\":371:374   */\n      dup2\n        /* \"#utility.yul\":366:369   */\n      dup4\n        /* \"#utility.yul\":360:383   */\n      mcopy\n        /* \"#utility.yul\":417:418   */\n      0x00\n        /* \"#utility.yul\":408:414   */\n      dup4\n        /* \"#utility.yul\":403:406   */\n      dup4\n        /* \"#utility.yul\":399:415   */\n      add\n        /* \"#utility.yul\":392:419   */\n      mstore\n        /* \"#utility.yul\":287:426   */\n      pop\n      pop\n      pop\n      jump\t// out\n        /* \"#utility.yul\":432:534   */\n    tag_169:\n        /* \"#utility.yul\":473:479   */\n      0x00\n        /* \"#utility.yul\":524:526   */\n      0x1f\n        /* \"#utility.yul\":520:527   */\n      not\n        /* \"#utility.yul\":515:517   */\n      0x1f\n        /* \"#utility.yul\":508:513   */\n      dup4\n        /* \"#utility.yul\":504:518   */\n      add\n        /* \"#utility.yul\":500:528   */\n      and\n        /* \"#utility.yul\":490:528   */\n      swap1\n      pop\n        /* \"#utility.yul\":432:534   */\n      swap2\n      swap1\n      pop\n      jump\t// out\n        /* \"#utility.yul\":540:917   */\n    tag_170:\n        /* \"#utility.yul\":628:631   */\n      0x00\n        /* \"#utility.yul\":656:695   */\n      tag_197\n        /* \"#utility.yul\":689:694   */\n      dup3\n        /* \"#utility.yul\":656:695   */\n      tag_166\n      jump\t// in\n    tag_197:\n        /* \"#utility.yul\":711:782   */\n      tag_198\n        /* \"#utility.yul\":775:781   */\n      dup2\n        /* \"#utility.yul\":770:773   */\n      dup6\n        /* \"#utility.yul\":711:782   */\n      tag_167\n      jump\t// in\n    tag_198:\n        /* \"#utility.yul\":704:782   */\n      swap4\n      pop\n        /* \"#utility.yul\":791:856   */\n      tag_199\n        /* \"#utility.yul\":849:855   */\n      dup2\n        /* \"#utility.yul\":844:847   */\n      dup6\n        /* \"#utility.yul\":837:841   */\n      0x20\n        /* \"#utility.yul\":830:835   */\n      dup7\n        /* \"#utility.yul\":826:842   */\n      add\n        /* \"#utility.yul\":791:856   */\n      tag_168\n      jump\t// in\n    tag_199:\n        /* \"#utility.yul\":881:910   */\n      tag_200\n        /* \"#utility.yul\":903:909   */\n      dup2\n        /* \"#utility.yul\":881:910   */\n      tag_169\n      jump\t// in\n    tag_200:\n        /* \"#utility.yul\":876:879   */\n      dup5\n        /* \"#utility.yul\":872:911   */\n      add\n        /* \"#utility.yul\":865:911   */\n      swap2\n      pop\n        /* \"#utility.yul\":632:917   */\n      pop\n        /* \"#utility.yul\":540:917   */\n      swap3\n      swap2\n      pop\n      pop\n      jump\t// out\n        /* \"#utility.yul\":923:1236   */\n    tag_24:\n        /* \"#utility.yul\":1036:1040   */\n      0x00\n        /* \"#utility.yul\":1074:1076   */\n      0x20\n        /* \"#utility.yul\":1063:1072   */\n      dup3\n        /* \"#utility.yul\":1059:1077   */\n      add\n        /* \"#utility.yul\":1051:1077   */\n      swap1\n      pop\n        /* \"#utility.yul\":1123:1132   */\n      dup2\n        /* \"#utility.yul\":1117:1121   */\n      dup2\n        /* \"#utility.yul\":1113:1133   */\n      sub\n        /* \"#utility.yul\":1109:1110   */\n      0x00\n        /* \"#utility.yul\":1098:1107   */\n      dup4\n        /* \"#utility.yul\":1094:1111   */\n      add\n        /* \"#utility.yul\":1087:1134   */\n      mstore\n        /* \"#utility.yul\":1151:1229   */\n      tag_202\n        /* \"#utility.yul\":1224:1228   */\n      dup2\n        /* \"#utility.yul\":1215:1221   */\n      dup5\n        /* \"#utility.yul\":1151:1229   */\n      tag_170\n      jump\t// in\n    tag_202:\n        /* \"#utility.yul\":1143:1229   */\n      swap1\n      pop\n        /* \"#utility.yul\":923:1236   */\n      swap3\n      swap2\n      pop\n      pop\n      jump\t// out\n        /* \"#utility.yul\":1323:1440   */\n    tag_172:\n        /* \"#utility.yul\":1432:1433   */\n      0x00\n        /* \"#utility.yul\":1429:1430   */\n      dup1\n        /* \"#utility.yul\":1422:1434   */\n      revert\n        /* \"#utility.yul\":1569:1695   */\n    tag_174:\n        /* \"#utility.yul\":1606:1613   */\n      0x00\n        /* \"#utility.yul\":1646:1688   */\n      0xffffffffffffffffffffffffffffffffffffffff\n        /* \"#utility.yul\":1639:1644   */\n      dup3\n        /* \"#utility.yul\":1635:1689   */\n      and\n        /* \"#utility.yul\":1624:1689   */\n      swap1\n      pop\n        /* \"#utility.yul\":1569:1695   */\n      swap2\n      swap1\n      pop\n      jump\t// out\n        /* \"#utility.yul\":1701:1797   */\n    tag_175:\n        /* \"#utility.yul\":1738:1745   */\n      0x00\n        /* \"#utility.yul\":1767:1791   */\n      tag_208\n        /* \"#utility.yul\":1785:1790   */\n      dup3\n        /* \"#utility.yul\":1767:1791   */\n      tag_174\n      jump\t// in\n    tag_208:\n        /* \"#utility.yul\":1756:1791   */\n      swap1\n      pop\n        /* \"#utility.yul\":1701:1797   */\n      swap2\n      swap1\n      pop\n      jump\t// out\n        /* \"#utility.yul\":1803:1925   */\n    tag_176:\n        /* \"#utility.yul\":1876:1900   */\n      tag_210\n        /* \"#utility.yul\":1894:1899   */\n      dup2\n        /* \"#utility.yul\":1876:1900   */\n      tag_175\n      jump\t// in\n    tag_210:\n        /* \"#utility.yul\":1869:1874   */\n      dup2\n        /* \"#utility.yul\":1866:1901   */\n      eq\n        /* \"#utility.yul\":1856:1919   */\n      tag_211\n      jumpi\n        /* \"#utility.yul\":1915:1916   */\n      0x00\n        /* \"#utility.yul\":1912:1913   */\n      dup1\n        /* \"#utility.yul\":1905:1917   */\n      revert\n        /* \"#utility.yul\":1856:1919   */\n    tag_211:\n        /* \"#utility.yul\":1803:1925   */\n      pop\n      jump\t// out\n        /* \"#utility.yul\":1931:2070   */\n    tag_177:\n        /* \"#utility.yul\":1977:1982   */\n      0x00\n        /* \"#utility.yul\":2015:2021   */\n      dup2\n        /* \"#utility.yul\":2002:2022   */\n      calldataload\n        /* \"#utility.yul\":1993:2022   */\n      swap1\n      pop\n        /* \"#utility.yul\":2031:2064   */\n      tag_213\n        /* \"#utility.yul\":2058:2063   */\n      dup2\n        /* \"#utility.yul\":2031:2064   */\n      tag_176\n      jump\t// in\n    tag_213:\n        /* \"#utility.yul\":1931:2070   */\n      swap3\n      swap2\n      pop\n      pop\n      jump\t// out\n        /* \"#utility.yul\":2076:2153   */\n    tag_178:\n        /* \"#utility.yul\":2113:2120   */\n      0x00\n        /* \"#utility.yul\":2142:2147   */\n      dup2\n        /* \"#utility.yul\":2131:2147   */\n      swap1\n      pop\n        /* \"#utility.yul\":2076:2153   */\n      swap2\n      swap1\n      pop\n      jump\t// out\n        /* \"#utility.yul\":2159:2281   */\n    tag_179:\n        /* \"#utility.yul\":2232:2256   */\n      tag_216\n        /* \"#utility.yul\":2250:2255   */\n      dup2\n        /* \"#utility.yul\":2232:2256   */\n      tag_178\n      jump\t// in\n    tag_216:\n        /* \"#utility.yul\":2225:2230   */\n      dup2\n        /* \"#utility.yul\":2222:2257   */\n      eq\n        /* \"#utility.yul\":2212:2275   */\n      tag_217\n      jumpi\n        /* \"#utility.yul\":2271:2272   */\n      0x00\n        /* \"#utility.yul\":2268:2269   */\n      dup1\n        /* \"#utility.yul\":2261:2273   */\n      revert\n        /* \"#utility.yul\":2212:2275   */\n    tag_217:\n        /* \"#utility.yul\":2159:2281   */\n      pop\n      jump\t// out\n        /* \"#utility.yul\":2287:2426   */\n    tag_180:\n        /* \"#utility.yul\":2333:2338   */\n      0x00\n        /* \"#utility.yul\":2371:2377   */\n      dup2\n        /* \"#utility.yul\":2358:2378   */\n      calldataload\n        /* \"#utility.yul\":2349:2378   */\n      swap1\n      pop\n        /* \"#utility.yul\":2387:2420   */\n      tag_219\n        /* \"#utility.yul\":2414:2419   */\n      dup2\n        /* \"#utility.yul\":2387:2420   */\n      tag_179\n      jump\t// in\n    tag_219:\n        /* \"#utility.yul\":2287:2426   */\n      swap3\n      swap2\n      pop\n      pop\n      jump\t// out\n        /* \"#utility.yul\":2432:2906   */\n    tag_28:\n        /* \"#utility.yul\":2500:2506   */\n      0x00\n        /* \"#utility.yul\":2508:2514   */\n      dup1\n        /* \"#utility.yul\":2557:2559   */\n      0x40\n        /* \"#utility.yul\":2545:2554   */\n      dup4\n        /* \"#utility.yul\":2536:2543   */\n      dup6\n        /* \"#utility.yul\":2532:2555   */\n      sub\n        /* \"#utility.yul\":2528:2560   */\n      slt\n        /* \"#utility.yul\":2525:2644   */\n      iszero\n      tag_221\n      jumpi\n        /* \"#utility.yul\":2563:2642   */\n      tag_222\n      tag_172\n      jump\t// in\n    tag_222:\n        /* \"#utility.yul\":2525:2644   */\n    tag_221:\n        /* \"#utility.yul\":2683:2684   */\n      0x00\n        /* \"#utility.yul\":2708:2761   */\n      tag_223\n        /* \"#utility.yul\":2753:2760   */\n      dup6\n        /* \"#utility.yul\":2744:2750   */\n      dup3\n        /* \"#utility.yul\":2733:2742   */\n      dup7\n        /* \"#utility.yul\":2729:2751   */\n      add\n        /* \"#utility.yul\":2708:2761   */\n      tag_177\n      jump\t// in\n    tag_223:\n        /* \"#utility.yul\":2698:2761   */\n      swap3\n      pop\n        /* \"#utility.yul\":2654:2771   */\n      pop\n        /* \"#utility.yul\":2810:2812   */\n      0x20\n        /* \"#utility.yul\":2836:2889   */\n      tag_224\n        /* \"#utility.yul\":2881:2888   */\n      dup6\n        /* \"#utility.yul\":2872:2878   */\n      dup3\n        /* \"#utility.yul\":2861:2870   */\n      dup7\n        /* \"#utility.yul\":2857:2879   */\n      add\n        /* \"#utility.yul\":2836:2889   */\n      tag_180\n      jump\t// in\n    tag_224:\n        /* \"#utility.yul\":2826:2889   */\n      swap2\n      pop\n        /* \"#utility.yul\":2781:2899   */\n      pop\n        /* \"#utility.yul\":2432:2906   */\n      swap3\n      pop\n      swap3\n      swap1\n      pop\n      jump\t// out\n        /* \"#utility.yul\":2912:3002   */\n    tag_181:\n        /* \"#utility.yul\":2946:2953   */\n      0x00\n        /* \"#utility.yul\":2989:2994   */\n      dup2\n        /* \"#utility.yul\":2982:2995   */\n      iszero\n        /* \"#utility.yul\":2975:2996   */\n      iszero\n        /* \"#utility.yul\":2964:2996   */\n      swap1\n      pop\n        /* \"#utility.yul\":2912:3002   */\n      swap2\n      swap1\n      pop\n      jump\t// out\n        /* \"#utility.yul\":3008:3117   */\n    tag_182:\n        /* \"#utility.yul\":3089:3110   */\n      tag_227\n        /* \"#utility.yul\":3104:3109   */\n      dup2\n        /* \"#utility.yul\":3089:3110   */\n      tag_181\n      jump\t// in\n    tag_227:\n        /* \"#utility.yul\":3084:3087   */\n      dup3\n        /* \"#utility.yul\":3077:3111   */\n      mstore\n        /* \"#utility.yul\":3008:3117   */\n      pop\n      pop\n      jump\t// out\n        /* \"#utility.yul\":3123:3333   */\n    tag_31:\n        /* \"#utility.yul\":3210:3214   */\n      0x00\n        /* \"#utility.yul\":3248:3250   */\n      0x20\n        /* \"#utility.yul\":3237:3246   */\n      dup3\n        /* \"#utility.yul\":3233:3251   */\n      add\n        /* \"#utility.yul\":3225:3251   */\n      swap1\n      pop\n        /* \"#utility.yul\":3261:3326   */\n      tag_229\n        /* \"#utility.yul\":3323:3324   */\n      0x00\n        /* \"#utility.yul\":3312:3321   */\n      dup4\n        /* \"#utility.yul\":3308:3325   */\n      add\n        /* \"#utility.yul\":3299:3305   */\n      dup5\n        /* \"#utility.yul\":3261:3326   */\n      tag_182\n      jump\t// in\n    tag_229:\n        /* \"#utility.yul\":3123:3333   */\n      swap3\n      swap2\n      pop\n      pop\n      jump\t// out\n        /* \"#utility.yul\":3339:3457   */\n    tag_183:\n        /* \"#utility.yul\":3426:3450   */\n      tag_231\n        /* \"#utility.yul\":3444:3449   */\n      dup2\n        /* \"#utility.yul\":3426:3450   */\n      tag_178\n      jump\t// in\n    tag_231:\n        /* \"#utility.yul\":3421:3424   */\n      dup3\n        /* \"#utility.yul\":3414:3451   */\n      mstore\n        /* \"#utility.yul\":3339:3457   */\n      pop\n      pop\n      jump\t// out\n        /* \"#utility.yul\":3463:3685   */\n    tag_36:\n        /* \"#utility.yul\":3556:3560   */\n      0x00\n        /* \"#utility.yul\":3594:3596   */\n      0x20\n        /* \"#utility.yul\":3583:3592   */\n      dup3\n        /* \"#utility.yul\":3579:3597   */\n      add\n        /* \"#utility.yul\":3571:3597   */\n      swap1\n      pop\n        /* \"#utility.yul\":3607:3678   */\n      tag_233\n        /* \"#utility.yul\":3675:3676   */\n      0x00\n        /* \"#utility.yul\":3664:3673   */\n      dup4\n        /* \"#utility.yul\":3660:3677   */\n      add\n        /* \"#utility.yul\":3651:3657   */\n      dup5\n        /* \"#utility.yul\":3607:3678   */\n      tag_183\n      jump\t// in\n    tag_233:\n        /* \"#utility.yul\":3463:3685   */\n      swap3\n      swap2\n      pop\n      pop\n      jump\t// out\n        /* \"#utility.yul\":3691:4310   */\n    tag_40:\n        /* \"#utility.yul\":3768:3774   */\n      0x00\n        /* \"#utility.yul\":3776:3782   */\n      dup1\n        /* \"#utility.yul\":3784:3790   */\n      0x00\n        /* \"#utility.yul\":3833:3835   */\n      0x60\n        /* \"#utility.yul\":3821:3830   */\n      dup5\n        /* \"#utility.yul\":3812:3819   */\n      dup7\n        /* \"#utility.yul\":3808:3831   */\n      sub\n        /* \"#utility.yul\":3804:3836   */\n      slt\n        /* \"#utility.yul\":3801:3920   */\n      iszero\n      tag_235\n      jumpi\n        /* \"#utility.yul\":3839:3918   */\n      tag_236\n      tag_172\n      jump\t// in\n    tag_236:\n        /* \"#utility.yul\":3801:3920   */\n    tag_235:\n        /* \"#utility.yul\":3959:3960   */\n      0x00\n        /* \"#utility.yul\":3984:4037   */\n      tag_237\n        /* \"#utility.yul\":4029:4036   */\n      dup7\n        /* \"#utility.yul\":4020:4026   */\n      dup3\n        /* \"#utility.yul\":4009:4018   */\n      dup8\n        /* \"#utility.yul\":4005:4027   */\n      add\n        /* \"#utility.yul\":3984:4037   */\n      tag_177\n      jump\t// in\n    tag_237:\n        /* \"#utility.yul\":3974:4037   */\n      swap4\n      pop\n        /* \"#utility.yul\":3930:4047   */\n      pop\n        /* \"#utility.yul\":4086:4088   */\n      0x20\n        /* \"#utility.yul\":4112:4165   */\n      tag_238\n        /* \"#utility.yul\":4157:4164   */\n      dup7\n        /* \"#utility.yul\":4148:4154   */\n      dup3\n        /* \"#utility.yul\":4137:4146   */\n      dup8\n        /* \"#utility.yul\":4133:4155   */\n      add\n        /* \"#utility.yul\":4112:4165   */\n      tag_177\n      jump\t// in\n    tag_238:\n        /* \"#utility.yul\":4102:4165   */\n      swap3\n      pop\n        /* \"#utility.yul\":4057:4175   */\n      pop\n        /* \"#utility.yul\":4214:4216   */\n      0x40\n        /* \"#utility.yul\":4240:4293   */\n      tag_239\n        /* \"#utility.yul\":4285:4292   */\n      dup7\n        /* \"#utility.yul\":4276:4282   */\n      dup3\n        /* \"#utility.yul\":4265:4274   */\n      dup8\n        /* \"#utility.yul\":4261:4283   */\n      add\n        /* \"#utility.yul\":4240:4293   */\n      tag_180\n      jump\t// in\n    tag_239:\n        /* \"#utility.yul\":4230:4293   */\n      swap2\n      pop\n        /* \"#utility.yul\":4185:4303   */\n      pop\n        /* \"#utility.yul\":3691:4310   */\n      swap3\n      pop\n      swap3\n      pop\n      swap3\n      jump\t// out\n        /* \"#utility.yul\":4316:4645   */\n    tag_46:\n        /* \"#utility.yul\":4375:4381   */\n      0x00\n        /* \"#utility.yul\":4424:4426   */\n      0x20\n        /* \"#utility.yul\":4412:4421   */\n      dup3\n        /* \"#utility.yul\":4403:4410   */\n      dup5\n        /* \"#utility.yul\":4399:4422   */\n      sub\n        /* \"#utility.yul\":4395:4427   */\n      slt\n        /* \"#utility.yul\":4392:4511   */\n      iszero\n      tag_241\n      jumpi\n        /* \"#utility.yul\":4430:4509   */\n      tag_242\n      tag_172\n      jump\t// in\n    tag_242:\n        /* \"#utility.yul\":4392:4511   */\n    tag_241:\n        /* \"#utility.yul\":4550:4551   */\n      0x00\n        /* \"#utility.yul\":4575:4628   */\n      tag_243\n        /* \"#utility.yul\":4620:4627   */\n      dup5\n        /* \"#utility.yul\":4611:4617   */\n      dup3\n        /* \"#utility.yul\":4600:4609   */\n      dup6\n        /* \"#utility.yul\":4596:4618   */\n      add\n        /* \"#utility.yul\":4575:4628   */\n      tag_180\n      jump\t// in\n    tag_243:\n        /* \"#utility.yul\":4565:4628   */\n      swap2\n      pop\n        /* \"#utility.yul\":4521:4638   */\n      pop\n        /* \"#utility.yul\":4316:4645   */\n      swap3\n      swap2\n      pop\n      pop\n      jump\t// out\n        /* \"#utility.yul\":4651:4737   */\n    tag_184:\n        /* \"#utility.yul\":4686:4693   */\n      0x00\n        /* \"#utility.yul\":4726:4730   */\n      0xff\n        /* \"#utility.yul\":4719:4724   */\n      dup3\n        /* \"#utility.yul\":4715:4731   */\n      and\n        /* \"#utility.yul\":4704:4731   */\n      swap1\n      pop\n        /* \"#utility.yul\":4651:4737   */\n      swap2\n      swap1\n      pop\n      jump\t// out\n        /* \"#utility.yul\":4743:4855   */\n    tag_185:\n        /* \"#utility.yul\":4826:4848   */\n      tag_246\n        /* \"#utility.yul\":4842:4847   */\n      dup2\n        /* \"#utility.yul\":4826:4848   */\n      tag_184\n      jump\t// in\n    tag_246:\n        /* \"#utility.yul\":4821:4824   */\n      dup3\n        /* \"#utility.yul\":4814:4849   */\n      mstore\n        /* \"#utility.yul\":4743:4855   */\n      pop\n      pop\n      jump\t// out\n        /* \"#utility.yul\":4861:5075   */\n    tag_52:\n        /* \"#utility.yul\":4950:4954   */\n      0x00\n        /* \"#utility.yul\":4988:4990   */\n      0x20\n        /* \"#utility.yul\":4977:4986   */\n      dup3\n        /* \"#utility.yul\":4973:4991   */\n      add\n        /* \"#utility.yul\":4965:4991   */\n      swap1\n      pop\n        /* \"#utility.yul\":5001:5068   */\n      tag_248\n        /* \"#utility.yul\":5065:5066   */\n      0x00\n        /* \"#utility.yul\":5054:5063   */\n      dup4\n        /* \"#utility.yul\":5050:5067   */\n      add\n        /* \"#utility.yul\":5041:5047   */\n      dup5\n        /* \"#utility.yul\":5001:5068   */\n      tag_185\n      jump\t// in\n    tag_248:\n        /* \"#utility.yul\":4861:5075   */\n      swap3\n      swap2\n      pop\n      pop\n      jump\t// out\n        /* \"#utility.yul\":5081:5230   */\n    tag_186:\n        /* \"#utility.yul\":5117:5124   */\n      0x00\n        /* \"#utility.yul\":5157:5223   */\n      0xffffffff00000000000000000000000000000000000000000000000000000000\n        /* \"#utility.yul\":5150:5155   */\n      dup3\n        /* \"#utility.yul\":5146:5224   */\n      and\n        /* \"#utility.yul\":5135:5224   */\n      swap1\n      pop\n        /* \"#utility.yul\":5081:5230   */\n      swap2\n      swap1\n      pop\n      jump\t// out\n        /* \"#utility.yul\":5236:5351   */\n    tag_187:\n        /* \"#utility.yul\":5321:5344   */\n      tag_251\n        /* \"#utility.yul\":5338:5343   */\n      dup2\n        /* \"#utility.yul\":5321:5344   */\n      tag_186\n      jump\t// in\n    tag_251:\n        /* \"#utility.yul\":5316:5319   */\n      dup3\n        /* \"#utility.yul\":5309:5345   */\n      mstore\n        /* \"#utility.yul\":5236:5351   */\n      pop\n      pop\n      jump\t// out\n        /* \"#utility.yul\":5357:5575   */\n    tag_57:\n        /* \"#utility.yul\":5448:5452   */\n      0x00\n        /* \"#utility.yul\":5486:5488   */\n      0x20\n        /* \"#utility.yul\":5475:5484   */\n      dup3\n        /* \"#utility.yul\":5471:5489   */\n      add\n        /* \"#utility.yul\":5463:5489   */\n      swap1\n      pop\n        /* \"#utility.yul\":5499:5568   */\n      tag_253\n        /* \"#utility.yul\":5565:5566   */\n      0x00\n        /* \"#utility.yul\":5554:5563   */\n      dup4\n        /* \"#utility.yul\":5550:5567   */\n      add\n        /* \"#utility.yul\":5541:5547   */\n      dup5\n        /* \"#utility.yul\":5499:5568   */\n      tag_187\n      jump\t// in\n    tag_253:\n        /* \"#utility.yul\":5357:5575   */\n      swap3\n      swap2\n      pop\n      pop\n      jump\t// out\n        /* \"#utility.yul\":5581:5910   */\n    tag_61:\n        /* \"#utility.yul\":5640:5646   */\n      0x00\n        /* \"#utility.yul\":5689:5691   */\n      0x20\n        /* \"#utility.yul\":5677:5686   */\n      dup3\n        /* \"#utility.yul\":5668:5675   */\n      dup5\n        /* \"#utility.yul\":5664:5687   */\n      sub\n        /* \"#utility.yul\":5660:5692   */\n      slt\n        /* \"#utility.yul\":5657:5776   */\n      iszero\n      tag_255\n      jumpi\n        /* \"#utility.yul\":5695:5774   */\n      tag_256\n      tag_172\n      jump\t// in\n    tag_256:\n        /* \"#utility.yul\":5657:5776   */\n    tag_255:\n        /* \"#utility.yul\":5815:5816   */\n      0x00\n        /* \"#utility.yul\":5840:5893   */\n      tag_257\n        /* \"#utility.yul\":5885:5892   */\n      dup5\n        /* \"#utility.yul\":5876:5882   */\n      dup3\n        /* \"#utility.yul\":5865:5874   */\n      dup6\n        /* \"#utility.yul\":5861:5883   */\n      add\n        /* \"#utility.yul\":5840:5893   */\n      tag_177\n      jump\t// in\n    tag_257:\n        /* \"#utility.yul\":5830:5893   */\n      swap2\n      pop\n        /* \"#utility.yul\":5786:5903   */\n      pop\n        /* \"#utility.yul\":5581:5910   */\n      swap3\n      swap2\n      pop\n      pop\n      jump\t// out\n        /* \"#utility.yul\":5916:6390   */\n    tag_77:\n        /* \"#utility.yul\":5984:5990   */\n      0x00\n        /* \"#utility.yul\":5992:5998   */\n      dup1\n        /* \"#utility.yul\":6041:6043   */\n      0x40\n        /* \"#utility.yul\":6029:6038   */\n      dup4\n        /* \"#utility.yul\":6020:6027   */\n      dup6\n        /* \"#utility.yul\":6016:6039   */\n      sub\n        /* \"#utility.yul\":6012:6044   */\n      slt\n        /* \"#utility.yul\":6009:6128   */\n      iszero\n      tag_259\n      jumpi\n        /* \"#utility.yul\":6047:6126   */\n      tag_260\n      tag_172\n      jump\t// in\n    tag_260:\n        /* \"#utility.yul\":6009:6128   */\n    tag_259:\n        /* \"#utility.yul\":6167:6168   */\n      0x00\n        /* \"#utility.yul\":6192:6245   */\n      tag_261\n        /* \"#utility.yul\":6237:6244   */\n      dup6\n        /* \"#utility.yul\":6228:6234   */\n      dup3\n        /* \"#utility.yul\":6217:6226   */\n      dup7\n        /* \"#utility.yul\":6213:6235   */\n      add\n        /* \"#utility.yul\":6192:6245   */\n      tag_177\n      jump\t// in\n    tag_261:\n        /* \"#utility.yul\":6182:6245   */\n      swap3\n      pop\n        /* \"#utility.yul\":6138:6255   */\n      pop\n        /* \"#utility.yul\":6294:6296   */\n      0x20\n        /* \"#utility.yul\":6320:6373   */\n      tag_262\n        /* \"#utility.yul\":6365:6372   */\n      dup6\n        /* \"#utility.yul\":6356:6362   */\n      dup3\n        /* \"#utility.yul\":6345:6354   */\n      dup7\n        /* \"#utility.yul\":6341:6363   */\n      add\n        /* \"#utility.yul\":6320:6373   */\n      tag_177\n      jump\t// in\n    tag_262:\n        /* \"#utility.yul\":6310:6373   */\n      swap2\n      pop\n        /* \"#utility.yul\":6265:6383   */\n      pop\n        /* \"#utility.yul\":5916:6390   */\n      swap3\n      pop\n      swap3\n      swap1\n      pop\n      jump\t// out\n        /* \"#utility.yul\":6396:6576   */\n    tag_188:\n        /* \"#utility.yul\":6444:6521   */\n      0x4e487b7100000000000000000000000000000000000000000000000000000000\n        /* \"#utility.yul\":6441:6442   */\n      0x00\n        /* \"#utility.yul\":6434:6522   */\n      mstore\n        /* \"#utility.yul\":6541:6545   */\n      0x22\n        /* \"#utility.yul\":6538:6539   */\n      0x04\n        /* \"#utility.yul\":6531:6546   */\n      mstore\n        /* \"#utility.yul\":6565:6569   */\n      0x24\n        /* \"#utility.yul\":6562:6563   */\n      0x00\n        /* \"#utility.yul\":6555:6570   */\n      revert\n        /* \"#utility.yul\":6582:6902   */\n    tag_86:\n        /* \"#utility.yul\":6626:6632   */\n      0x00\n        /* \"#utility.yul\":6663:6664   */\n      0x02\n        /* \"#utility.yul\":6657:6661   */\n      dup3\n        /* \"#utility.yul\":6653:6665   */\n      div\n        /* \"#utility.yul\":6643:6665   */\n      swap1\n      pop\n        /* \"#utility.yul\":6710:6711   */\n      0x01\n        /* \"#utility.yul\":6704:6708   */\n      dup3\n        /* \"#utility.yul\":6700:6712   */\n      and\n        /* \"#utility.yul\":6731:6749   */\n      dup1\n        /* \"#utility.yul\":6721:6802   */\n      tag_265\n      jumpi\n        /* \"#utility.yul\":6787:6791   */\n      0x7f\n        /* \"#utility.yul\":6779:6785   */\n      dup3\n        /* \"#utility.yul\":6775:6792   */\n      and\n        /* \"#utility.yul\":6765:6792   */\n      swap2\n      pop\n        /* \"#utility.yul\":6721:6802   */\n    tag_265:\n        /* \"#utility.yul\":6849:6851   */\n      0x20\n        /* \"#utility.yul\":6841:6847   */\n      dup3\n        /* \"#utility.yul\":6838:6852   */\n      lt\n        /* \"#utility.yul\":6818:6836   */\n      dup2\n        /* \"#utility.yul\":6815:6853   */\n      sub\n        /* \"#utility.yul\":6812:6896   */\n      tag_266\n      jumpi\n        /* \"#utility.yul\":6868:6886   */\n      tag_267\n      tag_188\n      jump\t// in\n    tag_267:\n        /* \"#utility.yul\":6812:6896   */\n    tag_266:\n        /* \"#utility.yul\":6633:6902   */\n      pop\n        /* \"#utility.yul\":6582:6902   */\n      swap2\n      swap1\n      pop\n      jump\t// out\n        /* \"#utility.yul\":6908:7026   */\n    tag_189:\n        /* \"#utility.yul\":6995:7019   */\n      tag_269\n        /* \"#utility.yul\":7013:7018   */\n      dup2\n        /* \"#utility.yul\":6995:7019   */\n      tag_175\n      jump\t// in\n    tag_269:\n        /* \"#utility.yul\":6990:6993   */\n      dup3\n        /* \"#utility.yul\":6983:7020   */\n      mstore\n        /* \"#utility.yul\":6908:7026   */\n      pop\n      pop\n      jump\t// out\n        /* \"#utility.yul\":7032:7254   */\n    tag_125:\n        /* \"#utility.yul\":7125:7129   */\n      0x00\n        /* \"#utility.yul\":7163:7165   */\n      0x20\n        /* \"#utility.yul\":7152:7161   */\n      dup3\n        /* \"#utility.yul\":7148:7166   */\n      add\n        /* \"#utility.yul\":7140:7166   */\n      swap1\n      pop\n        /* \"#utility.yul\":7176:7247   */\n      tag_271\n        /* \"#utility.yul\":7244:7245   */\n      0x00\n        /* \"#utility.yul\":7233:7242   */\n      dup4\n        /* \"#utility.yul\":7229:7246   */\n      add\n        /* \"#utility.yul\":7220:7226   */\n      dup5\n        /* \"#utility.yul\":7176:7247   */\n      tag_189\n      jump\t// in\n    tag_271:\n        /* \"#utility.yul\":7032:7254   */\n      swap3\n      swap2\n      pop\n      pop\n      jump\t// out\n        /* \"#utility.yul\":7260:7702   */\n    tag_137:\n        /* \"#utility.yul\":7409:7413   */\n      0x00\n        /* \"#utility.yul\":7447:7449   */\n      0x60\n        /* \"#utility.yul\":7436:7445   */\n      dup3\n        /* \"#utility.yul\":7432:7450   */\n      add\n        /* \"#utility.yul\":7424:7450   */\n      swap1\n      pop\n        /* \"#utility.yul\":7460:7531   */\n      tag_273\n        /* \"#utility.yul\":7528:7529   */\n      0x00\n        /* \"#utility.yul\":7517:7526   */\n      dup4\n        /* \"#utility.yul\":7513:7530   */\n      add\n        /* \"#utility.yul\":7504:7510   */\n      dup7\n        /* \"#utility.yul\":7460:7531   */\n      tag_189\n      jump\t// in\n    tag_273:\n        /* \"#utility.yul\":7541:7613   */\n      tag_274\n        /* \"#utility.yul\":7609:7611   */\n      0x20\n        /* \"#utility.yul\":7598:7607   */\n      dup4\n        /* \"#utility.yul\":7594:7612   */\n      add\n        /* \"#utility.yul\":7585:7591   */\n      dup6\n        /* \"#utility.yul\":7541:7613   */\n      tag_183\n      jump\t// in\n    tag_274:\n        /* \"#utility.yul\":7623:7695   */\n      tag_275\n        /* \"#utility.yul\":7691:7693   */\n      0x40\n        /* \"#utility.yul\":7680:7689   */\n      dup4\n        /* \"#utility.yul\":7676:7694   */\n      add\n        /* \"#utility.yul\":7667:7673   */\n      dup5\n        /* \"#utility.yul\":7623:7695   */\n      tag_183\n      jump\t// in\n    tag_275:\n        /* \"#utility.yul\":7260:7702   */\n      swap5\n      swap4\n      pop\n      pop\n      pop\n      pop\n      jump\t// out\n        /* \"#utility.yul\":7708:7888   */\n    tag_190:\n        /* \"#utility.yul\":7756:7833   */\n      0x4e487b7100000000000000000000000000000000000000000000000000000000\n        /* \"#utility.yul\":7753:7754   */\n      0x00\n        /* \"#utility.yul\":7746:7834   */\n      mstore\n        /* \"#utility.yul\":7853:7857   */\n      0x11\n        /* \"#utility.yul\":7850:7851   */\n      0x04\n        /* \"#utility.yul\":7843:7858   */\n      mstore\n        /* \"#utility.yul\":7877:7881   */\n      0x24\n        /* \"#utility.yul\":7874:7875   */\n      0x00\n        /* \"#utility.yul\":7867:7882   */\n      revert\n        /* \"#utility.yul\":7894:8085   */\n    tag_152:\n        /* \"#utility.yul\":7934:7937   */\n      0x00\n        /* \"#utility.yul\":7953:7973   */\n      tag_278\n        /* \"#utility.yul\":7971:7972   */\n      dup3\n        /* \"#utility.yul\":7953:7973   */\n      tag_178\n      jump\t// in\n    tag_278:\n        /* \"#utility.yul\":7948:7973   */\n      swap2\n      pop\n        /* \"#utility.yul\":7987:8007   */\n      tag_279\n        /* \"#utility.yul\":8005:8006   */\n      dup4\n        /* \"#utility.yul\":7987:8007   */\n      tag_178\n      jump\t// in\n    tag_279:\n        /* \"#utility.yul\":7982:8007   */\n      swap3\n      pop\n        /* \"#utility.yul\":8030:8031   */\n      dup3\n        /* \"#utility.yul\":8027:8028   */\n      dup3\n        /* \"#utility.yul\":8023:8032   */\n      add\n        /* \"#utility.yul\":8016:8032   */\n      swap1\n      pop\n        /* \"#utility.yul\":8051:8054   */\n      dup1\n        /* \"#utility.yul\":8048:8049   */\n      dup3\n        /* \"#utility.yul\":8045:8055   */\n      gt\n        /* \"#utility.yul\":8042:8078   */\n      iszero\n      tag_280\n      jumpi\n        /* \"#utility.yul\":8058:8076   */\n      tag_281\n      tag_190\n      jump\t// in\n    tag_281:\n        /* \"#utility.yul\":8042:8078   */\n    tag_280:\n        /* \"#utility.yul\":7894:8085   */\n      swap3\n      swap2\n      pop\n      pop\n      jump\t// out\n\n    auxdata: 0xa26469706673582212202b66e039ebe23f21458037088ff8c5ef66189e046eb59ed92fdf6cff2dedde3664736f6c634300081a0033\n}\n",
				"bytecode": {
					"linkReferences": {},
					"object": "608060405234801561000f575f80fd5b506040518060400160405280600381526020017f61616100000000000000000000000000000000000000000000000000000000008152506040518060400160405280600281526020017f6262000000000000000000000000000000000000000000000000000000000000815250816003908161008b91906102dd565b50806004908161009b91906102dd565b5050506103ac565b5f81519050919050565b7f4e487b71000000000000000000000000000000000000000000000000000000005f52604160045260245ffd5b7f4e487b71000000000000000000000000000000000000000000000000000000005f52602260045260245ffd5b5f600282049050600182168061011e57607f821691505b602082108103610131576101306100da565b5b50919050565b5f819050815f5260205f209050919050565b5f6020601f8301049050919050565b5f82821b905092915050565b5f600883026101937fffffffffffffffffffffffffffffffffffffffffffffffffffffffffffffffff82610158565b61019d8683610158565b95508019841693508086168417925050509392505050565b5f819050919050565b5f819050919050565b5f6101e16101dc6101d7846101b5565b6101be565b6101b5565b9050919050565b5f819050919050565b6101fa836101c7565b61020e610206826101e8565b848454610164565b825550505050565b5f90565b610222610216565b61022d8184846101f1565b505050565b5b81811015610250576102455f8261021a565b600181019050610233565b5050565b601f8211156102955761026681610137565b61026f84610149565b8101602085101561027e578190505b61029261028a85610149565b830182610232565b50505b505050565b5f82821c905092915050565b5f6102b55f198460080261029a565b1980831691505092915050565b5f6102cd83836102a6565b9150826002028217905092915050565b6102e6826100a3565b67ffffffffffffffff8111156102ff576102fe6100ad565b5b6103098254610107565b610314828285610254565b5f60209050601f831160018114610345575f8415610333578287015190505b61033d85826102c2565b8655506103a4565b601f19841661035386610137565b5f5b8281101561037a57848901518255600182019150602085019450602081019050610355565b868310156103975784890151610393601f8916826102a6565b8355505b6001600288020188555050505b505050505050565b61116b806103b95f395ff3fe6080604052600436106100aa575f3560e01c806361d8a17c1161006357806361d8a17c146101db57806370a082311461020557806395d89b4114610241578063a9059cbb1461026b578063d0e30db0146102a7578063dd62ed3e146102b1576100b9565b806306fdde03146100bd578063095ea7b3146100e757806318160ddd1461012357806323b872dd1461014d5780632e1a7d4d14610189578063313ce567146101b1576100b9565b366100b9576100b76102ed565b005b5f80fd5b3480156100c8575f80fd5b506100d1610347565b6040516100de9190610d66565b60405180910390f35b3480156100f2575f80fd5b5061010d60048036038101906101089190610e17565b6103d7565b60405161011a9190610e6f565b60405180910390f35b34801561012e575f80fd5b506101376103f9565b6040516101449190610e97565b60405180910390f35b348015610158575f80fd5b50610173600480360381019061016e9190610eb0565b610400565b6040516101809190610e6f565b60405180910390f35b348015610194575f80fd5b506101af60048036038101906101aa9190610f00565b61042e565b005b3480156101bc575f80fd5b506101c56104cd565b6040516101d29190610f46565b60405180910390f35b3480156101e6575f80fd5b506101ef6104d5565b6040516101fc9190610f99565b60405180910390f35b348015610210575f80fd5b5061022b60048036038101906102269190610fb2565b6104fc565b6040516102389190610e97565b60405180910390f35b34801561024c575f80fd5b50610255610541565b6040516102629190610d66565b60405180910390f35b348015610276575f80fd5b50610291600480360381019061028c9190610e17565b6105d1565b60405161029e9190610e6f565b60405180910390f35b6102af6102ed565b005b3480156102bc575f80fd5b506102d760048036038101906102d29190610fdd565b6105f3565b6040516102e49190610e97565b60405180910390f35b6102f73334610675565b3373ffffffffffffffffffffffffffffffffffffffff167fe1fffcc4923d04b559f4d29a8bfc6cda04eb5b0d3c460751c2402c5c5cc9109c3460405161033d9190610e97565b60405180910390a2565b60606003805461035690611048565b80601f016020809104026020016040519081016040528092919081815260200182805461038290611048565b80156103cd5780601f106103a4576101008083540402835291602001916103cd565b820191905f5260205f20905b8154815290600101906020018083116103b057829003601f168201915b5050505050905090565b5f806103e16106f4565b90506103ee8185856106fb565b600191505092915050565b5f47905090565b5f8061040a6106f4565b905061041785828561070d565b61042285858561079f565b60019150509392505050565b610438338261088f565b3373ffffffffffffffffffffffffffffffffffffffff166108fc8290811502906040515f60405180830381858888f1935050505015801561047b573d5f803e3d5ffd5b503373ffffffffffffffffffffffffffffffffffffffff167f7fcf532c15f0a6db0bd6d0e038bea71d30d808c7d98cb3bf7268a95bf5081b65826040516104c29190610e97565b60405180910390a250565b5f6012905090565b5f7f01ffc9a7a5cef8baa21ed3c5c0d7e23accb804b619e9333b597f47a0d84076e2905090565b5f805f8373ffffffffffffffffffffffffffffffffffffffff1673ffffffffffffffffffffffffffffffffffffffff1681526020019081526020015f20549050919050565b60606004805461055090611048565b80601f016020809104026020016040519081016040528092919081815260200182805461057c90611048565b80156105c75780601f1061059e576101008083540402835291602001916105c7565b820191905f5260205f20905b8154815290600101906020018083116105aa57829003601f168201915b5050505050905090565b5f806105db6106f4565b90506105e881858561079f565b600191505092915050565b5f60015f8473ffffffffffffffffffffffffffffffffffffffff1673ffffffffffffffffffffffffffffffffffffffff1681526020019081526020015f205f8373ffffffffffffffffffffffffffffffffffffffff1673ffffffffffffffffffffffffffffffffffffffff1681526020019081526020015f2054905092915050565b5f73ffffffffffffffffffffffffffffffffffffffff168273ffffffffffffffffffffffffffffffffffffffff16036106e5575f6040517fec442f050000000000000000000000000000000000000000000000000000000081526004016106dc9190611087565b60405180910390fd5b6106f05f838361090e565b5050565b5f33905090565b6107088383836001610b27565b505050565b5f61071884846105f3565b90507fffffffffffffffffffffffffffffffffffffffffffffffffffffffffffffffff8114610799578181101561078a578281836040517ffb8f41b2000000000000000000000000000000000000000000000000000000008152600401610781939291906110a0565b60405180910390fd5b61079884848484035f610b27565b5b50505050565b5f73ffffffffffffffffffffffffffffffffffffffff168373ffffffffffffffffffffffffffffffffffffffff160361080f575f6040517f96c6fd1e0000000000000000000000000000000000000000000000000000000081526004016108069190611087565b60405180910390fd5b5f73ffffffffffffffffffffffffffffffffffffffff168273ffffffffffffffffffffffffffffffffffffffff160361087f575f6040517fec442f050000000000000000000000000000000000000000000000000000000081526004016108769190611087565b60405180910390fd5b61088a83838361090e565b505050565b5f73ffffffffffffffffffffffffffffffffffffffff168273ffffffffffffffffffffffffffffffffffffffff16036108ff575f6040517f96c6fd1e0000000000000000000000000000000000000000000000000000000081526004016108f69190611087565b60405180910390fd5b61090a825f8361090e565b5050565b5f73ffffffffffffffffffffffffffffffffffffffff168373ffffffffffffffffffffffffffffffffffffffff160361095e578060025f8282546109529190611102565b92505081905550610a2c565b5f805f8573ffffffffffffffffffffffffffffffffffffffff1673ffffffffffffffffffffffffffffffffffffffff1681526020019081526020015f20549050818110156109e7578381836040517fe450d38c0000000000000000000000000000000000000000000000000000000081526004016109de939291906110a0565b60405180910390fd5b8181035f808673ffffffffffffffffffffffffffffffffffffffff1673ffffffffffffffffffffffffffffffffffffffff1681526020019081526020015f2081905550505b5f73ffffffffffffffffffffffffffffffffffffffff168273ffffffffffffffffffffffffffffffffffffffff1603610a73578060025f8282540392505081905550610abd565b805f808473ffffffffffffffffffffffffffffffffffffffff1673ffffffffffffffffffffffffffffffffffffffff1681526020019081526020015f205f82825401925050819055505b8173ffffffffffffffffffffffffffffffffffffffff168373ffffffffffffffffffffffffffffffffffffffff167fddf252ad1be2c89b69c2b068fc378daa952ba7f163c4a11628f55a4df523b3ef83604051610b1a9190610e97565b60405180910390a3505050565b5f73ffffffffffffffffffffffffffffffffffffffff168473ffffffffffffffffffffffffffffffffffffffff1603610b97575f6040517fe602df05000000000000000000000000000000000000000000000000000000008152600401610b8e9190611087565b60405180910390fd5b5f73ffffffffffffffffffffffffffffffffffffffff168373ffffffffffffffffffffffffffffffffffffffff1603610c07575f6040517f94280d62000000000000000000000000000000000000000000000000000000008152600401610bfe9190611087565b60405180910390fd5b8160015f8673ffffffffffffffffffffffffffffffffffffffff1673ffffffffffffffffffffffffffffffffffffffff1681526020019081526020015f205f8573ffffffffffffffffffffffffffffffffffffffff1673ffffffffffffffffffffffffffffffffffffffff1681526020019081526020015f20819055508015610cf0578273ffffffffffffffffffffffffffffffffffffffff168473ffffffffffffffffffffffffffffffffffffffff167f8c5be1e5ebec7d5bd14f71427d1e84f3dd0314c0f7b2291e5b200ac8c7c3b92584604051610ce79190610e97565b60405180910390a35b50505050565b5f81519050919050565b5f82825260208201905092915050565b8281835e5f83830152505050565b5f601f19601f8301169050919050565b5f610d3882610cf6565b610d428185610d00565b9350610d52818560208601610d10565b610d5b81610d1e565b840191505092915050565b5f6020820190508181035f830152610d7e8184610d2e565b905092915050565b5f80fd5b5f73ffffffffffffffffffffffffffffffffffffffff82169050919050565b5f610db382610d8a565b9050919050565b610dc381610da9565b8114610dcd575f80fd5b50565b5f81359050610dde81610dba565b92915050565b5f819050919050565b610df681610de4565b8114610e00575f80fd5b50565b5f81359050610e1181610ded565b92915050565b5f8060408385031215610e2d57610e2c610d86565b5b5f610e3a85828601610dd0565b9250506020610e4b85828601610e03565b9150509250929050565b5f8115159050919050565b610e6981610e55565b82525050565b5f602082019050610e825f830184610e60565b92915050565b610e9181610de4565b82525050565b5f602082019050610eaa5f830184610e88565b92915050565b5f805f60608486031215610ec757610ec6610d86565b5b5f610ed486828701610dd0565b9350506020610ee586828701610dd0565b9250506040610ef686828701610e03565b9150509250925092565b5f60208284031215610f1557610f14610d86565b5b5f610f2284828501610e03565b91505092915050565b5f60ff82169050919050565b610f4081610f2b565b82525050565b5f602082019050610f595f830184610f37565b92915050565b5f7fffffffff0000000000000000000000000000000000000000000000000000000082169050919050565b610f9381610f5f565b82525050565b5f602082019050610fac5f830184610f8a565b92915050565b5f60208284031215610fc757610fc6610d86565b5b5f610fd484828501610dd0565b91505092915050565b5f8060408385031215610ff357610ff2610d86565b5b5f61100085828601610dd0565b925050602061101185828601610dd0565b9150509250929050565b7f4e487b71000000000000000000000000000000000000000000000000000000005f52602260045260245ffd5b5f600282049050600182168061105f57607f821691505b6020821081036110725761107161101b565b5b50919050565b61108181610da9565b82525050565b5f60208201905061109a5f830184611078565b92915050565b5f6060820190506110b35f830186611078565b6110c06020830185610e88565b6110cd6040830184610e88565b949350505050565b7f4e487b71000000000000000000000000000000000000000000000000000000005f52601160045260245ffd5b5f61110c82610de4565b915061111783610de4565b925082820190508082111561112f5761112e6110d5565b5b9291505056fea26469706673582212202b66e039ebe23f21458037088ff8c5ef66189e046eb59ed92fdf6cff2dedde3664736f6c634300081a0033",
					"opcodes": "PUSH1 0x80 PUSH1 0x40 MSTORE CALLVALUE DUP1 ISZERO PUSH2 0xF JUMPI PUSH0 DUP1 REVERT JUMPDEST POP PUSH1 0x40 MLOAD DUP1 PUSH1 0x40 ADD PUSH1 0x40 MSTORE DUP1 PUSH1 0x3 DUP2 MSTORE PUSH1 0x20 ADD PUSH32 0x6161610000000000000000000000000000000000000000000000000000000000 DUP2 MSTORE POP PUSH1 0x40 MLOAD DUP1 PUSH1 0x40 ADD PUSH1 0x40 MSTORE DUP1 PUSH1 0x2 DUP2 MSTORE PUSH1 0x20 ADD PUSH32 0x6262000000000000000000000000000000000000000000000000000000000000 DUP2 MSTORE POP DUP2 PUSH1 0x3 SWAP1 DUP2 PUSH2 0x8B SWAP2 SWAP1 PUSH2 0x2DD JUMP JUMPDEST POP DUP1 PUSH1 0x4 SWAP1 DUP2 PUSH2 0x9B SWAP2 SWAP1 PUSH2 0x2DD JUMP JUMPDEST POP POP POP PUSH2 0x3AC JUMP JUMPDEST PUSH0 DUP2 MLOAD SWAP1 POP SWAP2 SWAP1 POP JUMP JUMPDEST PUSH32 0x4E487B7100000000000000000000000000000000000000000000000000000000 PUSH0 MSTORE PUSH1 0x41 PUSH1 0x4 MSTORE PUSH1 0x24 PUSH0 REVERT JUMPDEST PUSH32 0x4E487B7100000000000000000000000000000000000000000000000000000000 PUSH0 MSTORE PUSH1 0x22 PUSH1 0x4 MSTORE PUSH1 0x24 PUSH0 REVERT JUMPDEST PUSH0 PUSH1 0x2 DUP3 DIV SWAP1 POP PUSH1 0x1 DUP3 AND DUP1 PUSH2 0x11E JUMPI PUSH1 0x7F DUP3 AND SWAP2 POP JUMPDEST PUSH1 0x20 DUP3 LT DUP2 SUB PUSH2 0x131 JUMPI PUSH2 0x130 PUSH2 0xDA JUMP JUMPDEST JUMPDEST POP SWAP2 SWAP1 POP JUMP JUMPDEST PUSH0 DUP2 SWAP1 POP DUP2 PUSH0 MSTORE PUSH1 0x20 PUSH0 KECCAK256 SWAP1 POP SWAP2 SWAP1 POP JUMP JUMPDEST PUSH0 PUSH1 0x20 PUSH1 0x1F DUP4 ADD DIV SWAP1 POP SWAP2 SWAP1 POP JUMP JUMPDEST PUSH0 DUP3 DUP3 SHL SWAP1 POP SWAP3 SWAP2 POP POP JUMP JUMPDEST PUSH0 PUSH1 0x8 DUP4 MUL PUSH2 0x193 PUSH32 0xFFFFFFFFFFFFFFFFFFFFFFFFFFFFFFFFFFFFFFFFFFFFFFFFFFFFFFFFFFFFFFFF DUP3 PUSH2 0x158 JUMP JUMPDEST PUSH2 0x19D DUP7 DUP4 PUSH2 0x158 JUMP JUMPDEST SWAP6 POP DUP1 NOT DUP5 AND SWAP4 POP DUP1 DUP7 AND DUP5 OR SWAP3 POP POP POP SWAP4 SWAP3 POP POP POP JUMP JUMPDEST PUSH0 DUP2 SWAP1 POP SWAP2 SWAP1 POP JUMP JUMPDEST PUSH0 DUP2 SWAP1 POP SWAP2 SWAP1 POP JUMP JUMPDEST PUSH0 PUSH2 0x1E1 PUSH2 0x1DC PUSH2 0x1D7 DUP5 PUSH2 0x1B5 JUMP JUMPDEST PUSH2 0x1BE JUMP JUMPDEST PUSH2 0x1B5 JUMP JUMPDEST SWAP1 POP SWAP2 SWAP1 POP JUMP JUMPDEST PUSH0 DUP2 SWAP1 POP SWAP2 SWAP1 POP JUMP JUMPDEST PUSH2 0x1FA DUP4 PUSH2 0x1C7 JUMP JUMPDEST PUSH2 0x20E PUSH2 0x206 DUP3 PUSH2 0x1E8 JUMP JUMPDEST DUP5 DUP5 SLOAD PUSH2 0x164 JUMP JUMPDEST DUP3 SSTORE POP POP POP POP JUMP JUMPDEST PUSH0 SWAP1 JUMP JUMPDEST PUSH2 0x222 PUSH2 0x216 JUMP JUMPDEST PUSH2 0x22D DUP2 DUP5 DUP5 PUSH2 0x1F1 JUMP JUMPDEST POP POP POP JUMP JUMPDEST JUMPDEST DUP2 DUP2 LT ISZERO PUSH2 0x250 JUMPI PUSH2 0x245 PUSH0 DUP3 PUSH2 0x21A JUMP JUMPDEST PUSH1 0x1 DUP2 ADD SWAP1 POP PUSH2 0x233 JUMP JUMPDEST POP POP JUMP JUMPDEST PUSH1 0x1F DUP3 GT ISZERO PUSH2 0x295 JUMPI PUSH2 0x266 DUP2 PUSH2 0x137 JUMP JUMPDEST PUSH2 0x26F DUP5 PUSH2 0x149 JUMP JUMPDEST DUP2 ADD PUSH1 0x20 DUP6 LT ISZERO PUSH2 0x27E JUMPI DUP2 SWAP1 POP JUMPDEST PUSH2 0x292 PUSH2 0x28A DUP6 PUSH2 0x149 JUMP JUMPDEST DUP4 ADD DUP3 PUSH2 0x232 JUMP JUMPDEST POP POP JUMPDEST POP POP POP JUMP JUMPDEST PUSH0 DUP3 DUP3 SHR SWAP1 POP SWAP3 SWAP2 POP POP JUMP JUMPDEST PUSH0 PUSH2 0x2B5 PUSH0 NOT DUP5 PUSH1 0x8 MUL PUSH2 0x29A JUMP JUMPDEST NOT DUP1 DUP4 AND SWAP2 POP POP SWAP3 SWAP2 POP POP JUMP JUMPDEST PUSH0 PUSH2 0x2CD DUP4 DUP4 PUSH2 0x2A6 JUMP JUMPDEST SWAP2 POP DUP3 PUSH1 0x2 MUL DUP3 OR SWAP1 POP SWAP3 SWAP2 POP POP JUMP JUMPDEST PUSH2 0x2E6 DUP3 PUSH2 0xA3 JUMP JUMPDEST PUSH8 0xFFFFFFFFFFFFFFFF DUP2 GT ISZERO PUSH2 0x2FF JUMPI PUSH2 0x2FE PUSH2 0xAD JUMP JUMPDEST JUMPDEST PUSH2 0x309 DUP3 SLOAD PUSH2 0x107 JUMP JUMPDEST PUSH2 0x314 DUP3 DUP3 DUP6 PUSH2 0x254 JUMP JUMPDEST PUSH0 PUSH1 0x20 SWAP1 POP PUSH1 0x1F DUP4 GT PUSH1 0x1 DUP2 EQ PUSH2 0x345 JUMPI PUSH0 DUP5 ISZERO PUSH2 0x333 JUMPI DUP3 DUP8 ADD MLOAD SWAP1 POP JUMPDEST PUSH2 0x33D DUP6 DUP3 PUSH2 0x2C2 JUMP JUMPDEST DUP7 SSTORE POP PUSH2 0x3A4 JUMP JUMPDEST PUSH1 0x1F NOT DUP5 AND PUSH2 0x353 DUP7 PUSH2 0x137 JUMP JUMPDEST PUSH0 JUMPDEST DUP3 DUP2 LT ISZERO PUSH2 0x37A JUMPI DUP5 DUP10 ADD MLOAD DUP3 SSTORE PUSH1 0x1 DUP3 ADD SWAP2 POP PUSH1 0x20 DUP6 ADD SWAP5 POP PUSH1 0x20 DUP2 ADD SWAP1 POP PUSH2 0x355 JUMP JUMPDEST DUP7 DUP4 LT ISZERO PUSH2 0x397 JUMPI DUP5 DUP10 ADD MLOAD PUSH2 0x393 PUSH1 0x1F DUP10 AND DUP3 PUSH2 0x2A6 JUMP JUMPDEST DUP4 SSTORE POP JUMPDEST PUSH1 0x1 PUSH1 0x2 DUP9 MUL ADD DUP9 SSTORE POP POP POP JUMPDEST POP POP POP POP POP POP JUMP JUMPDEST PUSH2 0x116B DUP1 PUSH2 0x3B9 PUSH0 CODECOPY PUSH0 RETURN INVALID PUSH1 0x80 PUSH1 0x40 MSTORE PUSH1 0x4 CALLDATASIZE LT PUSH2 0xAA JUMPI PUSH0 CALLDATALOAD PUSH1 0xE0 SHR DUP1 PUSH4 0x61D8A17C GT PUSH2 0x63 JUMPI DUP1 PUSH4 0x61D8A17C EQ PUSH2 0x1DB JUMPI DUP1 PUSH4 0x70A08231 EQ PUSH2 0x205 JUMPI DUP1 PUSH4 0x95D89B41 EQ PUSH2 0x241 JUMPI DUP1 PUSH4 0xA9059CBB EQ PUSH2 0x26B JUMPI DUP1 PUSH4 0xD0E30DB0 EQ PUSH2 0x2A7 JUMPI DUP1 PUSH4 0xDD62ED3E EQ PUSH2 0x2B1 JUMPI PUSH2 0xB9 JUMP JUMPDEST DUP1 PUSH4 0x6FDDE03 EQ PUSH2 0xBD JUMPI DUP1 PUSH4 0x95EA7B3 EQ PUSH2 0xE7 JUMPI DUP1 PUSH4 0x18160DDD EQ PUSH2 0x123 JUMPI DUP1 PUSH4 0x23B872DD EQ PUSH2 0x14D JUMPI DUP1 PUSH4 0x2E1A7D4D EQ PUSH2 0x189 JUMPI DUP1 PUSH4 0x313CE567 EQ PUSH2 0x1B1 JUMPI PUSH2 0xB9 JUMP JUMPDEST CALLDATASIZE PUSH2 0xB9 JUMPI PUSH2 0xB7 PUSH2 0x2ED JUMP JUMPDEST STOP JUMPDEST PUSH0 DUP1 REVERT JUMPDEST CALLVALUE DUP1 ISZERO PUSH2 0xC8 JUMPI PUSH0 DUP1 REVERT JUMPDEST POP PUSH2 0xD1 PUSH2 0x347 JUMP JUMPDEST PUSH1 0x40 MLOAD PUSH2 0xDE SWAP2 SWAP1 PUSH2 0xD66 JUMP JUMPDEST PUSH1 0x40 MLOAD DUP1 SWAP2 SUB SWAP1 RETURN JUMPDEST CALLVALUE DUP1 ISZERO PUSH2 0xF2 JUMPI PUSH0 DUP1 REVERT JUMPDEST POP PUSH2 0x10D PUSH1 0x4 DUP1 CALLDATASIZE SUB DUP2 ADD SWAP1 PUSH2 0x108 SWAP2 SWAP1 PUSH2 0xE17 JUMP JUMPDEST PUSH2 0x3D7 JUMP JUMPDEST PUSH1 0x40 MLOAD PUSH2 0x11A SWAP2 SWAP1 PUSH2 0xE6F JUMP JUMPDEST PUSH1 0x40 MLOAD DUP1 SWAP2 SUB SWAP1 RETURN JUMPDEST CALLVALUE DUP1 ISZERO PUSH2 0x12E JUMPI PUSH0 DUP1 REVERT JUMPDEST POP PUSH2 0x137 PUSH2 0x3F9 JUMP JUMPDEST PUSH1 0x40 MLOAD PUSH2 0x144 SWAP2 SWAP1 PUSH2 0xE97 JUMP JUMPDEST PUSH1 0x40 MLOAD DUP1 SWAP2 SUB SWAP1 RETURN JUMPDEST CALLVALUE DUP1 ISZERO PUSH2 0x158 JUMPI PUSH0 DUP1 REVERT JUMPDEST POP PUSH2 0x173 PUSH1 0x4 DUP1 CALLDATASIZE SUB DUP2 ADD SWAP1 PUSH2 0x16E SWAP2 SWAP1 PUSH2 0xEB0 JUMP JUMPDEST PUSH2 0x400 JUMP JUMPDEST PUSH1 0x40 MLOAD PUSH2 0x180 SWAP2 SWAP1 PUSH2 0xE6F JUMP JUMPDEST PUSH1 0x40 MLOAD DUP1 SWAP2 SUB SWAP1 RETURN JUMPDEST CALLVALUE DUP1 ISZERO PUSH2 0x194 JUMPI PUSH0 DUP1 REVERT JUMPDEST POP PUSH2 0x1AF PUSH1 0x4 DUP1 CALLDATASIZE SUB DUP2 ADD SWAP1 PUSH2 0x1AA SWAP2 SWAP1 PUSH2 0xF00 JUMP JUMPDEST PUSH2 0x42E JUMP JUMPDEST STOP JUMPDEST CALLVALUE DUP1 ISZERO PUSH2 0x1BC JUMPI PUSH0 DUP1 REVERT JUMPDEST POP PUSH2 0x1C5 PUSH2 0x4CD JUMP JUMPDEST PUSH1 0x40 MLOAD PUSH2 0x1D2 SWAP2 SWAP1 PUSH2 0xF46 JUMP JUMPDEST PUSH1 0x40 MLOAD DUP1 SWAP2 SUB SWAP1 RETURN JUMPDEST CALLVALUE DUP1 ISZERO PUSH2 0x1E6 JUMPI PUSH0 DUP1 REVERT JUMPDEST POP PUSH2 0x1EF PUSH2 0x4D5 JUMP JUMPDEST PUSH1 0x40 MLOAD PUSH2 0x1FC SWAP2 SWAP1 PUSH2 0xF99 JUMP JUMPDEST PUSH1 0x40 MLOAD DUP1 SWAP2 SUB SWAP1 RETURN JUMPDEST CALLVALUE DUP1 ISZERO PUSH2 0x210 JUMPI PUSH0 DUP1 REVERT JUMPDEST POP PUSH2 0x22B PUSH1 0x4 DUP1 CALLDATASIZE SUB DUP2 ADD SWAP1 PUSH2 0x226 SWAP2 SWAP1 PUSH2 0xFB2 JUMP JUMPDEST PUSH2 0x4FC JUMP JUMPDEST PUSH1 0x40 MLOAD PUSH2 0x238 SWAP2 SWAP1 PUSH2 0xE97 JUMP JUMPDEST PUSH1 0x40 MLOAD DUP1 SWAP2 SUB SWAP1 RETURN JUMPDEST CALLVALUE DUP1 ISZERO PUSH2 0x24C JUMPI PUSH0 DUP1 REVERT JUMPDEST POP PUSH2 0x255 PUSH2 0x541 JUMP JUMPDEST PUSH1 0x40 MLOAD PUSH2 0x262 SWAP2 SWAP1 PUSH2 0xD66 JUMP JUMPDEST PUSH1 0x40 MLOAD DUP1 SWAP2 SUB SWAP1 RETURN JUMPDEST CALLVALUE DUP1 ISZERO PUSH2 0x276 JUMPI PUSH0 DUP1 REVERT JUMPDEST POP PUSH2 0x291 PUSH1 0x4 DUP1 CALLDATASIZE SUB DUP2 ADD SWAP1 PUSH2 0x28C SWAP2 SWAP1 PUSH2 0xE17 JUMP JUMPDEST PUSH2 0x5D1 JUMP JUMPDEST PUSH1 0x40 MLOAD PUSH2 0x29E SWAP2 SWAP1 PUSH2 0xE6F JUMP JUMPDEST PUSH1 0x40 MLOAD DUP1 SWAP2 SUB SWAP1 RETURN JUMPDEST PUSH2 0x2AF PUSH2 0x2ED JUMP JUMPDEST STOP JUMPDEST CALLVALUE DUP1 ISZERO PUSH2 0x2BC JUMPI PUSH0 DUP1 REVERT JUMPDEST POP PUSH2 0x2D7 PUSH1 0x4 DUP1 CALLDATASIZE SUB DUP2 ADD SWAP1 PUSH2 0x2D2 SWAP2 SWAP1 PUSH2 0xFDD JUMP JUMPDEST PUSH2 0x5F3 JUMP JUMPDEST PUSH1 0x40 MLOAD PUSH2 0x2E4 SWAP2 SWAP1 PUSH2 0xE97 JUMP JUMPDEST PUSH1 0x40 MLOAD DUP1 SWAP2 SUB SWAP1 RETURN JUMPDEST PUSH2 0x2F7 CALLER CALLVALUE PUSH2 0x675 JUMP JUMPDEST CALLER PUSH20 0xFFFFFFFFFFFFFFFFFFFFFFFFFFFFFFFFFFFFFFFF AND PUSH32 0xE1FFFCC4923D04B559F4D29A8BFC6CDA04EB5B0D3C460751C2402C5C5CC9109C CALLVALUE PUSH1 0x40 MLOAD PUSH2 0x33D SWAP2 SWAP1 PUSH2 0xE97 JUMP JUMPDEST PUSH1 0x40 MLOAD DUP1 SWAP2 SUB SWAP1 LOG2 JUMP JUMPDEST PUSH1 0x60 PUSH1 0x3 DUP1 SLOAD PUSH2 0x356 SWAP1 PUSH2 0x1048 JUMP JUMPDEST DUP1 PUSH1 0x1F ADD PUSH1 0x20 DUP1 SWAP2 DIV MUL PUSH1 0x20 ADD PUSH1 0x40 MLOAD SWAP1 DUP2 ADD PUSH1 0x40 MSTORE DUP1 SWAP3 SWAP2 SWAP1 DUP2 DUP2 MSTORE PUSH1 0x20 ADD DUP3 DUP1 SLOAD PUSH2 0x382 SWAP1 PUSH2 0x1048 JUMP JUMPDEST DUP1 ISZERO PUSH2 0x3CD JUMPI DUP1 PUSH1 0x1F LT PUSH2 0x3A4 JUMPI PUSH2 0x100 DUP1 DUP4 SLOAD DIV MUL DUP4 MSTORE SWAP2 PUSH1 0x20 ADD SWAP2 PUSH2 0x3CD JUMP JUMPDEST DUP3 ADD SWAP2 SWAP1 PUSH0 MSTORE PUSH1 0x20 PUSH0 KECCAK256 SWAP1 JUMPDEST DUP2 SLOAD DUP2 MSTORE SWAP1 PUSH1 0x1 ADD SWAP1 PUSH1 0x20 ADD DUP1 DUP4 GT PUSH2 0x3B0 JUMPI DUP3 SWAP1 SUB PUSH1 0x1F AND DUP3 ADD SWAP2 JUMPDEST POP POP POP POP POP SWAP1 POP SWAP1 JUMP JUMPDEST PUSH0 DUP1 PUSH2 0x3E1 PUSH2 0x6F4 JUMP JUMPDEST SWAP1 POP PUSH2 0x3EE DUP2 DUP6 DUP6 PUSH2 0x6FB JUMP JUMPDEST PUSH1 0x1 SWAP2 POP POP SWAP3 SWAP2 POP POP JUMP JUMPDEST PUSH0 SELFBALANCE SWAP1 POP SWAP1 JUMP JUMPDEST PUSH0 DUP1 PUSH2 0x40A PUSH2 0x6F4 JUMP JUMPDEST SWAP1 POP PUSH2 0x417 DUP6 DUP3 DUP6 PUSH2 0x70D JUMP JUMPDEST PUSH2 0x422 DUP6 DUP6 DUP6 PUSH2 0x79F JUMP JUMPDEST PUSH1 0x1 SWAP2 POP POP SWAP4 SWAP3 POP POP POP JUMP JUMPDEST PUSH2 0x438 CALLER DUP3 PUSH2 0x88F JUMP JUMPDEST CALLER PUSH20 0xFFFFFFFFFFFFFFFFFFFFFFFFFFFFFFFFFFFFFFFF AND PUSH2 0x8FC DUP3 SWAP1 DUP2 ISZERO MUL SWAP1 PUSH1 0x40 MLOAD PUSH0 PUSH1 0x40 MLOAD DUP1 DUP4 SUB DUP2 DUP6 DUP9 DUP9 CALL SWAP4 POP POP POP POP ISZERO DUP1 ISZERO PUSH2 0x47B JUMPI RETURNDATASIZE PUSH0 DUP1 RETURNDATACOPY RETURNDATASIZE PUSH0 REVERT JUMPDEST POP CALLER PUSH20 0xFFFFFFFFFFFFFFFFFFFFFFFFFFFFFFFFFFFFFFFF AND PUSH32 0x7FCF532C15F0A6DB0BD6D0E038BEA71D30D808C7D98CB3BF7268A95BF5081B65 DUP3 PUSH1 0x40 MLOAD PUSH2 0x4C2 SWAP2 SWAP1 PUSH2 0xE97 JUMP JUMPDEST PUSH1 0x40 MLOAD DUP1 SWAP2 SUB SWAP1 LOG2 POP JUMP JUMPDEST PUSH0 PUSH1 0x12 SWAP1 POP SWAP1 JUMP JUMPDEST PUSH0 PUSH32 0x1FFC9A7A5CEF8BAA21ED3C5C0D7E23ACCB804B619E9333B597F47A0D84076E2 SWAP1 POP SWAP1 JUMP JUMPDEST PUSH0 DUP1 PUSH0 DUP4 PUSH20 0xFFFFFFFFFFFFFFFFFFFFFFFFFFFFFFFFFFFFFFFF AND PUSH20 0xFFFFFFFFFFFFFFFFFFFFFFFFFFFFFFFFFFFFFFFF AND DUP2 MSTORE PUSH1 0x20 ADD SWAP1 DUP2 MSTORE PUSH1 0x20 ADD PUSH0 KECCAK256 SLOAD SWAP1 POP SWAP2 SWAP1 POP JUMP JUMPDEST PUSH1 0x60 PUSH1 0x4 DUP1 SLOAD PUSH2 0x550 SWAP1 PUSH2 0x1048 JUMP JUMPDEST DUP1 PUSH1 0x1F ADD PUSH1 0x20 DUP1 SWAP2 DIV MUL PUSH1 0x20 ADD PUSH1 0x40 MLOAD SWAP1 DUP2 ADD PUSH1 0x40 MSTORE DUP1 SWAP3 SWAP2 SWAP1 DUP2 DUP2 MSTORE PUSH1 0x20 ADD DUP3 DUP1 SLOAD PUSH2 0x57C SWAP1 PUSH2 0x1048 JUMP JUMPDEST DUP1 ISZERO PUSH2 0x5C7 JUMPI DUP1 PUSH1 0x1F LT PUSH2 0x59E JUMPI PUSH2 0x100 DUP1 DUP4 SLOAD DIV MUL DUP4 MSTORE SWAP2 PUSH1 0x20 ADD SWAP2 PUSH2 0x5C7 JUMP JUMPDEST DUP3 ADD SWAP2 SWAP1 PUSH0 MSTORE PUSH1 0x20 PUSH0 KECCAK256 SWAP1 JUMPDEST DUP2 SLOAD DUP2 MSTORE SWAP1 PUSH1 0x1 ADD SWAP1 PUSH1 0x20 ADD DUP1 DUP4 GT PUSH2 0x5AA JUMPI DUP3 SWAP1 SUB PUSH1 0x1F AND DUP3 ADD SWAP2 JUMPDEST POP POP POP POP POP SWAP1 POP SWAP1 JUMP JUMPDEST PUSH0 DUP1 PUSH2 0x5DB PUSH2 0x6F4 JUMP JUMPDEST SWAP1 POP PUSH2 0x5E8 DUP2 DUP6 DUP6 PUSH2 0x79F JUMP JUMPDEST PUSH1 0x1 SWAP2 POP POP SWAP3 SWAP2 POP POP JUMP JUMPDEST PUSH0 PUSH1 0x1 PUSH0 DUP5 PUSH20 0xFFFFFFFFFFFFFFFFFFFFFFFFFFFFFFFFFFFFFFFF AND PUSH20 0xFFFFFFFFFFFFFFFFFFFFFFFFFFFFFFFFFFFFFFFF AND DUP2 MSTORE PUSH1 0x20 ADD SWAP1 DUP2 MSTORE PUSH1 0x20 ADD PUSH0 KECCAK256 PUSH0 DUP4 PUSH20 0xFFFFFFFFFFFFFFFFFFFFFFFFFFFFFFFFFFFFFFFF AND PUSH20 0xFFFFFFFFFFFFFFFFFFFFFFFFFFFFFFFFFFFFFFFF AND DUP2 MSTORE PUSH1 0x20 ADD SWAP1 DUP2 MSTORE PUSH1 0x20 ADD PUSH0 KECCAK256 SLOAD SWAP1 POP SWAP3 SWAP2 POP POP JUMP JUMPDEST PUSH0 PUSH20 0xFFFFFFFFFFFFFFFFFFFFFFFFFFFFFFFFFFFFFFFF AND DUP3 PUSH20 0xFFFFFFFFFFFFFFFFFFFFFFFFFFFFFFFFFFFFFFFF AND SUB PUSH2 0x6E5 JUMPI PUSH0 PUSH1 0x40 MLOAD PUSH32 0xEC442F0500000000000000000000000000000000000000000000000000000000 DUP2 MSTORE PUSH1 0x4 ADD PUSH2 0x6DC SWAP2 SWAP1 PUSH2 0x1087 JUMP JUMPDEST PUSH1 0x40 MLOAD DUP1 SWAP2 SUB SWAP1 REVERT JUMPDEST PUSH2 0x6F0 PUSH0 DUP4 DUP4 PUSH2 0x90E JUMP JUMPDEST POP POP JUMP JUMPDEST PUSH0 CALLER SWAP1 POP SWAP1 JUMP JUMPDEST PUSH2 0x708 DUP4 DUP4 DUP4 PUSH1 0x1 PUSH2 0xB27 JUMP JUMPDEST POP POP POP JUMP JUMPDEST PUSH0 PUSH2 0x718 DUP5 DUP5 PUSH2 0x5F3 JUMP JUMPDEST SWAP1 POP PUSH32 0xFFFFFFFFFFFFFFFFFFFFFFFFFFFFFFFFFFFFFFFFFFFFFFFFFFFFFFFFFFFFFFFF DUP2 EQ PUSH2 0x799 JUMPI DUP2 DUP2 LT ISZERO PUSH2 0x78A JUMPI DUP3 DUP2 DUP4 PUSH1 0x40 MLOAD PUSH32 0xFB8F41B200000000000000000000000000000000000000000000000000000000 DUP2 MSTORE PUSH1 0x4 ADD PUSH2 0x781 SWAP4 SWAP3 SWAP2 SWAP1 PUSH2 0x10A0 JUMP JUMPDEST PUSH1 0x40 MLOAD DUP1 SWAP2 SUB SWAP1 REVERT JUMPDEST PUSH2 0x798 DUP5 DUP5 DUP5 DUP5 SUB PUSH0 PUSH2 0xB27 JUMP JUMPDEST JUMPDEST POP POP POP POP JUMP JUMPDEST PUSH0 PUSH20 0xFFFFFFFFFFFFFFFFFFFFFFFFFFFFFFFFFFFFFFFF AND DUP4 PUSH20 0xFFFFFFFFFFFFFFFFFFFFFFFFFFFFFFFFFFFFFFFF AND SUB PUSH2 0x80F JUMPI PUSH0 PUSH1 0x40 MLOAD PUSH32 0x96C6FD1E00000000000000000000000000000000000000000000000000000000 DUP2 MSTORE PUSH1 0x4 ADD PUSH2 0x806 SWAP2 SWAP1 PUSH2 0x1087 JUMP JUMPDEST PUSH1 0x40 MLOAD DUP1 SWAP2 SUB SWAP1 REVERT JUMPDEST PUSH0 PUSH20 0xFFFFFFFFFFFFFFFFFFFFFFFFFFFFFFFFFFFFFFFF AND DUP3 PUSH20 0xFFFFFFFFFFFFFFFFFFFFFFFFFFFFFFFFFFFFFFFF AND SUB PUSH2 0x87F JUMPI PUSH0 PUSH1 0x40 MLOAD PUSH32 0xEC442F0500000000000000000000000000000000000000000000000000000000 DUP2 MSTORE PUSH1 0x4 ADD PUSH2 0x876 SWAP2 SWAP1 PUSH2 0x1087 JUMP JUMPDEST PUSH1 0x40 MLOAD DUP1 SWAP2 SUB SWAP1 REVERT JUMPDEST PUSH2 0x88A DUP4 DUP4 DUP4 PUSH2 0x90E JUMP JUMPDEST POP POP POP JUMP JUMPDEST PUSH0 PUSH20 0xFFFFFFFFFFFFFFFFFFFFFFFFFFFFFFFFFFFFFFFF AND DUP3 PUSH20 0xFFFFFFFFFFFFFFFFFFFFFFFFFFFFFFFFFFFFFFFF AND SUB PUSH2 0x8FF JUMPI PUSH0 PUSH1 0x40 MLOAD PUSH32 0x96C6FD1E00000000000000000000000000000000000000000000000000000000 DUP2 MSTORE PUSH1 0x4 ADD PUSH2 0x8F6 SWAP2 SWAP1 PUSH2 0x1087 JUMP JUMPDEST PUSH1 0x40 MLOAD DUP1 SWAP2 SUB SWAP1 REVERT JUMPDEST PUSH2 0x90A DUP3 PUSH0 DUP4 PUSH2 0x90E JUMP JUMPDEST POP POP JUMP JUMPDEST PUSH0 PUSH20 0xFFFFFFFFFFFFFFFFFFFFFFFFFFFFFFFFFFFFFFFF AND DUP4 PUSH20 0xFFFFFFFFFFFFFFFFFFFFFFFFFFFFFFFFFFFFFFFF AND SUB PUSH2 0x95E JUMPI DUP1 PUSH1 0x2 PUSH0 DUP3 DUP3 SLOAD PUSH2 0x952 SWAP2 SWAP1 PUSH2 0x1102 JUMP JUMPDEST SWAP3 POP POP DUP2 SWAP1 SSTORE POP PUSH2 0xA2C JUMP JUMPDEST PUSH0 DUP1 PUSH0 DUP6 PUSH20 0xFFFFFFFFFFFFFFFFFFFFFFFFFFFFFFFFFFFFFFFF AND PUSH20 0xFFFFFFFFFFFFFFFFFFFFFFFFFFFFFFFFFFFFFFFF AND DUP2 MSTORE PUSH1 0x20 ADD SWAP1 DUP2 MSTORE PUSH1 0x20 ADD PUSH0 KECCAK256 SLOAD SWAP1 POP DUP2 DUP2 LT ISZERO PUSH2 0x9E7 JUMPI DUP4 DUP2 DUP4 PUSH1 0x40 MLOAD PUSH32 0xE450D38C00000000000000000000000000000000000000000000000000000000 DUP2 MSTORE PUSH1 0x4 ADD PUSH2 0x9DE SWAP4 SWAP3 SWAP2 SWAP1 PUSH2 0x10A0 JUMP JUMPDEST PUSH1 0x40 MLOAD DUP1 SWAP2 SUB SWAP1 REVERT JUMPDEST DUP2 DUP2 SUB PUSH0 DUP1 DUP7 PUSH20 0xFFFFFFFFFFFFFFFFFFFFFFFFFFFFFFFFFFFFFFFF AND PUSH20 0xFFFFFFFFFFFFFFFFFFFFFFFFFFFFFFFFFFFFFFFF AND DUP2 MSTORE PUSH1 0x20 ADD SWAP1 DUP2 MSTORE PUSH1 0x20 ADD PUSH0 KECCAK256 DUP2 SWAP1 SSTORE POP POP JUMPDEST PUSH0 PUSH20 0xFFFFFFFFFFFFFFFFFFFFFFFFFFFFFFFFFFFFFFFF AND DUP3 PUSH20 0xFFFFFFFFFFFFFFFFFFFFFFFFFFFFFFFFFFFFFFFF AND SUB PUSH2 0xA73 JUMPI DUP1 PUSH1 0x2 PUSH0 DUP3 DUP3 SLOAD SUB SWAP3 POP POP DUP2 SWAP1 SSTORE POP PUSH2 0xABD JUMP JUMPDEST DUP1 PUSH0 DUP1 DUP5 PUSH20 0xFFFFFFFFFFFFFFFFFFFFFFFFFFFFFFFFFFFFFFFF AND PUSH20 0xFFFFFFFFFFFFFFFFFFFFFFFFFFFFFFFFFFFFFFFF AND DUP2 MSTORE PUSH1 0x20 ADD SWAP1 DUP2 MSTORE PUSH1 0x20 ADD PUSH0 KECCAK256 PUSH0 DUP3 DUP3 SLOAD ADD SWAP3 POP POP DUP2 SWAP1 SSTORE POP JUMPDEST DUP2 PUSH20 0xFFFFFFFFFFFFFFFFFFFFFFFFFFFFFFFFFFFFFFFF AND DUP4 PUSH20 0xFFFFFFFFFFFFFFFFFFFFFFFFFFFFFFFFFFFFFFFF AND PUSH32 0xDDF252AD1BE2C89B69C2B068FC378DAA952BA7F163C4A11628F55A4DF523B3EF DUP4 PUSH1 0x40 MLOAD PUSH2 0xB1A SWAP2 SWAP1 PUSH2 0xE97 JUMP JUMPDEST PUSH1 0x40 MLOAD DUP1 SWAP2 SUB SWAP1 LOG3 POP POP POP JUMP JUMPDEST PUSH0 PUSH20 0xFFFFFFFFFFFFFFFFFFFFFFFFFFFFFFFFFFFFFFFF AND DUP5 PUSH20 0xFFFFFFFFFFFFFFFFFFFFFFFFFFFFFFFFFFFFFFFF AND SUB PUSH2 0xB97 JUMPI PUSH0 PUSH1 0x40 MLOAD PUSH32 0xE602DF0500000000000000000000000000000000000000000000000000000000 DUP2 MSTORE PUSH1 0x4 ADD PUSH2 0xB8E SWAP2 SWAP1 PUSH2 0x1087 JUMP JUMPDEST PUSH1 0x40 MLOAD DUP1 SWAP2 SUB SWAP1 REVERT JUMPDEST PUSH0 PUSH20 0xFFFFFFFFFFFFFFFFFFFFFFFFFFFFFFFFFFFFFFFF AND DUP4 PUSH20 0xFFFFFFFFFFFFFFFFFFFFFFFFFFFFFFFFFFFFFFFF AND SUB PUSH2 0xC07 JUMPI PUSH0 PUSH1 0x40 MLOAD PUSH32 0x94280D6200000000000000000000000000000000000000000000000000000000 DUP2 MSTORE PUSH1 0x4 ADD PUSH2 0xBFE SWAP2 SWAP1 PUSH2 0x1087 JUMP JUMPDEST PUSH1 0x40 MLOAD DUP1 SWAP2 SUB SWAP1 REVERT JUMPDEST DUP2 PUSH1 0x1 PUSH0 DUP7 PUSH20 0xFFFFFFFFFFFFFFFFFFFFFFFFFFFFFFFFFFFFFFFF AND PUSH20 0xFFFFFFFFFFFFFFFFFFFFFFFFFFFFFFFFFFFFFFFF AND DUP2 MSTORE PUSH1 0x20 ADD SWAP1 DUP2 MSTORE PUSH1 0x20 ADD PUSH0 KECCAK256 PUSH0 DUP6 PUSH20 0xFFFFFFFFFFFFFFFFFFFFFFFFFFFFFFFFFFFFFFFF AND PUSH20 0xFFFFFFFFFFFFFFFFFFFFFFFFFFFFFFFFFFFFFFFF AND DUP2 MSTORE PUSH1 0x20 ADD SWAP1 DUP2 MSTORE PUSH1 0x20 ADD PUSH0 KECCAK256 DUP2 SWAP1 SSTORE POP DUP1 ISZERO PUSH2 0xCF0 JUMPI DUP3 PUSH20 0xFFFFFFFFFFFFFFFFFFFFFFFFFFFFFFFFFFFFFFFF AND DUP5 PUSH20 0xFFFFFFFFFFFFFFFFFFFFFFFFFFFFFFFFFFFFFFFF AND PUSH32 0x8C5BE1E5EBEC7D5BD14F71427D1E84F3DD0314C0F7B2291E5B200AC8C7C3B925 DUP5 PUSH1 0x40 MLOAD PUSH2 0xCE7 SWAP2 SWAP1 PUSH2 0xE97 JUMP JUMPDEST PUSH1 0x40 MLOAD DUP1 SWAP2 SUB SWAP1 LOG3 JUMPDEST POP POP POP POP JUMP JUMPDEST PUSH0 DUP2 MLOAD SWAP1 POP SWAP2 SWAP1 POP JUMP JUMPDEST PUSH0 DUP3 DUP3 MSTORE PUSH1 0x20 DUP3 ADD SWAP1 POP SWAP3 SWAP2 POP POP JUMP JUMPDEST DUP3 DUP2 DUP4 MCOPY PUSH0 DUP4 DUP4 ADD MSTORE POP POP POP JUMP JUMPDEST PUSH0 PUSH1 0x1F NOT PUSH1 0x1F DUP4 ADD AND SWAP1 POP SWAP2 SWAP1 POP JUMP JUMPDEST PUSH0 PUSH2 0xD38 DUP3 PUSH2 0xCF6 JUMP JUMPDEST PUSH2 0xD42 DUP2 DUP6 PUSH2 0xD00 JUMP JUMPDEST SWAP4 POP PUSH2 0xD52 DUP2 DUP6 PUSH1 0x20 DUP7 ADD PUSH2 0xD10 JUMP JUMPDEST PUSH2 0xD5B DUP2 PUSH2 0xD1E JUMP JUMPDEST DUP5 ADD SWAP2 POP POP SWAP3 SWAP2 POP POP JUMP JUMPDEST PUSH0 PUSH1 0x20 DUP3 ADD SWAP1 POP DUP2 DUP2 SUB PUSH0 DUP4 ADD MSTORE PUSH2 0xD7E DUP2 DUP5 PUSH2 0xD2E JUMP JUMPDEST SWAP1 POP SWAP3 SWAP2 POP POP JUMP JUMPDEST PUSH0 DUP1 REVERT JUMPDEST PUSH0 PUSH20 0xFFFFFFFFFFFFFFFFFFFFFFFFFFFFFFFFFFFFFFFF DUP3 AND SWAP1 POP SWAP2 SWAP1 POP JUMP JUMPDEST PUSH0 PUSH2 0xDB3 DUP3 PUSH2 0xD8A JUMP JUMPDEST SWAP1 POP SWAP2 SWAP1 POP JUMP JUMPDEST PUSH2 0xDC3 DUP2 PUSH2 0xDA9 JUMP JUMPDEST DUP2 EQ PUSH2 0xDCD JUMPI PUSH0 DUP1 REVERT JUMPDEST POP JUMP JUMPDEST PUSH0 DUP2 CALLDATALOAD SWAP1 POP PUSH2 0xDDE DUP2 PUSH2 0xDBA JUMP JUMPDEST SWAP3 SWAP2 POP POP JUMP JUMPDEST PUSH0 DUP2 SWAP1 POP SWAP2 SWAP1 POP JUMP JUMPDEST PUSH2 0xDF6 DUP2 PUSH2 0xDE4 JUMP JUMPDEST DUP2 EQ PUSH2 0xE00 JUMPI PUSH0 DUP1 REVERT JUMPDEST POP JUMP JUMPDEST PUSH0 DUP2 CALLDATALOAD SWAP1 POP PUSH2 0xE11 DUP2 PUSH2 0xDED JUMP JUMPDEST SWAP3 SWAP2 POP POP JUMP JUMPDEST PUSH0 DUP1 PUSH1 0x40 DUP4 DUP6 SUB SLT ISZERO PUSH2 0xE2D JUMPI PUSH2 0xE2C PUSH2 0xD86 JUMP JUMPDEST JUMPDEST PUSH0 PUSH2 0xE3A DUP6 DUP3 DUP7 ADD PUSH2 0xDD0 JUMP JUMPDEST SWAP3 POP POP PUSH1 0x20 PUSH2 0xE4B DUP6 DUP3 DUP7 ADD PUSH2 0xE03 JUMP JUMPDEST SWAP2 POP POP SWAP3 POP SWAP3 SWAP1 POP JUMP JUMPDEST PUSH0 DUP2 ISZERO ISZERO SWAP1 POP SWAP2 SWAP1 POP JUMP JUMPDEST PUSH2 0xE69 DUP2 PUSH2 0xE55 JUMP JUMPDEST DUP3 MSTORE POP POP JUMP JUMPDEST PUSH0 PUSH1 0x20 DUP3 ADD SWAP1 POP PUSH2 0xE82 PUSH0 DUP4 ADD DUP5 PUSH2 0xE60 JUMP JUMPDEST SWAP3 SWAP2 POP POP JUMP JUMPDEST PUSH2 0xE91 DUP2 PUSH2 0xDE4 JUMP JUMPDEST DUP3 MSTORE POP POP JUMP JUMPDEST PUSH0 PUSH1 0x20 DUP3 ADD SWAP1 POP PUSH2 0xEAA PUSH0 DUP4 ADD DUP5 PUSH2 0xE88 JUMP JUMPDEST SWAP3 SWAP2 POP POP JUMP JUMPDEST PUSH0 DUP1 PUSH0 PUSH1 0x60 DUP5 DUP7 SUB SLT ISZERO PUSH2 0xEC7 JUMPI PUSH2 0xEC6 PUSH2 0xD86 JUMP JUMPDEST JUMPDEST PUSH0 PUSH2 0xED4 DUP7 DUP3 DUP8 ADD PUSH2 0xDD0 JUMP JUMPDEST SWAP4 POP POP PUSH1 0x20 PUSH2 0xEE5 DUP7 DUP3 DUP8 ADD PUSH2 0xDD0 JUMP JUMPDEST SWAP3 POP POP PUSH1 0x40 PUSH2 0xEF6 DUP7 DUP3 DUP8 ADD PUSH2 0xE03 JUMP JUMPDEST SWAP2 POP POP SWAP3 POP SWAP3 POP SWAP3 JUMP JUMPDEST PUSH0 PUSH1 0x20 DUP3 DUP5 SUB SLT ISZERO PUSH2 0xF15 JUMPI PUSH2 0xF14 PUSH2 0xD86 JUMP JUMPDEST JUMPDEST PUSH0 PUSH2 0xF22 DUP5 DUP3 DUP6 ADD PUSH2 0xE03 JUMP JUMPDEST SWAP2 POP POP SWAP3 SWAP2 POP POP JUMP JUMPDEST PUSH0 PUSH1 0xFF DUP3 AND SWAP1 POP SWAP2 SWAP1 POP JUMP JUMPDEST PUSH2 0xF40 DUP2 PUSH2 0xF2B JUMP JUMPDEST DUP3 MSTORE POP POP JUMP JUMPDEST PUSH0 PUSH1 0x20 DUP3 ADD SWAP1 POP PUSH2 0xF59 PUSH0 DUP4 ADD DUP5 PUSH2 0xF37 JUMP JUMPDEST SWAP3 SWAP2 POP POP JUMP JUMPDEST PUSH0 PUSH32 0xFFFFFFFF00000000000000000000000000000000000000000000000000000000 DUP3 AND SWAP1 POP SWAP2 SWAP1 POP JUMP JUMPDEST PUSH2 0xF93 DUP2 PUSH2 0xF5F JUMP JUMPDEST DUP3 MSTORE POP POP JUMP JUMPDEST PUSH0 PUSH1 0x20 DUP3 ADD SWAP1 POP PUSH2 0xFAC PUSH0 DUP4 ADD DUP5 PUSH2 0xF8A JUMP JUMPDEST SWAP3 SWAP2 POP POP JUMP JUMPDEST PUSH0 PUSH1 0x20 DUP3 DUP5 SUB SLT ISZERO PUSH2 0xFC7 JUMPI PUSH2 0xFC6 PUSH2 0xD86 JUMP JUMPDEST JUMPDEST PUSH0 PUSH2 0xFD4 DUP5 DUP3 DUP6 ADD PUSH2 0xDD0 JUMP JUMPDEST SWAP2 POP POP SWAP3 SWAP2 POP POP JUMP JUMPDEST PUSH0 DUP1 PUSH1 0x40 DUP4 DUP6 SUB SLT ISZERO PUSH2 0xFF3 JUMPI PUSH2 0xFF2 PUSH2 0xD86 JUMP JUMPDEST JUMPDEST PUSH0 PUSH2 0x1000 DUP6 DUP3 DUP7 ADD PUSH2 0xDD0 JUMP JUMPDEST SWAP3 POP POP PUSH1 0x20 PUSH2 0x1011 DUP6 DUP3 DUP7 ADD PUSH2 0xDD0 JUMP JUMPDEST SWAP2 POP POP SWAP3 POP SWAP3 SWAP1 POP JUMP JUMPDEST PUSH32 0x4E487B7100000000000000000000000000000000000000000000000000000000 PUSH0 MSTORE PUSH1 0x22 PUSH1 0x4 MSTORE PUSH1 0x24 PUSH0 REVERT JUMPDEST PUSH0 PUSH1 0x2 DUP3 DIV SWAP1 POP PUSH1 0x1 DUP3 AND DUP1 PUSH2 0x105F JUMPI PUSH1 0x7F DUP3 AND SWAP2 POP JUMPDEST PUSH1 0x20 DUP3 LT DUP2 SUB PUSH2 0x1072 JUMPI PUSH2 0x1071 PUSH2 0x101B JUMP JUMPDEST JUMPDEST POP SWAP2 SWAP1 POP JUMP JUMPDEST PUSH2 0x1081 DUP2 PUSH2 0xDA9 JUMP JUMPDEST DUP3 MSTORE POP POP JUMP JUMPDEST PUSH0 PUSH1 0x20 DUP3 ADD SWAP1 POP PUSH2 0x109A PUSH0 DUP4 ADD DUP5 PUSH2 0x1078 JUMP JUMPDEST SWAP3 SWAP2 POP POP JUMP JUMPDEST PUSH0 PUSH1 0x60 DUP3 ADD SWAP1 POP PUSH2 0x10B3 PUSH0 DUP4 ADD DUP7 PUSH2 0x1078 JUMP JUMPDEST PUSH2 0x10C0 PUSH1 0x20 DUP4 ADD DUP6 PUSH2 0xE88 JUMP JUMPDEST PUSH2 0x10CD PUSH1 0x40 DUP4 ADD DUP5 PUSH2 0xE88 JUMP JUMPDEST SWAP5 SWAP4 POP POP POP POP JUMP JUMPDEST PUSH32 0x4E487B7100000000000000000000000000000000000000000000000000000000 PUSH0 MSTORE PUSH1 0x11 PUSH1 0x4 MSTORE PUSH1 0x24 PUSH0 REVERT JUMPDEST PUSH0 PUSH2 0x110C DUP3 PUSH2 0xDE4 JUMP JUMPDEST SWAP2 POP PUSH2 0x1117 DUP4 PUSH2 0xDE4 JUMP JUMPDEST SWAP3 POP DUP3 DUP3 ADD SWAP1 POP DUP1 DUP3 GT ISZERO PUSH2 0x112F JUMPI PUSH2 0x112E PUSH2 0x10D5 JUMP JUMPDEST JUMPDEST SWAP3 SWAP2 POP POP JUMP INVALID LOG2 PUSH5 0x6970667358 0x22 SLT KECCAK256 0x2B PUSH7 0xE039EBE23F2145 DUP1 CALLDATACOPY ADDMOD DUP16 0xF8 0xC5 0xEF PUSH7 0x189E046EB59ED9 0x2F 0xDF PUSH13 0xFF2DEDDE3664736F6C63430008 BYTE STOP CALLER "
				},
				"gasEstimates": {
					"creation": {
						"codeDepositCost": "891800",
						"executionCost": "infinite",
						"totalCost": "infinite"
					},
					"external": {
						"allowance(address,address)": "infinite",
						"approve(address,uint256)": "infinite",
						"balanceOf(address)": "2851",
						"decimals()": "449",
						"deposit()": "infinite",
						"getBytes4()": "338",
						"name()": "infinite",
						"symbol()": "infinite",
						"totalSupply()": "379",
						"transfer(address,uint256)": "infinite",
						"transferFrom(address,address,uint256)": "infinite",
						"withdraw(uint256)": "infinite"
					}
				},
				"methodIdentifiers": {
					"allowance(address,address)": "dd62ed3e",
					"approve(address,uint256)": "095ea7b3",
					"balanceOf(address)": "70a08231",
					"decimals()": "313ce567",
					"deposit()": "d0e30db0",
					"getBytes4()": "61d8a17c",
					"name()": "06fdde03",
					"symbol()": "95d89b41",
					"totalSupply()": "18160ddd",
					"transfer(address,uint256)": "a9059cbb",
					"transferFrom(address,address,uint256)": "23b872dd",
					"withdraw(uint256)": "2e1a7d4d"
				}
			},
			"storageLayout": {
				"storage": [
					{
						"astId": 261,
						"contract": "homework/03/ERC20/MyToken.sol:MyToken",
						"label": "_balances",
						"offset": 0,
						"slot": "0",
						"type": "t_mapping(t_address,t_uint256)"
					},
					{
						"astId": 267,
						"contract": "homework/03/ERC20/MyToken.sol:MyToken",
						"label": "_allowances",
						"offset": 0,
						"slot": "1",
						"type": "t_mapping(t_address,t_mapping(t_address,t_uint256))"
					},
					{
						"astId": 269,
						"contract": "homework/03/ERC20/MyToken.sol:MyToken",
						"label": "_totalSupply",
						"offset": 0,
						"slot": "2",
						"type": "t_uint256"
					},
					{
						"astId": 271,
						"contract": "homework/03/ERC20/MyToken.sol:MyToken",
						"label": "_name",
						"offset": 0,
						"slot": "3",
						"type": "t_string_storage"
					},
					{
						"astId": 273,
						"contract": "homework/03/ERC20/MyToken.sol:MyToken",
						"label": "_symbol",
						"offset": 0,
						"slot": "4",
						"type": "t_string_storage"
					}
				],
				"types": {
					"t_address": {
						"encoding": "inplace",
						"label": "address",
						"numberOfBytes": "20"
					},
					"t_mapping(t_address,t_mapping(t_address,t_uint256))": {
						"encoding": "mapping",
						"key": "t_address",
						"label": "mapping(address => mapping(address => uint256))",
						"numberOfBytes": "32",
						"value": "t_mapping(t_address,t_uint256)"
					},
					"t_mapping(t_address,t_uint256)": {
						"encoding": "mapping",
						"key": "t_address",
						"label": "mapping(address => uint256)",
						"numberOfBytes": "32",
						"value": "t_uint256"
					},
					"t_string_storage": {
						"encoding": "bytes",
						"label": "string",
						"numberOfBytes": "32"
					},
					"t_uint256": {
						"encoding": "inplace",
						"label": "uint256",
						"numberOfBytes": "32"
					}
				}
			},
			"userdoc": {
				"kind": "user",
				"methods": {},
				"version": 1
			}
		}
	}
}