{
	"homework/chainlink/FundMe.sol": {
		"FundMe": {
			"abi": [
				{
					"inputs": [],
					"stateMutability": "nonpayable",
					"type": "constructor"
				},
				{
					"inputs": [
						{
							"internalType": "address",
							"name": "",
							"type": "address"
						}
					],
					"name": "addressToAmountFund",
					"outputs": [
						{
							"internalType": "uint256",
							"name": "",
							"type": "uint256"
						}
					],
					"stateMutability": "view",
					"type": "function"
				},
				{
					"inputs": [],
					"name": "fund",
					"outputs": [],
					"stateMutability": "payable",
					"type": "function"
				},
				{
					"inputs": [
						{
							"internalType": "uint256",
							"name": "",
							"type": "uint256"
						}
					],
					"name": "funders",
					"outputs": [
						{
							"internalType": "address",
							"name": "",
							"type": "address"
						}
					],
					"stateMutability": "view",
					"type": "function"
				},
				{
					"inputs": [],
					"name": "getBalance",
					"outputs": [
						{
							"internalType": "uint256",
							"name": "",
							"type": "uint256"
						}
					],
					"stateMutability": "view",
					"type": "function"
				},
				{
					"inputs": [],
					"name": "minumumUsd",
					"outputs": [
						{
							"internalType": "uint256",
							"name": "",
							"type": "uint256"
						}
					],
					"stateMutability": "view",
					"type": "function"
				},
				{
					"inputs": [],
					"name": "owner",
					"outputs": [
						{
							"internalType": "address",
							"name": "",
							"type": "address"
						}
					],
					"stateMutability": "view",
					"type": "function"
				},
				{
					"inputs": [],
					"name": "withdraw",
					"outputs": [],
					"stateMutability": "nonpayable",
					"type": "function"
				}
			],
			"devdoc": {
				"kind": "dev",
				"methods": {},
				"version": 1
			},
			"evm": {
				"assembly": "    /* \"homework/chainlink/FundMe.sol\":58:1102  contract FundMe{... */\n  mstore(0x40, 0x80)\n    /* \"homework/chainlink/FundMe.sol\":110:118  1 * 1e18 */\n  0x0de0b6b3a7640000\n    /* \"homework/chainlink/FundMe.sol\":82:118  uint256 public minumumUsd = 1 * 1e18 */\n  0x00\n  sstore\n    /* \"homework/chainlink/FundMe.sol\":250:300  constructor(){... */\n  callvalue\n  dup1\n  iszero\n  tag_1\n  jumpi\n  0x00\n  dup1\n  revert\ntag_1:\n  pop\n    /* \"homework/chainlink/FundMe.sol\":282:292  msg.sender */\n  caller\n    /* \"homework/chainlink/FundMe.sol\":274:279  owner */\n  0x03\n  0x00\n    /* \"homework/chainlink/FundMe.sol\":274:292  owner = msg.sender */\n  0x0100\n  exp\n  dup2\n  sload\n  dup2\n  0xffffffffffffffffffffffffffffffffffffffff\n  mul\n  not\n  and\n  swap1\n  dup4\n  0xffffffffffffffffffffffffffffffffffffffff\n  and\n  mul\n  or\n  swap1\n  sstore\n  pop\n    /* \"homework/chainlink/FundMe.sol\":58:1102  contract FundMe{... */\n  dataSize(sub_0)\n  dup1\n  dataOffset(sub_0)\n  0x00\n  codecopy\n  0x00\n  return\nstop\n\nsub_0: assembly {\n        /* \"homework/chainlink/FundMe.sol\":58:1102  contract FundMe{... */\n      mstore(0x40, 0x80)\n      jumpi(tag_1, lt(calldatasize, 0x04))\n      shr(0xe0, calldataload(0x00))\n      dup1\n      0x8da5cb5b\n      gt\n      tag_9\n      jumpi\n      dup1\n      0x8da5cb5b\n      eq\n      tag_5\n      jumpi\n      dup1\n      0xb43e20b0\n      eq\n      tag_6\n      jumpi\n      dup1\n      0xb60d4288\n      eq\n      tag_7\n      jumpi\n      dup1\n      0xdc0d3dff\n      eq\n      tag_8\n      jumpi\n      jump(tag_1)\n    tag_9:\n      dup1\n      0x12065fe0\n      eq\n      tag_2\n      jumpi\n      dup1\n      0x3ccfd60b\n      eq\n      tag_3\n      jumpi\n      dup1\n      0x8c04995f\n      eq\n      tag_4\n      jumpi\n    tag_1:\n      0x00\n      dup1\n      revert\n        /* \"homework/chainlink/FundMe.sol\":1003:1099  function getBalance()public view returns(uint256){... */\n    tag_2:\n      callvalue\n      dup1\n      iszero\n      tag_10\n      jumpi\n      0x00\n      dup1\n      revert\n    tag_10:\n      pop\n      tag_11\n      tag_12\n      jump\t// in\n    tag_11:\n      mload(0x40)\n      tag_13\n      swap2\n      swap1\n      tag_14\n      jump\t// in\n    tag_13:\n      mload(0x40)\n      dup1\n      swap2\n      sub\n      swap1\n      return\n        /* \"homework/chainlink/FundMe.sol\":508:897  function withdraw() public onlyOwner{... */\n    tag_3:\n      callvalue\n      dup1\n      iszero\n      tag_15\n      jumpi\n      0x00\n      dup1\n      revert\n    tag_15:\n      pop\n      tag_16\n      tag_17\n      jump\t// in\n    tag_16:\n      stop\n        /* \"homework/chainlink/FundMe.sol\":160:212  mapping(address=>uint256) public addressToAmountFund */\n    tag_4:\n      callvalue\n      dup1\n      iszero\n      tag_18\n      jumpi\n      0x00\n      dup1\n      revert\n    tag_18:\n      pop\n      tag_19\n      0x04\n      dup1\n      calldatasize\n      sub\n      dup2\n      add\n      swap1\n      tag_20\n      swap2\n      swap1\n      tag_21\n      jump\t// in\n    tag_20:\n      tag_22\n      jump\t// in\n    tag_19:\n      mload(0x40)\n      tag_23\n      swap2\n      swap1\n      tag_14\n      jump\t// in\n    tag_23:\n      mload(0x40)\n      dup1\n      swap2\n      sub\n      swap1\n      return\n        /* \"homework/chainlink/FundMe.sol\":221:241  address public owner */\n    tag_5:\n      callvalue\n      dup1\n      iszero\n      tag_24\n      jumpi\n      0x00\n      dup1\n      revert\n    tag_24:\n      pop\n      tag_25\n      tag_26\n      jump\t// in\n    tag_25:\n      mload(0x40)\n      tag_27\n      swap2\n      swap1\n      tag_28\n      jump\t// in\n    tag_27:\n      mload(0x40)\n      dup1\n      swap2\n      sub\n      swap1\n      return\n        /* \"homework/chainlink/FundMe.sol\":82:118  uint256 public minumumUsd = 1 * 1e18 */\n    tag_6:\n      callvalue\n      dup1\n      iszero\n      tag_29\n      jumpi\n      0x00\n      dup1\n      revert\n    tag_29:\n      pop\n      tag_30\n      tag_31\n      jump\t// in\n    tag_30:\n      mload(0x40)\n      tag_32\n      swap2\n      swap1\n      tag_14\n      jump\t// in\n    tag_32:\n      mload(0x40)\n      dup1\n      swap2\n      sub\n      swap1\n      return\n        /* \"homework/chainlink/FundMe.sol\":308:500  function fund() public payable {... */\n    tag_7:\n      tag_33\n      tag_34\n      jump\t// in\n    tag_33:\n      stop\n        /* \"homework/chainlink/FundMe.sol\":127:151  address[] public funders */\n    tag_8:\n      callvalue\n      dup1\n      iszero\n      tag_35\n      jumpi\n      0x00\n      dup1\n      revert\n    tag_35:\n      pop\n      tag_36\n      0x04\n      dup1\n      calldatasize\n      sub\n      dup2\n      add\n      swap1\n      tag_37\n      swap2\n      swap1\n      tag_38\n      jump\t// in\n    tag_37:\n      tag_39\n      jump\t// in\n    tag_36:\n      mload(0x40)\n      tag_40\n      swap2\n      swap1\n      tag_28\n      jump\t// in\n    tag_40:\n      mload(0x40)\n      dup1\n      swap2\n      sub\n      swap1\n      return\n        /* \"homework/chainlink/FundMe.sol\":1003:1099  function getBalance()public view returns(uint256){... */\n    tag_12:\n        /* \"homework/chainlink/FundMe.sol\":1044:1051  uint256 */\n      0x00\n        /* \"homework/chainlink/FundMe.sol\":1070:1091  address(this).balance */\n      selfbalance\n        /* \"homework/chainlink/FundMe.sol\":1063:1091  return address(this).balance */\n      swap1\n      pop\n        /* \"homework/chainlink/FundMe.sol\":1003:1099  function getBalance()public view returns(uint256){... */\n      swap1\n      jump\t// out\n        /* \"homework/chainlink/FundMe.sol\":508:897  function withdraw() public onlyOwner{... */\n    tag_17:\n        /* \"homework/chainlink/FundMe.sol\":952:962  msg.sender */\n      caller\n        /* \"homework/chainlink/FundMe.sol\":942:962  owner ==  msg.sender */\n      0xffffffffffffffffffffffffffffffffffffffff\n      and\n        /* \"homework/chainlink/FundMe.sol\":942:947  owner */\n      0x03\n      0x00\n      swap1\n      sload\n      swap1\n      0x0100\n      exp\n      swap1\n      div\n      0xffffffffffffffffffffffffffffffffffffffff\n      and\n        /* \"homework/chainlink/FundMe.sol\":942:962  owner ==  msg.sender */\n      0xffffffffffffffffffffffffffffffffffffffff\n      and\n      eq\n        /* \"homework/chainlink/FundMe.sol\":934:975  require(owner ==  msg.sender,\"not owner\") */\n      tag_43\n      jumpi\n      mload(0x40)\n      0x08c379a000000000000000000000000000000000000000000000000000000000\n      dup2\n      mstore\n      0x04\n      add\n      tag_44\n      swap1\n      tag_45\n      jump\t// in\n    tag_44:\n      mload(0x40)\n      dup1\n      swap2\n      sub\n      swap1\n      revert\n    tag_43:\n        /* \"homework/chainlink/FundMe.sol\":559:575  uint funderIndex */\n      0x00\n        /* \"homework/chainlink/FundMe.sol\":555:721  for(uint funderIndex = 0;0<funders.length;funderIndex++){... */\n    tag_47:\n        /* \"homework/chainlink/FundMe.sol\":582:589  funders */\n      0x01\n        /* \"homework/chainlink/FundMe.sol\":582:596  funders.length */\n      dup1\n      sload\n      swap1\n      pop\n        /* \"homework/chainlink/FundMe.sol\":580:581  0 */\n      0x00\n        /* \"homework/chainlink/FundMe.sol\":580:596  0<funders.length */\n      lt\n        /* \"homework/chainlink/FundMe.sol\":555:721  for(uint funderIndex = 0;0<funders.length;funderIndex++){... */\n      iszero\n      tag_48\n      jumpi\n        /* \"homework/chainlink/FundMe.sol\":626:640  address funder */\n      0x00\n        /* \"homework/chainlink/FundMe.sol\":643:650  funders */\n      0x01\n        /* \"homework/chainlink/FundMe.sol\":651:662  funderIndex */\n      dup3\n        /* \"homework/chainlink/FundMe.sol\":643:663  funders[funderIndex] */\n      dup2\n      sload\n      dup2\n      lt\n      tag_50\n      jumpi\n      tag_51\n      tag_52\n      jump\t// in\n    tag_51:\n    tag_50:\n      swap1\n      0x00\n      mstore\n      keccak256(0x00, 0x20)\n      add\n      0x00\n      swap1\n      sload\n      swap1\n      0x0100\n      exp\n      swap1\n      div\n      0xffffffffffffffffffffffffffffffffffffffff\n      and\n        /* \"homework/chainlink/FundMe.sol\":626:663  address funder = funders[funderIndex] */\n      swap1\n      pop\n        /* \"homework/chainlink/FundMe.sol\":708:709  0 */\n      0x00\n        /* \"homework/chainlink/FundMe.sol\":678:697  addressToAmountFund */\n      0x02\n        /* \"homework/chainlink/FundMe.sol\":678:705  addressToAmountFund[funder] */\n      0x00\n        /* \"homework/chainlink/FundMe.sol\":698:704  funder */\n      dup4\n        /* \"homework/chainlink/FundMe.sol\":678:705  addressToAmountFund[funder] */\n      0xffffffffffffffffffffffffffffffffffffffff\n      and\n      0xffffffffffffffffffffffffffffffffffffffff\n      and\n      dup2\n      mstore\n      0x20\n      add\n      swap1\n      dup2\n      mstore\n      0x20\n      add\n      0x00\n      keccak256\n        /* \"homework/chainlink/FundMe.sol\":678:709  addressToAmountFund[funder] = 0 */\n      dup2\n      swap1\n      sstore\n      pop\n        /* \"homework/chainlink/FundMe.sol\":611:721  {... */\n      pop\n        /* \"homework/chainlink/FundMe.sol\":597:610  funderIndex++ */\n      dup1\n      dup1\n      tag_54\n      swap1\n      tag_55\n      jump\t// in\n    tag_54:\n      swap2\n      pop\n      pop\n        /* \"homework/chainlink/FundMe.sol\":555:721  for(uint funderIndex = 0;0<funders.length;funderIndex++){... */\n      jump(tag_47)\n    tag_48:\n      pop\n        /* \"homework/chainlink/FundMe.sol\":757:758  0 */\n      0x00\n        /* \"homework/chainlink/FundMe.sol\":743:759  new address[](0) */\n      0xffffffffffffffff\n      dup2\n      gt\n      iszero\n      tag_56\n      jumpi\n      tag_57\n      tag_58\n      jump\t// in\n    tag_57:\n    tag_56:\n      mload(0x40)\n      swap1\n      dup1\n      dup3\n      mstore\n      dup1\n      0x20\n      mul\n      0x20\n      add\n      dup3\n      add\n      0x40\n      mstore\n      dup1\n      iszero\n      tag_59\n      jumpi\n      dup2\n      0x20\n      add\n      0x20\n      dup3\n      mul\n      dup1\n      calldatasize\n      dup4\n      calldatacopy\n      dup1\n      dup3\n      add\n      swap2\n      pop\n      pop\n      swap1\n      pop\n    tag_59:\n      pop\n        /* \"homework/chainlink/FundMe.sol\":733:740  funders */\n      0x01\n        /* \"homework/chainlink/FundMe.sol\":733:759  funders = new address[](0) */\n      swap1\n      dup1\n      mload\n      swap1\n      0x20\n      add\n      swap1\n      tag_60\n      swap3\n      swap2\n      swap1\n      tag_61\n      jump\t// in\n    tag_60:\n      pop\n        /* \"homework/chainlink/FundMe.sol\":771:783  bool success */\n      0x00\n        /* \"homework/chainlink/FundMe.sol\":797:807  msg.sender */\n      caller\n        /* \"homework/chainlink/FundMe.sol\":788:813  payable (msg.sender).call */\n      0xffffffffffffffffffffffffffffffffffffffff\n      and\n        /* \"homework/chainlink/FundMe.sol\":820:841  address(this).balance */\n      selfbalance\n        /* \"homework/chainlink/FundMe.sol\":788:846  payable (msg.sender).call{value:address(this).balance}(\"\") */\n      mload(0x40)\n      tag_62\n      swap1\n      tag_63\n      jump\t// in\n    tag_62:\n      0x00\n      mload(0x40)\n      dup1\n      dup4\n      sub\n      dup2\n      dup6\n      dup8\n      gas\n      call\n      swap3\n      pop\n      pop\n      pop\n      returndatasize\n      dup1\n      0x00\n      dup2\n      eq\n      tag_66\n      jumpi\n      mload(0x40)\n      swap2\n      pop\n      and(add(returndatasize, 0x3f), not(0x1f))\n      dup3\n      add\n      0x40\n      mstore\n      returndatasize\n      dup3\n      mstore\n      returndatasize\n      0x00\n      0x20\n      dup5\n      add\n      returndatacopy\n      jump(tag_65)\n    tag_66:\n      0x60\n      swap2\n      pop\n    tag_65:\n      pop\n        /* \"homework/chainlink/FundMe.sol\":770:846  (bool success,) = payable (msg.sender).call{value:address(this).balance}(\"\") */\n      pop\n      swap1\n      pop\n        /* \"homework/chainlink/FundMe.sol\":865:872  success */\n      dup1\n        /* \"homework/chainlink/FundMe.sol\":857:887  require(success,\"call failed\") */\n      tag_67\n      jumpi\n      mload(0x40)\n      0x08c379a000000000000000000000000000000000000000000000000000000000\n      dup2\n      mstore\n      0x04\n      add\n      tag_68\n      swap1\n      tag_69\n      jump\t// in\n    tag_68:\n      mload(0x40)\n      dup1\n      swap2\n      sub\n      swap1\n      revert\n    tag_67:\n        /* \"homework/chainlink/FundMe.sol\":544:897  {... */\n      pop\n        /* \"homework/chainlink/FundMe.sol\":508:897  function withdraw() public onlyOwner{... */\n      jump\t// out\n        /* \"homework/chainlink/FundMe.sol\":160:212  mapping(address=>uint256) public addressToAmountFund */\n    tag_22:\n      mstore(0x20, 0x02)\n      dup1\n      0x00\n      mstore\n      keccak256(0x00, 0x40)\n      0x00\n      swap2\n      pop\n      swap1\n      pop\n      sload\n      dup2\n      jump\t// out\n        /* \"homework/chainlink/FundMe.sol\":221:241  address public owner */\n    tag_26:\n      0x03\n      0x00\n      swap1\n      sload\n      swap1\n      0x0100\n      exp\n      swap1\n      div\n      0xffffffffffffffffffffffffffffffffffffffff\n      and\n      dup2\n      jump\t// out\n        /* \"homework/chainlink/FundMe.sol\":82:118  uint256 public minumumUsd = 1 * 1e18 */\n    tag_31:\n      sload(0x00)\n      dup2\n      jump\t// out\n        /* \"homework/chainlink/FundMe.sol\":308:500  function fund() public payable {... */\n    tag_34:\n        /* \"homework/chainlink/FundMe.sol\":371:381  minumumUsd */\n      sload(0x00)\n        /* \"homework/chainlink/FundMe.sol\":358:367  msg.value */\n      callvalue\n        /* \"homework/chainlink/FundMe.sol\":358:381  msg.value >= minumumUsd */\n      lt\n      iszero\n        /* \"homework/chainlink/FundMe.sol\":350:402  require(msg.value >= minumumUsd,\"didnt enough fund\") */\n      tag_71\n      jumpi\n      mload(0x40)\n      0x08c379a000000000000000000000000000000000000000000000000000000000\n      dup2\n      mstore\n      0x04\n      add\n      tag_72\n      swap1\n      tag_73\n      jump\t// in\n    tag_72:\n      mload(0x40)\n      dup1\n      swap2\n      sub\n      swap1\n      revert\n    tag_71:\n        /* \"homework/chainlink/FundMe.sol\":413:420  funders */\n      0x01\n        /* \"homework/chainlink/FundMe.sol\":426:436  msg.sender */\n      caller\n        /* \"homework/chainlink/FundMe.sol\":413:437  funders.push(msg.sender) */\n      swap1\n      dup1\n      0x01\n      dup2\n      sload\n      add\n      dup1\n      dup3\n      sstore\n      dup1\n      swap2\n      pop\n      pop\n      0x01\n      swap1\n      sub\n      swap1\n      0x00\n      mstore\n      keccak256(0x00, 0x20)\n      add\n      0x00\n      swap1\n      swap2\n      swap1\n      swap2\n      swap1\n      swap2\n      0x0100\n      exp\n      dup2\n      sload\n      dup2\n      0xffffffffffffffffffffffffffffffffffffffff\n      mul\n      not\n      and\n      swap1\n      dup4\n      0xffffffffffffffffffffffffffffffffffffffff\n      and\n      mul\n      or\n      swap1\n      sstore\n      pop\n        /* \"homework/chainlink/FundMe.sol\":483:492  msg.value */\n      callvalue\n        /* \"homework/chainlink/FundMe.sol\":448:467  addressToAmountFund */\n      0x02\n        /* \"homework/chainlink/FundMe.sol\":448:479  addressToAmountFund[msg.sender] */\n      0x00\n        /* \"homework/chainlink/FundMe.sol\":468:478  msg.sender */\n      caller\n        /* \"homework/chainlink/FundMe.sol\":448:479  addressToAmountFund[msg.sender] */\n      0xffffffffffffffffffffffffffffffffffffffff\n      and\n      0xffffffffffffffffffffffffffffffffffffffff\n      and\n      dup2\n      mstore\n      0x20\n      add\n      swap1\n      dup2\n      mstore\n      0x20\n      add\n      0x00\n      keccak256\n      0x00\n        /* \"homework/chainlink/FundMe.sol\":448:492  addressToAmountFund[msg.sender] += msg.value */\n      dup3\n      dup3\n      sload\n      tag_75\n      swap2\n      swap1\n      tag_76\n      jump\t// in\n    tag_75:\n      swap3\n      pop\n      pop\n      dup2\n      swap1\n      sstore\n      pop\n        /* \"homework/chainlink/FundMe.sol\":308:500  function fund() public payable {... */\n      jump\t// out\n        /* \"homework/chainlink/FundMe.sol\":127:151  address[] public funders */\n    tag_39:\n      0x01\n      dup2\n      dup2\n      sload\n      dup2\n      lt\n      tag_77\n      jumpi\n      0x00\n      dup1\n      revert\n    tag_77:\n      swap1\n      0x00\n      mstore\n      keccak256(0x00, 0x20)\n      add\n      0x00\n      swap2\n      pop\n      sload\n      swap1\n      0x0100\n      exp\n      swap1\n      div\n      0xffffffffffffffffffffffffffffffffffffffff\n      and\n      dup2\n      jump\t// out\n    tag_61:\n      dup3\n      dup1\n      sload\n      dup3\n      dup3\n      sstore\n      swap1\n      0x00\n      mstore\n      keccak256(0x00, 0x20)\n      swap1\n      dup2\n      add\n      swap3\n      dup3\n      iszero\n      tag_79\n      jumpi\n      swap2\n      0x20\n      mul\n      dup3\n      add\n    tag_80:\n      dup3\n      dup2\n      gt\n      iszero\n      tag_81\n      jumpi\n      dup3\n      mload\n      dup3\n      exp(0x0100, 0x00)\n      dup2\n      sload\n      dup2\n      0xffffffffffffffffffffffffffffffffffffffff\n      mul\n      not\n      and\n      swap1\n      dup4\n      0xffffffffffffffffffffffffffffffffffffffff\n      and\n      mul\n      or\n      swap1\n      sstore\n      pop\n      swap2\n      0x20\n      add\n      swap2\n      swap1\n      0x01\n      add\n      swap1\n      jump(tag_80)\n    tag_81:\n    tag_79:\n      pop\n      swap1\n      pop\n      tag_82\n      swap2\n      swap1\n      tag_83\n      jump\t// in\n    tag_82:\n      pop\n      swap1\n      jump\t// out\n    tag_83:\n    tag_84:\n      dup1\n      dup3\n      gt\n      iszero\n      tag_85\n      jumpi\n      0x00\n      dup2\n      0x00\n      swap1\n      sstore\n      pop\n      0x01\n      add\n      jump(tag_84)\n    tag_85:\n      pop\n      swap1\n      jump\t// out\n        /* \"#utility.yul\":7:84   */\n    tag_86:\n        /* \"#utility.yul\":44:51   */\n      0x00\n        /* \"#utility.yul\":73:78   */\n      dup2\n        /* \"#utility.yul\":62:78   */\n      swap1\n      pop\n        /* \"#utility.yul\":7:84   */\n      swap2\n      swap1\n      pop\n      jump\t// out\n        /* \"#utility.yul\":90:208   */\n    tag_87:\n        /* \"#utility.yul\":177:201   */\n      tag_112\n        /* \"#utility.yul\":195:200   */\n      dup2\n        /* \"#utility.yul\":177:201   */\n      tag_86\n      jump\t// in\n    tag_112:\n        /* \"#utility.yul\":172:175   */\n      dup3\n        /* \"#utility.yul\":165:202   */\n      mstore\n        /* \"#utility.yul\":90:208   */\n      pop\n      pop\n      jump\t// out\n        /* \"#utility.yul\":214:436   */\n    tag_14:\n        /* \"#utility.yul\":307:311   */\n      0x00\n        /* \"#utility.yul\":345:347   */\n      0x20\n        /* \"#utility.yul\":334:343   */\n      dup3\n        /* \"#utility.yul\":330:348   */\n      add\n        /* \"#utility.yul\":322:348   */\n      swap1\n      pop\n        /* \"#utility.yul\":358:429   */\n      tag_114\n        /* \"#utility.yul\":426:427   */\n      0x00\n        /* \"#utility.yul\":415:424   */\n      dup4\n        /* \"#utility.yul\":411:428   */\n      add\n        /* \"#utility.yul\":402:408   */\n      dup5\n        /* \"#utility.yul\":358:429   */\n      tag_87\n      jump\t// in\n    tag_114:\n        /* \"#utility.yul\":214:436   */\n      swap3\n      swap2\n      pop\n      pop\n      jump\t// out\n        /* \"#utility.yul\":523:640   */\n    tag_89:\n        /* \"#utility.yul\":632:633   */\n      0x00\n        /* \"#utility.yul\":629:630   */\n      dup1\n        /* \"#utility.yul\":622:634   */\n      revert\n        /* \"#utility.yul\":769:895   */\n    tag_91:\n        /* \"#utility.yul\":806:813   */\n      0x00\n        /* \"#utility.yul\":846:888   */\n      0xffffffffffffffffffffffffffffffffffffffff\n        /* \"#utility.yul\":839:844   */\n      dup3\n        /* \"#utility.yul\":835:889   */\n      and\n        /* \"#utility.yul\":824:889   */\n      swap1\n      pop\n        /* \"#utility.yul\":769:895   */\n      swap2\n      swap1\n      pop\n      jump\t// out\n        /* \"#utility.yul\":901:997   */\n    tag_92:\n        /* \"#utility.yul\":938:945   */\n      0x00\n        /* \"#utility.yul\":967:991   */\n      tag_120\n        /* \"#utility.yul\":985:990   */\n      dup3\n        /* \"#utility.yul\":967:991   */\n      tag_91\n      jump\t// in\n    tag_120:\n        /* \"#utility.yul\":956:991   */\n      swap1\n      pop\n        /* \"#utility.yul\":901:997   */\n      swap2\n      swap1\n      pop\n      jump\t// out\n        /* \"#utility.yul\":1003:1125   */\n    tag_93:\n        /* \"#utility.yul\":1076:1100   */\n      tag_122\n        /* \"#utility.yul\":1094:1099   */\n      dup2\n        /* \"#utility.yul\":1076:1100   */\n      tag_92\n      jump\t// in\n    tag_122:\n        /* \"#utility.yul\":1069:1074   */\n      dup2\n        /* \"#utility.yul\":1066:1101   */\n      eq\n        /* \"#utility.yul\":1056:1119   */\n      tag_123\n      jumpi\n        /* \"#utility.yul\":1115:1116   */\n      0x00\n        /* \"#utility.yul\":1112:1113   */\n      dup1\n        /* \"#utility.yul\":1105:1117   */\n      revert\n        /* \"#utility.yul\":1056:1119   */\n    tag_123:\n        /* \"#utility.yul\":1003:1125   */\n      pop\n      jump\t// out\n        /* \"#utility.yul\":1131:1270   */\n    tag_94:\n        /* \"#utility.yul\":1177:1182   */\n      0x00\n        /* \"#utility.yul\":1215:1221   */\n      dup2\n        /* \"#utility.yul\":1202:1222   */\n      calldataload\n        /* \"#utility.yul\":1193:1222   */\n      swap1\n      pop\n        /* \"#utility.yul\":1231:1264   */\n      tag_125\n        /* \"#utility.yul\":1258:1263   */\n      dup2\n        /* \"#utility.yul\":1231:1264   */\n      tag_93\n      jump\t// in\n    tag_125:\n        /* \"#utility.yul\":1131:1270   */\n      swap3\n      swap2\n      pop\n      pop\n      jump\t// out\n        /* \"#utility.yul\":1276:1605   */\n    tag_21:\n        /* \"#utility.yul\":1335:1341   */\n      0x00\n        /* \"#utility.yul\":1384:1386   */\n      0x20\n        /* \"#utility.yul\":1372:1381   */\n      dup3\n        /* \"#utility.yul\":1363:1370   */\n      dup5\n        /* \"#utility.yul\":1359:1382   */\n      sub\n        /* \"#utility.yul\":1355:1387   */\n      slt\n        /* \"#utility.yul\":1352:1471   */\n      iszero\n      tag_127\n      jumpi\n        /* \"#utility.yul\":1390:1469   */\n      tag_128\n      tag_89\n      jump\t// in\n    tag_128:\n        /* \"#utility.yul\":1352:1471   */\n    tag_127:\n        /* \"#utility.yul\":1510:1511   */\n      0x00\n        /* \"#utility.yul\":1535:1588   */\n      tag_129\n        /* \"#utility.yul\":1580:1587   */\n      dup5\n        /* \"#utility.yul\":1571:1577   */\n      dup3\n        /* \"#utility.yul\":1560:1569   */\n      dup6\n        /* \"#utility.yul\":1556:1578   */\n      add\n        /* \"#utility.yul\":1535:1588   */\n      tag_94\n      jump\t// in\n    tag_129:\n        /* \"#utility.yul\":1525:1588   */\n      swap2\n      pop\n        /* \"#utility.yul\":1481:1598   */\n      pop\n        /* \"#utility.yul\":1276:1605   */\n      swap3\n      swap2\n      pop\n      pop\n      jump\t// out\n        /* \"#utility.yul\":1611:1729   */\n    tag_95:\n        /* \"#utility.yul\":1698:1722   */\n      tag_131\n        /* \"#utility.yul\":1716:1721   */\n      dup2\n        /* \"#utility.yul\":1698:1722   */\n      tag_92\n      jump\t// in\n    tag_131:\n        /* \"#utility.yul\":1693:1696   */\n      dup3\n        /* \"#utility.yul\":1686:1723   */\n      mstore\n        /* \"#utility.yul\":1611:1729   */\n      pop\n      pop\n      jump\t// out\n        /* \"#utility.yul\":1735:1957   */\n    tag_28:\n        /* \"#utility.yul\":1828:1832   */\n      0x00\n        /* \"#utility.yul\":1866:1868   */\n      0x20\n        /* \"#utility.yul\":1855:1864   */\n      dup3\n        /* \"#utility.yul\":1851:1869   */\n      add\n        /* \"#utility.yul\":1843:1869   */\n      swap1\n      pop\n        /* \"#utility.yul\":1879:1950   */\n      tag_133\n        /* \"#utility.yul\":1947:1948   */\n      0x00\n        /* \"#utility.yul\":1936:1945   */\n      dup4\n        /* \"#utility.yul\":1932:1949   */\n      add\n        /* \"#utility.yul\":1923:1929   */\n      dup5\n        /* \"#utility.yul\":1879:1950   */\n      tag_95\n      jump\t// in\n    tag_133:\n        /* \"#utility.yul\":1735:1957   */\n      swap3\n      swap2\n      pop\n      pop\n      jump\t// out\n        /* \"#utility.yul\":1963:2085   */\n    tag_96:\n        /* \"#utility.yul\":2036:2060   */\n      tag_135\n        /* \"#utility.yul\":2054:2059   */\n      dup2\n        /* \"#utility.yul\":2036:2060   */\n      tag_86\n      jump\t// in\n    tag_135:\n        /* \"#utility.yul\":2029:2034   */\n      dup2\n        /* \"#utility.yul\":2026:2061   */\n      eq\n        /* \"#utility.yul\":2016:2079   */\n      tag_136\n      jumpi\n        /* \"#utility.yul\":2075:2076   */\n      0x00\n        /* \"#utility.yul\":2072:2073   */\n      dup1\n        /* \"#utility.yul\":2065:2077   */\n      revert\n        /* \"#utility.yul\":2016:2079   */\n    tag_136:\n        /* \"#utility.yul\":1963:2085   */\n      pop\n      jump\t// out\n        /* \"#utility.yul\":2091:2230   */\n    tag_97:\n        /* \"#utility.yul\":2137:2142   */\n      0x00\n        /* \"#utility.yul\":2175:2181   */\n      dup2\n        /* \"#utility.yul\":2162:2182   */\n      calldataload\n        /* \"#utility.yul\":2153:2182   */\n      swap1\n      pop\n        /* \"#utility.yul\":2191:2224   */\n      tag_138\n        /* \"#utility.yul\":2218:2223   */\n      dup2\n        /* \"#utility.yul\":2191:2224   */\n      tag_96\n      jump\t// in\n    tag_138:\n        /* \"#utility.yul\":2091:2230   */\n      swap3\n      swap2\n      pop\n      pop\n      jump\t// out\n        /* \"#utility.yul\":2236:2565   */\n    tag_38:\n        /* \"#utility.yul\":2295:2301   */\n      0x00\n        /* \"#utility.yul\":2344:2346   */\n      0x20\n        /* \"#utility.yul\":2332:2341   */\n      dup3\n        /* \"#utility.yul\":2323:2330   */\n      dup5\n        /* \"#utility.yul\":2319:2342   */\n      sub\n        /* \"#utility.yul\":2315:2347   */\n      slt\n        /* \"#utility.yul\":2312:2431   */\n      iszero\n      tag_140\n      jumpi\n        /* \"#utility.yul\":2350:2429   */\n      tag_141\n      tag_89\n      jump\t// in\n    tag_141:\n        /* \"#utility.yul\":2312:2431   */\n    tag_140:\n        /* \"#utility.yul\":2470:2471   */\n      0x00\n        /* \"#utility.yul\":2495:2548   */\n      tag_142\n        /* \"#utility.yul\":2540:2547   */\n      dup5\n        /* \"#utility.yul\":2531:2537   */\n      dup3\n        /* \"#utility.yul\":2520:2529   */\n      dup6\n        /* \"#utility.yul\":2516:2538   */\n      add\n        /* \"#utility.yul\":2495:2548   */\n      tag_97\n      jump\t// in\n    tag_142:\n        /* \"#utility.yul\":2485:2548   */\n      swap2\n      pop\n        /* \"#utility.yul\":2441:2558   */\n      pop\n        /* \"#utility.yul\":2236:2565   */\n      swap3\n      swap2\n      pop\n      pop\n      jump\t// out\n        /* \"#utility.yul\":2571:2740   */\n    tag_98:\n        /* \"#utility.yul\":2655:2666   */\n      0x00\n        /* \"#utility.yul\":2689:2695   */\n      dup3\n        /* \"#utility.yul\":2684:2687   */\n      dup3\n        /* \"#utility.yul\":2677:2696   */\n      mstore\n        /* \"#utility.yul\":2729:2733   */\n      0x20\n        /* \"#utility.yul\":2724:2727   */\n      dup3\n        /* \"#utility.yul\":2720:2734   */\n      add\n        /* \"#utility.yul\":2705:2734   */\n      swap1\n      pop\n        /* \"#utility.yul\":2571:2740   */\n      swap3\n      swap2\n      pop\n      pop\n      jump\t// out\n        /* \"#utility.yul\":2746:2905   */\n    tag_99:\n        /* \"#utility.yul\":2886:2897   */\n      0x6e6f74206f776e65720000000000000000000000000000000000000000000000\n        /* \"#utility.yul\":2882:2883   */\n      0x00\n        /* \"#utility.yul\":2874:2880   */\n      dup3\n        /* \"#utility.yul\":2870:2884   */\n      add\n        /* \"#utility.yul\":2863:2898   */\n      mstore\n        /* \"#utility.yul\":2746:2905   */\n      pop\n      jump\t// out\n        /* \"#utility.yul\":2911:3276   */\n    tag_100:\n        /* \"#utility.yul\":3053:3056   */\n      0x00\n        /* \"#utility.yul\":3074:3140   */\n      tag_146\n        /* \"#utility.yul\":3138:3139   */\n      0x09\n        /* \"#utility.yul\":3133:3136   */\n      dup4\n        /* \"#utility.yul\":3074:3140   */\n      tag_98\n      jump\t// in\n    tag_146:\n        /* \"#utility.yul\":3067:3140   */\n      swap2\n      pop\n        /* \"#utility.yul\":3149:3242   */\n      tag_147\n        /* \"#utility.yul\":3238:3241   */\n      dup3\n        /* \"#utility.yul\":3149:3242   */\n      tag_99\n      jump\t// in\n    tag_147:\n        /* \"#utility.yul\":3267:3269   */\n      0x20\n        /* \"#utility.yul\":3262:3265   */\n      dup3\n        /* \"#utility.yul\":3258:3270   */\n      add\n        /* \"#utility.yul\":3251:3270   */\n      swap1\n      pop\n        /* \"#utility.yul\":2911:3276   */\n      swap2\n      swap1\n      pop\n      jump\t// out\n        /* \"#utility.yul\":3282:3701   */\n    tag_45:\n        /* \"#utility.yul\":3448:3452   */\n      0x00\n        /* \"#utility.yul\":3486:3488   */\n      0x20\n        /* \"#utility.yul\":3475:3484   */\n      dup3\n        /* \"#utility.yul\":3471:3489   */\n      add\n        /* \"#utility.yul\":3463:3489   */\n      swap1\n      pop\n        /* \"#utility.yul\":3535:3544   */\n      dup2\n        /* \"#utility.yul\":3529:3533   */\n      dup2\n        /* \"#utility.yul\":3525:3545   */\n      sub\n        /* \"#utility.yul\":3521:3522   */\n      0x00\n        /* \"#utility.yul\":3510:3519   */\n      dup4\n        /* \"#utility.yul\":3506:3523   */\n      add\n        /* \"#utility.yul\":3499:3546   */\n      mstore\n        /* \"#utility.yul\":3563:3694   */\n      tag_149\n        /* \"#utility.yul\":3689:3693   */\n      dup2\n        /* \"#utility.yul\":3563:3694   */\n      tag_100\n      jump\t// in\n    tag_149:\n        /* \"#utility.yul\":3555:3694   */\n      swap1\n      pop\n        /* \"#utility.yul\":3282:3701   */\n      swap2\n      swap1\n      pop\n      jump\t// out\n        /* \"#utility.yul\":3707:3887   */\n    tag_52:\n        /* \"#utility.yul\":3755:3832   */\n      0x4e487b7100000000000000000000000000000000000000000000000000000000\n        /* \"#utility.yul\":3752:3753   */\n      0x00\n        /* \"#utility.yul\":3745:3833   */\n      mstore\n        /* \"#utility.yul\":3852:3856   */\n      0x32\n        /* \"#utility.yul\":3849:3850   */\n      0x04\n        /* \"#utility.yul\":3842:3857   */\n      mstore\n        /* \"#utility.yul\":3876:3880   */\n      0x24\n        /* \"#utility.yul\":3873:3874   */\n      0x00\n        /* \"#utility.yul\":3866:3881   */\n      revert\n        /* \"#utility.yul\":3893:4073   */\n    tag_101:\n        /* \"#utility.yul\":3941:4018   */\n      0x4e487b7100000000000000000000000000000000000000000000000000000000\n        /* \"#utility.yul\":3938:3939   */\n      0x00\n        /* \"#utility.yul\":3931:4019   */\n      mstore\n        /* \"#utility.yul\":4038:4042   */\n      0x11\n        /* \"#utility.yul\":4035:4036   */\n      0x04\n        /* \"#utility.yul\":4028:4043   */\n      mstore\n        /* \"#utility.yul\":4062:4066   */\n      0x24\n        /* \"#utility.yul\":4059:4060   */\n      0x00\n        /* \"#utility.yul\":4052:4067   */\n      revert\n        /* \"#utility.yul\":4079:4312   */\n    tag_55:\n        /* \"#utility.yul\":4118:4121   */\n      0x00\n        /* \"#utility.yul\":4141:4165   */\n      tag_153\n        /* \"#utility.yul\":4159:4164   */\n      dup3\n        /* \"#utility.yul\":4141:4165   */\n      tag_86\n      jump\t// in\n    tag_153:\n        /* \"#utility.yul\":4132:4165   */\n      swap2\n      pop\n        /* \"#utility.yul\":4187:4253   */\n      0xffffffffffffffffffffffffffffffffffffffffffffffffffffffffffffffff\n        /* \"#utility.yul\":4180:4185   */\n      dup3\n        /* \"#utility.yul\":4177:4254   */\n      sub\n        /* \"#utility.yul\":4174:4277   */\n      tag_154\n      jumpi\n        /* \"#utility.yul\":4257:4275   */\n      tag_155\n      tag_101\n      jump\t// in\n    tag_155:\n        /* \"#utility.yul\":4174:4277   */\n    tag_154:\n        /* \"#utility.yul\":4304:4305   */\n      0x01\n        /* \"#utility.yul\":4297:4302   */\n      dup3\n        /* \"#utility.yul\":4293:4306   */\n      add\n        /* \"#utility.yul\":4286:4306   */\n      swap1\n      pop\n        /* \"#utility.yul\":4079:4312   */\n      swap2\n      swap1\n      pop\n      jump\t// out\n        /* \"#utility.yul\":4318:4498   */\n    tag_58:\n        /* \"#utility.yul\":4366:4443   */\n      0x4e487b7100000000000000000000000000000000000000000000000000000000\n        /* \"#utility.yul\":4363:4364   */\n      0x00\n        /* \"#utility.yul\":4356:4444   */\n      mstore\n        /* \"#utility.yul\":4463:4467   */\n      0x41\n        /* \"#utility.yul\":4460:4461   */\n      0x04\n        /* \"#utility.yul\":4453:4468   */\n      mstore\n        /* \"#utility.yul\":4487:4491   */\n      0x24\n        /* \"#utility.yul\":4484:4485   */\n      0x00\n        /* \"#utility.yul\":4477:4492   */\n      revert\n        /* \"#utility.yul\":4504:4651   */\n    tag_102:\n        /* \"#utility.yul\":4605:4616   */\n      0x00\n        /* \"#utility.yul\":4642:4645   */\n      dup2\n        /* \"#utility.yul\":4627:4645   */\n      swap1\n      pop\n        /* \"#utility.yul\":4504:4651   */\n      swap3\n      swap2\n      pop\n      pop\n      jump\t// out\n        /* \"#utility.yul\":4657:4771   */\n    tag_103:\n      pop\n      jump\t// out\n        /* \"#utility.yul\":4777:5175   */\n    tag_104:\n        /* \"#utility.yul\":4936:4939   */\n      0x00\n        /* \"#utility.yul\":4957:5040   */\n      tag_160\n        /* \"#utility.yul\":5038:5039   */\n      0x00\n        /* \"#utility.yul\":5033:5036   */\n      dup4\n        /* \"#utility.yul\":4957:5040   */\n      tag_102\n      jump\t// in\n    tag_160:\n        /* \"#utility.yul\":4950:5040   */\n      swap2\n      pop\n        /* \"#utility.yul\":5049:5142   */\n      tag_161\n        /* \"#utility.yul\":5138:5141   */\n      dup3\n        /* \"#utility.yul\":5049:5142   */\n      tag_103\n      jump\t// in\n    tag_161:\n        /* \"#utility.yul\":5167:5168   */\n      0x00\n        /* \"#utility.yul\":5162:5165   */\n      dup3\n        /* \"#utility.yul\":5158:5169   */\n      add\n        /* \"#utility.yul\":5151:5169   */\n      swap1\n      pop\n        /* \"#utility.yul\":4777:5175   */\n      swap2\n      swap1\n      pop\n      jump\t// out\n        /* \"#utility.yul\":5181:5560   */\n    tag_63:\n        /* \"#utility.yul\":5365:5368   */\n      0x00\n        /* \"#utility.yul\":5387:5534   */\n      tag_163\n        /* \"#utility.yul\":5530:5533   */\n      dup3\n        /* \"#utility.yul\":5387:5534   */\n      tag_104\n      jump\t// in\n    tag_163:\n        /* \"#utility.yul\":5380:5534   */\n      swap2\n      pop\n        /* \"#utility.yul\":5551:5554   */\n      dup2\n        /* \"#utility.yul\":5544:5554   */\n      swap1\n      pop\n        /* \"#utility.yul\":5181:5560   */\n      swap2\n      swap1\n      pop\n      jump\t// out\n        /* \"#utility.yul\":5566:5727   */\n    tag_105:\n        /* \"#utility.yul\":5706:5719   */\n      0x63616c6c206661696c6564000000000000000000000000000000000000000000\n        /* \"#utility.yul\":5702:5703   */\n      0x00\n        /* \"#utility.yul\":5694:5700   */\n      dup3\n        /* \"#utility.yul\":5690:5704   */\n      add\n        /* \"#utility.yul\":5683:5720   */\n      mstore\n        /* \"#utility.yul\":5566:5727   */\n      pop\n      jump\t// out\n        /* \"#utility.yul\":5733:6099   */\n    tag_106:\n        /* \"#utility.yul\":5875:5878   */\n      0x00\n        /* \"#utility.yul\":5896:5963   */\n      tag_166\n        /* \"#utility.yul\":5960:5962   */\n      0x0b\n        /* \"#utility.yul\":5955:5958   */\n      dup4\n        /* \"#utility.yul\":5896:5963   */\n      tag_98\n      jump\t// in\n    tag_166:\n        /* \"#utility.yul\":5889:5963   */\n      swap2\n      pop\n        /* \"#utility.yul\":5972:6065   */\n      tag_167\n        /* \"#utility.yul\":6061:6064   */\n      dup3\n        /* \"#utility.yul\":5972:6065   */\n      tag_105\n      jump\t// in\n    tag_167:\n        /* \"#utility.yul\":6090:6092   */\n      0x20\n        /* \"#utility.yul\":6085:6088   */\n      dup3\n        /* \"#utility.yul\":6081:6093   */\n      add\n        /* \"#utility.yul\":6074:6093   */\n      swap1\n      pop\n        /* \"#utility.yul\":5733:6099   */\n      swap2\n      swap1\n      pop\n      jump\t// out\n        /* \"#utility.yul\":6105:6524   */\n    tag_69:\n        /* \"#utility.yul\":6271:6275   */\n      0x00\n        /* \"#utility.yul\":6309:6311   */\n      0x20\n        /* \"#utility.yul\":6298:6307   */\n      dup3\n        /* \"#utility.yul\":6294:6312   */\n      add\n        /* \"#utility.yul\":6286:6312   */\n      swap1\n      pop\n        /* \"#utility.yul\":6358:6367   */\n      dup2\n        /* \"#utility.yul\":6352:6356   */\n      dup2\n        /* \"#utility.yul\":6348:6368   */\n      sub\n        /* \"#utility.yul\":6344:6345   */\n      0x00\n        /* \"#utility.yul\":6333:6342   */\n      dup4\n        /* \"#utility.yul\":6329:6346   */\n      add\n        /* \"#utility.yul\":6322:6369   */\n      mstore\n        /* \"#utility.yul\":6386:6517   */\n      tag_169\n        /* \"#utility.yul\":6512:6516   */\n      dup2\n        /* \"#utility.yul\":6386:6517   */\n      tag_106\n      jump\t// in\n    tag_169:\n        /* \"#utility.yul\":6378:6517   */\n      swap1\n      pop\n        /* \"#utility.yul\":6105:6524   */\n      swap2\n      swap1\n      pop\n      jump\t// out\n        /* \"#utility.yul\":6530:6697   */\n    tag_107:\n        /* \"#utility.yul\":6670:6689   */\n      0x6469646e7420656e6f7567682066756e64000000000000000000000000000000\n        /* \"#utility.yul\":6666:6667   */\n      0x00\n        /* \"#utility.yul\":6658:6664   */\n      dup3\n        /* \"#utility.yul\":6654:6668   */\n      add\n        /* \"#utility.yul\":6647:6690   */\n      mstore\n        /* \"#utility.yul\":6530:6697   */\n      pop\n      jump\t// out\n        /* \"#utility.yul\":6703:7069   */\n    tag_108:\n        /* \"#utility.yul\":6845:6848   */\n      0x00\n        /* \"#utility.yul\":6866:6933   */\n      tag_172\n        /* \"#utility.yul\":6930:6932   */\n      0x11\n        /* \"#utility.yul\":6925:6928   */\n      dup4\n        /* \"#utility.yul\":6866:6933   */\n      tag_98\n      jump\t// in\n    tag_172:\n        /* \"#utility.yul\":6859:6933   */\n      swap2\n      pop\n        /* \"#utility.yul\":6942:7035   */\n      tag_173\n        /* \"#utility.yul\":7031:7034   */\n      dup3\n        /* \"#utility.yul\":6942:7035   */\n      tag_107\n      jump\t// in\n    tag_173:\n        /* \"#utility.yul\":7060:7062   */\n      0x20\n        /* \"#utility.yul\":7055:7058   */\n      dup3\n        /* \"#utility.yul\":7051:7063   */\n      add\n        /* \"#utility.yul\":7044:7063   */\n      swap1\n      pop\n        /* \"#utility.yul\":6703:7069   */\n      swap2\n      swap1\n      pop\n      jump\t// out\n        /* \"#utility.yul\":7075:7494   */\n    tag_73:\n        /* \"#utility.yul\":7241:7245   */\n      0x00\n        /* \"#utility.yul\":7279:7281   */\n      0x20\n        /* \"#utility.yul\":7268:7277   */\n      dup3\n        /* \"#utility.yul\":7264:7282   */\n      add\n        /* \"#utility.yul\":7256:7282   */\n      swap1\n      pop\n        /* \"#utility.yul\":7328:7337   */\n      dup2\n        /* \"#utility.yul\":7322:7326   */\n      dup2\n        /* \"#utility.yul\":7318:7338   */\n      sub\n        /* \"#utility.yul\":7314:7315   */\n      0x00\n        /* \"#utility.yul\":7303:7312   */\n      dup4\n        /* \"#utility.yul\":7299:7316   */\n      add\n        /* \"#utility.yul\":7292:7339   */\n      mstore\n        /* \"#utility.yul\":7356:7487   */\n      tag_175\n        /* \"#utility.yul\":7482:7486   */\n      dup2\n        /* \"#utility.yul\":7356:7487   */\n      tag_108\n      jump\t// in\n    tag_175:\n        /* \"#utility.yul\":7348:7487   */\n      swap1\n      pop\n        /* \"#utility.yul\":7075:7494   */\n      swap2\n      swap1\n      pop\n      jump\t// out\n        /* \"#utility.yul\":7500:7691   */\n    tag_76:\n        /* \"#utility.yul\":7540:7543   */\n      0x00\n        /* \"#utility.yul\":7559:7579   */\n      tag_177\n        /* \"#utility.yul\":7577:7578   */\n      dup3\n        /* \"#utility.yul\":7559:7579   */\n      tag_86\n      jump\t// in\n    tag_177:\n        /* \"#utility.yul\":7554:7579   */\n      swap2\n      pop\n        /* \"#utility.yul\":7593:7613   */\n      tag_178\n        /* \"#utility.yul\":7611:7612   */\n      dup4\n        /* \"#utility.yul\":7593:7613   */\n      tag_86\n      jump\t// in\n    tag_178:\n        /* \"#utility.yul\":7588:7613   */\n      swap3\n      pop\n        /* \"#utility.yul\":7636:7637   */\n      dup3\n        /* \"#utility.yul\":7633:7634   */\n      dup3\n        /* \"#utility.yul\":7629:7638   */\n      add\n        /* \"#utility.yul\":7622:7638   */\n      swap1\n      pop\n        /* \"#utility.yul\":7657:7660   */\n      dup1\n        /* \"#utility.yul\":7654:7655   */\n      dup3\n        /* \"#utility.yul\":7651:7661   */\n      gt\n        /* \"#utility.yul\":7648:7684   */\n      iszero\n      tag_179\n      jumpi\n        /* \"#utility.yul\":7664:7682   */\n      tag_180\n      tag_101\n      jump\t// in\n    tag_180:\n        /* \"#utility.yul\":7648:7684   */\n    tag_179:\n        /* \"#utility.yul\":7500:7691   */\n      swap3\n      swap2\n      pop\n      pop\n      jump\t// out\n\n    auxdata: 0xa2646970667358221220ae961447127874c48067cfc842d8f45d468292482a5732ab9336387032cad9ff64736f6c634300081a0033\n}\n",
				"bytecode": {
					"linkReferences": {},
					"object": "6080604052670de0b6b3a76400005f553480156019575f80fd5b503360035f6101000a81548173ffffffffffffffffffffffffffffffffffffffff021916908373ffffffffffffffffffffffffffffffffffffffff1602179055506109da806100675f395ff3fe60806040526004361061006f575f3560e01c80638da5cb5b1161004d5780638da5cb5b146100ef578063b43e20b014610119578063b60d428814610143578063dc0d3dff1461014d5761006f565b806312065fe0146100735780633ccfd60b1461009d5780638c04995f146100b3575b5f80fd5b34801561007e575f80fd5b50610087610189565b60405161009491906105fb565b60405180910390f35b3480156100a8575f80fd5b506100b1610190565b005b3480156100be575f80fd5b506100d960048036038101906100d49190610672565b6103ce565b6040516100e691906105fb565b60405180910390f35b3480156100fa575f80fd5b506101036103e3565b60405161011091906106ac565b60405180910390f35b348015610124575f80fd5b5061012d610408565b60405161013a91906105fb565b60405180910390f35b61014b61040d565b005b348015610158575f80fd5b50610173600480360381019061016e91906106ef565b610506565b60405161018091906106ac565b60405180910390f35b5f47905090565b3373ffffffffffffffffffffffffffffffffffffffff1660035f9054906101000a900473ffffffffffffffffffffffffffffffffffffffff1673ffffffffffffffffffffffffffffffffffffffff161461021f576040517f08c379a000000000000000000000000000000000000000000000000000000000815260040161021690610774565b60405180910390fd5b5f5b6001805490505f10156102c3575f6001828154811061024357610242610792565b5b905f5260205f20015f9054906101000a900473ffffffffffffffffffffffffffffffffffffffff1690505f60025f8373ffffffffffffffffffffffffffffffffffffffff1673ffffffffffffffffffffffffffffffffffffffff1681526020019081526020015f20819055505080806102bb906107ec565b915050610221565b505f67ffffffffffffffff8111156102de576102dd610833565b5b60405190808252806020026020018201604052801561030c5781602001602082028036833780820191505090505b5060019080519060200190610322929190610541565b505f3373ffffffffffffffffffffffffffffffffffffffff16476040516103489061088d565b5f6040518083038185875af1925050503d805f8114610382576040519150601f19603f3d011682016040523d82523d5f602084013e610387565b606091505b50509050806103cb576040517f08c379a00000000000000000000000000000000000000000000000000000000081526004016103c2906108eb565b60405180910390fd5b50565b6002602052805f5260405f205f915090505481565b60035f9054906101000a900473ffffffffffffffffffffffffffffffffffffffff1681565b5f5481565b5f54341015610451576040517f08c379a000000000000000000000000000000000000000000000000000000000815260040161044890610953565b60405180910390fd5b600133908060018154018082558091505060019003905f5260205f20015f9091909190916101000a81548173ffffffffffffffffffffffffffffffffffffffff021916908373ffffffffffffffffffffffffffffffffffffffff1602179055503460025f3373ffffffffffffffffffffffffffffffffffffffff1673ffffffffffffffffffffffffffffffffffffffff1681526020019081526020015f205f8282546104fd9190610971565b92505081905550565b60018181548110610515575f80fd5b905f5260205f20015f915054906101000a900473ffffffffffffffffffffffffffffffffffffffff1681565b828054828255905f5260205f209081019282156105b7579160200282015b828111156105b6578251825f6101000a81548173ffffffffffffffffffffffffffffffffffffffff021916908373ffffffffffffffffffffffffffffffffffffffff1602179055509160200191906001019061055f565b5b5090506105c491906105c8565b5090565b5b808211156105df575f815f9055506001016105c9565b5090565b5f819050919050565b6105f5816105e3565b82525050565b5f60208201905061060e5f8301846105ec565b92915050565b5f80fd5b5f73ffffffffffffffffffffffffffffffffffffffff82169050919050565b5f61064182610618565b9050919050565b61065181610637565b811461065b575f80fd5b50565b5f8135905061066c81610648565b92915050565b5f6020828403121561068757610686610614565b5b5f6106948482850161065e565b91505092915050565b6106a681610637565b82525050565b5f6020820190506106bf5f83018461069d565b92915050565b6106ce816105e3565b81146106d8575f80fd5b50565b5f813590506106e9816106c5565b92915050565b5f6020828403121561070457610703610614565b5b5f610711848285016106db565b91505092915050565b5f82825260208201905092915050565b7f6e6f74206f776e657200000000000000000000000000000000000000000000005f82015250565b5f61075e60098361071a565b91506107698261072a565b602082019050919050565b5f6020820190508181035f83015261078b81610752565b9050919050565b7f4e487b71000000000000000000000000000000000000000000000000000000005f52603260045260245ffd5b7f4e487b71000000000000000000000000000000000000000000000000000000005f52601160045260245ffd5b5f6107f6826105e3565b91507fffffffffffffffffffffffffffffffffffffffffffffffffffffffffffffffff8203610828576108276107bf565b5b600182019050919050565b7f4e487b71000000000000000000000000000000000000000000000000000000005f52604160045260245ffd5b5f81905092915050565b50565b5f6108785f83610860565b91506108838261086a565b5f82019050919050565b5f6108978261086d565b9150819050919050565b7f63616c6c206661696c65640000000000000000000000000000000000000000005f82015250565b5f6108d5600b8361071a565b91506108e0826108a1565b602082019050919050565b5f6020820190508181035f830152610902816108c9565b9050919050565b7f6469646e7420656e6f7567682066756e640000000000000000000000000000005f82015250565b5f61093d60118361071a565b915061094882610909565b602082019050919050565b5f6020820190508181035f83015261096a81610931565b9050919050565b5f61097b826105e3565b9150610986836105e3565b925082820190508082111561099e5761099d6107bf565b5b9291505056fea2646970667358221220ae961447127874c48067cfc842d8f45d468292482a5732ab9336387032cad9ff64736f6c634300081a0033",
					"opcodes": "PUSH1 0x80 PUSH1 0x40 MSTORE PUSH8 0xDE0B6B3A7640000 PUSH0 SSTORE CALLVALUE DUP1 ISZERO PUSH1 0x19 JUMPI PUSH0 DUP1 REVERT JUMPDEST POP CALLER PUSH1 0x3 PUSH0 PUSH2 0x100 EXP DUP2 SLOAD DUP2 PUSH20 0xFFFFFFFFFFFFFFFFFFFFFFFFFFFFFFFFFFFFFFFF MUL NOT AND SWAP1 DUP4 PUSH20 0xFFFFFFFFFFFFFFFFFFFFFFFFFFFFFFFFFFFFFFFF AND MUL OR SWAP1 SSTORE POP PUSH2 0x9DA DUP1 PUSH2 0x67 PUSH0 CODECOPY PUSH0 RETURN INVALID PUSH1 0x80 PUSH1 0x40 MSTORE PUSH1 0x4 CALLDATASIZE LT PUSH2 0x6F JUMPI PUSH0 CALLDATALOAD PUSH1 0xE0 SHR DUP1 PUSH4 0x8DA5CB5B GT PUSH2 0x4D JUMPI DUP1 PUSH4 0x8DA5CB5B EQ PUSH2 0xEF JUMPI DUP1 PUSH4 0xB43E20B0 EQ PUSH2 0x119 JUMPI DUP1 PUSH4 0xB60D4288 EQ PUSH2 0x143 JUMPI DUP1 PUSH4 0xDC0D3DFF EQ PUSH2 0x14D JUMPI PUSH2 0x6F JUMP JUMPDEST DUP1 PUSH4 0x12065FE0 EQ PUSH2 0x73 JUMPI DUP1 PUSH4 0x3CCFD60B EQ PUSH2 0x9D JUMPI DUP1 PUSH4 0x8C04995F EQ PUSH2 0xB3 JUMPI JUMPDEST PUSH0 DUP1 REVERT JUMPDEST CALLVALUE DUP1 ISZERO PUSH2 0x7E JUMPI PUSH0 DUP1 REVERT JUMPDEST POP PUSH2 0x87 PUSH2 0x189 JUMP JUMPDEST PUSH1 0x40 MLOAD PUSH2 0x94 SWAP2 SWAP1 PUSH2 0x5FB JUMP JUMPDEST PUSH1 0x40 MLOAD DUP1 SWAP2 SUB SWAP1 RETURN JUMPDEST CALLVALUE DUP1 ISZERO PUSH2 0xA8 JUMPI PUSH0 DUP1 REVERT JUMPDEST POP PUSH2 0xB1 PUSH2 0x190 JUMP JUMPDEST STOP JUMPDEST CALLVALUE DUP1 ISZERO PUSH2 0xBE JUMPI PUSH0 DUP1 REVERT JUMPDEST POP PUSH2 0xD9 PUSH1 0x4 DUP1 CALLDATASIZE SUB DUP2 ADD SWAP1 PUSH2 0xD4 SWAP2 SWAP1 PUSH2 0x672 JUMP JUMPDEST PUSH2 0x3CE JUMP JUMPDEST PUSH1 0x40 MLOAD PUSH2 0xE6 SWAP2 SWAP1 PUSH2 0x5FB JUMP JUMPDEST PUSH1 0x40 MLOAD DUP1 SWAP2 SUB SWAP1 RETURN JUMPDEST CALLVALUE DUP1 ISZERO PUSH2 0xFA JUMPI PUSH0 DUP1 REVERT JUMPDEST POP PUSH2 0x103 PUSH2 0x3E3 JUMP JUMPDEST PUSH1 0x40 MLOAD PUSH2 0x110 SWAP2 SWAP1 PUSH2 0x6AC JUMP JUMPDEST PUSH1 0x40 MLOAD DUP1 SWAP2 SUB SWAP1 RETURN JUMPDEST CALLVALUE DUP1 ISZERO PUSH2 0x124 JUMPI PUSH0 DUP1 REVERT JUMPDEST POP PUSH2 0x12D PUSH2 0x408 JUMP JUMPDEST PUSH1 0x40 MLOAD PUSH2 0x13A SWAP2 SWAP1 PUSH2 0x5FB JUMP JUMPDEST PUSH1 0x40 MLOAD DUP1 SWAP2 SUB SWAP1 RETURN JUMPDEST PUSH2 0x14B PUSH2 0x40D JUMP JUMPDEST STOP JUMPDEST CALLVALUE DUP1 ISZERO PUSH2 0x158 JUMPI PUSH0 DUP1 REVERT JUMPDEST POP PUSH2 0x173 PUSH1 0x4 DUP1 CALLDATASIZE SUB DUP2 ADD SWAP1 PUSH2 0x16E SWAP2 SWAP1 PUSH2 0x6EF JUMP JUMPDEST PUSH2 0x506 JUMP JUMPDEST PUSH1 0x40 MLOAD PUSH2 0x180 SWAP2 SWAP1 PUSH2 0x6AC JUMP JUMPDEST PUSH1 0x40 MLOAD DUP1 SWAP2 SUB SWAP1 RETURN JUMPDEST PUSH0 SELFBALANCE SWAP1 POP SWAP1 JUMP JUMPDEST CALLER PUSH20 0xFFFFFFFFFFFFFFFFFFFFFFFFFFFFFFFFFFFFFFFF AND PUSH1 0x3 PUSH0 SWAP1 SLOAD SWAP1 PUSH2 0x100 EXP SWAP1 DIV PUSH20 0xFFFFFFFFFFFFFFFFFFFFFFFFFFFFFFFFFFFFFFFF AND PUSH20 0xFFFFFFFFFFFFFFFFFFFFFFFFFFFFFFFFFFFFFFFF AND EQ PUSH2 0x21F JUMPI PUSH1 0x40 MLOAD PUSH32 0x8C379A000000000000000000000000000000000000000000000000000000000 DUP2 MSTORE PUSH1 0x4 ADD PUSH2 0x216 SWAP1 PUSH2 0x774 JUMP JUMPDEST PUSH1 0x40 MLOAD DUP1 SWAP2 SUB SWAP1 REVERT JUMPDEST PUSH0 JUMPDEST PUSH1 0x1 DUP1 SLOAD SWAP1 POP PUSH0 LT ISZERO PUSH2 0x2C3 JUMPI PUSH0 PUSH1 0x1 DUP3 DUP2 SLOAD DUP2 LT PUSH2 0x243 JUMPI PUSH2 0x242 PUSH2 0x792 JUMP JUMPDEST JUMPDEST SWAP1 PUSH0 MSTORE PUSH1 0x20 PUSH0 KECCAK256 ADD PUSH0 SWAP1 SLOAD SWAP1 PUSH2 0x100 EXP SWAP1 DIV PUSH20 0xFFFFFFFFFFFFFFFFFFFFFFFFFFFFFFFFFFFFFFFF AND SWAP1 POP PUSH0 PUSH1 0x2 PUSH0 DUP4 PUSH20 0xFFFFFFFFFFFFFFFFFFFFFFFFFFFFFFFFFFFFFFFF AND PUSH20 0xFFFFFFFFFFFFFFFFFFFFFFFFFFFFFFFFFFFFFFFF AND DUP2 MSTORE PUSH1 0x20 ADD SWAP1 DUP2 MSTORE PUSH1 0x20 ADD PUSH0 KECCAK256 DUP2 SWAP1 SSTORE POP POP DUP1 DUP1 PUSH2 0x2BB SWAP1 PUSH2 0x7EC JUMP JUMPDEST SWAP2 POP POP PUSH2 0x221 JUMP JUMPDEST POP PUSH0 PUSH8 0xFFFFFFFFFFFFFFFF DUP2 GT ISZERO PUSH2 0x2DE JUMPI PUSH2 0x2DD PUSH2 0x833 JUMP JUMPDEST JUMPDEST PUSH1 0x40 MLOAD SWAP1 DUP1 DUP3 MSTORE DUP1 PUSH1 0x20 MUL PUSH1 0x20 ADD DUP3 ADD PUSH1 0x40 MSTORE DUP1 ISZERO PUSH2 0x30C JUMPI DUP2 PUSH1 0x20 ADD PUSH1 0x20 DUP3 MUL DUP1 CALLDATASIZE DUP4 CALLDATACOPY DUP1 DUP3 ADD SWAP2 POP POP SWAP1 POP JUMPDEST POP PUSH1 0x1 SWAP1 DUP1 MLOAD SWAP1 PUSH1 0x20 ADD SWAP1 PUSH2 0x322 SWAP3 SWAP2 SWAP1 PUSH2 0x541 JUMP JUMPDEST POP PUSH0 CALLER PUSH20 0xFFFFFFFFFFFFFFFFFFFFFFFFFFFFFFFFFFFFFFFF AND SELFBALANCE PUSH1 0x40 MLOAD PUSH2 0x348 SWAP1 PUSH2 0x88D JUMP JUMPDEST PUSH0 PUSH1 0x40 MLOAD DUP1 DUP4 SUB DUP2 DUP6 DUP8 GAS CALL SWAP3 POP POP POP RETURNDATASIZE DUP1 PUSH0 DUP2 EQ PUSH2 0x382 JUMPI PUSH1 0x40 MLOAD SWAP2 POP PUSH1 0x1F NOT PUSH1 0x3F RETURNDATASIZE ADD AND DUP3 ADD PUSH1 0x40 MSTORE RETURNDATASIZE DUP3 MSTORE RETURNDATASIZE PUSH0 PUSH1 0x20 DUP5 ADD RETURNDATACOPY PUSH2 0x387 JUMP JUMPDEST PUSH1 0x60 SWAP2 POP JUMPDEST POP POP SWAP1 POP DUP1 PUSH2 0x3CB JUMPI PUSH1 0x40 MLOAD PUSH32 0x8C379A000000000000000000000000000000000000000000000000000000000 DUP2 MSTORE PUSH1 0x4 ADD PUSH2 0x3C2 SWAP1 PUSH2 0x8EB JUMP JUMPDEST PUSH1 0x40 MLOAD DUP1 SWAP2 SUB SWAP1 REVERT JUMPDEST POP JUMP JUMPDEST PUSH1 0x2 PUSH1 0x20 MSTORE DUP1 PUSH0 MSTORE PUSH1 0x40 PUSH0 KECCAK256 PUSH0 SWAP2 POP SWAP1 POP SLOAD DUP2 JUMP JUMPDEST PUSH1 0x3 PUSH0 SWAP1 SLOAD SWAP1 PUSH2 0x100 EXP SWAP1 DIV PUSH20 0xFFFFFFFFFFFFFFFFFFFFFFFFFFFFFFFFFFFFFFFF AND DUP2 JUMP JUMPDEST PUSH0 SLOAD DUP2 JUMP JUMPDEST PUSH0 SLOAD CALLVALUE LT ISZERO PUSH2 0x451 JUMPI PUSH1 0x40 MLOAD PUSH32 0x8C379A000000000000000000000000000000000000000000000000000000000 DUP2 MSTORE PUSH1 0x4 ADD PUSH2 0x448 SWAP1 PUSH2 0x953 JUMP JUMPDEST PUSH1 0x40 MLOAD DUP1 SWAP2 SUB SWAP1 REVERT JUMPDEST PUSH1 0x1 CALLER SWAP1 DUP1 PUSH1 0x1 DUP2 SLOAD ADD DUP1 DUP3 SSTORE DUP1 SWAP2 POP POP PUSH1 0x1 SWAP1 SUB SWAP1 PUSH0 MSTORE PUSH1 0x20 PUSH0 KECCAK256 ADD PUSH0 SWAP1 SWAP2 SWAP1 SWAP2 SWAP1 SWAP2 PUSH2 0x100 EXP DUP2 SLOAD DUP2 PUSH20 0xFFFFFFFFFFFFFFFFFFFFFFFFFFFFFFFFFFFFFFFF MUL NOT AND SWAP1 DUP4 PUSH20 0xFFFFFFFFFFFFFFFFFFFFFFFFFFFFFFFFFFFFFFFF AND MUL OR SWAP1 SSTORE POP CALLVALUE PUSH1 0x2 PUSH0 CALLER PUSH20 0xFFFFFFFFFFFFFFFFFFFFFFFFFFFFFFFFFFFFFFFF AND PUSH20 0xFFFFFFFFFFFFFFFFFFFFFFFFFFFFFFFFFFFFFFFF AND DUP2 MSTORE PUSH1 0x20 ADD SWAP1 DUP2 MSTORE PUSH1 0x20 ADD PUSH0 KECCAK256 PUSH0 DUP3 DUP3 SLOAD PUSH2 0x4FD SWAP2 SWAP1 PUSH2 0x971 JUMP JUMPDEST SWAP3 POP POP DUP2 SWAP1 SSTORE POP JUMP JUMPDEST PUSH1 0x1 DUP2 DUP2 SLOAD DUP2 LT PUSH2 0x515 JUMPI PUSH0 DUP1 REVERT JUMPDEST SWAP1 PUSH0 MSTORE PUSH1 0x20 PUSH0 KECCAK256 ADD PUSH0 SWAP2 POP SLOAD SWAP1 PUSH2 0x100 EXP SWAP1 DIV PUSH20 0xFFFFFFFFFFFFFFFFFFFFFFFFFFFFFFFFFFFFFFFF AND DUP2 JUMP JUMPDEST DUP3 DUP1 SLOAD DUP3 DUP3 SSTORE SWAP1 PUSH0 MSTORE PUSH1 0x20 PUSH0 KECCAK256 SWAP1 DUP2 ADD SWAP3 DUP3 ISZERO PUSH2 0x5B7 JUMPI SWAP2 PUSH1 0x20 MUL DUP3 ADD JUMPDEST DUP3 DUP2 GT ISZERO PUSH2 0x5B6 JUMPI DUP3 MLOAD DUP3 PUSH0 PUSH2 0x100 EXP DUP2 SLOAD DUP2 PUSH20 0xFFFFFFFFFFFFFFFFFFFFFFFFFFFFFFFFFFFFFFFF MUL NOT AND SWAP1 DUP4 PUSH20 0xFFFFFFFFFFFFFFFFFFFFFFFFFFFFFFFFFFFFFFFF AND MUL OR SWAP1 SSTORE POP SWAP2 PUSH1 0x20 ADD SWAP2 SWAP1 PUSH1 0x1 ADD SWAP1 PUSH2 0x55F JUMP JUMPDEST JUMPDEST POP SWAP1 POP PUSH2 0x5C4 SWAP2 SWAP1 PUSH2 0x5C8 JUMP JUMPDEST POP SWAP1 JUMP JUMPDEST JUMPDEST DUP1 DUP3 GT ISZERO PUSH2 0x5DF JUMPI PUSH0 DUP2 PUSH0 SWAP1 SSTORE POP PUSH1 0x1 ADD PUSH2 0x5C9 JUMP JUMPDEST POP SWAP1 JUMP JUMPDEST PUSH0 DUP2 SWAP1 POP SWAP2 SWAP1 POP JUMP JUMPDEST PUSH2 0x5F5 DUP2 PUSH2 0x5E3 JUMP JUMPDEST DUP3 MSTORE POP POP JUMP JUMPDEST PUSH0 PUSH1 0x20 DUP3 ADD SWAP1 POP PUSH2 0x60E PUSH0 DUP4 ADD DUP5 PUSH2 0x5EC JUMP JUMPDEST SWAP3 SWAP2 POP POP JUMP JUMPDEST PUSH0 DUP1 REVERT JUMPDEST PUSH0 PUSH20 0xFFFFFFFFFFFFFFFFFFFFFFFFFFFFFFFFFFFFFFFF DUP3 AND SWAP1 POP SWAP2 SWAP1 POP JUMP JUMPDEST PUSH0 PUSH2 0x641 DUP3 PUSH2 0x618 JUMP JUMPDEST SWAP1 POP SWAP2 SWAP1 POP JUMP JUMPDEST PUSH2 0x651 DUP2 PUSH2 0x637 JUMP JUMPDEST DUP2 EQ PUSH2 0x65B JUMPI PUSH0 DUP1 REVERT JUMPDEST POP JUMP JUMPDEST PUSH0 DUP2 CALLDATALOAD SWAP1 POP PUSH2 0x66C DUP2 PUSH2 0x648 JUMP JUMPDEST SWAP3 SWAP2 POP POP JUMP JUMPDEST PUSH0 PUSH1 0x20 DUP3 DUP5 SUB SLT ISZERO PUSH2 0x687 JUMPI PUSH2 0x686 PUSH2 0x614 JUMP JUMPDEST JUMPDEST PUSH0 PUSH2 0x694 DUP5 DUP3 DUP6 ADD PUSH2 0x65E JUMP JUMPDEST SWAP2 POP POP SWAP3 SWAP2 POP POP JUMP JUMPDEST PUSH2 0x6A6 DUP2 PUSH2 0x637 JUMP JUMPDEST DUP3 MSTORE POP POP JUMP JUMPDEST PUSH0 PUSH1 0x20 DUP3 ADD SWAP1 POP PUSH2 0x6BF PUSH0 DUP4 ADD DUP5 PUSH2 0x69D JUMP JUMPDEST SWAP3 SWAP2 POP POP JUMP JUMPDEST PUSH2 0x6CE DUP2 PUSH2 0x5E3 JUMP JUMPDEST DUP2 EQ PUSH2 0x6D8 JUMPI PUSH0 DUP1 REVERT JUMPDEST POP JUMP JUMPDEST PUSH0 DUP2 CALLDATALOAD SWAP1 POP PUSH2 0x6E9 DUP2 PUSH2 0x6C5 JUMP JUMPDEST SWAP3 SWAP2 POP POP JUMP JUMPDEST PUSH0 PUSH1 0x20 DUP3 DUP5 SUB SLT ISZERO PUSH2 0x704 JUMPI PUSH2 0x703 PUSH2 0x614 JUMP JUMPDEST JUMPDEST PUSH0 PUSH2 0x711 DUP5 DUP3 DUP6 ADD PUSH2 0x6DB JUMP JUMPDEST SWAP2 POP POP SWAP3 SWAP2 POP POP JUMP JUMPDEST PUSH0 DUP3 DUP3 MSTORE PUSH1 0x20 DUP3 ADD SWAP1 POP SWAP3 SWAP2 POP POP JUMP JUMPDEST PUSH32 0x6E6F74206F776E65720000000000000000000000000000000000000000000000 PUSH0 DUP3 ADD MSTORE POP JUMP JUMPDEST PUSH0 PUSH2 0x75E PUSH1 0x9 DUP4 PUSH2 0x71A JUMP JUMPDEST SWAP2 POP PUSH2 0x769 DUP3 PUSH2 0x72A JUMP JUMPDEST PUSH1 0x20 DUP3 ADD SWAP1 POP SWAP2 SWAP1 POP JUMP JUMPDEST PUSH0 PUSH1 0x20 DUP3 ADD SWAP1 POP DUP2 DUP2 SUB PUSH0 DUP4 ADD MSTORE PUSH2 0x78B DUP2 PUSH2 0x752 JUMP JUMPDEST SWAP1 POP SWAP2 SWAP1 POP JUMP JUMPDEST PUSH32 0x4E487B7100000000000000000000000000000000000000000000000000000000 PUSH0 MSTORE PUSH1 0x32 PUSH1 0x4 MSTORE PUSH1 0x24 PUSH0 REVERT JUMPDEST PUSH32 0x4E487B7100000000000000000000000000000000000000000000000000000000 PUSH0 MSTORE PUSH1 0x11 PUSH1 0x4 MSTORE PUSH1 0x24 PUSH0 REVERT JUMPDEST PUSH0 PUSH2 0x7F6 DUP3 PUSH2 0x5E3 JUMP JUMPDEST SWAP2 POP PUSH32 0xFFFFFFFFFFFFFFFFFFFFFFFFFFFFFFFFFFFFFFFFFFFFFFFFFFFFFFFFFFFFFFFF DUP3 SUB PUSH2 0x828 JUMPI PUSH2 0x827 PUSH2 0x7BF JUMP JUMPDEST JUMPDEST PUSH1 0x1 DUP3 ADD SWAP1 POP SWAP2 SWAP1 POP JUMP JUMPDEST PUSH32 0x4E487B7100000000000000000000000000000000000000000000000000000000 PUSH0 MSTORE PUSH1 0x41 PUSH1 0x4 MSTORE PUSH1 0x24 PUSH0 REVERT JUMPDEST PUSH0 DUP2 SWAP1 POP SWAP3 SWAP2 POP POP JUMP JUMPDEST POP JUMP JUMPDEST PUSH0 PUSH2 0x878 PUSH0 DUP4 PUSH2 0x860 JUMP JUMPDEST SWAP2 POP PUSH2 0x883 DUP3 PUSH2 0x86A JUMP JUMPDEST PUSH0 DUP3 ADD SWAP1 POP SWAP2 SWAP1 POP JUMP JUMPDEST PUSH0 PUSH2 0x897 DUP3 PUSH2 0x86D JUMP JUMPDEST SWAP2 POP DUP2 SWAP1 POP SWAP2 SWAP1 POP JUMP JUMPDEST PUSH32 0x63616C6C206661696C6564000000000000000000000000000000000000000000 PUSH0 DUP3 ADD MSTORE POP JUMP JUMPDEST PUSH0 PUSH2 0x8D5 PUSH1 0xB DUP4 PUSH2 0x71A JUMP JUMPDEST SWAP2 POP PUSH2 0x8E0 DUP3 PUSH2 0x8A1 JUMP JUMPDEST PUSH1 0x20 DUP3 ADD SWAP1 POP SWAP2 SWAP1 POP JUMP JUMPDEST PUSH0 PUSH1 0x20 DUP3 ADD SWAP1 POP DUP2 DUP2 SUB PUSH0 DUP4 ADD MSTORE PUSH2 0x902 DUP2 PUSH2 0x8C9 JUMP JUMPDEST SWAP1 POP SWAP2 SWAP1 POP JUMP JUMPDEST PUSH32 0x6469646E7420656E6F7567682066756E64000000000000000000000000000000 PUSH0 DUP3 ADD MSTORE POP JUMP JUMPDEST PUSH0 PUSH2 0x93D PUSH1 0x11 DUP4 PUSH2 0x71A JUMP JUMPDEST SWAP2 POP PUSH2 0x948 DUP3 PUSH2 0x909 JUMP JUMPDEST PUSH1 0x20 DUP3 ADD SWAP1 POP SWAP2 SWAP1 POP JUMP JUMPDEST PUSH0 PUSH1 0x20 DUP3 ADD SWAP1 POP DUP2 DUP2 SUB PUSH0 DUP4 ADD MSTORE PUSH2 0x96A DUP2 PUSH2 0x931 JUMP JUMPDEST SWAP1 POP SWAP2 SWAP1 POP JUMP JUMPDEST PUSH0 PUSH2 0x97B DUP3 PUSH2 0x5E3 JUMP JUMPDEST SWAP2 POP PUSH2 0x986 DUP4 PUSH2 0x5E3 JUMP JUMPDEST SWAP3 POP DUP3 DUP3 ADD SWAP1 POP DUP1 DUP3 GT ISZERO PUSH2 0x99E JUMPI PUSH2 0x99D PUSH2 0x7BF JUMP JUMPDEST JUMPDEST SWAP3 SWAP2 POP POP JUMP INVALID LOG2 PUSH5 0x6970667358 0x22 SLT KECCAK256 0xAE SWAP7 EQ SELFBALANCE SLT PUSH25 0x74C48067CFC842D8F45D468292482A5732AB9336387032CAD9 SELFDESTRUCT PUSH5 0x736F6C6343 STOP ADDMOD BYTE STOP CALLER "
				},
				"gasEstimates": {
					"creation": {
						"codeDepositCost": "504400",
						"executionCost": "46905",
						"totalCost": "551305"
					},
					"external": {
						"addressToAmountFund(address)": "2847",
						"fund()": "infinite",
						"funders(uint256)": "5010",
						"getBalance()": "335",
						"minumumUsd()": "2446",
						"owner()": "2508",
						"withdraw()": "infinite"
					}
				},
				"methodIdentifiers": {
					"addressToAmountFund(address)": "8c04995f",
					"fund()": "b60d4288",
					"funders(uint256)": "dc0d3dff",
					"getBalance()": "12065fe0",
					"minumumUsd()": "b43e20b0",
					"owner()": "8da5cb5b",
					"withdraw()": "3ccfd60b"
				}
			},
			"storageLayout": {
				"storage": [
					{
						"astId": 6,
						"contract": "homework/chainlink/FundMe.sol:FundMe",
						"label": "minumumUsd",
						"offset": 0,
						"slot": "0",
						"type": "t_uint256"
					},
					{
						"astId": 9,
						"contract": "homework/chainlink/FundMe.sol:FundMe",
						"label": "funders",
						"offset": 0,
						"slot": "1",
						"type": "t_array(t_address)dyn_storage"
					},
					{
						"astId": 13,
						"contract": "homework/chainlink/FundMe.sol:FundMe",
						"label": "addressToAmountFund",
						"offset": 0,
						"slot": "2",
						"type": "t_mapping(t_address,t_uint256)"
					},
					{
						"astId": 15,
						"contract": "homework/chainlink/FundMe.sol:FundMe",
						"label": "owner",
						"offset": 0,
						"slot": "3",
						"type": "t_address"
					}
				],
				"types": {
					"t_address": {
						"encoding": "inplace",
						"label": "address",
						"numberOfBytes": "20"
					},
					"t_array(t_address)dyn_storage": {
						"base": "t_address",
						"encoding": "dynamic_array",
						"label": "address[]",
						"numberOfBytes": "32"
					},
					"t_mapping(t_address,t_uint256)": {
						"encoding": "mapping",
						"key": "t_address",
						"label": "mapping(address => uint256)",
						"numberOfBytes": "32",
						"value": "t_uint256"
					},
					"t_uint256": {
						"encoding": "inplace",
						"label": "uint256",
						"numberOfBytes": "32"
					}
				}
			},
			"userdoc": {
				"kind": "user",
				"methods": {},
				"version": 1
			}
		}
	}
}