{
	"homework/chainlink/StorageExample.sol": {
		"StorageExample": {
			"abi": [
				{
					"inputs": [],
					"name": "balance",
					"outputs": [
						{
							"internalType": "uint96",
							"name": "",
							"type": "uint96"
						}
					],
					"stateMutability": "view",
					"type": "function"
				},
				{
					"inputs": [
						{
							"internalType": "address",
							"name": "_user",
							"type": "address"
						},
						{
							"internalType": "uint96",
							"name": "_balance",
							"type": "uint96"
						}
					],
					"name": "setValues",
					"outputs": [],
					"stateMutability": "nonpayable",
					"type": "function"
				},
				{
					"inputs": [],
					"name": "user",
					"outputs": [
						{
							"internalType": "address",
							"name": "",
							"type": "address"
						}
					],
					"stateMutability": "view",
					"type": "function"
				}
			],
			"devdoc": {
				"kind": "dev",
				"methods": {},
				"version": 1
			},
			"evm": {
				"assembly": "    /* \"homework/chainlink/StorageExample.sol\":60:330  contract StorageExample {... */\n  mstore(0x40, 0x80)\n  callvalue\n  dup1\n  iszero\n  tag_1\n  jumpi\n  0x00\n  dup1\n  revert\ntag_1:\n  pop\n  dataSize(sub_0)\n  dup1\n  dataOffset(sub_0)\n  0x00\n  codecopy\n  0x00\n  return\nstop\n\nsub_0: assembly {\n        /* \"homework/chainlink/StorageExample.sol\":60:330  contract StorageExample {... */\n      mstore(0x40, 0x80)\n      callvalue\n      dup1\n      iszero\n      tag_1\n      jumpi\n      0x00\n      dup1\n      revert\n    tag_1:\n      pop\n      jumpi(tag_2, lt(calldatasize, 0x04))\n      shr(0xe0, calldataload(0x00))\n      dup1\n      0x4f8632ba\n      eq\n      tag_3\n      jumpi\n      dup1\n      0xb69ef8a8\n      eq\n      tag_4\n      jumpi\n      dup1\n      0xdbd7c3e3\n      eq\n      tag_5\n      jumpi\n    tag_2:\n      0x00\n      dup1\n      revert\n        /* \"homework/chainlink/StorageExample.sol\":91:110  address public user */\n    tag_3:\n      tag_6\n      tag_7\n      jump\t// in\n    tag_6:\n      mload(0x40)\n      tag_8\n      swap2\n      swap1\n      tag_9\n      jump\t// in\n    tag_8:\n      mload(0x40)\n      dup1\n      swap2\n      sub\n      swap1\n      return\n        /* \"homework/chainlink/StorageExample.sol\":131:152  uint96 public balance */\n    tag_4:\n      tag_10\n      tag_11\n      jump\t// in\n    tag_10:\n      mload(0x40)\n      tag_12\n      swap2\n      swap1\n      tag_13\n      jump\t// in\n    tag_12:\n      mload(0x40)\n      dup1\n      swap2\n      sub\n      swap1\n      return\n        /* \"homework/chainlink/StorageExample.sol\":209:327  function setValues(address _user, uint96 _balance) public {... */\n    tag_5:\n      tag_14\n      0x04\n      dup1\n      calldatasize\n      sub\n      dup2\n      add\n      swap1\n      tag_15\n      swap2\n      swap1\n      tag_16\n      jump\t// in\n    tag_15:\n      tag_17\n      jump\t// in\n    tag_14:\n      stop\n        /* \"homework/chainlink/StorageExample.sol\":91:110  address public user */\n    tag_7:\n      0x00\n      dup1\n      sload\n      swap1\n      0x0100\n      exp\n      swap1\n      div\n      0xffffffffffffffffffffffffffffffffffffffff\n      and\n      dup2\n      jump\t// out\n        /* \"homework/chainlink/StorageExample.sol\":131:152  uint96 public balance */\n    tag_11:\n      0x00\n      0x14\n      swap1\n      sload\n      swap1\n      0x0100\n      exp\n      swap1\n      div\n      0xffffffffffffffffffffffff\n      and\n      dup2\n      jump\t// out\n        /* \"homework/chainlink/StorageExample.sol\":209:327  function setValues(address _user, uint96 _balance) public {... */\n    tag_17:\n        /* \"homework/chainlink/StorageExample.sol\":285:290  _user */\n      dup2\n        /* \"homework/chainlink/StorageExample.sol\":278:282  user */\n      0x00\n      dup1\n        /* \"homework/chainlink/StorageExample.sol\":278:290  user = _user */\n      0x0100\n      exp\n      dup2\n      sload\n      dup2\n      0xffffffffffffffffffffffffffffffffffffffff\n      mul\n      not\n      and\n      swap1\n      dup4\n      0xffffffffffffffffffffffffffffffffffffffff\n      and\n      mul\n      or\n      swap1\n      sstore\n      pop\n        /* \"homework/chainlink/StorageExample.sol\":311:319  _balance */\n      dup1\n        /* \"homework/chainlink/StorageExample.sol\":301:308  balance */\n      0x00\n      0x14\n        /* \"homework/chainlink/StorageExample.sol\":301:319  balance = _balance */\n      0x0100\n      exp\n      dup2\n      sload\n      dup2\n      0xffffffffffffffffffffffff\n      mul\n      not\n      and\n      swap1\n      dup4\n      0xffffffffffffffffffffffff\n      and\n      mul\n      or\n      swap1\n      sstore\n      pop\n        /* \"homework/chainlink/StorageExample.sol\":209:327  function setValues(address _user, uint96 _balance) public {... */\n      pop\n      pop\n      jump\t// out\n        /* \"#utility.yul\":7:133   */\n    tag_19:\n        /* \"#utility.yul\":44:51   */\n      0x00\n        /* \"#utility.yul\":84:126   */\n      0xffffffffffffffffffffffffffffffffffffffff\n        /* \"#utility.yul\":77:82   */\n      dup3\n        /* \"#utility.yul\":73:127   */\n      and\n        /* \"#utility.yul\":62:127   */\n      swap1\n      pop\n        /* \"#utility.yul\":7:133   */\n      swap2\n      swap1\n      pop\n      jump\t// out\n        /* \"#utility.yul\":139:235   */\n    tag_20:\n        /* \"#utility.yul\":176:183   */\n      0x00\n        /* \"#utility.yul\":205:229   */\n      tag_34\n        /* \"#utility.yul\":223:228   */\n      dup3\n        /* \"#utility.yul\":205:229   */\n      tag_19\n      jump\t// in\n    tag_34:\n        /* \"#utility.yul\":194:229   */\n      swap1\n      pop\n        /* \"#utility.yul\":139:235   */\n      swap2\n      swap1\n      pop\n      jump\t// out\n        /* \"#utility.yul\":241:359   */\n    tag_21:\n        /* \"#utility.yul\":328:352   */\n      tag_36\n        /* \"#utility.yul\":346:351   */\n      dup2\n        /* \"#utility.yul\":328:352   */\n      tag_20\n      jump\t// in\n    tag_36:\n        /* \"#utility.yul\":323:326   */\n      dup3\n        /* \"#utility.yul\":316:353   */\n      mstore\n        /* \"#utility.yul\":241:359   */\n      pop\n      pop\n      jump\t// out\n        /* \"#utility.yul\":365:587   */\n    tag_9:\n        /* \"#utility.yul\":458:462   */\n      0x00\n        /* \"#utility.yul\":496:498   */\n      0x20\n        /* \"#utility.yul\":485:494   */\n      dup3\n        /* \"#utility.yul\":481:499   */\n      add\n        /* \"#utility.yul\":473:499   */\n      swap1\n      pop\n        /* \"#utility.yul\":509:580   */\n      tag_38\n        /* \"#utility.yul\":577:578   */\n      0x00\n        /* \"#utility.yul\":566:575   */\n      dup4\n        /* \"#utility.yul\":562:579   */\n      add\n        /* \"#utility.yul\":553:559   */\n      dup5\n        /* \"#utility.yul\":509:580   */\n      tag_21\n      jump\t// in\n    tag_38:\n        /* \"#utility.yul\":365:587   */\n      swap3\n      swap2\n      pop\n      pop\n      jump\t// out\n        /* \"#utility.yul\":593:702   */\n    tag_22:\n        /* \"#utility.yul\":629:636   */\n      0x00\n        /* \"#utility.yul\":669:695   */\n      0xffffffffffffffffffffffff\n        /* \"#utility.yul\":662:667   */\n      dup3\n        /* \"#utility.yul\":658:696   */\n      and\n        /* \"#utility.yul\":647:696   */\n      swap1\n      pop\n        /* \"#utility.yul\":593:702   */\n      swap2\n      swap1\n      pop\n      jump\t// out\n        /* \"#utility.yul\":708:823   */\n    tag_23:\n        /* \"#utility.yul\":793:816   */\n      tag_41\n        /* \"#utility.yul\":810:815   */\n      dup2\n        /* \"#utility.yul\":793:816   */\n      tag_22\n      jump\t// in\n    tag_41:\n        /* \"#utility.yul\":788:791   */\n      dup3\n        /* \"#utility.yul\":781:817   */\n      mstore\n        /* \"#utility.yul\":708:823   */\n      pop\n      pop\n      jump\t// out\n        /* \"#utility.yul\":829:1047   */\n    tag_13:\n        /* \"#utility.yul\":920:924   */\n      0x00\n        /* \"#utility.yul\":958:960   */\n      0x20\n        /* \"#utility.yul\":947:956   */\n      dup3\n        /* \"#utility.yul\":943:961   */\n      add\n        /* \"#utility.yul\":935:961   */\n      swap1\n      pop\n        /* \"#utility.yul\":971:1040   */\n      tag_43\n        /* \"#utility.yul\":1037:1038   */\n      0x00\n        /* \"#utility.yul\":1026:1035   */\n      dup4\n        /* \"#utility.yul\":1022:1039   */\n      add\n        /* \"#utility.yul\":1013:1019   */\n      dup5\n        /* \"#utility.yul\":971:1040   */\n      tag_23\n      jump\t// in\n    tag_43:\n        /* \"#utility.yul\":829:1047   */\n      swap3\n      swap2\n      pop\n      pop\n      jump\t// out\n        /* \"#utility.yul\":1134:1251   */\n    tag_25:\n        /* \"#utility.yul\":1243:1244   */\n      0x00\n        /* \"#utility.yul\":1240:1241   */\n      dup1\n        /* \"#utility.yul\":1233:1245   */\n      revert\n        /* \"#utility.yul\":1380:1502   */\n    tag_27:\n        /* \"#utility.yul\":1453:1477   */\n      tag_48\n        /* \"#utility.yul\":1471:1476   */\n      dup2\n        /* \"#utility.yul\":1453:1477   */\n      tag_20\n      jump\t// in\n    tag_48:\n        /* \"#utility.yul\":1446:1451   */\n      dup2\n        /* \"#utility.yul\":1443:1478   */\n      eq\n        /* \"#utility.yul\":1433:1496   */\n      tag_49\n      jumpi\n        /* \"#utility.yul\":1492:1493   */\n      0x00\n        /* \"#utility.yul\":1489:1490   */\n      dup1\n        /* \"#utility.yul\":1482:1494   */\n      revert\n        /* \"#utility.yul\":1433:1496   */\n    tag_49:\n        /* \"#utility.yul\":1380:1502   */\n      pop\n      jump\t// out\n        /* \"#utility.yul\":1508:1647   */\n    tag_28:\n        /* \"#utility.yul\":1554:1559   */\n      0x00\n        /* \"#utility.yul\":1592:1598   */\n      dup2\n        /* \"#utility.yul\":1579:1599   */\n      calldataload\n        /* \"#utility.yul\":1570:1599   */\n      swap1\n      pop\n        /* \"#utility.yul\":1608:1641   */\n      tag_51\n        /* \"#utility.yul\":1635:1640   */\n      dup2\n        /* \"#utility.yul\":1608:1641   */\n      tag_27\n      jump\t// in\n    tag_51:\n        /* \"#utility.yul\":1508:1647   */\n      swap3\n      swap2\n      pop\n      pop\n      jump\t// out\n        /* \"#utility.yul\":1653:1773   */\n    tag_29:\n        /* \"#utility.yul\":1725:1748   */\n      tag_53\n        /* \"#utility.yul\":1742:1747   */\n      dup2\n        /* \"#utility.yul\":1725:1748   */\n      tag_22\n      jump\t// in\n    tag_53:\n        /* \"#utility.yul\":1718:1723   */\n      dup2\n        /* \"#utility.yul\":1715:1749   */\n      eq\n        /* \"#utility.yul\":1705:1767   */\n      tag_54\n      jumpi\n        /* \"#utility.yul\":1763:1764   */\n      0x00\n        /* \"#utility.yul\":1760:1761   */\n      dup1\n        /* \"#utility.yul\":1753:1765   */\n      revert\n        /* \"#utility.yul\":1705:1767   */\n    tag_54:\n        /* \"#utility.yul\":1653:1773   */\n      pop\n      jump\t// out\n        /* \"#utility.yul\":1779:1916   */\n    tag_30:\n        /* \"#utility.yul\":1824:1829   */\n      0x00\n        /* \"#utility.yul\":1862:1868   */\n      dup2\n        /* \"#utility.yul\":1849:1869   */\n      calldataload\n        /* \"#utility.yul\":1840:1869   */\n      swap1\n      pop\n        /* \"#utility.yul\":1878:1910   */\n      tag_56\n        /* \"#utility.yul\":1904:1909   */\n      dup2\n        /* \"#utility.yul\":1878:1910   */\n      tag_29\n      jump\t// in\n    tag_56:\n        /* \"#utility.yul\":1779:1916   */\n      swap3\n      swap2\n      pop\n      pop\n      jump\t// out\n        /* \"#utility.yul\":1922:2394   */\n    tag_16:\n        /* \"#utility.yul\":1989:1995   */\n      0x00\n        /* \"#utility.yul\":1997:2003   */\n      dup1\n        /* \"#utility.yul\":2046:2048   */\n      0x40\n        /* \"#utility.yul\":2034:2043   */\n      dup4\n        /* \"#utility.yul\":2025:2032   */\n      dup6\n        /* \"#utility.yul\":2021:2044   */\n      sub\n        /* \"#utility.yul\":2017:2049   */\n      slt\n        /* \"#utility.yul\":2014:2133   */\n      iszero\n      tag_58\n      jumpi\n        /* \"#utility.yul\":2052:2131   */\n      tag_59\n      tag_25\n      jump\t// in\n    tag_59:\n        /* \"#utility.yul\":2014:2133   */\n    tag_58:\n        /* \"#utility.yul\":2172:2173   */\n      0x00\n        /* \"#utility.yul\":2197:2250   */\n      tag_60\n        /* \"#utility.yul\":2242:2249   */\n      dup6\n        /* \"#utility.yul\":2233:2239   */\n      dup3\n        /* \"#utility.yul\":2222:2231   */\n      dup7\n        /* \"#utility.yul\":2218:2240   */\n      add\n        /* \"#utility.yul\":2197:2250   */\n      tag_28\n      jump\t// in\n    tag_60:\n        /* \"#utility.yul\":2187:2250   */\n      swap3\n      pop\n        /* \"#utility.yul\":2143:2260   */\n      pop\n        /* \"#utility.yul\":2299:2301   */\n      0x20\n        /* \"#utility.yul\":2325:2377   */\n      tag_61\n        /* \"#utility.yul\":2369:2376   */\n      dup6\n        /* \"#utility.yul\":2360:2366   */\n      dup3\n        /* \"#utility.yul\":2349:2358   */\n      dup7\n        /* \"#utility.yul\":2345:2367   */\n      add\n        /* \"#utility.yul\":2325:2377   */\n      tag_30\n      jump\t// in\n    tag_61:\n        /* \"#utility.yul\":2315:2377   */\n      swap2\n      pop\n        /* \"#utility.yul\":2270:2387   */\n      pop\n        /* \"#utility.yul\":1922:2394   */\n      swap3\n      pop\n      swap3\n      swap1\n      pop\n      jump\t// out\n\n    auxdata: 0xa2646970667358221220baf7ae40eab16a4e4aa5588759cfabab9900ac4baea8441a0a84bec88be45e7464736f6c634300081a0033\n}\n",
				"bytecode": {
					"linkReferences": {},
					"object": "6080604052348015600e575f80fd5b506102b18061001c5f395ff3fe608060405234801561000f575f80fd5b506004361061003f575f3560e01c80634f8632ba14610043578063b69ef8a814610061578063dbd7c3e31461007f575b5f80fd5b61004b61009b565b604051610058919061018d565b60405180910390f35b6100696100be565b60405161007691906101cc565b60405180910390f35b6100996004803603810190610094919061023d565b6100db565b005b5f8054906101000a900473ffffffffffffffffffffffffffffffffffffffff1681565b5f60149054906101000a90046bffffffffffffffffffffffff1681565b815f806101000a81548173ffffffffffffffffffffffffffffffffffffffff021916908373ffffffffffffffffffffffffffffffffffffffff160217905550805f60146101000a8154816bffffffffffffffffffffffff02191690836bffffffffffffffffffffffff1602179055505050565b5f73ffffffffffffffffffffffffffffffffffffffff82169050919050565b5f6101778261014e565b9050919050565b6101878161016d565b82525050565b5f6020820190506101a05f83018461017e565b92915050565b5f6bffffffffffffffffffffffff82169050919050565b6101c6816101a6565b82525050565b5f6020820190506101df5f8301846101bd565b92915050565b5f80fd5b6101f28161016d565b81146101fc575f80fd5b50565b5f8135905061020d816101e9565b92915050565b61021c816101a6565b8114610226575f80fd5b50565b5f8135905061023781610213565b92915050565b5f8060408385031215610253576102526101e5565b5b5f610260858286016101ff565b925050602061027185828601610229565b915050925092905056fea2646970667358221220baf7ae40eab16a4e4aa5588759cfabab9900ac4baea8441a0a84bec88be45e7464736f6c634300081a0033",
					"opcodes": "PUSH1 0x80 PUSH1 0x40 MSTORE CALLVALUE DUP1 ISZERO PUSH1 0xE JUMPI PUSH0 DUP1 REVERT JUMPDEST POP PUSH2 0x2B1 DUP1 PUSH2 0x1C PUSH0 CODECOPY PUSH0 RETURN INVALID PUSH1 0x80 PUSH1 0x40 MSTORE CALLVALUE DUP1 ISZERO PUSH2 0xF JUMPI PUSH0 DUP1 REVERT JUMPDEST POP PUSH1 0x4 CALLDATASIZE LT PUSH2 0x3F JUMPI PUSH0 CALLDATALOAD PUSH1 0xE0 SHR DUP1 PUSH4 0x4F8632BA EQ PUSH2 0x43 JUMPI DUP1 PUSH4 0xB69EF8A8 EQ PUSH2 0x61 JUMPI DUP1 PUSH4 0xDBD7C3E3 EQ PUSH2 0x7F JUMPI JUMPDEST PUSH0 DUP1 REVERT JUMPDEST PUSH2 0x4B PUSH2 0x9B JUMP JUMPDEST PUSH1 0x40 MLOAD PUSH2 0x58 SWAP2 SWAP1 PUSH2 0x18D JUMP JUMPDEST PUSH1 0x40 MLOAD DUP1 SWAP2 SUB SWAP1 RETURN JUMPDEST PUSH2 0x69 PUSH2 0xBE JUMP JUMPDEST PUSH1 0x40 MLOAD PUSH2 0x76 SWAP2 SWAP1 PUSH2 0x1CC JUMP JUMPDEST PUSH1 0x40 MLOAD DUP1 SWAP2 SUB SWAP1 RETURN JUMPDEST PUSH2 0x99 PUSH1 0x4 DUP1 CALLDATASIZE SUB DUP2 ADD SWAP1 PUSH2 0x94 SWAP2 SWAP1 PUSH2 0x23D JUMP JUMPDEST PUSH2 0xDB JUMP JUMPDEST STOP JUMPDEST PUSH0 DUP1 SLOAD SWAP1 PUSH2 0x100 EXP SWAP1 DIV PUSH20 0xFFFFFFFFFFFFFFFFFFFFFFFFFFFFFFFFFFFFFFFF AND DUP2 JUMP JUMPDEST PUSH0 PUSH1 0x14 SWAP1 SLOAD SWAP1 PUSH2 0x100 EXP SWAP1 DIV PUSH12 0xFFFFFFFFFFFFFFFFFFFFFFFF AND DUP2 JUMP JUMPDEST DUP2 PUSH0 DUP1 PUSH2 0x100 EXP DUP2 SLOAD DUP2 PUSH20 0xFFFFFFFFFFFFFFFFFFFFFFFFFFFFFFFFFFFFFFFF MUL NOT AND SWAP1 DUP4 PUSH20 0xFFFFFFFFFFFFFFFFFFFFFFFFFFFFFFFFFFFFFFFF AND MUL OR SWAP1 SSTORE POP DUP1 PUSH0 PUSH1 0x14 PUSH2 0x100 EXP DUP2 SLOAD DUP2 PUSH12 0xFFFFFFFFFFFFFFFFFFFFFFFF MUL NOT AND SWAP1 DUP4 PUSH12 0xFFFFFFFFFFFFFFFFFFFFFFFF AND MUL OR SWAP1 SSTORE POP POP POP JUMP JUMPDEST PUSH0 PUSH20 0xFFFFFFFFFFFFFFFFFFFFFFFFFFFFFFFFFFFFFFFF DUP3 AND SWAP1 POP SWAP2 SWAP1 POP JUMP JUMPDEST PUSH0 PUSH2 0x177 DUP3 PUSH2 0x14E JUMP JUMPDEST SWAP1 POP SWAP2 SWAP1 POP JUMP JUMPDEST PUSH2 0x187 DUP2 PUSH2 0x16D JUMP JUMPDEST DUP3 MSTORE POP POP JUMP JUMPDEST PUSH0 PUSH1 0x20 DUP3 ADD SWAP1 POP PUSH2 0x1A0 PUSH0 DUP4 ADD DUP5 PUSH2 0x17E JUMP JUMPDEST SWAP3 SWAP2 POP POP JUMP JUMPDEST PUSH0 PUSH12 0xFFFFFFFFFFFFFFFFFFFFFFFF DUP3 AND SWAP1 POP SWAP2 SWAP1 POP JUMP JUMPDEST PUSH2 0x1C6 DUP2 PUSH2 0x1A6 JUMP JUMPDEST DUP3 MSTORE POP POP JUMP JUMPDEST PUSH0 PUSH1 0x20 DUP3 ADD SWAP1 POP PUSH2 0x1DF PUSH0 DUP4 ADD DUP5 PUSH2 0x1BD JUMP JUMPDEST SWAP3 SWAP2 POP POP JUMP JUMPDEST PUSH0 DUP1 REVERT JUMPDEST PUSH2 0x1F2 DUP2 PUSH2 0x16D JUMP JUMPDEST DUP2 EQ PUSH2 0x1FC JUMPI PUSH0 DUP1 REVERT JUMPDEST POP JUMP JUMPDEST PUSH0 DUP2 CALLDATALOAD SWAP1 POP PUSH2 0x20D DUP2 PUSH2 0x1E9 JUMP JUMPDEST SWAP3 SWAP2 POP POP JUMP JUMPDEST PUSH2 0x21C DUP2 PUSH2 0x1A6 JUMP JUMPDEST DUP2 EQ PUSH2 0x226 JUMPI PUSH0 DUP1 REVERT JUMPDEST POP JUMP JUMPDEST PUSH0 DUP2 CALLDATALOAD SWAP1 POP PUSH2 0x237 DUP2 PUSH2 0x213 JUMP JUMPDEST SWAP3 SWAP2 POP POP JUMP JUMPDEST PUSH0 DUP1 PUSH1 0x40 DUP4 DUP6 SUB SLT ISZERO PUSH2 0x253 JUMPI PUSH2 0x252 PUSH2 0x1E5 JUMP JUMPDEST JUMPDEST PUSH0 PUSH2 0x260 DUP6 DUP3 DUP7 ADD PUSH2 0x1FF JUMP JUMPDEST SWAP3 POP POP PUSH1 0x20 PUSH2 0x271 DUP6 DUP3 DUP7 ADD PUSH2 0x229 JUMP JUMPDEST SWAP2 POP POP SWAP3 POP SWAP3 SWAP1 POP JUMP INVALID LOG2 PUSH5 0x6970667358 0x22 SLT KECCAK256 0xBA 0xF7 0xAE BLOCKHASH 0xEA 0xB1 PUSH11 0x4E4AA5588759CFABAB9900 0xAC 0x4B 0xAE 0xA8 PREVRANDAO BYTE EXP DUP5 0xBE 0xC8 DUP12 0xE4 MCOPY PUSH21 0x64736F6C634300081A003300000000000000000000 "
				},
				"gasEstimates": {
					"creation": {
						"codeDepositCost": "137800",
						"executionCost": "181",
						"totalCost": "137981"
					},
					"external": {
						"balance()": "2516",
						"setValues(address,uint96)": "49230",
						"user()": "2483"
					}
				},
				"methodIdentifiers": {
					"balance()": "b69ef8a8",
					"setValues(address,uint96)": "dbd7c3e3",
					"user()": "4f8632ba"
				}
			},
			"storageLayout": {
				"storage": [
					{
						"astId": 3,
						"contract": "homework/chainlink/StorageExample.sol:StorageExample",
						"label": "user",
						"offset": 0,
						"slot": "0",
						"type": "t_address"
					},
					{
						"astId": 5,
						"contract": "homework/chainlink/StorageExample.sol:StorageExample",
						"label": "balance",
						"offset": 20,
						"slot": "0",
						"type": "t_uint96"
					}
				],
				"types": {
					"t_address": {
						"encoding": "inplace",
						"label": "address",
						"numberOfBytes": "20"
					},
					"t_uint96": {
						"encoding": "inplace",
						"label": "uint96",
						"numberOfBytes": "12"
					}
				}
			},
			"userdoc": {
				"kind": "user",
				"methods": {},
				"version": 1
			}
		}
	}
}