{
	"homework/03/OpenZeppelin/MyContract1.sol": {
		"MyContract1": {
			"abi": [
				{
					"inputs": [],
					"stateMutability": "nonpayable",
					"type": "constructor"
				},
				{
					"inputs": [
						{
							"internalType": "address",
							"name": "owner",
							"type": "address"
						}
					],
					"name": "OwnableInvalidOwner",
					"type": "error"
				},
				{
					"inputs": [
						{
							"internalType": "address",
							"name": "account",
							"type": "address"
						}
					],
					"name": "OwnableUnauthorizedAccount",
					"type": "error"
				},
				{
					"anonymous": false,
					"inputs": [
						{
							"indexed": true,
							"internalType": "address",
							"name": "previousOwner",
							"type": "address"
						},
						{
							"indexed": true,
							"internalType": "address",
							"name": "newOwner",
							"type": "address"
						}
					],
					"name": "OwnershipTransferred",
					"type": "event"
				},
				{
					"inputs": [
						{
							"internalType": "address",
							"name": "account",
							"type": "address"
						}
					],
					"name": "isBlaclisted",
					"outputs": [
						{
							"internalType": "bool",
							"name": "",
							"type": "bool"
						}
					],
					"stateMutability": "view",
					"type": "function"
				},
				{
					"inputs": [],
					"name": "owner",
					"outputs": [
						{
							"internalType": "address",
							"name": "",
							"type": "address"
						}
					],
					"stateMutability": "view",
					"type": "function"
				},
				{
					"inputs": [],
					"name": "renounceOwnership",
					"outputs": [],
					"stateMutability": "nonpayable",
					"type": "function"
				},
				{
					"inputs": [
						{
							"internalType": "address",
							"name": "account",
							"type": "address"
						},
						{
							"internalType": "bool",
							"name": "flag",
							"type": "bool"
						}
					],
					"name": "setBlacklist",
					"outputs": [],
					"stateMutability": "nonpayable",
					"type": "function"
				},
				{
					"inputs": [
						{
							"internalType": "address",
							"name": "newOwner",
							"type": "address"
						}
					],
					"name": "transferOwnership",
					"outputs": [],
					"stateMutability": "nonpayable",
					"type": "function"
				}
			],
			"devdoc": {
				"errors": {
					"OwnableInvalidOwner(address)": [
						{
							"details": "The owner is not a valid owner account. (eg. `address(0)`)"
						}
					],
					"OwnableUnauthorizedAccount(address)": [
						{
							"details": "The caller account is not authorized to perform an operation."
						}
					]
				},
				"kind": "dev",
				"methods": {
					"owner()": {
						"details": "Returns the address of the current owner."
					},
					"renounceOwnership()": {
						"details": "Leaves the contract without owner. It will not be possible to call `onlyOwner` functions. Can only be called by the current owner. NOTE: Renouncing ownership will leave the contract without an owner, thereby disabling any functionality that is only available to the owner."
					},
					"transferOwnership(address)": {
						"details": "Transfers ownership of the contract to a new account (`newOwner`). Can only be called by the current owner."
					}
				},
				"version": 1
			},
			"evm": {
				"assembly": "    /* \"homework/03/OpenZeppelin/MyContract1.sol\":190:1022  contract MyContract1 is Ownable {... */\n  mstore(0x40, 0x80)\n    /* \"homework/03/OpenZeppelin/MyContract1.sol\":306:490  constructor() Ownable(msg.sender) {... */\n  callvalue\n  dup1\n  iszero\n  tag_1\n  jumpi\n  0x00\n  dup1\n  revert\ntag_1:\n  pop\n    /* \"homework/03/OpenZeppelin/MyContract1.sol\":328:338  msg.sender */\n  caller\n    /* \"@openzeppelin/contracts/access/Ownable.sol\":1297:1298  0 */\n  0x00\n    /* \"@openzeppelin/contracts/access/Ownable.sol\":1273:1299  initialOwner == address(0) */\n  0xffffffffffffffffffffffffffffffffffffffff\n  and\n    /* \"@openzeppelin/contracts/access/Ownable.sol\":1273:1285  initialOwner */\n  dup2\n    /* \"@openzeppelin/contracts/access/Ownable.sol\":1273:1299  initialOwner == address(0) */\n  0xffffffffffffffffffffffffffffffffffffffff\n  and\n  sub\n    /* \"@openzeppelin/contracts/access/Ownable.sol\":1269:1364  if (initialOwner == address(0)) {... */\n  tag_5\n  jumpi\n    /* \"@openzeppelin/contracts/access/Ownable.sol\":1350:1351  0 */\n  0x00\n    /* \"@openzeppelin/contracts/access/Ownable.sol\":1322:1353  OwnableInvalidOwner(address(0)) */\n  mload(0x40)\n  0x1e4fbdf700000000000000000000000000000000000000000000000000000000\n  dup2\n  mstore\n  0x04\n  add\n  tag_6\n  swap2\n  swap1\n  tag_7\n  jump\t// in\ntag_6:\n  mload(0x40)\n  dup1\n  swap2\n  sub\n  swap1\n  revert\n    /* \"@openzeppelin/contracts/access/Ownable.sol\":1269:1364  if (initialOwner == address(0)) {... */\ntag_5:\n    /* \"@openzeppelin/contracts/access/Ownable.sol\":1373:1405  _transferOwnership(initialOwner) */\n  tag_8\n    /* \"@openzeppelin/contracts/access/Ownable.sol\":1392:1404  initialOwner */\n  dup2\n    /* \"@openzeppelin/contracts/access/Ownable.sol\":1373:1391  _transferOwnership */\n  shl(0x20, tag_9)\n    /* \"@openzeppelin/contracts/access/Ownable.sol\":1373:1405  _transferOwnership(initialOwner) */\n  0x20\n  shr\n  jump\t// in\ntag_8:\n    /* \"@openzeppelin/contracts/access/Ownable.sol\":1225:1412  constructor(address initialOwner) {... */\n  pop\n    /* \"homework/03/OpenZeppelin/MyContract1.sol\":376:377  0 */\n  0x00\n    /* \"homework/03/OpenZeppelin/MyContract1.sol\":354:378  msg.sender == address(0) */\n  0xffffffffffffffffffffffffffffffffffffffff\n  and\n    /* \"homework/03/OpenZeppelin/MyContract1.sol\":354:364  msg.sender */\n  caller\n    /* \"homework/03/OpenZeppelin/MyContract1.sol\":354:378  msg.sender == address(0) */\n  0xffffffffffffffffffffffffffffffffffffffff\n  and\n  sub\n    /* \"homework/03/OpenZeppelin/MyContract1.sol\":350:443  if (msg.sender == address(0)) {... */\n  tag_11\n  jumpi\n    /* \"homework/03/OpenZeppelin/MyContract1.sol\":429:430  0 */\n  0x00\n    /* \"homework/03/OpenZeppelin/MyContract1.sol\":401:432  OwnableInvalidOwner(address(0)) */\n  mload(0x40)\n  0x1e4fbdf700000000000000000000000000000000000000000000000000000000\n  dup2\n  mstore\n  0x04\n  add\n  tag_12\n  swap2\n  swap1\n  tag_7\n  jump\t// in\ntag_12:\n  mload(0x40)\n  dup1\n  swap2\n  sub\n  swap1\n  revert\n    /* \"homework/03/OpenZeppelin/MyContract1.sol\":350:443  if (msg.sender == address(0)) {... */\ntag_11:\n    /* \"homework/03/OpenZeppelin/MyContract1.sol\":453:483  _transferOwnership(msg.sender) */\n  tag_13\n    /* \"homework/03/OpenZeppelin/MyContract1.sol\":472:482  msg.sender */\n  caller\n    /* \"homework/03/OpenZeppelin/MyContract1.sol\":453:471  _transferOwnership */\n  shl(0x20, tag_9)\n    /* \"homework/03/OpenZeppelin/MyContract1.sol\":453:483  _transferOwnership(msg.sender) */\n  0x20\n  shr\n  jump\t// in\ntag_13:\n    /* \"homework/03/OpenZeppelin/MyContract1.sol\":190:1022  contract MyContract1 is Ownable {... */\n  jump(tag_14)\n    /* \"homework/03/OpenZeppelin/MyContract1.sol\":496:611  function _transferOwnership(address newOwner) internal override {... */\ntag_9:\n    /* \"homework/03/OpenZeppelin/MyContract1.sol\":570:604  super._transferOwnership(newOwner) */\n  tag_16\n    /* \"homework/03/OpenZeppelin/MyContract1.sol\":595:603  newOwner */\n  dup2\n    /* \"homework/03/OpenZeppelin/MyContract1.sol\":570:594  super._transferOwnership */\n  shl(0x20, tag_17)\n    /* \"homework/03/OpenZeppelin/MyContract1.sol\":570:604  super._transferOwnership(newOwner) */\n  0x20\n  shr\n  jump\t// in\ntag_16:\n    /* \"homework/03/OpenZeppelin/MyContract1.sol\":496:611  function _transferOwnership(address newOwner) internal override {... */\n  pop\n  jump\t// out\n    /* \"@openzeppelin/contracts/access/Ownable.sol\":2912:3099  function _transferOwnership(address newOwner) internal virtual {... */\ntag_17:\n    /* \"@openzeppelin/contracts/access/Ownable.sol\":2985:3001  address oldOwner */\n  0x00\n    /* \"@openzeppelin/contracts/access/Ownable.sol\":3004:3010  _owner */\n  dup1\n  0x00\n  swap1\n  sload\n  swap1\n  0x0100\n  exp\n  swap1\n  div\n  0xffffffffffffffffffffffffffffffffffffffff\n  and\n    /* \"@openzeppelin/contracts/access/Ownable.sol\":2985:3010  address oldOwner = _owner */\n  swap1\n  pop\n    /* \"@openzeppelin/contracts/access/Ownable.sol\":3029:3037  newOwner */\n  dup2\n    /* \"@openzeppelin/contracts/access/Ownable.sol\":3020:3026  _owner */\n  0x00\n  dup1\n    /* \"@openzeppelin/contracts/access/Ownable.sol\":3020:3037  _owner = newOwner */\n  0x0100\n  exp\n  dup2\n  sload\n  dup2\n  0xffffffffffffffffffffffffffffffffffffffff\n  mul\n  not\n  and\n  swap1\n  dup4\n  0xffffffffffffffffffffffffffffffffffffffff\n  and\n  mul\n  or\n  swap1\n  sstore\n  pop\n    /* \"@openzeppelin/contracts/access/Ownable.sol\":3083:3091  newOwner */\n  dup2\n    /* \"@openzeppelin/contracts/access/Ownable.sol\":3052:3092  OwnershipTransferred(oldOwner, newOwner) */\n  0xffffffffffffffffffffffffffffffffffffffff\n  and\n    /* \"@openzeppelin/contracts/access/Ownable.sol\":3073:3081  oldOwner */\n  dup2\n    /* \"@openzeppelin/contracts/access/Ownable.sol\":3052:3092  OwnershipTransferred(oldOwner, newOwner) */\n  0xffffffffffffffffffffffffffffffffffffffff\n  and\n  0x8be0079c531659141344cd1fd0a4f28419497f9722a3daafe3b4186f6b6457e0\n  mload(0x40)\n  mload(0x40)\n  dup1\n  swap2\n  sub\n  swap1\n  log3\n    /* \"@openzeppelin/contracts/access/Ownable.sol\":2975:3099  {... */\n  pop\n    /* \"@openzeppelin/contracts/access/Ownable.sol\":2912:3099  function _transferOwnership(address newOwner) internal virtual {... */\n  pop\n  jump\t// out\n    /* \"#utility.yul\":7:133   */\ntag_19:\n    /* \"#utility.yul\":44:51   */\n  0x00\n    /* \"#utility.yul\":84:126   */\n  0xffffffffffffffffffffffffffffffffffffffff\n    /* \"#utility.yul\":77:82   */\n  dup3\n    /* \"#utility.yul\":73:127   */\n  and\n    /* \"#utility.yul\":62:127   */\n  swap1\n  pop\n    /* \"#utility.yul\":7:133   */\n  swap2\n  swap1\n  pop\n  jump\t// out\n    /* \"#utility.yul\":139:235   */\ntag_20:\n    /* \"#utility.yul\":176:183   */\n  0x00\n    /* \"#utility.yul\":205:229   */\n  tag_25\n    /* \"#utility.yul\":223:228   */\n  dup3\n    /* \"#utility.yul\":205:229   */\n  tag_19\n  jump\t// in\ntag_25:\n    /* \"#utility.yul\":194:229   */\n  swap1\n  pop\n    /* \"#utility.yul\":139:235   */\n  swap2\n  swap1\n  pop\n  jump\t// out\n    /* \"#utility.yul\":241:359   */\ntag_21:\n    /* \"#utility.yul\":328:352   */\n  tag_27\n    /* \"#utility.yul\":346:351   */\n  dup2\n    /* \"#utility.yul\":328:352   */\n  tag_20\n  jump\t// in\ntag_27:\n    /* \"#utility.yul\":323:326   */\n  dup3\n    /* \"#utility.yul\":316:353   */\n  mstore\n    /* \"#utility.yul\":241:359   */\n  pop\n  pop\n  jump\t// out\n    /* \"#utility.yul\":365:587   */\ntag_7:\n    /* \"#utility.yul\":458:462   */\n  0x00\n    /* \"#utility.yul\":496:498   */\n  0x20\n    /* \"#utility.yul\":485:494   */\n  dup3\n    /* \"#utility.yul\":481:499   */\n  add\n    /* \"#utility.yul\":473:499   */\n  swap1\n  pop\n    /* \"#utility.yul\":509:580   */\n  tag_29\n    /* \"#utility.yul\":577:578   */\n  0x00\n    /* \"#utility.yul\":566:575   */\n  dup4\n    /* \"#utility.yul\":562:579   */\n  add\n    /* \"#utility.yul\":553:559   */\n  dup5\n    /* \"#utility.yul\":509:580   */\n  tag_21\n  jump\t// in\ntag_29:\n    /* \"#utility.yul\":365:587   */\n  swap3\n  swap2\n  pop\n  pop\n  jump\t// out\n    /* \"homework/03/OpenZeppelin/MyContract1.sol\":190:1022  contract MyContract1 is Ownable {... */\ntag_14:\n  dataSize(sub_0)\n  dup1\n  dataOffset(sub_0)\n  0x00\n  codecopy\n  0x00\n  return\nstop\n\nsub_0: assembly {\n        /* \"homework/03/OpenZeppelin/MyContract1.sol\":190:1022  contract MyContract1 is Ownable {... */\n      mstore(0x40, 0x80)\n      callvalue\n      dup1\n      iszero\n      tag_1\n      jumpi\n      0x00\n      dup1\n      revert\n    tag_1:\n      pop\n      jumpi(tag_2, lt(calldatasize, 0x04))\n      shr(0xe0, calldataload(0x00))\n      dup1\n      0x153b0d1e\n      eq\n      tag_3\n      jumpi\n      dup1\n      0x715018a6\n      eq\n      tag_4\n      jumpi\n      dup1\n      0x7c6536ca\n      eq\n      tag_5\n      jumpi\n      dup1\n      0x8da5cb5b\n      eq\n      tag_6\n      jumpi\n      dup1\n      0xf2fde38b\n      eq\n      tag_7\n      jumpi\n    tag_2:\n      0x00\n      dup1\n      revert\n        /* \"homework/03/OpenZeppelin/MyContract1.sol\":652:817  function setBlacklist(address account, bool flag) public onlyOwner {... */\n    tag_3:\n      tag_8\n      0x04\n      dup1\n      calldatasize\n      sub\n      dup2\n      add\n      swap1\n      tag_9\n      swap2\n      swap1\n      tag_10\n      jump\t// in\n    tag_9:\n      tag_11\n      jump\t// in\n    tag_8:\n      stop\n        /* \"@openzeppelin/contracts/access/Ownable.sol\":2293:2394  function renounceOwnership() public virtual onlyOwner {... */\n    tag_4:\n      tag_12\n      tag_13\n      jump\t// in\n    tag_12:\n      stop\n        /* \"homework/03/OpenZeppelin/MyContract1.sol\":864:1020  function isBlaclisted(address account) public view returns (bool) {... */\n    tag_5:\n      tag_14\n      0x04\n      dup1\n      calldatasize\n      sub\n      dup2\n      add\n      swap1\n      tag_15\n      swap2\n      swap1\n      tag_16\n      jump\t// in\n    tag_15:\n      tag_17\n      jump\t// in\n    tag_14:\n      mload(0x40)\n      tag_18\n      swap2\n      swap1\n      tag_19\n      jump\t// in\n    tag_18:\n      mload(0x40)\n      dup1\n      swap2\n      sub\n      swap1\n      return\n        /* \"@openzeppelin/contracts/access/Ownable.sol\":1638:1723  function owner() public view virtual returns (address) {... */\n    tag_6:\n      tag_20\n      tag_21\n      jump\t// in\n    tag_20:\n      mload(0x40)\n      tag_22\n      swap2\n      swap1\n      tag_23\n      jump\t// in\n    tag_22:\n      mload(0x40)\n      dup1\n      swap2\n      sub\n      swap1\n      return\n        /* \"@openzeppelin/contracts/access/Ownable.sol\":2543:2758  function transferOwnership(address newOwner) public virtual onlyOwner {... */\n    tag_7:\n      tag_24\n      0x04\n      dup1\n      calldatasize\n      sub\n      dup2\n      add\n      swap1\n      tag_25\n      swap2\n      swap1\n      tag_16\n      jump\t// in\n    tag_25:\n      tag_26\n      jump\t// in\n    tag_24:\n      stop\n        /* \"homework/03/OpenZeppelin/MyContract1.sol\":652:817  function setBlacklist(address account, bool flag) public onlyOwner {... */\n    tag_11:\n        /* \"@openzeppelin/contracts/access/Ownable.sol\":1531:1544  _checkOwner() */\n      tag_28\n        /* \"@openzeppelin/contracts/access/Ownable.sol\":1531:1542  _checkOwner */\n      tag_29\n        /* \"@openzeppelin/contracts/access/Ownable.sol\":1531:1544  _checkOwner() */\n      jump\t// in\n    tag_28:\n        /* \"homework/03/OpenZeppelin/MyContract1.sol\":806:810  flag */\n      dup1\n        /* \"homework/03/OpenZeppelin/MyContract1.sol\":785:794  blacklist */\n      0x01\n        /* \"homework/03/OpenZeppelin/MyContract1.sol\":785:803  blacklist[account] */\n      0x00\n        /* \"homework/03/OpenZeppelin/MyContract1.sol\":795:802  account */\n      dup5\n        /* \"homework/03/OpenZeppelin/MyContract1.sol\":785:803  blacklist[account] */\n      0xffffffffffffffffffffffffffffffffffffffff\n      and\n      0xffffffffffffffffffffffffffffffffffffffff\n      and\n      dup2\n      mstore\n      0x20\n      add\n      swap1\n      dup2\n      mstore\n      0x20\n      add\n      0x00\n      keccak256\n      0x00\n        /* \"homework/03/OpenZeppelin/MyContract1.sol\":785:810  blacklist[account] = flag */\n      0x0100\n      exp\n      dup2\n      sload\n      dup2\n      0xff\n      mul\n      not\n      and\n      swap1\n      dup4\n      iszero\n      iszero\n      mul\n      or\n      swap1\n      sstore\n      pop\n        /* \"homework/03/OpenZeppelin/MyContract1.sol\":652:817  function setBlacklist(address account, bool flag) public onlyOwner {... */\n      pop\n      pop\n      jump\t// out\n        /* \"@openzeppelin/contracts/access/Ownable.sol\":2293:2394  function renounceOwnership() public virtual onlyOwner {... */\n    tag_13:\n        /* \"@openzeppelin/contracts/access/Ownable.sol\":1531:1544  _checkOwner() */\n      tag_32\n        /* \"@openzeppelin/contracts/access/Ownable.sol\":1531:1542  _checkOwner */\n      tag_29\n        /* \"@openzeppelin/contracts/access/Ownable.sol\":1531:1544  _checkOwner() */\n      jump\t// in\n    tag_32:\n        /* \"@openzeppelin/contracts/access/Ownable.sol\":2357:2387  _transferOwnership(address(0)) */\n      tag_34\n        /* \"@openzeppelin/contracts/access/Ownable.sol\":2384:2385  0 */\n      0x00\n        /* \"@openzeppelin/contracts/access/Ownable.sol\":2357:2375  _transferOwnership */\n      tag_35\n        /* \"@openzeppelin/contracts/access/Ownable.sol\":2357:2387  _transferOwnership(address(0)) */\n      jump\t// in\n    tag_34:\n        /* \"@openzeppelin/contracts/access/Ownable.sol\":2293:2394  function renounceOwnership() public virtual onlyOwner {... */\n      jump\t// out\n        /* \"homework/03/OpenZeppelin/MyContract1.sol\":864:1020  function isBlaclisted(address account) public view returns (bool) {... */\n    tag_17:\n        /* \"homework/03/OpenZeppelin/MyContract1.sol\":924:928  bool */\n      0x00\n        /* \"homework/03/OpenZeppelin/MyContract1.sol\":995:1004  blacklist */\n      0x01\n        /* \"homework/03/OpenZeppelin/MyContract1.sol\":995:1013  blacklist[account] */\n      0x00\n        /* \"homework/03/OpenZeppelin/MyContract1.sol\":1005:1012  account */\n      dup4\n        /* \"homework/03/OpenZeppelin/MyContract1.sol\":995:1013  blacklist[account] */\n      0xffffffffffffffffffffffffffffffffffffffff\n      and\n      0xffffffffffffffffffffffffffffffffffffffff\n      and\n      dup2\n      mstore\n      0x20\n      add\n      swap1\n      dup2\n      mstore\n      0x20\n      add\n      0x00\n      keccak256\n      0x00\n      swap1\n      sload\n      swap1\n      0x0100\n      exp\n      swap1\n      div\n      0xff\n      and\n        /* \"homework/03/OpenZeppelin/MyContract1.sol\":988:1013  return blacklist[account] */\n      swap1\n      pop\n        /* \"homework/03/OpenZeppelin/MyContract1.sol\":864:1020  function isBlaclisted(address account) public view returns (bool) {... */\n      swap2\n      swap1\n      pop\n      jump\t// out\n        /* \"@openzeppelin/contracts/access/Ownable.sol\":1638:1723  function owner() public view virtual returns (address) {... */\n    tag_21:\n        /* \"@openzeppelin/contracts/access/Ownable.sol\":1684:1691  address */\n      0x00\n        /* \"@openzeppelin/contracts/access/Ownable.sol\":1710:1716  _owner */\n      dup1\n      0x00\n      swap1\n      sload\n      swap1\n      0x0100\n      exp\n      swap1\n      div\n      0xffffffffffffffffffffffffffffffffffffffff\n      and\n        /* \"@openzeppelin/contracts/access/Ownable.sol\":1703:1716  return _owner */\n      swap1\n      pop\n        /* \"@openzeppelin/contracts/access/Ownable.sol\":1638:1723  function owner() public view virtual returns (address) {... */\n      swap1\n      jump\t// out\n        /* \"@openzeppelin/contracts/access/Ownable.sol\":2543:2758  function transferOwnership(address newOwner) public virtual onlyOwner {... */\n    tag_26:\n        /* \"@openzeppelin/contracts/access/Ownable.sol\":1531:1544  _checkOwner() */\n      tag_39\n        /* \"@openzeppelin/contracts/access/Ownable.sol\":1531:1542  _checkOwner */\n      tag_29\n        /* \"@openzeppelin/contracts/access/Ownable.sol\":1531:1544  _checkOwner() */\n      jump\t// in\n    tag_39:\n        /* \"@openzeppelin/contracts/access/Ownable.sol\":2647:2648  0 */\n      0x00\n        /* \"@openzeppelin/contracts/access/Ownable.sol\":2627:2649  newOwner == address(0) */\n      0xffffffffffffffffffffffffffffffffffffffff\n      and\n        /* \"@openzeppelin/contracts/access/Ownable.sol\":2627:2635  newOwner */\n      dup2\n        /* \"@openzeppelin/contracts/access/Ownable.sol\":2627:2649  newOwner == address(0) */\n      0xffffffffffffffffffffffffffffffffffffffff\n      and\n      sub\n        /* \"@openzeppelin/contracts/access/Ownable.sol\":2623:2714  if (newOwner == address(0)) {... */\n      tag_41\n      jumpi\n        /* \"@openzeppelin/contracts/access/Ownable.sol\":2700:2701  0 */\n      0x00\n        /* \"@openzeppelin/contracts/access/Ownable.sol\":2672:2703  OwnableInvalidOwner(address(0)) */\n      mload(0x40)\n      0x1e4fbdf700000000000000000000000000000000000000000000000000000000\n      dup2\n      mstore\n      0x04\n      add\n      tag_42\n      swap2\n      swap1\n      tag_23\n      jump\t// in\n    tag_42:\n      mload(0x40)\n      dup1\n      swap2\n      sub\n      swap1\n      revert\n        /* \"@openzeppelin/contracts/access/Ownable.sol\":2623:2714  if (newOwner == address(0)) {... */\n    tag_41:\n        /* \"@openzeppelin/contracts/access/Ownable.sol\":2723:2751  _transferOwnership(newOwner) */\n      tag_43\n        /* \"@openzeppelin/contracts/access/Ownable.sol\":2742:2750  newOwner */\n      dup2\n        /* \"@openzeppelin/contracts/access/Ownable.sol\":2723:2741  _transferOwnership */\n      tag_35\n        /* \"@openzeppelin/contracts/access/Ownable.sol\":2723:2751  _transferOwnership(newOwner) */\n      jump\t// in\n    tag_43:\n        /* \"@openzeppelin/contracts/access/Ownable.sol\":2543:2758  function transferOwnership(address newOwner) public virtual onlyOwner {... */\n      pop\n      jump\t// out\n        /* \"@openzeppelin/contracts/access/Ownable.sol\":1796:1958  function _checkOwner() internal view virtual {... */\n    tag_29:\n        /* \"@openzeppelin/contracts/access/Ownable.sol\":1866:1878  _msgSender() */\n      tag_45\n        /* \"@openzeppelin/contracts/access/Ownable.sol\":1866:1876  _msgSender */\n      tag_46\n        /* \"@openzeppelin/contracts/access/Ownable.sol\":1866:1878  _msgSender() */\n      jump\t// in\n    tag_45:\n        /* \"@openzeppelin/contracts/access/Ownable.sol\":1855:1878  owner() != _msgSender() */\n      0xffffffffffffffffffffffffffffffffffffffff\n      and\n        /* \"@openzeppelin/contracts/access/Ownable.sol\":1855:1862  owner() */\n      tag_47\n        /* \"@openzeppelin/contracts/access/Ownable.sol\":1855:1860  owner */\n      tag_21\n        /* \"@openzeppelin/contracts/access/Ownable.sol\":1855:1862  owner() */\n      jump\t// in\n    tag_47:\n        /* \"@openzeppelin/contracts/access/Ownable.sol\":1855:1878  owner() != _msgSender() */\n      0xffffffffffffffffffffffffffffffffffffffff\n      and\n      eq\n        /* \"@openzeppelin/contracts/access/Ownable.sol\":1851:1952  if (owner() != _msgSender()) {... */\n      tag_48\n      jumpi\n        /* \"@openzeppelin/contracts/access/Ownable.sol\":1928:1940  _msgSender() */\n      tag_49\n        /* \"@openzeppelin/contracts/access/Ownable.sol\":1928:1938  _msgSender */\n      tag_46\n        /* \"@openzeppelin/contracts/access/Ownable.sol\":1928:1940  _msgSender() */\n      jump\t// in\n    tag_49:\n        /* \"@openzeppelin/contracts/access/Ownable.sol\":1901:1941  OwnableUnauthorizedAccount(_msgSender()) */\n      mload(0x40)\n      0x118cdaa700000000000000000000000000000000000000000000000000000000\n      dup2\n      mstore\n      0x04\n      add\n      tag_50\n      swap2\n      swap1\n      tag_23\n      jump\t// in\n    tag_50:\n      mload(0x40)\n      dup1\n      swap2\n      sub\n      swap1\n      revert\n        /* \"@openzeppelin/contracts/access/Ownable.sol\":1851:1952  if (owner() != _msgSender()) {... */\n    tag_48:\n        /* \"@openzeppelin/contracts/access/Ownable.sol\":1796:1958  function _checkOwner() internal view virtual {... */\n      jump\t// out\n        /* \"homework/03/OpenZeppelin/MyContract1.sol\":496:611  function _transferOwnership(address newOwner) internal override {... */\n    tag_35:\n        /* \"homework/03/OpenZeppelin/MyContract1.sol\":570:604  super._transferOwnership(newOwner) */\n      tag_52\n        /* \"homework/03/OpenZeppelin/MyContract1.sol\":595:603  newOwner */\n      dup2\n        /* \"homework/03/OpenZeppelin/MyContract1.sol\":570:594  super._transferOwnership */\n      tag_53\n        /* \"homework/03/OpenZeppelin/MyContract1.sol\":570:604  super._transferOwnership(newOwner) */\n      jump\t// in\n    tag_52:\n        /* \"homework/03/OpenZeppelin/MyContract1.sol\":496:611  function _transferOwnership(address newOwner) internal override {... */\n      pop\n      jump\t// out\n        /* \"@openzeppelin/contracts/utils/Context.sol\":656:752  function _msgSender() internal view virtual returns (address) {... */\n    tag_46:\n        /* \"@openzeppelin/contracts/utils/Context.sol\":709:716  address */\n      0x00\n        /* \"@openzeppelin/contracts/utils/Context.sol\":735:745  msg.sender */\n      caller\n        /* \"@openzeppelin/contracts/utils/Context.sol\":728:745  return msg.sender */\n      swap1\n      pop\n        /* \"@openzeppelin/contracts/utils/Context.sol\":656:752  function _msgSender() internal view virtual returns (address) {... */\n      swap1\n      jump\t// out\n        /* \"@openzeppelin/contracts/access/Ownable.sol\":2912:3099  function _transferOwnership(address newOwner) internal virtual {... */\n    tag_53:\n        /* \"@openzeppelin/contracts/access/Ownable.sol\":2985:3001  address oldOwner */\n      0x00\n        /* \"@openzeppelin/contracts/access/Ownable.sol\":3004:3010  _owner */\n      dup1\n      0x00\n      swap1\n      sload\n      swap1\n      0x0100\n      exp\n      swap1\n      div\n      0xffffffffffffffffffffffffffffffffffffffff\n      and\n        /* \"@openzeppelin/contracts/access/Ownable.sol\":2985:3010  address oldOwner = _owner */\n      swap1\n      pop\n        /* \"@openzeppelin/contracts/access/Ownable.sol\":3029:3037  newOwner */\n      dup2\n        /* \"@openzeppelin/contracts/access/Ownable.sol\":3020:3026  _owner */\n      0x00\n      dup1\n        /* \"@openzeppelin/contracts/access/Ownable.sol\":3020:3037  _owner = newOwner */\n      0x0100\n      exp\n      dup2\n      sload\n      dup2\n      0xffffffffffffffffffffffffffffffffffffffff\n      mul\n      not\n      and\n      swap1\n      dup4\n      0xffffffffffffffffffffffffffffffffffffffff\n      and\n      mul\n      or\n      swap1\n      sstore\n      pop\n        /* \"@openzeppelin/contracts/access/Ownable.sol\":3083:3091  newOwner */\n      dup2\n        /* \"@openzeppelin/contracts/access/Ownable.sol\":3052:3092  OwnershipTransferred(oldOwner, newOwner) */\n      0xffffffffffffffffffffffffffffffffffffffff\n      and\n        /* \"@openzeppelin/contracts/access/Ownable.sol\":3073:3081  oldOwner */\n      dup2\n        /* \"@openzeppelin/contracts/access/Ownable.sol\":3052:3092  OwnershipTransferred(oldOwner, newOwner) */\n      0xffffffffffffffffffffffffffffffffffffffff\n      and\n      0x8be0079c531659141344cd1fd0a4f28419497f9722a3daafe3b4186f6b6457e0\n      mload(0x40)\n      mload(0x40)\n      dup1\n      swap2\n      sub\n      swap1\n      log3\n        /* \"@openzeppelin/contracts/access/Ownable.sol\":2975:3099  {... */\n      pop\n        /* \"@openzeppelin/contracts/access/Ownable.sol\":2912:3099  function _transferOwnership(address newOwner) internal virtual {... */\n      pop\n      jump\t// out\n        /* \"#utility.yul\":88:205   */\n    tag_57:\n        /* \"#utility.yul\":197:198   */\n      0x00\n        /* \"#utility.yul\":194:195   */\n      dup1\n        /* \"#utility.yul\":187:199   */\n      revert\n        /* \"#utility.yul\":334:460   */\n    tag_59:\n        /* \"#utility.yul\":371:378   */\n      0x00\n        /* \"#utility.yul\":411:453   */\n      0xffffffffffffffffffffffffffffffffffffffff\n        /* \"#utility.yul\":404:409   */\n      dup3\n        /* \"#utility.yul\":400:454   */\n      and\n        /* \"#utility.yul\":389:454   */\n      swap1\n      pop\n        /* \"#utility.yul\":334:460   */\n      swap2\n      swap1\n      pop\n      jump\t// out\n        /* \"#utility.yul\":466:562   */\n    tag_60:\n        /* \"#utility.yul\":503:510   */\n      0x00\n        /* \"#utility.yul\":532:556   */\n      tag_74\n        /* \"#utility.yul\":550:555   */\n      dup3\n        /* \"#utility.yul\":532:556   */\n      tag_59\n      jump\t// in\n    tag_74:\n        /* \"#utility.yul\":521:556   */\n      swap1\n      pop\n        /* \"#utility.yul\":466:562   */\n      swap2\n      swap1\n      pop\n      jump\t// out\n        /* \"#utility.yul\":568:690   */\n    tag_61:\n        /* \"#utility.yul\":641:665   */\n      tag_76\n        /* \"#utility.yul\":659:664   */\n      dup2\n        /* \"#utility.yul\":641:665   */\n      tag_60\n      jump\t// in\n    tag_76:\n        /* \"#utility.yul\":634:639   */\n      dup2\n        /* \"#utility.yul\":631:666   */\n      eq\n        /* \"#utility.yul\":621:684   */\n      tag_77\n      jumpi\n        /* \"#utility.yul\":680:681   */\n      0x00\n        /* \"#utility.yul\":677:678   */\n      dup1\n        /* \"#utility.yul\":670:682   */\n      revert\n        /* \"#utility.yul\":621:684   */\n    tag_77:\n        /* \"#utility.yul\":568:690   */\n      pop\n      jump\t// out\n        /* \"#utility.yul\":696:835   */\n    tag_62:\n        /* \"#utility.yul\":742:747   */\n      0x00\n        /* \"#utility.yul\":780:786   */\n      dup2\n        /* \"#utility.yul\":767:787   */\n      calldataload\n        /* \"#utility.yul\":758:787   */\n      swap1\n      pop\n        /* \"#utility.yul\":796:829   */\n      tag_79\n        /* \"#utility.yul\":823:828   */\n      dup2\n        /* \"#utility.yul\":796:829   */\n      tag_61\n      jump\t// in\n    tag_79:\n        /* \"#utility.yul\":696:835   */\n      swap3\n      swap2\n      pop\n      pop\n      jump\t// out\n        /* \"#utility.yul\":841:931   */\n    tag_63:\n        /* \"#utility.yul\":875:882   */\n      0x00\n        /* \"#utility.yul\":918:923   */\n      dup2\n        /* \"#utility.yul\":911:924   */\n      iszero\n        /* \"#utility.yul\":904:925   */\n      iszero\n        /* \"#utility.yul\":893:925   */\n      swap1\n      pop\n        /* \"#utility.yul\":841:931   */\n      swap2\n      swap1\n      pop\n      jump\t// out\n        /* \"#utility.yul\":937:1053   */\n    tag_64:\n        /* \"#utility.yul\":1007:1028   */\n      tag_82\n        /* \"#utility.yul\":1022:1027   */\n      dup2\n        /* \"#utility.yul\":1007:1028   */\n      tag_63\n      jump\t// in\n    tag_82:\n        /* \"#utility.yul\":1000:1005   */\n      dup2\n        /* \"#utility.yul\":997:1029   */\n      eq\n        /* \"#utility.yul\":987:1047   */\n      tag_83\n      jumpi\n        /* \"#utility.yul\":1043:1044   */\n      0x00\n        /* \"#utility.yul\":1040:1041   */\n      dup1\n        /* \"#utility.yul\":1033:1045   */\n      revert\n        /* \"#utility.yul\":987:1047   */\n    tag_83:\n        /* \"#utility.yul\":937:1053   */\n      pop\n      jump\t// out\n        /* \"#utility.yul\":1059:1192   */\n    tag_65:\n        /* \"#utility.yul\":1102:1107   */\n      0x00\n        /* \"#utility.yul\":1140:1146   */\n      dup2\n        /* \"#utility.yul\":1127:1147   */\n      calldataload\n        /* \"#utility.yul\":1118:1147   */\n      swap1\n      pop\n        /* \"#utility.yul\":1156:1186   */\n      tag_85\n        /* \"#utility.yul\":1180:1185   */\n      dup2\n        /* \"#utility.yul\":1156:1186   */\n      tag_64\n      jump\t// in\n    tag_85:\n        /* \"#utility.yul\":1059:1192   */\n      swap3\n      swap2\n      pop\n      pop\n      jump\t// out\n        /* \"#utility.yul\":1198:1666   */\n    tag_10:\n        /* \"#utility.yul\":1263:1269   */\n      0x00\n        /* \"#utility.yul\":1271:1277   */\n      dup1\n        /* \"#utility.yul\":1320:1322   */\n      0x40\n        /* \"#utility.yul\":1308:1317   */\n      dup4\n        /* \"#utility.yul\":1299:1306   */\n      dup6\n        /* \"#utility.yul\":1295:1318   */\n      sub\n        /* \"#utility.yul\":1291:1323   */\n      slt\n        /* \"#utility.yul\":1288:1407   */\n      iszero\n      tag_87\n      jumpi\n        /* \"#utility.yul\":1326:1405   */\n      tag_88\n      tag_57\n      jump\t// in\n    tag_88:\n        /* \"#utility.yul\":1288:1407   */\n    tag_87:\n        /* \"#utility.yul\":1446:1447   */\n      0x00\n        /* \"#utility.yul\":1471:1524   */\n      tag_89\n        /* \"#utility.yul\":1516:1523   */\n      dup6\n        /* \"#utility.yul\":1507:1513   */\n      dup3\n        /* \"#utility.yul\":1496:1505   */\n      dup7\n        /* \"#utility.yul\":1492:1514   */\n      add\n        /* \"#utility.yul\":1471:1524   */\n      tag_62\n      jump\t// in\n    tag_89:\n        /* \"#utility.yul\":1461:1524   */\n      swap3\n      pop\n        /* \"#utility.yul\":1417:1534   */\n      pop\n        /* \"#utility.yul\":1573:1575   */\n      0x20\n        /* \"#utility.yul\":1599:1649   */\n      tag_90\n        /* \"#utility.yul\":1641:1648   */\n      dup6\n        /* \"#utility.yul\":1632:1638   */\n      dup3\n        /* \"#utility.yul\":1621:1630   */\n      dup7\n        /* \"#utility.yul\":1617:1639   */\n      add\n        /* \"#utility.yul\":1599:1649   */\n      tag_65\n      jump\t// in\n    tag_90:\n        /* \"#utility.yul\":1589:1649   */\n      swap2\n      pop\n        /* \"#utility.yul\":1544:1659   */\n      pop\n        /* \"#utility.yul\":1198:1666   */\n      swap3\n      pop\n      swap3\n      swap1\n      pop\n      jump\t// out\n        /* \"#utility.yul\":1672:2001   */\n    tag_16:\n        /* \"#utility.yul\":1731:1737   */\n      0x00\n        /* \"#utility.yul\":1780:1782   */\n      0x20\n        /* \"#utility.yul\":1768:1777   */\n      dup3\n        /* \"#utility.yul\":1759:1766   */\n      dup5\n        /* \"#utility.yul\":1755:1778   */\n      sub\n        /* \"#utility.yul\":1751:1783   */\n      slt\n        /* \"#utility.yul\":1748:1867   */\n      iszero\n      tag_92\n      jumpi\n        /* \"#utility.yul\":1786:1865   */\n      tag_93\n      tag_57\n      jump\t// in\n    tag_93:\n        /* \"#utility.yul\":1748:1867   */\n    tag_92:\n        /* \"#utility.yul\":1906:1907   */\n      0x00\n        /* \"#utility.yul\":1931:1984   */\n      tag_94\n        /* \"#utility.yul\":1976:1983   */\n      dup5\n        /* \"#utility.yul\":1967:1973   */\n      dup3\n        /* \"#utility.yul\":1956:1965   */\n      dup6\n        /* \"#utility.yul\":1952:1974   */\n      add\n        /* \"#utility.yul\":1931:1984   */\n      tag_62\n      jump\t// in\n    tag_94:\n        /* \"#utility.yul\":1921:1984   */\n      swap2\n      pop\n        /* \"#utility.yul\":1877:1994   */\n      pop\n        /* \"#utility.yul\":1672:2001   */\n      swap3\n      swap2\n      pop\n      pop\n      jump\t// out\n        /* \"#utility.yul\":2007:2116   */\n    tag_66:\n        /* \"#utility.yul\":2088:2109   */\n      tag_96\n        /* \"#utility.yul\":2103:2108   */\n      dup2\n        /* \"#utility.yul\":2088:2109   */\n      tag_63\n      jump\t// in\n    tag_96:\n        /* \"#utility.yul\":2083:2086   */\n      dup3\n        /* \"#utility.yul\":2076:2110   */\n      mstore\n        /* \"#utility.yul\":2007:2116   */\n      pop\n      pop\n      jump\t// out\n        /* \"#utility.yul\":2122:2332   */\n    tag_19:\n        /* \"#utility.yul\":2209:2213   */\n      0x00\n        /* \"#utility.yul\":2247:2249   */\n      0x20\n        /* \"#utility.yul\":2236:2245   */\n      dup3\n        /* \"#utility.yul\":2232:2250   */\n      add\n        /* \"#utility.yul\":2224:2250   */\n      swap1\n      pop\n        /* \"#utility.yul\":2260:2325   */\n      tag_98\n        /* \"#utility.yul\":2322:2323   */\n      0x00\n        /* \"#utility.yul\":2311:2320   */\n      dup4\n        /* \"#utility.yul\":2307:2324   */\n      add\n        /* \"#utility.yul\":2298:2304   */\n      dup5\n        /* \"#utility.yul\":2260:2325   */\n      tag_66\n      jump\t// in\n    tag_98:\n        /* \"#utility.yul\":2122:2332   */\n      swap3\n      swap2\n      pop\n      pop\n      jump\t// out\n        /* \"#utility.yul\":2338:2456   */\n    tag_67:\n        /* \"#utility.yul\":2425:2449   */\n      tag_100\n        /* \"#utility.yul\":2443:2448   */\n      dup2\n        /* \"#utility.yul\":2425:2449   */\n      tag_60\n      jump\t// in\n    tag_100:\n        /* \"#utility.yul\":2420:2423   */\n      dup3\n        /* \"#utility.yul\":2413:2450   */\n      mstore\n        /* \"#utility.yul\":2338:2456   */\n      pop\n      pop\n      jump\t// out\n        /* \"#utility.yul\":2462:2684   */\n    tag_23:\n        /* \"#utility.yul\":2555:2559   */\n      0x00\n        /* \"#utility.yul\":2593:2595   */\n      0x20\n        /* \"#utility.yul\":2582:2591   */\n      dup3\n        /* \"#utility.yul\":2578:2596   */\n      add\n        /* \"#utility.yul\":2570:2596   */\n      swap1\n      pop\n        /* \"#utility.yul\":2606:2677   */\n      tag_102\n        /* \"#utility.yul\":2674:2675   */\n      0x00\n        /* \"#utility.yul\":2663:2672   */\n      dup4\n        /* \"#utility.yul\":2659:2676   */\n      add\n        /* \"#utility.yul\":2650:2656   */\n      dup5\n        /* \"#utility.yul\":2606:2677   */\n      tag_67\n      jump\t// in\n    tag_102:\n        /* \"#utility.yul\":2462:2684   */\n      swap3\n      swap2\n      pop\n      pop\n      jump\t// out\n\n    auxdata: 0xa2646970667358221220f5bb62905c904740ad83b4afaa3af59bad605784e173e492648e4351f8bae1fe64736f6c634300081a0033\n}\n",
				"bytecode": {
					"linkReferences": {},
					"object": "608060405234801561000f575f80fd5b50335f73ffffffffffffffffffffffffffffffffffffffff168173ffffffffffffffffffffffffffffffffffffffff1603610081575f6040517f1e4fbdf70000000000000000000000000000000000000000000000000000000081526004016100789190610227565b60405180910390fd5b6100908161011560201b60201c565b505f73ffffffffffffffffffffffffffffffffffffffff163373ffffffffffffffffffffffffffffffffffffffff1603610101575f6040517f1e4fbdf70000000000000000000000000000000000000000000000000000000081526004016100f89190610227565b60405180910390fd5b6101103361011560201b60201c565b610240565b6101248161012760201b60201c565b50565b5f805f9054906101000a900473ffffffffffffffffffffffffffffffffffffffff169050815f806101000a81548173ffffffffffffffffffffffffffffffffffffffff021916908373ffffffffffffffffffffffffffffffffffffffff1602179055508173ffffffffffffffffffffffffffffffffffffffff168173ffffffffffffffffffffffffffffffffffffffff167f8be0079c531659141344cd1fd0a4f28419497f9722a3daafe3b4186f6b6457e060405160405180910390a35050565b5f73ffffffffffffffffffffffffffffffffffffffff82169050919050565b5f610211826101e8565b9050919050565b61022181610207565b82525050565b5f60208201905061023a5f830184610218565b92915050565b6105368061024d5f395ff3fe608060405234801561000f575f80fd5b5060043610610055575f3560e01c8063153b0d1e14610059578063715018a6146100755780637c6536ca1461007f5780638da5cb5b146100af578063f2fde38b146100cd575b5f80fd5b610073600480360381019061006e9190610447565b6100e9565b005b61007d610149565b005b61009960048036038101906100949190610485565b61015c565b6040516100a691906104bf565b60405180910390f35b6100b76101ae565b6040516100c491906104e7565b60405180910390f35b6100e760048036038101906100e29190610485565b6101d5565b005b6100f1610259565b8060015f8473ffffffffffffffffffffffffffffffffffffffff1673ffffffffffffffffffffffffffffffffffffffff1681526020019081526020015f205f6101000a81548160ff0219169083151502179055505050565b610151610259565b61015a5f6102e0565b565b5f60015f8373ffffffffffffffffffffffffffffffffffffffff1673ffffffffffffffffffffffffffffffffffffffff1681526020019081526020015f205f9054906101000a900460ff169050919050565b5f805f9054906101000a900473ffffffffffffffffffffffffffffffffffffffff16905090565b6101dd610259565b5f73ffffffffffffffffffffffffffffffffffffffff168173ffffffffffffffffffffffffffffffffffffffff160361024d575f6040517f1e4fbdf700000000000000000000000000000000000000000000000000000000815260040161024491906104e7565b60405180910390fd5b610256816102e0565b50565b6102616102ec565b73ffffffffffffffffffffffffffffffffffffffff1661027f6101ae565b73ffffffffffffffffffffffffffffffffffffffff16146102de576102a26102ec565b6040517f118cdaa70000000000000000000000000000000000000000000000000000000081526004016102d591906104e7565b60405180910390fd5b565b6102e9816102f3565b50565b5f33905090565b5f805f9054906101000a900473ffffffffffffffffffffffffffffffffffffffff169050815f806101000a81548173ffffffffffffffffffffffffffffffffffffffff021916908373ffffffffffffffffffffffffffffffffffffffff1602179055508173ffffffffffffffffffffffffffffffffffffffff168173ffffffffffffffffffffffffffffffffffffffff167f8be0079c531659141344cd1fd0a4f28419497f9722a3daafe3b4186f6b6457e060405160405180910390a35050565b5f80fd5b5f73ffffffffffffffffffffffffffffffffffffffff82169050919050565b5f6103e1826103b8565b9050919050565b6103f1816103d7565b81146103fb575f80fd5b50565b5f8135905061040c816103e8565b92915050565b5f8115159050919050565b61042681610412565b8114610430575f80fd5b50565b5f813590506104418161041d565b92915050565b5f806040838503121561045d5761045c6103b4565b5b5f61046a858286016103fe565b925050602061047b85828601610433565b9150509250929050565b5f6020828403121561049a576104996103b4565b5b5f6104a7848285016103fe565b91505092915050565b6104b981610412565b82525050565b5f6020820190506104d25f8301846104b0565b92915050565b6104e1816103d7565b82525050565b5f6020820190506104fa5f8301846104d8565b9291505056fea2646970667358221220f5bb62905c904740ad83b4afaa3af59bad605784e173e492648e4351f8bae1fe64736f6c634300081a0033",
					"opcodes": "PUSH1 0x80 PUSH1 0x40 MSTORE CALLVALUE DUP1 ISZERO PUSH2 0xF JUMPI PUSH0 DUP1 REVERT JUMPDEST POP CALLER PUSH0 PUSH20 0xFFFFFFFFFFFFFFFFFFFFFFFFFFFFFFFFFFFFFFFF AND DUP2 PUSH20 0xFFFFFFFFFFFFFFFFFFFFFFFFFFFFFFFFFFFFFFFF AND SUB PUSH2 0x81 JUMPI PUSH0 PUSH1 0x40 MLOAD PUSH32 0x1E4FBDF700000000000000000000000000000000000000000000000000000000 DUP2 MSTORE PUSH1 0x4 ADD PUSH2 0x78 SWAP2 SWAP1 PUSH2 0x227 JUMP JUMPDEST PUSH1 0x40 MLOAD DUP1 SWAP2 SUB SWAP1 REVERT JUMPDEST PUSH2 0x90 DUP2 PUSH2 0x115 PUSH1 0x20 SHL PUSH1 0x20 SHR JUMP JUMPDEST POP PUSH0 PUSH20 0xFFFFFFFFFFFFFFFFFFFFFFFFFFFFFFFFFFFFFFFF AND CALLER PUSH20 0xFFFFFFFFFFFFFFFFFFFFFFFFFFFFFFFFFFFFFFFF AND SUB PUSH2 0x101 JUMPI PUSH0 PUSH1 0x40 MLOAD PUSH32 0x1E4FBDF700000000000000000000000000000000000000000000000000000000 DUP2 MSTORE PUSH1 0x4 ADD PUSH2 0xF8 SWAP2 SWAP1 PUSH2 0x227 JUMP JUMPDEST PUSH1 0x40 MLOAD DUP1 SWAP2 SUB SWAP1 REVERT JUMPDEST PUSH2 0x110 CALLER PUSH2 0x115 PUSH1 0x20 SHL PUSH1 0x20 SHR JUMP JUMPDEST PUSH2 0x240 JUMP JUMPDEST PUSH2 0x124 DUP2 PUSH2 0x127 PUSH1 0x20 SHL PUSH1 0x20 SHR JUMP JUMPDEST POP JUMP JUMPDEST PUSH0 DUP1 PUSH0 SWAP1 SLOAD SWAP1 PUSH2 0x100 EXP SWAP1 DIV PUSH20 0xFFFFFFFFFFFFFFFFFFFFFFFFFFFFFFFFFFFFFFFF AND SWAP1 POP DUP2 PUSH0 DUP1 PUSH2 0x100 EXP DUP2 SLOAD DUP2 PUSH20 0xFFFFFFFFFFFFFFFFFFFFFFFFFFFFFFFFFFFFFFFF MUL NOT AND SWAP1 DUP4 PUSH20 0xFFFFFFFFFFFFFFFFFFFFFFFFFFFFFFFFFFFFFFFF AND MUL OR SWAP1 SSTORE POP DUP2 PUSH20 0xFFFFFFFFFFFFFFFFFFFFFFFFFFFFFFFFFFFFFFFF AND DUP2 PUSH20 0xFFFFFFFFFFFFFFFFFFFFFFFFFFFFFFFFFFFFFFFF AND PUSH32 0x8BE0079C531659141344CD1FD0A4F28419497F9722A3DAAFE3B4186F6B6457E0 PUSH1 0x40 MLOAD PUSH1 0x40 MLOAD DUP1 SWAP2 SUB SWAP1 LOG3 POP POP JUMP JUMPDEST PUSH0 PUSH20 0xFFFFFFFFFFFFFFFFFFFFFFFFFFFFFFFFFFFFFFFF DUP3 AND SWAP1 POP SWAP2 SWAP1 POP JUMP JUMPDEST PUSH0 PUSH2 0x211 DUP3 PUSH2 0x1E8 JUMP JUMPDEST SWAP1 POP SWAP2 SWAP1 POP JUMP JUMPDEST PUSH2 0x221 DUP2 PUSH2 0x207 JUMP JUMPDEST DUP3 MSTORE POP POP JUMP JUMPDEST PUSH0 PUSH1 0x20 DUP3 ADD SWAP1 POP PUSH2 0x23A PUSH0 DUP4 ADD DUP5 PUSH2 0x218 JUMP JUMPDEST SWAP3 SWAP2 POP POP JUMP JUMPDEST PUSH2 0x536 DUP1 PUSH2 0x24D PUSH0 CODECOPY PUSH0 RETURN INVALID PUSH1 0x80 PUSH1 0x40 MSTORE CALLVALUE DUP1 ISZERO PUSH2 0xF JUMPI PUSH0 DUP1 REVERT JUMPDEST POP PUSH1 0x4 CALLDATASIZE LT PUSH2 0x55 JUMPI PUSH0 CALLDATALOAD PUSH1 0xE0 SHR DUP1 PUSH4 0x153B0D1E EQ PUSH2 0x59 JUMPI DUP1 PUSH4 0x715018A6 EQ PUSH2 0x75 JUMPI DUP1 PUSH4 0x7C6536CA EQ PUSH2 0x7F JUMPI DUP1 PUSH4 0x8DA5CB5B EQ PUSH2 0xAF JUMPI DUP1 PUSH4 0xF2FDE38B EQ PUSH2 0xCD JUMPI JUMPDEST PUSH0 DUP1 REVERT JUMPDEST PUSH2 0x73 PUSH1 0x4 DUP1 CALLDATASIZE SUB DUP2 ADD SWAP1 PUSH2 0x6E SWAP2 SWAP1 PUSH2 0x447 JUMP JUMPDEST PUSH2 0xE9 JUMP JUMPDEST STOP JUMPDEST PUSH2 0x7D PUSH2 0x149 JUMP JUMPDEST STOP JUMPDEST PUSH2 0x99 PUSH1 0x4 DUP1 CALLDATASIZE SUB DUP2 ADD SWAP1 PUSH2 0x94 SWAP2 SWAP1 PUSH2 0x485 JUMP JUMPDEST PUSH2 0x15C JUMP JUMPDEST PUSH1 0x40 MLOAD PUSH2 0xA6 SWAP2 SWAP1 PUSH2 0x4BF JUMP JUMPDEST PUSH1 0x40 MLOAD DUP1 SWAP2 SUB SWAP1 RETURN JUMPDEST PUSH2 0xB7 PUSH2 0x1AE JUMP JUMPDEST PUSH1 0x40 MLOAD PUSH2 0xC4 SWAP2 SWAP1 PUSH2 0x4E7 JUMP JUMPDEST PUSH1 0x40 MLOAD DUP1 SWAP2 SUB SWAP1 RETURN JUMPDEST PUSH2 0xE7 PUSH1 0x4 DUP1 CALLDATASIZE SUB DUP2 ADD SWAP1 PUSH2 0xE2 SWAP2 SWAP1 PUSH2 0x485 JUMP JUMPDEST PUSH2 0x1D5 JUMP JUMPDEST STOP JUMPDEST PUSH2 0xF1 PUSH2 0x259 JUMP JUMPDEST DUP1 PUSH1 0x1 PUSH0 DUP5 PUSH20 0xFFFFFFFFFFFFFFFFFFFFFFFFFFFFFFFFFFFFFFFF AND PUSH20 0xFFFFFFFFFFFFFFFFFFFFFFFFFFFFFFFFFFFFFFFF AND DUP2 MSTORE PUSH1 0x20 ADD SWAP1 DUP2 MSTORE PUSH1 0x20 ADD PUSH0 KECCAK256 PUSH0 PUSH2 0x100 EXP DUP2 SLOAD DUP2 PUSH1 0xFF MUL NOT AND SWAP1 DUP4 ISZERO ISZERO MUL OR SWAP1 SSTORE POP POP POP JUMP JUMPDEST PUSH2 0x151 PUSH2 0x259 JUMP JUMPDEST PUSH2 0x15A PUSH0 PUSH2 0x2E0 JUMP JUMPDEST JUMP JUMPDEST PUSH0 PUSH1 0x1 PUSH0 DUP4 PUSH20 0xFFFFFFFFFFFFFFFFFFFFFFFFFFFFFFFFFFFFFFFF AND PUSH20 0xFFFFFFFFFFFFFFFFFFFFFFFFFFFFFFFFFFFFFFFF AND DUP2 MSTORE PUSH1 0x20 ADD SWAP1 DUP2 MSTORE PUSH1 0x20 ADD PUSH0 KECCAK256 PUSH0 SWAP1 SLOAD SWAP1 PUSH2 0x100 EXP SWAP1 DIV PUSH1 0xFF AND SWAP1 POP SWAP2 SWAP1 POP JUMP JUMPDEST PUSH0 DUP1 PUSH0 SWAP1 SLOAD SWAP1 PUSH2 0x100 EXP SWAP1 DIV PUSH20 0xFFFFFFFFFFFFFFFFFFFFFFFFFFFFFFFFFFFFFFFF AND SWAP1 POP SWAP1 JUMP JUMPDEST PUSH2 0x1DD PUSH2 0x259 JUMP JUMPDEST PUSH0 PUSH20 0xFFFFFFFFFFFFFFFFFFFFFFFFFFFFFFFFFFFFFFFF AND DUP2 PUSH20 0xFFFFFFFFFFFFFFFFFFFFFFFFFFFFFFFFFFFFFFFF AND SUB PUSH2 0x24D JUMPI PUSH0 PUSH1 0x40 MLOAD PUSH32 0x1E4FBDF700000000000000000000000000000000000000000000000000000000 DUP2 MSTORE PUSH1 0x4 ADD PUSH2 0x244 SWAP2 SWAP1 PUSH2 0x4E7 JUMP JUMPDEST PUSH1 0x40 MLOAD DUP1 SWAP2 SUB SWAP1 REVERT JUMPDEST PUSH2 0x256 DUP2 PUSH2 0x2E0 JUMP JUMPDEST POP JUMP JUMPDEST PUSH2 0x261 PUSH2 0x2EC JUMP JUMPDEST PUSH20 0xFFFFFFFFFFFFFFFFFFFFFFFFFFFFFFFFFFFFFFFF AND PUSH2 0x27F PUSH2 0x1AE JUMP JUMPDEST PUSH20 0xFFFFFFFFFFFFFFFFFFFFFFFFFFFFFFFFFFFFFFFF AND EQ PUSH2 0x2DE JUMPI PUSH2 0x2A2 PUSH2 0x2EC JUMP JUMPDEST PUSH1 0x40 MLOAD PUSH32 0x118CDAA700000000000000000000000000000000000000000000000000000000 DUP2 MSTORE PUSH1 0x4 ADD PUSH2 0x2D5 SWAP2 SWAP1 PUSH2 0x4E7 JUMP JUMPDEST PUSH1 0x40 MLOAD DUP1 SWAP2 SUB SWAP1 REVERT JUMPDEST JUMP JUMPDEST PUSH2 0x2E9 DUP2 PUSH2 0x2F3 JUMP JUMPDEST POP JUMP JUMPDEST PUSH0 CALLER SWAP1 POP SWAP1 JUMP JUMPDEST PUSH0 DUP1 PUSH0 SWAP1 SLOAD SWAP1 PUSH2 0x100 EXP SWAP1 DIV PUSH20 0xFFFFFFFFFFFFFFFFFFFFFFFFFFFFFFFFFFFFFFFF AND SWAP1 POP DUP2 PUSH0 DUP1 PUSH2 0x100 EXP DUP2 SLOAD DUP2 PUSH20 0xFFFFFFFFFFFFFFFFFFFFFFFFFFFFFFFFFFFFFFFF MUL NOT AND SWAP1 DUP4 PUSH20 0xFFFFFFFFFFFFFFFFFFFFFFFFFFFFFFFFFFFFFFFF AND MUL OR SWAP1 SSTORE POP DUP2 PUSH20 0xFFFFFFFFFFFFFFFFFFFFFFFFFFFFFFFFFFFFFFFF AND DUP2 PUSH20 0xFFFFFFFFFFFFFFFFFFFFFFFFFFFFFFFFFFFFFFFF AND PUSH32 0x8BE0079C531659141344CD1FD0A4F28419497F9722A3DAAFE3B4186F6B6457E0 PUSH1 0x40 MLOAD PUSH1 0x40 MLOAD DUP1 SWAP2 SUB SWAP1 LOG3 POP POP JUMP JUMPDEST PUSH0 DUP1 REVERT JUMPDEST PUSH0 PUSH20 0xFFFFFFFFFFFFFFFFFFFFFFFFFFFFFFFFFFFFFFFF DUP3 AND SWAP1 POP SWAP2 SWAP1 POP JUMP JUMPDEST PUSH0 PUSH2 0x3E1 DUP3 PUSH2 0x3B8 JUMP JUMPDEST SWAP1 POP SWAP2 SWAP1 POP JUMP JUMPDEST PUSH2 0x3F1 DUP2 PUSH2 0x3D7 JUMP JUMPDEST DUP2 EQ PUSH2 0x3FB JUMPI PUSH0 DUP1 REVERT JUMPDEST POP JUMP JUMPDEST PUSH0 DUP2 CALLDATALOAD SWAP1 POP PUSH2 0x40C DUP2 PUSH2 0x3E8 JUMP JUMPDEST SWAP3 SWAP2 POP POP JUMP JUMPDEST PUSH0 DUP2 ISZERO ISZERO SWAP1 POP SWAP2 SWAP1 POP JUMP JUMPDEST PUSH2 0x426 DUP2 PUSH2 0x412 JUMP JUMPDEST DUP2 EQ PUSH2 0x430 JUMPI PUSH0 DUP1 REVERT JUMPDEST POP JUMP JUMPDEST PUSH0 DUP2 CALLDATALOAD SWAP1 POP PUSH2 0x441 DUP2 PUSH2 0x41D JUMP JUMPDEST SWAP3 SWAP2 POP POP JUMP JUMPDEST PUSH0 DUP1 PUSH1 0x40 DUP4 DUP6 SUB SLT ISZERO PUSH2 0x45D JUMPI PUSH2 0x45C PUSH2 0x3B4 JUMP JUMPDEST JUMPDEST PUSH0 PUSH2 0x46A DUP6 DUP3 DUP7 ADD PUSH2 0x3FE JUMP JUMPDEST SWAP3 POP POP PUSH1 0x20 PUSH2 0x47B DUP6 DUP3 DUP7 ADD PUSH2 0x433 JUMP JUMPDEST SWAP2 POP POP SWAP3 POP SWAP3 SWAP1 POP JUMP JUMPDEST PUSH0 PUSH1 0x20 DUP3 DUP5 SUB SLT ISZERO PUSH2 0x49A JUMPI PUSH2 0x499 PUSH2 0x3B4 JUMP JUMPDEST JUMPDEST PUSH0 PUSH2 0x4A7 DUP5 DUP3 DUP6 ADD PUSH2 0x3FE JUMP JUMPDEST SWAP2 POP POP SWAP3 SWAP2 POP POP JUMP JUMPDEST PUSH2 0x4B9 DUP2 PUSH2 0x412 JUMP JUMPDEST DUP3 MSTORE POP POP JUMP JUMPDEST PUSH0 PUSH1 0x20 DUP3 ADD SWAP1 POP PUSH2 0x4D2 PUSH0 DUP4 ADD DUP5 PUSH2 0x4B0 JUMP JUMPDEST SWAP3 SWAP2 POP POP JUMP JUMPDEST PUSH2 0x4E1 DUP2 PUSH2 0x3D7 JUMP JUMPDEST DUP3 MSTORE POP POP JUMP JUMPDEST PUSH0 PUSH1 0x20 DUP3 ADD SWAP1 POP PUSH2 0x4FA PUSH0 DUP4 ADD DUP5 PUSH2 0x4D8 JUMP JUMPDEST SWAP3 SWAP2 POP POP JUMP INVALID LOG2 PUSH5 0x6970667358 0x22 SLT KECCAK256 CREATE2 0xBB PUSH3 0x905C90 SELFBALANCE BLOCKHASH 0xAD DUP4 0xB4 0xAF 0xAA GASPRICE CREATE2 SWAP12 0xAD PUSH1 0x57 DUP5 0xE1 PUSH20 0xE492648E4351F8BAE1FE64736F6C634300081A00 CALLER "
				},
				"gasEstimates": {
					"creation": {
						"codeDepositCost": "266800",
						"executionCost": "infinite",
						"totalCost": "infinite"
					},
					"external": {
						"isBlaclisted(address)": "2892",
						"owner()": "2559",
						"renounceOwnership()": "infinite",
						"setBlacklist(address,bool)": "infinite",
						"transferOwnership(address)": "infinite"
					},
					"internal": {
						"_transferOwnership(address)": "28007"
					}
				},
				"methodIdentifiers": {
					"isBlaclisted(address)": "7c6536ca",
					"owner()": "8da5cb5b",
					"renounceOwnership()": "715018a6",
					"setBlacklist(address,bool)": "153b0d1e",
					"transferOwnership(address)": "f2fde38b"
				}
			},
			"storageLayout": {
				"storage": [
					{
						"astId": 8,
						"contract": "homework/03/OpenZeppelin/MyContract1.sol:MyContract1",
						"label": "_owner",
						"offset": 0,
						"slot": "0",
						"type": "t_address"
					},
					{
						"astId": 186,
						"contract": "homework/03/OpenZeppelin/MyContract1.sol:MyContract1",
						"label": "blacklist",
						"offset": 0,
						"slot": "1",
						"type": "t_mapping(t_address,t_bool)"
					}
				],
				"types": {
					"t_address": {
						"encoding": "inplace",
						"label": "address",
						"numberOfBytes": "20"
					},
					"t_bool": {
						"encoding": "inplace",
						"label": "bool",
						"numberOfBytes": "1"
					},
					"t_mapping(t_address,t_bool)": {
						"encoding": "mapping",
						"key": "t_address",
						"label": "mapping(address => bool)",
						"numberOfBytes": "32",
						"value": "t_bool"
					}
				}
			},
			"userdoc": {
				"kind": "user",
				"methods": {},
				"version": 1
			}
		}
	}
}