{
	"data": {
		"bytecode": {
			"linkReferences": {},
			"object": "6080604052348015600e575f80fd5b506102fa8061001c5f395ff3fe608060405234801561000f575f80fd5b5060043610610034575f3560e01c8063188b85b41461003857806338cc483114610068575b5f80fd5b610052600480360381019061004d9190610115565b610086565b60405161005f919061014f565b60405180910390f35b6100706100d7565b60405161007d91906101a7565b60405180910390f35b5f805f90505f600190505b8381116100cd575f6002826100a691906101ed565b146100ba5780826100b7919061024a565b91505b80806100c59061027d565b915050610091565b5080915050919050565b5f30905090565b5f80fd5b5f819050919050565b6100f4816100e2565b81146100fe575f80fd5b50565b5f8135905061010f816100eb565b92915050565b5f6020828403121561012a576101296100de565b5b5f61013784828501610101565b91505092915050565b610149816100e2565b82525050565b5f6020820190506101625f830184610140565b92915050565b5f73ffffffffffffffffffffffffffffffffffffffff82169050919050565b5f61019182610168565b9050919050565b6101a181610187565b82525050565b5f6020820190506101ba5f830184610198565b92915050565b7f4e487b71000000000000000000000000000000000000000000000000000000005f52601260045260245ffd5b5f6101f7826100e2565b9150610202836100e2565b925082610212576102116101c0565b5b828206905092915050565b7f4e487b71000000000000000000000000000000000000000000000000000000005f52601160045260245ffd5b5f610254826100e2565b915061025f836100e2565b92508282019050808211156102775761027661021d565b5b92915050565b5f610287826100e2565b91507fffffffffffffffffffffffffffffffffffffffffffffffffffffffffffffffff82036102b9576102b861021d565b5b60018201905091905056fea26469706673582212207c28a54f560e2324d1b80d442925f057e7c6c1d07e27a159076f7e7bf128b7e464736f6c634300081a0033",
			"opcodes": "PUSH1 0x80 PUSH1 0x40 MSTORE CALLVALUE DUP1 ISZERO PUSH1 0xE JUMPI PUSH0 DUP1 REVERT JUMPDEST POP PUSH2 0x2FA DUP1 PUSH2 0x1C PUSH0 CODECOPY PUSH0 RETURN INVALID PUSH1 0x80 PUSH1 0x40 MSTORE CALLVALUE DUP1 ISZERO PUSH2 0xF JUMPI PUSH0 DUP1 REVERT JUMPDEST POP PUSH1 0x4 CALLDATASIZE LT PUSH2 0x34 JUMPI PUSH0 CALLDATALOAD PUSH1 0xE0 SHR DUP1 PUSH4 0x188B85B4 EQ PUSH2 0x38 JUMPI DUP1 PUSH4 0x38CC4831 EQ PUSH2 0x68 JUMPI JUMPDEST PUSH0 DUP1 REVERT JUMPDEST PUSH2 0x52 PUSH1 0x4 DUP1 CALLDATASIZE SUB DUP2 ADD SWAP1 PUSH2 0x4D SWAP2 SWAP1 PUSH2 0x115 JUMP JUMPDEST PUSH2 0x86 JUMP JUMPDEST PUSH1 0x40 MLOAD PUSH2 0x5F SWAP2 SWAP1 PUSH2 0x14F JUMP JUMPDEST PUSH1 0x40 MLOAD DUP1 SWAP2 SUB SWAP1 RETURN JUMPDEST PUSH2 0x70 PUSH2 0xD7 JUMP JUMPDEST PUSH1 0x40 MLOAD PUSH2 0x7D SWAP2 SWAP1 PUSH2 0x1A7 JUMP JUMPDEST PUSH1 0x40 MLOAD DUP1 SWAP2 SUB SWAP1 RETURN JUMPDEST PUSH0 DUP1 PUSH0 SWAP1 POP PUSH0 PUSH1 0x1 SWAP1 POP JUMPDEST DUP4 DUP2 GT PUSH2 0xCD JUMPI PUSH0 PUSH1 0x2 DUP3 PUSH2 0xA6 SWAP2 SWAP1 PUSH2 0x1ED JUMP JUMPDEST EQ PUSH2 0xBA JUMPI DUP1 DUP3 PUSH2 0xB7 SWAP2 SWAP1 PUSH2 0x24A JUMP JUMPDEST SWAP2 POP JUMPDEST DUP1 DUP1 PUSH2 0xC5 SWAP1 PUSH2 0x27D JUMP JUMPDEST SWAP2 POP POP PUSH2 0x91 JUMP JUMPDEST POP DUP1 SWAP2 POP POP SWAP2 SWAP1 POP JUMP JUMPDEST PUSH0 ADDRESS SWAP1 POP SWAP1 JUMP JUMPDEST PUSH0 DUP1 REVERT JUMPDEST PUSH0 DUP2 SWAP1 POP SWAP2 SWAP1 POP JUMP JUMPDEST PUSH2 0xF4 DUP2 PUSH2 0xE2 JUMP JUMPDEST DUP2 EQ PUSH2 0xFE JUMPI PUSH0 DUP1 REVERT JUMPDEST POP JUMP JUMPDEST PUSH0 DUP2 CALLDATALOAD SWAP1 POP PUSH2 0x10F DUP2 PUSH2 0xEB JUMP JUMPDEST SWAP3 SWAP2 POP POP JUMP JUMPDEST PUSH0 PUSH1 0x20 DUP3 DUP5 SUB SLT ISZERO PUSH2 0x12A JUMPI PUSH2 0x129 PUSH2 0xDE JUMP JUMPDEST JUMPDEST PUSH0 PUSH2 0x137 DUP5 DUP3 DUP6 ADD PUSH2 0x101 JUMP JUMPDEST SWAP2 POP POP SWAP3 SWAP2 POP POP JUMP JUMPDEST PUSH2 0x149 DUP2 PUSH2 0xE2 JUMP JUMPDEST DUP3 MSTORE POP POP JUMP JUMPDEST PUSH0 PUSH1 0x20 DUP3 ADD SWAP1 POP PUSH2 0x162 PUSH0 DUP4 ADD DUP5 PUSH2 0x140 JUMP JUMPDEST SWAP3 SWAP2 POP POP JUMP JUMPDEST PUSH0 PUSH20 0xFFFFFFFFFFFFFFFFFFFFFFFFFFFFFFFFFFFFFFFF DUP3 AND SWAP1 POP SWAP2 SWAP1 POP JUMP JUMPDEST PUSH0 PUSH2 0x191 DUP3 PUSH2 0x168 JUMP JUMPDEST SWAP1 POP SWAP2 SWAP1 POP JUMP JUMPDEST PUSH2 0x1A1 DUP2 PUSH2 0x187 JUMP JUMPDEST DUP3 MSTORE POP POP JUMP JUMPDEST PUSH0 PUSH1 0x20 DUP3 ADD SWAP1 POP PUSH2 0x1BA PUSH0 DUP4 ADD DUP5 PUSH2 0x198 JUMP JUMPDEST SWAP3 SWAP2 POP POP JUMP JUMPDEST PUSH32 0x4E487B7100000000000000000000000000000000000000000000000000000000 PUSH0 MSTORE PUSH1 0x12 PUSH1 0x4 MSTORE PUSH1 0x24 PUSH0 REVERT JUMPDEST PUSH0 PUSH2 0x1F7 DUP3 PUSH2 0xE2 JUMP JUMPDEST SWAP2 POP PUSH2 0x202 DUP4 PUSH2 0xE2 JUMP JUMPDEST SWAP3 POP DUP3 PUSH2 0x212 JUMPI PUSH2 0x211 PUSH2 0x1C0 JUMP JUMPDEST JUMPDEST DUP3 DUP3 MOD SWAP1 POP SWAP3 SWAP2 POP POP JUMP JUMPDEST PUSH32 0x4E487B7100000000000000000000000000000000000000000000000000000000 PUSH0 MSTORE PUSH1 0x11 PUSH1 0x4 MSTORE PUSH1 0x24 PUSH0 REVERT JUMPDEST PUSH0 PUSH2 0x254 DUP3 PUSH2 0xE2 JUMP JUMPDEST SWAP2 POP PUSH2 0x25F DUP4 PUSH2 0xE2 JUMP JUMPDEST SWAP3 POP DUP3 DUP3 ADD SWAP1 POP DUP1 DUP3 GT ISZERO PUSH2 0x277 JUMPI PUSH2 0x276 PUSH2 0x21D JUMP JUMPDEST JUMPDEST SWAP3 SWAP2 POP POP JUMP JUMPDEST PUSH0 PUSH2 0x287 DUP3 PUSH2 0xE2 JUMP JUMPDEST SWAP2 POP PUSH32 0xFFFFFFFFFFFFFFFFFFFFFFFFFFFFFFFFFFFFFFFFFFFFFFFFFFFFFFFFFFFFFFFF DUP3 SUB PUSH2 0x2B9 JUMPI PUSH2 0x2B8 PUSH2 0x21D JUMP JUMPDEST JUMPDEST PUSH1 0x1 DUP3 ADD SWAP1 POP SWAP2 SWAP1 POP JUMP INVALID LOG2 PUSH5 0x6970667358 0x22 SLT KECCAK256 PUSH29 0x28A54F560E2324D1B80D442925F057E7C6C1D07E27A159076F7E7BF128 0xB7 0xE4 PUSH5 0x736F6C6343 STOP ADDMOD BYTE STOP CALLER "
		},
		"gasEstimates": {
			"creation": {
				"codeDepositCost": "152400",
				"executionCost": "194",
				"totalCost": "152594"
			},
			"external": {
				"getAddress()": "379",
				"sum(uint256)": "infinite"
			}
		},
		"methodIdentifiers": {
			"getAddress()": "38cc4831",
			"sum(uint256)": "188b85b4"
		}
	},
	"abi": [
		{
			"inputs": [],
			"name": "getAddress",
			"outputs": [
				{
					"internalType": "address",
					"name": "",
					"type": "address"
				}
			],
			"stateMutability": "view",
			"type": "function"
		},
		{
			"inputs": [
				{
					"internalType": "uint256",
					"name": "n",
					"type": "uint256"
				}
			],
			"name": "sum",
			"outputs": [
				{
					"internalType": "uint256",
					"name": "",
					"type": "uint256"
				}
			],
			"stateMutability": "pure",
			"type": "function"
		}
	]
}